{
  "contractName": "ContractResolver",
  "abi": [
    {
      "constant": false,
      "inputs": [
        {
          "name": "_new_owner",
          "type": "address"
        }
      ],
      "name": "change_owner",
      "outputs": [
        {
          "name": "_success",
          "type": "bool"
        }
      ],
      "payable": false,
      "stateMutability": "nonpayable",
      "type": "function"
    },
    {
      "constant": true,
      "inputs": [],
      "name": "new_owner",
      "outputs": [
        {
          "name": "",
          "type": "address"
        }
      ],
      "payable": false,
      "stateMutability": "view",
      "type": "function"
    },
    {
      "constant": true,
      "inputs": [],
      "name": "locked_forever",
      "outputs": [
        {
          "name": "",
          "type": "bool"
        }
      ],
      "payable": false,
      "stateMutability": "view",
      "type": "function"
    },
    {
      "constant": true,
      "inputs": [],
      "name": "owner",
      "outputs": [
        {
          "name": "",
          "type": "address"
        }
      ],
      "payable": false,
      "stateMutability": "view",
      "type": "function"
    },
    {
      "constant": false,
      "inputs": [],
      "name": "claim_ownership",
      "outputs": [
        {
          "name": "_success",
          "type": "bool"
        }
      ],
      "payable": false,
      "stateMutability": "nonpayable",
      "type": "function"
    },
    {
      "inputs": [],
      "payable": false,
      "stateMutability": "nonpayable",
      "type": "constructor"
    },
    {
      "constant": false,
      "inputs": [
        {
          "name": "_key",
          "type": "bytes32"
        },
        {
          "name": "_contract_address",
          "type": "address"
        }
      ],
      "name": "init_register_contract",
      "outputs": [
        {
          "name": "_success",
          "type": "bool"
        }
      ],
      "payable": false,
      "stateMutability": "nonpayable",
      "type": "function"
    },
    {
      "constant": false,
      "inputs": [],
      "name": "lock_resolver_forever",
      "outputs": [
        {
          "name": "_success",
          "type": "bool"
        }
      ],
      "payable": false,
      "stateMutability": "nonpayable",
      "type": "function"
    },
    {
      "constant": true,
      "inputs": [
        {
          "name": "_key",
          "type": "bytes32"
        }
      ],
      "name": "get_contract",
      "outputs": [
        {
          "name": "_contract",
          "type": "address"
        }
      ],
      "payable": false,
      "stateMutability": "view",
      "type": "function"
    }
  ],
  "bytecode": "0x608060405234801561001057600080fd5b50610028610053640100000000026401000000009004565b151561003357600080fd5b6000600360006101000a81548160ff0219169083151502179055506100d2565b6000801515600160149054906101000a900460ff16151514156100cb57336000806101000a81548173ffffffffffffffffffffffffffffffffffffffff021916908373ffffffffffffffffffffffffffffffffffffffff16021790555060018060146101000a81548160ff0219169083151502179055505b6001905090565b610793806100e16000396000f30060806040526004361061008e576000357c0100000000000000000000000000000000000000000000000000000000900463ffffffff168063253c8bd4146100935780633f83acff146100ee5780634552b04f1461015f5780635ad1a0cb146101b65780636d19a882146101e55780638da5cb5b14610214578063c0f6ef4a1461026b578063f7a79a02146102d4575b600080fd5b34801561009f57600080fd5b506100d4600480360381019080803573ffffffffffffffffffffffffffffffffffffffff169060200190929190505050610303565b604051808215151515815260200191505060405180910390f35b3480156100fa57600080fd5b5061011d6004803603810190808035600019169060200190929190505050610362565b604051808273ffffffffffffffffffffffffffffffffffffffff1673ffffffffffffffffffffffffffffffffffffffff16815260200191505060405180910390f35b34801561016b57600080fd5b5061017461041d565b604051808273ffffffffffffffffffffffffffffffffffffffff1673ffffffffffffffffffffffffffffffffffffffff16815260200191505060405180910390f35b3480156101c257600080fd5b506101cb610443565b604051808215151515815260200191505060405180910390f35b3480156101f157600080fd5b506101fa61047a565b604051808215151515815260200191505060405180910390f35b34801561022057600080fd5b5061022961048d565b604051808273ffffffffffffffffffffffffffffffffffffffff1673ffffffffffffffffffffffffffffffffffffffff16815260200191505060405180910390f35b34801561027757600080fd5b506102ba6004803603810190808035600019169060200190929190803573ffffffffffffffffffffffffffffffffffffffff1690602001909291905050506104b2565b604051808215151515815260200191505060405180910390f35b3480156102e057600080fd5b506102e9610649565b604051808215151515815260200191505060405180910390f35b600061030d610710565b151561031857600080fd5b81600160006101000a81548173ffffffffffffffffffffffffffffffffffffffff021916908373ffffffffffffffffffffffffffffffffffffffff16021790555060019050919050565b60008073ffffffffffffffffffffffffffffffffffffffff1660026000846000191660001916815260200190815260200160002060009054906101000a900473ffffffffffffffffffffffffffffffffffffffff1673ffffffffffffffffffffffffffffffffffffffff16141515156103da57600080fd5b60026000836000191660001916815260200190815260200160002060009054906101000a900473ffffffffffffffffffffffffffffffffffffffff169050919050565b600160009054906101000a900473ffffffffffffffffffffffffffffffffffffffff1681565b600061044d610710565b151561045857600080fd5b6001600360006101000a81548160ff0219169083151502179055506001905090565b600360009054906101000a900460ff1681565b6000809054906101000a900473ffffffffffffffffffffffffffffffffffffffff1681565b60008060009054906101000a900473ffffffffffffffffffffffffffffffffffffffff1673ffffffffffffffffffffffffffffffffffffffff163273ffffffffffffffffffffffffffffffffffffffff1614151561050f57600080fd5b60001515600360009054906101000a900460ff16151514151561053157600080fd5b82600073ffffffffffffffffffffffffffffffffffffffff1660026000836000191660001916815260200190815260200160002060009054906101000a900473ffffffffffffffffffffffffffffffffffffffff1673ffffffffffffffffffffffffffffffffffffffff161415156105a857600080fd5b600073ffffffffffffffffffffffffffffffffffffffff168373ffffffffffffffffffffffffffffffffffffffff16141515156105e457600080fd5b8260026000866000191660001916815260200190815260200160002060006101000a81548173ffffffffffffffffffffffffffffffffffffffff021916908373ffffffffffffffffffffffffffffffffffffffff160217905550600191505092915050565b6000600160009054906101000a900473ffffffffffffffffffffffffffffffffffffffff1673ffffffffffffffffffffffffffffffffffffffff163373ffffffffffffffffffffffffffffffffffffffff161415156106a757600080fd5b600160009054906101000a900473ffffffffffffffffffffffffffffffffffffffff166000806101000a81548173ffffffffffffffffffffffffffffffffffffffff021916908373ffffffffffffffffffffffffffffffffffffffff1602179055506001905090565b60008060009054906101000a900473ffffffffffffffffffffffffffffffffffffffff1673ffffffffffffffffffffffffffffffffffffffff163373ffffffffffffffffffffffffffffffffffffffff16149050905600a165627a7a723058206556dfde2cd70602a079861ffd0a9084c2cb6b258639541fefc47f964953030c0029",
  "source": "pragma solidity ^0.4.25;\n\nimport \"./ACOwned.sol\";\nimport \"./Constants.sol\";\n\n/// @title Contract Name Registry\n/// @author DigixGlobal\n\ncontract ContractResolver is ACOwned, Constants {\n\n  mapping (bytes32 => address) contracts;\n  bool public locked_forever;\n\n  modifier unless_registered(bytes32 _key) {\n    require(contracts[_key] == NULL_ADDRESS);\n    _;\n  }\n\n  modifier if_owner_origin() {\n    require(tx.origin == owner);\n    _;\n  }\n\n  /// Function modifier to check if msg.sender corresponds to the resolved address of a given key\n  /// @param _contract The resolver key\n  modifier if_sender_is(bytes32 _contract) {\n    require(msg.sender == get_contract(_contract));\n    _;\n  }\n\n  modifier if_not_locked() {\n    require(locked_forever == false);\n    _;\n  }\n\n  /// @dev ContractResolver constructor will perform the following: 1. Set msg.sender as the contract owner.\n  constructor() public\n  {\n    require(init_ac_owned());\n    locked_forever = false;\n  }\n\n  /// @dev Called at contract initialization\n  /// @param _key bytestring for CACP name\n  /// @param _contract_address The address of the contract to be registered\n  /// @return _success if the operation is successful\n  function init_register_contract(bytes32 _key, address _contract_address)\n           if_owner_origin()\n           if_not_locked()\n           unless_registered(_key)\n           public\n           returns (bool _success)\n  {\n    require(_contract_address != NULL_ADDRESS);\n    contracts[_key] = _contract_address;\n    _success = true;\n  }\n\n  /// @dev Lock the resolver from any further modifications.  This can only be called from the owner\n  /// @return _success if the operation is successful\n  function lock_resolver_forever()\n           if_owner\n           public\n           returns (bool _success)\n  {\n    locked_forever = true;\n    _success = true;\n  }\n\n  /// @dev Get address of a contract\n  /// @param _key the bytestring name of the contract to look up\n  /// @return _contract the address of the contract\n  function get_contract(bytes32 _key)\n           public\n           view\n           returns (address _contract)\n  {\n    require(contracts[_key] != NULL_ADDRESS);\n    _contract = contracts[_key];\n  }\n\n}\n",
  "sourcePath": "@digix/cacp-contracts-dao/contracts/ContractResolver.sol",
  "compiler": {
    "name": "solc",
    "version": "0.4.25+commit.59dbf8f1.Emscripten.clang"
  },
  "schemaVersion": "2.0.2",
  "updatedAt": "2019-03-25T02:40:46.874Z"
}