{
  "contractName": "Dao",
  "abi": [
    {
      "constant": true,
      "inputs": [],
      "name": "resolver",
      "outputs": [
        {
          "name": "",
          "type": "address"
        }
      ],
      "payable": false,
      "stateMutability": "view",
      "type": "function"
    },
    {
      "constant": true,
      "inputs": [
        {
          "name": "_configKey",
          "type": "bytes32"
        }
      ],
      "name": "getAddressConfig",
      "outputs": [
        {
          "name": "_configValue",
          "type": "address"
        }
      ],
      "payable": false,
      "stateMutability": "view",
      "type": "function"
    },
    {
      "constant": true,
      "inputs": [],
      "name": "key",
      "outputs": [
        {
          "name": "",
          "type": "bytes32"
        }
      ],
      "payable": false,
      "stateMutability": "view",
      "type": "function"
    },
    {
      "constant": true,
      "inputs": [
        {
          "name": "_key",
          "type": "bytes32"
        }
      ],
      "name": "get_contract",
      "outputs": [
        {
          "name": "_contract",
          "type": "address"
        }
      ],
      "payable": false,
      "stateMutability": "view",
      "type": "function"
    },
    {
      "constant": true,
      "inputs": [],
      "name": "currentTimeInQuarter",
      "outputs": [
        {
          "name": "_currentT",
          "type": "uint256"
        }
      ],
      "payable": false,
      "stateMutability": "view",
      "type": "function"
    },
    {
      "constant": true,
      "inputs": [],
      "name": "isMainPhase",
      "outputs": [
        {
          "name": "_isMainPhase",
          "type": "bool"
        }
      ],
      "payable": false,
      "stateMutability": "view",
      "type": "function"
    },
    {
      "constant": true,
      "inputs": [],
      "name": "isLockingPhase",
      "outputs": [
        {
          "name": "_isLockingPhase",
          "type": "bool"
        }
      ],
      "payable": false,
      "stateMutability": "view",
      "type": "function"
    },
    {
      "constant": true,
      "inputs": [],
      "name": "currentQuarterNumber",
      "outputs": [
        {
          "name": "_quarterNumber",
          "type": "uint256"
        }
      ],
      "payable": false,
      "stateMutability": "view",
      "type": "function"
    },
    {
      "constant": true,
      "inputs": [
        {
          "name": "_user",
          "type": "address"
        }
      ],
      "name": "isParticipant",
      "outputs": [
        {
          "name": "_is",
          "type": "bool"
        }
      ],
      "payable": false,
      "stateMutability": "view",
      "type": "function"
    },
    {
      "constant": true,
      "inputs": [
        {
          "name": "_configKey",
          "type": "bytes32"
        }
      ],
      "name": "getBytesConfig",
      "outputs": [
        {
          "name": "_configValue",
          "type": "bytes32"
        }
      ],
      "payable": false,
      "stateMutability": "view",
      "type": "function"
    },
    {
      "constant": true,
      "inputs": [
        {
          "name": "_configKey",
          "type": "bytes32"
        }
      ],
      "name": "getUintConfig",
      "outputs": [
        {
          "name": "_configValue",
          "type": "uint256"
        }
      ],
      "payable": false,
      "stateMutability": "view",
      "type": "function"
    },
    {
      "constant": true,
      "inputs": [],
      "name": "isDaoNotReplaced",
      "outputs": [
        {
          "name": "_isNotReplaced",
          "type": "bool"
        }
      ],
      "payable": false,
      "stateMutability": "view",
      "type": "function"
    },
    {
      "constant": true,
      "inputs": [],
      "name": "CONTRACT_ADDRESS",
      "outputs": [
        {
          "name": "",
          "type": "address"
        }
      ],
      "payable": false,
      "stateMutability": "view",
      "type": "function"
    },
    {
      "constant": true,
      "inputs": [
        {
          "name": "_proposalId",
          "type": "bytes32"
        }
      ],
      "name": "isProposalPaused",
      "outputs": [
        {
          "name": "_isPausedOrStopped",
          "type": "bool"
        }
      ],
      "payable": false,
      "stateMutability": "view",
      "type": "function"
    },
    {
      "constant": true,
      "inputs": [
        {
          "name": "_user",
          "type": "address"
        }
      ],
      "name": "isModerator",
      "outputs": [
        {
          "name": "_is",
          "type": "bool"
        }
      ],
      "payable": false,
      "stateMutability": "view",
      "type": "function"
    },
    {
      "inputs": [
        {
          "name": "_resolver",
          "type": "address"
        }
      ],
      "payable": false,
      "stateMutability": "nonpayable",
      "type": "constructor"
    },
    {
      "anonymous": false,
      "inputs": [
        {
          "indexed": true,
          "name": "_proposalId",
          "type": "bytes32"
        },
        {
          "indexed": false,
          "name": "_proposer",
          "type": "address"
        }
      ],
      "name": "NewProposal",
      "type": "event"
    },
    {
      "anonymous": false,
      "inputs": [
        {
          "indexed": true,
          "name": "_proposalId",
          "type": "bytes32"
        },
        {
          "indexed": false,
          "name": "_newDoc",
          "type": "bytes32"
        }
      ],
      "name": "ModifyProposal",
      "type": "event"
    },
    {
      "anonymous": false,
      "inputs": [
        {
          "indexed": true,
          "name": "_proposalId",
          "type": "bytes32"
        }
      ],
      "name": "ChangeProposalFunding",
      "type": "event"
    },
    {
      "anonymous": false,
      "inputs": [
        {
          "indexed": true,
          "name": "_proposalId",
          "type": "bytes32"
        }
      ],
      "name": "FinalizeProposal",
      "type": "event"
    },
    {
      "anonymous": false,
      "inputs": [
        {
          "indexed": true,
          "name": "_proposalId",
          "type": "bytes32"
        },
        {
          "indexed": true,
          "name": "_milestoneIndex",
          "type": "uint256"
        }
      ],
      "name": "FinishMilestone",
      "type": "event"
    },
    {
      "anonymous": false,
      "inputs": [
        {
          "indexed": true,
          "name": "_proposalId",
          "type": "bytes32"
        },
        {
          "indexed": false,
          "name": "_newDoc",
          "type": "bytes32"
        }
      ],
      "name": "AddProposalDoc",
      "type": "event"
    },
    {
      "anonymous": false,
      "inputs": [
        {
          "indexed": true,
          "name": "_proposalId",
          "type": "bytes32"
        },
        {
          "indexed": false,
          "name": "_actionId",
          "type": "uint256"
        },
        {
          "indexed": false,
          "name": "_doc",
          "type": "bytes32"
        }
      ],
      "name": "PRLAction",
      "type": "event"
    },
    {
      "anonymous": false,
      "inputs": [
        {
          "indexed": true,
          "name": "_proposalId",
          "type": "bytes32"
        }
      ],
      "name": "CloseProposal",
      "type": "event"
    },
    {
      "anonymous": false,
      "inputs": [
        {
          "indexed": false,
          "name": "_newDaoContract",
          "type": "address"
        },
        {
          "indexed": false,
          "name": "_newDaoFundingManager",
          "type": "address"
        },
        {
          "indexed": false,
          "name": "_newDaoRewardsManager",
          "type": "address"
        }
      ],
      "name": "MigrateToNewDao",
      "type": "event"
    },
    {
      "constant": false,
      "inputs": [
        {
          "name": "_newDaoContract",
          "type": "address"
        },
        {
          "name": "_newDaoFundingManager",
          "type": "address"
        },
        {
          "name": "_newDaoRewardsManager",
          "type": "address"
        }
      ],
      "name": "setNewDaoContracts",
      "outputs": [],
      "payable": false,
      "stateMutability": "nonpayable",
      "type": "function"
    },
    {
      "constant": false,
      "inputs": [
        {
          "name": "_newDaoContract",
          "type": "address"
        },
        {
          "name": "_newDaoFundingManager",
          "type": "address"
        },
        {
          "name": "_newDaoRewardsManager",
          "type": "address"
        }
      ],
      "name": "migrateToNewDao",
      "outputs": [],
      "payable": false,
      "stateMutability": "nonpayable",
      "type": "function"
    },
    {
      "constant": false,
      "inputs": [
        {
          "name": "_start",
          "type": "uint256"
        }
      ],
      "name": "setStartOfFirstQuarter",
      "outputs": [],
      "payable": false,
      "stateMutability": "nonpayable",
      "type": "function"
    },
    {
      "constant": false,
      "inputs": [
        {
          "name": "_docIpfsHash",
          "type": "bytes32"
        },
        {
          "name": "_milestonesFundings",
          "type": "uint256[]"
        },
        {
          "name": "_finalReward",
          "type": "uint256"
        }
      ],
      "name": "submitPreproposal",
      "outputs": [],
      "payable": true,
      "stateMutability": "payable",
      "type": "function"
    },
    {
      "constant": false,
      "inputs": [
        {
          "name": "_proposalId",
          "type": "bytes32"
        },
        {
          "name": "_docIpfsHash",
          "type": "bytes32"
        },
        {
          "name": "_milestonesFundings",
          "type": "uint256[]"
        },
        {
          "name": "_finalReward",
          "type": "uint256"
        }
      ],
      "name": "modifyProposal",
      "outputs": [],
      "payable": false,
      "stateMutability": "nonpayable",
      "type": "function"
    },
    {
      "constant": false,
      "inputs": [
        {
          "name": "_proposalId",
          "type": "bytes32"
        },
        {
          "name": "_milestonesFundings",
          "type": "uint256[]"
        },
        {
          "name": "_finalReward",
          "type": "uint256"
        },
        {
          "name": "_currentMilestone",
          "type": "uint256"
        }
      ],
      "name": "changeFundings",
      "outputs": [],
      "payable": false,
      "stateMutability": "nonpayable",
      "type": "function"
    },
    {
      "constant": false,
      "inputs": [
        {
          "name": "_proposalId",
          "type": "bytes32"
        }
      ],
      "name": "finalizeProposal",
      "outputs": [],
      "payable": false,
      "stateMutability": "nonpayable",
      "type": "function"
    },
    {
      "constant": false,
      "inputs": [
        {
          "name": "_proposalId",
          "type": "bytes32"
        },
        {
          "name": "_milestoneIndex",
          "type": "uint256"
        }
      ],
      "name": "finishMilestone",
      "outputs": [],
      "payable": false,
      "stateMutability": "nonpayable",
      "type": "function"
    },
    {
      "constant": false,
      "inputs": [
        {
          "name": "_proposalId",
          "type": "bytes32"
        },
        {
          "name": "_newDoc",
          "type": "bytes32"
        }
      ],
      "name": "addProposalDoc",
      "outputs": [],
      "payable": false,
      "stateMutability": "nonpayable",
      "type": "function"
    },
    {
      "constant": false,
      "inputs": [
        {
          "name": "_proposalId",
          "type": "bytes32"
        }
      ],
      "name": "endorseProposal",
      "outputs": [],
      "payable": false,
      "stateMutability": "nonpayable",
      "type": "function"
    },
    {
      "constant": false,
      "inputs": [
        {
          "name": "_proposalId",
          "type": "bytes32"
        },
        {
          "name": "_action",
          "type": "uint256"
        },
        {
          "name": "_doc",
          "type": "bytes32"
        }
      ],
      "name": "updatePRL",
      "outputs": [],
      "payable": false,
      "stateMutability": "nonpayable",
      "type": "function"
    },
    {
      "constant": false,
      "inputs": [
        {
          "name": "_proposalId",
          "type": "bytes32"
        }
      ],
      "name": "closeProposal",
      "outputs": [],
      "payable": false,
      "stateMutability": "nonpayable",
      "type": "function"
    },
    {
      "constant": false,
      "inputs": [
        {
          "name": "_proposalIds",
          "type": "bytes32[]"
        }
      ],
      "name": "founderCloseProposals",
      "outputs": [],
      "payable": false,
      "stateMutability": "nonpayable",
      "type": "function"
    }
  ],
  "bytecode": "0x608060405260006001026003906000191690556000600460006101000a81548173ffffffffffffffffffffffffffffffffffffffff021916908373ffffffffffffffffffffffffffffffffffffffff1602179055507f70726f706f73616c5f73746174655f70726570726f706f73616c0000000000006005906000191690557f70726f706f73616c5f73746174655f64726166740000000000000000000000006006906000191690557f70726f706f73616c5f73746174655f6d6f6465726174656400000000000000006007906000191690557f70726f706f73616c5f73746174655f6f6e676f696e67000000000000000000006008906000191690557f70726f706f73616c5f73746174655f636c6f73656400000000000000000000006009906000191690557f70726f706f73616c5f73746174655f6172636869766564000000000000000000600a906000191690556001600b556002600c556003600d556001600e556002600f5560036010557f696e7465725f6467645f696400000000000000000000000000000000000000006011906000191690557f696e7465725f6d6f645f6467645f6964000000000000000000000000000000006012906000191690557f696e7465725f626f6e75735f63616c63756c6174696f6e5f69640000000000006013906000191690557f64616f00000000000000000000000000000000000000000000000000000000006014906000191690557f64616f3a7370656369616c3a70726f706f73616c0000000000000000000000006015906000191690557f64616f3a7374616b652d6c6f636b696e670000000000000000000000000000006016906000191690557f64616f3a766f74696e67000000000000000000000000000000000000000000006017906000191690557f64616f3a766f74696e673a636c61696d730000000000000000000000000000006018906000191690557f64616f3a73766f74696e673a636c61696d7300000000000000000000000000006019906000191690557f64616f3a6964656e746974790000000000000000000000000000000000000000601a906000191690557f64616f3a726577617264732d6d616e6167657200000000000000000000000000601b906000191690557f64616f3a726577617264732d6578747261730000000000000000000000000000601c906000191690557f64616f3a726f6c65730000000000000000000000000000000000000000000000601d906000191690557f64616f3a66756e64696e672d6d616e6167657200000000000000000000000000601e906000191690557f64616f3a77686974656c697374696e6700000000000000000000000000000000601f906000191690557f64616f3a696e666f726d6174696f6e00000000000000000000000000000000006020906000191690557f736572766963653a726f6c6500000000000000000000000000000000000000006021906000191690557f736572766963653a64616f3a696e666f000000000000000000000000000000006022906000191690557f736572766963653a64616f3a6c697374696e67000000000000000000000000006023906000191690557f736572766963653a64616f3a63616c63756c61746f72000000000000000000006024906000191690557f73746f726167653a64616f0000000000000000000000000000000000000000006025906000191690557f73746f726167653a64616f3a636f756e746572000000000000000000000000006026906000191690557f73746f726167653a64616f3a75706772616465000000000000000000000000006027906000191690557f73746f726167653a64616f3a6964656e746974790000000000000000000000006028906000191690557f73746f726167653a64616f3a706f696e747300000000000000000000000000006029906000191690557f73746f726167653a64616f3a7370656369616c00000000000000000000000000602a906000191690557f73746f726167653a64616f3a636f6e6669670000000000000000000000000000602b906000191690557f73746f726167653a64616f3a7374616b65000000000000000000000000000000602c906000191690557f73746f726167653a64616f3a7265776172647300000000000000000000000000602d906000191690557f73746f726167653a64616f3a77686974656c697374696e670000000000000000602e906000191690557f73746f726167653a696e7465726d6564696174653a726573756c747300000000602f906000191690557f743a6467640000000000000000000000000000000000000000000000000000006030906000191690557f743a6467780000000000000000000000000000000000000000000000000000006031906000191690557f743a6261646765000000000000000000000000000000000000000000000000006032906000191690556001603360006101000a81548160ff021916908360ff1602179055506002603360016101000a81548160ff021916908360ff1602179055506003603360026101000a81548160ff021916908360ff1602179055506004603360036101000a81548160ff021916908360ff1602179055506276a7006034557f6d696e5f6467645f7061727469636970616e74000000000000000000000000006035906000191690557f6d696e5f6467645f6d6f64657261746f720000000000000000000000000000006036906000191690557f6d696e5f72657075746174696f6e5f6d6f64657261746f7200000000000000006037906000191690557f6c6f636b696e675f70686173655f6475726174696f6e000000000000000000006038906000191690557f717561727465725f6475726174696f6e000000000000000000000000000000006039906000191690557f766f74696e675f636f6d6d69745f706861736500000000000000000000000000603a906000191690557f766f74696e675f70686173655f746f74616c0000000000000000000000000000603b906000191690557f696e746572696d5f766f74696e675f636f6d6d69745f70686173650000000000603c906000191690557f696e746572696d5f766f74696e675f70686173655f746f74616c000000000000603d906000191690557f64726166745f71756f72756d5f66697865645f6e756d657261746f7200000000603e906000191690557f64726166745f71756f72756d5f66697865645f64656e6f6d696e61746f720000603f906000191690557f64726166745f71756f72756d5f73666163746f725f6e756d657261746f7200006040906000191690557f64726166745f71756f72756d5f73666163746f725f64656e6f6d696e61746f726041906000191690557f766f74655f71756f72756d5f66697865645f6e756d657261746f7200000000006042906000191690557f766f74655f71756f72756d5f66697865645f64656e6f6d696e61746f720000006043906000191690557f766f74655f71756f72756d5f73666163746f725f6e756d657261746f720000006044906000191690557f766f74655f71756f72756d5f73666163746f725f64656e6f6d696e61746f72006045906000191690557f66696e616c5f7265776172645f73666163746f725f6e756d657261746f7200006046906000191690557f66696e616c5f7265776172645f73666163746f725f64656e6f6d696e61746f726047906000191690557f64726166745f71756f74615f6e756d657261746f7200000000000000000000006048906000191690557f64726166745f71756f74615f64656e6f6d696e61746f720000000000000000006049906000191690557f766f74696e675f71756f74615f6e756d657261746f7200000000000000000000604a906000191690557f766f74696e675f71756f74615f64656e6f6d696e61746f720000000000000000604b906000191690557f6d696e696d616c5f717000000000000000000000000000000000000000000000604c906000191690557f717561727465725f706f696e745f7363616c696e675f666163746f7200000000604d906000191690557f7265705f706f696e745f7363616c696e675f666163746f720000000000000000604e906000191690557f6d696e696d616c5f6d6f645f7170000000000000000000000000000000000000604f906000191690557f6d6f645f71705f7363616c696e675f666163746f7200000000000000000000006050906000191690557f6d6f645f7265705f706f696e745f7363616c696e675f666163746f72000000006051906000191690557f717561727465725f706f696e745f64726166745f766f746500000000000000006052906000191690557f717561727465725f706f696e745f766f746500000000000000000000000000006053906000191690557f717561727465725f706f696e745f696e746572696d5f766f74650000000000006054906000191690557f715f705f6d696c6573746f6e655f636f6d706c6574696f6e00000000000000006055906000191690557f626f6e75735f72657075746174696f6e5f6e756d657261746f720000000000006056906000191690557f626f6e75735f72657075746174696f6e5f64656e6f6d696e61746f72000000006057906000191690557f7370656369616c5f70726f706f73616c5f636f6d6d69745f70686173650000006058906000191690557f7370656369616c5f70726f706f73616c5f70686173655f746f74616c000000006059906000191690557f636f6e6669675f7370656369616c5f71756f74615f6e756d657261746f720000605a906000191690557f636f6e6669675f7370656369616c5f71756f74615f64656e6f6d696e61746f72605b906000191690557f7370656369616c5f71756f72756d5f6e756d657261746f720000000000000000605c906000191690557f7370656369616c5f71756f72756d5f64656e6f6d696e61746f72000000000000605d906000191690557f636f6e6669675f6d61785f72657075746174696f6e5f646564756374696f6e00605e906000191690557f636f6e6669675f70756e6973686d656e745f6e6f745f6c6f636b696e67000000605f906000191690557f636f6e6669675f7265705f7065725f65787472615f71705f6e756d00000000006060906000191690557f636f6e6669675f7265705f7065725f65787472615f71705f64656e00000000006061906000191690557f636f6e6669675f6d61785f6d5f72705f646564756374696f6e000000000000006062906000191690557f636f6e6669675f7265705f7065725f65787472615f6d5f71705f6e756d0000006063906000191690557f636f6e6669675f7265705f7065725f65787472615f6d5f71705f64656e0000006064906000191690557f636f6e6669675f6d6f645f706f7274696f6e5f6e756d000000000000000000006065906000191690557f636f6e6669675f6d6f645f706f7274696f6e5f64656e000000000000000000006066906000191690557f636f6e6669675f64726166745f766f74696e675f7068617365000000000000006067906000191690557f636f6e6669675f72705f626f6f73745f7065725f6261646765000000000000006068906000191690557f636f6e6669675f636c61696d696e675f646561646c696e6500000000000000006069906000191690557f636f6e6669675f70726570726f706f73616c5f636f6c6c61746572616c000000606a906000191690557f636f6e6669675f6d61785f66756e64696e675f6e6f6e44696769780000000000606b906000191690557f636f6e6669675f6d61785f6d696c6573746f6e65735f6e6f6e44696769780000606c906000191690557f636f6e6669675f6e6f6e44696769785f70726f706f73616c5f63617000000000606d906000191690557f636f6e6669675f646561645f6475726174696f6e000000000000000000000000606e906000191690557f636f6e6669675f63765f72657075746174696f6e000000000000000000000000606f906000191690553480156200113457600080fd5b50604051602080620068ba83398101806040528101908080519060200190929190505050620011756014548262001188640100000000026401000000009004565b15156200118157600080fd5b5062001419565b6000808273ffffffffffffffffffffffffffffffffffffffff16636d19a8826040518163ffffffff167c0100000000000000000000000000000000000000000000000000000000028152600401602060405180830381600087803b158015620011f057600080fd5b505af115801562001205573d6000803e3d6000fd5b505050506040513d60208110156200121c57600080fd5b810190808051906020019092919050505090506000151581151514156200140d5730600260006101000a81548173ffffffffffffffffffffffffffffffffffffffff021916908373ffffffffffffffffffffffffffffffffffffffff160217905550826000806101000a81548173ffffffffffffffffffffffffffffffffffffffff021916908373ffffffffffffffffffffffffffffffffffffffff16021790555083600181600019169055506000809054906101000a900473ffffffffffffffffffffffffffffffffffffffff1673ffffffffffffffffffffffffffffffffffffffff1663c0f6ef4a600154600260009054906101000a900473ffffffffffffffffffffffffffffffffffffffff166040518363ffffffff167c01000000000000000000000000000000000000000000000000000000000281526004018083600019166000191681526020018273ffffffffffffffffffffffffffffffffffffffff1673ffffffffffffffffffffffffffffffffffffffff16815260200192505050602060405180830381600087803b158015620013ba57600080fd5b505af1158015620013cf573d6000803e3d6000fd5b505050506040513d6020811015620013e657600080fd5b810190808051906020019092919050505015156200140357600080fd5b6001915062001412565b600091505b5092915050565b61549180620014296000396000f30060806040526004361061016a576000357c0100000000000000000000000000000000000000000000000000000000900463ffffffff1680630247afe81461016f57806304f3bcec146101aa578063078f872c146102015780631d8ccd04146102325780632b847105146102a35780633943380c146102e95780633b00763d1461031c5780633f83acff1461039f57806347d0da141461041057806355cc313614610441578063560a25ea1461047c5780635b30f1cc146104a757806368533060146104d4578063711f2614146105035780637d6fed80146105605780637ef373541461058f5780637f6a26b6146105d8578063926851af14610603578063929066f51461063457806393ddad081461068f578063b1e2b9dd146106dc578063b202cc9614610721578063d0bd65b1146107a4578063d70d935814610805578063db4ecbc114610834578063eef7b8f51461088b578063f94f0f33146108ca578063fa6f393614610913575b600080fd5b34801561017b57600080fd5b506101a860048036038101908080359060200190820180359060200191909192939192939050505061096e565b005b3480156101b657600080fd5b506101bf610c77565b604051808273ffffffffffffffffffffffffffffffffffffffff1673ffffffffffffffffffffffffffffffffffffffff16815260200191505060405180910390f35b34801561020d57600080fd5b506102306004803603810190808035600019169060200190929190505050610c9c565b005b34801561023e57600080fd5b506102616004803603810190808035600019169060200190929190505050611306565b604051808273ffffffffffffffffffffffffffffffffffffffff1673ffffffffffffffffffffffffffffffffffffffff16815260200191505060405180910390f35b6102e76004803603810190808035600019169060200190929190803590602001908201803590602001919091929391929390803590602001909291905050506113c8565b005b3480156102f557600080fd5b506102fe611782565b60405180826000191660001916815260200191505060405180910390f35b34801561032857600080fd5b5061039d600480360381019080803573ffffffffffffffffffffffffffffffffffffffff169060200190929190803573ffffffffffffffffffffffffffffffffffffffff169060200190929190803573ffffffffffffffffffffffffffffffffffffffff169060200190929190505050611788565b005b3480156103ab57600080fd5b506103ce6004803603810190808035600019169060200190929190505050611f7f565b604051808273ffffffffffffffffffffffffffffffffffffffff1673ffffffffffffffffffffffffffffffffffffffff16815260200191505060405180910390f35b34801561041c57600080fd5b5061043f600480360381019080803560001916906020019092919050505061205b565b005b34801561044d57600080fd5b5061047a600480360381019080803560001916906020019092919080359060200190929190505050612584565b005b34801561048857600080fd5b50610491612a81565b6040518082815260200191505060405180910390f35b3480156104b357600080fd5b506104d260048036038101908080359060200190929190505050612a91565b005b3480156104e057600080fd5b506104e9612bf8565b604051808215151515815260200191505060405180910390f35b34801561050f57600080fd5b5061055e60048036038101908080356000191690602001909291908035906020019082018035906020019190919293919293908035906020019092919080359060200190929190505050612c24565b005b34801561056c57600080fd5b50610575612ffc565b604051808215151515815260200191505060405180910390f35b34801561059b57600080fd5b506105d66004803603810190808035600019169060200190929190803590602001909291908035600019169060200190929190505050613017565b005b3480156105e457600080fd5b506105ed613242565b6040518082815260200191505060405180910390f35b34801561060f57600080fd5b506106326004803603810190808035600019169060200190929190505050613252565b005b34801561064057600080fd5b50610675600480360381019080803573ffffffffffffffffffffffffffffffffffffffff1690602001909291905050506134ae565b604051808215151515815260200191505060405180910390f35b34801561069b57600080fd5b506106be600480360381019080803560001916906020019092919050505061368f565b60405180826000191660001916815260200191505060405180910390f35b3480156106e857600080fd5b5061070b6004803603810190808035600019169060200190929190505050613751565b6040518082815260200191505060405180910390f35b34801561072d57600080fd5b506107a2600480360381019080803573ffffffffffffffffffffffffffffffffffffffff169060200190929190803573ffffffffffffffffffffffffffffffffffffffff169060200190929190803573ffffffffffffffffffffffffffffffffffffffff169060200190929190505050613813565b005b3480156107b057600080fd5b506108036004803603810190808035600019169060200190929190803560001916906020019092919080359060200190820180359060200191909192939192939080359060200190929190505050613aee565b005b34801561081157600080fd5b5061081a613ded565b604051808215151515815260200191505060405180910390f35b34801561084057600080fd5b50610849613e9b565b604051808273ffffffffffffffffffffffffffffffffffffffff1673ffffffffffffffffffffffffffffffffffffffff16815260200191505060405180910390f35b34801561089757600080fd5b506108c860048036038101908080356000191690602001909291908035600019169060200190929190505050613ec1565b005b3480156108d657600080fd5b506108f96004803603810190808035600019169060200190929190505050614134565b604051808215151515815260200191505060405180910390f35b34801561091f57600080fd5b50610954600480360381019080803573ffffffffffffffffffffffffffffffffffffffff169060200190929190505050614289565b604051808215151515815260200191505060405180910390f35b600080600080600061097e61455c565b151561098957600080fd5b868690509450600090505b84811015610c6e576109a4614654565b73ffffffffffffffffffffffffffffffffffffffff1663d8d5017988888481811015156109cd57fe5b90506020020135600019166040518263ffffffff167c010000000000000000000000000000000000000000000000000000000002815260040180826000191660001916815260200191505061014060405180830381600087803b158015610a3357600080fd5b505af1158015610a47573d6000803e3d6000fd5b505050506040513d610140811015610a5e57600080fd5b8101908080519060200190929190805190602001909291908051906020019092919080519060200190929190805190602001909291908051906020019092919080519060200190929190805190602001909291908051906020019092919080519060200190929190505050909192939495969798509091929394959697509091929394959650909192935090919250905050809550819650829450505050600354600019168360001916141515610b1457600080fd5b6005546000191682600019161480610b355750600654600019168260001916145b1515610b4057600080fd5b610b5d610b4e606e54613751565b8561466690919063ffffffff16565b42111515610b6a57600080fd5b8686828181101515610b7857fe5b9050602002013560001916600019167fcc0c35dc01446e741be6aeeeb22693a96b4b42887e92d84a17181687b6a4181860405160405180910390a2610bbb614654565b73ffffffffffffffffffffffffffffffffffffffff1663078f872c8888848181101515610be457fe5b90506020020135600019166040518263ffffffff167c0100000000000000000000000000000000000000000000000000000000028152600401808260001916600019168152602001915050600060405180830381600087803b158015610c4957600080fd5b505af1158015610c5d573d6000803e3d6000fd5b505050508080600101915050610994565b50505050505050565b6000809054906101000a900473ffffffffffffffffffffffffffffffffffffffff1681565b600080610ca7614682565b610cb0836148ce565b1515610d24576040517f08c379a000000000000000000000000000000000000000000000000000000000815260040180806020018281038252600c8152602001807f6e6f742070726f706f736572000000000000000000000000000000000000000081525060200191505060405180910390fd5b610d2c614654565b73ffffffffffffffffffffffffffffffffffffffff1663d8d50179846040518263ffffffff167c010000000000000000000000000000000000000000000000000000000002815260040180826000191660001916815260200191505061014060405180830381600087803b158015610da357600080fd5b505af1158015610db7573d6000803e3d6000fd5b505050506040513d610140811015610dce57600080fd5b81019080805190602001909291908051906020019092919080519060200190929190805190602001909291908051906020019092919080519060200190929190805190602001909291908051906020019092919080519060200190929190805190602001909291905050509091929394959697985090919293949596975090919293949596509091929394509091929350909192509050508093508192505050600354600019168260001916141515610eef576040517f08c379a00000000000000000000000000000000000000000000000000000000081526004018080602001828103825260118152602001807f616c72656164792066696e616c697a656400000000000000000000000000000081525060200191505060405180910390fd5b60095460001916816000191614151515610f71576040517f08c379a000000000000000000000000000000000000000000000000000000000815260040180806020018281038252600e8152602001807f616c726561647920636c6f73656400000000000000000000000000000000000081525060200191505060405180910390fd5b600e54610f7c614654565b73ffffffffffffffffffffffffffffffffffffffff16633be88369856040518263ffffffff167c0100000000000000000000000000000000000000000000000000000000028152600401808260001916600019168152602001915050602060405180830381600087803b158015610ff257600080fd5b505af1158015611006573d6000803e3d6000fd5b505050506040513d602081101561101c57600080fd5b81019080805190602001909291905050501415156110a2576040517f08c379a00000000000000000000000000000000000000000000000000000000081526004018080602001828103825260108152602001807f616c726561647920756e6c6f636b65640000000000000000000000000000000081525060200191505060405180910390fd5b6110aa614654565b73ffffffffffffffffffffffffffffffffffffffff1663078f872c846040518263ffffffff167c0100000000000000000000000000000000000000000000000000000000028152600401808260001916600019168152602001915050600060405180830381600087803b15801561112057600080fd5b505af1158015611134573d6000803e3d6000fd5b50505050611140614654565b73ffffffffffffffffffffffffffffffffffffffff1663c362c790846010546040518363ffffffff167c010000000000000000000000000000000000000000000000000000000002815260040180836000191660001916815260200182815260200192505050600060405180830381600087803b1580156111c057600080fd5b505af11580156111d4573d6000803e3d6000fd5b5050505082600019167fcc0c35dc01446e741be6aeeeb22693a96b4b42887e92d84a17181687b6a4181860405160405180910390a26112116149be565b73ffffffffffffffffffffffffffffffffffffffff16637e71332b33856040518363ffffffff167c0100000000000000000000000000000000000000000000000000000000028152600401808373ffffffffffffffffffffffffffffffffffffffff1673ffffffffffffffffffffffffffffffffffffffff168152602001826000191660001916815260200192505050602060405180830381600087803b1580156112bb57600080fd5b505af11580156112cf573d6000803e3d6000fd5b505050506040513d60208110156112e557600080fd5b8101908080519060200190929190505050151561130157600080fd5b505050565b60006113106149d0565b73ffffffffffffffffffffffffffffffffffffffff1663e6b39eab836040518263ffffffff167c0100000000000000000000000000000000000000000000000000000000028152600401808260001916600019168152602001915050602060405180830381600087803b15801561138657600080fd5b505af115801561139a573d6000803e3d6000fd5b505050506040513d60208110156113b057600080fd5b81019080805190602001909291905050509050919050565b6000838380806020026020016040519081016040528093929190818152602001838360200280828437820191505050505050826114036149e2565b61141e8261141085614a0b565b61466690919063ffffffff16565b1115151561142b57600080fd5b611433614682565b61143b61455c565b9250611448606a54613751565b3414151561145557600080fd5b61145d6149be565b73ffffffffffffffffffffffffffffffffffffffff166161a834604051600060405180830381858888f19350505050151561149757600080fd5b6114d086868080602002602001604051908101604052809392919081815260200183836020028082843782019150505050505085614a5b565b6114d8614654565b73ffffffffffffffffffffffffffffffffffffffff1663a1d444a48833898989896040518763ffffffff167c01000000000000000000000000000000000000000000000000000000000281526004018087600019166000191681526020018673ffffffffffffffffffffffffffffffffffffffff1673ffffffffffffffffffffffffffffffffffffffff168152602001806020018481526020018315151515815260200182810382528686828181526020019250602002808284378201915050975050505050505050600060405180830381600087803b1580156115bb57600080fd5b505af11580156115cf573d6000803e3d6000fd5b505050506115db614654565b73ffffffffffffffffffffffffffffffffffffffff1663c362c79088600e546040518363ffffffff167c010000000000000000000000000000000000000000000000000000000002815260040180836000191660001916815260200182815260200192505050600060405180830381600087803b15801561165b57600080fd5b505af115801561166f573d6000803e3d6000fd5b5050505061167b614654565b73ffffffffffffffffffffffffffffffffffffffff16638a2d659788346040518363ffffffff167c010000000000000000000000000000000000000000000000000000000002815260040180836000191660001916815260200182815260200192505050600060405180830381600087803b1580156116f957600080fd5b505af115801561170d573d6000803e3d6000fd5b5050505086600019167fab48f5995a7b376b9650077476d511b1f1ed03b0c7e403e7cee95a2769060d6833604051808273ffffffffffffffffffffffffffffffffffffffff1673ffffffffffffffffffffffffffffffffffffffff16815260200191505060405180910390a250505050505050565b60015481565b603360009054906101000a900460ff1660ff166117a3614abb565b73ffffffffffffffffffffffffffffffffffffffff1663c31d02b2336040518263ffffffff167c0100000000000000000000000000000000000000000000000000000000028152600401808273ffffffffffffffffffffffffffffffffffffffff1673ffffffffffffffffffffffffffffffffffffffff168152602001915050602060405180830381600087803b15801561183d57600080fd5b505af1158015611851573d6000803e3d6000fd5b505050506040513d602081101561186757600080fd5b810190808051906020019092919050505014151561188457600080fd5b61188c613242565b600181111561195557600061189f614acd565b73ffffffffffffffffffffffffffffffffffffffff1663a78e00d6836040518263ffffffff167c010000000000000000000000000000000000000000000000000000000002815260040180828152602001915050602060405180830381600087803b15801561190d57600080fd5b505af1158015611921573d6000803e3d6000fd5b505050506040513d602081101561193757600080fd5b810190808051906020019092919050505011151561195457600080fd5b5b61195d612ffc565b151561196857600080fd5b60001515611974614adf565b73ffffffffffffffffffffffffffffffffffffffff16638bc865fd6040518163ffffffff167c0100000000000000000000000000000000000000000000000000000000028152600401602060405180830381600087803b1580156119d757600080fd5b505af11580156119eb573d6000803e3d6000fd5b505050506040513d6020811015611a0157600080fd5b81019080805190602001909291905050501515141515611a2057600080fd5b8373ffffffffffffffffffffffffffffffffffffffff16611a3f614adf565b73ffffffffffffffffffffffffffffffffffffffff16633c952b166040518163ffffffff167c0100000000000000000000000000000000000000000000000000000000028152600401602060405180830381600087803b158015611aa257600080fd5b505af1158015611ab6573d6000803e3d6000fd5b505050506040513d6020811015611acc57600080fd5b810190808051906020019092919050505073ffffffffffffffffffffffffffffffffffffffff16148015611bd057508273ffffffffffffffffffffffffffffffffffffffff16611b1a614adf565b73ffffffffffffffffffffffffffffffffffffffff16639c767e376040518163ffffffff167c0100000000000000000000000000000000000000000000000000000000028152600401602060405180830381600087803b158015611b7d57600080fd5b505af1158015611b91573d6000803e3d6000fd5b505050506040513d6020811015611ba757600080fd5b810190808051906020019092919050505073ffffffffffffffffffffffffffffffffffffffff16145b8015611cac57508173ffffffffffffffffffffffffffffffffffffffff16611bf6614adf565b73ffffffffffffffffffffffffffffffffffffffff16638c0c28266040518163ffffffff167c0100000000000000000000000000000000000000000000000000000000028152600401602060405180830381600087803b158015611c5957600080fd5b505af1158015611c6d573d6000803e3d6000fd5b505050506040513d6020811015611c8357600080fd5b810190808051906020019092919050505073ffffffffffffffffffffffffffffffffffffffff16145b1515611cb757600080fd5b611cbf614adf565b73ffffffffffffffffffffffffffffffffffffffff1663efa6b9df6040518163ffffffff167c0100000000000000000000000000000000000000000000000000000000028152600401600060405180830381600087803b158015611d2257600080fd5b505af1158015611d36573d6000803e3d6000fd5b50505050611d426149be565b73ffffffffffffffffffffffffffffffffffffffff1663c72deb9a846040518263ffffffff167c0100000000000000000000000000000000000000000000000000000000028152600401808273ffffffffffffffffffffffffffffffffffffffff1673ffffffffffffffffffffffffffffffffffffffff168152602001915050600060405180830381600087803b158015611ddc57600080fd5b505af1158015611df0573d6000803e3d6000fd5b50505050611dfc614af1565b73ffffffffffffffffffffffffffffffffffffffff16633f5a7583836040518263ffffffff167c0100000000000000000000000000000000000000000000000000000000028152600401808273ffffffffffffffffffffffffffffffffffffffff1673ffffffffffffffffffffffffffffffffffffffff168152602001915050600060405180830381600087803b158015611e9657600080fd5b505af1158015611eaa573d6000803e3d6000fd5b505050507fbdee2a20da24f5e808d52dbcfea2fc775e1b24ad4f67f7fb38c573c3e0cc125a848484604051808473ffffffffffffffffffffffffffffffffffffffff1673ffffffffffffffffffffffffffffffffffffffff1681526020018373ffffffffffffffffffffffffffffffffffffffff1673ffffffffffffffffffffffffffffffffffffffff1681526020018273ffffffffffffffffffffffffffffffffffffffff1673ffffffffffffffffffffffffffffffffffffffff168152602001935050505060405180910390a150505050565b60008060009054906101000a900473ffffffffffffffffffffffffffffffffffffffff1673ffffffffffffffffffffffffffffffffffffffff16633f83acff836040518263ffffffff167c0100000000000000000000000000000000000000000000000000000000028152600401808260001916600019168152602001915050602060405180830381600087803b15801561201957600080fd5b505af115801561202d573d6000803e3d6000fd5b505050506040513d602081101561204357600080fd5b81019080805190602001909291905050509050919050565b6000612065614682565b61206e826148ce565b15156120e2576040517f08c379a000000000000000000000000000000000000000000000000000000000815260040180806020018281038252600c8152602001807f6e6f742070726f706f736572000000000000000000000000000000000000000081525060200191505060405180910390fd5b6120eb82614b03565b151561215f576040517f08c379a00000000000000000000000000000000000000000000000000000000081526004018080602001828103825260158152602001807f70726f706f73616c206e6f74206564697461626c65000000000000000000000081525060200191505060405180910390fd5b61216882614c68565b61218f612176606954613751565b612181606754613751565b61466690919063ffffffff16565b61219842614ce8565b11151561220d576040517f08c379a000000000000000000000000000000000000000000000000000000000815260040180806020018281038252600f8152602001807f6e6f7420656e6f7567682074696d65000000000000000000000000000000000081525060200191505060405180910390fd5b612215614654565b73ffffffffffffffffffffffffffffffffffffffff1663d8d50179836040518263ffffffff167c010000000000000000000000000000000000000000000000000000000002815260040180826000191660001916815260200191505061014060405180830381600087803b15801561228c57600080fd5b505af11580156122a0573d6000803e3d6000fd5b505050506040513d6101408110156122b757600080fd5b8101908080519060200190929190805190602001909291908051906020019092919080519060200190929190805190602001909291908051906020019092919080519060200190929190805190602001909291908051906020019092919080519060200190929190505050909192939495969798509091929394959697509091929394955090919293945090919293509091925090915090505080915050600460009054906101000a900473ffffffffffffffffffffffffffffffffffffffff1673ffffffffffffffffffffffffffffffffffffffff168173ffffffffffffffffffffffffffffffffffffffff161415151561241b576040517f08c379a000000000000000000000000000000000000000000000000000000000815260040180806020018281038252600c8152602001807f6e6f7420656e646f72736564000000000000000000000000000000000000000081525060200191505060405180910390fd5b612423614654565b73ffffffffffffffffffffffffffffffffffffffff166347d0da14836040518263ffffffff167c0100000000000000000000000000000000000000000000000000000000028152600401808260001916600019168152602001915050600060405180830381600087803b15801561249957600080fd5b505af11580156124ad573d6000803e3d6000fd5b505050506124b9614654565b73ffffffffffffffffffffffffffffffffffffffff1663e3f3f7a283426040518363ffffffff167c010000000000000000000000000000000000000000000000000000000002815260040180836000191660001916815260200182815260200192505050600060405180830381600087803b15801561253757600080fd5b505af115801561254b573d6000803e3d6000fd5b5050505081600019167f7987ab68d3e4d0dbf07a8b7eb54fa0557da00515d48a4cefbb95dd10ba8b07b460405160405180910390a25050565b60606000612590614682565b612599846148ce565b151561260d576040517f08c379a000000000000000000000000000000000000000000000000000000000815260040180806020018281038252600c8152602001807f6e6f742070726f706f736572000000000000000000000000000000000000000081525060200191505060405180910390fd5b612615614654565b73ffffffffffffffffffffffffffffffffffffffff16637246d5a7856040518263ffffffff167c0100000000000000000000000000000000000000000000000000000000028152600401808260001916600019168152602001915050600060405180830381600087803b15801561268b57600080fd5b505af115801561269f573d6000803e3d6000fd5b505050506040513d6000823e3d601f19601f8201168201806040525060408110156126c957600080fd5b8101908080516401000000008111156126e157600080fd5b828101905060208101848111156126f757600080fd5b815185602082028301116401000000008211171561271457600080fd5b50509291906020018051906020019092919050505050809250508151831015156127a6576040517f08c379a00000000000000000000000000000000000000000000000000000000081526004018080602001828103825260138152602001807f696e646578206f757473696465206c696d69740000000000000000000000000081525060200191505060405180910390fd5b6127b08484614d16565b90508042111515612829576040517f08c379a00000000000000000000000000000000000000000000000000000000081526004018080602001828103825260158152602001807f6d696c6573746f6e65206e6f742073746172746564000000000000000000000081525060200191505060405180910390fd5b6000612833614654565b73ffffffffffffffffffffffffffffffffffffffff1663baf426608661286360018861466690919063ffffffff16565b6040518363ffffffff167c010000000000000000000000000000000000000000000000000000000002815260040180836000191660001916815260200182815260200192505050602060405180830381600087803b1580156128c457600080fd5b505af11580156128d8573d6000803e3d6000fd5b505050506040513d60208110156128ee57600080fd5b8101908080519060200190929190505050141515612974576040517f08c379a00000000000000000000000000000000000000000000000000000000081526004018080602001828103825260128152602001807f6e657874206d696c6573746f6e6520736574000000000000000000000000000081525060200191505060405180910390fd5b61297c614654565b73ffffffffffffffffffffffffffffffffffffffff1663344e436e856129ac60018761466690919063ffffffff16565b6129c96129c360018961466690919063ffffffff16565b42614e3f565b6040518463ffffffff167c01000000000000000000000000000000000000000000000000000000000281526004018084600019166000191681526020018381526020018281526020019350505050600060405180830381600087803b158015612a3157600080fd5b505af1158015612a45573d6000803e3d6000fd5b505050508284600019167f7f575746acfeec290223241184f2c5353c4a43f01daf9b4d5c4dd028c5b3c49f60405160405180910390a350505050565b6000612a8c42614f3a565b905090565b612a9961455c565b1515612aa457600080fd5b6000612aae614adf565b73ffffffffffffffffffffffffffffffffffffffff1663d9c6bb206040518163ffffffff167c0100000000000000000000000000000000000000000000000000000000028152600401602060405180830381600087803b158015612b1157600080fd5b505af1158015612b25573d6000803e3d6000fd5b505050506040513d6020811015612b3b57600080fd5b8101908080519060200190929190505050141515612b5857600080fd5b600081111515612b6757600080fd5b612b6f614adf565b73ffffffffffffffffffffffffffffffffffffffff16635b30f1cc826040518263ffffffff167c010000000000000000000000000000000000000000000000000000000002815260040180828152602001915050600060405180830381600087803b158015612bdd57600080fd5b505af1158015612bf1573d6000803e3d6000fd5b5050505050565b6000612c02613ded565b8015612c1f5750612c14603854613751565b612c1c612a81565b10155b905090565b6060600080612c31614682565b612c3a886148ce565b1515612c4557600080fd5b612c7e87878080602002602001604051908101604052809392919081815260200183836020028082843782019150505050505086614a5b565b612c86614654565b73ffffffffffffffffffffffffffffffffffffffff16637246d5a7896040518263ffffffff167c0100000000000000000000000000000000000000000000000000000000028152600401808260001916600019168152602001915050600060405180830381600087803b158015612cfc57600080fd5b505af1158015612d10573d6000803e3d6000fd5b505050506040513d6000823e3d601f19601f820116820180604052506040811015612d3a57600080fd5b810190808051640100000000811115612d5257600080fd5b82810190506020810184811115612d6857600080fd5b8151856020820283011164010000000082111715612d8557600080fd5b5050929190602001805190602001909291905050505080935050825184101515612dae57600080fd5b612db88885614d16565b91508142111515612dc857600080fd5b6000612dd2614654565b73ffffffffffffffffffffffffffffffffffffffff1663baf426608a612e0260018961466690919063ffffffff16565b6040518363ffffffff167c010000000000000000000000000000000000000000000000000000000002815260040180836000191660001916815260200182815260200192505050602060405180830381600087803b158015612e6357600080fd5b505af1158015612e77573d6000803e3d6000fd5b505050506040513d6020811015612e8d57600080fd5b8101908080519060200190929190505050141515612eaa57600080fd5b600090505b8381111515612efe578281815181101515612ec657fe5b906020019060200201518787838181101515612ede57fe5b90506020020135141515612ef157600080fd5b8080600101915050612eaf565b612f06614654565b73ffffffffffffffffffffffffffffffffffffffff1663c3093bb1898989896040518563ffffffff167c0100000000000000000000000000000000000000000000000000000000028152600401808560001916600019168152602001806020018381526020018281038252858582818152602001925060200280828437820191505095505050505050600060405180830381600087803b158015612fa957600080fd5b505af1158015612fbd573d6000803e3d6000fd5b5050505087600019167fc9e43761e55a78291d13bde4c14de36c2c6c64de90ce8554eff0e68b55c6376760405160405180910390a25050505050505050565b6000613009603854613751565b613011612a81565b10905090565b603360029054906101000a900460ff1660ff16613032614abb565b73ffffffffffffffffffffffffffffffffffffffff1663c31d02b2336040518263ffffffff167c0100000000000000000000000000000000000000000000000000000000028152600401808273ffffffffffffffffffffffffffffffffffffffff1673ffffffffffffffffffffffffffffffffffffffff168152602001915050602060405180830381600087803b1580156130cc57600080fd5b505af11580156130e0573d6000803e3d6000fd5b505050506040513d60208110156130f657600080fd5b810190808051906020019092919050505014151561311357600080fd5b600b548214806131245750600c5482145b806131305750600d5482145b151561313b57600080fd5b613143614654565b73ffffffffffffffffffffffffffffffffffffffff1663c004b7de848484426040518563ffffffff167c01000000000000000000000000000000000000000000000000000000000281526004018085600019166000191681526020018481526020018360001916600019168152602001828152602001945050505050600060405180830381600087803b1580156131d957600080fd5b505af11580156131ed573d6000803e3d6000fd5b5050505082600019167f75c2f2b4fd3652214a4a5faf855222828fa36d654b3de647815c8be81675b81483836040518083815260200182600019166000191681526020019250505060405180910390a2505050565b600061324d42615023565b905090565b806005546000613260614654565b73ffffffffffffffffffffffffffffffffffffffff1663d8d50179846040518263ffffffff167c010000000000000000000000000000000000000000000000000000000002815260040180826000191660001916815260200191505061014060405180830381600087803b1580156132d757600080fd5b505af11580156132eb573d6000803e3d6000fd5b505050506040513d61014081101561330257600080fd5b810190808051906020019092919080519060200190929190805190602001909291908051906020019092919080519060200190929190805190602001909291908051906020019092919080519060200190929190805190602001909291908051906020019092919050505090919293949596979850909192939495969750909192939495965090919293945090919293509091925090915090505080915050816000191681600019161415156133b757600080fd5b6133bf612bf8565b15156133ca57600080fd5b6133d333614289565b15156133de57600080fd5b6133e6614654565b73ffffffffffffffffffffffffffffffffffffffff1663ac443d9f85336040518363ffffffff167c01000000000000000000000000000000000000000000000000000000000281526004018083600019166000191681526020018273ffffffffffffffffffffffffffffffffffffffff1673ffffffffffffffffffffffffffffffffffffffff16815260200192505050600060405180830381600087803b15801561349057600080fd5b505af11580156134a4573d6000803e3d6000fd5b5050505050505050565b60006134b8613242565b6134c0614acd565b73ffffffffffffffffffffffffffffffffffffffff1663cefc2bff846040518263ffffffff167c0100000000000000000000000000000000000000000000000000000000028152600401808273ffffffffffffffffffffffffffffffffffffffff1673ffffffffffffffffffffffffffffffffffffffff168152602001915050602060405180830381600087803b15801561355a57600080fd5b505af115801561356e573d6000803e3d6000fd5b505050506040513d602081101561358457600080fd5b810190808051906020019092919050505014801561368857506135a8603554613751565b6135b0615126565b73ffffffffffffffffffffffffffffffffffffffff1663cd094a27846040518263ffffffff167c0100000000000000000000000000000000000000000000000000000000028152600401808273ffffffffffffffffffffffffffffffffffffffff1673ffffffffffffffffffffffffffffffffffffffff168152602001915050602060405180830381600087803b15801561364a57600080fd5b505af115801561365e573d6000803e3d6000fd5b505050506040513d602081101561367457600080fd5b810190808051906020019092919050505010155b9050919050565b60006136996149d0565b73ffffffffffffffffffffffffffffffffffffffff1663c0a8405d836040518263ffffffff167c0100000000000000000000000000000000000000000000000000000000028152600401808260001916600019168152602001915050602060405180830381600087803b15801561370f57600080fd5b505af1158015613723573d6000803e3d6000fd5b505050506040513d602081101561373957600080fd5b81019080805190602001909291905050509050919050565b600061375b6149d0565b73ffffffffffffffffffffffffffffffffffffffff1663734c1168836040518263ffffffff167c0100000000000000000000000000000000000000000000000000000000028152600401808260001916600019168152602001915050602060405180830381600087803b1580156137d157600080fd5b505af11580156137e5573d6000803e3d6000fd5b505050506040513d60208110156137fb57600080fd5b81019080805190602001909291905050509050919050565b603360009054906101000a900460ff1660ff1661382e614abb565b73ffffffffffffffffffffffffffffffffffffffff1663c31d02b2336040518263ffffffff167c0100000000000000000000000000000000000000000000000000000000028152600401808273ffffffffffffffffffffffffffffffffffffffff1673ffffffffffffffffffffffffffffffffffffffff168152602001915050602060405180830381600087803b1580156138c857600080fd5b505af11580156138dc573d6000803e3d6000fd5b505050506040513d60208110156138f257600080fd5b810190808051906020019092919050505014151561390f57600080fd5b6000151561391b614adf565b73ffffffffffffffffffffffffffffffffffffffff16638bc865fd6040518163ffffffff167c0100000000000000000000000000000000000000000000000000000000028152600401602060405180830381600087803b15801561397e57600080fd5b505af1158015613992573d6000803e3d6000fd5b505050506040513d60208110156139a857600080fd5b810190808051906020019092919050505015151415156139c757600080fd5b6139cf614adf565b73ffffffffffffffffffffffffffffffffffffffff1663ef7ad2dc8484846040518463ffffffff167c0100000000000000000000000000000000000000000000000000000000028152600401808473ffffffffffffffffffffffffffffffffffffffff1673ffffffffffffffffffffffffffffffffffffffff1681526020018373ffffffffffffffffffffffffffffffffffffffff1673ffffffffffffffffffffffffffffffffffffffff1681526020018273ffffffffffffffffffffffffffffffffffffffff1673ffffffffffffffffffffffffffffffffffffffff1681526020019350505050600060405180830381600087803b158015613ad157600080fd5b505af1158015613ae5573d6000803e3d6000fd5b50505050505050565b6000613af8614682565b613b01866148ce565b1515613b0c57600080fd5b613b1586614b03565b1515613b2057600080fd5b613b28614654565b73ffffffffffffffffffffffffffffffffffffffff1663d8d50179876040518263ffffffff167c010000000000000000000000000000000000000000000000000000000002815260040180826000191660001916815260200191505061014060405180830381600087803b158015613b9f57600080fd5b505af1158015613bb3573d6000803e3d6000fd5b505050506040513d610140811015613bca57600080fd5b8101908080519060200190929190805190602001909291908051906020019092919080519060200190929190805190602001909291908051906020019092919080519060200190929190805190602001909291908051906020019092919080519060200190929190505050909192939495969798509091929394959697509091929394959650909192939450909192935090919250909150905050809150506005546000191681600019161480613c8a5750600654600019168160001916145b1515613c9557600080fd5b613cce84848080602002602001604051908101604052809392919081815260200183836020028082843782019150505050505083614a5b565b613cd6614654565b73ffffffffffffffffffffffffffffffffffffffff1663ffec1b2187878787876040518663ffffffff167c0100000000000000000000000000000000000000000000000000000000028152600401808660001916600019168152602001856000191660001916815260200180602001838152602001828103825285858281815260200192506020028082843782019150509650505050505050600060405180830381600087803b158015613d8957600080fd5b505af1158015613d9d573d6000803e3d6000fd5b5050505085600019167f8ed872b51729877383ff1e72393d0cf6d112bf28d9f745cd894b8fc4ad28e2048660405180826000191660001916815260200191505060405180910390a2505050505050565b6000613df7614adf565b73ffffffffffffffffffffffffffffffffffffffff16638bc865fd6040518163ffffffff167c0100000000000000000000000000000000000000000000000000000000028152600401602060405180830381600087803b158015613e5a57600080fd5b505af1158015613e6e573d6000803e3d6000fd5b505050506040513d6020811015613e8457600080fd5b810190808051906020019092919050505015905090565b600260009054906101000a900473ffffffffffffffffffffffffffffffffffffffff1681565b6000613ecb614682565b613ed4836148ce565b1515613edf57600080fd5b613ee7614654565b73ffffffffffffffffffffffffffffffffffffffff1663d8d50179846040518263ffffffff167c010000000000000000000000000000000000000000000000000000000002815260040180826000191660001916815260200191505061014060405180830381600087803b158015613f5e57600080fd5b505af1158015613f72573d6000803e3d6000fd5b505050506040513d610140811015613f8957600080fd5b810190808051906020019092919080519060200190929190805190602001909291908051906020019092919080519060200190929190805190602001909291908051906020019092919080519060200190929190805190602001909291908051906020019092919050505090919293949596979850909192939495969750909192939495965090919293949550909192939450909192935090919250905050809150506003546000191681600019161415151561404557600080fd5b61404d614654565b73ffffffffffffffffffffffffffffffffffffffff1663eef7b8f584846040518363ffffffff167c0100000000000000000000000000000000000000000000000000000000028152600401808360001916600019168152602001826000191660001916815260200192505050600060405180830381600087803b1580156140d357600080fd5b505af11580156140e7573d6000803e3d6000fd5b5050505082600019167f7e60a4e6d1d436a90d163c435b88121fc839d6e0b5004ff3e213003c0bc30cec8360405180826000191660001916815260200191505060405180910390a2505050565b600061413e614654565b73ffffffffffffffffffffffffffffffffffffffff1663d8d50179836040518263ffffffff167c010000000000000000000000000000000000000000000000000000000002815260040180826000191660001916815260200191505061014060405180830381600087803b1580156141b557600080fd5b505af11580156141c9573d6000803e3d6000fd5b505050506040513d6101408110156141e057600080fd5b8101908080519060200190929190805190602001909291908051906020019092919080519060200190929190805190602001909291908051906020019092919080519060200190929190805190602001909291908051906020019092919080519060200190929190505050909192939495969798509091929394959697509091929394959650909192939495509091929394509091929350909192509091505080915050919050565b6000614293613242565b61429b614acd565b73ffffffffffffffffffffffffffffffffffffffff1663cefc2bff846040518263ffffffff167c0100000000000000000000000000000000000000000000000000000000028152600401808273ffffffffffffffffffffffffffffffffffffffff1673ffffffffffffffffffffffffffffffffffffffff168152602001915050602060405180830381600087803b15801561433557600080fd5b505af1158015614349573d6000803e3d6000fd5b505050506040513d602081101561435f57600080fd5b81019080805190602001909291905050501480156144635750614383603654613751565b61438b615126565b73ffffffffffffffffffffffffffffffffffffffff1663cd094a27846040518263ffffffff167c0100000000000000000000000000000000000000000000000000000000028152600401808273ffffffffffffffffffffffffffffffffffffffff1673ffffffffffffffffffffffffffffffffffffffff168152602001915050602060405180830381600087803b15801561442557600080fd5b505af1158015614439573d6000803e3d6000fd5b505050506040513d602081101561444f57600080fd5b810190808051906020019092919050505010155b80156145555750614475603754613751565b61447d615138565b73ffffffffffffffffffffffffffffffffffffffff16639c89a0e2846040518263ffffffff167c0100000000000000000000000000000000000000000000000000000000028152600401808273ffffffffffffffffffffffffffffffffffffffff1673ffffffffffffffffffffffffffffffffffffffff168152602001915050602060405180830381600087803b15801561451757600080fd5b505af115801561452b573d6000803e3d6000fd5b505050506040513d602081101561454157600080fd5b810190808051906020019092919050505010155b9050919050565b6000603360019054906101000a900460ff1660ff16614579614abb565b73ffffffffffffffffffffffffffffffffffffffff1663c31d02b2336040518263ffffffff167c0100000000000000000000000000000000000000000000000000000000028152600401808273ffffffffffffffffffffffffffffffffffffffff1673ffffffffffffffffffffffffffffffffffffffff168152602001915050602060405180830381600087803b15801561461357600080fd5b505af1158015614627573d6000803e3d6000fd5b505050506040513d602081101561463d57600080fd5b810190808051906020019092919050505014905090565b6000614661602554611f7f565b905090565b6000818301905082811015151561467957fe5b80905092915050565b61468a612bf8565b15156146fe576040517f08c379a000000000000000000000000000000000000000000000000000000000815260040180806020018281038252600e8152602001807f6e6f74206d61696e20706861736500000000000000000000000000000000000081525060200191505060405180910390fd5b614707336134ae565b151561477b576040517f08c379a000000000000000000000000000000000000000000000000000000000815260040180806020018281038252600f8152602001807f6e6f74207061727469636970616e74000000000000000000000000000000000081525060200191505060405180910390fd5b614783614abb565b73ffffffffffffffffffffffffffffffffffffffff16634a9aedc4336040518263ffffffff167c0100000000000000000000000000000000000000000000000000000000028152600401808273ffffffffffffffffffffffffffffffffffffffff1673ffffffffffffffffffffffffffffffffffffffff168152602001915050602060405180830381600087803b15801561481d57600080fd5b505af1158015614831573d6000803e3d6000fd5b505050506040513d602081101561484757600080fd5b810190808051906020019092919050505015156148cc576040517f08c379a00000000000000000000000000000000000000000000000000000000081526004018080602001828103825260108152602001807f6e6f74206b796320617070726f7665640000000000000000000000000000000081525060200191505060405180910390fd5b565b60006148d8614654565b73ffffffffffffffffffffffffffffffffffffffff16635b712eb6836040518263ffffffff167c0100000000000000000000000000000000000000000000000000000000028152600401808260001916600019168152602001915050602060405180830381600087803b15801561494e57600080fd5b505af1158015614962573d6000803e3d6000fd5b505050506040513d602081101561497857600080fd5b810190808051906020019092919050505073ffffffffffffffffffffffffffffffffffffffff163373ffffffffffffffffffffffffffffffffffffffff16149050919050565b60006149cb601e54611f7f565b905090565b60006149dd602b54611f7f565b905090565b60006149ef601e54611f7f565b73ffffffffffffffffffffffffffffffffffffffff1631905090565b600080600090505b8251811015614a5557614a468382815181101515614a2d57fe5b906020019060200201518361466690919063ffffffff16565b91508080600101915050614a13565b50919050565b614a6361455c565b1515614ab757614a74606c54613751565b825111151515614a8357600080fd5b614a8e606b54613751565b614aa982614a9b85614a0b565b61466690919063ffffffff16565b11151515614ab657600080fd5b5b5050565b6000614ac8602854611f7f565b905090565b6000614ada602d54611f7f565b905090565b6000614aec602754611f7f565b905090565b6000614afe601b54611f7f565b905090565b600080614b0e614654565b73ffffffffffffffffffffffffffffffffffffffff1663d8d50179846040518263ffffffff167c010000000000000000000000000000000000000000000000000000000002815260040180826000191660001916815260200191505061014060405180830381600087803b158015614b8557600080fd5b505af1158015614b99573d6000803e3d6000fd5b505050506040513d610140811015614bb057600080fd5b8101908080519060200190929190805190602001909291908051906020019092919080519060200190929190805190602001909291908051906020019092919080519060200190929190805190602001909291908051906020019092919080519060200190929190505050909192939495969798509091929394959697509091929394959650909192939495509091929394509091929350909192509050508091505060035460001916816000191614915050919050565b614c718161514a565b1515614ce5576040517f08c379a00000000000000000000000000000000000000000000000000000000081526004018080602001828103825260198152602001807f6e6f742077697468696e2066756e64696e67206c696d6974730000000000000081525060200191505060405180910390fd5b50565b6000614d0f614cf683614f3a565b614d01603954613751565b61537490919063ffffffff16565b9050919050565b600080614d21614654565b73ffffffffffffffffffffffffffffffffffffffff1663baf4266085856040518363ffffffff167c010000000000000000000000000000000000000000000000000000000002815260040180836000191660001916815260200182815260200192505050602060405180830381600087803b158015614d9f57600080fd5b505af1158015614db3573d6000803e3d6000fd5b505050506040513d6020811015614dc957600080fd5b81019080805190602001909291905050509050600081111515614deb57600080fd5b6000831415614e1857614e11614e02603b54613751565b8261466690919063ffffffff16565b9150614e38565b614e35614e26603d54613751565b8261466690919063ffffffff16565b91505b5092915050565b6000806000614e4d84614ce8565b9150614e6b60008614614e6257603d54614e66565b603b545b613751565b9050839250614e7b603854613751565b614e8485614f3a565b1015614ec857614ec1614eb2614e9986614f3a565b614ea4603854613751565b61537490919063ffffffff16565b8561466690919063ffffffff16565b9250614f32565b614ee5614ed6606954613751565b8261466690919063ffffffff16565b821015614f3157614f2e614f1f6001614f11614f02603854613751565b8661466690919063ffffffff16565b61466690919063ffffffff16565b8561466690919063ffffffff16565b92505b5b505092915050565b6000614f4461538d565b1515614f4f57600080fd5b614f5a603954613751565b615012614f65614adf565b73ffffffffffffffffffffffffffffffffffffffff1663d9c6bb206040518163ffffffff167c0100000000000000000000000000000000000000000000000000000000028152600401602060405180830381600087803b158015614fc857600080fd5b505af1158015614fdc573d6000803e3d6000fd5b505050506040513d6020811015614ff257600080fd5b81019080805190602001909291905050508461537490919063ffffffff16565b81151561501b57fe5b069050919050565b600061502d61538d565b151561503857600080fd5b61511f600161511161504b603954613751565b615103615056614adf565b73ffffffffffffffffffffffffffffffffffffffff1663d9c6bb206040518163ffffffff167c0100000000000000000000000000000000000000000000000000000000028152600401602060405180830381600087803b1580156150b957600080fd5b505af11580156150cd573d6000803e3d6000fd5b505050506040513d60208110156150e357600080fd5b81019080805190602001909291905050508761537490919063ffffffff16565b61543d90919063ffffffff16565b61466690919063ffffffff16565b9050919050565b6000615133602c54611f7f565b905090565b6000615145602954611f7f565b905090565b600080615155614654565b73ffffffffffffffffffffffffffffffffffffffff1663d8d50179846040518263ffffffff167c010000000000000000000000000000000000000000000000000000000002815260040180826000191660001916815260200191505061014060405180830381600087803b1580156151cc57600080fd5b505af11580156151e0573d6000803e3d6000fd5b505050506040513d6101408110156151f757600080fd5b8101908080519060200190929190805190602001909291908051906020019092919080519060200190929190805190602001909291908051906020019092919080519060200190929190805190602001909291908051906020019092919080519060200190929190505050909192939495969798509091929394959697509091929394959650909192939495509091929394509091929350909192509091509050809150506001915080151561536e576152b2606d54613751565b6152ba615453565b73ffffffffffffffffffffffffffffffffffffffff1663198c6e246152dd613242565b6040518263ffffffff167c010000000000000000000000000000000000000000000000000000000002815260040180828152602001915050602060405180830381600087803b15801561532f57600080fd5b505af1158015615343573d6000803e3d6000fd5b505050506040513d602081101561535957600080fd5b81019080805190602001909291905050501091505b50919050565b600082821115151561538257fe5b818303905092915050565b600080615398614adf565b73ffffffffffffffffffffffffffffffffffffffff1663d9c6bb206040518163ffffffff167c0100000000000000000000000000000000000000000000000000000000028152600401602060405180830381600087803b1580156153fb57600080fd5b505af115801561540f573d6000803e3d6000fd5b505050506040513d602081101561542557600080fd5b81019080805190602001909291905050501415905090565b6000818381151561544a57fe5b04905092915050565b6000615460602654611f7f565b9050905600a165627a7a72305820ca755d17044b2f687921096f6673fdcf3d7dac0f8e7a104ad6eebce7bf7c20380029",
  "source": "pragma solidity ^0.4.25;\n\nimport \"../common/DaoCommon.sol\";\nimport \"./DaoFundingManager.sol\";\nimport \"./DaoRewardsManager.sol\";\nimport \"./DaoVotingClaims.sol\";\n\n/**\n@title Interactive DAO contract for creating/modifying/endorsing proposals\n@author Digix Holdings\n*/\ncontract Dao is DaoCommon {\n\n    event NewProposal(bytes32 indexed _proposalId, address _proposer);\n    event ModifyProposal(bytes32 indexed _proposalId, bytes32 _newDoc);\n    event ChangeProposalFunding(bytes32 indexed _proposalId);\n    event FinalizeProposal(bytes32 indexed _proposalId);\n    event FinishMilestone(bytes32 indexed _proposalId, uint256 indexed _milestoneIndex);\n    event AddProposalDoc(bytes32 indexed _proposalId, bytes32 _newDoc);\n    event PRLAction(bytes32 indexed _proposalId, uint256 _actionId, bytes32 _doc);\n    event CloseProposal(bytes32 indexed _proposalId);\n    event MigrateToNewDao(address _newDaoContract, address _newDaoFundingManager, address _newDaoRewardsManager);\n\n    constructor(address _resolver) public {\n        require(init(CONTRACT_DAO, _resolver));\n    }\n\n    function daoFundingManager()\n        internal\n        view\n        returns (DaoFundingManager _contract)\n    {\n        _contract = DaoFundingManager(get_contract(CONTRACT_DAO_FUNDING_MANAGER));\n    }\n\n    function daoRewardsManager()\n        internal\n        view\n        returns (DaoRewardsManager _contract)\n    {\n        _contract = DaoRewardsManager(get_contract(CONTRACT_DAO_REWARDS_MANAGER));\n    }\n\n    function daoVotingClaims()\n        internal\n        view\n        returns (DaoVotingClaims _contract)\n    {\n        _contract = DaoVotingClaims(get_contract(CONTRACT_DAO_VOTING_CLAIMS));\n    }\n\n    /**\n    @notice Set addresses for the new Dao and DaoFundingManager contracts\n    @dev This is the first step of the 2-step migration\n    @param _newDaoContract Address of the new Dao contract\n    @param _newDaoFundingManager Address of the new DaoFundingManager contract\n    @param _newDaoRewardsManager Address of the new daoRewardsManager contract\n    */\n    function setNewDaoContracts(\n        address _newDaoContract,\n        address _newDaoFundingManager,\n        address _newDaoRewardsManager\n    )\n        public\n        if_root()\n    {\n        require(daoUpgradeStorage().isReplacedByNewDao() == false);\n        daoUpgradeStorage().setNewContractAddresses(\n            _newDaoContract,\n            _newDaoFundingManager,\n            _newDaoRewardsManager\n        );\n    }\n\n    /**\n    @notice Migrate this DAO to a new DAO contract\n    @dev This is the second step of the 2-step migration\n         Migration can only be done during the locking phase, after the global rewards for current quarter are set.\n         This is to make sure that there is no rewards calculation pending before the DAO is migrated to new contracts\n         The addresses of the new Dao contracts have to be provided again, and be double checked against the addresses that were set in setNewDaoContracts()\n    @param _newDaoContract Address of the new DAO contract\n    @param _newDaoFundingManager Address of the new DaoFundingManager contract, which would receive the remaining ETHs in this DaoFundingManager\n    @param _newDaoRewardsManager Address of the new daoRewardsManager contract, which would receive the claimableDGXs from this daoRewardsManager\n    */\n    function migrateToNewDao(\n        address _newDaoContract,\n        address _newDaoFundingManager,\n        address _newDaoRewardsManager\n    )\n        public\n        if_root()\n        ifGlobalRewardsSet(currentQuarterNumber())\n    {\n        require(isLockingPhase());\n        require(daoUpgradeStorage().isReplacedByNewDao() == false);\n        require(\n          (daoUpgradeStorage().newDaoContract() == _newDaoContract) &&\n          (daoUpgradeStorage().newDaoFundingManager() == _newDaoFundingManager) &&\n          (daoUpgradeStorage().newDaoRewardsManager() == _newDaoRewardsManager)\n        );\n        daoUpgradeStorage().updateForDaoMigration();\n        daoFundingManager().moveFundsToNewDao(_newDaoFundingManager);\n        daoRewardsManager().moveDGXsToNewDao(_newDaoRewardsManager);\n        emit MigrateToNewDao(_newDaoContract, _newDaoFundingManager, _newDaoRewardsManager);\n    }\n\n    /**\n    @notice Call this function to mark the start of the DAO's first quarter. This can only be done once, by a founder\n    @param _start Start time of the first quarter in the DAO\n    */\n    function setStartOfFirstQuarter(uint256 _start) public if_founder() {\n        require(daoUpgradeStorage().startOfFirstQuarter() == 0);\n        require(_start > 0);\n        daoUpgradeStorage().setStartOfFirstQuarter(_start);\n    }\n\n    /**\n    @notice Submit a new preliminary idea / Pre-proposal\n    @dev The proposer has to send in a collateral == getUintConfig(CONFIG_PREPROPOSAL_COLLATERAL)\n         which he could claim back in these scenarios:\n          - Before the proposal is finalized, by calling closeProposal()\n          - After all milestones are done and the final voting round is passed\n\n    @param _docIpfsHash Hash of the IPFS doc containing details of proposal\n    @param _milestonesFundings Array of fundings of the proposal milestones (in wei)\n    @param _finalReward Final reward asked by proposer at successful completion of all milestones of proposal\n    */\n    function submitPreproposal(\n        bytes32 _docIpfsHash,\n        uint256[] _milestonesFundings,\n        uint256 _finalReward\n    )\n        external\n        payable\n        ifFundingPossible(_milestonesFundings, _finalReward)\n    {\n        senderCanDoProposerOperations();\n        bool _isFounder = is_founder();\n\n        require(msg.value == getUintConfig(CONFIG_PREPROPOSAL_COLLATERAL));\n        require(address(daoFundingManager()).call.gas(25000).value(msg.value)());\n\n        checkNonDigixFundings(_milestonesFundings, _finalReward);\n\n        daoStorage().addProposal(_docIpfsHash, msg.sender, _milestonesFundings, _finalReward, _isFounder);\n        daoStorage().setProposalCollateralStatus(_docIpfsHash, COLLATERAL_STATUS_UNLOCKED);\n        daoStorage().setProposalCollateralAmount(_docIpfsHash, msg.value);\n\n        emit NewProposal(_docIpfsHash, msg.sender);\n    }\n\n    /**\n    @notice Modify a proposal (this can be done only before setting the final version)\n    @param _proposalId Proposal ID (hash of IPFS doc of the first version of the proposal)\n    @param _docIpfsHash Hash of IPFS doc of the modified version of the proposal\n    @param _milestonesFundings Array of fundings of the modified version of the proposal (in wei)\n    @param _finalReward Final reward on successful completion of all milestones of the modified version of proposal (in wei)\n    */\n    function modifyProposal(\n        bytes32 _proposalId,\n        bytes32 _docIpfsHash,\n        uint256[] _milestonesFundings,\n        uint256 _finalReward\n    )\n        external\n    {\n        senderCanDoProposerOperations();\n        require(isFromProposer(_proposalId));\n\n        require(isEditable(_proposalId));\n        bytes32 _currentState;\n        (,,,_currentState,,,,,,) = daoStorage().readProposal(_proposalId);\n        require(_currentState == PROPOSAL_STATE_PREPROPOSAL ||\n          _currentState == PROPOSAL_STATE_DRAFT);\n\n        checkNonDigixFundings(_milestonesFundings, _finalReward);\n\n        daoStorage().editProposal(_proposalId, _docIpfsHash, _milestonesFundings, _finalReward);\n\n        emit ModifyProposal(_proposalId, _docIpfsHash);\n    }\n\n    /**\n    @notice Function to change the funding structure for a proposal\n    @dev Proposers can only change fundings for the subsequent milestones,\n    during the duration of an on-going milestone (so, cannot be before proposal finalization or during any voting phase)\n    @param _proposalId ID of the proposal\n    @param _milestonesFundings Array of fundings for milestones\n    @param _finalReward Final reward needed for completion of proposal\n    @param _currentMilestone the milestone number the proposal is currently in\n    */\n    function changeFundings(\n        bytes32 _proposalId,\n        uint256[] _milestonesFundings,\n        uint256 _finalReward,\n        uint256 _currentMilestone\n    )\n        external\n    {\n        senderCanDoProposerOperations();\n        require(isFromProposer(_proposalId));\n\n        checkNonDigixFundings(_milestonesFundings, _finalReward);\n\n        uint256[] memory _currentFundings;\n        (_currentFundings,) = daoStorage().readProposalFunding(_proposalId);\n\n        // If there are N milestones, the milestone index must be < N. Otherwise, putting a milestone index of N will actually return a valid timestamp that is\n        // right after the final voting round (voting round index N is the final voting round)\n        // Which could be abused ( to add more milestones even after the final voting round)\n        require(_currentMilestone < _currentFundings.length);\n\n        uint256 _startOfCurrentMilestone = startOfMilestone(_proposalId, _currentMilestone);\n\n        // must be after the start of the milestone, and the milestone has not been finished yet (next voting hasnt started)\n        require(now > _startOfCurrentMilestone);\n        require(daoStorage().readProposalVotingTime(_proposalId, _currentMilestone.add(1)) == 0);\n\n        // can only modify the fundings after _currentMilestone\n        // so, all the fundings from 0 to _currentMilestone must be the same\n        for (uint256 i=0;i<=_currentMilestone;i++) {\n            require(_milestonesFundings[i] == _currentFundings[i]);\n        }\n\n        daoStorage().changeFundings(_proposalId, _milestonesFundings, _finalReward);\n\n        emit ChangeProposalFunding(_proposalId);\n    }\n\n    /**\n    @notice Finalize a proposal\n    @dev After finalizing a proposal, no more proposal version can be added. Proposer will only be able to change fundings and add more docs\n         Right after finalizing a proposal, the draft voting round starts. The proposer would also not be able to closeProposal() anymore\n         (hence, cannot claim back the collateral anymore, until the final voting round passes)\n    @param _proposalId ID of the proposal\n    */\n    function finalizeProposal(bytes32 _proposalId)\n        public\n    {\n        senderCanDoProposerOperations();\n        require(isFromProposer(_proposalId), \"not proposer\");\n        require(isEditable(_proposalId), \"proposal not editable\");\n        checkNonDigixProposalLimit(_proposalId);\n\n        // make sure we have reasonably enough time left in the quarter to conduct the Draft Voting.\n        // Otherwise, the proposer must wait until the next quarter to finalize the proposal\n        require(getTimeLeftInQuarter(now) > getUintConfig(CONFIG_DRAFT_VOTING_PHASE).add(getUintConfig(CONFIG_VOTE_CLAIMING_DEADLINE)), \"not enough time\");\n        address _endorser;\n        (,,_endorser,,,,,,,) = daoStorage().readProposal(_proposalId);\n        require(_endorser != EMPTY_ADDRESS, \"not endorsed\");\n        daoStorage().finalizeProposal(_proposalId);\n        daoStorage().setProposalDraftVotingTime(_proposalId, now);\n\n        emit FinalizeProposal(_proposalId);\n    }\n\n    /**\n    @notice Function to set milestone to be completed\n    @dev This can only be called in the Main Phase of DigixDAO by the proposer. It sets the\n         voting time for the next milestone, which is immediately, for most of the times. If there is not enough time left in the current\n         quarter, then the next voting is postponed to the start of next quarter\n    @param _proposalId ID of the proposal\n    @param _milestoneIndex Index of the milestone. Index starts from 0 (for the first milestone)\n    */\n    function finishMilestone(bytes32 _proposalId, uint256 _milestoneIndex)\n        public\n    {\n        senderCanDoProposerOperations();\n        require(isFromProposer(_proposalId), \"not proposer\");\n\n        uint256[] memory _currentFundings;\n        (_currentFundings,) = daoStorage().readProposalFunding(_proposalId);\n\n        // If there are N milestones, the milestone index must be < N. Otherwise, putting a milestone index of N will actually return a valid timestamp that is\n        // right after the final voting round (voting round index N is the final voting round)\n        // Which could be abused ( to \"finish\" a milestone even after the final voting round)\n        require(_milestoneIndex < _currentFundings.length, \"index outside limit\");\n\n        // must be after the start of this milestone, and the milestone has not been finished yet (voting hasnt started)\n        uint256 _startOfCurrentMilestone = startOfMilestone(_proposalId, _milestoneIndex);\n        require(now > _startOfCurrentMilestone, \"milestone not started\");\n        require(daoStorage().readProposalVotingTime(_proposalId, _milestoneIndex.add(1)) == 0, \"next milestone set\");\n\n        daoStorage().setProposalVotingTime(\n            _proposalId,\n            _milestoneIndex.add(1),\n            getTimelineForNextVote(_milestoneIndex.add(1), now)\n        ); // set the voting time of next voting\n\n        emit FinishMilestone(_proposalId, _milestoneIndex);\n    }\n\n    /**\n    @notice Add IPFS docs to a proposal\n    @dev This is allowed only after a proposal is finalized. Before finalizing\n         a proposal, proposer can modifyProposal and basically create a different ProposalVersion. After the proposal is finalized,\n         they can only allProposalDoc to the final version of that proposal\n    @param _proposalId ID of the proposal\n    @param _newDoc hash of the new IPFS doc\n    */\n    function addProposalDoc(bytes32 _proposalId, bytes32 _newDoc)\n        public\n    {\n        senderCanDoProposerOperations();\n        require(isFromProposer(_proposalId));\n        bytes32 _finalVersion;\n        (,,,,,,,_finalVersion,,) = daoStorage().readProposal(_proposalId);\n        require(_finalVersion != EMPTY_BYTES);\n        daoStorage().addProposalDoc(_proposalId, _newDoc);\n\n        emit AddProposalDoc(_proposalId, _newDoc);\n    }\n\n    /**\n    @notice Function to endorse a pre-proposal (can be called only by DAO Moderator)\n    @param _proposalId ID of the proposal (hash of IPFS doc of the first version of the proposal)\n    */\n    function endorseProposal(bytes32 _proposalId)\n        public\n        isProposalState(_proposalId, PROPOSAL_STATE_PREPROPOSAL)\n    {\n        require(isMainPhase());\n        require(isModerator(msg.sender));\n        daoStorage().updateProposalEndorse(_proposalId, msg.sender);\n    }\n\n    /**\n    @notice Function to update the PRL (regulatory status) status of a proposal\n    @dev if a proposal is paused or stopped, the proposer wont be able to withdraw the funding\n    @param _proposalId ID of the proposal\n    @param _doc hash of IPFS uploaded document, containing details of PRL Action\n    */\n    function updatePRL(\n        bytes32 _proposalId,\n        uint256 _action,\n        bytes32 _doc\n    )\n        public\n        if_prl()\n    {\n        require(_action == PRL_ACTION_STOP || _action == PRL_ACTION_PAUSE || _action == PRL_ACTION_UNPAUSE);\n        daoStorage().updateProposalPRL(_proposalId, _action, _doc, now);\n\n        emit PRLAction(_proposalId, _action, _doc);\n    }\n\n    /**\n    @notice Function to close proposal (also get back collateral)\n    @dev Can only be closed if the proposal has not been finalized yet\n    @param _proposalId ID of the proposal\n    */\n    function closeProposal(bytes32 _proposalId)\n        public\n    {\n        senderCanDoProposerOperations();\n        require(isFromProposer(_proposalId), \"not proposer\");\n        bytes32 _finalVersion;\n        bytes32 _status;\n        (,,,_status,,,,_finalVersion,,) = daoStorage().readProposal(_proposalId);\n        require(_finalVersion == EMPTY_BYTES, \"already finalized\");\n        require(_status != PROPOSAL_STATE_CLOSED, \"already closed\");\n        require(daoStorage().readProposalCollateralStatus(_proposalId) == COLLATERAL_STATUS_UNLOCKED, \"already unlocked\");\n\n        daoStorage().closeProposal(_proposalId);\n        daoStorage().setProposalCollateralStatus(_proposalId, COLLATERAL_STATUS_CLAIMED);\n        emit CloseProposal(_proposalId);\n        require(daoFundingManager().refundCollateral(msg.sender, _proposalId));\n    }\n\n    /**\n    @notice Function for founders to close all the dead proposals\n    @dev Dead proposals = all proposals who are not yet finalized, and been there for more than the threshold time\n         The proposers of dead proposals will not get the collateral back\n    @param _proposalIds Array of proposal IDs\n    */\n    function founderCloseProposals(bytes32[] _proposalIds)\n        external\n        if_founder()\n    {\n        uint256 _length = _proposalIds.length;\n        uint256 _timeCreated;\n        bytes32 _finalVersion;\n        bytes32 _currentState;\n        for (uint256 _i = 0; _i < _length; _i++) {\n            (,,,_currentState,_timeCreated,,,_finalVersion,,) = daoStorage().readProposal(_proposalIds[_i]);\n            require(_finalVersion == EMPTY_BYTES);\n            require(\n                (_currentState == PROPOSAL_STATE_PREPROPOSAL) ||\n                (_currentState == PROPOSAL_STATE_DRAFT)\n            );\n            require(now > _timeCreated.add(getUintConfig(CONFIG_PROPOSAL_DEAD_DURATION)));\n            emit CloseProposal(_proposalIds[_i]);\n            daoStorage().closeProposal(_proposalIds[_i]);\n        }\n    }\n}\n",
  "sourcePath": "/Users/aeufemio/projects/dgx/contracts/dao-contracts/contracts/interactive/Dao.sol",
  "compiler": {
    "name": "solc",
    "version": "0.4.25+commit.59dbf8f1.Emscripten.clang"
  },
  "schemaVersion": "2.0.2",
  "updatedAt": "2020-03-16T04:05:01.378Z"
}