{
  "contractName": "Dao",
  "abi": [
    {
      "constant": true,
      "inputs": [],
      "name": "resolver",
      "outputs": [
        {
          "name": "",
          "type": "address"
        }
      ],
      "payable": false,
      "stateMutability": "view",
      "type": "function"
    },
    {
      "constant": true,
      "inputs": [
        {
          "name": "_configKey",
          "type": "bytes32"
        }
      ],
      "name": "getAddressConfig",
      "outputs": [
        {
          "name": "_configValue",
          "type": "address"
        }
      ],
      "payable": false,
      "stateMutability": "view",
      "type": "function"
    },
    {
      "constant": true,
      "inputs": [],
      "name": "key",
      "outputs": [
        {
          "name": "",
          "type": "bytes32"
        }
      ],
      "payable": false,
      "stateMutability": "view",
      "type": "function"
    },
    {
      "constant": true,
      "inputs": [
        {
          "name": "_key",
          "type": "bytes32"
        }
      ],
      "name": "get_contract",
      "outputs": [
        {
          "name": "_contract",
          "type": "address"
        }
      ],
      "payable": false,
      "stateMutability": "view",
      "type": "function"
    },
    {
      "constant": true,
      "inputs": [],
      "name": "currentTimeInQuarter",
      "outputs": [
        {
          "name": "_currentT",
          "type": "uint256"
        }
      ],
      "payable": false,
      "stateMutability": "view",
      "type": "function"
    },
    {
      "constant": true,
      "inputs": [],
      "name": "isMainPhase",
      "outputs": [
        {
          "name": "_isMainPhase",
          "type": "bool"
        }
      ],
      "payable": false,
      "stateMutability": "view",
      "type": "function"
    },
    {
      "constant": true,
      "inputs": [],
      "name": "isLockingPhase",
      "outputs": [
        {
          "name": "_isLockingPhase",
          "type": "bool"
        }
      ],
      "payable": false,
      "stateMutability": "view",
      "type": "function"
    },
    {
      "constant": true,
      "inputs": [],
      "name": "currentQuarterNumber",
      "outputs": [
        {
          "name": "_quarterNumber",
          "type": "uint256"
        }
      ],
      "payable": false,
      "stateMutability": "view",
      "type": "function"
    },
    {
      "constant": true,
      "inputs": [
        {
          "name": "_user",
          "type": "address"
        }
      ],
      "name": "isParticipant",
      "outputs": [
        {
          "name": "_is",
          "type": "bool"
        }
      ],
      "payable": false,
      "stateMutability": "view",
      "type": "function"
    },
    {
      "constant": true,
      "inputs": [
        {
          "name": "_configKey",
          "type": "bytes32"
        }
      ],
      "name": "getBytesConfig",
      "outputs": [
        {
          "name": "_configValue",
          "type": "bytes32"
        }
      ],
      "payable": false,
      "stateMutability": "view",
      "type": "function"
    },
    {
      "constant": true,
      "inputs": [
        {
          "name": "_configKey",
          "type": "bytes32"
        }
      ],
      "name": "getUintConfig",
      "outputs": [
        {
          "name": "_configValue",
          "type": "uint256"
        }
      ],
      "payable": false,
      "stateMutability": "view",
      "type": "function"
    },
    {
      "constant": true,
      "inputs": [],
      "name": "isDaoNotReplaced",
      "outputs": [
        {
          "name": "_isNotReplaced",
          "type": "bool"
        }
      ],
      "payable": false,
      "stateMutability": "view",
      "type": "function"
    },
    {
      "constant": true,
      "inputs": [],
      "name": "CONTRACT_ADDRESS",
      "outputs": [
        {
          "name": "",
          "type": "address"
        }
      ],
      "payable": false,
      "stateMutability": "view",
      "type": "function"
    },
    {
      "constant": true,
      "inputs": [
        {
          "name": "_user",
          "type": "address"
        }
      ],
      "name": "isModerator",
      "outputs": [
        {
          "name": "_is",
          "type": "bool"
        }
      ],
      "payable": false,
      "stateMutability": "view",
      "type": "function"
    },
    {
      "inputs": [
        {
          "name": "_resolver",
          "type": "address"
        }
      ],
      "payable": false,
      "stateMutability": "nonpayable",
      "type": "constructor"
    },
    {
      "anonymous": false,
      "inputs": [
        {
          "indexed": true,
          "name": "_proposalId",
          "type": "bytes32"
        },
        {
          "indexed": false,
          "name": "_proposer",
          "type": "address"
        }
      ],
      "name": "NewProposal",
      "type": "event"
    },
    {
      "anonymous": false,
      "inputs": [
        {
          "indexed": true,
          "name": "_proposalId",
          "type": "bytes32"
        },
        {
          "indexed": false,
          "name": "_newDoc",
          "type": "bytes32"
        }
      ],
      "name": "ModifyProposal",
      "type": "event"
    },
    {
      "anonymous": false,
      "inputs": [
        {
          "indexed": true,
          "name": "_proposalId",
          "type": "bytes32"
        }
      ],
      "name": "ChangeProposalFunding",
      "type": "event"
    },
    {
      "anonymous": false,
      "inputs": [
        {
          "indexed": true,
          "name": "_proposalId",
          "type": "bytes32"
        }
      ],
      "name": "FinalizeProposal",
      "type": "event"
    },
    {
      "anonymous": false,
      "inputs": [
        {
          "indexed": true,
          "name": "_proposalId",
          "type": "bytes32"
        },
        {
          "indexed": true,
          "name": "_milestoneIndex",
          "type": "uint256"
        }
      ],
      "name": "FinishMilestone",
      "type": "event"
    },
    {
      "anonymous": false,
      "inputs": [
        {
          "indexed": true,
          "name": "_proposalId",
          "type": "bytes32"
        },
        {
          "indexed": false,
          "name": "_newDoc",
          "type": "bytes32"
        }
      ],
      "name": "AddProposalDoc",
      "type": "event"
    },
    {
      "anonymous": false,
      "inputs": [
        {
          "indexed": true,
          "name": "_proposalId",
          "type": "bytes32"
        },
        {
          "indexed": false,
          "name": "_actionId",
          "type": "uint256"
        },
        {
          "indexed": false,
          "name": "_doc",
          "type": "bytes32"
        }
      ],
      "name": "PRLAction",
      "type": "event"
    },
    {
      "anonymous": false,
      "inputs": [
        {
          "indexed": true,
          "name": "_proposalId",
          "type": "bytes32"
        }
      ],
      "name": "CloseProposal",
      "type": "event"
    },
    {
      "anonymous": false,
      "inputs": [
        {
          "indexed": false,
          "name": "_newDaoContract",
          "type": "address"
        },
        {
          "indexed": false,
          "name": "_newDaoFundingManager",
          "type": "address"
        },
        {
          "indexed": false,
          "name": "_newDaoRewardsManager",
          "type": "address"
        }
      ],
      "name": "MigrateToNewDao",
      "type": "event"
    },
    {
      "constant": false,
      "inputs": [
        {
          "name": "_newDaoContract",
          "type": "address"
        },
        {
          "name": "_newDaoFundingManager",
          "type": "address"
        },
        {
          "name": "_newDaoRewardsManager",
          "type": "address"
        }
      ],
      "name": "setNewDaoContracts",
      "outputs": [],
      "payable": false,
      "stateMutability": "nonpayable",
      "type": "function"
    },
    {
      "constant": false,
      "inputs": [
        {
          "name": "_newDaoContract",
          "type": "address"
        },
        {
          "name": "_newDaoFundingManager",
          "type": "address"
        },
        {
          "name": "_newDaoRewardsManager",
          "type": "address"
        }
      ],
      "name": "migrateToNewDao",
      "outputs": [],
      "payable": false,
      "stateMutability": "nonpayable",
      "type": "function"
    },
    {
      "constant": false,
      "inputs": [
        {
          "name": "_start",
          "type": "uint256"
        }
      ],
      "name": "setStartOfFirstQuarter",
      "outputs": [],
      "payable": false,
      "stateMutability": "nonpayable",
      "type": "function"
    },
    {
      "constant": false,
      "inputs": [
        {
          "name": "_docIpfsHash",
          "type": "bytes32"
        },
        {
          "name": "_milestonesFundings",
          "type": "uint256[]"
        },
        {
          "name": "_finalReward",
          "type": "uint256"
        }
      ],
      "name": "submitPreproposal",
      "outputs": [],
      "payable": true,
      "stateMutability": "payable",
      "type": "function"
    },
    {
      "constant": false,
      "inputs": [
        {
          "name": "_proposalId",
          "type": "bytes32"
        },
        {
          "name": "_docIpfsHash",
          "type": "bytes32"
        },
        {
          "name": "_milestonesFundings",
          "type": "uint256[]"
        },
        {
          "name": "_finalReward",
          "type": "uint256"
        }
      ],
      "name": "modifyProposal",
      "outputs": [],
      "payable": false,
      "stateMutability": "nonpayable",
      "type": "function"
    },
    {
      "constant": false,
      "inputs": [
        {
          "name": "_proposalId",
          "type": "bytes32"
        },
        {
          "name": "_milestonesFundings",
          "type": "uint256[]"
        },
        {
          "name": "_finalReward",
          "type": "uint256"
        },
        {
          "name": "_currentMilestone",
          "type": "uint256"
        }
      ],
      "name": "changeFundings",
      "outputs": [],
      "payable": false,
      "stateMutability": "nonpayable",
      "type": "function"
    },
    {
      "constant": false,
      "inputs": [
        {
          "name": "_proposalId",
          "type": "bytes32"
        }
      ],
      "name": "finalizeProposal",
      "outputs": [],
      "payable": false,
      "stateMutability": "nonpayable",
      "type": "function"
    },
    {
      "constant": false,
      "inputs": [
        {
          "name": "_proposalId",
          "type": "bytes32"
        },
        {
          "name": "_milestoneIndex",
          "type": "uint256"
        }
      ],
      "name": "finishMilestone",
      "outputs": [],
      "payable": false,
      "stateMutability": "nonpayable",
      "type": "function"
    },
    {
      "constant": false,
      "inputs": [
        {
          "name": "_proposalId",
          "type": "bytes32"
        },
        {
          "name": "_newDoc",
          "type": "bytes32"
        }
      ],
      "name": "addProposalDoc",
      "outputs": [],
      "payable": false,
      "stateMutability": "nonpayable",
      "type": "function"
    },
    {
      "constant": false,
      "inputs": [
        {
          "name": "_proposalId",
          "type": "bytes32"
        }
      ],
      "name": "endorseProposal",
      "outputs": [],
      "payable": false,
      "stateMutability": "nonpayable",
      "type": "function"
    },
    {
      "constant": false,
      "inputs": [
        {
          "name": "_proposalId",
          "type": "bytes32"
        },
        {
          "name": "_action",
          "type": "uint256"
        },
        {
          "name": "_doc",
          "type": "bytes32"
        }
      ],
      "name": "updatePRL",
      "outputs": [],
      "payable": false,
      "stateMutability": "nonpayable",
      "type": "function"
    },
    {
      "constant": false,
      "inputs": [
        {
          "name": "_proposalId",
          "type": "bytes32"
        }
      ],
      "name": "closeProposal",
      "outputs": [],
      "payable": false,
      "stateMutability": "nonpayable",
      "type": "function"
    },
    {
      "constant": false,
      "inputs": [
        {
          "name": "_proposalIds",
          "type": "bytes32[]"
        }
      ],
      "name": "founderCloseProposals",
      "outputs": [],
      "payable": false,
      "stateMutability": "nonpayable",
      "type": "function"
    }
  ],
  "bytecode": "0x608060405260006001026003906000191690556000600460006101000a81548173ffffffffffffffffffffffffffffffffffffffff021916908373ffffffffffffffffffffffffffffffffffffffff1602179055507f70726f706f73616c5f73746174655f70726570726f706f73616c0000000000006005906000191690557f70726f706f73616c5f73746174655f64726166740000000000000000000000006006906000191690557f70726f706f73616c5f73746174655f6d6f6465726174656400000000000000006007906000191690557f70726f706f73616c5f73746174655f6f6e676f696e67000000000000000000006008906000191690557f70726f706f73616c5f73746174655f636c6f73656400000000000000000000006009906000191690557f70726f706f73616c5f73746174655f6172636869766564000000000000000000600a906000191690556001600b556002600c556003600d556001600e556002600f5560036010557f696e7465725f6467645f696400000000000000000000000000000000000000006011906000191690557f696e7465725f6d6f645f6467645f6964000000000000000000000000000000006012906000191690557f696e7465725f626f6e75735f63616c63756c6174696f6e5f69640000000000006013906000191690557f64616f00000000000000000000000000000000000000000000000000000000006014906000191690557f64616f3a7370656369616c3a70726f706f73616c0000000000000000000000006015906000191690557f64616f3a7374616b652d6c6f636b696e670000000000000000000000000000006016906000191690557f64616f3a766f74696e67000000000000000000000000000000000000000000006017906000191690557f64616f3a766f74696e673a636c61696d730000000000000000000000000000006018906000191690557f64616f3a73766f74696e673a636c61696d7300000000000000000000000000006019906000191690557f64616f3a6964656e746974790000000000000000000000000000000000000000601a906000191690557f64616f3a726577617264732d6d616e6167657200000000000000000000000000601b906000191690557f64616f3a726577617264732d6578747261730000000000000000000000000000601c906000191690557f64616f3a726f6c65730000000000000000000000000000000000000000000000601d906000191690557f64616f3a66756e64696e672d6d616e6167657200000000000000000000000000601e906000191690557f64616f3a77686974656c697374696e6700000000000000000000000000000000601f906000191690557f64616f3a696e666f726d6174696f6e00000000000000000000000000000000006020906000191690557f736572766963653a726f6c6500000000000000000000000000000000000000006021906000191690557f736572766963653a64616f3a696e666f000000000000000000000000000000006022906000191690557f736572766963653a64616f3a6c697374696e67000000000000000000000000006023906000191690557f736572766963653a64616f3a63616c63756c61746f72000000000000000000006024906000191690557f73746f726167653a64616f0000000000000000000000000000000000000000006025906000191690557f73746f726167653a64616f3a636f756e746572000000000000000000000000006026906000191690557f73746f726167653a64616f3a75706772616465000000000000000000000000006027906000191690557f73746f726167653a64616f3a6964656e746974790000000000000000000000006028906000191690557f73746f726167653a64616f3a706f696e747300000000000000000000000000006029906000191690557f73746f726167653a64616f3a7370656369616c00000000000000000000000000602a906000191690557f73746f726167653a64616f3a636f6e6669670000000000000000000000000000602b906000191690557f73746f726167653a64616f3a7374616b65000000000000000000000000000000602c906000191690557f73746f726167653a64616f3a7265776172647300000000000000000000000000602d906000191690557f73746f726167653a64616f3a77686974656c697374696e670000000000000000602e906000191690557f73746f726167653a696e7465726d6564696174653a726573756c747300000000602f906000191690557f743a6467640000000000000000000000000000000000000000000000000000006030906000191690557f743a6467780000000000000000000000000000000000000000000000000000006031906000191690557f743a6261646765000000000000000000000000000000000000000000000000006032906000191690556001603360006101000a81548160ff021916908360ff1602179055506002603360016101000a81548160ff021916908360ff1602179055506003603360026101000a81548160ff021916908360ff1602179055506004603360036101000a81548160ff021916908360ff1602179055506276a7006034557f6d696e5f6467645f7061727469636970616e74000000000000000000000000006035906000191690557f6d696e5f6467645f6d6f64657261746f720000000000000000000000000000006036906000191690557f6d696e5f72657075746174696f6e5f6d6f64657261746f7200000000000000006037906000191690557f6c6f636b696e675f70686173655f6475726174696f6e000000000000000000006038906000191690557f717561727465725f6475726174696f6e000000000000000000000000000000006039906000191690557f766f74696e675f636f6d6d69745f706861736500000000000000000000000000603a906000191690557f766f74696e675f70686173655f746f74616c0000000000000000000000000000603b906000191690557f696e746572696d5f766f74696e675f636f6d6d69745f70686173650000000000603c906000191690557f696e746572696d5f766f74696e675f70686173655f746f74616c000000000000603d906000191690557f64726166745f71756f72756d5f66697865645f6e756d657261746f7200000000603e906000191690557f64726166745f71756f72756d5f66697865645f64656e6f6d696e61746f720000603f906000191690557f64726166745f71756f72756d5f73666163746f725f6e756d657261746f7200006040906000191690557f64726166745f71756f72756d5f73666163746f725f64656e6f6d696e61746f726041906000191690557f766f74655f71756f72756d5f66697865645f6e756d657261746f7200000000006042906000191690557f766f74655f71756f72756d5f66697865645f64656e6f6d696e61746f720000006043906000191690557f766f74655f71756f72756d5f73666163746f725f6e756d657261746f720000006044906000191690557f766f74655f71756f72756d5f73666163746f725f64656e6f6d696e61746f72006045906000191690557f66696e616c5f7265776172645f73666163746f725f6e756d657261746f7200006046906000191690557f66696e616c5f7265776172645f73666163746f725f64656e6f6d696e61746f726047906000191690557f64726166745f71756f74615f6e756d657261746f7200000000000000000000006048906000191690557f64726166745f71756f74615f64656e6f6d696e61746f720000000000000000006049906000191690557f766f74696e675f71756f74615f6e756d657261746f7200000000000000000000604a906000191690557f766f74696e675f71756f74615f64656e6f6d696e61746f720000000000000000604b906000191690557f6d696e696d616c5f717000000000000000000000000000000000000000000000604c906000191690557f717561727465725f706f696e745f7363616c696e675f666163746f7200000000604d906000191690557f7265705f706f696e745f7363616c696e675f666163746f720000000000000000604e906000191690557f6d696e696d616c5f6d6f645f7170000000000000000000000000000000000000604f906000191690557f6d6f645f71705f7363616c696e675f666163746f7200000000000000000000006050906000191690557f6d6f645f7265705f706f696e745f7363616c696e675f666163746f72000000006051906000191690557f717561727465725f706f696e745f64726166745f766f746500000000000000006052906000191690557f717561727465725f706f696e745f766f746500000000000000000000000000006053906000191690557f717561727465725f706f696e745f696e746572696d5f766f74650000000000006054906000191690557f715f705f6d696c6573746f6e655f636f6d706c6574696f6e00000000000000006055906000191690557f626f6e75735f72657075746174696f6e5f6e756d657261746f720000000000006056906000191690557f626f6e75735f72657075746174696f6e5f64656e6f6d696e61746f72000000006057906000191690557f7370656369616c5f70726f706f73616c5f636f6d6d69745f70686173650000006058906000191690557f7370656369616c5f70726f706f73616c5f70686173655f746f74616c000000006059906000191690557f636f6e6669675f7370656369616c5f71756f74615f6e756d657261746f720000605a906000191690557f636f6e6669675f7370656369616c5f71756f74615f64656e6f6d696e61746f72605b906000191690557f7370656369616c5f71756f72756d5f6e756d657261746f720000000000000000605c906000191690557f7370656369616c5f71756f72756d5f64656e6f6d696e61746f72000000000000605d906000191690557f636f6e6669675f6d61785f72657075746174696f6e5f646564756374696f6e00605e906000191690557f636f6e6669675f70756e6973686d656e745f6e6f745f6c6f636b696e67000000605f906000191690557f636f6e6669675f7265705f7065725f65787472615f71705f6e756d00000000006060906000191690557f636f6e6669675f7265705f7065725f65787472615f71705f64656e00000000006061906000191690557f636f6e6669675f6d61785f6d5f72705f646564756374696f6e000000000000006062906000191690557f636f6e6669675f7265705f7065725f65787472615f6d5f71705f6e756d0000006063906000191690557f636f6e6669675f7265705f7065725f65787472615f6d5f71705f64656e0000006064906000191690557f636f6e6669675f6d6f645f706f7274696f6e5f6e756d000000000000000000006065906000191690557f636f6e6669675f6d6f645f706f7274696f6e5f64656e000000000000000000006066906000191690557f636f6e6669675f64726166745f766f74696e675f7068617365000000000000006067906000191690557f636f6e6669675f72705f626f6f73745f7065725f6261646765000000000000006068906000191690557f636f6e6669675f636c61696d696e675f646561646c696e6500000000000000006069906000191690557f636f6e6669675f70726570726f706f73616c5f636f6c6c61746572616c000000606a906000191690557f636f6e6669675f6d61785f66756e64696e675f6e6f6e44696769780000000000606b906000191690557f636f6e6669675f6d61785f6d696c6573746f6e65735f6e6f6e44696769780000606c906000191690557f636f6e6669675f6e6f6e44696769785f70726f706f73616c5f63617000000000606d906000191690557f636f6e6669675f646561645f6475726174696f6e000000000000000000000000606e906000191690557f636f6e6669675f63765f72657075746174696f6e000000000000000000000000606f906000191690553480156200113457600080fd5b506040516020806200656d83398101806040528101908080519060200190929190505050620011756014548262001188640100000000026401000000009004565b15156200118157600080fd5b5062001419565b6000808273ffffffffffffffffffffffffffffffffffffffff16636d19a8826040518163ffffffff167c0100000000000000000000000000000000000000000000000000000000028152600401602060405180830381600087803b158015620011f057600080fd5b505af115801562001205573d6000803e3d6000fd5b505050506040513d60208110156200121c57600080fd5b810190808051906020019092919050505090506000151581151514156200140d5730600260006101000a81548173ffffffffffffffffffffffffffffffffffffffff021916908373ffffffffffffffffffffffffffffffffffffffff160217905550826000806101000a81548173ffffffffffffffffffffffffffffffffffffffff021916908373ffffffffffffffffffffffffffffffffffffffff16021790555083600181600019169055506000809054906101000a900473ffffffffffffffffffffffffffffffffffffffff1673ffffffffffffffffffffffffffffffffffffffff1663c0f6ef4a600154600260009054906101000a900473ffffffffffffffffffffffffffffffffffffffff166040518363ffffffff167c01000000000000000000000000000000000000000000000000000000000281526004018083600019166000191681526020018273ffffffffffffffffffffffffffffffffffffffff1673ffffffffffffffffffffffffffffffffffffffff16815260200192505050602060405180830381600087803b158015620013ba57600080fd5b505af1158015620013cf573d6000803e3d6000fd5b505050506040513d6020811015620013e657600080fd5b810190808051906020019092919050505015156200140357600080fd5b6001915062001412565b600091505b5092915050565b61514480620014296000396000f30060806040526004361061015f576000357c0100000000000000000000000000000000000000000000000000000000900463ffffffff1680630247afe81461016457806304f3bcec1461019f578063078f872c146101f65780631d8ccd04146102275780632b847105146102985780633943380c146102de5780633b00763d146103115780633f83acff1461039457806347d0da141461040557806355cc313614610436578063560a25ea146104715780635b30f1cc1461049c57806368533060146104c9578063711f2614146104f85780637d6fed80146105555780637ef37354146105845780637f6a26b6146105cd578063926851af146105f8578063929066f51461062957806393ddad0814610684578063b1e2b9dd146106d1578063b202cc9614610716578063d0bd65b114610799578063d70d9358146107fa578063db4ecbc114610829578063eef7b8f514610880578063fa6f3936146108bf575b600080fd5b34801561017057600080fd5b5061019d60048036038101908080359060200190820180359060200191909192939192939050505061091a565b005b3480156101ab57600080fd5b506101b4610c23565b604051808273ffffffffffffffffffffffffffffffffffffffff1673ffffffffffffffffffffffffffffffffffffffff16815260200191505060405180910390f35b34801561020257600080fd5b506102256004803603810190808035600019169060200190929190505050610c48565b005b34801561023357600080fd5b5061025660048036038101908080356000191690602001909291905050506112b2565b604051808273ffffffffffffffffffffffffffffffffffffffff1673ffffffffffffffffffffffffffffffffffffffff16815260200191505060405180910390f35b6102dc600480360381019080803560001916906020019092919080359060200190820180359060200191909192939192939080359060200190929190505050611374565b005b3480156102ea57600080fd5b506102f361172e565b60405180826000191660001916815260200191505060405180910390f35b34801561031d57600080fd5b50610392600480360381019080803573ffffffffffffffffffffffffffffffffffffffff169060200190929190803573ffffffffffffffffffffffffffffffffffffffff169060200190929190803573ffffffffffffffffffffffffffffffffffffffff169060200190929190505050611734565b005b3480156103a057600080fd5b506103c36004803603810190808035600019169060200190929190505050611f2b565b604051808273ffffffffffffffffffffffffffffffffffffffff1673ffffffffffffffffffffffffffffffffffffffff16815260200191505060405180910390f35b34801561041157600080fd5b506104346004803603810190808035600019169060200190929190505050612007565b005b34801561044257600080fd5b5061046f600480360381019080803560001916906020019092919080359060200190929190505050612530565b005b34801561047d57600080fd5b50610486612a2d565b6040518082815260200191505060405180910390f35b3480156104a857600080fd5b506104c760048036038101908080359060200190929190505050612a3d565b005b3480156104d557600080fd5b506104de612ba4565b604051808215151515815260200191505060405180910390f35b34801561050457600080fd5b5061055360048036038101908080356000191690602001909291908035906020019082018035906020019190919293919293908035906020019092919080359060200190929190505050612bd0565b005b34801561056157600080fd5b5061056a612fa8565b604051808215151515815260200191505060405180910390f35b34801561059057600080fd5b506105cb6004803603810190808035600019169060200190929190803590602001909291908035600019169060200190929190505050612fc3565b005b3480156105d957600080fd5b506105e26131ee565b6040518082815260200191505060405180910390f35b34801561060457600080fd5b5061062760048036038101908080356000191690602001909291905050506131fe565b005b34801561063557600080fd5b5061066a600480360381019080803573ffffffffffffffffffffffffffffffffffffffff16906020019092919050505061345a565b604051808215151515815260200191505060405180910390f35b34801561069057600080fd5b506106b3600480360381019080803560001916906020019092919050505061363b565b60405180826000191660001916815260200191505060405180910390f35b3480156106dd57600080fd5b5061070060048036038101908080356000191690602001909291905050506136fd565b6040518082815260200191505060405180910390f35b34801561072257600080fd5b50610797600480360381019080803573ffffffffffffffffffffffffffffffffffffffff169060200190929190803573ffffffffffffffffffffffffffffffffffffffff169060200190929190803573ffffffffffffffffffffffffffffffffffffffff1690602001909291905050506137bf565b005b3480156107a557600080fd5b506107f86004803603810190808035600019169060200190929190803560001916906020019092919080359060200190820180359060200191909192939192939080359060200190929190505050613a9a565b005b34801561080657600080fd5b5061080f613d99565b604051808215151515815260200191505060405180910390f35b34801561083557600080fd5b5061083e613e47565b604051808273ffffffffffffffffffffffffffffffffffffffff1673ffffffffffffffffffffffffffffffffffffffff16815260200191505060405180910390f35b34801561088c57600080fd5b506108bd60048036038101908080356000191690602001909291908035600019169060200190929190505050613e6d565b005b3480156108cb57600080fd5b50610900600480360381019080803573ffffffffffffffffffffffffffffffffffffffff1690602001909291905050506140e0565b604051808215151515815260200191505060405180910390f35b600080600080600061092a6143b3565b151561093557600080fd5b868690509450600090505b84811015610c1a576109506144ab565b73ffffffffffffffffffffffffffffffffffffffff1663d8d50179888884818110151561097957fe5b90506020020135600019166040518263ffffffff167c010000000000000000000000000000000000000000000000000000000002815260040180826000191660001916815260200191505061014060405180830381600087803b1580156109df57600080fd5b505af11580156109f3573d6000803e3d6000fd5b505050506040513d610140811015610a0a57600080fd5b8101908080519060200190929190805190602001909291908051906020019092919080519060200190929190805190602001909291908051906020019092919080519060200190929190805190602001909291908051906020019092919080519060200190929190505050909192939495969798509091929394959697509091929394959650909192935090919250905050809550819650829450505050600354600019168360001916141515610ac057600080fd5b6005546000191682600019161480610ae15750600654600019168260001916145b1515610aec57600080fd5b610b09610afa606e546136fd565b856144bd90919063ffffffff16565b42111515610b1657600080fd5b8686828181101515610b2457fe5b9050602002013560001916600019167fcc0c35dc01446e741be6aeeeb22693a96b4b42887e92d84a17181687b6a4181860405160405180910390a2610b676144ab565b73ffffffffffffffffffffffffffffffffffffffff1663078f872c8888848181101515610b9057fe5b90506020020135600019166040518263ffffffff167c0100000000000000000000000000000000000000000000000000000000028152600401808260001916600019168152602001915050600060405180830381600087803b158015610bf557600080fd5b505af1158015610c09573d6000803e3d6000fd5b505050508080600101915050610940565b50505050505050565b6000809054906101000a900473ffffffffffffffffffffffffffffffffffffffff1681565b600080610c536144d9565b610c5c836145ea565b1515610cd0576040517f08c379a000000000000000000000000000000000000000000000000000000000815260040180806020018281038252600c8152602001807f6e6f742070726f706f736572000000000000000000000000000000000000000081525060200191505060405180910390fd5b610cd86144ab565b73ffffffffffffffffffffffffffffffffffffffff1663d8d50179846040518263ffffffff167c010000000000000000000000000000000000000000000000000000000002815260040180826000191660001916815260200191505061014060405180830381600087803b158015610d4f57600080fd5b505af1158015610d63573d6000803e3d6000fd5b505050506040513d610140811015610d7a57600080fd5b81019080805190602001909291908051906020019092919080519060200190929190805190602001909291908051906020019092919080519060200190929190805190602001909291908051906020019092919080519060200190929190805190602001909291905050509091929394959697985090919293949596975090919293949596509091929394509091929350909192509050508093508192505050600354600019168260001916141515610e9b576040517f08c379a00000000000000000000000000000000000000000000000000000000081526004018080602001828103825260118152602001807f616c72656164792066696e616c697a656400000000000000000000000000000081525060200191505060405180910390fd5b60095460001916816000191614151515610f1d576040517f08c379a000000000000000000000000000000000000000000000000000000000815260040180806020018281038252600e8152602001807f616c726561647920636c6f73656400000000000000000000000000000000000081525060200191505060405180910390fd5b600e54610f286144ab565b73ffffffffffffffffffffffffffffffffffffffff16633be88369856040518263ffffffff167c0100000000000000000000000000000000000000000000000000000000028152600401808260001916600019168152602001915050602060405180830381600087803b158015610f9e57600080fd5b505af1158015610fb2573d6000803e3d6000fd5b505050506040513d6020811015610fc857600080fd5b810190808051906020019092919050505014151561104e576040517f08c379a00000000000000000000000000000000000000000000000000000000081526004018080602001828103825260108152602001807f616c726561647920756e6c6f636b65640000000000000000000000000000000081525060200191505060405180910390fd5b6110566144ab565b73ffffffffffffffffffffffffffffffffffffffff1663078f872c846040518263ffffffff167c0100000000000000000000000000000000000000000000000000000000028152600401808260001916600019168152602001915050600060405180830381600087803b1580156110cc57600080fd5b505af11580156110e0573d6000803e3d6000fd5b505050506110ec6144ab565b73ffffffffffffffffffffffffffffffffffffffff1663c362c790846010546040518363ffffffff167c010000000000000000000000000000000000000000000000000000000002815260040180836000191660001916815260200182815260200192505050600060405180830381600087803b15801561116c57600080fd5b505af1158015611180573d6000803e3d6000fd5b5050505082600019167fcc0c35dc01446e741be6aeeeb22693a96b4b42887e92d84a17181687b6a4181860405160405180910390a26111bd6146da565b73ffffffffffffffffffffffffffffffffffffffff16637e71332b33856040518363ffffffff167c0100000000000000000000000000000000000000000000000000000000028152600401808373ffffffffffffffffffffffffffffffffffffffff1673ffffffffffffffffffffffffffffffffffffffff168152602001826000191660001916815260200192505050602060405180830381600087803b15801561126757600080fd5b505af115801561127b573d6000803e3d6000fd5b505050506040513d602081101561129157600080fd5b810190808051906020019092919050505015156112ad57600080fd5b505050565b60006112bc6146ec565b73ffffffffffffffffffffffffffffffffffffffff1663e6b39eab836040518263ffffffff167c0100000000000000000000000000000000000000000000000000000000028152600401808260001916600019168152602001915050602060405180830381600087803b15801561133257600080fd5b505af1158015611346573d6000803e3d6000fd5b505050506040513d602081101561135c57600080fd5b81019080805190602001909291905050509050919050565b6000838380806020026020016040519081016040528093929190818152602001838360200280828437820191505050505050826113af6146fe565b6113ca826113bc85614727565b6144bd90919063ffffffff16565b111515156113d757600080fd5b6113df6144d9565b6113e76143b3565b92506113f4606a546136fd565b3414151561140157600080fd5b6114096146da565b73ffffffffffffffffffffffffffffffffffffffff166161a834604051600060405180830381858888f19350505050151561144357600080fd5b61147c86868080602002602001604051908101604052809392919081815260200183836020028082843782019150505050505085614777565b6114846144ab565b73ffffffffffffffffffffffffffffffffffffffff1663a1d444a48833898989896040518763ffffffff167c01000000000000000000000000000000000000000000000000000000000281526004018087600019166000191681526020018673ffffffffffffffffffffffffffffffffffffffff1673ffffffffffffffffffffffffffffffffffffffff168152602001806020018481526020018315151515815260200182810382528686828181526020019250602002808284378201915050975050505050505050600060405180830381600087803b15801561156757600080fd5b505af115801561157b573d6000803e3d6000fd5b505050506115876144ab565b73ffffffffffffffffffffffffffffffffffffffff1663c362c79088600e546040518363ffffffff167c010000000000000000000000000000000000000000000000000000000002815260040180836000191660001916815260200182815260200192505050600060405180830381600087803b15801561160757600080fd5b505af115801561161b573d6000803e3d6000fd5b505050506116276144ab565b73ffffffffffffffffffffffffffffffffffffffff16638a2d659788346040518363ffffffff167c010000000000000000000000000000000000000000000000000000000002815260040180836000191660001916815260200182815260200192505050600060405180830381600087803b1580156116a557600080fd5b505af11580156116b9573d6000803e3d6000fd5b5050505086600019167fab48f5995a7b376b9650077476d511b1f1ed03b0c7e403e7cee95a2769060d6833604051808273ffffffffffffffffffffffffffffffffffffffff1673ffffffffffffffffffffffffffffffffffffffff16815260200191505060405180910390a250505050505050565b60015481565b603360009054906101000a900460ff1660ff1661174f6147d7565b73ffffffffffffffffffffffffffffffffffffffff1663c31d02b2336040518263ffffffff167c0100000000000000000000000000000000000000000000000000000000028152600401808273ffffffffffffffffffffffffffffffffffffffff1673ffffffffffffffffffffffffffffffffffffffff168152602001915050602060405180830381600087803b1580156117e957600080fd5b505af11580156117fd573d6000803e3d6000fd5b505050506040513d602081101561181357600080fd5b810190808051906020019092919050505014151561183057600080fd5b6118386131ee565b600181111561190157600061184b6147e9565b73ffffffffffffffffffffffffffffffffffffffff1663a78e00d6836040518263ffffffff167c010000000000000000000000000000000000000000000000000000000002815260040180828152602001915050602060405180830381600087803b1580156118b957600080fd5b505af11580156118cd573d6000803e3d6000fd5b505050506040513d60208110156118e357600080fd5b810190808051906020019092919050505011151561190057600080fd5b5b611909612fa8565b151561191457600080fd5b600015156119206147fb565b73ffffffffffffffffffffffffffffffffffffffff16638bc865fd6040518163ffffffff167c0100000000000000000000000000000000000000000000000000000000028152600401602060405180830381600087803b15801561198357600080fd5b505af1158015611997573d6000803e3d6000fd5b505050506040513d60208110156119ad57600080fd5b810190808051906020019092919050505015151415156119cc57600080fd5b8373ffffffffffffffffffffffffffffffffffffffff166119eb6147fb565b73ffffffffffffffffffffffffffffffffffffffff16633c952b166040518163ffffffff167c0100000000000000000000000000000000000000000000000000000000028152600401602060405180830381600087803b158015611a4e57600080fd5b505af1158015611a62573d6000803e3d6000fd5b505050506040513d6020811015611a7857600080fd5b810190808051906020019092919050505073ffffffffffffffffffffffffffffffffffffffff16148015611b7c57508273ffffffffffffffffffffffffffffffffffffffff16611ac66147fb565b73ffffffffffffffffffffffffffffffffffffffff16639c767e376040518163ffffffff167c0100000000000000000000000000000000000000000000000000000000028152600401602060405180830381600087803b158015611b2957600080fd5b505af1158015611b3d573d6000803e3d6000fd5b505050506040513d6020811015611b5357600080fd5b810190808051906020019092919050505073ffffffffffffffffffffffffffffffffffffffff16145b8015611c5857508173ffffffffffffffffffffffffffffffffffffffff16611ba26147fb565b73ffffffffffffffffffffffffffffffffffffffff16638c0c28266040518163ffffffff167c0100000000000000000000000000000000000000000000000000000000028152600401602060405180830381600087803b158015611c0557600080fd5b505af1158015611c19573d6000803e3d6000fd5b505050506040513d6020811015611c2f57600080fd5b810190808051906020019092919050505073ffffffffffffffffffffffffffffffffffffffff16145b1515611c6357600080fd5b611c6b6147fb565b73ffffffffffffffffffffffffffffffffffffffff1663efa6b9df6040518163ffffffff167c0100000000000000000000000000000000000000000000000000000000028152600401600060405180830381600087803b158015611cce57600080fd5b505af1158015611ce2573d6000803e3d6000fd5b50505050611cee6146da565b73ffffffffffffffffffffffffffffffffffffffff1663c72deb9a846040518263ffffffff167c0100000000000000000000000000000000000000000000000000000000028152600401808273ffffffffffffffffffffffffffffffffffffffff1673ffffffffffffffffffffffffffffffffffffffff168152602001915050600060405180830381600087803b158015611d8857600080fd5b505af1158015611d9c573d6000803e3d6000fd5b50505050611da861480d565b73ffffffffffffffffffffffffffffffffffffffff16633f5a7583836040518263ffffffff167c0100000000000000000000000000000000000000000000000000000000028152600401808273ffffffffffffffffffffffffffffffffffffffff1673ffffffffffffffffffffffffffffffffffffffff168152602001915050600060405180830381600087803b158015611e4257600080fd5b505af1158015611e56573d6000803e3d6000fd5b505050507fbdee2a20da24f5e808d52dbcfea2fc775e1b24ad4f67f7fb38c573c3e0cc125a848484604051808473ffffffffffffffffffffffffffffffffffffffff1673ffffffffffffffffffffffffffffffffffffffff1681526020018373ffffffffffffffffffffffffffffffffffffffff1673ffffffffffffffffffffffffffffffffffffffff1681526020018273ffffffffffffffffffffffffffffffffffffffff1673ffffffffffffffffffffffffffffffffffffffff168152602001935050505060405180910390a150505050565b60008060009054906101000a900473ffffffffffffffffffffffffffffffffffffffff1673ffffffffffffffffffffffffffffffffffffffff16633f83acff836040518263ffffffff167c0100000000000000000000000000000000000000000000000000000000028152600401808260001916600019168152602001915050602060405180830381600087803b158015611fc557600080fd5b505af1158015611fd9573d6000803e3d6000fd5b505050506040513d6020811015611fef57600080fd5b81019080805190602001909291905050509050919050565b60006120116144d9565b61201a826145ea565b151561208e576040517f08c379a000000000000000000000000000000000000000000000000000000000815260040180806020018281038252600c8152602001807f6e6f742070726f706f736572000000000000000000000000000000000000000081525060200191505060405180910390fd5b6120978261481f565b151561210b576040517f08c379a00000000000000000000000000000000000000000000000000000000081526004018080602001828103825260158152602001807f70726f706f73616c206e6f74206564697461626c65000000000000000000000081525060200191505060405180910390fd5b61211482614984565b61213b6121226069546136fd565b61212d6067546136fd565b6144bd90919063ffffffff16565b6121444261499b565b1115156121b9576040517f08c379a000000000000000000000000000000000000000000000000000000000815260040180806020018281038252600f8152602001807f6e6f7420656e6f7567682074696d65000000000000000000000000000000000081525060200191505060405180910390fd5b6121c16144ab565b73ffffffffffffffffffffffffffffffffffffffff1663d8d50179836040518263ffffffff167c010000000000000000000000000000000000000000000000000000000002815260040180826000191660001916815260200191505061014060405180830381600087803b15801561223857600080fd5b505af115801561224c573d6000803e3d6000fd5b505050506040513d61014081101561226357600080fd5b8101908080519060200190929190805190602001909291908051906020019092919080519060200190929190805190602001909291908051906020019092919080519060200190929190805190602001909291908051906020019092919080519060200190929190505050909192939495969798509091929394959697509091929394955090919293945090919293509091925090915090505080915050600460009054906101000a900473ffffffffffffffffffffffffffffffffffffffff1673ffffffffffffffffffffffffffffffffffffffff168173ffffffffffffffffffffffffffffffffffffffff16141515156123c7576040517f08c379a000000000000000000000000000000000000000000000000000000000815260040180806020018281038252600c8152602001807f6e6f7420656e646f72736564000000000000000000000000000000000000000081525060200191505060405180910390fd5b6123cf6144ab565b73ffffffffffffffffffffffffffffffffffffffff166347d0da14836040518263ffffffff167c0100000000000000000000000000000000000000000000000000000000028152600401808260001916600019168152602001915050600060405180830381600087803b15801561244557600080fd5b505af1158015612459573d6000803e3d6000fd5b505050506124656144ab565b73ffffffffffffffffffffffffffffffffffffffff1663e3f3f7a283426040518363ffffffff167c010000000000000000000000000000000000000000000000000000000002815260040180836000191660001916815260200182815260200192505050600060405180830381600087803b1580156124e357600080fd5b505af11580156124f7573d6000803e3d6000fd5b5050505081600019167f7987ab68d3e4d0dbf07a8b7eb54fa0557da00515d48a4cefbb95dd10ba8b07b460405160405180910390a25050565b6060600061253c6144d9565b612545846145ea565b15156125b9576040517f08c379a000000000000000000000000000000000000000000000000000000000815260040180806020018281038252600c8152602001807f6e6f742070726f706f736572000000000000000000000000000000000000000081525060200191505060405180910390fd5b6125c16144ab565b73ffffffffffffffffffffffffffffffffffffffff16637246d5a7856040518263ffffffff167c0100000000000000000000000000000000000000000000000000000000028152600401808260001916600019168152602001915050600060405180830381600087803b15801561263757600080fd5b505af115801561264b573d6000803e3d6000fd5b505050506040513d6000823e3d601f19601f82011682018060405250604081101561267557600080fd5b81019080805164010000000081111561268d57600080fd5b828101905060208101848111156126a357600080fd5b81518560208202830111640100000000821117156126c057600080fd5b5050929190602001805190602001909291905050505080925050815183101515612752576040517f08c379a00000000000000000000000000000000000000000000000000000000081526004018080602001828103825260138152602001807f696e646578206f757473696465206c696d69740000000000000000000000000081525060200191505060405180910390fd5b61275c84846149c9565b905080421115156127d5576040517f08c379a00000000000000000000000000000000000000000000000000000000081526004018080602001828103825260158152602001807f6d696c6573746f6e65206e6f742073746172746564000000000000000000000081525060200191505060405180910390fd5b60006127df6144ab565b73ffffffffffffffffffffffffffffffffffffffff1663baf426608661280f6001886144bd90919063ffffffff16565b6040518363ffffffff167c010000000000000000000000000000000000000000000000000000000002815260040180836000191660001916815260200182815260200192505050602060405180830381600087803b15801561287057600080fd5b505af1158015612884573d6000803e3d6000fd5b505050506040513d602081101561289a57600080fd5b8101908080519060200190929190505050141515612920576040517f08c379a00000000000000000000000000000000000000000000000000000000081526004018080602001828103825260128152602001807f6e657874206d696c6573746f6e6520736574000000000000000000000000000081525060200191505060405180910390fd5b6129286144ab565b73ffffffffffffffffffffffffffffffffffffffff1663344e436e856129586001876144bd90919063ffffffff16565b61297561296f6001896144bd90919063ffffffff16565b42614af2565b6040518463ffffffff167c01000000000000000000000000000000000000000000000000000000000281526004018084600019166000191681526020018381526020018281526020019350505050600060405180830381600087803b1580156129dd57600080fd5b505af11580156129f1573d6000803e3d6000fd5b505050508284600019167f7f575746acfeec290223241184f2c5353c4a43f01daf9b4d5c4dd028c5b3c49f60405160405180910390a350505050565b6000612a3842614bed565b905090565b612a456143b3565b1515612a5057600080fd5b6000612a5a6147fb565b73ffffffffffffffffffffffffffffffffffffffff1663d9c6bb206040518163ffffffff167c0100000000000000000000000000000000000000000000000000000000028152600401602060405180830381600087803b158015612abd57600080fd5b505af1158015612ad1573d6000803e3d6000fd5b505050506040513d6020811015612ae757600080fd5b8101908080519060200190929190505050141515612b0457600080fd5b600081111515612b1357600080fd5b612b1b6147fb565b73ffffffffffffffffffffffffffffffffffffffff16635b30f1cc826040518263ffffffff167c010000000000000000000000000000000000000000000000000000000002815260040180828152602001915050600060405180830381600087803b158015612b8957600080fd5b505af1158015612b9d573d6000803e3d6000fd5b5050505050565b6000612bae613d99565b8015612bcb5750612bc06038546136fd565b612bc8612a2d565b10155b905090565b6060600080612bdd6144d9565b612be6886145ea565b1515612bf157600080fd5b612c2a87878080602002602001604051908101604052809392919081815260200183836020028082843782019150505050505086614777565b612c326144ab565b73ffffffffffffffffffffffffffffffffffffffff16637246d5a7896040518263ffffffff167c0100000000000000000000000000000000000000000000000000000000028152600401808260001916600019168152602001915050600060405180830381600087803b158015612ca857600080fd5b505af1158015612cbc573d6000803e3d6000fd5b505050506040513d6000823e3d601f19601f820116820180604052506040811015612ce657600080fd5b810190808051640100000000811115612cfe57600080fd5b82810190506020810184811115612d1457600080fd5b8151856020820283011164010000000082111715612d3157600080fd5b5050929190602001805190602001909291905050505080935050825184101515612d5a57600080fd5b612d6488856149c9565b91508142111515612d7457600080fd5b6000612d7e6144ab565b73ffffffffffffffffffffffffffffffffffffffff1663baf426608a612dae6001896144bd90919063ffffffff16565b6040518363ffffffff167c010000000000000000000000000000000000000000000000000000000002815260040180836000191660001916815260200182815260200192505050602060405180830381600087803b158015612e0f57600080fd5b505af1158015612e23573d6000803e3d6000fd5b505050506040513d6020811015612e3957600080fd5b8101908080519060200190929190505050141515612e5657600080fd5b600090505b8381111515612eaa578281815181101515612e7257fe5b906020019060200201518787838181101515612e8a57fe5b90506020020135141515612e9d57600080fd5b8080600101915050612e5b565b612eb26144ab565b73ffffffffffffffffffffffffffffffffffffffff1663c3093bb1898989896040518563ffffffff167c0100000000000000000000000000000000000000000000000000000000028152600401808560001916600019168152602001806020018381526020018281038252858582818152602001925060200280828437820191505095505050505050600060405180830381600087803b158015612f5557600080fd5b505af1158015612f69573d6000803e3d6000fd5b5050505087600019167fc9e43761e55a78291d13bde4c14de36c2c6c64de90ce8554eff0e68b55c6376760405160405180910390a25050505050505050565b6000612fb56038546136fd565b612fbd612a2d565b10905090565b603360029054906101000a900460ff1660ff16612fde6147d7565b73ffffffffffffffffffffffffffffffffffffffff1663c31d02b2336040518263ffffffff167c0100000000000000000000000000000000000000000000000000000000028152600401808273ffffffffffffffffffffffffffffffffffffffff1673ffffffffffffffffffffffffffffffffffffffff168152602001915050602060405180830381600087803b15801561307857600080fd5b505af115801561308c573d6000803e3d6000fd5b505050506040513d60208110156130a257600080fd5b81019080805190602001909291905050501415156130bf57600080fd5b600b548214806130d05750600c5482145b806130dc5750600d5482145b15156130e757600080fd5b6130ef6144ab565b73ffffffffffffffffffffffffffffffffffffffff1663c004b7de848484426040518563ffffffff167c01000000000000000000000000000000000000000000000000000000000281526004018085600019166000191681526020018481526020018360001916600019168152602001828152602001945050505050600060405180830381600087803b15801561318557600080fd5b505af1158015613199573d6000803e3d6000fd5b5050505082600019167f75c2f2b4fd3652214a4a5faf855222828fa36d654b3de647815c8be81675b81483836040518083815260200182600019166000191681526020019250505060405180910390a2505050565b60006131f942614cd6565b905090565b80600554600061320c6144ab565b73ffffffffffffffffffffffffffffffffffffffff1663d8d50179846040518263ffffffff167c010000000000000000000000000000000000000000000000000000000002815260040180826000191660001916815260200191505061014060405180830381600087803b15801561328357600080fd5b505af1158015613297573d6000803e3d6000fd5b505050506040513d6101408110156132ae57600080fd5b8101908080519060200190929190805190602001909291908051906020019092919080519060200190929190805190602001909291908051906020019092919080519060200190929190805190602001909291908051906020019092919080519060200190929190505050909192939495969798509091929394959697509091929394959650909192939450909192935090919250909150905050809150508160001916816000191614151561336357600080fd5b61336b612ba4565b151561337657600080fd5b61337f336140e0565b151561338a57600080fd5b6133926144ab565b73ffffffffffffffffffffffffffffffffffffffff1663ac443d9f85336040518363ffffffff167c01000000000000000000000000000000000000000000000000000000000281526004018083600019166000191681526020018273ffffffffffffffffffffffffffffffffffffffff1673ffffffffffffffffffffffffffffffffffffffff16815260200192505050600060405180830381600087803b15801561343c57600080fd5b505af1158015613450573d6000803e3d6000fd5b5050505050505050565b60006134646131ee565b61346c6147e9565b73ffffffffffffffffffffffffffffffffffffffff1663cefc2bff846040518263ffffffff167c0100000000000000000000000000000000000000000000000000000000028152600401808273ffffffffffffffffffffffffffffffffffffffff1673ffffffffffffffffffffffffffffffffffffffff168152602001915050602060405180830381600087803b15801561350657600080fd5b505af115801561351a573d6000803e3d6000fd5b505050506040513d602081101561353057600080fd5b810190808051906020019092919050505014801561363457506135546035546136fd565b61355c614dd9565b73ffffffffffffffffffffffffffffffffffffffff1663cd094a27846040518263ffffffff167c0100000000000000000000000000000000000000000000000000000000028152600401808273ffffffffffffffffffffffffffffffffffffffff1673ffffffffffffffffffffffffffffffffffffffff168152602001915050602060405180830381600087803b1580156135f657600080fd5b505af115801561360a573d6000803e3d6000fd5b505050506040513d602081101561362057600080fd5b810190808051906020019092919050505010155b9050919050565b60006136456146ec565b73ffffffffffffffffffffffffffffffffffffffff1663c0a8405d836040518263ffffffff167c0100000000000000000000000000000000000000000000000000000000028152600401808260001916600019168152602001915050602060405180830381600087803b1580156136bb57600080fd5b505af11580156136cf573d6000803e3d6000fd5b505050506040513d60208110156136e557600080fd5b81019080805190602001909291905050509050919050565b60006137076146ec565b73ffffffffffffffffffffffffffffffffffffffff1663734c1168836040518263ffffffff167c0100000000000000000000000000000000000000000000000000000000028152600401808260001916600019168152602001915050602060405180830381600087803b15801561377d57600080fd5b505af1158015613791573d6000803e3d6000fd5b505050506040513d60208110156137a757600080fd5b81019080805190602001909291905050509050919050565b603360009054906101000a900460ff1660ff166137da6147d7565b73ffffffffffffffffffffffffffffffffffffffff1663c31d02b2336040518263ffffffff167c0100000000000000000000000000000000000000000000000000000000028152600401808273ffffffffffffffffffffffffffffffffffffffff1673ffffffffffffffffffffffffffffffffffffffff168152602001915050602060405180830381600087803b15801561387457600080fd5b505af1158015613888573d6000803e3d6000fd5b505050506040513d602081101561389e57600080fd5b81019080805190602001909291905050501415156138bb57600080fd5b600015156138c76147fb565b73ffffffffffffffffffffffffffffffffffffffff16638bc865fd6040518163ffffffff167c0100000000000000000000000000000000000000000000000000000000028152600401602060405180830381600087803b15801561392a57600080fd5b505af115801561393e573d6000803e3d6000fd5b505050506040513d602081101561395457600080fd5b8101908080519060200190929190505050151514151561397357600080fd5b61397b6147fb565b73ffffffffffffffffffffffffffffffffffffffff1663ef7ad2dc8484846040518463ffffffff167c0100000000000000000000000000000000000000000000000000000000028152600401808473ffffffffffffffffffffffffffffffffffffffff1673ffffffffffffffffffffffffffffffffffffffff1681526020018373ffffffffffffffffffffffffffffffffffffffff1673ffffffffffffffffffffffffffffffffffffffff1681526020018273ffffffffffffffffffffffffffffffffffffffff1673ffffffffffffffffffffffffffffffffffffffff1681526020019350505050600060405180830381600087803b158015613a7d57600080fd5b505af1158015613a91573d6000803e3d6000fd5b50505050505050565b6000613aa46144d9565b613aad866145ea565b1515613ab857600080fd5b613ac18661481f565b1515613acc57600080fd5b613ad46144ab565b73ffffffffffffffffffffffffffffffffffffffff1663d8d50179876040518263ffffffff167c010000000000000000000000000000000000000000000000000000000002815260040180826000191660001916815260200191505061014060405180830381600087803b158015613b4b57600080fd5b505af1158015613b5f573d6000803e3d6000fd5b505050506040513d610140811015613b7657600080fd5b8101908080519060200190929190805190602001909291908051906020019092919080519060200190929190805190602001909291908051906020019092919080519060200190929190805190602001909291908051906020019092919080519060200190929190505050909192939495969798509091929394959697509091929394959650909192939450909192935090919250909150905050809150506005546000191681600019161480613c365750600654600019168160001916145b1515613c4157600080fd5b613c7a84848080602002602001604051908101604052809392919081815260200183836020028082843782019150505050505083614777565b613c826144ab565b73ffffffffffffffffffffffffffffffffffffffff1663ffec1b2187878787876040518663ffffffff167c0100000000000000000000000000000000000000000000000000000000028152600401808660001916600019168152602001856000191660001916815260200180602001838152602001828103825285858281815260200192506020028082843782019150509650505050505050600060405180830381600087803b158015613d3557600080fd5b505af1158015613d49573d6000803e3d6000fd5b5050505085600019167f8ed872b51729877383ff1e72393d0cf6d112bf28d9f745cd894b8fc4ad28e2048660405180826000191660001916815260200191505060405180910390a2505050505050565b6000613da36147fb565b73ffffffffffffffffffffffffffffffffffffffff16638bc865fd6040518163ffffffff167c0100000000000000000000000000000000000000000000000000000000028152600401602060405180830381600087803b158015613e0657600080fd5b505af1158015613e1a573d6000803e3d6000fd5b505050506040513d6020811015613e3057600080fd5b810190808051906020019092919050505015905090565b600260009054906101000a900473ffffffffffffffffffffffffffffffffffffffff1681565b6000613e776144d9565b613e80836145ea565b1515613e8b57600080fd5b613e936144ab565b73ffffffffffffffffffffffffffffffffffffffff1663d8d50179846040518263ffffffff167c010000000000000000000000000000000000000000000000000000000002815260040180826000191660001916815260200191505061014060405180830381600087803b158015613f0a57600080fd5b505af1158015613f1e573d6000803e3d6000fd5b505050506040513d610140811015613f3557600080fd5b8101908080519060200190929190805190602001909291908051906020019092919080519060200190929190805190602001909291908051906020019092919080519060200190929190805190602001909291908051906020019092919080519060200190929190505050909192939495969798509091929394959697509091929394959650909192939495509091929394509091929350909192509050508091505060035460001916816000191614151515613ff157600080fd5b613ff96144ab565b73ffffffffffffffffffffffffffffffffffffffff1663eef7b8f584846040518363ffffffff167c0100000000000000000000000000000000000000000000000000000000028152600401808360001916600019168152602001826000191660001916815260200192505050600060405180830381600087803b15801561407f57600080fd5b505af1158015614093573d6000803e3d6000fd5b5050505082600019167f7e60a4e6d1d436a90d163c435b88121fc839d6e0b5004ff3e213003c0bc30cec8360405180826000191660001916815260200191505060405180910390a2505050565b60006140ea6131ee565b6140f26147e9565b73ffffffffffffffffffffffffffffffffffffffff1663cefc2bff846040518263ffffffff167c0100000000000000000000000000000000000000000000000000000000028152600401808273ffffffffffffffffffffffffffffffffffffffff1673ffffffffffffffffffffffffffffffffffffffff168152602001915050602060405180830381600087803b15801561418c57600080fd5b505af11580156141a0573d6000803e3d6000fd5b505050506040513d60208110156141b657600080fd5b81019080805190602001909291905050501480156142ba57506141da6036546136fd565b6141e2614dd9565b73ffffffffffffffffffffffffffffffffffffffff1663cd094a27846040518263ffffffff167c0100000000000000000000000000000000000000000000000000000000028152600401808273ffffffffffffffffffffffffffffffffffffffff1673ffffffffffffffffffffffffffffffffffffffff168152602001915050602060405180830381600087803b15801561427c57600080fd5b505af1158015614290573d6000803e3d6000fd5b505050506040513d60208110156142a657600080fd5b810190808051906020019092919050505010155b80156143ac57506142cc6037546136fd565b6142d4614deb565b73ffffffffffffffffffffffffffffffffffffffff16639c89a0e2846040518263ffffffff167c0100000000000000000000000000000000000000000000000000000000028152600401808273ffffffffffffffffffffffffffffffffffffffff1673ffffffffffffffffffffffffffffffffffffffff168152602001915050602060405180830381600087803b15801561436e57600080fd5b505af1158015614382573d6000803e3d6000fd5b505050506040513d602081101561439857600080fd5b810190808051906020019092919050505010155b9050919050565b6000603360019054906101000a900460ff1660ff166143d06147d7565b73ffffffffffffffffffffffffffffffffffffffff1663c31d02b2336040518263ffffffff167c0100000000000000000000000000000000000000000000000000000000028152600401808273ffffffffffffffffffffffffffffffffffffffff1673ffffffffffffffffffffffffffffffffffffffff168152602001915050602060405180830381600087803b15801561446a57600080fd5b505af115801561447e573d6000803e3d6000fd5b505050506040513d602081101561449457600080fd5b810190808051906020019092919050505014905090565b60006144b8602554611f2b565b905090565b600081830190508281101515156144d057fe5b80905092915050565b6144e1612ba4565b15156144ec57600080fd5b6144f53361345a565b151561450057600080fd5b6145086147d7565b73ffffffffffffffffffffffffffffffffffffffff16634a9aedc4336040518263ffffffff167c0100000000000000000000000000000000000000000000000000000000028152600401808273ffffffffffffffffffffffffffffffffffffffff1673ffffffffffffffffffffffffffffffffffffffff168152602001915050602060405180830381600087803b1580156145a257600080fd5b505af11580156145b6573d6000803e3d6000fd5b505050506040513d60208110156145cc57600080fd5b810190808051906020019092919050505015156145e857600080fd5b565b60006145f46144ab565b73ffffffffffffffffffffffffffffffffffffffff16635b712eb6836040518263ffffffff167c0100000000000000000000000000000000000000000000000000000000028152600401808260001916600019168152602001915050602060405180830381600087803b15801561466a57600080fd5b505af115801561467e573d6000803e3d6000fd5b505050506040513d602081101561469457600080fd5b810190808051906020019092919050505073ffffffffffffffffffffffffffffffffffffffff163373ffffffffffffffffffffffffffffffffffffffff16149050919050565b60006146e7601e54611f2b565b905090565b60006146f9602b54611f2b565b905090565b600061470b601e54611f2b565b73ffffffffffffffffffffffffffffffffffffffff1631905090565b600080600090505b825181101561477157614762838281518110151561474957fe5b90602001906020020151836144bd90919063ffffffff16565b9150808060010191505061472f565b50919050565b61477f6143b3565b15156147d357614790606c546136fd565b82511115151561479f57600080fd5b6147aa606b546136fd565b6147c5826147b785614727565b6144bd90919063ffffffff16565b111515156147d257600080fd5b5b5050565b60006147e4602854611f2b565b905090565b60006147f6602d54611f2b565b905090565b6000614808602754611f2b565b905090565b600061481a601b54611f2b565b905090565b60008061482a6144ab565b73ffffffffffffffffffffffffffffffffffffffff1663d8d50179846040518263ffffffff167c010000000000000000000000000000000000000000000000000000000002815260040180826000191660001916815260200191505061014060405180830381600087803b1580156148a157600080fd5b505af11580156148b5573d6000803e3d6000fd5b505050506040513d6101408110156148cc57600080fd5b8101908080519060200190929190805190602001909291908051906020019092919080519060200190929190805190602001909291908051906020019092919080519060200190929190805190602001909291908051906020019092919080519060200190929190505050909192939495969798509091929394959697509091929394959650909192939495509091929394509091929350909192509050508091505060035460001916816000191614915050919050565b61498d81614dfd565b151561499857600080fd5b50565b60006149c26149a983614bed565b6149b46039546136fd565b61502790919063ffffffff16565b9050919050565b6000806149d46144ab565b73ffffffffffffffffffffffffffffffffffffffff1663baf4266085856040518363ffffffff167c010000000000000000000000000000000000000000000000000000000002815260040180836000191660001916815260200182815260200192505050602060405180830381600087803b158015614a5257600080fd5b505af1158015614a66573d6000803e3d6000fd5b505050506040513d6020811015614a7c57600080fd5b81019080805190602001909291905050509050600081111515614a9e57600080fd5b6000831415614acb57614ac4614ab5603b546136fd565b826144bd90919063ffffffff16565b9150614aeb565b614ae8614ad9603d546136fd565b826144bd90919063ffffffff16565b91505b5092915050565b6000806000614b008461499b565b9150614b1e60008614614b1557603d54614b19565b603b545b6136fd565b9050839250614b2e6038546136fd565b614b3785614bed565b1015614b7b57614b74614b65614b4c86614bed565b614b576038546136fd565b61502790919063ffffffff16565b856144bd90919063ffffffff16565b9250614be5565b614b98614b896069546136fd565b826144bd90919063ffffffff16565b821015614be457614be1614bd26001614bc4614bb56038546136fd565b866144bd90919063ffffffff16565b6144bd90919063ffffffff16565b856144bd90919063ffffffff16565b92505b5b505092915050565b6000614bf7615040565b1515614c0257600080fd5b614c0d6039546136fd565b614cc5614c186147fb565b73ffffffffffffffffffffffffffffffffffffffff1663d9c6bb206040518163ffffffff167c0100000000000000000000000000000000000000000000000000000000028152600401602060405180830381600087803b158015614c7b57600080fd5b505af1158015614c8f573d6000803e3d6000fd5b505050506040513d6020811015614ca557600080fd5b81019080805190602001909291905050508461502790919063ffffffff16565b811515614cce57fe5b069050919050565b6000614ce0615040565b1515614ceb57600080fd5b614dd26001614dc4614cfe6039546136fd565b614db6614d096147fb565b73ffffffffffffffffffffffffffffffffffffffff1663d9c6bb206040518163ffffffff167c0100000000000000000000000000000000000000000000000000000000028152600401602060405180830381600087803b158015614d6c57600080fd5b505af1158015614d80573d6000803e3d6000fd5b505050506040513d6020811015614d9657600080fd5b81019080805190602001909291905050508761502790919063ffffffff16565b6150f090919063ffffffff16565b6144bd90919063ffffffff16565b9050919050565b6000614de6602c54611f2b565b905090565b6000614df8602954611f2b565b905090565b600080614e086144ab565b73ffffffffffffffffffffffffffffffffffffffff1663d8d50179846040518263ffffffff167c010000000000000000000000000000000000000000000000000000000002815260040180826000191660001916815260200191505061014060405180830381600087803b158015614e7f57600080fd5b505af1158015614e93573d6000803e3d6000fd5b505050506040513d610140811015614eaa57600080fd5b8101908080519060200190929190805190602001909291908051906020019092919080519060200190929190805190602001909291908051906020019092919080519060200190929190805190602001909291908051906020019092919080519060200190929190505050909192939495969798509091929394959697509091929394959650909192939495509091929394509091929350909192509091509050809150506001915080151561502157614f65606d546136fd565b614f6d615106565b73ffffffffffffffffffffffffffffffffffffffff1663198c6e24614f906131ee565b6040518263ffffffff167c010000000000000000000000000000000000000000000000000000000002815260040180828152602001915050602060405180830381600087803b158015614fe257600080fd5b505af1158015614ff6573d6000803e3d6000fd5b505050506040513d602081101561500c57600080fd5b81019080805190602001909291905050501091505b50919050565b600082821115151561503557fe5b818303905092915050565b60008061504b6147fb565b73ffffffffffffffffffffffffffffffffffffffff1663d9c6bb206040518163ffffffff167c0100000000000000000000000000000000000000000000000000000000028152600401602060405180830381600087803b1580156150ae57600080fd5b505af11580156150c2573d6000803e3d6000fd5b505050506040513d60208110156150d857600080fd5b81019080805190602001909291905050501415905090565b600081838115156150fd57fe5b04905092915050565b6000615113602654611f2b565b9050905600a165627a7a72305820ce054372f989885966f47b84b6cc5222d4569d4876970785a731a17a94b6840b0029",
  "source": "pragma solidity ^0.4.25;\n\nimport \"../common/DaoCommon.sol\";\nimport \"./DaoFundingManager.sol\";\nimport \"./DaoRewardsManager.sol\";\nimport \"./DaoVotingClaims.sol\";\n\n/**\n@title Interactive DAO contract for creating/modifying/endorsing proposals\n@author Digix Holdings\n*/\ncontract Dao is DaoCommon {\n\n    event NewProposal(bytes32 indexed _proposalId, address _proposer);\n    event ModifyProposal(bytes32 indexed _proposalId, bytes32 _newDoc);\n    event ChangeProposalFunding(bytes32 indexed _proposalId);\n    event FinalizeProposal(bytes32 indexed _proposalId);\n    event FinishMilestone(bytes32 indexed _proposalId, uint256 indexed _milestoneIndex);\n    event AddProposalDoc(bytes32 indexed _proposalId, bytes32 _newDoc);\n    event PRLAction(bytes32 indexed _proposalId, uint256 _actionId, bytes32 _doc);\n    event CloseProposal(bytes32 indexed _proposalId);\n    event MigrateToNewDao(address _newDaoContract, address _newDaoFundingManager, address _newDaoRewardsManager);\n\n    constructor(address _resolver) public {\n        require(init(CONTRACT_DAO, _resolver));\n    }\n\n    function daoFundingManager()\n        internal\n        view\n        returns (DaoFundingManager _contract)\n    {\n        _contract = DaoFundingManager(get_contract(CONTRACT_DAO_FUNDING_MANAGER));\n    }\n\n    function daoRewardsManager()\n        internal\n        view\n        returns (DaoRewardsManager _contract)\n    {\n        _contract = DaoRewardsManager(get_contract(CONTRACT_DAO_REWARDS_MANAGER));\n    }\n\n    function daoVotingClaims()\n        internal\n        view\n        returns (DaoVotingClaims _contract)\n    {\n        _contract = DaoVotingClaims(get_contract(CONTRACT_DAO_VOTING_CLAIMS));\n    }\n\n    /**\n    @notice Set addresses for the new Dao and DaoFundingManager contracts\n    @dev This is the first step of the 2-step migration\n    @param _newDaoContract Address of the new Dao contract\n    @param _newDaoFundingManager Address of the new DaoFundingManager contract\n    @param _newDaoRewardsManager Address of the new daoRewardsManager contract\n    */\n    function setNewDaoContracts(\n        address _newDaoContract,\n        address _newDaoFundingManager,\n        address _newDaoRewardsManager\n    )\n        public\n        if_root()\n    {\n        require(daoUpgradeStorage().isReplacedByNewDao() == false);\n        daoUpgradeStorage().setNewContractAddresses(\n            _newDaoContract,\n            _newDaoFundingManager,\n            _newDaoRewardsManager\n        );\n    }\n\n    /**\n    @notice Migrate this DAO to a new DAO contract\n    @dev This is the second step of the 2-step migration\n         Migration can only be done during the locking phase, after the global rewards for current quarter are set.\n         This is to make sure that there is no rewards calculation pending before the DAO is migrated to new contracts\n         The addresses of the new Dao contracts have to be provided again, and be double checked against the addresses that were set in setNewDaoContracts()\n    @param _newDaoContract Address of the new DAO contract\n    @param _newDaoFundingManager Address of the new DaoFundingManager contract, which would receive the remaining ETHs in this DaoFundingManager\n    @param _newDaoRewardsManager Address of the new daoRewardsManager contract, which would receive the claimableDGXs from this daoRewardsManager\n    */\n    function migrateToNewDao(\n        address _newDaoContract,\n        address _newDaoFundingManager,\n        address _newDaoRewardsManager\n    )\n        public\n        if_root()\n        ifGlobalRewardsSet(currentQuarterNumber())\n    {\n        require(isLockingPhase());\n        require(daoUpgradeStorage().isReplacedByNewDao() == false);\n        require(\n          (daoUpgradeStorage().newDaoContract() == _newDaoContract) &&\n          (daoUpgradeStorage().newDaoFundingManager() == _newDaoFundingManager) &&\n          (daoUpgradeStorage().newDaoRewardsManager() == _newDaoRewardsManager)\n        );\n        daoUpgradeStorage().updateForDaoMigration();\n        daoFundingManager().moveFundsToNewDao(_newDaoFundingManager);\n        daoRewardsManager().moveDGXsToNewDao(_newDaoRewardsManager);\n        emit MigrateToNewDao(_newDaoContract, _newDaoFundingManager, _newDaoRewardsManager);\n    }\n\n    /**\n    @notice Call this function to mark the start of the DAO's first quarter. This can only be done once, by a founder\n    @param _start Start time of the first quarter in the DAO\n    */\n    function setStartOfFirstQuarter(uint256 _start) public if_founder() {\n        require(daoUpgradeStorage().startOfFirstQuarter() == 0);\n        require(_start > 0);\n        daoUpgradeStorage().setStartOfFirstQuarter(_start);\n    }\n\n    /**\n    @notice Submit a new preliminary idea / Pre-proposal\n    @dev The proposer has to send in a collateral == getUintConfig(CONFIG_PREPROPOSAL_COLLATERAL)\n         which he could claim back in these scenarios:\n          - Before the proposal is finalized, by calling closeProposal()\n          - After all milestones are done and the final voting round is passed\n\n    @param _docIpfsHash Hash of the IPFS doc containing details of proposal\n    @param _milestonesFundings Array of fundings of the proposal milestones (in wei)\n    @param _finalReward Final reward asked by proposer at successful completion of all milestones of proposal\n    */\n    function submitPreproposal(\n        bytes32 _docIpfsHash,\n        uint256[] _milestonesFundings,\n        uint256 _finalReward\n    )\n        external\n        payable\n        ifFundingPossible(_milestonesFundings, _finalReward)\n    {\n        senderCanDoProposerOperations();\n        bool _isFounder = is_founder();\n\n        require(msg.value == getUintConfig(CONFIG_PREPROPOSAL_COLLATERAL));\n        require(address(daoFundingManager()).call.gas(25000).value(msg.value)());\n\n        checkNonDigixFundings(_milestonesFundings, _finalReward);\n\n        daoStorage().addProposal(_docIpfsHash, msg.sender, _milestonesFundings, _finalReward, _isFounder);\n        daoStorage().setProposalCollateralStatus(_docIpfsHash, COLLATERAL_STATUS_UNLOCKED);\n        daoStorage().setProposalCollateralAmount(_docIpfsHash, msg.value);\n\n        emit NewProposal(_docIpfsHash, msg.sender);\n    }\n\n    /**\n    @notice Modify a proposal (this can be done only before setting the final version)\n    @param _proposalId Proposal ID (hash of IPFS doc of the first version of the proposal)\n    @param _docIpfsHash Hash of IPFS doc of the modified version of the proposal\n    @param _milestonesFundings Array of fundings of the modified version of the proposal (in wei)\n    @param _finalReward Final reward on successful completion of all milestones of the modified version of proposal (in wei)\n    */\n    function modifyProposal(\n        bytes32 _proposalId,\n        bytes32 _docIpfsHash,\n        uint256[] _milestonesFundings,\n        uint256 _finalReward\n    )\n        external\n    {\n        senderCanDoProposerOperations();\n        require(isFromProposer(_proposalId));\n\n        require(isEditable(_proposalId));\n        bytes32 _currentState;\n        (,,,_currentState,,,,,,) = daoStorage().readProposal(_proposalId);\n        require(_currentState == PROPOSAL_STATE_PREPROPOSAL ||\n          _currentState == PROPOSAL_STATE_DRAFT);\n\n        checkNonDigixFundings(_milestonesFundings, _finalReward);\n\n        daoStorage().editProposal(_proposalId, _docIpfsHash, _milestonesFundings, _finalReward);\n\n        emit ModifyProposal(_proposalId, _docIpfsHash);\n    }\n\n    /**\n    @notice Function to change the funding structure for a proposal\n    @dev Proposers can only change fundings for the subsequent milestones,\n    during the duration of an on-going milestone (so, cannot be before proposal finalization or during any voting phase)\n    @param _proposalId ID of the proposal\n    @param _milestonesFundings Array of fundings for milestones\n    @param _finalReward Final reward needed for completion of proposal\n    @param _currentMilestone the milestone number the proposal is currently in\n    */\n    function changeFundings(\n        bytes32 _proposalId,\n        uint256[] _milestonesFundings,\n        uint256 _finalReward,\n        uint256 _currentMilestone\n    )\n        external\n    {\n        senderCanDoProposerOperations();\n        require(isFromProposer(_proposalId));\n\n        checkNonDigixFundings(_milestonesFundings, _finalReward);\n\n        uint256[] memory _currentFundings;\n        (_currentFundings,) = daoStorage().readProposalFunding(_proposalId);\n\n        // If there are N milestones, the milestone index must be < N. Otherwise, putting a milestone index of N will actually return a valid timestamp that is\n        // right after the final voting round (voting round index N is the final voting round)\n        // Which could be abused ( to add more milestones even after the final voting round)\n        require(_currentMilestone < _currentFundings.length);\n\n        uint256 _startOfCurrentMilestone = startOfMilestone(_proposalId, _currentMilestone);\n\n        // must be after the start of the milestone, and the milestone has not been finished yet (next voting hasnt started)\n        require(now > _startOfCurrentMilestone);\n        require(daoStorage().readProposalVotingTime(_proposalId, _currentMilestone.add(1)) == 0);\n\n        // can only modify the fundings after _currentMilestone\n        // so, all the fundings from 0 to _currentMilestone must be the same\n        for (uint256 i=0;i<=_currentMilestone;i++) {\n            require(_milestonesFundings[i] == _currentFundings[i]);\n        }\n\n        daoStorage().changeFundings(_proposalId, _milestonesFundings, _finalReward);\n\n        emit ChangeProposalFunding(_proposalId);\n    }\n\n    /**\n    @notice Finalize a proposal\n    @dev After finalizing a proposal, no more proposal version can be added. Proposer will only be able to change fundings and add more docs\n         Right after finalizing a proposal, the draft voting round starts. The proposer would also not be able to closeProposal() anymore\n         (hence, cannot claim back the collateral anymore, until the final voting round passes)\n    @param _proposalId ID of the proposal\n    */\n    function finalizeProposal(bytes32 _proposalId)\n        public\n    {\n        senderCanDoProposerOperations();\n        require(isFromProposer(_proposalId), \"not proposer\");\n        require(isEditable(_proposalId), \"proposal not editable\");\n        checkNonDigixProposalLimit(_proposalId);\n\n        // make sure we have reasonably enough time left in the quarter to conduct the Draft Voting.\n        // Otherwise, the proposer must wait until the next quarter to finalize the proposal\n        require(getTimeLeftInQuarter(now) > getUintConfig(CONFIG_DRAFT_VOTING_PHASE).add(getUintConfig(CONFIG_VOTE_CLAIMING_DEADLINE)), \"not enough time\");\n        address _endorser;\n        (,,_endorser,,,,,,,) = daoStorage().readProposal(_proposalId);\n        require(_endorser != EMPTY_ADDRESS, \"not endorsed\");\n        daoStorage().finalizeProposal(_proposalId);\n        daoStorage().setProposalDraftVotingTime(_proposalId, now);\n\n        emit FinalizeProposal(_proposalId);\n    }\n\n    /**\n    @notice Function to set milestone to be completed\n    @dev This can only be called in the Main Phase of DigixDAO by the proposer. It sets the\n         voting time for the next milestone, which is immediately, for most of the times. If there is not enough time left in the current\n         quarter, then the next voting is postponed to the start of next quarter\n    @param _proposalId ID of the proposal\n    @param _milestoneIndex Index of the milestone. Index starts from 0 (for the first milestone)\n    */\n    function finishMilestone(bytes32 _proposalId, uint256 _milestoneIndex)\n        public\n    {\n        senderCanDoProposerOperations();\n        require(isFromProposer(_proposalId), \"not proposer\");\n\n        uint256[] memory _currentFundings;\n        (_currentFundings,) = daoStorage().readProposalFunding(_proposalId);\n\n        // If there are N milestones, the milestone index must be < N. Otherwise, putting a milestone index of N will actually return a valid timestamp that is\n        // right after the final voting round (voting round index N is the final voting round)\n        // Which could be abused ( to \"finish\" a milestone even after the final voting round)\n        require(_milestoneIndex < _currentFundings.length, \"index outside limit\");\n\n        // must be after the start of this milestone, and the milestone has not been finished yet (voting hasnt started)\n        uint256 _startOfCurrentMilestone = startOfMilestone(_proposalId, _milestoneIndex);\n        require(now > _startOfCurrentMilestone, \"milestone not started\");\n        require(daoStorage().readProposalVotingTime(_proposalId, _milestoneIndex.add(1)) == 0, \"next milestone set\");\n\n        daoStorage().setProposalVotingTime(\n            _proposalId,\n            _milestoneIndex.add(1),\n            getTimelineForNextVote(_milestoneIndex.add(1), now)\n        ); // set the voting time of next voting\n\n        emit FinishMilestone(_proposalId, _milestoneIndex);\n    }\n\n    /**\n    @notice Add IPFS docs to a proposal\n    @dev This is allowed only after a proposal is finalized. Before finalizing\n         a proposal, proposer can modifyProposal and basically create a different ProposalVersion. After the proposal is finalized,\n         they can only allProposalDoc to the final version of that proposal\n    @param _proposalId ID of the proposal\n    @param _newDoc hash of the new IPFS doc\n    */\n    function addProposalDoc(bytes32 _proposalId, bytes32 _newDoc)\n        public\n    {\n        senderCanDoProposerOperations();\n        require(isFromProposer(_proposalId));\n        bytes32 _finalVersion;\n        (,,,,,,,_finalVersion,,) = daoStorage().readProposal(_proposalId);\n        require(_finalVersion != EMPTY_BYTES);\n        daoStorage().addProposalDoc(_proposalId, _newDoc);\n\n        emit AddProposalDoc(_proposalId, _newDoc);\n    }\n\n    /**\n    @notice Function to endorse a pre-proposal (can be called only by DAO Moderator)\n    @param _proposalId ID of the proposal (hash of IPFS doc of the first version of the proposal)\n    */\n    function endorseProposal(bytes32 _proposalId)\n        public\n        isProposalState(_proposalId, PROPOSAL_STATE_PREPROPOSAL)\n    {\n        require(isMainPhase());\n        require(isModerator(msg.sender));\n        daoStorage().updateProposalEndorse(_proposalId, msg.sender);\n    }\n\n    /**\n    @notice Function to update the PRL (regulatory status) status of a proposal\n    @dev if a proposal is paused or stopped, the proposer wont be able to withdraw the funding\n    @param _proposalId ID of the proposal\n    @param _doc hash of IPFS uploaded document, containing details of PRL Action\n    */\n    function updatePRL(\n        bytes32 _proposalId,\n        uint256 _action,\n        bytes32 _doc\n    )\n        public\n        if_prl()\n    {\n        require(_action == PRL_ACTION_STOP || _action == PRL_ACTION_PAUSE || _action == PRL_ACTION_UNPAUSE);\n        daoStorage().updateProposalPRL(_proposalId, _action, _doc, now);\n\n        emit PRLAction(_proposalId, _action, _doc);\n    }\n\n    /**\n    @notice Function to close proposal (also get back collateral)\n    @dev Can only be closed if the proposal has not been finalized yet\n    @param _proposalId ID of the proposal\n    */\n    function closeProposal(bytes32 _proposalId)\n        public\n    {\n        senderCanDoProposerOperations();\n        require(isFromProposer(_proposalId), \"not proposer\");\n        bytes32 _finalVersion;\n        bytes32 _status;\n        (,,,_status,,,,_finalVersion,,) = daoStorage().readProposal(_proposalId);\n        require(_finalVersion == EMPTY_BYTES, \"already finalized\");\n        require(_status != PROPOSAL_STATE_CLOSED, \"already closed\");\n        require(daoStorage().readProposalCollateralStatus(_proposalId) == COLLATERAL_STATUS_UNLOCKED, \"already unlocked\");\n\n        daoStorage().closeProposal(_proposalId);\n        daoStorage().setProposalCollateralStatus(_proposalId, COLLATERAL_STATUS_CLAIMED);\n        emit CloseProposal(_proposalId);\n        require(daoFundingManager().refundCollateral(msg.sender, _proposalId));\n    }\n\n    /**\n    @notice Function for founders to close all the dead proposals\n    @dev Dead proposals = all proposals who are not yet finalized, and been there for more than the threshold time\n         The proposers of dead proposals will not get the collateral back\n    @param _proposalIds Array of proposal IDs\n    */\n    function founderCloseProposals(bytes32[] _proposalIds)\n        external\n        if_founder()\n    {\n        uint256 _length = _proposalIds.length;\n        uint256 _timeCreated;\n        bytes32 _finalVersion;\n        bytes32 _currentState;\n        for (uint256 _i = 0; _i < _length; _i++) {\n            (,,,_currentState,_timeCreated,,,_finalVersion,,) = daoStorage().readProposal(_proposalIds[_i]);\n            require(_finalVersion == EMPTY_BYTES);\n            require(\n                (_currentState == PROPOSAL_STATE_PREPROPOSAL) ||\n                (_currentState == PROPOSAL_STATE_DRAFT)\n            );\n            require(now > _timeCreated.add(getUintConfig(CONFIG_PROPOSAL_DEAD_DURATION)));\n            emit CloseProposal(_proposalIds[_i]);\n            daoStorage().closeProposal(_proposalIds[_i]);\n        }\n    }\n}\n",
  "sourcePath": "/Users/aeufemio/projects/dgx/contracts/dao-contracts/contracts/interactive/Dao.sol",
  "compiler": {
    "name": "solc",
    "version": "0.4.25+commit.59dbf8f1.Emscripten.clang"
  },
  "schemaVersion": "2.0.2",
  "updatedAt": "2020-03-12T02:29:48.892Z"
}