{
  "contractName": "Dao",
  "abi": [
    {
      "constant": true,
      "inputs": [],
      "name": "resolver",
      "outputs": [
        {
          "name": "",
          "type": "address"
        }
      ],
      "payable": false,
      "stateMutability": "view",
      "type": "function"
    },
    {
      "constant": true,
      "inputs": [
        {
          "name": "_configKey",
          "type": "bytes32"
        }
      ],
      "name": "getAddressConfig",
      "outputs": [
        {
          "name": "_configValue",
          "type": "address"
        }
      ],
      "payable": false,
      "stateMutability": "view",
      "type": "function"
    },
    {
      "constant": true,
      "inputs": [],
      "name": "key",
      "outputs": [
        {
          "name": "",
          "type": "bytes32"
        }
      ],
      "payable": false,
      "stateMutability": "view",
      "type": "function"
    },
    {
      "constant": true,
      "inputs": [
        {
          "name": "_key",
          "type": "bytes32"
        }
      ],
      "name": "get_contract",
      "outputs": [
        {
          "name": "_contract",
          "type": "address"
        }
      ],
      "payable": false,
      "stateMutability": "view",
      "type": "function"
    },
    {
      "constant": true,
      "inputs": [],
      "name": "currentTimeInQuarter",
      "outputs": [
        {
          "name": "_currentT",
          "type": "uint256"
        }
      ],
      "payable": false,
      "stateMutability": "view",
      "type": "function"
    },
    {
      "constant": true,
      "inputs": [],
      "name": "isMainPhase",
      "outputs": [
        {
          "name": "_isMainPhase",
          "type": "bool"
        }
      ],
      "payable": false,
      "stateMutability": "view",
      "type": "function"
    },
    {
      "constant": true,
      "inputs": [],
      "name": "isLockingPhase",
      "outputs": [
        {
          "name": "_isLockingPhase",
          "type": "bool"
        }
      ],
      "payable": false,
      "stateMutability": "view",
      "type": "function"
    },
    {
      "constant": true,
      "inputs": [],
      "name": "currentQuarterNumber",
      "outputs": [
        {
          "name": "_quarterNumber",
          "type": "uint256"
        }
      ],
      "payable": false,
      "stateMutability": "view",
      "type": "function"
    },
    {
      "constant": true,
      "inputs": [
        {
          "name": "_user",
          "type": "address"
        }
      ],
      "name": "isParticipant",
      "outputs": [
        {
          "name": "_is",
          "type": "bool"
        }
      ],
      "payable": false,
      "stateMutability": "view",
      "type": "function"
    },
    {
      "constant": true,
      "inputs": [
        {
          "name": "_configKey",
          "type": "bytes32"
        }
      ],
      "name": "getBytesConfig",
      "outputs": [
        {
          "name": "_configValue",
          "type": "bytes32"
        }
      ],
      "payable": false,
      "stateMutability": "view",
      "type": "function"
    },
    {
      "constant": true,
      "inputs": [
        {
          "name": "_configKey",
          "type": "bytes32"
        }
      ],
      "name": "getUintConfig",
      "outputs": [
        {
          "name": "_configValue",
          "type": "uint256"
        }
      ],
      "payable": false,
      "stateMutability": "view",
      "type": "function"
    },
    {
      "constant": true,
      "inputs": [],
      "name": "isDaoNotReplaced",
      "outputs": [
        {
          "name": "_isNotReplaced",
          "type": "bool"
        }
      ],
      "payable": false,
      "stateMutability": "view",
      "type": "function"
    },
    {
      "constant": true,
      "inputs": [],
      "name": "CONTRACT_ADDRESS",
      "outputs": [
        {
          "name": "",
          "type": "address"
        }
      ],
      "payable": false,
      "stateMutability": "view",
      "type": "function"
    },
    {
      "constant": true,
      "inputs": [
        {
          "name": "_user",
          "type": "address"
        }
      ],
      "name": "isModerator",
      "outputs": [
        {
          "name": "_is",
          "type": "bool"
        }
      ],
      "payable": false,
      "stateMutability": "view",
      "type": "function"
    },
    {
      "inputs": [
        {
          "name": "_resolver",
          "type": "address"
        }
      ],
      "payable": false,
      "stateMutability": "nonpayable",
      "type": "constructor"
    },
    {
      "anonymous": false,
      "inputs": [
        {
          "indexed": true,
          "name": "_proposalId",
          "type": "bytes32"
        },
        {
          "indexed": false,
          "name": "_proposer",
          "type": "address"
        }
      ],
      "name": "NewProposal",
      "type": "event"
    },
    {
      "anonymous": false,
      "inputs": [
        {
          "indexed": true,
          "name": "_proposalId",
          "type": "bytes32"
        },
        {
          "indexed": false,
          "name": "_newDoc",
          "type": "bytes32"
        }
      ],
      "name": "ModifyProposal",
      "type": "event"
    },
    {
      "anonymous": false,
      "inputs": [
        {
          "indexed": true,
          "name": "_proposalId",
          "type": "bytes32"
        }
      ],
      "name": "ChangeProposalFunding",
      "type": "event"
    },
    {
      "anonymous": false,
      "inputs": [
        {
          "indexed": true,
          "name": "_proposalId",
          "type": "bytes32"
        }
      ],
      "name": "FinalizeProposal",
      "type": "event"
    },
    {
      "anonymous": false,
      "inputs": [
        {
          "indexed": true,
          "name": "_proposalId",
          "type": "bytes32"
        },
        {
          "indexed": true,
          "name": "_milestoneIndex",
          "type": "uint256"
        }
      ],
      "name": "FinishMilestone",
      "type": "event"
    },
    {
      "anonymous": false,
      "inputs": [
        {
          "indexed": true,
          "name": "_proposalId",
          "type": "bytes32"
        },
        {
          "indexed": false,
          "name": "_newDoc",
          "type": "bytes32"
        }
      ],
      "name": "AddProposalDoc",
      "type": "event"
    },
    {
      "anonymous": false,
      "inputs": [
        {
          "indexed": true,
          "name": "_proposalId",
          "type": "bytes32"
        },
        {
          "indexed": false,
          "name": "_actionId",
          "type": "uint256"
        },
        {
          "indexed": false,
          "name": "_doc",
          "type": "bytes32"
        }
      ],
      "name": "PRLAction",
      "type": "event"
    },
    {
      "anonymous": false,
      "inputs": [
        {
          "indexed": true,
          "name": "_proposalId",
          "type": "bytes32"
        }
      ],
      "name": "CloseProposal",
      "type": "event"
    },
    {
      "anonymous": false,
      "inputs": [
        {
          "indexed": false,
          "name": "_newDaoContract",
          "type": "address"
        },
        {
          "indexed": false,
          "name": "_newDaoFundingManager",
          "type": "address"
        },
        {
          "indexed": false,
          "name": "_newDaoRewardsManager",
          "type": "address"
        }
      ],
      "name": "MigrateToNewDao",
      "type": "event"
    },
    {
      "constant": false,
      "inputs": [
        {
          "name": "_newDaoContract",
          "type": "address"
        },
        {
          "name": "_newDaoFundingManager",
          "type": "address"
        },
        {
          "name": "_newDaoRewardsManager",
          "type": "address"
        }
      ],
      "name": "setNewDaoContracts",
      "outputs": [],
      "payable": false,
      "stateMutability": "nonpayable",
      "type": "function"
    },
    {
      "constant": false,
      "inputs": [
        {
          "name": "_newDaoContract",
          "type": "address"
        },
        {
          "name": "_newDaoFundingManager",
          "type": "address"
        },
        {
          "name": "_newDaoRewardsManager",
          "type": "address"
        }
      ],
      "name": "migrateToNewDao",
      "outputs": [],
      "payable": false,
      "stateMutability": "nonpayable",
      "type": "function"
    },
    {
      "constant": false,
      "inputs": [
        {
          "name": "_start",
          "type": "uint256"
        }
      ],
      "name": "setStartOfFirstQuarter",
      "outputs": [],
      "payable": false,
      "stateMutability": "nonpayable",
      "type": "function"
    },
    {
      "constant": false,
      "inputs": [
        {
          "name": "_docIpfsHash",
          "type": "bytes32"
        },
        {
          "name": "_milestonesFundings",
          "type": "uint256[]"
        },
        {
          "name": "_finalReward",
          "type": "uint256"
        }
      ],
      "name": "submitPreproposal",
      "outputs": [],
      "payable": true,
      "stateMutability": "payable",
      "type": "function"
    },
    {
      "constant": false,
      "inputs": [
        {
          "name": "_proposalId",
          "type": "bytes32"
        },
        {
          "name": "_docIpfsHash",
          "type": "bytes32"
        },
        {
          "name": "_milestonesFundings",
          "type": "uint256[]"
        },
        {
          "name": "_finalReward",
          "type": "uint256"
        }
      ],
      "name": "modifyProposal",
      "outputs": [],
      "payable": false,
      "stateMutability": "nonpayable",
      "type": "function"
    },
    {
      "constant": false,
      "inputs": [
        {
          "name": "_proposalId",
          "type": "bytes32"
        },
        {
          "name": "_milestonesFundings",
          "type": "uint256[]"
        },
        {
          "name": "_finalReward",
          "type": "uint256"
        },
        {
          "name": "_currentMilestone",
          "type": "uint256"
        }
      ],
      "name": "changeFundings",
      "outputs": [],
      "payable": false,
      "stateMutability": "nonpayable",
      "type": "function"
    },
    {
      "constant": false,
      "inputs": [
        {
          "name": "_proposalId",
          "type": "bytes32"
        }
      ],
      "name": "finalizeProposal",
      "outputs": [],
      "payable": false,
      "stateMutability": "nonpayable",
      "type": "function"
    },
    {
      "constant": false,
      "inputs": [
        {
          "name": "_proposalId",
          "type": "bytes32"
        },
        {
          "name": "_milestoneIndex",
          "type": "uint256"
        }
      ],
      "name": "finishMilestone",
      "outputs": [],
      "payable": false,
      "stateMutability": "nonpayable",
      "type": "function"
    },
    {
      "constant": false,
      "inputs": [
        {
          "name": "_proposalId",
          "type": "bytes32"
        },
        {
          "name": "_newDoc",
          "type": "bytes32"
        }
      ],
      "name": "addProposalDoc",
      "outputs": [],
      "payable": false,
      "stateMutability": "nonpayable",
      "type": "function"
    },
    {
      "constant": false,
      "inputs": [
        {
          "name": "_proposalId",
          "type": "bytes32"
        }
      ],
      "name": "endorseProposal",
      "outputs": [],
      "payable": false,
      "stateMutability": "nonpayable",
      "type": "function"
    },
    {
      "constant": false,
      "inputs": [
        {
          "name": "_proposalId",
          "type": "bytes32"
        },
        {
          "name": "_action",
          "type": "uint256"
        },
        {
          "name": "_doc",
          "type": "bytes32"
        }
      ],
      "name": "updatePRL",
      "outputs": [],
      "payable": false,
      "stateMutability": "nonpayable",
      "type": "function"
    },
    {
      "constant": false,
      "inputs": [
        {
          "name": "_proposalId",
          "type": "bytes32"
        }
      ],
      "name": "closeProposal",
      "outputs": [],
      "payable": false,
      "stateMutability": "nonpayable",
      "type": "function"
    },
    {
      "constant": false,
      "inputs": [
        {
          "name": "_proposalIds",
          "type": "bytes32[]"
        }
      ],
      "name": "founderCloseProposals",
      "outputs": [],
      "payable": false,
      "stateMutability": "nonpayable",
      "type": "function"
    }
  ],
  "bytecode": "0x608060405260006001026003906000191690556000600460006101000a81548173ffffffffffffffffffffffffffffffffffffffff021916908373ffffffffffffffffffffffffffffffffffffffff1602179055507f70726f706f73616c5f73746174655f70726570726f706f73616c0000000000006005906000191690557f70726f706f73616c5f73746174655f64726166740000000000000000000000006006906000191690557f70726f706f73616c5f73746174655f6d6f6465726174656400000000000000006007906000191690557f70726f706f73616c5f73746174655f6f6e676f696e67000000000000000000006008906000191690557f70726f706f73616c5f73746174655f636c6f73656400000000000000000000006009906000191690557f70726f706f73616c5f73746174655f6172636869766564000000000000000000600a906000191690556001600b556002600c556003600d556001600e556002600f5560036010557f696e7465725f6467645f696400000000000000000000000000000000000000006011906000191690557f696e7465725f6d6f645f6467645f6964000000000000000000000000000000006012906000191690557f696e7465725f626f6e75735f63616c63756c6174696f6e5f69640000000000006013906000191690557f64616f00000000000000000000000000000000000000000000000000000000006014906000191690557f64616f3a7370656369616c3a70726f706f73616c0000000000000000000000006015906000191690557f64616f3a7374616b652d6c6f636b696e670000000000000000000000000000006016906000191690557f64616f3a766f74696e67000000000000000000000000000000000000000000006017906000191690557f64616f3a766f74696e673a636c61696d730000000000000000000000000000006018906000191690557f64616f3a73766f74696e673a636c61696d7300000000000000000000000000006019906000191690557f64616f3a6964656e746974790000000000000000000000000000000000000000601a906000191690557f64616f3a726577617264732d6d616e6167657200000000000000000000000000601b906000191690557f64616f3a726577617264732d6578747261730000000000000000000000000000601c906000191690557f64616f3a726f6c65730000000000000000000000000000000000000000000000601d906000191690557f64616f3a66756e64696e672d6d616e6167657200000000000000000000000000601e906000191690557f64616f3a77686974656c697374696e6700000000000000000000000000000000601f906000191690557f64616f3a696e666f726d6174696f6e00000000000000000000000000000000006020906000191690557f736572766963653a726f6c6500000000000000000000000000000000000000006021906000191690557f736572766963653a64616f3a696e666f000000000000000000000000000000006022906000191690557f736572766963653a64616f3a6c697374696e67000000000000000000000000006023906000191690557f736572766963653a64616f3a63616c63756c61746f72000000000000000000006024906000191690557f73746f726167653a64616f0000000000000000000000000000000000000000006025906000191690557f73746f726167653a64616f3a636f756e746572000000000000000000000000006026906000191690557f73746f726167653a64616f3a75706772616465000000000000000000000000006027906000191690557f73746f726167653a64616f3a6964656e746974790000000000000000000000006028906000191690557f73746f726167653a64616f3a706f696e747300000000000000000000000000006029906000191690557f73746f726167653a64616f3a7370656369616c00000000000000000000000000602a906000191690557f73746f726167653a64616f3a636f6e6669670000000000000000000000000000602b906000191690557f73746f726167653a64616f3a7374616b65000000000000000000000000000000602c906000191690557f73746f726167653a64616f3a7265776172647300000000000000000000000000602d906000191690557f73746f726167653a64616f3a77686974656c697374696e670000000000000000602e906000191690557f73746f726167653a696e7465726d6564696174653a726573756c747300000000602f906000191690557f743a6467640000000000000000000000000000000000000000000000000000006030906000191690557f743a6467780000000000000000000000000000000000000000000000000000006031906000191690557f743a6261646765000000000000000000000000000000000000000000000000006032906000191690556001603360006101000a81548160ff021916908360ff1602179055506002603360016101000a81548160ff021916908360ff1602179055506003603360026101000a81548160ff021916908360ff1602179055506004603360036101000a81548160ff021916908360ff1602179055506276a7006034557f6d696e5f6467645f7061727469636970616e74000000000000000000000000006035906000191690557f6d696e5f6467645f6d6f64657261746f720000000000000000000000000000006036906000191690557f6d696e5f72657075746174696f6e5f6d6f64657261746f7200000000000000006037906000191690557f6c6f636b696e675f70686173655f6475726174696f6e000000000000000000006038906000191690557f717561727465725f6475726174696f6e000000000000000000000000000000006039906000191690557f766f74696e675f636f6d6d69745f706861736500000000000000000000000000603a906000191690557f766f74696e675f70686173655f746f74616c0000000000000000000000000000603b906000191690557f696e746572696d5f766f74696e675f636f6d6d69745f70686173650000000000603c906000191690557f696e746572696d5f766f74696e675f70686173655f746f74616c000000000000603d906000191690557f64726166745f71756f72756d5f66697865645f6e756d657261746f7200000000603e906000191690557f64726166745f71756f72756d5f66697865645f64656e6f6d696e61746f720000603f906000191690557f64726166745f71756f72756d5f73666163746f725f6e756d657261746f7200006040906000191690557f64726166745f71756f72756d5f73666163746f725f64656e6f6d696e61746f726041906000191690557f766f74655f71756f72756d5f66697865645f6e756d657261746f7200000000006042906000191690557f766f74655f71756f72756d5f66697865645f64656e6f6d696e61746f720000006043906000191690557f766f74655f71756f72756d5f73666163746f725f6e756d657261746f720000006044906000191690557f766f74655f71756f72756d5f73666163746f725f64656e6f6d696e61746f72006045906000191690557f66696e616c5f7265776172645f73666163746f725f6e756d657261746f7200006046906000191690557f66696e616c5f7265776172645f73666163746f725f64656e6f6d696e61746f726047906000191690557f64726166745f71756f74615f6e756d657261746f7200000000000000000000006048906000191690557f64726166745f71756f74615f64656e6f6d696e61746f720000000000000000006049906000191690557f766f74696e675f71756f74615f6e756d657261746f7200000000000000000000604a906000191690557f766f74696e675f71756f74615f64656e6f6d696e61746f720000000000000000604b906000191690557f6d696e696d616c5f717000000000000000000000000000000000000000000000604c906000191690557f717561727465725f706f696e745f7363616c696e675f666163746f7200000000604d906000191690557f7265705f706f696e745f7363616c696e675f666163746f720000000000000000604e906000191690557f6d696e696d616c5f6d6f645f7170000000000000000000000000000000000000604f906000191690557f6d6f645f71705f7363616c696e675f666163746f7200000000000000000000006050906000191690557f6d6f645f7265705f706f696e745f7363616c696e675f666163746f72000000006051906000191690557f717561727465725f706f696e745f64726166745f766f746500000000000000006052906000191690557f717561727465725f706f696e745f766f746500000000000000000000000000006053906000191690557f717561727465725f706f696e745f696e746572696d5f766f74650000000000006054906000191690557f715f705f6d696c6573746f6e655f636f6d706c6574696f6e00000000000000006055906000191690557f626f6e75735f72657075746174696f6e5f6e756d657261746f720000000000006056906000191690557f626f6e75735f72657075746174696f6e5f64656e6f6d696e61746f72000000006057906000191690557f7370656369616c5f70726f706f73616c5f636f6d6d69745f70686173650000006058906000191690557f7370656369616c5f70726f706f73616c5f70686173655f746f74616c000000006059906000191690557f636f6e6669675f7370656369616c5f71756f74615f6e756d657261746f720000605a906000191690557f636f6e6669675f7370656369616c5f71756f74615f64656e6f6d696e61746f72605b906000191690557f7370656369616c5f71756f72756d5f6e756d657261746f720000000000000000605c906000191690557f7370656369616c5f71756f72756d5f64656e6f6d696e61746f72000000000000605d906000191690557f636f6e6669675f6d61785f72657075746174696f6e5f646564756374696f6e00605e906000191690557f636f6e6669675f70756e6973686d656e745f6e6f745f6c6f636b696e67000000605f906000191690557f636f6e6669675f7265705f7065725f65787472615f71705f6e756d00000000006060906000191690557f636f6e6669675f7265705f7065725f65787472615f71705f64656e00000000006061906000191690557f636f6e6669675f6d61785f6d5f72705f646564756374696f6e000000000000006062906000191690557f636f6e6669675f7265705f7065725f65787472615f6d5f71705f6e756d0000006063906000191690557f636f6e6669675f7265705f7065725f65787472615f6d5f71705f64656e0000006064906000191690557f636f6e6669675f6d6f645f706f7274696f6e5f6e756d000000000000000000006065906000191690557f636f6e6669675f6d6f645f706f7274696f6e5f64656e000000000000000000006066906000191690557f636f6e6669675f64726166745f766f74696e675f7068617365000000000000006067906000191690557f636f6e6669675f72705f626f6f73745f7065725f6261646765000000000000006068906000191690557f636f6e6669675f636c61696d696e675f646561646c696e6500000000000000006069906000191690557f636f6e6669675f70726570726f706f73616c5f636f6c6c61746572616c000000606a906000191690557f636f6e6669675f6d61785f66756e64696e675f6e6f6e44696769780000000000606b906000191690557f636f6e6669675f6d61785f6d696c6573746f6e65735f6e6f6e44696769780000606c906000191690557f636f6e6669675f6e6f6e44696769785f70726f706f73616c5f63617000000000606d906000191690557f636f6e6669675f646561645f6475726174696f6e000000000000000000000000606e906000191690557f636f6e6669675f63765f72657075746174696f6e000000000000000000000000606f906000191690553480156200113457600080fd5b506040516020806200607c83398101806040528101908080519060200190929190505050620011756014548262001188640100000000026401000000009004565b15156200118157600080fd5b5062001419565b6000808273ffffffffffffffffffffffffffffffffffffffff16636d19a8826040518163ffffffff167c0100000000000000000000000000000000000000000000000000000000028152600401602060405180830381600087803b158015620011f057600080fd5b505af115801562001205573d6000803e3d6000fd5b505050506040513d60208110156200121c57600080fd5b810190808051906020019092919050505090506000151581151514156200140d5730600260006101000a81548173ffffffffffffffffffffffffffffffffffffffff021916908373ffffffffffffffffffffffffffffffffffffffff160217905550826000806101000a81548173ffffffffffffffffffffffffffffffffffffffff021916908373ffffffffffffffffffffffffffffffffffffffff16021790555083600181600019169055506000809054906101000a900473ffffffffffffffffffffffffffffffffffffffff1673ffffffffffffffffffffffffffffffffffffffff1663c0f6ef4a600154600260009054906101000a900473ffffffffffffffffffffffffffffffffffffffff166040518363ffffffff167c01000000000000000000000000000000000000000000000000000000000281526004018083600019166000191681526020018273ffffffffffffffffffffffffffffffffffffffff1673ffffffffffffffffffffffffffffffffffffffff16815260200192505050602060405180830381600087803b158015620013ba57600080fd5b505af1158015620013cf573d6000803e3d6000fd5b505050506040513d6020811015620013e657600080fd5b810190808051906020019092919050505015156200140357600080fd5b6001915062001412565b600091505b5092915050565b614c5380620014296000396000f30060806040526004361061015f576000357c0100000000000000000000000000000000000000000000000000000000900463ffffffff1680630247afe81461016457806304f3bcec1461019f578063078f872c146101f65780631d8ccd04146102275780632b847105146102985780633943380c146102de5780633b00763d146103115780633f83acff1461039457806347d0da141461040557806355cc313614610436578063560a25ea146104715780635b30f1cc1461049c57806368533060146104c9578063711f2614146104f85780637d6fed80146105555780637ef37354146105845780637f6a26b6146105cd578063926851af146105f8578063929066f51461062957806393ddad0814610684578063b1e2b9dd146106d1578063b202cc9614610716578063d0bd65b114610799578063d70d9358146107fa578063db4ecbc114610829578063eef7b8f514610880578063fa6f3936146108bf575b600080fd5b34801561017057600080fd5b5061019d60048036038101908080359060200190820180359060200191909192939192939050505061091a565b005b3480156101ab57600080fd5b506101b4610c23565b604051808273ffffffffffffffffffffffffffffffffffffffff1673ffffffffffffffffffffffffffffffffffffffff16815260200191505060405180910390f35b34801561020257600080fd5b506102256004803603810190808035600019169060200190929190505050610c48565b005b34801561023357600080fd5b50610256600480360381019080803560001916906020019092919050505061110e565b604051808273ffffffffffffffffffffffffffffffffffffffff1673ffffffffffffffffffffffffffffffffffffffff16815260200191505060405180910390f35b6102dc6004803603810190808035600019169060200190929190803590602001908201803590602001919091929391929390803590602001909291905050506111d0565b005b3480156102ea57600080fd5b506102f3611586565b60405180826000191660001916815260200191505060405180910390f35b34801561031d57600080fd5b50610392600480360381019080803573ffffffffffffffffffffffffffffffffffffffff169060200190929190803573ffffffffffffffffffffffffffffffffffffffff169060200190929190803573ffffffffffffffffffffffffffffffffffffffff16906020019092919050505061158c565b005b3480156103a057600080fd5b506103c36004803603810190808035600019169060200190929190505050611d83565b604051808273ffffffffffffffffffffffffffffffffffffffff1673ffffffffffffffffffffffffffffffffffffffff16815260200191505060405180910390f35b34801561041157600080fd5b506104346004803603810190808035600019169060200190929190505050611e5f565b005b34801561044257600080fd5b5061046f6004803603810190808035600019169060200190929190803590602001909291905050506121e4565b005b34801561047d57600080fd5b5061048661253d565b6040518082815260200191505060405180910390f35b3480156104a857600080fd5b506104c76004803603810190808035906020019092919050505061254d565b005b3480156104d557600080fd5b506104de6126b3565b604051808215151515815260200191505060405180910390f35b34801561050457600080fd5b50610553600480360381019080803560001916906020019092919080359060200190820180359060200191909192939192939080359060200190929190803590602001909291905050506126df565b005b34801561056157600080fd5b5061056a612ab7565b604051808215151515815260200191505060405180910390f35b34801561059057600080fd5b506105cb6004803603810190808035600019169060200190929190803590602001909291908035600019169060200190929190505050612ad2565b005b3480156105d957600080fd5b506105e2612cfd565b6040518082815260200191505060405180910390f35b34801561060457600080fd5b506106276004803603810190808035600019169060200190929190505050612d0d565b005b34801561063557600080fd5b5061066a600480360381019080803573ffffffffffffffffffffffffffffffffffffffff169060200190929190505050612f69565b604051808215151515815260200191505060405180910390f35b34801561069057600080fd5b506106b3600480360381019080803560001916906020019092919050505061314a565b60405180826000191660001916815260200191505060405180910390f35b3480156106dd57600080fd5b50610700600480360381019080803560001916906020019092919050505061320c565b6040518082815260200191505060405180910390f35b34801561072257600080fd5b50610797600480360381019080803573ffffffffffffffffffffffffffffffffffffffff169060200190929190803573ffffffffffffffffffffffffffffffffffffffff169060200190929190803573ffffffffffffffffffffffffffffffffffffffff1690602001909291905050506132ce565b005b3480156107a557600080fd5b506107f860048036038101908080356000191690602001909291908035600019169060200190929190803590602001908201803590602001919091929391929390803590602001909291905050506135a9565b005b34801561080657600080fd5b5061080f6138a8565b604051808215151515815260200191505060405180910390f35b34801561083557600080fd5b5061083e613956565b604051808273ffffffffffffffffffffffffffffffffffffffff1673ffffffffffffffffffffffffffffffffffffffff16815260200191505060405180910390f35b34801561088c57600080fd5b506108bd6004803603810190808035600019169060200190929190803560001916906020019092919050505061397c565b005b3480156108cb57600080fd5b50610900600480360381019080803573ffffffffffffffffffffffffffffffffffffffff169060200190929190505050613bef565b604051808215151515815260200191505060405180910390f35b600080600080600061092a613ec2565b151561093557600080fd5b868690509450600090505b84811015610c1a57610950613fba565b73ffffffffffffffffffffffffffffffffffffffff1663d8d50179888884818110151561097957fe5b90506020020135600019166040518263ffffffff167c010000000000000000000000000000000000000000000000000000000002815260040180826000191660001916815260200191505061014060405180830381600087803b1580156109df57600080fd5b505af11580156109f3573d6000803e3d6000fd5b505050506040513d610140811015610a0a57600080fd5b8101908080519060200190929190805190602001909291908051906020019092919080519060200190929190805190602001909291908051906020019092919080519060200190929190805190602001909291908051906020019092919080519060200190929190505050909192939495969798509091929394959697509091929394959650909192935090919250905050809550819650829450505050600354600019168360001916141515610ac057600080fd5b6005546000191682600019161480610ae15750600654600019168260001916145b1515610aec57600080fd5b610b09610afa606e5461320c565b85613fcc90919063ffffffff16565b42111515610b1657600080fd5b8686828181101515610b2457fe5b9050602002013560001916600019167fcc0c35dc01446e741be6aeeeb22693a96b4b42887e92d84a17181687b6a4181860405160405180910390a2610b67613fba565b73ffffffffffffffffffffffffffffffffffffffff1663078f872c8888848181101515610b9057fe5b90506020020135600019166040518263ffffffff167c0100000000000000000000000000000000000000000000000000000000028152600401808260001916600019168152602001915050600060405180830381600087803b158015610bf557600080fd5b505af1158015610c09573d6000803e3d6000fd5b505050508080600101915050610940565b50505050505050565b6000809054906101000a900473ffffffffffffffffffffffffffffffffffffffff1681565b600080610c53613fe8565b610c5c836140f9565b1515610c6757600080fd5b610c6f613fba565b73ffffffffffffffffffffffffffffffffffffffff1663d8d50179846040518263ffffffff167c010000000000000000000000000000000000000000000000000000000002815260040180826000191660001916815260200191505061014060405180830381600087803b158015610ce657600080fd5b505af1158015610cfa573d6000803e3d6000fd5b505050506040513d610140811015610d1157600080fd5b81019080805190602001909291908051906020019092919080519060200190929190805190602001909291908051906020019092919080519060200190929190805190602001909291908051906020019092919080519060200190929190805190602001909291905050509091929394959697985090919293949596975090919293949596509091929394509091929350909192509050508093508192505050600354600019168260001916141515610dc957600080fd5b60095460001916816000191614151515610de257600080fd5b600e54610ded613fba565b73ffffffffffffffffffffffffffffffffffffffff16633be88369856040518263ffffffff167c0100000000000000000000000000000000000000000000000000000000028152600401808260001916600019168152602001915050602060405180830381600087803b158015610e6357600080fd5b505af1158015610e77573d6000803e3d6000fd5b505050506040513d6020811015610e8d57600080fd5b8101908080519060200190929190505050141515610eaa57600080fd5b610eb2613fba565b73ffffffffffffffffffffffffffffffffffffffff1663078f872c846040518263ffffffff167c0100000000000000000000000000000000000000000000000000000000028152600401808260001916600019168152602001915050600060405180830381600087803b158015610f2857600080fd5b505af1158015610f3c573d6000803e3d6000fd5b50505050610f48613fba565b73ffffffffffffffffffffffffffffffffffffffff1663c362c790846010546040518363ffffffff167c010000000000000000000000000000000000000000000000000000000002815260040180836000191660001916815260200182815260200192505050600060405180830381600087803b158015610fc857600080fd5b505af1158015610fdc573d6000803e3d6000fd5b5050505082600019167fcc0c35dc01446e741be6aeeeb22693a96b4b42887e92d84a17181687b6a4181860405160405180910390a26110196141e9565b73ffffffffffffffffffffffffffffffffffffffff16637e71332b33856040518363ffffffff167c0100000000000000000000000000000000000000000000000000000000028152600401808373ffffffffffffffffffffffffffffffffffffffff1673ffffffffffffffffffffffffffffffffffffffff168152602001826000191660001916815260200192505050602060405180830381600087803b1580156110c357600080fd5b505af11580156110d7573d6000803e3d6000fd5b505050506040513d60208110156110ed57600080fd5b8101908080519060200190929190505050151561110957600080fd5b505050565b60006111186141fb565b73ffffffffffffffffffffffffffffffffffffffff1663e6b39eab836040518263ffffffff167c0100000000000000000000000000000000000000000000000000000000028152600401808260001916600019168152602001915050602060405180830381600087803b15801561118e57600080fd5b505af11580156111a2573d6000803e3d6000fd5b505050506040513d60208110156111b857600080fd5b81019080805190602001909291905050509050919050565b60006111da613fe8565b6111e2613ec2565b90506111ec61420d565b61123683611228878780806020026020016040519081016040528093929190818152602001838360200280828437820191505050505050614236565b613fcc90919063ffffffff16565b1115151561124357600080fd5b61124e606a5461320c565b3414151561125b57600080fd5b6112636141e9565b73ffffffffffffffffffffffffffffffffffffffff166161a834604051600060405180830381858888f19350505050151561129d57600080fd5b6112d684848080602002602001604051908101604052809392919081815260200183836020028082843782019150505050505083614286565b6112de613fba565b73ffffffffffffffffffffffffffffffffffffffff1663a1d444a48633878787876040518763ffffffff167c01000000000000000000000000000000000000000000000000000000000281526004018087600019166000191681526020018673ffffffffffffffffffffffffffffffffffffffff1673ffffffffffffffffffffffffffffffffffffffff168152602001806020018481526020018315151515815260200182810382528686828181526020019250602002808284378201915050975050505050505050600060405180830381600087803b1580156113c157600080fd5b505af11580156113d5573d6000803e3d6000fd5b505050506113e1613fba565b73ffffffffffffffffffffffffffffffffffffffff1663c362c79086600e546040518363ffffffff167c010000000000000000000000000000000000000000000000000000000002815260040180836000191660001916815260200182815260200192505050600060405180830381600087803b15801561146157600080fd5b505af1158015611475573d6000803e3d6000fd5b50505050611481613fba565b73ffffffffffffffffffffffffffffffffffffffff16638a2d659786346040518363ffffffff167c010000000000000000000000000000000000000000000000000000000002815260040180836000191660001916815260200182815260200192505050600060405180830381600087803b1580156114ff57600080fd5b505af1158015611513573d6000803e3d6000fd5b5050505084600019167fab48f5995a7b376b9650077476d511b1f1ed03b0c7e403e7cee95a2769060d6833604051808273ffffffffffffffffffffffffffffffffffffffff1673ffffffffffffffffffffffffffffffffffffffff16815260200191505060405180910390a25050505050565b60015481565b603360009054906101000a900460ff1660ff166115a76142e6565b73ffffffffffffffffffffffffffffffffffffffff1663c31d02b2336040518263ffffffff167c0100000000000000000000000000000000000000000000000000000000028152600401808273ffffffffffffffffffffffffffffffffffffffff1673ffffffffffffffffffffffffffffffffffffffff168152602001915050602060405180830381600087803b15801561164157600080fd5b505af1158015611655573d6000803e3d6000fd5b505050506040513d602081101561166b57600080fd5b810190808051906020019092919050505014151561168857600080fd5b611690612cfd565b60018111156117595760006116a36142f8565b73ffffffffffffffffffffffffffffffffffffffff1663a78e00d6836040518263ffffffff167c010000000000000000000000000000000000000000000000000000000002815260040180828152602001915050602060405180830381600087803b15801561171157600080fd5b505af1158015611725573d6000803e3d6000fd5b505050506040513d602081101561173b57600080fd5b810190808051906020019092919050505011151561175857600080fd5b5b611761612ab7565b151561176c57600080fd5b6000151561177861430a565b73ffffffffffffffffffffffffffffffffffffffff16638bc865fd6040518163ffffffff167c0100000000000000000000000000000000000000000000000000000000028152600401602060405180830381600087803b1580156117db57600080fd5b505af11580156117ef573d6000803e3d6000fd5b505050506040513d602081101561180557600080fd5b8101908080519060200190929190505050151514151561182457600080fd5b8373ffffffffffffffffffffffffffffffffffffffff1661184361430a565b73ffffffffffffffffffffffffffffffffffffffff16633c952b166040518163ffffffff167c0100000000000000000000000000000000000000000000000000000000028152600401602060405180830381600087803b1580156118a657600080fd5b505af11580156118ba573d6000803e3d6000fd5b505050506040513d60208110156118d057600080fd5b810190808051906020019092919050505073ffffffffffffffffffffffffffffffffffffffff161480156119d457508273ffffffffffffffffffffffffffffffffffffffff1661191e61430a565b73ffffffffffffffffffffffffffffffffffffffff16639c767e376040518163ffffffff167c0100000000000000000000000000000000000000000000000000000000028152600401602060405180830381600087803b15801561198157600080fd5b505af1158015611995573d6000803e3d6000fd5b505050506040513d60208110156119ab57600080fd5b810190808051906020019092919050505073ffffffffffffffffffffffffffffffffffffffff16145b8015611ab057508173ffffffffffffffffffffffffffffffffffffffff166119fa61430a565b73ffffffffffffffffffffffffffffffffffffffff16638c0c28266040518163ffffffff167c0100000000000000000000000000000000000000000000000000000000028152600401602060405180830381600087803b158015611a5d57600080fd5b505af1158015611a71573d6000803e3d6000fd5b505050506040513d6020811015611a8757600080fd5b810190808051906020019092919050505073ffffffffffffffffffffffffffffffffffffffff16145b1515611abb57600080fd5b611ac361430a565b73ffffffffffffffffffffffffffffffffffffffff1663efa6b9df6040518163ffffffff167c0100000000000000000000000000000000000000000000000000000000028152600401600060405180830381600087803b158015611b2657600080fd5b505af1158015611b3a573d6000803e3d6000fd5b50505050611b466141e9565b73ffffffffffffffffffffffffffffffffffffffff1663c72deb9a846040518263ffffffff167c0100000000000000000000000000000000000000000000000000000000028152600401808273ffffffffffffffffffffffffffffffffffffffff1673ffffffffffffffffffffffffffffffffffffffff168152602001915050600060405180830381600087803b158015611be057600080fd5b505af1158015611bf4573d6000803e3d6000fd5b50505050611c0061431c565b73ffffffffffffffffffffffffffffffffffffffff16633f5a7583836040518263ffffffff167c0100000000000000000000000000000000000000000000000000000000028152600401808273ffffffffffffffffffffffffffffffffffffffff1673ffffffffffffffffffffffffffffffffffffffff168152602001915050600060405180830381600087803b158015611c9a57600080fd5b505af1158015611cae573d6000803e3d6000fd5b505050507fbdee2a20da24f5e808d52dbcfea2fc775e1b24ad4f67f7fb38c573c3e0cc125a848484604051808473ffffffffffffffffffffffffffffffffffffffff1673ffffffffffffffffffffffffffffffffffffffff1681526020018373ffffffffffffffffffffffffffffffffffffffff1673ffffffffffffffffffffffffffffffffffffffff1681526020018273ffffffffffffffffffffffffffffffffffffffff1673ffffffffffffffffffffffffffffffffffffffff168152602001935050505060405180910390a150505050565b60008060009054906101000a900473ffffffffffffffffffffffffffffffffffffffff1673ffffffffffffffffffffffffffffffffffffffff16633f83acff836040518263ffffffff167c0100000000000000000000000000000000000000000000000000000000028152600401808260001916600019168152602001915050602060405180830381600087803b158015611e1d57600080fd5b505af1158015611e31573d6000803e3d6000fd5b505050506040513d6020811015611e4757600080fd5b81019080805190602001909291905050509050919050565b6000611e69613fe8565b611e72826140f9565b1515611e7d57600080fd5b611e868261432e565b1515611e9157600080fd5b611e9a82614493565b611ec1611ea860695461320c565b611eb360675461320c565b613fcc90919063ffffffff16565b611eca426144aa565b111515611ed657600080fd5b611ede613fba565b73ffffffffffffffffffffffffffffffffffffffff1663d8d50179836040518263ffffffff167c010000000000000000000000000000000000000000000000000000000002815260040180826000191660001916815260200191505061014060405180830381600087803b158015611f5557600080fd5b505af1158015611f69573d6000803e3d6000fd5b505050506040513d610140811015611f8057600080fd5b8101908080519060200190929190805190602001909291908051906020019092919080519060200190929190805190602001909291908051906020019092919080519060200190929190805190602001909291908051906020019092919080519060200190929190505050909192939495969798509091929394959697509091929394955090919293945090919293509091925090915090505080915050600460009054906101000a900473ffffffffffffffffffffffffffffffffffffffff1673ffffffffffffffffffffffffffffffffffffffff168173ffffffffffffffffffffffffffffffffffffffff161415151561207b57600080fd5b612083613fba565b73ffffffffffffffffffffffffffffffffffffffff166347d0da14836040518263ffffffff167c0100000000000000000000000000000000000000000000000000000000028152600401808260001916600019168152602001915050600060405180830381600087803b1580156120f957600080fd5b505af115801561210d573d6000803e3d6000fd5b50505050612119613fba565b73ffffffffffffffffffffffffffffffffffffffff1663e3f3f7a283426040518363ffffffff167c010000000000000000000000000000000000000000000000000000000002815260040180836000191660001916815260200182815260200192505050600060405180830381600087803b15801561219757600080fd5b505af11580156121ab573d6000803e3d6000fd5b5050505081600019167f7987ab68d3e4d0dbf07a8b7eb54fa0557da00515d48a4cefbb95dd10ba8b07b460405160405180910390a25050565b606060006121f0613fe8565b6121f9846140f9565b151561220457600080fd5b61220c613fba565b73ffffffffffffffffffffffffffffffffffffffff16637246d5a7856040518263ffffffff167c0100000000000000000000000000000000000000000000000000000000028152600401808260001916600019168152602001915050600060405180830381600087803b15801561228257600080fd5b505af1158015612296573d6000803e3d6000fd5b505050506040513d6000823e3d601f19601f8201168201806040525060408110156122c057600080fd5b8101908080516401000000008111156122d857600080fd5b828101905060208101848111156122ee57600080fd5b815185602082028301116401000000008211171561230b57600080fd5b505092919060200180519060200190929190505050508092505081518310151561233457600080fd5b61233e84846144d8565b9050804211151561234e57600080fd5b6000612358613fba565b73ffffffffffffffffffffffffffffffffffffffff1663baf4266086612388600188613fcc90919063ffffffff16565b6040518363ffffffff167c010000000000000000000000000000000000000000000000000000000002815260040180836000191660001916815260200182815260200192505050602060405180830381600087803b1580156123e957600080fd5b505af11580156123fd573d6000803e3d6000fd5b505050506040513d602081101561241357600080fd5b810190808051906020019092919050505014151561243057600080fd5b612438613fba565b73ffffffffffffffffffffffffffffffffffffffff1663344e436e85612468600187613fcc90919063ffffffff16565b61248561247f600189613fcc90919063ffffffff16565b42614601565b6040518463ffffffff167c01000000000000000000000000000000000000000000000000000000000281526004018084600019166000191681526020018381526020018281526020019350505050600060405180830381600087803b1580156124ed57600080fd5b505af1158015612501573d6000803e3d6000fd5b505050508284600019167f7f575746acfeec290223241184f2c5353c4a43f01daf9b4d5c4dd028c5b3c49f60405160405180910390a350505050565b6000612548426146fc565b905090565b612555613ec2565b151561256057600080fd5b600061256a61430a565b73ffffffffffffffffffffffffffffffffffffffff1663d9c6bb206040518163ffffffff167c0100000000000000000000000000000000000000000000000000000000028152600401602060405180830381600087803b1580156125cd57600080fd5b505af11580156125e1573d6000803e3d6000fd5b505050506040513d60208110156125f757600080fd5b810190808051906020019092919050505014151561261457600080fd5b428111151561262257600080fd5b61262a61430a565b73ffffffffffffffffffffffffffffffffffffffff16635b30f1cc826040518263ffffffff167c010000000000000000000000000000000000000000000000000000000002815260040180828152602001915050600060405180830381600087803b15801561269857600080fd5b505af11580156126ac573d6000803e3d6000fd5b5050505050565b60006126bd6138a8565b80156126da57506126cf60385461320c565b6126d761253d565b10155b905090565b60606000806126ec613fe8565b6126f5886140f9565b151561270057600080fd5b61273987878080602002602001604051908101604052809392919081815260200183836020028082843782019150505050505086614286565b612741613fba565b73ffffffffffffffffffffffffffffffffffffffff16637246d5a7896040518263ffffffff167c0100000000000000000000000000000000000000000000000000000000028152600401808260001916600019168152602001915050600060405180830381600087803b1580156127b757600080fd5b505af11580156127cb573d6000803e3d6000fd5b505050506040513d6000823e3d601f19601f8201168201806040525060408110156127f557600080fd5b81019080805164010000000081111561280d57600080fd5b8281019050602081018481111561282357600080fd5b815185602082028301116401000000008211171561284057600080fd5b505092919060200180519060200190929190505050508093505082518410151561286957600080fd5b61287388856144d8565b9150814211151561288357600080fd5b600061288d613fba565b73ffffffffffffffffffffffffffffffffffffffff1663baf426608a6128bd600189613fcc90919063ffffffff16565b6040518363ffffffff167c010000000000000000000000000000000000000000000000000000000002815260040180836000191660001916815260200182815260200192505050602060405180830381600087803b15801561291e57600080fd5b505af1158015612932573d6000803e3d6000fd5b505050506040513d602081101561294857600080fd5b810190808051906020019092919050505014151561296557600080fd5b600090505b83811115156129b957828181518110151561298157fe5b90602001906020020151878783818110151561299957fe5b905060200201351415156129ac57600080fd5b808060010191505061296a565b6129c1613fba565b73ffffffffffffffffffffffffffffffffffffffff1663c3093bb1898989896040518563ffffffff167c0100000000000000000000000000000000000000000000000000000000028152600401808560001916600019168152602001806020018381526020018281038252858582818152602001925060200280828437820191505095505050505050600060405180830381600087803b158015612a6457600080fd5b505af1158015612a78573d6000803e3d6000fd5b5050505087600019167fc9e43761e55a78291d13bde4c14de36c2c6c64de90ce8554eff0e68b55c6376760405160405180910390a25050505050505050565b6000612ac460385461320c565b612acc61253d565b10905090565b603360029054906101000a900460ff1660ff16612aed6142e6565b73ffffffffffffffffffffffffffffffffffffffff1663c31d02b2336040518263ffffffff167c0100000000000000000000000000000000000000000000000000000000028152600401808273ffffffffffffffffffffffffffffffffffffffff1673ffffffffffffffffffffffffffffffffffffffff168152602001915050602060405180830381600087803b158015612b8757600080fd5b505af1158015612b9b573d6000803e3d6000fd5b505050506040513d6020811015612bb157600080fd5b8101908080519060200190929190505050141515612bce57600080fd5b600b54821480612bdf5750600c5482145b80612beb5750600d5482145b1515612bf657600080fd5b612bfe613fba565b73ffffffffffffffffffffffffffffffffffffffff1663c004b7de848484426040518563ffffffff167c01000000000000000000000000000000000000000000000000000000000281526004018085600019166000191681526020018481526020018360001916600019168152602001828152602001945050505050600060405180830381600087803b158015612c9457600080fd5b505af1158015612ca8573d6000803e3d6000fd5b5050505082600019167f75c2f2b4fd3652214a4a5faf855222828fa36d654b3de647815c8be81675b81483836040518083815260200182600019166000191681526020019250505060405180910390a2505050565b6000612d08426147e5565b905090565b806005546000612d1b613fba565b73ffffffffffffffffffffffffffffffffffffffff1663d8d50179846040518263ffffffff167c010000000000000000000000000000000000000000000000000000000002815260040180826000191660001916815260200191505061014060405180830381600087803b158015612d9257600080fd5b505af1158015612da6573d6000803e3d6000fd5b505050506040513d610140811015612dbd57600080fd5b81019080805190602001909291908051906020019092919080519060200190929190805190602001909291908051906020019092919080519060200190929190805190602001909291908051906020019092919080519060200190929190805190602001909291905050509091929394959697985090919293949596975090919293949596509091929394509091929350909192509091509050508091505081600019168160001916141515612e7257600080fd5b612e7a6126b3565b1515612e8557600080fd5b612e8e33613bef565b1515612e9957600080fd5b612ea1613fba565b73ffffffffffffffffffffffffffffffffffffffff1663ac443d9f85336040518363ffffffff167c01000000000000000000000000000000000000000000000000000000000281526004018083600019166000191681526020018273ffffffffffffffffffffffffffffffffffffffff1673ffffffffffffffffffffffffffffffffffffffff16815260200192505050600060405180830381600087803b158015612f4b57600080fd5b505af1158015612f5f573d6000803e3d6000fd5b5050505050505050565b6000612f73612cfd565b612f7b6142f8565b73ffffffffffffffffffffffffffffffffffffffff1663cefc2bff846040518263ffffffff167c0100000000000000000000000000000000000000000000000000000000028152600401808273ffffffffffffffffffffffffffffffffffffffff1673ffffffffffffffffffffffffffffffffffffffff168152602001915050602060405180830381600087803b15801561301557600080fd5b505af1158015613029573d6000803e3d6000fd5b505050506040513d602081101561303f57600080fd5b8101908080519060200190929190505050148015613143575061306360355461320c565b61306b6148e8565b73ffffffffffffffffffffffffffffffffffffffff1663cd094a27846040518263ffffffff167c0100000000000000000000000000000000000000000000000000000000028152600401808273ffffffffffffffffffffffffffffffffffffffff1673ffffffffffffffffffffffffffffffffffffffff168152602001915050602060405180830381600087803b15801561310557600080fd5b505af1158015613119573d6000803e3d6000fd5b505050506040513d602081101561312f57600080fd5b810190808051906020019092919050505010155b9050919050565b60006131546141fb565b73ffffffffffffffffffffffffffffffffffffffff1663c0a8405d836040518263ffffffff167c0100000000000000000000000000000000000000000000000000000000028152600401808260001916600019168152602001915050602060405180830381600087803b1580156131ca57600080fd5b505af11580156131de573d6000803e3d6000fd5b505050506040513d60208110156131f457600080fd5b81019080805190602001909291905050509050919050565b60006132166141fb565b73ffffffffffffffffffffffffffffffffffffffff1663734c1168836040518263ffffffff167c0100000000000000000000000000000000000000000000000000000000028152600401808260001916600019168152602001915050602060405180830381600087803b15801561328c57600080fd5b505af11580156132a0573d6000803e3d6000fd5b505050506040513d60208110156132b657600080fd5b81019080805190602001909291905050509050919050565b603360009054906101000a900460ff1660ff166132e96142e6565b73ffffffffffffffffffffffffffffffffffffffff1663c31d02b2336040518263ffffffff167c0100000000000000000000000000000000000000000000000000000000028152600401808273ffffffffffffffffffffffffffffffffffffffff1673ffffffffffffffffffffffffffffffffffffffff168152602001915050602060405180830381600087803b15801561338357600080fd5b505af1158015613397573d6000803e3d6000fd5b505050506040513d60208110156133ad57600080fd5b81019080805190602001909291905050501415156133ca57600080fd5b600015156133d661430a565b73ffffffffffffffffffffffffffffffffffffffff16638bc865fd6040518163ffffffff167c0100000000000000000000000000000000000000000000000000000000028152600401602060405180830381600087803b15801561343957600080fd5b505af115801561344d573d6000803e3d6000fd5b505050506040513d602081101561346357600080fd5b8101908080519060200190929190505050151514151561348257600080fd5b61348a61430a565b73ffffffffffffffffffffffffffffffffffffffff1663ef7ad2dc8484846040518463ffffffff167c0100000000000000000000000000000000000000000000000000000000028152600401808473ffffffffffffffffffffffffffffffffffffffff1673ffffffffffffffffffffffffffffffffffffffff1681526020018373ffffffffffffffffffffffffffffffffffffffff1673ffffffffffffffffffffffffffffffffffffffff1681526020018273ffffffffffffffffffffffffffffffffffffffff1673ffffffffffffffffffffffffffffffffffffffff1681526020019350505050600060405180830381600087803b15801561358c57600080fd5b505af11580156135a0573d6000803e3d6000fd5b50505050505050565b60006135b3613fe8565b6135bc866140f9565b15156135c757600080fd5b6135d08661432e565b15156135db57600080fd5b6135e3613fba565b73ffffffffffffffffffffffffffffffffffffffff1663d8d50179876040518263ffffffff167c010000000000000000000000000000000000000000000000000000000002815260040180826000191660001916815260200191505061014060405180830381600087803b15801561365a57600080fd5b505af115801561366e573d6000803e3d6000fd5b505050506040513d61014081101561368557600080fd5b81019080805190602001909291908051906020019092919080519060200190929190805190602001909291908051906020019092919080519060200190929190805190602001909291908051906020019092919080519060200190929190805190602001909291905050509091929394959697985090919293949596975090919293949596509091929394509091929350909192509091509050508091505060055460001916816000191614806137455750600654600019168160001916145b151561375057600080fd5b61378984848080602002602001604051908101604052809392919081815260200183836020028082843782019150505050505083614286565b613791613fba565b73ffffffffffffffffffffffffffffffffffffffff1663ffec1b2187878787876040518663ffffffff167c0100000000000000000000000000000000000000000000000000000000028152600401808660001916600019168152602001856000191660001916815260200180602001838152602001828103825285858281815260200192506020028082843782019150509650505050505050600060405180830381600087803b15801561384457600080fd5b505af1158015613858573d6000803e3d6000fd5b5050505085600019167f8ed872b51729877383ff1e72393d0cf6d112bf28d9f745cd894b8fc4ad28e2048660405180826000191660001916815260200191505060405180910390a2505050505050565b60006138b261430a565b73ffffffffffffffffffffffffffffffffffffffff16638bc865fd6040518163ffffffff167c0100000000000000000000000000000000000000000000000000000000028152600401602060405180830381600087803b15801561391557600080fd5b505af1158015613929573d6000803e3d6000fd5b505050506040513d602081101561393f57600080fd5b810190808051906020019092919050505015905090565b600260009054906101000a900473ffffffffffffffffffffffffffffffffffffffff1681565b6000613986613fe8565b61398f836140f9565b151561399a57600080fd5b6139a2613fba565b73ffffffffffffffffffffffffffffffffffffffff1663d8d50179846040518263ffffffff167c010000000000000000000000000000000000000000000000000000000002815260040180826000191660001916815260200191505061014060405180830381600087803b158015613a1957600080fd5b505af1158015613a2d573d6000803e3d6000fd5b505050506040513d610140811015613a4457600080fd5b8101908080519060200190929190805190602001909291908051906020019092919080519060200190929190805190602001909291908051906020019092919080519060200190929190805190602001909291908051906020019092919080519060200190929190505050909192939495969798509091929394959697509091929394959650909192939495509091929394509091929350909192509050508091505060035460001916816000191614151515613b0057600080fd5b613b08613fba565b73ffffffffffffffffffffffffffffffffffffffff1663eef7b8f584846040518363ffffffff167c0100000000000000000000000000000000000000000000000000000000028152600401808360001916600019168152602001826000191660001916815260200192505050600060405180830381600087803b158015613b8e57600080fd5b505af1158015613ba2573d6000803e3d6000fd5b5050505082600019167f7e60a4e6d1d436a90d163c435b88121fc839d6e0b5004ff3e213003c0bc30cec8360405180826000191660001916815260200191505060405180910390a2505050565b6000613bf9612cfd565b613c016142f8565b73ffffffffffffffffffffffffffffffffffffffff1663cefc2bff846040518263ffffffff167c0100000000000000000000000000000000000000000000000000000000028152600401808273ffffffffffffffffffffffffffffffffffffffff1673ffffffffffffffffffffffffffffffffffffffff168152602001915050602060405180830381600087803b158015613c9b57600080fd5b505af1158015613caf573d6000803e3d6000fd5b505050506040513d6020811015613cc557600080fd5b8101908080519060200190929190505050148015613dc95750613ce960365461320c565b613cf16148e8565b73ffffffffffffffffffffffffffffffffffffffff1663cd094a27846040518263ffffffff167c0100000000000000000000000000000000000000000000000000000000028152600401808273ffffffffffffffffffffffffffffffffffffffff1673ffffffffffffffffffffffffffffffffffffffff168152602001915050602060405180830381600087803b158015613d8b57600080fd5b505af1158015613d9f573d6000803e3d6000fd5b505050506040513d6020811015613db557600080fd5b810190808051906020019092919050505010155b8015613ebb5750613ddb60375461320c565b613de36148fa565b73ffffffffffffffffffffffffffffffffffffffff16639c89a0e2846040518263ffffffff167c0100000000000000000000000000000000000000000000000000000000028152600401808273ffffffffffffffffffffffffffffffffffffffff1673ffffffffffffffffffffffffffffffffffffffff168152602001915050602060405180830381600087803b158015613e7d57600080fd5b505af1158015613e91573d6000803e3d6000fd5b505050506040513d6020811015613ea757600080fd5b810190808051906020019092919050505010155b9050919050565b6000603360019054906101000a900460ff1660ff16613edf6142e6565b73ffffffffffffffffffffffffffffffffffffffff1663c31d02b2336040518263ffffffff167c0100000000000000000000000000000000000000000000000000000000028152600401808273ffffffffffffffffffffffffffffffffffffffff1673ffffffffffffffffffffffffffffffffffffffff168152602001915050602060405180830381600087803b158015613f7957600080fd5b505af1158015613f8d573d6000803e3d6000fd5b505050506040513d6020811015613fa357600080fd5b810190808051906020019092919050505014905090565b6000613fc7602554611d83565b905090565b60008183019050828110151515613fdf57fe5b80905092915050565b613ff06126b3565b1515613ffb57600080fd5b61400433612f69565b151561400f57600080fd5b6140176142e6565b73ffffffffffffffffffffffffffffffffffffffff16634a9aedc4336040518263ffffffff167c0100000000000000000000000000000000000000000000000000000000028152600401808273ffffffffffffffffffffffffffffffffffffffff1673ffffffffffffffffffffffffffffffffffffffff168152602001915050602060405180830381600087803b1580156140b157600080fd5b505af11580156140c5573d6000803e3d6000fd5b505050506040513d60208110156140db57600080fd5b810190808051906020019092919050505015156140f757600080fd5b565b6000614103613fba565b73ffffffffffffffffffffffffffffffffffffffff16635b712eb6836040518263ffffffff167c0100000000000000000000000000000000000000000000000000000000028152600401808260001916600019168152602001915050602060405180830381600087803b15801561417957600080fd5b505af115801561418d573d6000803e3d6000fd5b505050506040513d60208110156141a357600080fd5b810190808051906020019092919050505073ffffffffffffffffffffffffffffffffffffffff163373ffffffffffffffffffffffffffffffffffffffff16149050919050565b60006141f6601e54611d83565b905090565b6000614208602b54611d83565b905090565b600061421a601e54611d83565b73ffffffffffffffffffffffffffffffffffffffff1631905090565b600080600090505b825181101561428057614271838281518110151561425857fe5b9060200190602002015183613fcc90919063ffffffff16565b9150808060010191505061423e565b50919050565b61428e613ec2565b15156142e25761429f606c5461320c565b8251111515156142ae57600080fd5b6142b9606b5461320c565b6142d4826142c685614236565b613fcc90919063ffffffff16565b111515156142e157600080fd5b5b5050565b60006142f3602854611d83565b905090565b6000614305602d54611d83565b905090565b6000614317602754611d83565b905090565b6000614329601b54611d83565b905090565b600080614339613fba565b73ffffffffffffffffffffffffffffffffffffffff1663d8d50179846040518263ffffffff167c010000000000000000000000000000000000000000000000000000000002815260040180826000191660001916815260200191505061014060405180830381600087803b1580156143b057600080fd5b505af11580156143c4573d6000803e3d6000fd5b505050506040513d6101408110156143db57600080fd5b8101908080519060200190929190805190602001909291908051906020019092919080519060200190929190805190602001909291908051906020019092919080519060200190929190805190602001909291908051906020019092919080519060200190929190505050909192939495969798509091929394959697509091929394959650909192939495509091929394509091929350909192509050508091505060035460001916816000191614915050919050565b61449c8161490c565b15156144a757600080fd5b50565b60006144d16144b8836146fc565b6144c360395461320c565b614b3690919063ffffffff16565b9050919050565b6000806144e3613fba565b73ffffffffffffffffffffffffffffffffffffffff1663baf4266085856040518363ffffffff167c010000000000000000000000000000000000000000000000000000000002815260040180836000191660001916815260200182815260200192505050602060405180830381600087803b15801561456157600080fd5b505af1158015614575573d6000803e3d6000fd5b505050506040513d602081101561458b57600080fd5b810190808051906020019092919050505090506000811115156145ad57600080fd5b60008314156145da576145d36145c4603b5461320c565b82613fcc90919063ffffffff16565b91506145fa565b6145f76145e8603d5461320c565b82613fcc90919063ffffffff16565b91505b5092915050565b600080600061460f846144aa565b915061462d6000861461462457603d54614628565b603b545b61320c565b905083925061463d60385461320c565b614646856146fc565b101561468a5761468361467461465b866146fc565b61466660385461320c565b614b3690919063ffffffff16565b85613fcc90919063ffffffff16565b92506146f4565b6146a761469860695461320c565b82613fcc90919063ffffffff16565b8210156146f3576146f06146e160016146d36146c460385461320c565b86613fcc90919063ffffffff16565b613fcc90919063ffffffff16565b85613fcc90919063ffffffff16565b92505b5b505092915050565b6000614706614b4f565b151561471157600080fd5b61471c60395461320c565b6147d461472761430a565b73ffffffffffffffffffffffffffffffffffffffff1663d9c6bb206040518163ffffffff167c0100000000000000000000000000000000000000000000000000000000028152600401602060405180830381600087803b15801561478a57600080fd5b505af115801561479e573d6000803e3d6000fd5b505050506040513d60208110156147b457600080fd5b810190808051906020019092919050505084614b3690919063ffffffff16565b8115156147dd57fe5b069050919050565b60006147ef614b4f565b15156147fa57600080fd5b6148e160016148d361480d60395461320c565b6148c561481861430a565b73ffffffffffffffffffffffffffffffffffffffff1663d9c6bb206040518163ffffffff167c0100000000000000000000000000000000000000000000000000000000028152600401602060405180830381600087803b15801561487b57600080fd5b505af115801561488f573d6000803e3d6000fd5b505050506040513d60208110156148a557600080fd5b810190808051906020019092919050505087614b3690919063ffffffff16565b614bff90919063ffffffff16565b613fcc90919063ffffffff16565b9050919050565b60006148f5602c54611d83565b905090565b6000614907602954611d83565b905090565b600080614917613fba565b73ffffffffffffffffffffffffffffffffffffffff1663d8d50179846040518263ffffffff167c010000000000000000000000000000000000000000000000000000000002815260040180826000191660001916815260200191505061014060405180830381600087803b15801561498e57600080fd5b505af11580156149a2573d6000803e3d6000fd5b505050506040513d6101408110156149b957600080fd5b81019080805190602001909291908051906020019092919080519060200190929190805190602001909291908051906020019092919080519060200190929190805190602001909291908051906020019092919080519060200190929190805190602001909291905050509091929394959697985090919293949596975090919293949596509091929394955090919293945090919293509091925090915090508091505060019150801515614b3057614a74606d5461320c565b614a7c614c15565b73ffffffffffffffffffffffffffffffffffffffff1663198c6e24614a9f612cfd565b6040518263ffffffff167c010000000000000000000000000000000000000000000000000000000002815260040180828152602001915050602060405180830381600087803b158015614af157600080fd5b505af1158015614b05573d6000803e3d6000fd5b505050506040513d6020811015614b1b57600080fd5b81019080805190602001909291905050501091505b50919050565b6000828211151515614b4457fe5b818303905092915050565b600080614b5a61430a565b73ffffffffffffffffffffffffffffffffffffffff1663d9c6bb206040518163ffffffff167c0100000000000000000000000000000000000000000000000000000000028152600401602060405180830381600087803b158015614bbd57600080fd5b505af1158015614bd1573d6000803e3d6000fd5b505050506040513d6020811015614be757600080fd5b81019080805190602001909291905050501415905090565b60008183811515614c0c57fe5b04905092915050565b6000614c22602654611d83565b9050905600a165627a7a72305820dd0c57f140058b89f28e8c2b8a475ca4c80623f62711ab50a0c546a8dc2750a10029",
  "source": "pragma solidity ^0.4.25;\n\nimport \"../common/DaoCommon.sol\";\nimport \"./DaoFundingManager.sol\";\nimport \"./DaoRewardsManager.sol\";\nimport \"./DaoVotingClaims.sol\";\n\n/**\n@title Interactive DAO contract for creating/modifying/endorsing proposals\n@author Digix Holdings\n*/\ncontract Dao is DaoCommon {\n\n    event NewProposal(bytes32 indexed _proposalId, address _proposer);\n    event ModifyProposal(bytes32 indexed _proposalId, bytes32 _newDoc);\n    event ChangeProposalFunding(bytes32 indexed _proposalId);\n    event FinalizeProposal(bytes32 indexed _proposalId);\n    event FinishMilestone(bytes32 indexed _proposalId, uint256 indexed _milestoneIndex);\n    event AddProposalDoc(bytes32 indexed _proposalId, bytes32 _newDoc);\n    event PRLAction(bytes32 indexed _proposalId, uint256 _actionId, bytes32 _doc);\n    event CloseProposal(bytes32 indexed _proposalId);\n    event MigrateToNewDao(address _newDaoContract, address _newDaoFundingManager, address _newDaoRewardsManager);\n\n    constructor(address _resolver) public {\n        require(init(CONTRACT_DAO, _resolver));\n    }\n\n    function daoFundingManager()\n        internal\n        view\n        returns (DaoFundingManager _contract)\n    {\n        _contract = DaoFundingManager(get_contract(CONTRACT_DAO_FUNDING_MANAGER));\n    }\n\n    function daoRewardsManager()\n        internal\n        view\n        returns (DaoRewardsManager _contract)\n    {\n        _contract = DaoRewardsManager(get_contract(CONTRACT_DAO_REWARDS_MANAGER));\n    }\n\n    function daoVotingClaims()\n        internal\n        view\n        returns (DaoVotingClaims _contract)\n    {\n        _contract = DaoVotingClaims(get_contract(CONTRACT_DAO_VOTING_CLAIMS));\n    }\n\n    /**\n    @notice Set addresses for the new Dao and DaoFundingManager contracts\n    @dev This is the first step of the 2-step migration\n    @param _newDaoContract Address of the new Dao contract\n    @param _newDaoFundingManager Address of the new DaoFundingManager contract\n    @param _newDaoRewardsManager Address of the new daoRewardsManager contract\n    */\n    function setNewDaoContracts(\n        address _newDaoContract,\n        address _newDaoFundingManager,\n        address _newDaoRewardsManager\n    )\n        public\n        if_root()\n    {\n        require(daoUpgradeStorage().isReplacedByNewDao() == false);\n        daoUpgradeStorage().setNewContractAddresses(\n            _newDaoContract,\n            _newDaoFundingManager,\n            _newDaoRewardsManager\n        );\n    }\n\n    /**\n    @notice Migrate this DAO to a new DAO contract\n    @dev This is the second step of the 2-step migration\n         Migration can only be done during the locking phase, after the global rewards for current quarter are set.\n         This is to make sure that there is no rewards calculation pending before the DAO is migrated to new contracts\n         The addresses of the new Dao contracts have to be provided again, and be double checked against the addresses that were set in setNewDaoContracts()\n    @param _newDaoContract Address of the new DAO contract\n    @param _newDaoFundingManager Address of the new DaoFundingManager contract, which would receive the remaining ETHs in this DaoFundingManager\n    @param _newDaoRewardsManager Address of the new daoRewardsManager contract, which would receive the claimableDGXs from this daoRewardsManager\n    */\n    function migrateToNewDao(\n        address _newDaoContract,\n        address _newDaoFundingManager,\n        address _newDaoRewardsManager\n    )\n        public\n        if_root()\n        ifGlobalRewardsSet(currentQuarterNumber())\n    {\n        require(isLockingPhase());\n        require(daoUpgradeStorage().isReplacedByNewDao() == false);\n        require(\n          (daoUpgradeStorage().newDaoContract() == _newDaoContract) &&\n          (daoUpgradeStorage().newDaoFundingManager() == _newDaoFundingManager) &&\n          (daoUpgradeStorage().newDaoRewardsManager() == _newDaoRewardsManager)\n        );\n        daoUpgradeStorage().updateForDaoMigration();\n        daoFundingManager().moveFundsToNewDao(_newDaoFundingManager);\n        daoRewardsManager().moveDGXsToNewDao(_newDaoRewardsManager);\n        emit MigrateToNewDao(_newDaoContract, _newDaoFundingManager, _newDaoRewardsManager);\n    }\n\n    /**\n    @notice Call this function to mark the start of the DAO's first quarter. This can only be done once, by a founder\n    @param _start Start time of the first quarter in the DAO\n    */\n    function setStartOfFirstQuarter(uint256 _start) public if_founder() {\n        require(daoUpgradeStorage().startOfFirstQuarter() == 0);\n        require(_start > now);\n        daoUpgradeStorage().setStartOfFirstQuarter(_start);\n    }\n\n    /**\n    @notice Submit a new preliminary idea / Pre-proposal\n    @dev The proposer has to send in a collateral == getUintConfig(CONFIG_PREPROPOSAL_COLLATERAL)\n         which he could claim back in these scenarios:\n          - Before the proposal is finalized, by calling closeProposal()\n          - After all milestones are done and the final voting round is passed\n\n    @param _docIpfsHash Hash of the IPFS doc containing details of proposal\n    @param _milestonesFundings Array of fundings of the proposal milestones (in wei)\n    @param _finalReward Final reward asked by proposer at successful completion of all milestones of proposal\n    */\n    function submitPreproposal(\n        bytes32 _docIpfsHash,\n        uint256[] _milestonesFundings,\n        uint256 _finalReward\n    )\n        external\n        payable\n    {\n        senderCanDoProposerOperations();\n        bool _isFounder = is_founder();\n\n        require(MathHelper.sumNumbers(_milestonesFundings).add(_finalReward) <= weiInDao());\n\n        require(msg.value == getUintConfig(CONFIG_PREPROPOSAL_COLLATERAL));\n        require(address(daoFundingManager()).call.gas(25000).value(msg.value)());\n\n        checkNonDigixFundings(_milestonesFundings, _finalReward);\n\n        daoStorage().addProposal(_docIpfsHash, msg.sender, _milestonesFundings, _finalReward, _isFounder);\n        daoStorage().setProposalCollateralStatus(_docIpfsHash, COLLATERAL_STATUS_UNLOCKED);\n        daoStorage().setProposalCollateralAmount(_docIpfsHash, msg.value);\n\n        emit NewProposal(_docIpfsHash, msg.sender);\n    }\n\n    /**\n    @notice Modify a proposal (this can be done only before setting the final version)\n    @param _proposalId Proposal ID (hash of IPFS doc of the first version of the proposal)\n    @param _docIpfsHash Hash of IPFS doc of the modified version of the proposal\n    @param _milestonesFundings Array of fundings of the modified version of the proposal (in wei)\n    @param _finalReward Final reward on successful completion of all milestones of the modified version of proposal (in wei)\n    */\n    function modifyProposal(\n        bytes32 _proposalId,\n        bytes32 _docIpfsHash,\n        uint256[] _milestonesFundings,\n        uint256 _finalReward\n    )\n        external\n    {\n        senderCanDoProposerOperations();\n        require(isFromProposer(_proposalId));\n\n        require(isEditable(_proposalId));\n        bytes32 _currentState;\n        (,,,_currentState,,,,,,) = daoStorage().readProposal(_proposalId);\n        require(_currentState == PROPOSAL_STATE_PREPROPOSAL ||\n          _currentState == PROPOSAL_STATE_DRAFT);\n\n        checkNonDigixFundings(_milestonesFundings, _finalReward);\n\n        daoStorage().editProposal(_proposalId, _docIpfsHash, _milestonesFundings, _finalReward);\n\n        emit ModifyProposal(_proposalId, _docIpfsHash);\n    }\n\n    /**\n    @notice Function to change the funding structure for a proposal\n    @dev Proposers can only change fundings for the subsequent milestones,\n    during the duration of an on-going milestone (so, cannot be before proposal finalization or during any voting phase)\n    @param _proposalId ID of the proposal\n    @param _milestonesFundings Array of fundings for milestones\n    @param _finalReward Final reward needed for completion of proposal\n    @param _currentMilestone the milestone number the proposal is currently in\n    */\n    function changeFundings(\n        bytes32 _proposalId,\n        uint256[] _milestonesFundings,\n        uint256 _finalReward,\n        uint256 _currentMilestone\n    )\n        external\n    {\n        senderCanDoProposerOperations();\n        require(isFromProposer(_proposalId));\n\n        checkNonDigixFundings(_milestonesFundings, _finalReward);\n\n        uint256[] memory _currentFundings;\n        (_currentFundings,) = daoStorage().readProposalFunding(_proposalId);\n\n        // If there are N milestones, the milestone index must be < N. Otherwise, putting a milestone index of N will actually return a valid timestamp that is\n        // right after the final voting round (voting round index N is the final voting round)\n        // Which could be abused ( to add more milestones even after the final voting round)\n        require(_currentMilestone < _currentFundings.length);\n\n        uint256 _startOfCurrentMilestone = startOfMilestone(_proposalId, _currentMilestone);\n\n        // must be after the start of the milestone, and the milestone has not been finished yet (next voting hasnt started)\n        require(now > _startOfCurrentMilestone);\n        require(daoStorage().readProposalVotingTime(_proposalId, _currentMilestone.add(1)) == 0);\n\n        // can only modify the fundings after _currentMilestone\n        // so, all the fundings from 0 to _currentMilestone must be the same\n        for (uint256 i=0;i<=_currentMilestone;i++) {\n            require(_milestonesFundings[i] == _currentFundings[i]);\n        }\n\n        daoStorage().changeFundings(_proposalId, _milestonesFundings, _finalReward);\n\n        emit ChangeProposalFunding(_proposalId);\n    }\n\n    /**\n    @notice Finalize a proposal\n    @dev After finalizing a proposal, no more proposal version can be added. Proposer will only be able to change fundings and add more docs\n         Right after finalizing a proposal, the draft voting round starts. The proposer would also not be able to closeProposal() anymore\n         (hence, cannot claim back the collateral anymore, until the final voting round passes)\n    @param _proposalId ID of the proposal\n    */\n    function finalizeProposal(bytes32 _proposalId)\n        public\n    {\n        senderCanDoProposerOperations();\n        require(isFromProposer(_proposalId));\n        require(isEditable(_proposalId));\n        checkNonDigixProposalLimit(_proposalId);\n\n        // make sure we have reasonably enough time left in the quarter to conduct the Draft Voting.\n        // Otherwise, the proposer must wait until the next quarter to finalize the proposal\n        require(getTimeLeftInQuarter(now) > getUintConfig(CONFIG_DRAFT_VOTING_PHASE).add(getUintConfig(CONFIG_VOTE_CLAIMING_DEADLINE)));\n        address _endorser;\n        (,,_endorser,,,,,,,) = daoStorage().readProposal(_proposalId);\n        require(_endorser != EMPTY_ADDRESS);\n        daoStorage().finalizeProposal(_proposalId);\n        daoStorage().setProposalDraftVotingTime(_proposalId, now);\n\n        emit FinalizeProposal(_proposalId);\n    }\n\n    /**\n    @notice Function to set milestone to be completed\n    @dev This can only be called in the Main Phase of DigixDAO by the proposer. It sets the\n         voting time for the next milestone, which is immediately, for most of the times. If there is not enough time left in the current\n         quarter, then the next voting is postponed to the start of next quarter\n    @param _proposalId ID of the proposal\n    @param _milestoneIndex Index of the milestone. Index starts from 0 (for the first milestone)\n    */\n    function finishMilestone(bytes32 _proposalId, uint256 _milestoneIndex)\n        public\n    {\n        senderCanDoProposerOperations();\n        require(isFromProposer(_proposalId));\n\n        uint256[] memory _currentFundings;\n        (_currentFundings,) = daoStorage().readProposalFunding(_proposalId);\n\n        // If there are N milestones, the milestone index must be < N. Otherwise, putting a milestone index of N will actually return a valid timestamp that is\n        // right after the final voting round (voting round index N is the final voting round)\n        // Which could be abused ( to \"finish\" a milestone even after the final voting round)\n        require(_milestoneIndex < _currentFundings.length);\n\n        // must be after the start of this milestone, and the milestone has not been finished yet (voting hasnt started)\n        uint256 _startOfCurrentMilestone = startOfMilestone(_proposalId, _milestoneIndex);\n        require(now > _startOfCurrentMilestone);\n        require(daoStorage().readProposalVotingTime(_proposalId, _milestoneIndex.add(1)) == 0);\n\n        daoStorage().setProposalVotingTime(\n            _proposalId,\n            _milestoneIndex.add(1),\n            getTimelineForNextVote(_milestoneIndex.add(1), now)\n        ); // set the voting time of next voting\n\n        emit FinishMilestone(_proposalId, _milestoneIndex);\n    }\n\n    /**\n    @notice Add IPFS docs to a proposal\n    @dev This is allowed only after a proposal is finalized. Before finalizing\n         a proposal, proposer can modifyProposal and basically create a different ProposalVersion. After the proposal is finalized,\n         they can only allProposalDoc to the final version of that proposal\n    @param _proposalId ID of the proposal\n    @param _newDoc hash of the new IPFS doc\n    */\n    function addProposalDoc(bytes32 _proposalId, bytes32 _newDoc)\n        public\n    {\n        senderCanDoProposerOperations();\n        require(isFromProposer(_proposalId));\n        bytes32 _finalVersion;\n        (,,,,,,,_finalVersion,,) = daoStorage().readProposal(_proposalId);\n        require(_finalVersion != EMPTY_BYTES);\n        daoStorage().addProposalDoc(_proposalId, _newDoc);\n\n        emit AddProposalDoc(_proposalId, _newDoc);\n    }\n\n    /**\n    @notice Function to endorse a pre-proposal (can be called only by DAO Moderator)\n    @param _proposalId ID of the proposal (hash of IPFS doc of the first version of the proposal)\n    */\n    function endorseProposal(bytes32 _proposalId)\n        public\n        isProposalState(_proposalId, PROPOSAL_STATE_PREPROPOSAL)\n    {\n        require(isMainPhase());\n        require(isModerator(msg.sender));\n        daoStorage().updateProposalEndorse(_proposalId, msg.sender);\n    }\n\n    /**\n    @notice Function to update the PRL (regulatory status) status of a proposal\n    @dev if a proposal is paused or stopped, the proposer wont be able to withdraw the funding\n    @param _proposalId ID of the proposal\n    @param _doc hash of IPFS uploaded document, containing details of PRL Action\n    */\n    function updatePRL(\n        bytes32 _proposalId,\n        uint256 _action,\n        bytes32 _doc\n    )\n        public\n        if_prl()\n    {\n        require(_action == PRL_ACTION_STOP || _action == PRL_ACTION_PAUSE || _action == PRL_ACTION_UNPAUSE);\n        daoStorage().updateProposalPRL(_proposalId, _action, _doc, now);\n\n        emit PRLAction(_proposalId, _action, _doc);\n    }\n\n    /**\n    @notice Function to close proposal (also get back collateral)\n    @dev Can only be closed if the proposal has not been finalized yet\n    @param _proposalId ID of the proposal\n    */\n    function closeProposal(bytes32 _proposalId)\n        public\n    {\n        senderCanDoProposerOperations();\n        require(isFromProposer(_proposalId));\n        bytes32 _finalVersion;\n        bytes32 _status;\n        (,,,_status,,,,_finalVersion,,) = daoStorage().readProposal(_proposalId);\n        require(_finalVersion == EMPTY_BYTES);\n        require(_status != PROPOSAL_STATE_CLOSED);\n        require(daoStorage().readProposalCollateralStatus(_proposalId) == COLLATERAL_STATUS_UNLOCKED);\n\n        daoStorage().closeProposal(_proposalId);\n        daoStorage().setProposalCollateralStatus(_proposalId, COLLATERAL_STATUS_CLAIMED);\n        emit CloseProposal(_proposalId);\n        require(daoFundingManager().refundCollateral(msg.sender, _proposalId));\n    }\n\n    /**\n    @notice Function for founders to close all the dead proposals\n    @dev Dead proposals = all proposals who are not yet finalized, and been there for more than the threshold time\n         The proposers of dead proposals will not get the collateral back\n    @param _proposalIds Array of proposal IDs\n    */\n    function founderCloseProposals(bytes32[] _proposalIds)\n        external\n        if_founder()\n    {\n        uint256 _length = _proposalIds.length;\n        uint256 _timeCreated;\n        bytes32 _finalVersion;\n        bytes32 _currentState;\n        for (uint256 _i = 0; _i < _length; _i++) {\n            (,,,_currentState,_timeCreated,,,_finalVersion,,) = daoStorage().readProposal(_proposalIds[_i]);\n            require(_finalVersion == EMPTY_BYTES);\n            require(\n                (_currentState == PROPOSAL_STATE_PREPROPOSAL) ||\n                (_currentState == PROPOSAL_STATE_DRAFT)\n            );\n            require(now > _timeCreated.add(getUintConfig(CONFIG_PROPOSAL_DEAD_DURATION)));\n            emit CloseProposal(_proposalIds[_i]);\n            daoStorage().closeProposal(_proposalIds[_i]);\n        }\n    }\n}\n",
  "sourcePath": "/home/vu/digix/dao-contracts/contracts/interactive/Dao.sol",
  "compiler": {
    "name": "solc",
    "version": "0.4.25+commit.59dbf8f1.Emscripten.clang"
  },
  "schemaVersion": "2.0.2",
  "updatedAt": "2019-03-12T10:37:27.577Z"
}