{
  "contractName": "DaoCalculatorService",
  "abi": [
    {
      "constant": true,
      "inputs": [],
      "name": "resolver",
      "outputs": [
        {
          "name": "",
          "type": "address"
        }
      ],
      "payable": false,
      "stateMutability": "view",
      "type": "function"
    },
    {
      "constant": true,
      "inputs": [
        {
          "name": "_configKey",
          "type": "bytes32"
        }
      ],
      "name": "getAddressConfig",
      "outputs": [
        {
          "name": "_configValue",
          "type": "address"
        }
      ],
      "payable": false,
      "stateMutability": "view",
      "type": "function"
    },
    {
      "constant": true,
      "inputs": [],
      "name": "key",
      "outputs": [
        {
          "name": "",
          "type": "bytes32"
        }
      ],
      "payable": false,
      "stateMutability": "view",
      "type": "function"
    },
    {
      "constant": true,
      "inputs": [
        {
          "name": "_key",
          "type": "bytes32"
        }
      ],
      "name": "get_contract",
      "outputs": [
        {
          "name": "_contract",
          "type": "address"
        }
      ],
      "payable": false,
      "stateMutability": "view",
      "type": "function"
    },
    {
      "constant": true,
      "inputs": [],
      "name": "currentTimeInQuarter",
      "outputs": [
        {
          "name": "_currentT",
          "type": "uint256"
        }
      ],
      "payable": false,
      "stateMutability": "view",
      "type": "function"
    },
    {
      "constant": true,
      "inputs": [],
      "name": "isMainPhase",
      "outputs": [
        {
          "name": "_isMainPhase",
          "type": "bool"
        }
      ],
      "payable": false,
      "stateMutability": "view",
      "type": "function"
    },
    {
      "constant": true,
      "inputs": [],
      "name": "dgxDemurrageCalculatorAddress",
      "outputs": [
        {
          "name": "",
          "type": "address"
        }
      ],
      "payable": false,
      "stateMutability": "view",
      "type": "function"
    },
    {
      "constant": true,
      "inputs": [],
      "name": "isLockingPhase",
      "outputs": [
        {
          "name": "_isLockingPhase",
          "type": "bool"
        }
      ],
      "payable": false,
      "stateMutability": "view",
      "type": "function"
    },
    {
      "constant": true,
      "inputs": [],
      "name": "currentQuarterNumber",
      "outputs": [
        {
          "name": "_quarterNumber",
          "type": "uint256"
        }
      ],
      "payable": false,
      "stateMutability": "view",
      "type": "function"
    },
    {
      "constant": true,
      "inputs": [
        {
          "name": "_user",
          "type": "address"
        }
      ],
      "name": "isParticipant",
      "outputs": [
        {
          "name": "_is",
          "type": "bool"
        }
      ],
      "payable": false,
      "stateMutability": "view",
      "type": "function"
    },
    {
      "constant": true,
      "inputs": [
        {
          "name": "_configKey",
          "type": "bytes32"
        }
      ],
      "name": "getBytesConfig",
      "outputs": [
        {
          "name": "_configValue",
          "type": "bytes32"
        }
      ],
      "payable": false,
      "stateMutability": "view",
      "type": "function"
    },
    {
      "constant": true,
      "inputs": [
        {
          "name": "_configKey",
          "type": "bytes32"
        }
      ],
      "name": "getUintConfig",
      "outputs": [
        {
          "name": "_configValue",
          "type": "uint256"
        }
      ],
      "payable": false,
      "stateMutability": "view",
      "type": "function"
    },
    {
      "constant": true,
      "inputs": [],
      "name": "isDaoNotReplaced",
      "outputs": [
        {
          "name": "_isNotReplaced",
          "type": "bool"
        }
      ],
      "payable": false,
      "stateMutability": "view",
      "type": "function"
    },
    {
      "constant": true,
      "inputs": [],
      "name": "CONTRACT_ADDRESS",
      "outputs": [
        {
          "name": "",
          "type": "address"
        }
      ],
      "payable": false,
      "stateMutability": "view",
      "type": "function"
    },
    {
      "constant": true,
      "inputs": [
        {
          "name": "_user",
          "type": "address"
        }
      ],
      "name": "isModerator",
      "outputs": [
        {
          "name": "_is",
          "type": "bool"
        }
      ],
      "payable": false,
      "stateMutability": "view",
      "type": "function"
    },
    {
      "inputs": [
        {
          "name": "_resolver",
          "type": "address"
        },
        {
          "name": "_dgxDemurrageCalculatorAddress",
          "type": "address"
        }
      ],
      "payable": false,
      "stateMutability": "nonpayable",
      "type": "constructor"
    },
    {
      "constant": true,
      "inputs": [
        {
          "name": "_additionalDgd",
          "type": "uint256"
        }
      ],
      "name": "calculateAdditionalLockedDGDStake",
      "outputs": [
        {
          "name": "_additionalLockedDGDStake",
          "type": "uint256"
        }
      ],
      "payable": false,
      "stateMutability": "view",
      "type": "function"
    },
    {
      "constant": true,
      "inputs": [
        {
          "name": "_proposalId",
          "type": "bytes32"
        }
      ],
      "name": "minimumDraftQuorum",
      "outputs": [
        {
          "name": "_minQuorum",
          "type": "uint256"
        }
      ],
      "payable": false,
      "stateMutability": "view",
      "type": "function"
    },
    {
      "constant": true,
      "inputs": [
        {
          "name": "_for",
          "type": "uint256"
        },
        {
          "name": "_against",
          "type": "uint256"
        }
      ],
      "name": "draftQuotaPass",
      "outputs": [
        {
          "name": "_passed",
          "type": "bool"
        }
      ],
      "payable": false,
      "stateMutability": "view",
      "type": "function"
    },
    {
      "constant": true,
      "inputs": [
        {
          "name": "_proposalId",
          "type": "bytes32"
        },
        {
          "name": "_milestone_id",
          "type": "uint256"
        }
      ],
      "name": "minimumVotingQuorum",
      "outputs": [
        {
          "name": "_minQuorum",
          "type": "uint256"
        }
      ],
      "payable": false,
      "stateMutability": "view",
      "type": "function"
    },
    {
      "constant": true,
      "inputs": [],
      "name": "minimumVotingQuorumForSpecial",
      "outputs": [
        {
          "name": "_minQuorum",
          "type": "uint256"
        }
      ],
      "payable": false,
      "stateMutability": "view",
      "type": "function"
    },
    {
      "constant": true,
      "inputs": [
        {
          "name": "_for",
          "type": "uint256"
        },
        {
          "name": "_against",
          "type": "uint256"
        }
      ],
      "name": "votingQuotaPass",
      "outputs": [
        {
          "name": "_passed",
          "type": "bool"
        }
      ],
      "payable": false,
      "stateMutability": "view",
      "type": "function"
    },
    {
      "constant": true,
      "inputs": [
        {
          "name": "_for",
          "type": "uint256"
        },
        {
          "name": "_against",
          "type": "uint256"
        }
      ],
      "name": "votingQuotaForSpecialPass",
      "outputs": [
        {
          "name": "_passed",
          "type": "bool"
        }
      ],
      "payable": false,
      "stateMutability": "view",
      "type": "function"
    },
    {
      "constant": true,
      "inputs": [
        {
          "name": "_minimalParticipationPoint",
          "type": "uint256"
        },
        {
          "name": "_quarterPointScalingFactor",
          "type": "uint256"
        },
        {
          "name": "_reputationPointScalingFactor",
          "type": "uint256"
        },
        {
          "name": "_quarterPoint",
          "type": "uint256"
        },
        {
          "name": "_reputationPoint",
          "type": "uint256"
        },
        {
          "name": "_lockedDGDStake",
          "type": "uint256"
        }
      ],
      "name": "calculateUserEffectiveBalance",
      "outputs": [
        {
          "name": "_effectiveDGDBalance",
          "type": "uint256"
        }
      ],
      "payable": false,
      "stateMutability": "pure",
      "type": "function"
    },
    {
      "constant": true,
      "inputs": [
        {
          "name": "_balance",
          "type": "uint256"
        },
        {
          "name": "_daysElapsed",
          "type": "uint256"
        }
      ],
      "name": "calculateDemurrage",
      "outputs": [
        {
          "name": "_demurrageFees",
          "type": "uint256"
        }
      ],
      "payable": false,
      "stateMutability": "view",
      "type": "function"
    }
  ],
  "bytecode": "0x608060405260006001026003906000191690556000600460006101000a81548173ffffffffffffffffffffffffffffffffffffffff021916908373ffffffffffffffffffffffffffffffffffffffff1602179055507f70726f706f73616c5f73746174655f70726570726f706f73616c0000000000006005906000191690557f70726f706f73616c5f73746174655f64726166740000000000000000000000006006906000191690557f70726f706f73616c5f73746174655f6d6f6465726174656400000000000000006007906000191690557f70726f706f73616c5f73746174655f6f6e676f696e67000000000000000000006008906000191690557f70726f706f73616c5f73746174655f636c6f73656400000000000000000000006009906000191690557f70726f706f73616c5f73746174655f6172636869766564000000000000000000600a906000191690556001600b556002600c556003600d556001600e556002600f5560036010557f696e7465725f6467645f696400000000000000000000000000000000000000006011906000191690557f696e7465725f6d6f645f6467645f6964000000000000000000000000000000006012906000191690557f696e7465725f626f6e75735f63616c63756c6174696f6e5f69640000000000006013906000191690557f64616f00000000000000000000000000000000000000000000000000000000006014906000191690557f64616f3a7370656369616c3a70726f706f73616c0000000000000000000000006015906000191690557f64616f3a7374616b652d6c6f636b696e670000000000000000000000000000006016906000191690557f64616f3a766f74696e67000000000000000000000000000000000000000000006017906000191690557f64616f3a766f74696e673a636c61696d730000000000000000000000000000006018906000191690557f64616f3a73766f74696e673a636c61696d7300000000000000000000000000006019906000191690557f64616f3a6964656e746974790000000000000000000000000000000000000000601a906000191690557f64616f3a726577617264732d6d616e6167657200000000000000000000000000601b906000191690557f64616f3a726577617264732d6578747261730000000000000000000000000000601c906000191690557f64616f3a726f6c65730000000000000000000000000000000000000000000000601d906000191690557f64616f3a66756e64696e672d6d616e6167657200000000000000000000000000601e906000191690557f64616f3a77686974656c697374696e6700000000000000000000000000000000601f906000191690557f64616f3a696e666f726d6174696f6e00000000000000000000000000000000006020906000191690557f736572766963653a726f6c6500000000000000000000000000000000000000006021906000191690557f736572766963653a64616f3a696e666f000000000000000000000000000000006022906000191690557f736572766963653a64616f3a6c697374696e67000000000000000000000000006023906000191690557f736572766963653a64616f3a63616c63756c61746f72000000000000000000006024906000191690557f73746f726167653a64616f0000000000000000000000000000000000000000006025906000191690557f73746f726167653a64616f3a636f756e746572000000000000000000000000006026906000191690557f73746f726167653a64616f3a75706772616465000000000000000000000000006027906000191690557f73746f726167653a64616f3a6964656e746974790000000000000000000000006028906000191690557f73746f726167653a64616f3a706f696e747300000000000000000000000000006029906000191690557f73746f726167653a64616f3a7370656369616c00000000000000000000000000602a906000191690557f73746f726167653a64616f3a636f6e6669670000000000000000000000000000602b906000191690557f73746f726167653a64616f3a7374616b65000000000000000000000000000000602c906000191690557f73746f726167653a64616f3a7265776172647300000000000000000000000000602d906000191690557f73746f726167653a64616f3a77686974656c697374696e670000000000000000602e906000191690557f73746f726167653a696e7465726d6564696174653a726573756c747300000000602f906000191690557f743a6467640000000000000000000000000000000000000000000000000000006030906000191690557f743a6467780000000000000000000000000000000000000000000000000000006031906000191690557f743a6261646765000000000000000000000000000000000000000000000000006032906000191690556001603360006101000a81548160ff021916908360ff1602179055506002603360016101000a81548160ff021916908360ff1602179055506003603360026101000a81548160ff021916908360ff1602179055506004603360036101000a81548160ff021916908360ff1602179055506276a7006034557f6d696e5f6467645f7061727469636970616e74000000000000000000000000006035906000191690557f6d696e5f6467645f6d6f64657261746f720000000000000000000000000000006036906000191690557f6d696e5f72657075746174696f6e5f6d6f64657261746f7200000000000000006037906000191690557f6c6f636b696e675f70686173655f6475726174696f6e000000000000000000006038906000191690557f717561727465725f6475726174696f6e000000000000000000000000000000006039906000191690557f766f74696e675f636f6d6d69745f706861736500000000000000000000000000603a906000191690557f766f74696e675f70686173655f746f74616c0000000000000000000000000000603b906000191690557f696e746572696d5f766f74696e675f636f6d6d69745f70686173650000000000603c906000191690557f696e746572696d5f766f74696e675f70686173655f746f74616c000000000000603d906000191690557f64726166745f71756f72756d5f66697865645f6e756d657261746f7200000000603e906000191690557f64726166745f71756f72756d5f66697865645f64656e6f6d696e61746f720000603f906000191690557f64726166745f71756f72756d5f73666163746f725f6e756d657261746f7200006040906000191690557f64726166745f71756f72756d5f73666163746f725f64656e6f6d696e61746f726041906000191690557f766f74655f71756f72756d5f66697865645f6e756d657261746f7200000000006042906000191690557f766f74655f71756f72756d5f66697865645f64656e6f6d696e61746f720000006043906000191690557f766f74655f71756f72756d5f73666163746f725f6e756d657261746f720000006044906000191690557f766f74655f71756f72756d5f73666163746f725f64656e6f6d696e61746f72006045906000191690557f66696e616c5f7265776172645f73666163746f725f6e756d657261746f7200006046906000191690557f66696e616c5f7265776172645f73666163746f725f64656e6f6d696e61746f726047906000191690557f64726166745f71756f74615f6e756d657261746f7200000000000000000000006048906000191690557f64726166745f71756f74615f64656e6f6d696e61746f720000000000000000006049906000191690557f766f74696e675f71756f74615f6e756d657261746f7200000000000000000000604a906000191690557f766f74696e675f71756f74615f64656e6f6d696e61746f720000000000000000604b906000191690557f6d696e696d616c5f717000000000000000000000000000000000000000000000604c906000191690557f717561727465725f706f696e745f7363616c696e675f666163746f7200000000604d906000191690557f7265705f706f696e745f7363616c696e675f666163746f720000000000000000604e906000191690557f6d696e696d616c5f6d6f645f7170000000000000000000000000000000000000604f906000191690557f6d6f645f71705f7363616c696e675f666163746f7200000000000000000000006050906000191690557f6d6f645f7265705f706f696e745f7363616c696e675f666163746f72000000006051906000191690557f717561727465725f706f696e745f64726166745f766f746500000000000000006052906000191690557f717561727465725f706f696e745f766f746500000000000000000000000000006053906000191690557f717561727465725f706f696e745f696e746572696d5f766f74650000000000006054906000191690557f715f705f6d696c6573746f6e655f636f6d706c6574696f6e00000000000000006055906000191690557f626f6e75735f72657075746174696f6e5f6e756d657261746f720000000000006056906000191690557f626f6e75735f72657075746174696f6e5f64656e6f6d696e61746f72000000006057906000191690557f7370656369616c5f70726f706f73616c5f636f6d6d69745f70686173650000006058906000191690557f7370656369616c5f70726f706f73616c5f70686173655f746f74616c000000006059906000191690557f636f6e6669675f7370656369616c5f71756f74615f6e756d657261746f720000605a906000191690557f636f6e6669675f7370656369616c5f71756f74615f64656e6f6d696e61746f72605b906000191690557f7370656369616c5f71756f72756d5f6e756d657261746f720000000000000000605c906000191690557f7370656369616c5f71756f72756d5f64656e6f6d696e61746f72000000000000605d906000191690557f636f6e6669675f6d61785f72657075746174696f6e5f646564756374696f6e00605e906000191690557f636f6e6669675f70756e6973686d656e745f6e6f745f6c6f636b696e67000000605f906000191690557f636f6e6669675f7265705f7065725f65787472615f71705f6e756d00000000006060906000191690557f636f6e6669675f7265705f7065725f65787472615f71705f64656e00000000006061906000191690557f636f6e6669675f6d61785f6d5f72705f646564756374696f6e000000000000006062906000191690557f636f6e6669675f7265705f7065725f65787472615f6d5f71705f6e756d0000006063906000191690557f636f6e6669675f7265705f7065725f65787472615f6d5f71705f64656e0000006064906000191690557f636f6e6669675f6d6f645f706f7274696f6e5f6e756d000000000000000000006065906000191690557f636f6e6669675f6d6f645f706f7274696f6e5f64656e000000000000000000006066906000191690557f636f6e6669675f64726166745f766f74696e675f7068617365000000000000006067906000191690557f636f6e6669675f72705f626f6f73745f7065725f6261646765000000000000006068906000191690557f636f6e6669675f636c61696d696e675f646561646c696e6500000000000000006069906000191690557f636f6e6669675f70726570726f706f73616c5f636f6c6c61746572616c000000606a906000191690557f636f6e6669675f6d61785f66756e64696e675f6e6f6e44696769780000000000606b906000191690557f636f6e6669675f6d61785f6d696c6573746f6e65735f6e6f6e44696769780000606c906000191690557f636f6e6669675f6e6f6e44696769785f70726f706f73616c5f63617000000000606d906000191690557f636f6e6669675f646561645f6475726174696f6e000000000000000000000000606e906000191690557f636f6e6669675f63765f72657075746174696f6e000000000000000000000000606f906000191690553480156200113457600080fd5b506040516040806200355283398101806040528101908080519060200190929190805190602001909291905050506200117f60245483620011d4640100000000026401000000009004565b15156200118b57600080fd5b80607060006101000a81548173ffffffffffffffffffffffffffffffffffffffff021916908373ffffffffffffffffffffffffffffffffffffffff160217905550505062001465565b6000808273ffffffffffffffffffffffffffffffffffffffff16636d19a8826040518163ffffffff167c0100000000000000000000000000000000000000000000000000000000028152600401602060405180830381600087803b1580156200123c57600080fd5b505af115801562001251573d6000803e3d6000fd5b505050506040513d60208110156200126857600080fd5b81019080805190602001909291905050509050600015158115151415620014595730600260006101000a81548173ffffffffffffffffffffffffffffffffffffffff021916908373ffffffffffffffffffffffffffffffffffffffff160217905550826000806101000a81548173ffffffffffffffffffffffffffffffffffffffff021916908373ffffffffffffffffffffffffffffffffffffffff16021790555083600181600019169055506000809054906101000a900473ffffffffffffffffffffffffffffffffffffffff1673ffffffffffffffffffffffffffffffffffffffff1663c0f6ef4a600154600260009054906101000a900473ffffffffffffffffffffffffffffffffffffffff166040518363ffffffff167c01000000000000000000000000000000000000000000000000000000000281526004018083600019166000191681526020018273ffffffffffffffffffffffffffffffffffffffff1673ffffffffffffffffffffffffffffffffffffffff16815260200192505050602060405180830381600087803b1580156200140657600080fd5b505af11580156200141b573d6000803e3d6000fd5b505050506040513d60208110156200143257600080fd5b810190808051906020019092919050505015156200144f57600080fd5b600191506200145e565b600091505b5092915050565b6120dd80620014756000396000f30060806040526004361061013e576000357c0100000000000000000000000000000000000000000000000000000000900463ffffffff16806304f3bcec146101435780630b3b15951461019a578063120c52ef146101db5780631d8ccd04146102265780632850568f1461029757806336dfb1c2146102c25780633943380c146103115780633f83acff14610344578063535199aa146103b5578063560a25ea146103fa578063685330601461042557806370ae8f5c1461045457806377ebd468146104c75780637c6c9af2146105165780637d6fed801461056d5780637f6a26b61461059c578063929066f5146105c757806393ddad0814610622578063a27c834c1461066f578063b1e2b9dd146106be578063d32d049914610703578063d70d935814610752578063db4ecbc114610781578063fa6f3936146107d8575b600080fd5b34801561014f57600080fd5b50610158610833565b604051808273ffffffffffffffffffffffffffffffffffffffff1673ffffffffffffffffffffffffffffffffffffffff16815260200191505060405180910390f35b3480156101a657600080fd5b506101c560048036038101908080359060200190929190505050610858565b6040518082815260200191505060405180910390f35b3480156101e757600080fd5b5061021060048036038101908080359060200190929190803590602001909291905050506108e2565b6040518082815260200191505060405180910390f35b34801561023257600080fd5b5061025560048036038101908080356000191690602001909291905050506109cc565b604051808273ffffffffffffffffffffffffffffffffffffffff1673ffffffffffffffffffffffffffffffffffffffff16815260200191505060405180910390f35b3480156102a357600080fd5b506102ac610a8e565b6040518082815260200191505060405180910390f35b3480156102ce57600080fd5b506102f76004803603810190808035906020019092919080359060200190929190505050610b73565b604051808215151515815260200191505060405180910390f35b34801561031d57600080fd5b50610326610bca565b60405180826000191660001916815260200191505060405180910390f35b34801561035057600080fd5b506103736004803603810190808035600019169060200190929190505050610bd0565b604051808273ffffffffffffffffffffffffffffffffffffffff1673ffffffffffffffffffffffffffffffffffffffff16815260200191505060405180910390f35b3480156103c157600080fd5b506103e46004803603810190808035600019169060200190929190505050610cac565b6040518082815260200191505060405180910390f35b34801561040657600080fd5b5061040f610ecc565b6040518082815260200191505060405180910390f35b34801561043157600080fd5b5061043a610edc565b604051808215151515815260200191505060405180910390f35b34801561046057600080fd5b506104b1600480360381019080803590602001909291908035906020019092919080359060200190929190803590602001909291908035906020019092919080359060200190929190505050610f08565b6040518082815260200191505060405180910390f35b3480156104d357600080fd5b50610500600480360381019080803560001916906020019092919080359060200190929190505050610fc7565b6040518082815260200191505060405180910390f35b34801561052257600080fd5b5061052b6112fc565b604051808273ffffffffffffffffffffffffffffffffffffffff1673ffffffffffffffffffffffffffffffffffffffff16815260200191505060405180910390f35b34801561057957600080fd5b50610582611322565b604051808215151515815260200191505060405180910390f35b3480156105a857600080fd5b506105b161133d565b6040518082815260200191505060405180910390f35b3480156105d357600080fd5b50610608600480360381019080803573ffffffffffffffffffffffffffffffffffffffff16906020019092919050505061134d565b604051808215151515815260200191505060405180910390f35b34801561062e57600080fd5b50610651600480360381019080803560001916906020019092919050505061152e565b60405180826000191660001916815260200191505060405180910390f35b34801561067b57600080fd5b506106a460048036038101908080359060200190929190803590602001909291905050506115f0565b604051808215151515815260200191505060405180910390f35b3480156106ca57600080fd5b506106ed6004803603810190808035600019169060200190929190505050611647565b6040518082815260200191505060405180910390f35b34801561070f57600080fd5b506107386004803603810190808035906020019092919080359060200190929190505050611709565b604051808215151515815260200191505060405180910390f35b34801561075e57600080fd5b50610767611760565b604051808215151515815260200191505060405180910390f35b34801561078d57600080fd5b5061079661180e565b604051808273ffffffffffffffffffffffffffffffffffffffff1673ffffffffffffffffffffffffffffffffffffffff16815260200191505060405180910390f35b3480156107e457600080fd5b50610819600480360381019080803573ffffffffffffffffffffffffffffffffffffffff169060200190929190505050611834565b604051808215151515815260200191505060405180910390f35b6000809054906101000a900473ffffffffffffffffffffffffffffffffffffffff1681565b60006108db61088461086b603854611647565b610876603954611647565b611b0790919063ffffffff16565b6108cd6108be6108a5610895610ecc565b6108a0603854611647565b611b20565b6108b0603954611647565b611b0790919063ffffffff16565b85611b3790919063ffffffff16565b611b6f90919063ffffffff16565b9050919050565b6000607060009054906101000a900473ffffffffffffffffffffffffffffffffffffffff1673ffffffffffffffffffffffffffffffffffffffff1663120c52ef84846040518363ffffffff167c010000000000000000000000000000000000000000000000000000000002815260040180838152602001828152602001925050506040805180830381600087803b15801561097c57600080fd5b505af1158015610990573d6000803e3d6000fd5b505050506040513d60408110156109a657600080fd5b810190808051906020019092919080519060200190929190505050508091505092915050565b60006109d6611b85565b73ffffffffffffffffffffffffffffffffffffffff1663e6b39eab836040518263ffffffff167c0100000000000000000000000000000000000000000000000000000000028152600401808260001916600019168152602001915050602060405180830381600087803b158015610a4c57600080fd5b505af1158015610a60573d6000803e3d6000fd5b505050506040513d6020811015610a7657600080fd5b81019080805190602001909291905050509050919050565b6000610b6e610a9e605d54611647565b610b60610aa9611b97565b73ffffffffffffffffffffffffffffffffffffffff1663abed029a6040518163ffffffff167c0100000000000000000000000000000000000000000000000000000000028152600401602060405180830381600087803b158015610b0c57600080fd5b505af1158015610b20573d6000803e3d6000fd5b505050506040513d6020811015610b3657600080fd5b8101908080519060200190929190505050610b52605c54611647565b611b3790919063ffffffff16565b611b6f90919063ffffffff16565b905090565b6000610ba4610b8b8385611ba990919063ffffffff16565b610b96604a54611647565b611b3790919063ffffffff16565b610bc1610bb2604b54611647565b85611b3790919063ffffffff16565b11905092915050565b60015481565b60008060009054906101000a900473ffffffffffffffffffffffffffffffffffffffff1673ffffffffffffffffffffffffffffffffffffffff16633f83acff836040518263ffffffff167c0100000000000000000000000000000000000000000000000000000000028152600401808260001916600019168152602001915050602060405180830381600087803b158015610c6a57600080fd5b505af1158015610c7e573d6000803e3d6000fd5b505050506040513d6020811015610c9457600080fd5b81019080805190602001909291905050509050919050565b60006060610cb8611bc5565b73ffffffffffffffffffffffffffffffffffffffff16637246d5a7846040518263ffffffff167c0100000000000000000000000000000000000000000000000000000000028152600401808260001916600019168152602001915050600060405180830381600087803b158015610d2e57600080fd5b505af1158015610d42573d6000803e3d6000fd5b505050506040513d6000823e3d601f19601f820116820180604052506040811015610d6c57600080fd5b810190808051640100000000811115610d8457600080fd5b82810190506020810184811115610d9a57600080fd5b8151856020820283011164010000000082111715610db757600080fd5b5050929190602001805190602001909291905050505080915050610ec4610ddc611b97565b73ffffffffffffffffffffffffffffffffffffffff1663bf448a876040518163ffffffff167c0100000000000000000000000000000000000000000000000000000000028152600401602060405180830381600087803b158015610e3f57600080fd5b505af1158015610e53573d6000803e3d6000fd5b505050506040513d6020811015610e6957600080fd5b8101908080519060200190929190505050610e85603e54611647565b610e90603f54611647565b610e9b604054611647565b610ea6604154611647565b866000815181101515610eb557fe5b90602001906020020151611bd7565b915050919050565b6000610ed742611c73565b905090565b6000610ee6611760565b8015610f035750610ef8603854611647565b610f00610ecc565b10155b905090565b600080610f3988610f2b85610f1d898d611d5c565b611b3790919063ffffffff16565b611b6f90919063ffffffff16565b9050610fba610f518789611b3790919063ffffffff16565b610fac610f67878a611ba990919063ffffffff16565b610f9e610f8f8d610f818c8f611ba990919063ffffffff16565b611b0790919063ffffffff16565b86611b3790919063ffffffff16565b611b3790919063ffffffff16565b611b6f90919063ffffffff16565b9150509695505050505050565b600060606000610fd5611d73565b1515610fe057600080fd5b610fe8611bc5565b73ffffffffffffffffffffffffffffffffffffffff16637246d5a7866040518263ffffffff167c0100000000000000000000000000000000000000000000000000000000028152600401808260001916600019168152602001915050600060405180830381600087803b15801561105e57600080fd5b505af1158015611072573d6000803e3d6000fd5b505050506040513d6000823e3d601f19601f82011682018060405250604081101561109c57600080fd5b8101908080516401000000008111156110b457600080fd5b828101905060208101848111156110ca57600080fd5b81518560208202830111640100000000821117156110e757600080fd5b50509291906020018051906020019092919050505080925081935050508151841115151561111457600080fd5b81518414156111ff576111f8611128611b97565b73ffffffffffffffffffffffffffffffffffffffff1663abed029a6040518163ffffffff167c0100000000000000000000000000000000000000000000000000000000028152600401602060405180830381600087803b15801561118b57600080fd5b505af115801561119f573d6000803e3d6000fd5b505050506040513d60208110156111b557600080fd5b81019080805190602001909291905050506111d1604254611647565b6111dc604354611647565b6111e7604654611647565b6111f2604754611647565b86611bd7565b92506112f4565b6112f161120a611b97565b73ffffffffffffffffffffffffffffffffffffffff1663abed029a6040518163ffffffff167c0100000000000000000000000000000000000000000000000000000000028152600401602060405180830381600087803b15801561126d57600080fd5b505af1158015611281573d6000803e3d6000fd5b505050506040513d602081101561129757600080fd5b81019080805190602001909291905050506112b3604254611647565b6112be604354611647565b6112c9604454611647565b6112d4604554611647565b878a8151811015156112e257fe5b90602001906020020151611bd7565b92505b505092915050565b607060009054906101000a900473ffffffffffffffffffffffffffffffffffffffff1681565b600061132f603854611647565b611337610ecc565b10905090565b600061134842611e8d565b905090565b600061135761133d565b61135f611f90565b73ffffffffffffffffffffffffffffffffffffffff1663cefc2bff846040518263ffffffff167c0100000000000000000000000000000000000000000000000000000000028152600401808273ffffffffffffffffffffffffffffffffffffffff1673ffffffffffffffffffffffffffffffffffffffff168152602001915050602060405180830381600087803b1580156113f957600080fd5b505af115801561140d573d6000803e3d6000fd5b505050506040513d602081101561142357600080fd5b81019080805190602001909291905050501480156115275750611447603554611647565b61144f611b97565b73ffffffffffffffffffffffffffffffffffffffff1663cd094a27846040518263ffffffff167c0100000000000000000000000000000000000000000000000000000000028152600401808273ffffffffffffffffffffffffffffffffffffffff1673ffffffffffffffffffffffffffffffffffffffff168152602001915050602060405180830381600087803b1580156114e957600080fd5b505af11580156114fd573d6000803e3d6000fd5b505050506040513d602081101561151357600080fd5b810190808051906020019092919050505010155b9050919050565b6000611538611b85565b73ffffffffffffffffffffffffffffffffffffffff1663c0a8405d836040518263ffffffff167c0100000000000000000000000000000000000000000000000000000000028152600401808260001916600019168152602001915050602060405180830381600087803b1580156115ae57600080fd5b505af11580156115c2573d6000803e3d6000fd5b505050506040513d60208110156115d857600080fd5b81019080805190602001909291905050509050919050565b60006116216116088385611ba990919063ffffffff16565b611613605a54611647565b611b3790919063ffffffff16565b61163e61162f605b54611647565b85611b3790919063ffffffff16565b11905092915050565b6000611651611b85565b73ffffffffffffffffffffffffffffffffffffffff1663734c1168836040518263ffffffff167c0100000000000000000000000000000000000000000000000000000000028152600401808260001916600019168152602001915050602060405180830381600087803b1580156116c757600080fd5b505af11580156116db573d6000803e3d6000fd5b505050506040513d60208110156116f157600080fd5b81019080805190602001909291905050509050919050565b600061173a6117218385611ba990919063ffffffff16565b61172c604854611647565b611b3790919063ffffffff16565b611757611748604954611647565b85611b3790919063ffffffff16565b11905092915050565b600061176a611fa2565b73ffffffffffffffffffffffffffffffffffffffff16638bc865fd6040518163ffffffff167c0100000000000000000000000000000000000000000000000000000000028152600401602060405180830381600087803b1580156117cd57600080fd5b505af11580156117e1573d6000803e3d6000fd5b505050506040513d60208110156117f757600080fd5b810190808051906020019092919050505015905090565b600260009054906101000a900473ffffffffffffffffffffffffffffffffffffffff1681565b600061183e61133d565b611846611f90565b73ffffffffffffffffffffffffffffffffffffffff1663cefc2bff846040518263ffffffff167c0100000000000000000000000000000000000000000000000000000000028152600401808273ffffffffffffffffffffffffffffffffffffffff1673ffffffffffffffffffffffffffffffffffffffff168152602001915050602060405180830381600087803b1580156118e057600080fd5b505af11580156118f4573d6000803e3d6000fd5b505050506040513d602081101561190a57600080fd5b8101908080519060200190929190505050148015611a0e575061192e603654611647565b611936611b97565b73ffffffffffffffffffffffffffffffffffffffff1663cd094a27846040518263ffffffff167c0100000000000000000000000000000000000000000000000000000000028152600401808273ffffffffffffffffffffffffffffffffffffffff1673ffffffffffffffffffffffffffffffffffffffff168152602001915050602060405180830381600087803b1580156119d057600080fd5b505af11580156119e4573d6000803e3d6000fd5b505050506040513d60208110156119fa57600080fd5b810190808051906020019092919050505010155b8015611b005750611a20603754611647565b611a28611fb4565b73ffffffffffffffffffffffffffffffffffffffff16639c89a0e2846040518263ffffffff167c0100000000000000000000000000000000000000000000000000000000028152600401808273ffffffffffffffffffffffffffffffffffffffff1673ffffffffffffffffffffffffffffffffffffffff168152602001915050602060405180830381600087803b158015611ac257600080fd5b505af1158015611ad6573d6000803e3d6000fd5b505050506040513d6020811015611aec57600080fd5b810190808051906020019092919050505010155b9050919050565b6000828211151515611b1557fe5b818303905092915050565b600081905081831115611b31578290505b92915050565b600080831415611b4a5760009050611b69565b8183029050818382811515611b5b57fe5b04141515611b6557fe5b8090505b92915050565b60008183811515611b7c57fe5b04905092915050565b6000611b92602b54610bd0565b905090565b6000611ba4602c54610bd0565b905090565b60008183019050828110151515611bbc57fe5b80905092915050565b6000611bd2602554610bd0565b905090565b600080611be2611fc6565b9050611c0986611bfb898b611b3790919063ffffffff16565b611b6f90919063ffffffff16565b9150611c66611c57611c248684611b3790919063ffffffff16565b611c49611c3a8988611b3790919063ffffffff16565b8c611b3790919063ffffffff16565b611b6f90919063ffffffff16565b83611ba990919063ffffffff16565b9150509695505050505050565b6000611c7d611fef565b1515611c8857600080fd5b611c93603954611647565b611d4b611c9e611fa2565b73ffffffffffffffffffffffffffffffffffffffff1663d9c6bb206040518163ffffffff167c0100000000000000000000000000000000000000000000000000000000028152600401602060405180830381600087803b158015611d0157600080fd5b505af1158015611d15573d6000803e3d6000fd5b505050506040513d6020811015611d2b57600080fd5b810190808051906020019092919050505084611b0790919063ffffffff16565b811515611d5457fe5b069050919050565b600081905081831015611d6d578290505b92915050565b60003273ffffffffffffffffffffffffffffffffffffffff163373ffffffffffffffffffffffffffffffffffffffff161480611e885750611db261209f565b73ffffffffffffffffffffffffffffffffffffffff16639b19251a336040518263ffffffff167c0100000000000000000000000000000000000000000000000000000000028152600401808273ffffffffffffffffffffffffffffffffffffffff1673ffffffffffffffffffffffffffffffffffffffff168152602001915050602060405180830381600087803b158015611e4c57600080fd5b505af1158015611e60573d6000803e3d6000fd5b505050506040513d6020811015611e7657600080fd5b81019080805190602001909291905050505b905090565b6000611e97611fef565b1515611ea257600080fd5b611f896001611f7b611eb5603954611647565b611f6d611ec0611fa2565b73ffffffffffffffffffffffffffffffffffffffff1663d9c6bb206040518163ffffffff167c0100000000000000000000000000000000000000000000000000000000028152600401602060405180830381600087803b158015611f2357600080fd5b505af1158015611f37573d6000803e3d6000fd5b505050506040513d6020811015611f4d57600080fd5b810190808051906020019092919050505087611b0790919063ffffffff16565b611b6f90919063ffffffff16565b611ba990919063ffffffff16565b9050919050565b6000611f9d602d54610bd0565b905090565b6000611faf602754610bd0565b905090565b6000611fc1602954610bd0565b905090565b6000611fd3601e54610bd0565b73ffffffffffffffffffffffffffffffffffffffff1631905090565b600080611ffa611fa2565b73ffffffffffffffffffffffffffffffffffffffff1663d9c6bb206040518163ffffffff167c0100000000000000000000000000000000000000000000000000000000028152600401602060405180830381600087803b15801561205d57600080fd5b505af1158015612071573d6000803e3d6000fd5b505050506040513d602081101561208757600080fd5b81019080805190602001909291905050501415905090565b60006120ac602e54610bd0565b9050905600a165627a7a72305820ba26d5bdea50f2a846f2c566474e84666c284cc728051944bbfbec2bd1be34560029",
  "source": "pragma solidity ^0.4.25;\n\nimport \"./../interface/DgxDemurrageCalculator.sol\";\nimport \"./../common/DaoCommon.sol\";\nimport \"./../lib/MathHelper.sol\";\n\n\ncontract DaoCalculatorService is DaoCommon {\n\n    address public dgxDemurrageCalculatorAddress;\n\n    using MathHelper for MathHelper;\n\n    constructor(address _resolver, address _dgxDemurrageCalculatorAddress)\n        public\n    {\n        require(init(CONTRACT_SERVICE_DAO_CALCULATOR, _resolver));\n        dgxDemurrageCalculatorAddress = _dgxDemurrageCalculatorAddress;\n    }\n\n\n    /**\n    @notice Calculate the additional lockedDGDStake, given the DGDs that the user has just locked in\n    @dev The earlier the locking happens, the more lockedDGDStake the user will get\n         The formula is: additionalLockedDGDStake = (90 - t)/80 * additionalDGD if t is more than 10. If t<=10, additionalLockedDGDStake = additionalDGD\n    */\n    function calculateAdditionalLockedDGDStake(uint256 _additionalDgd)\n        public\n        view\n        returns (uint256 _additionalLockedDGDStake)\n    {\n        _additionalLockedDGDStake =\n            _additionalDgd.mul(\n                getUintConfig(CONFIG_QUARTER_DURATION)\n                .sub(\n                    MathHelper.max(\n                        currentTimeInQuarter(),\n                        getUintConfig(CONFIG_LOCKING_PHASE_DURATION)\n                    )\n                )\n            )\n            .div(\n                getUintConfig(CONFIG_QUARTER_DURATION)\n                .sub(getUintConfig(CONFIG_LOCKING_PHASE_DURATION))\n            );\n    }\n\n\n    // Quorum is in terms of lockedDGDStake\n    function minimumDraftQuorum(bytes32 _proposalId)\n        public\n        view\n        returns (uint256 _minQuorum)\n    {\n        uint256[] memory _fundings;\n\n        (_fundings,) = daoStorage().readProposalFunding(_proposalId);\n        _minQuorum = calculateMinQuorum(\n            daoStakeStorage().totalModeratorLockedDGDStake(),\n            getUintConfig(CONFIG_DRAFT_QUORUM_FIXED_PORTION_NUMERATOR),\n            getUintConfig(CONFIG_DRAFT_QUORUM_FIXED_PORTION_DENOMINATOR),\n            getUintConfig(CONFIG_DRAFT_QUORUM_SCALING_FACTOR_NUMERATOR),\n            getUintConfig(CONFIG_DRAFT_QUORUM_SCALING_FACTOR_DENOMINATOR),\n            _fundings[0]\n        );\n    }\n\n\n    function draftQuotaPass(uint256 _for, uint256 _against)\n        public\n        view\n        returns (bool _passed)\n    {\n        _passed = _for.mul(getUintConfig(CONFIG_DRAFT_QUOTA_DENOMINATOR))\n                > getUintConfig(CONFIG_DRAFT_QUOTA_NUMERATOR).mul(_for.add(_against));\n    }\n\n\n    // Quorum is in terms of lockedDGDStake\n    function minimumVotingQuorum(bytes32 _proposalId, uint256 _milestone_id)\n        public\n        view\n        returns (uint256 _minQuorum)\n    {\n        require(senderIsAllowedToRead());\n        uint256[] memory _weiAskedPerMilestone;\n        uint256 _finalReward;\n        (_weiAskedPerMilestone,_finalReward) = daoStorage().readProposalFunding(_proposalId);\n        require(_milestone_id <= _weiAskedPerMilestone.length);\n        if (_milestone_id == _weiAskedPerMilestone.length) {\n            // calculate quorum for the final voting round\n            _minQuorum = calculateMinQuorum(\n                daoStakeStorage().totalLockedDGDStake(),\n                getUintConfig(CONFIG_VOTING_QUORUM_FIXED_PORTION_NUMERATOR),\n                getUintConfig(CONFIG_VOTING_QUORUM_FIXED_PORTION_DENOMINATOR),\n                getUintConfig(CONFIG_FINAL_REWARD_SCALING_FACTOR_NUMERATOR),\n                getUintConfig(CONFIG_FINAL_REWARD_SCALING_FACTOR_DENOMINATOR),\n                _finalReward\n            );\n        } else {\n            // calculate quorum for a voting round\n            _minQuorum = calculateMinQuorum(\n                daoStakeStorage().totalLockedDGDStake(),\n                getUintConfig(CONFIG_VOTING_QUORUM_FIXED_PORTION_NUMERATOR),\n                getUintConfig(CONFIG_VOTING_QUORUM_FIXED_PORTION_DENOMINATOR),\n                getUintConfig(CONFIG_VOTING_QUORUM_SCALING_FACTOR_NUMERATOR),\n                getUintConfig(CONFIG_VOTING_QUORUM_SCALING_FACTOR_DENOMINATOR),\n                _weiAskedPerMilestone[_milestone_id]\n            );\n        }\n    }\n\n\n    // Quorum is in terms of lockedDGDStake\n    function minimumVotingQuorumForSpecial()\n        public\n        view\n        returns (uint256 _minQuorum)\n    {\n      _minQuorum = getUintConfig(CONFIG_SPECIAL_PROPOSAL_QUORUM_NUMERATOR).mul(\n                       daoStakeStorage().totalLockedDGDStake()\n                   ).div(\n                       getUintConfig(CONFIG_SPECIAL_PROPOSAL_QUORUM_DENOMINATOR)\n                   );\n    }\n\n\n    function votingQuotaPass(uint256 _for, uint256 _against)\n        public\n        view\n        returns (bool _passed)\n    {\n        _passed = _for.mul(getUintConfig(CONFIG_VOTING_QUOTA_DENOMINATOR))\n                > getUintConfig(CONFIG_VOTING_QUOTA_NUMERATOR).mul(_for.add(_against));\n    }\n\n\n    function votingQuotaForSpecialPass(uint256 _for, uint256 _against)\n        public\n        view\n        returns (bool _passed)\n    {\n        _passed =_for.mul(getUintConfig(CONFIG_SPECIAL_QUOTA_DENOMINATOR))\n                > getUintConfig(CONFIG_SPECIAL_QUOTA_NUMERATOR).mul(_for.add(_against));\n    }\n\n\n    function calculateMinQuorum(\n        uint256 _totalStake,\n        uint256 _fixedQuorumPortionNumerator,\n        uint256 _fixedQuorumPortionDenominator,\n        uint256 _scalingFactorNumerator,\n        uint256 _scalingFactorDenominator,\n        uint256 _weiAsked\n    )\n        internal\n        view\n        returns (uint256 _minimumQuorum)\n    {\n        uint256 _weiInDao = weiInDao();\n        // add the fixed portion of the quorum\n        _minimumQuorum = (_totalStake.mul(_fixedQuorumPortionNumerator)).div(_fixedQuorumPortionDenominator);\n\n        // add the dynamic portion of the quorum\n        _minimumQuorum = _minimumQuorum.add(_totalStake.mul(_weiAsked.mul(_scalingFactorNumerator)).div(_weiInDao.mul(_scalingFactorDenominator)));\n    }\n\n\n    function calculateUserEffectiveBalance(\n        uint256 _minimalParticipationPoint,\n        uint256 _quarterPointScalingFactor,\n        uint256 _reputationPointScalingFactor,\n        uint256 _quarterPoint,\n        uint256 _reputationPoint,\n        uint256 _lockedDGDStake\n    )\n        public\n        pure\n        returns (uint256 _effectiveDGDBalance)\n    {\n        uint256 _baseDGDBalance = MathHelper.min(_quarterPoint, _minimalParticipationPoint).mul(_lockedDGDStake).div(_minimalParticipationPoint);\n        _effectiveDGDBalance =\n            _baseDGDBalance\n            .mul(_quarterPointScalingFactor.add(_quarterPoint).sub(_minimalParticipationPoint))\n            .mul(_reputationPointScalingFactor.add(_reputationPoint))\n            .div(_quarterPointScalingFactor.mul(_reputationPointScalingFactor));\n    }\n\n\n    function calculateDemurrage(uint256 _balance, uint256 _daysElapsed)\n        public\n        view\n        returns (uint256 _demurrageFees)\n    {\n        (_demurrageFees,) = DgxDemurrageCalculator(dgxDemurrageCalculatorAddress).calculateDemurrage(_balance, _daysElapsed);\n    }\n\n}\n",
  "sourcePath": "/Users/aeufemio/projects/dgx/contracts/dao-contracts/contracts/service/DaoCalculatorService.sol",
  "compiler": {
    "name": "solc",
    "version": "0.4.25+commit.59dbf8f1.Emscripten.clang"
  },
  "schemaVersion": "2.0.2",
  "updatedAt": "2020-03-12T02:29:48.857Z"
}