{
  "contractName": "DaoConfigsStorage",
  "abi": [
    {
      "constant": true,
      "inputs": [],
      "name": "resolver",
      "outputs": [
        {
          "name": "",
          "type": "address"
        }
      ],
      "payable": false,
      "stateMutability": "view",
      "type": "function"
    },
    {
      "constant": true,
      "inputs": [],
      "name": "key",
      "outputs": [
        {
          "name": "",
          "type": "bytes32"
        }
      ],
      "payable": false,
      "stateMutability": "view",
      "type": "function"
    },
    {
      "constant": true,
      "inputs": [
        {
          "name": "_key",
          "type": "bytes32"
        }
      ],
      "name": "get_contract",
      "outputs": [
        {
          "name": "_contract",
          "type": "address"
        }
      ],
      "payable": false,
      "stateMutability": "view",
      "type": "function"
    },
    {
      "constant": true,
      "inputs": [
        {
          "name": "",
          "type": "bytes32"
        }
      ],
      "name": "uintConfigs",
      "outputs": [
        {
          "name": "",
          "type": "uint256"
        }
      ],
      "payable": false,
      "stateMutability": "view",
      "type": "function"
    },
    {
      "constant": true,
      "inputs": [
        {
          "name": "",
          "type": "bytes32"
        }
      ],
      "name": "bytesConfigs",
      "outputs": [
        {
          "name": "",
          "type": "bytes32"
        }
      ],
      "payable": false,
      "stateMutability": "view",
      "type": "function"
    },
    {
      "constant": true,
      "inputs": [],
      "name": "CONTRACT_ADDRESS",
      "outputs": [
        {
          "name": "",
          "type": "address"
        }
      ],
      "payable": false,
      "stateMutability": "view",
      "type": "function"
    },
    {
      "constant": true,
      "inputs": [
        {
          "name": "",
          "type": "bytes32"
        }
      ],
      "name": "addressConfigs",
      "outputs": [
        {
          "name": "",
          "type": "address"
        }
      ],
      "payable": false,
      "stateMutability": "view",
      "type": "function"
    },
    {
      "inputs": [
        {
          "name": "_resolver",
          "type": "address"
        }
      ],
      "payable": false,
      "stateMutability": "nonpayable",
      "type": "constructor"
    },
    {
      "constant": false,
      "inputs": [
        {
          "name": "_uintConfigs",
          "type": "uint256[]"
        }
      ],
      "name": "updateUintConfigs",
      "outputs": [],
      "payable": false,
      "stateMutability": "nonpayable",
      "type": "function"
    },
    {
      "constant": true,
      "inputs": [],
      "name": "readUintConfigs",
      "outputs": [
        {
          "name": "",
          "type": "uint256[]"
        }
      ],
      "payable": false,
      "stateMutability": "view",
      "type": "function"
    }
  ],
  "bytecode": "0x608060405260006001026003906000191690556000600460006101000a81548173ffffffffffffffffffffffffffffffffffffffff021916908373ffffffffffffffffffffffffffffffffffffffff1602179055507f70726f706f73616c5f73746174655f70726570726f706f73616c0000000000006005906000191690557f70726f706f73616c5f73746174655f64726166740000000000000000000000006006906000191690557f70726f706f73616c5f73746174655f6d6f6465726174656400000000000000006007906000191690557f70726f706f73616c5f73746174655f6f6e676f696e67000000000000000000006008906000191690557f70726f706f73616c5f73746174655f636c6f73656400000000000000000000006009906000191690557f70726f706f73616c5f73746174655f6172636869766564000000000000000000600a906000191690556001600b556002600c556003600d556001600e556002600f5560036010557f696e7465725f6467645f696400000000000000000000000000000000000000006011906000191690557f696e7465725f6d6f645f6467645f6964000000000000000000000000000000006012906000191690557f696e7465725f626f6e75735f63616c63756c6174696f6e5f69640000000000006013906000191690557f64616f00000000000000000000000000000000000000000000000000000000006014906000191690557f64616f3a7370656369616c3a70726f706f73616c0000000000000000000000006015906000191690557f64616f3a7374616b652d6c6f636b696e670000000000000000000000000000006016906000191690557f64616f3a766f74696e67000000000000000000000000000000000000000000006017906000191690557f64616f3a766f74696e673a636c61696d730000000000000000000000000000006018906000191690557f64616f3a73766f74696e673a636c61696d7300000000000000000000000000006019906000191690557f64616f3a6964656e746974790000000000000000000000000000000000000000601a906000191690557f64616f3a726577617264732d6d616e6167657200000000000000000000000000601b906000191690557f64616f3a726577617264732d6578747261730000000000000000000000000000601c906000191690557f64616f3a726f6c65730000000000000000000000000000000000000000000000601d906000191690557f64616f3a66756e64696e672d6d616e6167657200000000000000000000000000601e906000191690557f64616f3a77686974656c697374696e6700000000000000000000000000000000601f906000191690557f64616f3a696e666f726d6174696f6e00000000000000000000000000000000006020906000191690557f736572766963653a726f6c6500000000000000000000000000000000000000006021906000191690557f736572766963653a64616f3a696e666f000000000000000000000000000000006022906000191690557f736572766963653a64616f3a6c697374696e67000000000000000000000000006023906000191690557f736572766963653a64616f3a63616c63756c61746f72000000000000000000006024906000191690557f73746f726167653a64616f0000000000000000000000000000000000000000006025906000191690557f73746f726167653a64616f3a636f756e746572000000000000000000000000006026906000191690557f73746f726167653a64616f3a75706772616465000000000000000000000000006027906000191690557f73746f726167653a64616f3a6964656e746974790000000000000000000000006028906000191690557f73746f726167653a64616f3a706f696e747300000000000000000000000000006029906000191690557f73746f726167653a64616f3a7370656369616c00000000000000000000000000602a906000191690557f73746f726167653a64616f3a636f6e6669670000000000000000000000000000602b906000191690557f73746f726167653a64616f3a7374616b65000000000000000000000000000000602c906000191690557f73746f726167653a64616f3a7265776172647300000000000000000000000000602d906000191690557f73746f726167653a64616f3a77686974656c697374696e670000000000000000602e906000191690557f73746f726167653a696e7465726d6564696174653a726573756c747300000000602f906000191690557f743a6467640000000000000000000000000000000000000000000000000000006030906000191690557f743a6467780000000000000000000000000000000000000000000000000000006031906000191690557f743a6261646765000000000000000000000000000000000000000000000000006032906000191690556001603360006101000a81548160ff021916908360ff1602179055506002603360016101000a81548160ff021916908360ff1602179055506003603360026101000a81548160ff021916908360ff1602179055506004603360036101000a81548160ff021916908360ff1602179055506276a7006034557f6d696e5f6467645f7061727469636970616e74000000000000000000000000006035906000191690557f6d696e5f6467645f6d6f64657261746f720000000000000000000000000000006036906000191690557f6d696e5f72657075746174696f6e5f6d6f64657261746f7200000000000000006037906000191690557f6c6f636b696e675f70686173655f6475726174696f6e000000000000000000006038906000191690557f717561727465725f6475726174696f6e000000000000000000000000000000006039906000191690557f766f74696e675f636f6d6d69745f706861736500000000000000000000000000603a906000191690557f766f74696e675f70686173655f746f74616c0000000000000000000000000000603b906000191690557f696e746572696d5f766f74696e675f636f6d6d69745f70686173650000000000603c906000191690557f696e746572696d5f766f74696e675f70686173655f746f74616c000000000000603d906000191690557f64726166745f71756f72756d5f66697865645f6e756d657261746f7200000000603e906000191690557f64726166745f71756f72756d5f66697865645f64656e6f6d696e61746f720000603f906000191690557f64726166745f71756f72756d5f73666163746f725f6e756d657261746f7200006040906000191690557f64726166745f71756f72756d5f73666163746f725f64656e6f6d696e61746f726041906000191690557f766f74655f71756f72756d5f66697865645f6e756d657261746f7200000000006042906000191690557f766f74655f71756f72756d5f66697865645f64656e6f6d696e61746f720000006043906000191690557f766f74655f71756f72756d5f73666163746f725f6e756d657261746f720000006044906000191690557f766f74655f71756f72756d5f73666163746f725f64656e6f6d696e61746f72006045906000191690557f66696e616c5f7265776172645f73666163746f725f6e756d657261746f7200006046906000191690557f66696e616c5f7265776172645f73666163746f725f64656e6f6d696e61746f726047906000191690557f64726166745f71756f74615f6e756d657261746f7200000000000000000000006048906000191690557f64726166745f71756f74615f64656e6f6d696e61746f720000000000000000006049906000191690557f766f74696e675f71756f74615f6e756d657261746f7200000000000000000000604a906000191690557f766f74696e675f71756f74615f64656e6f6d696e61746f720000000000000000604b906000191690557f6d696e696d616c5f717000000000000000000000000000000000000000000000604c906000191690557f717561727465725f706f696e745f7363616c696e675f666163746f7200000000604d906000191690557f7265705f706f696e745f7363616c696e675f666163746f720000000000000000604e906000191690557f6d696e696d616c5f6d6f645f7170000000000000000000000000000000000000604f906000191690557f6d6f645f71705f7363616c696e675f666163746f7200000000000000000000006050906000191690557f6d6f645f7265705f706f696e745f7363616c696e675f666163746f72000000006051906000191690557f717561727465725f706f696e745f64726166745f766f746500000000000000006052906000191690557f717561727465725f706f696e745f766f746500000000000000000000000000006053906000191690557f717561727465725f706f696e745f696e746572696d5f766f74650000000000006054906000191690557f715f705f6d696c6573746f6e655f636f6d706c6574696f6e00000000000000006055906000191690557f626f6e75735f72657075746174696f6e5f6e756d657261746f720000000000006056906000191690557f626f6e75735f72657075746174696f6e5f64656e6f6d696e61746f72000000006057906000191690557f7370656369616c5f70726f706f73616c5f636f6d6d69745f70686173650000006058906000191690557f7370656369616c5f70726f706f73616c5f70686173655f746f74616c000000006059906000191690557f636f6e6669675f7370656369616c5f71756f74615f6e756d657261746f720000605a906000191690557f636f6e6669675f7370656369616c5f71756f74615f64656e6f6d696e61746f72605b906000191690557f7370656369616c5f71756f72756d5f6e756d657261746f720000000000000000605c906000191690557f7370656369616c5f71756f72756d5f64656e6f6d696e61746f72000000000000605d906000191690557f636f6e6669675f6d61785f72657075746174696f6e5f646564756374696f6e00605e906000191690557f636f6e6669675f70756e6973686d656e745f6e6f745f6c6f636b696e67000000605f906000191690557f636f6e6669675f7265705f7065725f65787472615f71705f6e756d00000000006060906000191690557f636f6e6669675f7265705f7065725f65787472615f71705f64656e00000000006061906000191690557f636f6e6669675f6d61785f6d5f72705f646564756374696f6e000000000000006062906000191690557f636f6e6669675f7265705f7065725f65787472615f6d5f71705f6e756d0000006063906000191690557f636f6e6669675f7265705f7065725f65787472615f6d5f71705f64656e0000006064906000191690557f636f6e6669675f6d6f645f706f7274696f6e5f6e756d000000000000000000006065906000191690557f636f6e6669675f6d6f645f706f7274696f6e5f64656e000000000000000000006066906000191690557f636f6e6669675f64726166745f766f74696e675f7068617365000000000000006067906000191690557f636f6e6669675f72705f626f6f73745f7065725f6261646765000000000000006068906000191690557f636f6e6669675f636c61696d696e675f646561646c696e6500000000000000006069906000191690557f636f6e6669675f70726570726f706f73616c5f636f6c6c61746572616c000000606a906000191690557f636f6e6669675f6d61785f66756e64696e675f6e6f6e44696769780000000000606b906000191690557f636f6e6669675f6d61785f6d696c6573746f6e65735f6e6f6e44696769780000606c906000191690557f636f6e6669675f6e6f6e44696769785f70726f706f73616c5f63617000000000606d906000191690557f636f6e6669675f646561645f6475726174696f6e000000000000000000000000606e906000191690557f636f6e6669675f63765f72657075746174696f6e000000000000000000000000606f90600019169055633b9aca00607355620f42406074553480156200114357600080fd5b5060405160208062003d728339810180604052810190808051906020019092919050505062001184602b548262001a0b640100000000026401000000009004565b15156200119057600080fd5b6201518060706000603854600019166000191681526020019081526020016000208190555062093a8060706000603954600019166000191681526020019081526020016000208190555061025860706000603a5460001916600019168152602001908152602001600020819055506104b060706000603b54600019166000191681526020019081526020016000208190555061025860706000603c5460001916600019168152602001908152602001600020819055506104b060706000603d546000191660001916815260200190815260200160002081905550600560706000603e546000191660001916815260200190815260200160002081905550606460706000603f54600019166000191681526020019081526020016000208190555060236070600060405460001916600019168152602001908152602001600020819055506064607060006041546000191660001916815260200190815260200160002081905550600560706000604254600019166000191681526020019081526020016000208190555060646070600060435460001916600019168152602001908152602001600020819055506019607060006044546000191660001916815260200190815260200160002081905550606460706000604554600019166000191681526020019081526020016000208190555060016070600060485460001916600019168152602001908152602001600020819055506002607060006049546000191660001916815260200190815260200160002081905550600160706000604a546000191660001916815260200190815260200160002081905550600260706000604b546000191660001916815260200190815260200160002081905550607354607060006052546000191660001916815260200190815260200160002081905550607354607060006053546000191660001916815260200190815260200160002081905550607354607060006054546000191660001916815260200190815260200160002081905550607354614e2002607060006055546000191660001916815260200190815260200160002081905550600f60706000605654600019166000191681526020019081526020016000208190555060646070600060575460001916600019168152602001908152602001600020819055506102586070600060585460001916600019168152602001908152602001600020819055506104b0607060006059546000191660001916815260200190815260200160002081905550600160706000605a546000191660001916815260200190815260200160002081905550600260706000605b546000191660001916815260200190815260200160002081905550602860706000605c546000191660001916815260200190815260200160002081905550606460706000605d54600019166000191681526020019081526020016000208190555060745461208e0260706000605e5460001916600019168152602001908152602001600020819055506074546106820260706000605f5460001916600019168152602001908152602001600020819055506001607060006060546000191660001916815260200190815260200160002081905550600160706000606154600019166000191681526020019081526020016000208190555060735460020260706000604c5460001916600019168152602001908152602001600020819055506073546101900260706000604d5460001916600019168152602001908152602001600020819055506073546107d00260706000604e54600019166000191681526020019081526020016000208190555060735460040260706000604f546000191660001916815260200190815260200160002081905550607354610190026070600060505460001916600019168152602001908152602001600020819055506073546107d002607060006051546000191660001916815260200190815260200160002081905550602a6070600060655460001916600019168152602001908152602001600020819055506103e860706000606654600019166000191681526020019081526020016000208190555061025860706000606754600019166000191681526020019081526020016000208190555060745462064b5402607060006068546000191660001916815260200190815260200160002081905550600760706000604654600019166000191681526020019081526020016000208190555060646070600060475460001916600019168152602001908152602001600020819055506074546130d402607060006062546000191660001916815260200190815260200160002081905550600160706000606354600019166000191681526020019081526020016000208190555060016070600060645460001916600019168152602001908152602001600020819055506104b06070600060695460001916600019168152602001908152602001600020819055506073546001026070600060355460001916600019168152602001908152602001600020819055506073546002026070600060365460001916600019168152602001908152602001600020819055506000607060006037546000191660001916815260200190815260200160002081905550671bc16d674ec8000060706000606a54600019166000191681526020019081526020016000208190555068056bc75e2d6310000060706000606b546000191660001916815260200190815260200160002081905550600560706000606c546000191660001916815260200190815260200160002081905550605060706000606d5460001916600019168152602001908152602001600020819055506276a70060706000606e546000191660001916815260200190815260200160002081905550607354600a0260706000606f5460001916600019168152602001908152602001600020819055505062001c9c565b6000808273ffffffffffffffffffffffffffffffffffffffff16636d19a8826040518163ffffffff167c0100000000000000000000000000000000000000000000000000000000028152600401602060405180830381600087803b15801562001a7357600080fd5b505af115801562001a88573d6000803e3d6000fd5b505050506040513d602081101562001a9f57600080fd5b8101908080519060200190929190505050905060001515811515141562001c905730600260006101000a81548173ffffffffffffffffffffffffffffffffffffffff021916908373ffffffffffffffffffffffffffffffffffffffff160217905550826000806101000a81548173ffffffffffffffffffffffffffffffffffffffff021916908373ffffffffffffffffffffffffffffffffffffffff16021790555083600181600019169055506000809054906101000a900473ffffffffffffffffffffffffffffffffffffffff1673ffffffffffffffffffffffffffffffffffffffff1663c0f6ef4a600154600260009054906101000a900473ffffffffffffffffffffffffffffffffffffffff166040518363ffffffff167c01000000000000000000000000000000000000000000000000000000000281526004018083600019166000191681526020018273ffffffffffffffffffffffffffffffffffffffff1673ffffffffffffffffffffffffffffffffffffffff16815260200192505050602060405180830381600087803b15801562001c3d57600080fd5b505af115801562001c52573d6000803e3d6000fd5b505050506040513d602081101562001c6957600080fd5b8101908080519060200190929190505050151562001c8657600080fd5b6001915062001c95565b600091505b5092915050565b6120c68062001cac6000396000f300608060405260043610610099576000357c0100000000000000000000000000000000000000000000000000000000900463ffffffff16806304f3bcec1461009e5780633943380c146100f55780633977815b146101285780633f83acff14610194578063734c116814610205578063aecbca671461024a578063c0a8405d14610285578063db4ecbc1146102d2578063e6b39eab14610329575b600080fd5b3480156100aa57600080fd5b506100b361039a565b604051808273ffffffffffffffffffffffffffffffffffffffff1673ffffffffffffffffffffffffffffffffffffffff16815260200191505060405180910390f35b34801561010157600080fd5b5061010a6103bf565b60405180826000191660001916815260200191505060405180910390f35b34801561013457600080fd5b5061013d6103c5565b6040518080602001828103825283818151815260200191508051906020019060200280838360005b83811015610180578082015181840152602081019050610165565b505050509050019250505060405180910390f35b3480156101a057600080fd5b506101c3600480360381019080803560001916906020019092919050505061119b565b604051808273ffffffffffffffffffffffffffffffffffffffff1673ffffffffffffffffffffffffffffffffffffffff16815260200191505060405180910390f35b34801561021157600080fd5b506102346004803603810190808035600019169060200190929190505050611277565b6040518082815260200191505060405180910390f35b34801561025657600080fd5b5061028360048036038101908080359060200190820180359060200191909192939192939050505061128f565b005b34801561029157600080fd5b506102b46004803603810190808035600019169060200190929190505050611f1f565b60405180826000191660001916815260200191505060405180910390f35b3480156102de57600080fd5b506102e7611f37565b604051808273ffffffffffffffffffffffffffffffffffffffff1673ffffffffffffffffffffffffffffffffffffffff16815260200191505060405180910390f35b34801561033557600080fd5b506103586004803603810190808035600019169060200190929190505050611f5d565b604051808273ffffffffffffffffffffffffffffffffffffffff1673ffffffffffffffffffffffffffffffffffffffff16815260200191505060405180910390f35b6000809054906101000a900473ffffffffffffffffffffffffffffffffffffffff1681565b60015481565b606080603b6040519080825280602002602001820160405280156103f85781602001602082028038833980820191505090505b50905060706000603854600019166000191681526020019081526020016000205481600081518110151561042857fe5b906020019060200201818152505060706000603954600019166000191681526020019081526020016000205481600181518110151561046357fe5b906020019060200201818152505060706000603a54600019166000191681526020019081526020016000205481600281518110151561049e57fe5b906020019060200201818152505060706000603b5460001916600019168152602001908152602001600020548160038151811015156104d957fe5b906020019060200201818152505060706000603c54600019166000191681526020019081526020016000205481600481518110151561051457fe5b906020019060200201818152505060706000603d54600019166000191681526020019081526020016000205481600581518110151561054f57fe5b906020019060200201818152505060706000603e54600019166000191681526020019081526020016000205481600681518110151561058a57fe5b906020019060200201818152505060706000603f5460001916600019168152602001908152602001600020548160078151811015156105c557fe5b906020019060200201818152505060706000604054600019166000191681526020019081526020016000205481600881518110151561060057fe5b906020019060200201818152505060706000604154600019166000191681526020019081526020016000205481600981518110151561063b57fe5b906020019060200201818152505060706000604254600019166000191681526020019081526020016000205481600a81518110151561067657fe5b906020019060200201818152505060706000604354600019166000191681526020019081526020016000205481600b8151811015156106b157fe5b906020019060200201818152505060706000604454600019166000191681526020019081526020016000205481600c8151811015156106ec57fe5b906020019060200201818152505060706000604554600019166000191681526020019081526020016000205481600d81518110151561072757fe5b906020019060200201818152505060706000604854600019166000191681526020019081526020016000205481600e81518110151561076257fe5b906020019060200201818152505060706000604954600019166000191681526020019081526020016000205481600f81518110151561079d57fe5b906020019060200201818152505060706000604a5460001916600019168152602001908152602001600020548160108151811015156107d857fe5b906020019060200201818152505060706000604b54600019166000191681526020019081526020016000205481601181518110151561081357fe5b906020019060200201818152505060706000605254600019166000191681526020019081526020016000205481601281518110151561084e57fe5b906020019060200201818152505060706000605354600019166000191681526020019081526020016000205481601381518110151561088957fe5b90602001906020020181815250506070600060545460001916600019168152602001908152602001600020548160148151811015156108c457fe5b906020019060200201818152505060706000604c5460001916600019168152602001908152602001600020548160158151811015156108ff57fe5b906020019060200201818152505060706000605554600019166000191681526020019081526020016000205481601681518110151561093a57fe5b906020019060200201818152505060706000605654600019166000191681526020019081526020016000205481601781518110151561097557fe5b90602001906020020181815250506070600060575460001916600019168152602001908152602001600020548160188151811015156109b057fe5b90602001906020020181815250506070600060585460001916600019168152602001908152602001600020548160198151811015156109eb57fe5b906020019060200201818152505060706000605954600019166000191681526020019081526020016000205481601a815181101515610a2657fe5b906020019060200201818152505060706000605a54600019166000191681526020019081526020016000205481601b815181101515610a6157fe5b906020019060200201818152505060706000605b54600019166000191681526020019081526020016000205481601c815181101515610a9c57fe5b906020019060200201818152505060706000605c54600019166000191681526020019081526020016000205481601d815181101515610ad757fe5b906020019060200201818152505060706000605d54600019166000191681526020019081526020016000205481601e815181101515610b1257fe5b906020019060200201818152505060706000605e54600019166000191681526020019081526020016000205481601f815181101515610b4d57fe5b906020019060200201818152505060706000605f546000191660001916815260200190815260200160002054816020815181101515610b8857fe5b9060200190602002018181525050607060006060546000191660001916815260200190815260200160002054816021815181101515610bc357fe5b9060200190602002018181525050607060006061546000191660001916815260200190815260200160002054816022815181101515610bfe57fe5b906020019060200201818152505060706000604d546000191660001916815260200190815260200160002054816023815181101515610c3957fe5b906020019060200201818152505060706000604e546000191660001916815260200190815260200160002054816024815181101515610c7457fe5b906020019060200201818152505060706000604f546000191660001916815260200190815260200160002054816025815181101515610caf57fe5b9060200190602002018181525050607060006050546000191660001916815260200190815260200160002054816026815181101515610cea57fe5b9060200190602002018181525050607060006051546000191660001916815260200190815260200160002054816027815181101515610d2557fe5b9060200190602002018181525050607060006065546000191660001916815260200190815260200160002054816028815181101515610d6057fe5b9060200190602002018181525050607060006066546000191660001916815260200190815260200160002054816029815181101515610d9b57fe5b906020019060200201818152505060706000606754600019166000191681526020019081526020016000205481602a815181101515610dd657fe5b906020019060200201818152505060706000606854600019166000191681526020019081526020016000205481602b815181101515610e1157fe5b906020019060200201818152505060706000604654600019166000191681526020019081526020016000205481602c815181101515610e4c57fe5b906020019060200201818152505060706000604754600019166000191681526020019081526020016000205481602d815181101515610e8757fe5b906020019060200201818152505060706000606254600019166000191681526020019081526020016000205481602e815181101515610ec257fe5b906020019060200201818152505060706000606354600019166000191681526020019081526020016000205481602f815181101515610efd57fe5b9060200190602002018181525050607060006064546000191660001916815260200190815260200160002054816030815181101515610f3857fe5b9060200190602002018181525050607060006069546000191660001916815260200190815260200160002054816031815181101515610f7357fe5b9060200190602002018181525050607060006035546000191660001916815260200190815260200160002054816032815181101515610fae57fe5b9060200190602002018181525050607060006036546000191660001916815260200190815260200160002054816033815181101515610fe957fe5b906020019060200201818152505060706000603754600019166000191681526020019081526020016000205481603481518110151561102457fe5b906020019060200201818152505060706000606a54600019166000191681526020019081526020016000205481603581518110151561105f57fe5b906020019060200201818152505060706000606b54600019166000191681526020019081526020016000205481603681518110151561109a57fe5b906020019060200201818152505060706000606c5460001916600019168152602001908152602001600020548160378151811015156110d557fe5b906020019060200201818152505060706000606d54600019166000191681526020019081526020016000205481603881518110151561111057fe5b906020019060200201818152505060706000606e54600019166000191681526020019081526020016000205481603981518110151561114b57fe5b906020019060200201818152505060706000606f54600019166000191681526020019081526020016000205481603a81518110151561118657fe5b90602001906020020181815250508091505090565b60008060009054906101000a900473ffffffffffffffffffffffffffffffffffffffff1673ffffffffffffffffffffffffffffffffffffffff16633f83acff836040518263ffffffff167c0100000000000000000000000000000000000000000000000000000000028152600401808260001916600019168152602001915050602060405180830381600087803b15801561123557600080fd5b505af1158015611249573d6000803e3d6000fd5b505050506040513d602081101561125f57600080fd5b81019080805190602001909291905050509050919050565b60706020528060005260406000206000915090505481565b61129a601954611f90565b15156112a557600080fd5b8181600081811015156112b457fe5b905060200201356070600060385460001916600019168152602001908152602001600020819055508181600281811015156112eb57fe5b9050602002013560706000603a54600019166000191681526020019081526020016000208190555081816003818110151561132257fe5b9050602002013560706000603b54600019166000191681526020019081526020016000208190555081816004818110151561135957fe5b9050602002013560706000603c54600019166000191681526020019081526020016000208190555081816005818110151561139057fe5b9050602002013560706000603d5460001916600019168152602001908152602001600020819055508181600681811015156113c757fe5b9050602002013560706000603e5460001916600019168152602001908152602001600020819055508181600781811015156113fe57fe5b9050602002013560706000603f54600019166000191681526020019081526020016000208190555081816008818110151561143557fe5b9050602002013560706000604054600019166000191681526020019081526020016000208190555081816009818110151561146c57fe5b905060200201356070600060415460001916600019168152602001908152602001600020819055508181600a81811015156114a357fe5b905060200201356070600060425460001916600019168152602001908152602001600020819055508181600b81811015156114da57fe5b905060200201356070600060435460001916600019168152602001908152602001600020819055508181600c818110151561151157fe5b905060200201356070600060445460001916600019168152602001908152602001600020819055508181600d818110151561154857fe5b905060200201356070600060455460001916600019168152602001908152602001600020819055508181600e818110151561157f57fe5b905060200201356070600060485460001916600019168152602001908152602001600020819055508181600f81811015156115b657fe5b905060200201356070600060495460001916600019168152602001908152602001600020819055508181601081811015156115ed57fe5b9050602002013560706000604a54600019166000191681526020019081526020016000208190555081816011818110151561162457fe5b9050602002013560706000604b54600019166000191681526020019081526020016000208190555081816012818110151561165b57fe5b9050602002013560706000605254600019166000191681526020019081526020016000208190555081816013818110151561169257fe5b905060200201356070600060535460001916600019168152602001908152602001600020819055508181601481811015156116c957fe5b9050602002013560706000605454600019166000191681526020019081526020016000208190555081816015818110151561170057fe5b9050602002013560706000604c54600019166000191681526020019081526020016000208190555081816016818110151561173757fe5b9050602002013560706000605554600019166000191681526020019081526020016000208190555081816017818110151561176e57fe5b905060200201356070600060565460001916600019168152602001908152602001600020819055508181601881811015156117a557fe5b905060200201356070600060575460001916600019168152602001908152602001600020819055508181601981811015156117dc57fe5b905060200201356070600060585460001916600019168152602001908152602001600020819055508181601a818110151561181357fe5b905060200201356070600060595460001916600019168152602001908152602001600020819055508181601b818110151561184a57fe5b9050602002013560706000605a5460001916600019168152602001908152602001600020819055508181601c818110151561188157fe5b9050602002013560706000605b5460001916600019168152602001908152602001600020819055508181601d81811015156118b857fe5b9050602002013560706000605c5460001916600019168152602001908152602001600020819055508181601e81811015156118ef57fe5b9050602002013560706000605d5460001916600019168152602001908152602001600020819055508181601f818110151561192657fe5b9050602002013560706000605e54600019166000191681526020019081526020016000208190555081816020818110151561195d57fe5b9050602002013560706000605f54600019166000191681526020019081526020016000208190555081816021818110151561199457fe5b905060200201356070600060605460001916600019168152602001908152602001600020819055508181602281811015156119cb57fe5b90506020020135607060006061546000191660001916815260200190815260200160002081905550818160238181101515611a0257fe5b9050602002013560706000604d546000191660001916815260200190815260200160002081905550818160248181101515611a3957fe5b9050602002013560706000604e546000191660001916815260200190815260200160002081905550818160258181101515611a7057fe5b9050602002013560706000604f546000191660001916815260200190815260200160002081905550818160268181101515611aa757fe5b90506020020135607060006050546000191660001916815260200190815260200160002081905550818160278181101515611ade57fe5b90506020020135607060006051546000191660001916815260200190815260200160002081905550818160288181101515611b1557fe5b90506020020135607060006065546000191660001916815260200190815260200160002081905550818160298181101515611b4c57fe5b905060200201356070600060665460001916600019168152602001908152602001600020819055508181602a8181101515611b8357fe5b905060200201356070600060675460001916600019168152602001908152602001600020819055508181602b8181101515611bba57fe5b905060200201356070600060685460001916600019168152602001908152602001600020819055508181602c8181101515611bf157fe5b905060200201356070600060465460001916600019168152602001908152602001600020819055508181602d8181101515611c2857fe5b905060200201356070600060475460001916600019168152602001908152602001600020819055508181602e8181101515611c5f57fe5b905060200201356070600060625460001916600019168152602001908152602001600020819055508181602f8181101515611c9657fe5b90506020020135607060006063546000191660001916815260200190815260200160002081905550818160308181101515611ccd57fe5b90506020020135607060006064546000191660001916815260200190815260200160002081905550818160318181101515611d0457fe5b90506020020135607060006069546000191660001916815260200190815260200160002081905550818160328181101515611d3b57fe5b90506020020135607060006035546000191660001916815260200190815260200160002081905550818160338181101515611d7257fe5b90506020020135607060006036546000191660001916815260200190815260200160002081905550818160348181101515611da957fe5b90506020020135607060006037546000191660001916815260200190815260200160002081905550818160358181101515611de057fe5b9050602002013560706000606a546000191660001916815260200190815260200160002081905550818160368181101515611e1757fe5b9050602002013560706000606b546000191660001916815260200190815260200160002081905550818160378181101515611e4e57fe5b9050602002013560706000606c546000191660001916815260200190815260200160002081905550818160388181101515611e8557fe5b9050602002013560706000606d546000191660001916815260200190815260200160002081905550818160398181101515611ebc57fe5b9050602002013560706000606e5460001916600019168152602001908152602001600020819055508181603a8181101515611ef357fe5b9050602002013560706000606f5460001916600019168152602001908152602001600020819055505050565b60726020528060005260406000206000915090505481565b600260009054906101000a900473ffffffffffffffffffffffffffffffffffffffff1681565b60716020528060005260406000206000915054906101000a900473ffffffffffffffffffffffffffffffffffffffff1681565b60008060009054906101000a900473ffffffffffffffffffffffffffffffffffffffff1673ffffffffffffffffffffffffffffffffffffffff16633f83acff836040518263ffffffff167c0100000000000000000000000000000000000000000000000000000000028152600401808260001916600019168152602001915050602060405180830381600087803b15801561202a57600080fd5b505af115801561203e573d6000803e3d6000fd5b505050506040513d602081101561205457600080fd5b810190808051906020019092919050505073ffffffffffffffffffffffffffffffffffffffff163373ffffffffffffffffffffffffffffffffffffffff161490509190505600a165627a7a723058201ee3ba3b0e14846ab919f858a61f41cc0e01288eb658edb43af0900573b704f60029",
  "source": "pragma solidity ^0.4.25;\n\nimport \"@digix/cacp-contracts-dao/contracts/ResolverClient.sol\";\nimport \"../common/DaoConstants.sol\";\n\ncontract DaoConfigsStorage is ResolverClient, DaoConstants {\n\n    // mapping of config name to config value\n    // config names can be found in DaoConstants contract\n    mapping (bytes32 => uint256) public uintConfigs;\n\n    // mapping of config name to config value\n    // config names can be found in DaoConstants contract\n    mapping (bytes32 => address) public addressConfigs;\n\n    // mapping of config name to config value\n    // config names can be found in DaoConstants contract\n    mapping (bytes32 => bytes32) public bytesConfigs;\n\n    uint256 ONE_BILLION = 1000000000;\n    uint256 ONE_MILLION = 1000000;\n\n    constructor(address _resolver)\n        public\n    {\n        require(init(CONTRACT_STORAGE_DAO_CONFIG, _resolver));\n\n        uintConfigs[CONFIG_LOCKING_PHASE_DURATION] = 1 days;\n        uintConfigs[CONFIG_QUARTER_DURATION] = 7 days;\n        uintConfigs[CONFIG_VOTING_COMMIT_PHASE] = 10 minutes;\n        uintConfigs[CONFIG_VOTING_PHASE_TOTAL] = 20 minutes;\n        uintConfigs[CONFIG_INTERIM_COMMIT_PHASE] = 10 minutes;\n        uintConfigs[CONFIG_INTERIM_PHASE_TOTAL] = 20 minutes;\n\n\n\n        uintConfigs[CONFIG_DRAFT_QUORUM_FIXED_PORTION_NUMERATOR] = 5; // 5%\n        uintConfigs[CONFIG_DRAFT_QUORUM_FIXED_PORTION_DENOMINATOR] = 100; // 5%\n        uintConfigs[CONFIG_DRAFT_QUORUM_SCALING_FACTOR_NUMERATOR] = 35; // 35%\n        uintConfigs[CONFIG_DRAFT_QUORUM_SCALING_FACTOR_DENOMINATOR] = 100; // 35%\n\n\n        uintConfigs[CONFIG_VOTING_QUORUM_FIXED_PORTION_NUMERATOR] = 5; // 5%\n        uintConfigs[CONFIG_VOTING_QUORUM_FIXED_PORTION_DENOMINATOR] = 100; // 5%\n        uintConfigs[CONFIG_VOTING_QUORUM_SCALING_FACTOR_NUMERATOR] = 25; // 25%\n        uintConfigs[CONFIG_VOTING_QUORUM_SCALING_FACTOR_DENOMINATOR] = 100; // 25%\n\n        uintConfigs[CONFIG_DRAFT_QUOTA_NUMERATOR] = 1; // >50%\n        uintConfigs[CONFIG_DRAFT_QUOTA_DENOMINATOR] = 2; // >50%\n        uintConfigs[CONFIG_VOTING_QUOTA_NUMERATOR] = 1; // >50%\n        uintConfigs[CONFIG_VOTING_QUOTA_DENOMINATOR] = 2; // >50%\n\n\n        uintConfigs[CONFIG_QUARTER_POINT_DRAFT_VOTE] = ONE_BILLION;\n        uintConfigs[CONFIG_QUARTER_POINT_VOTE] = ONE_BILLION;\n        uintConfigs[CONFIG_QUARTER_POINT_INTERIM_VOTE] = ONE_BILLION;\n\n        uintConfigs[CONFIG_QUARTER_POINT_MILESTONE_COMPLETION_PER_10000ETH] = 20000 * ONE_BILLION;\n\n        uintConfigs[CONFIG_BONUS_REPUTATION_NUMERATOR] = 15; // 15% bonus for consistent votes\n        uintConfigs[CONFIG_BONUS_REPUTATION_DENOMINATOR] = 100; // 15% bonus for consistent votes\n\n        uintConfigs[CONFIG_SPECIAL_PROPOSAL_COMMIT_PHASE] = 10 minutes;\n        uintConfigs[CONFIG_SPECIAL_PROPOSAL_PHASE_TOTAL] = 20 minutes;\n\n\n\n        uintConfigs[CONFIG_SPECIAL_QUOTA_NUMERATOR] = 1; // >50%\n        uintConfigs[CONFIG_SPECIAL_QUOTA_DENOMINATOR] = 2; // >50%\n\n        uintConfigs[CONFIG_SPECIAL_PROPOSAL_QUORUM_NUMERATOR] = 40; // 40%\n        uintConfigs[CONFIG_SPECIAL_PROPOSAL_QUORUM_DENOMINATOR] = 100; // 40%\n\n        uintConfigs[CONFIG_MAXIMUM_REPUTATION_DEDUCTION] = 8334 * ONE_MILLION;\n\n        uintConfigs[CONFIG_PUNISHMENT_FOR_NOT_LOCKING] = 1666 * ONE_MILLION;\n        uintConfigs[CONFIG_REPUTATION_PER_EXTRA_QP_NUM] = 1; // 1 extra QP gains 1/1 RP\n        uintConfigs[CONFIG_REPUTATION_PER_EXTRA_QP_DEN] = 1;\n\n\n        uintConfigs[CONFIG_MINIMAL_QUARTER_POINT] = 2 * ONE_BILLION;\n        uintConfigs[CONFIG_QUARTER_POINT_SCALING_FACTOR] = 400 * ONE_BILLION;\n        uintConfigs[CONFIG_REPUTATION_POINT_SCALING_FACTOR] = 2000 * ONE_BILLION;\n\n        uintConfigs[CONFIG_MODERATOR_MINIMAL_QUARTER_POINT] = 4 * ONE_BILLION;\n        uintConfigs[CONFIG_MODERATOR_QUARTER_POINT_SCALING_FACTOR] = 400 * ONE_BILLION;\n        uintConfigs[CONFIG_MODERATOR_REPUTATION_POINT_SCALING_FACTOR] = 2000 * ONE_BILLION;\n\n        uintConfigs[CONFIG_PORTION_TO_MODERATORS_NUM] = 42; //4.2% of DGX to moderator voting activity\n        uintConfigs[CONFIG_PORTION_TO_MODERATORS_DEN] = 1000;\n\n        uintConfigs[CONFIG_DRAFT_VOTING_PHASE] = 10 minutes;\n\n        uintConfigs[CONFIG_REPUTATION_POINT_BOOST_FOR_BADGE] = 412500 * ONE_MILLION;\n\n        uintConfigs[CONFIG_FINAL_REWARD_SCALING_FACTOR_NUMERATOR] = 7; // 7%\n        uintConfigs[CONFIG_FINAL_REWARD_SCALING_FACTOR_DENOMINATOR] = 100; // 7%\n\n        uintConfigs[CONFIG_MAXIMUM_MODERATOR_REPUTATION_DEDUCTION] = 12500 * ONE_MILLION;\n        uintConfigs[CONFIG_REPUTATION_PER_EXTRA_MODERATOR_QP_NUM] = 1;\n        uintConfigs[CONFIG_REPUTATION_PER_EXTRA_MODERATOR_QP_DEN] = 1;\n\n        uintConfigs[CONFIG_VOTE_CLAIMING_DEADLINE] = 20 minutes;\n\n        uintConfigs[CONFIG_MINIMUM_LOCKED_DGD] = 1 * ONE_BILLION;\n        uintConfigs[CONFIG_MINIMUM_DGD_FOR_MODERATOR] = 2 * ONE_BILLION;\n        uintConfigs[CONFIG_MINIMUM_REPUTATION_FOR_MODERATOR] = 0;\n\n        uintConfigs[CONFIG_PREPROPOSAL_COLLATERAL] = 2 ether;\n\n        uintConfigs[CONFIG_MAX_FUNDING_FOR_NON_DIGIX] = 100 ether;\n        uintConfigs[CONFIG_MAX_MILESTONES_FOR_NON_DIGIX] = 5;\n        uintConfigs[CONFIG_NON_DIGIX_PROPOSAL_CAP_PER_QUARTER] = 80;\n\n        uintConfigs[CONFIG_PROPOSAL_DEAD_DURATION] = 90 days;\n        uintConfigs[CONFIG_CARBON_VOTE_REPUTATION_BONUS] = 10 * ONE_BILLION;\n    }\n\n    function updateUintConfigs(uint256[] _uintConfigs)\n        external\n    {\n        require(sender_is(CONTRACT_DAO_SPECIAL_VOTING_CLAIMS));\n        uintConfigs[CONFIG_LOCKING_PHASE_DURATION] = _uintConfigs[0];\n        /*\n        This used to be a config that can be changed. Now, _uintConfigs[1] is just a dummy config that doesnt do anything\n        uintConfigs[CONFIG_QUARTER_DURATION] = _uintConfigs[1];\n        */\n        uintConfigs[CONFIG_VOTING_COMMIT_PHASE] = _uintConfigs[2];\n        uintConfigs[CONFIG_VOTING_PHASE_TOTAL] = _uintConfigs[3];\n        uintConfigs[CONFIG_INTERIM_COMMIT_PHASE] = _uintConfigs[4];\n        uintConfigs[CONFIG_INTERIM_PHASE_TOTAL] = _uintConfigs[5];\n        uintConfigs[CONFIG_DRAFT_QUORUM_FIXED_PORTION_NUMERATOR] = _uintConfigs[6];\n        uintConfigs[CONFIG_DRAFT_QUORUM_FIXED_PORTION_DENOMINATOR] = _uintConfigs[7];\n        uintConfigs[CONFIG_DRAFT_QUORUM_SCALING_FACTOR_NUMERATOR] = _uintConfigs[8];\n        uintConfigs[CONFIG_DRAFT_QUORUM_SCALING_FACTOR_DENOMINATOR] = _uintConfigs[9];\n        uintConfigs[CONFIG_VOTING_QUORUM_FIXED_PORTION_NUMERATOR] = _uintConfigs[10];\n        uintConfigs[CONFIG_VOTING_QUORUM_FIXED_PORTION_DENOMINATOR] = _uintConfigs[11];\n        uintConfigs[CONFIG_VOTING_QUORUM_SCALING_FACTOR_NUMERATOR] = _uintConfigs[12];\n        uintConfigs[CONFIG_VOTING_QUORUM_SCALING_FACTOR_DENOMINATOR] = _uintConfigs[13];\n        uintConfigs[CONFIG_DRAFT_QUOTA_NUMERATOR] = _uintConfigs[14];\n        uintConfigs[CONFIG_DRAFT_QUOTA_DENOMINATOR] = _uintConfigs[15];\n        uintConfigs[CONFIG_VOTING_QUOTA_NUMERATOR] = _uintConfigs[16];\n        uintConfigs[CONFIG_VOTING_QUOTA_DENOMINATOR] = _uintConfigs[17];\n        uintConfigs[CONFIG_QUARTER_POINT_DRAFT_VOTE] = _uintConfigs[18];\n        uintConfigs[CONFIG_QUARTER_POINT_VOTE] = _uintConfigs[19];\n        uintConfigs[CONFIG_QUARTER_POINT_INTERIM_VOTE] = _uintConfigs[20];\n        uintConfigs[CONFIG_MINIMAL_QUARTER_POINT] = _uintConfigs[21];\n        uintConfigs[CONFIG_QUARTER_POINT_MILESTONE_COMPLETION_PER_10000ETH] = _uintConfigs[22];\n        uintConfigs[CONFIG_BONUS_REPUTATION_NUMERATOR] = _uintConfigs[23];\n        uintConfigs[CONFIG_BONUS_REPUTATION_DENOMINATOR] = _uintConfigs[24];\n        uintConfigs[CONFIG_SPECIAL_PROPOSAL_COMMIT_PHASE] = _uintConfigs[25];\n        uintConfigs[CONFIG_SPECIAL_PROPOSAL_PHASE_TOTAL] = _uintConfigs[26];\n        uintConfigs[CONFIG_SPECIAL_QUOTA_NUMERATOR] = _uintConfigs[27];\n        uintConfigs[CONFIG_SPECIAL_QUOTA_DENOMINATOR] = _uintConfigs[28];\n        uintConfigs[CONFIG_SPECIAL_PROPOSAL_QUORUM_NUMERATOR] = _uintConfigs[29];\n        uintConfigs[CONFIG_SPECIAL_PROPOSAL_QUORUM_DENOMINATOR] = _uintConfigs[30];\n        uintConfigs[CONFIG_MAXIMUM_REPUTATION_DEDUCTION] = _uintConfigs[31];\n        uintConfigs[CONFIG_PUNISHMENT_FOR_NOT_LOCKING] = _uintConfigs[32];\n        uintConfigs[CONFIG_REPUTATION_PER_EXTRA_QP_NUM] = _uintConfigs[33];\n        uintConfigs[CONFIG_REPUTATION_PER_EXTRA_QP_DEN] = _uintConfigs[34];\n        uintConfigs[CONFIG_QUARTER_POINT_SCALING_FACTOR] = _uintConfigs[35];\n        uintConfigs[CONFIG_REPUTATION_POINT_SCALING_FACTOR] = _uintConfigs[36];\n        uintConfigs[CONFIG_MODERATOR_MINIMAL_QUARTER_POINT] = _uintConfigs[37];\n        uintConfigs[CONFIG_MODERATOR_QUARTER_POINT_SCALING_FACTOR] = _uintConfigs[38];\n        uintConfigs[CONFIG_MODERATOR_REPUTATION_POINT_SCALING_FACTOR] = _uintConfigs[39];\n        uintConfigs[CONFIG_PORTION_TO_MODERATORS_NUM] = _uintConfigs[40];\n        uintConfigs[CONFIG_PORTION_TO_MODERATORS_DEN] = _uintConfigs[41];\n        uintConfigs[CONFIG_DRAFT_VOTING_PHASE] = _uintConfigs[42];\n        uintConfigs[CONFIG_REPUTATION_POINT_BOOST_FOR_BADGE] = _uintConfigs[43];\n        uintConfigs[CONFIG_FINAL_REWARD_SCALING_FACTOR_NUMERATOR] = _uintConfigs[44];\n        uintConfigs[CONFIG_FINAL_REWARD_SCALING_FACTOR_DENOMINATOR] = _uintConfigs[45];\n        uintConfigs[CONFIG_MAXIMUM_MODERATOR_REPUTATION_DEDUCTION] = _uintConfigs[46];\n        uintConfigs[CONFIG_REPUTATION_PER_EXTRA_MODERATOR_QP_NUM] = _uintConfigs[47];\n        uintConfigs[CONFIG_REPUTATION_PER_EXTRA_MODERATOR_QP_DEN] = _uintConfigs[48];\n        uintConfigs[CONFIG_VOTE_CLAIMING_DEADLINE] = _uintConfigs[49];\n        uintConfigs[CONFIG_MINIMUM_LOCKED_DGD] = _uintConfigs[50];\n        uintConfigs[CONFIG_MINIMUM_DGD_FOR_MODERATOR] = _uintConfigs[51];\n        uintConfigs[CONFIG_MINIMUM_REPUTATION_FOR_MODERATOR] = _uintConfigs[52];\n        uintConfigs[CONFIG_PREPROPOSAL_COLLATERAL] = _uintConfigs[53];\n        uintConfigs[CONFIG_MAX_FUNDING_FOR_NON_DIGIX] = _uintConfigs[54];\n        uintConfigs[CONFIG_MAX_MILESTONES_FOR_NON_DIGIX] = _uintConfigs[55];\n        uintConfigs[CONFIG_NON_DIGIX_PROPOSAL_CAP_PER_QUARTER] = _uintConfigs[56];\n        uintConfigs[CONFIG_PROPOSAL_DEAD_DURATION] = _uintConfigs[57];\n        uintConfigs[CONFIG_CARBON_VOTE_REPUTATION_BONUS] = _uintConfigs[58];\n    }\n\n    function readUintConfigs()\n        public\n        view\n        returns (uint256[])\n    {\n        uint256[] memory _uintConfigs = new uint256[](59);\n        _uintConfigs[0] = uintConfigs[CONFIG_LOCKING_PHASE_DURATION];\n        _uintConfigs[1] = uintConfigs[CONFIG_QUARTER_DURATION];\n        _uintConfigs[2] = uintConfigs[CONFIG_VOTING_COMMIT_PHASE];\n        _uintConfigs[3] = uintConfigs[CONFIG_VOTING_PHASE_TOTAL];\n        _uintConfigs[4] = uintConfigs[CONFIG_INTERIM_COMMIT_PHASE];\n        _uintConfigs[5] = uintConfigs[CONFIG_INTERIM_PHASE_TOTAL];\n        _uintConfigs[6] = uintConfigs[CONFIG_DRAFT_QUORUM_FIXED_PORTION_NUMERATOR];\n        _uintConfigs[7] = uintConfigs[CONFIG_DRAFT_QUORUM_FIXED_PORTION_DENOMINATOR];\n        _uintConfigs[8] = uintConfigs[CONFIG_DRAFT_QUORUM_SCALING_FACTOR_NUMERATOR];\n        _uintConfigs[9] = uintConfigs[CONFIG_DRAFT_QUORUM_SCALING_FACTOR_DENOMINATOR];\n        _uintConfigs[10] = uintConfigs[CONFIG_VOTING_QUORUM_FIXED_PORTION_NUMERATOR];\n        _uintConfigs[11] = uintConfigs[CONFIG_VOTING_QUORUM_FIXED_PORTION_DENOMINATOR];\n        _uintConfigs[12] = uintConfigs[CONFIG_VOTING_QUORUM_SCALING_FACTOR_NUMERATOR];\n        _uintConfigs[13] = uintConfigs[CONFIG_VOTING_QUORUM_SCALING_FACTOR_DENOMINATOR];\n        _uintConfigs[14] = uintConfigs[CONFIG_DRAFT_QUOTA_NUMERATOR];\n        _uintConfigs[15] = uintConfigs[CONFIG_DRAFT_QUOTA_DENOMINATOR];\n        _uintConfigs[16] = uintConfigs[CONFIG_VOTING_QUOTA_NUMERATOR];\n        _uintConfigs[17] = uintConfigs[CONFIG_VOTING_QUOTA_DENOMINATOR];\n        _uintConfigs[18] = uintConfigs[CONFIG_QUARTER_POINT_DRAFT_VOTE];\n        _uintConfigs[19] = uintConfigs[CONFIG_QUARTER_POINT_VOTE];\n        _uintConfigs[20] = uintConfigs[CONFIG_QUARTER_POINT_INTERIM_VOTE];\n        _uintConfigs[21] = uintConfigs[CONFIG_MINIMAL_QUARTER_POINT];\n        _uintConfigs[22] = uintConfigs[CONFIG_QUARTER_POINT_MILESTONE_COMPLETION_PER_10000ETH];\n        _uintConfigs[23] = uintConfigs[CONFIG_BONUS_REPUTATION_NUMERATOR];\n        _uintConfigs[24] = uintConfigs[CONFIG_BONUS_REPUTATION_DENOMINATOR];\n        _uintConfigs[25] = uintConfigs[CONFIG_SPECIAL_PROPOSAL_COMMIT_PHASE];\n        _uintConfigs[26] = uintConfigs[CONFIG_SPECIAL_PROPOSAL_PHASE_TOTAL];\n        _uintConfigs[27] = uintConfigs[CONFIG_SPECIAL_QUOTA_NUMERATOR];\n        _uintConfigs[28] = uintConfigs[CONFIG_SPECIAL_QUOTA_DENOMINATOR];\n        _uintConfigs[29] = uintConfigs[CONFIG_SPECIAL_PROPOSAL_QUORUM_NUMERATOR];\n        _uintConfigs[30] = uintConfigs[CONFIG_SPECIAL_PROPOSAL_QUORUM_DENOMINATOR];\n        _uintConfigs[31] = uintConfigs[CONFIG_MAXIMUM_REPUTATION_DEDUCTION];\n        _uintConfigs[32] = uintConfigs[CONFIG_PUNISHMENT_FOR_NOT_LOCKING];\n        _uintConfigs[33] = uintConfigs[CONFIG_REPUTATION_PER_EXTRA_QP_NUM];\n        _uintConfigs[34] = uintConfigs[CONFIG_REPUTATION_PER_EXTRA_QP_DEN];\n        _uintConfigs[35] = uintConfigs[CONFIG_QUARTER_POINT_SCALING_FACTOR];\n        _uintConfigs[36] = uintConfigs[CONFIG_REPUTATION_POINT_SCALING_FACTOR];\n        _uintConfigs[37] = uintConfigs[CONFIG_MODERATOR_MINIMAL_QUARTER_POINT];\n        _uintConfigs[38] = uintConfigs[CONFIG_MODERATOR_QUARTER_POINT_SCALING_FACTOR];\n        _uintConfigs[39] = uintConfigs[CONFIG_MODERATOR_REPUTATION_POINT_SCALING_FACTOR];\n        _uintConfigs[40] = uintConfigs[CONFIG_PORTION_TO_MODERATORS_NUM];\n        _uintConfigs[41] = uintConfigs[CONFIG_PORTION_TO_MODERATORS_DEN];\n        _uintConfigs[42] = uintConfigs[CONFIG_DRAFT_VOTING_PHASE];\n        _uintConfigs[43] = uintConfigs[CONFIG_REPUTATION_POINT_BOOST_FOR_BADGE];\n        _uintConfigs[44] = uintConfigs[CONFIG_FINAL_REWARD_SCALING_FACTOR_NUMERATOR];\n        _uintConfigs[45] = uintConfigs[CONFIG_FINAL_REWARD_SCALING_FACTOR_DENOMINATOR];\n        _uintConfigs[46] = uintConfigs[CONFIG_MAXIMUM_MODERATOR_REPUTATION_DEDUCTION];\n        _uintConfigs[47] = uintConfigs[CONFIG_REPUTATION_PER_EXTRA_MODERATOR_QP_NUM];\n        _uintConfigs[48] = uintConfigs[CONFIG_REPUTATION_PER_EXTRA_MODERATOR_QP_DEN];\n        _uintConfigs[49] = uintConfigs[CONFIG_VOTE_CLAIMING_DEADLINE];\n        _uintConfigs[50] = uintConfigs[CONFIG_MINIMUM_LOCKED_DGD];\n        _uintConfigs[51] = uintConfigs[CONFIG_MINIMUM_DGD_FOR_MODERATOR];\n        _uintConfigs[52] = uintConfigs[CONFIG_MINIMUM_REPUTATION_FOR_MODERATOR];\n        _uintConfigs[53] = uintConfigs[CONFIG_PREPROPOSAL_COLLATERAL];\n        _uintConfigs[54] = uintConfigs[CONFIG_MAX_FUNDING_FOR_NON_DIGIX];\n        _uintConfigs[55] = uintConfigs[CONFIG_MAX_MILESTONES_FOR_NON_DIGIX];\n        _uintConfigs[56] = uintConfigs[CONFIG_NON_DIGIX_PROPOSAL_CAP_PER_QUARTER];\n        _uintConfigs[57] = uintConfigs[CONFIG_PROPOSAL_DEAD_DURATION];\n        _uintConfigs[58] = uintConfigs[CONFIG_CARBON_VOTE_REPUTATION_BONUS];\n        return _uintConfigs;\n    }\n}\n",
  "sourcePath": "/home/rohit/Develop/dao-contracts/contracts/storage/DaoConfigsStorage.sol",
  "compiler": {
    "name": "solc",
    "version": "0.4.25+commit.59dbf8f1.Emscripten.clang"
  },
  "schemaVersion": "2.0.2",
  "updatedAt": "2019-03-19T02:43:24.505Z"
}