{
  "contractName": "DaoCalculatorService",
  "abi": [
    {
      "constant": true,
      "inputs": [],
      "name": "resolver",
      "outputs": [
        {
          "name": "",
          "type": "address"
        }
      ],
      "payable": false,
      "stateMutability": "view",
      "type": "function"
    },
    {
      "constant": true,
      "inputs": [
        {
          "name": "_configKey",
          "type": "bytes32"
        }
      ],
      "name": "getAddressConfig",
      "outputs": [
        {
          "name": "_configValue",
          "type": "address"
        }
      ],
      "payable": false,
      "stateMutability": "view",
      "type": "function"
    },
    {
      "constant": true,
      "inputs": [],
      "name": "key",
      "outputs": [
        {
          "name": "",
          "type": "bytes32"
        }
      ],
      "payable": false,
      "stateMutability": "view",
      "type": "function"
    },
    {
      "constant": true,
      "inputs": [
        {
          "name": "_key",
          "type": "bytes32"
        }
      ],
      "name": "get_contract",
      "outputs": [
        {
          "name": "_contract",
          "type": "address"
        }
      ],
      "payable": false,
      "stateMutability": "view",
      "type": "function"
    },
    {
      "constant": true,
      "inputs": [],
      "name": "currentTimeInQuarter",
      "outputs": [
        {
          "name": "_currentT",
          "type": "uint256"
        }
      ],
      "payable": false,
      "stateMutability": "view",
      "type": "function"
    },
    {
      "constant": true,
      "inputs": [],
      "name": "isMainPhase",
      "outputs": [
        {
          "name": "_isMainPhase",
          "type": "bool"
        }
      ],
      "payable": false,
      "stateMutability": "view",
      "type": "function"
    },
    {
      "constant": true,
      "inputs": [],
      "name": "dgxDemurrageCalculatorAddress",
      "outputs": [
        {
          "name": "",
          "type": "address"
        }
      ],
      "payable": false,
      "stateMutability": "view",
      "type": "function"
    },
    {
      "constant": true,
      "inputs": [],
      "name": "isLockingPhase",
      "outputs": [
        {
          "name": "_isLockingPhase",
          "type": "bool"
        }
      ],
      "payable": false,
      "stateMutability": "view",
      "type": "function"
    },
    {
      "constant": true,
      "inputs": [],
      "name": "currentQuarterNumber",
      "outputs": [
        {
          "name": "_quarterNumber",
          "type": "uint256"
        }
      ],
      "payable": false,
      "stateMutability": "view",
      "type": "function"
    },
    {
      "constant": true,
      "inputs": [
        {
          "name": "_user",
          "type": "address"
        }
      ],
      "name": "isParticipant",
      "outputs": [
        {
          "name": "_is",
          "type": "bool"
        }
      ],
      "payable": false,
      "stateMutability": "view",
      "type": "function"
    },
    {
      "constant": true,
      "inputs": [
        {
          "name": "_configKey",
          "type": "bytes32"
        }
      ],
      "name": "getBytesConfig",
      "outputs": [
        {
          "name": "_configValue",
          "type": "bytes32"
        }
      ],
      "payable": false,
      "stateMutability": "view",
      "type": "function"
    },
    {
      "constant": true,
      "inputs": [
        {
          "name": "_configKey",
          "type": "bytes32"
        }
      ],
      "name": "getUintConfig",
      "outputs": [
        {
          "name": "_configValue",
          "type": "uint256"
        }
      ],
      "payable": false,
      "stateMutability": "view",
      "type": "function"
    },
    {
      "constant": true,
      "inputs": [],
      "name": "isDaoNotReplaced",
      "outputs": [
        {
          "name": "_isNotReplaced",
          "type": "bool"
        }
      ],
      "payable": false,
      "stateMutability": "view",
      "type": "function"
    },
    {
      "constant": true,
      "inputs": [],
      "name": "CONTRACT_ADDRESS",
      "outputs": [
        {
          "name": "",
          "type": "address"
        }
      ],
      "payable": false,
      "stateMutability": "view",
      "type": "function"
    },
    {
      "constant": true,
      "inputs": [
        {
          "name": "_proposalId",
          "type": "bytes32"
        }
      ],
      "name": "isProposalPaused",
      "outputs": [
        {
          "name": "_isPausedOrStopped",
          "type": "bool"
        }
      ],
      "payable": false,
      "stateMutability": "view",
      "type": "function"
    },
    {
      "constant": true,
      "inputs": [
        {
          "name": "_user",
          "type": "address"
        }
      ],
      "name": "isModerator",
      "outputs": [
        {
          "name": "_is",
          "type": "bool"
        }
      ],
      "payable": false,
      "stateMutability": "view",
      "type": "function"
    },
    {
      "inputs": [
        {
          "name": "_resolver",
          "type": "address"
        },
        {
          "name": "_dgxDemurrageCalculatorAddress",
          "type": "address"
        }
      ],
      "payable": false,
      "stateMutability": "nonpayable",
      "type": "constructor"
    },
    {
      "constant": true,
      "inputs": [
        {
          "name": "_additionalDgd",
          "type": "uint256"
        }
      ],
      "name": "calculateAdditionalLockedDGDStake",
      "outputs": [
        {
          "name": "_additionalLockedDGDStake",
          "type": "uint256"
        }
      ],
      "payable": false,
      "stateMutability": "view",
      "type": "function"
    },
    {
      "constant": true,
      "inputs": [
        {
          "name": "_proposalId",
          "type": "bytes32"
        }
      ],
      "name": "minimumDraftQuorum",
      "outputs": [
        {
          "name": "_minQuorum",
          "type": "uint256"
        }
      ],
      "payable": false,
      "stateMutability": "view",
      "type": "function"
    },
    {
      "constant": true,
      "inputs": [
        {
          "name": "_for",
          "type": "uint256"
        },
        {
          "name": "_against",
          "type": "uint256"
        }
      ],
      "name": "draftQuotaPass",
      "outputs": [
        {
          "name": "_passed",
          "type": "bool"
        }
      ],
      "payable": false,
      "stateMutability": "view",
      "type": "function"
    },
    {
      "constant": true,
      "inputs": [
        {
          "name": "_proposalId",
          "type": "bytes32"
        },
        {
          "name": "_milestone_id",
          "type": "uint256"
        }
      ],
      "name": "minimumVotingQuorum",
      "outputs": [
        {
          "name": "_minQuorum",
          "type": "uint256"
        }
      ],
      "payable": false,
      "stateMutability": "view",
      "type": "function"
    },
    {
      "constant": true,
      "inputs": [],
      "name": "minimumVotingQuorumForSpecial",
      "outputs": [
        {
          "name": "_minQuorum",
          "type": "uint256"
        }
      ],
      "payable": false,
      "stateMutability": "view",
      "type": "function"
    },
    {
      "constant": true,
      "inputs": [
        {
          "name": "_for",
          "type": "uint256"
        },
        {
          "name": "_against",
          "type": "uint256"
        }
      ],
      "name": "votingQuotaPass",
      "outputs": [
        {
          "name": "_passed",
          "type": "bool"
        }
      ],
      "payable": false,
      "stateMutability": "view",
      "type": "function"
    },
    {
      "constant": true,
      "inputs": [
        {
          "name": "_for",
          "type": "uint256"
        },
        {
          "name": "_against",
          "type": "uint256"
        }
      ],
      "name": "votingQuotaForSpecialPass",
      "outputs": [
        {
          "name": "_passed",
          "type": "bool"
        }
      ],
      "payable": false,
      "stateMutability": "view",
      "type": "function"
    },
    {
      "constant": true,
      "inputs": [
        {
          "name": "_minimalParticipationPoint",
          "type": "uint256"
        },
        {
          "name": "_quarterPointScalingFactor",
          "type": "uint256"
        },
        {
          "name": "_reputationPointScalingFactor",
          "type": "uint256"
        },
        {
          "name": "_quarterPoint",
          "type": "uint256"
        },
        {
          "name": "_reputationPoint",
          "type": "uint256"
        },
        {
          "name": "_lockedDGDStake",
          "type": "uint256"
        }
      ],
      "name": "calculateUserEffectiveBalance",
      "outputs": [
        {
          "name": "_effectiveDGDBalance",
          "type": "uint256"
        }
      ],
      "payable": false,
      "stateMutability": "pure",
      "type": "function"
    },
    {
      "constant": true,
      "inputs": [
        {
          "name": "_balance",
          "type": "uint256"
        },
        {
          "name": "_daysElapsed",
          "type": "uint256"
        }
      ],
      "name": "calculateDemurrage",
      "outputs": [
        {
          "name": "_demurrageFees",
          "type": "uint256"
        }
      ],
      "payable": false,
      "stateMutability": "view",
      "type": "function"
    }
  ],
  "bytecode": "0x608060405260006001026003906000191690556000600460006101000a81548173ffffffffffffffffffffffffffffffffffffffff021916908373ffffffffffffffffffffffffffffffffffffffff1602179055507f70726f706f73616c5f73746174655f70726570726f706f73616c0000000000006005906000191690557f70726f706f73616c5f73746174655f64726166740000000000000000000000006006906000191690557f70726f706f73616c5f73746174655f6d6f6465726174656400000000000000006007906000191690557f70726f706f73616c5f73746174655f6f6e676f696e67000000000000000000006008906000191690557f70726f706f73616c5f73746174655f636c6f73656400000000000000000000006009906000191690557f70726f706f73616c5f73746174655f6172636869766564000000000000000000600a906000191690556001600b556002600c556003600d556001600e556002600f5560036010557f696e7465725f6467645f696400000000000000000000000000000000000000006011906000191690557f696e7465725f6d6f645f6467645f6964000000000000000000000000000000006012906000191690557f696e7465725f626f6e75735f63616c63756c6174696f6e5f69640000000000006013906000191690557f64616f00000000000000000000000000000000000000000000000000000000006014906000191690557f64616f3a7370656369616c3a70726f706f73616c0000000000000000000000006015906000191690557f64616f3a7374616b652d6c6f636b696e670000000000000000000000000000006016906000191690557f64616f3a766f74696e67000000000000000000000000000000000000000000006017906000191690557f64616f3a766f74696e673a636c61696d730000000000000000000000000000006018906000191690557f64616f3a73766f74696e673a636c61696d7300000000000000000000000000006019906000191690557f64616f3a6964656e746974790000000000000000000000000000000000000000601a906000191690557f64616f3a726577617264732d6d616e6167657200000000000000000000000000601b906000191690557f64616f3a726577617264732d6578747261730000000000000000000000000000601c906000191690557f64616f3a726f6c65730000000000000000000000000000000000000000000000601d906000191690557f64616f3a66756e64696e672d6d616e6167657200000000000000000000000000601e906000191690557f64616f3a77686974656c697374696e6700000000000000000000000000000000601f906000191690557f64616f3a696e666f726d6174696f6e00000000000000000000000000000000006020906000191690557f736572766963653a726f6c6500000000000000000000000000000000000000006021906000191690557f736572766963653a64616f3a696e666f000000000000000000000000000000006022906000191690557f736572766963653a64616f3a6c697374696e67000000000000000000000000006023906000191690557f736572766963653a64616f3a63616c63756c61746f72000000000000000000006024906000191690557f73746f726167653a64616f0000000000000000000000000000000000000000006025906000191690557f73746f726167653a64616f3a636f756e746572000000000000000000000000006026906000191690557f73746f726167653a64616f3a75706772616465000000000000000000000000006027906000191690557f73746f726167653a64616f3a6964656e746974790000000000000000000000006028906000191690557f73746f726167653a64616f3a706f696e747300000000000000000000000000006029906000191690557f73746f726167653a64616f3a7370656369616c00000000000000000000000000602a906000191690557f73746f726167653a64616f3a636f6e6669670000000000000000000000000000602b906000191690557f73746f726167653a64616f3a7374616b65000000000000000000000000000000602c906000191690557f73746f726167653a64616f3a7265776172647300000000000000000000000000602d906000191690557f73746f726167653a64616f3a77686974656c697374696e670000000000000000602e906000191690557f73746f726167653a696e7465726d6564696174653a726573756c747300000000602f906000191690557f743a6467640000000000000000000000000000000000000000000000000000006030906000191690557f743a6467780000000000000000000000000000000000000000000000000000006031906000191690557f743a6261646765000000000000000000000000000000000000000000000000006032906000191690556001603360006101000a81548160ff021916908360ff1602179055506002603360016101000a81548160ff021916908360ff1602179055506003603360026101000a81548160ff021916908360ff1602179055506004603360036101000a81548160ff021916908360ff1602179055506276a7006034557f6d696e5f6467645f7061727469636970616e74000000000000000000000000006035906000191690557f6d696e5f6467645f6d6f64657261746f720000000000000000000000000000006036906000191690557f6d696e5f72657075746174696f6e5f6d6f64657261746f7200000000000000006037906000191690557f6c6f636b696e675f70686173655f6475726174696f6e000000000000000000006038906000191690557f717561727465725f6475726174696f6e000000000000000000000000000000006039906000191690557f766f74696e675f636f6d6d69745f706861736500000000000000000000000000603a906000191690557f766f74696e675f70686173655f746f74616c0000000000000000000000000000603b906000191690557f696e746572696d5f766f74696e675f636f6d6d69745f70686173650000000000603c906000191690557f696e746572696d5f766f74696e675f70686173655f746f74616c000000000000603d906000191690557f64726166745f71756f72756d5f66697865645f6e756d657261746f7200000000603e906000191690557f64726166745f71756f72756d5f66697865645f64656e6f6d696e61746f720000603f906000191690557f64726166745f71756f72756d5f73666163746f725f6e756d657261746f7200006040906000191690557f64726166745f71756f72756d5f73666163746f725f64656e6f6d696e61746f726041906000191690557f766f74655f71756f72756d5f66697865645f6e756d657261746f7200000000006042906000191690557f766f74655f71756f72756d5f66697865645f64656e6f6d696e61746f720000006043906000191690557f766f74655f71756f72756d5f73666163746f725f6e756d657261746f720000006044906000191690557f766f74655f71756f72756d5f73666163746f725f64656e6f6d696e61746f72006045906000191690557f66696e616c5f7265776172645f73666163746f725f6e756d657261746f7200006046906000191690557f66696e616c5f7265776172645f73666163746f725f64656e6f6d696e61746f726047906000191690557f64726166745f71756f74615f6e756d657261746f7200000000000000000000006048906000191690557f64726166745f71756f74615f64656e6f6d696e61746f720000000000000000006049906000191690557f766f74696e675f71756f74615f6e756d657261746f7200000000000000000000604a906000191690557f766f74696e675f71756f74615f64656e6f6d696e61746f720000000000000000604b906000191690557f6d696e696d616c5f717000000000000000000000000000000000000000000000604c906000191690557f717561727465725f706f696e745f7363616c696e675f666163746f7200000000604d906000191690557f7265705f706f696e745f7363616c696e675f666163746f720000000000000000604e906000191690557f6d696e696d616c5f6d6f645f7170000000000000000000000000000000000000604f906000191690557f6d6f645f71705f7363616c696e675f666163746f7200000000000000000000006050906000191690557f6d6f645f7265705f706f696e745f7363616c696e675f666163746f72000000006051906000191690557f717561727465725f706f696e745f64726166745f766f746500000000000000006052906000191690557f717561727465725f706f696e745f766f746500000000000000000000000000006053906000191690557f717561727465725f706f696e745f696e746572696d5f766f74650000000000006054906000191690557f715f705f6d696c6573746f6e655f636f6d706c6574696f6e00000000000000006055906000191690557f626f6e75735f72657075746174696f6e5f6e756d657261746f720000000000006056906000191690557f626f6e75735f72657075746174696f6e5f64656e6f6d696e61746f72000000006057906000191690557f7370656369616c5f70726f706f73616c5f636f6d6d69745f70686173650000006058906000191690557f7370656369616c5f70726f706f73616c5f70686173655f746f74616c000000006059906000191690557f636f6e6669675f7370656369616c5f71756f74615f6e756d657261746f720000605a906000191690557f636f6e6669675f7370656369616c5f71756f74615f64656e6f6d696e61746f72605b906000191690557f7370656369616c5f71756f72756d5f6e756d657261746f720000000000000000605c906000191690557f7370656369616c5f71756f72756d5f64656e6f6d696e61746f72000000000000605d906000191690557f636f6e6669675f6d61785f72657075746174696f6e5f646564756374696f6e00605e906000191690557f636f6e6669675f70756e6973686d656e745f6e6f745f6c6f636b696e67000000605f906000191690557f636f6e6669675f7265705f7065725f65787472615f71705f6e756d00000000006060906000191690557f636f6e6669675f7265705f7065725f65787472615f71705f64656e00000000006061906000191690557f636f6e6669675f6d61785f6d5f72705f646564756374696f6e000000000000006062906000191690557f636f6e6669675f7265705f7065725f65787472615f6d5f71705f6e756d0000006063906000191690557f636f6e6669675f7265705f7065725f65787472615f6d5f71705f64656e0000006064906000191690557f636f6e6669675f6d6f645f706f7274696f6e5f6e756d000000000000000000006065906000191690557f636f6e6669675f6d6f645f706f7274696f6e5f64656e000000000000000000006066906000191690557f636f6e6669675f64726166745f766f74696e675f7068617365000000000000006067906000191690557f636f6e6669675f72705f626f6f73745f7065725f6261646765000000000000006068906000191690557f636f6e6669675f636c61696d696e675f646561646c696e6500000000000000006069906000191690557f636f6e6669675f70726570726f706f73616c5f636f6c6c61746572616c000000606a906000191690557f636f6e6669675f6d61785f66756e64696e675f6e6f6e44696769780000000000606b906000191690557f636f6e6669675f6d61785f6d696c6573746f6e65735f6e6f6e44696769780000606c906000191690557f636f6e6669675f6e6f6e44696769785f70726f706f73616c5f63617000000000606d906000191690557f636f6e6669675f646561645f6475726174696f6e000000000000000000000000606e906000191690557f636f6e6669675f63765f72657075746174696f6e000000000000000000000000606f906000191690553480156200113457600080fd5b50604051604080620036fb83398101806040528101908080519060200190929190805190602001909291905050506200117f60245483620011d4640100000000026401000000009004565b15156200118b57600080fd5b80607060006101000a81548173ffffffffffffffffffffffffffffffffffffffff021916908373ffffffffffffffffffffffffffffffffffffffff160217905550505062001465565b6000808273ffffffffffffffffffffffffffffffffffffffff16636d19a8826040518163ffffffff167c0100000000000000000000000000000000000000000000000000000000028152600401602060405180830381600087803b1580156200123c57600080fd5b505af115801562001251573d6000803e3d6000fd5b505050506040513d60208110156200126857600080fd5b81019080805190602001909291905050509050600015158115151415620014595730600260006101000a81548173ffffffffffffffffffffffffffffffffffffffff021916908373ffffffffffffffffffffffffffffffffffffffff160217905550826000806101000a81548173ffffffffffffffffffffffffffffffffffffffff021916908373ffffffffffffffffffffffffffffffffffffffff16021790555083600181600019169055506000809054906101000a900473ffffffffffffffffffffffffffffffffffffffff1673ffffffffffffffffffffffffffffffffffffffff1663c0f6ef4a600154600260009054906101000a900473ffffffffffffffffffffffffffffffffffffffff166040518363ffffffff167c01000000000000000000000000000000000000000000000000000000000281526004018083600019166000191681526020018273ffffffffffffffffffffffffffffffffffffffff1673ffffffffffffffffffffffffffffffffffffffff16815260200192505050602060405180830381600087803b1580156200140657600080fd5b505af11580156200141b573d6000803e3d6000fd5b505050506040513d60208110156200143257600080fd5b810190808051906020019092919050505015156200144f57600080fd5b600191506200145e565b600091505b5092915050565b61228680620014756000396000f300608060405260043610610149576000357c0100000000000000000000000000000000000000000000000000000000900463ffffffff16806304f3bcec1461014e5780630b3b1595146101a5578063120c52ef146101e65780631d8ccd04146102315780632850568f146102a257806336dfb1c2146102cd5780633943380c1461031c5780633f83acff1461034f578063535199aa146103c0578063560a25ea14610405578063685330601461043057806370ae8f5c1461045f57806377ebd468146104d25780637c6c9af2146105215780637d6fed80146105785780637f6a26b6146105a7578063929066f5146105d257806393ddad081461062d578063a27c834c1461067a578063b1e2b9dd146106c9578063d32d04991461070e578063d70d93581461075d578063db4ecbc11461078c578063f94f0f33146107e3578063fa6f39361461082c575b600080fd5b34801561015a57600080fd5b50610163610887565b604051808273ffffffffffffffffffffffffffffffffffffffff1673ffffffffffffffffffffffffffffffffffffffff16815260200191505060405180910390f35b3480156101b157600080fd5b506101d0600480360381019080803590602001909291905050506108ac565b6040518082815260200191505060405180910390f35b3480156101f257600080fd5b5061021b6004803603810190808035906020019092919080359060200190929190505050610936565b6040518082815260200191505060405180910390f35b34801561023d57600080fd5b506102606004803603810190808035600019169060200190929190505050610a20565b604051808273ffffffffffffffffffffffffffffffffffffffff1673ffffffffffffffffffffffffffffffffffffffff16815260200191505060405180910390f35b3480156102ae57600080fd5b506102b7610ae2565b6040518082815260200191505060405180910390f35b3480156102d957600080fd5b506103026004803603810190808035906020019092919080359060200190929190505050610bc7565b604051808215151515815260200191505060405180910390f35b34801561032857600080fd5b50610331610c1e565b60405180826000191660001916815260200191505060405180910390f35b34801561035b57600080fd5b5061037e6004803603810190808035600019169060200190929190505050610c24565b604051808273ffffffffffffffffffffffffffffffffffffffff1673ffffffffffffffffffffffffffffffffffffffff16815260200191505060405180910390f35b3480156103cc57600080fd5b506103ef6004803603810190808035600019169060200190929190505050610d00565b6040518082815260200191505060405180910390f35b34801561041157600080fd5b5061041a610f20565b6040518082815260200191505060405180910390f35b34801561043c57600080fd5b50610445610f30565b604051808215151515815260200191505060405180910390f35b34801561046b57600080fd5b506104bc600480360381019080803590602001909291908035906020019092919080359060200190929190803590602001909291908035906020019092919080359060200190929190505050610f5c565b6040518082815260200191505060405180910390f35b3480156104de57600080fd5b5061050b60048036038101908080356000191690602001909291908035906020019092919050505061101b565b6040518082815260200191505060405180910390f35b34801561052d57600080fd5b50610536611350565b604051808273ffffffffffffffffffffffffffffffffffffffff1673ffffffffffffffffffffffffffffffffffffffff16815260200191505060405180910390f35b34801561058457600080fd5b5061058d611376565b604051808215151515815260200191505060405180910390f35b3480156105b357600080fd5b506105bc611391565b6040518082815260200191505060405180910390f35b3480156105de57600080fd5b50610613600480360381019080803573ffffffffffffffffffffffffffffffffffffffff1690602001909291905050506113a1565b604051808215151515815260200191505060405180910390f35b34801561063957600080fd5b5061065c6004803603810190808035600019169060200190929190505050611582565b60405180826000191660001916815260200191505060405180910390f35b34801561068657600080fd5b506106af6004803603810190808035906020019092919080359060200190929190505050611644565b604051808215151515815260200191505060405180910390f35b3480156106d557600080fd5b506106f8600480360381019080803560001916906020019092919050505061169b565b6040518082815260200191505060405180910390f35b34801561071a57600080fd5b50610743600480360381019080803590602001909291908035906020019092919050505061175d565b604051808215151515815260200191505060405180910390f35b34801561076957600080fd5b506107726117b4565b604051808215151515815260200191505060405180910390f35b34801561079857600080fd5b506107a1611862565b604051808273ffffffffffffffffffffffffffffffffffffffff1673ffffffffffffffffffffffffffffffffffffffff16815260200191505060405180910390f35b3480156107ef57600080fd5b506108126004803603810190808035600019169060200190929190505050611888565b604051808215151515815260200191505060405180910390f35b34801561083857600080fd5b5061086d600480360381019080803573ffffffffffffffffffffffffffffffffffffffff1690602001909291905050506119dd565b604051808215151515815260200191505060405180910390f35b6000809054906101000a900473ffffffffffffffffffffffffffffffffffffffff1681565b600061092f6108d86108bf60385461169b565b6108ca60395461169b565b611cb090919063ffffffff16565b6109216109126108f96108e9610f20565b6108f460385461169b565b611cc9565b61090460395461169b565b611cb090919063ffffffff16565b85611ce090919063ffffffff16565b611d1890919063ffffffff16565b9050919050565b6000607060009054906101000a900473ffffffffffffffffffffffffffffffffffffffff1673ffffffffffffffffffffffffffffffffffffffff1663120c52ef84846040518363ffffffff167c010000000000000000000000000000000000000000000000000000000002815260040180838152602001828152602001925050506040805180830381600087803b1580156109d057600080fd5b505af11580156109e4573d6000803e3d6000fd5b505050506040513d60408110156109fa57600080fd5b810190808051906020019092919080519060200190929190505050508091505092915050565b6000610a2a611d2e565b73ffffffffffffffffffffffffffffffffffffffff1663e6b39eab836040518263ffffffff167c0100000000000000000000000000000000000000000000000000000000028152600401808260001916600019168152602001915050602060405180830381600087803b158015610aa057600080fd5b505af1158015610ab4573d6000803e3d6000fd5b505050506040513d6020811015610aca57600080fd5b81019080805190602001909291905050509050919050565b6000610bc2610af2605d5461169b565b610bb4610afd611d40565b73ffffffffffffffffffffffffffffffffffffffff1663abed029a6040518163ffffffff167c0100000000000000000000000000000000000000000000000000000000028152600401602060405180830381600087803b158015610b6057600080fd5b505af1158015610b74573d6000803e3d6000fd5b505050506040513d6020811015610b8a57600080fd5b8101908080519060200190929190505050610ba6605c5461169b565b611ce090919063ffffffff16565b611d1890919063ffffffff16565b905090565b6000610bf8610bdf8385611d5290919063ffffffff16565b610bea604a5461169b565b611ce090919063ffffffff16565b610c15610c06604b5461169b565b85611ce090919063ffffffff16565b11905092915050565b60015481565b60008060009054906101000a900473ffffffffffffffffffffffffffffffffffffffff1673ffffffffffffffffffffffffffffffffffffffff16633f83acff836040518263ffffffff167c0100000000000000000000000000000000000000000000000000000000028152600401808260001916600019168152602001915050602060405180830381600087803b158015610cbe57600080fd5b505af1158015610cd2573d6000803e3d6000fd5b505050506040513d6020811015610ce857600080fd5b81019080805190602001909291905050509050919050565b60006060610d0c611d6e565b73ffffffffffffffffffffffffffffffffffffffff16637246d5a7846040518263ffffffff167c0100000000000000000000000000000000000000000000000000000000028152600401808260001916600019168152602001915050600060405180830381600087803b158015610d8257600080fd5b505af1158015610d96573d6000803e3d6000fd5b505050506040513d6000823e3d601f19601f820116820180604052506040811015610dc057600080fd5b810190808051640100000000811115610dd857600080fd5b82810190506020810184811115610dee57600080fd5b8151856020820283011164010000000082111715610e0b57600080fd5b5050929190602001805190602001909291905050505080915050610f18610e30611d40565b73ffffffffffffffffffffffffffffffffffffffff1663bf448a876040518163ffffffff167c0100000000000000000000000000000000000000000000000000000000028152600401602060405180830381600087803b158015610e9357600080fd5b505af1158015610ea7573d6000803e3d6000fd5b505050506040513d6020811015610ebd57600080fd5b8101908080519060200190929190505050610ed9603e5461169b565b610ee4603f5461169b565b610eef60405461169b565b610efa60415461169b565b866000815181101515610f0957fe5b90602001906020020151611d80565b915050919050565b6000610f2b42611e1c565b905090565b6000610f3a6117b4565b8015610f575750610f4c60385461169b565b610f54610f20565b10155b905090565b600080610f8d88610f7f85610f71898d611f05565b611ce090919063ffffffff16565b611d1890919063ffffffff16565b905061100e610fa58789611ce090919063ffffffff16565b611000610fbb878a611d5290919063ffffffff16565b610ff2610fe38d610fd58c8f611d5290919063ffffffff16565b611cb090919063ffffffff16565b86611ce090919063ffffffff16565b611ce090919063ffffffff16565b611d1890919063ffffffff16565b9150509695505050505050565b600060606000611029611f1c565b151561103457600080fd5b61103c611d6e565b73ffffffffffffffffffffffffffffffffffffffff16637246d5a7866040518263ffffffff167c0100000000000000000000000000000000000000000000000000000000028152600401808260001916600019168152602001915050600060405180830381600087803b1580156110b257600080fd5b505af11580156110c6573d6000803e3d6000fd5b505050506040513d6000823e3d601f19601f8201168201806040525060408110156110f057600080fd5b81019080805164010000000081111561110857600080fd5b8281019050602081018481111561111e57600080fd5b815185602082028301116401000000008211171561113b57600080fd5b50509291906020018051906020019092919050505080925081935050508151841115151561116857600080fd5b81518414156112535761124c61117c611d40565b73ffffffffffffffffffffffffffffffffffffffff1663abed029a6040518163ffffffff167c0100000000000000000000000000000000000000000000000000000000028152600401602060405180830381600087803b1580156111df57600080fd5b505af11580156111f3573d6000803e3d6000fd5b505050506040513d602081101561120957600080fd5b810190808051906020019092919050505061122560425461169b565b61123060435461169b565b61123b60465461169b565b61124660475461169b565b86611d80565b9250611348565b61134561125e611d40565b73ffffffffffffffffffffffffffffffffffffffff1663abed029a6040518163ffffffff167c0100000000000000000000000000000000000000000000000000000000028152600401602060405180830381600087803b1580156112c157600080fd5b505af11580156112d5573d6000803e3d6000fd5b505050506040513d60208110156112eb57600080fd5b810190808051906020019092919050505061130760425461169b565b61131260435461169b565b61131d60445461169b565b61132860455461169b565b878a81518110151561133657fe5b90602001906020020151611d80565b92505b505092915050565b607060009054906101000a900473ffffffffffffffffffffffffffffffffffffffff1681565b600061138360385461169b565b61138b610f20565b10905090565b600061139c42612036565b905090565b60006113ab611391565b6113b3612139565b73ffffffffffffffffffffffffffffffffffffffff1663cefc2bff846040518263ffffffff167c0100000000000000000000000000000000000000000000000000000000028152600401808273ffffffffffffffffffffffffffffffffffffffff1673ffffffffffffffffffffffffffffffffffffffff168152602001915050602060405180830381600087803b15801561144d57600080fd5b505af1158015611461573d6000803e3d6000fd5b505050506040513d602081101561147757600080fd5b810190808051906020019092919050505014801561157b575061149b60355461169b565b6114a3611d40565b73ffffffffffffffffffffffffffffffffffffffff1663cd094a27846040518263ffffffff167c0100000000000000000000000000000000000000000000000000000000028152600401808273ffffffffffffffffffffffffffffffffffffffff1673ffffffffffffffffffffffffffffffffffffffff168152602001915050602060405180830381600087803b15801561153d57600080fd5b505af1158015611551573d6000803e3d6000fd5b505050506040513d602081101561156757600080fd5b810190808051906020019092919050505010155b9050919050565b600061158c611d2e565b73ffffffffffffffffffffffffffffffffffffffff1663c0a8405d836040518263ffffffff167c0100000000000000000000000000000000000000000000000000000000028152600401808260001916600019168152602001915050602060405180830381600087803b15801561160257600080fd5b505af1158015611616573d6000803e3d6000fd5b505050506040513d602081101561162c57600080fd5b81019080805190602001909291905050509050919050565b600061167561165c8385611d5290919063ffffffff16565b611667605a5461169b565b611ce090919063ffffffff16565b611692611683605b5461169b565b85611ce090919063ffffffff16565b11905092915050565b60006116a5611d2e565b73ffffffffffffffffffffffffffffffffffffffff1663734c1168836040518263ffffffff167c0100000000000000000000000000000000000000000000000000000000028152600401808260001916600019168152602001915050602060405180830381600087803b15801561171b57600080fd5b505af115801561172f573d6000803e3d6000fd5b505050506040513d602081101561174557600080fd5b81019080805190602001909291905050509050919050565b600061178e6117758385611d5290919063ffffffff16565b61178060485461169b565b611ce090919063ffffffff16565b6117ab61179c60495461169b565b85611ce090919063ffffffff16565b11905092915050565b60006117be61214b565b73ffffffffffffffffffffffffffffffffffffffff16638bc865fd6040518163ffffffff167c0100000000000000000000000000000000000000000000000000000000028152600401602060405180830381600087803b15801561182157600080fd5b505af1158015611835573d6000803e3d6000fd5b505050506040513d602081101561184b57600080fd5b810190808051906020019092919050505015905090565b600260009054906101000a900473ffffffffffffffffffffffffffffffffffffffff1681565b6000611892611d6e565b73ffffffffffffffffffffffffffffffffffffffff1663d8d50179836040518263ffffffff167c010000000000000000000000000000000000000000000000000000000002815260040180826000191660001916815260200191505061014060405180830381600087803b15801561190957600080fd5b505af115801561191d573d6000803e3d6000fd5b505050506040513d61014081101561193457600080fd5b8101908080519060200190929190805190602001909291908051906020019092919080519060200190929190805190602001909291908051906020019092919080519060200190929190805190602001909291908051906020019092919080519060200190929190505050909192939495969798509091929394959697509091929394959650909192939495509091929394509091929350909192509091505080915050919050565b60006119e7611391565b6119ef612139565b73ffffffffffffffffffffffffffffffffffffffff1663cefc2bff846040518263ffffffff167c0100000000000000000000000000000000000000000000000000000000028152600401808273ffffffffffffffffffffffffffffffffffffffff1673ffffffffffffffffffffffffffffffffffffffff168152602001915050602060405180830381600087803b158015611a8957600080fd5b505af1158015611a9d573d6000803e3d6000fd5b505050506040513d6020811015611ab357600080fd5b8101908080519060200190929190505050148015611bb75750611ad760365461169b565b611adf611d40565b73ffffffffffffffffffffffffffffffffffffffff1663cd094a27846040518263ffffffff167c0100000000000000000000000000000000000000000000000000000000028152600401808273ffffffffffffffffffffffffffffffffffffffff1673ffffffffffffffffffffffffffffffffffffffff168152602001915050602060405180830381600087803b158015611b7957600080fd5b505af1158015611b8d573d6000803e3d6000fd5b505050506040513d6020811015611ba357600080fd5b810190808051906020019092919050505010155b8015611ca95750611bc960375461169b565b611bd161215d565b73ffffffffffffffffffffffffffffffffffffffff16639c89a0e2846040518263ffffffff167c0100000000000000000000000000000000000000000000000000000000028152600401808273ffffffffffffffffffffffffffffffffffffffff1673ffffffffffffffffffffffffffffffffffffffff168152602001915050602060405180830381600087803b158015611c6b57600080fd5b505af1158015611c7f573d6000803e3d6000fd5b505050506040513d6020811015611c9557600080fd5b810190808051906020019092919050505010155b9050919050565b6000828211151515611cbe57fe5b818303905092915050565b600081905081831115611cda578290505b92915050565b600080831415611cf35760009050611d12565b8183029050818382811515611d0457fe5b04141515611d0e57fe5b8090505b92915050565b60008183811515611d2557fe5b04905092915050565b6000611d3b602b54610c24565b905090565b6000611d4d602c54610c24565b905090565b60008183019050828110151515611d6557fe5b80905092915050565b6000611d7b602554610c24565b905090565b600080611d8b61216f565b9050611db286611da4898b611ce090919063ffffffff16565b611d1890919063ffffffff16565b9150611e0f611e00611dcd8684611ce090919063ffffffff16565b611df2611de38988611ce090919063ffffffff16565b8c611ce090919063ffffffff16565b611d1890919063ffffffff16565b83611d5290919063ffffffff16565b9150509695505050505050565b6000611e26612198565b1515611e3157600080fd5b611e3c60395461169b565b611ef4611e4761214b565b73ffffffffffffffffffffffffffffffffffffffff1663d9c6bb206040518163ffffffff167c0100000000000000000000000000000000000000000000000000000000028152600401602060405180830381600087803b158015611eaa57600080fd5b505af1158015611ebe573d6000803e3d6000fd5b505050506040513d6020811015611ed457600080fd5b810190808051906020019092919050505084611cb090919063ffffffff16565b811515611efd57fe5b069050919050565b600081905081831015611f16578290505b92915050565b60003273ffffffffffffffffffffffffffffffffffffffff163373ffffffffffffffffffffffffffffffffffffffff1614806120315750611f5b612248565b73ffffffffffffffffffffffffffffffffffffffff16639b19251a336040518263ffffffff167c0100000000000000000000000000000000000000000000000000000000028152600401808273ffffffffffffffffffffffffffffffffffffffff1673ffffffffffffffffffffffffffffffffffffffff168152602001915050602060405180830381600087803b158015611ff557600080fd5b505af1158015612009573d6000803e3d6000fd5b505050506040513d602081101561201f57600080fd5b81019080805190602001909291905050505b905090565b6000612040612198565b151561204b57600080fd5b612132600161212461205e60395461169b565b61211661206961214b565b73ffffffffffffffffffffffffffffffffffffffff1663d9c6bb206040518163ffffffff167c0100000000000000000000000000000000000000000000000000000000028152600401602060405180830381600087803b1580156120cc57600080fd5b505af11580156120e0573d6000803e3d6000fd5b505050506040513d60208110156120f657600080fd5b810190808051906020019092919050505087611cb090919063ffffffff16565b611d1890919063ffffffff16565b611d5290919063ffffffff16565b9050919050565b6000612146602d54610c24565b905090565b6000612158602754610c24565b905090565b600061216a602954610c24565b905090565b600061217c601e54610c24565b73ffffffffffffffffffffffffffffffffffffffff1631905090565b6000806121a361214b565b73ffffffffffffffffffffffffffffffffffffffff1663d9c6bb206040518163ffffffff167c0100000000000000000000000000000000000000000000000000000000028152600401602060405180830381600087803b15801561220657600080fd5b505af115801561221a573d6000803e3d6000fd5b505050506040513d602081101561223057600080fd5b81019080805190602001909291905050501415905090565b6000612255602e54610c24565b9050905600a165627a7a72305820991a79ac254ed3dfd880727e69ecc1671033fb34ab5e1a792a047f06f3ff7d770029",
  "source": "pragma solidity ^0.4.25;\n\nimport \"./../interface/DgxDemurrageCalculator.sol\";\nimport \"./../common/DaoCommon.sol\";\nimport \"./../lib/MathHelper.sol\";\n\n\ncontract DaoCalculatorService is DaoCommon {\n\n    address public dgxDemurrageCalculatorAddress;\n\n    using MathHelper for MathHelper;\n\n    constructor(address _resolver, address _dgxDemurrageCalculatorAddress)\n        public\n    {\n        require(init(CONTRACT_SERVICE_DAO_CALCULATOR, _resolver));\n        dgxDemurrageCalculatorAddress = _dgxDemurrageCalculatorAddress;\n    }\n\n\n    /**\n    @notice Calculate the additional lockedDGDStake, given the DGDs that the user has just locked in\n    @dev The earlier the locking happens, the more lockedDGDStake the user will get\n         The formula is: additionalLockedDGDStake = (90 - t)/80 * additionalDGD if t is more than 10. If t<=10, additionalLockedDGDStake = additionalDGD\n    */\n    function calculateAdditionalLockedDGDStake(uint256 _additionalDgd)\n        public\n        view\n        returns (uint256 _additionalLockedDGDStake)\n    {\n        _additionalLockedDGDStake =\n            _additionalDgd.mul(\n                getUintConfig(CONFIG_QUARTER_DURATION)\n                .sub(\n                    MathHelper.max(\n                        currentTimeInQuarter(),\n                        getUintConfig(CONFIG_LOCKING_PHASE_DURATION)\n                    )\n                )\n            )\n            .div(\n                getUintConfig(CONFIG_QUARTER_DURATION)\n                .sub(getUintConfig(CONFIG_LOCKING_PHASE_DURATION))\n            );\n    }\n\n\n    // Quorum is in terms of lockedDGDStake\n    function minimumDraftQuorum(bytes32 _proposalId)\n        public\n        view\n        returns (uint256 _minQuorum)\n    {\n        uint256[] memory _fundings;\n\n        (_fundings,) = daoStorage().readProposalFunding(_proposalId);\n        _minQuorum = calculateMinQuorum(\n            daoStakeStorage().totalModeratorLockedDGDStake(),\n            getUintConfig(CONFIG_DRAFT_QUORUM_FIXED_PORTION_NUMERATOR),\n            getUintConfig(CONFIG_DRAFT_QUORUM_FIXED_PORTION_DENOMINATOR),\n            getUintConfig(CONFIG_DRAFT_QUORUM_SCALING_FACTOR_NUMERATOR),\n            getUintConfig(CONFIG_DRAFT_QUORUM_SCALING_FACTOR_DENOMINATOR),\n            _fundings[0]\n        );\n    }\n\n\n    function draftQuotaPass(uint256 _for, uint256 _against)\n        public\n        view\n        returns (bool _passed)\n    {\n        _passed = _for.mul(getUintConfig(CONFIG_DRAFT_QUOTA_DENOMINATOR))\n                > getUintConfig(CONFIG_DRAFT_QUOTA_NUMERATOR).mul(_for.add(_against));\n    }\n\n\n    // Quorum is in terms of lockedDGDStake\n    function minimumVotingQuorum(bytes32 _proposalId, uint256 _milestone_id)\n        public\n        view\n        returns (uint256 _minQuorum)\n    {\n        require(senderIsAllowedToRead());\n        uint256[] memory _weiAskedPerMilestone;\n        uint256 _finalReward;\n        (_weiAskedPerMilestone,_finalReward) = daoStorage().readProposalFunding(_proposalId);\n        require(_milestone_id <= _weiAskedPerMilestone.length);\n        if (_milestone_id == _weiAskedPerMilestone.length) {\n            // calculate quorum for the final voting round\n            _minQuorum = calculateMinQuorum(\n                daoStakeStorage().totalLockedDGDStake(),\n                getUintConfig(CONFIG_VOTING_QUORUM_FIXED_PORTION_NUMERATOR),\n                getUintConfig(CONFIG_VOTING_QUORUM_FIXED_PORTION_DENOMINATOR),\n                getUintConfig(CONFIG_FINAL_REWARD_SCALING_FACTOR_NUMERATOR),\n                getUintConfig(CONFIG_FINAL_REWARD_SCALING_FACTOR_DENOMINATOR),\n                _finalReward\n            );\n        } else {\n            // calculate quorum for a voting round\n            _minQuorum = calculateMinQuorum(\n                daoStakeStorage().totalLockedDGDStake(),\n                getUintConfig(CONFIG_VOTING_QUORUM_FIXED_PORTION_NUMERATOR),\n                getUintConfig(CONFIG_VOTING_QUORUM_FIXED_PORTION_DENOMINATOR),\n                getUintConfig(CONFIG_VOTING_QUORUM_SCALING_FACTOR_NUMERATOR),\n                getUintConfig(CONFIG_VOTING_QUORUM_SCALING_FACTOR_DENOMINATOR),\n                _weiAskedPerMilestone[_milestone_id]\n            );\n        }\n    }\n\n\n    // Quorum is in terms of lockedDGDStake\n    function minimumVotingQuorumForSpecial()\n        public\n        view\n        returns (uint256 _minQuorum)\n    {\n      _minQuorum = getUintConfig(CONFIG_SPECIAL_PROPOSAL_QUORUM_NUMERATOR).mul(\n                       daoStakeStorage().totalLockedDGDStake()\n                   ).div(\n                       getUintConfig(CONFIG_SPECIAL_PROPOSAL_QUORUM_DENOMINATOR)\n                   );\n    }\n\n\n    function votingQuotaPass(uint256 _for, uint256 _against)\n        public\n        view\n        returns (bool _passed)\n    {\n        _passed = _for.mul(getUintConfig(CONFIG_VOTING_QUOTA_DENOMINATOR))\n                > getUintConfig(CONFIG_VOTING_QUOTA_NUMERATOR).mul(_for.add(_against));\n    }\n\n\n    function votingQuotaForSpecialPass(uint256 _for, uint256 _against)\n        public\n        view\n        returns (bool _passed)\n    {\n        _passed =_for.mul(getUintConfig(CONFIG_SPECIAL_QUOTA_DENOMINATOR))\n                > getUintConfig(CONFIG_SPECIAL_QUOTA_NUMERATOR).mul(_for.add(_against));\n    }\n\n\n    function calculateMinQuorum(\n        uint256 _totalStake,\n        uint256 _fixedQuorumPortionNumerator,\n        uint256 _fixedQuorumPortionDenominator,\n        uint256 _scalingFactorNumerator,\n        uint256 _scalingFactorDenominator,\n        uint256 _weiAsked\n    )\n        internal\n        view\n        returns (uint256 _minimumQuorum)\n    {\n        uint256 _weiInDao = weiInDao();\n        // add the fixed portion of the quorum\n        _minimumQuorum = (_totalStake.mul(_fixedQuorumPortionNumerator)).div(_fixedQuorumPortionDenominator);\n\n        // add the dynamic portion of the quorum\n        _minimumQuorum = _minimumQuorum.add(_totalStake.mul(_weiAsked.mul(_scalingFactorNumerator)).div(_weiInDao.mul(_scalingFactorDenominator)));\n    }\n\n\n    function calculateUserEffectiveBalance(\n        uint256 _minimalParticipationPoint,\n        uint256 _quarterPointScalingFactor,\n        uint256 _reputationPointScalingFactor,\n        uint256 _quarterPoint,\n        uint256 _reputationPoint,\n        uint256 _lockedDGDStake\n    )\n        public\n        pure\n        returns (uint256 _effectiveDGDBalance)\n    {\n        uint256 _baseDGDBalance = MathHelper.min(_quarterPoint, _minimalParticipationPoint).mul(_lockedDGDStake).div(_minimalParticipationPoint);\n        _effectiveDGDBalance =\n            _baseDGDBalance\n            .mul(_quarterPointScalingFactor.add(_quarterPoint).sub(_minimalParticipationPoint))\n            .mul(_reputationPointScalingFactor.add(_reputationPoint))\n            .div(_quarterPointScalingFactor.mul(_reputationPointScalingFactor));\n    }\n\n\n    function calculateDemurrage(uint256 _balance, uint256 _daysElapsed)\n        public\n        view\n        returns (uint256 _demurrageFees)\n    {\n        (_demurrageFees,) = DgxDemurrageCalculator(dgxDemurrageCalculatorAddress).calculateDemurrage(_balance, _daysElapsed);\n    }\n\n}\n",
  "sourcePath": "/Users/aeufemio/projects/dgx/contracts/dao-contracts/contracts/service/DaoCalculatorService.sol",
  "compiler": {
    "name": "solc",
    "version": "0.4.25+commit.59dbf8f1.Emscripten.clang"
  },
  "schemaVersion": "2.0.2",
  "updatedAt": "2020-03-16T04:05:01.356Z"
}