{
  "contractName": "DaoCommon",
  "abi": [
    {
      "constant": true,
      "inputs": [],
      "name": "resolver",
      "outputs": [
        {
          "name": "",
          "type": "address"
        }
      ],
      "payable": false,
      "stateMutability": "view",
      "type": "function"
    },
    {
      "constant": true,
      "inputs": [],
      "name": "key",
      "outputs": [
        {
          "name": "",
          "type": "bytes32"
        }
      ],
      "payable": false,
      "stateMutability": "view",
      "type": "function"
    },
    {
      "constant": true,
      "inputs": [
        {
          "name": "_key",
          "type": "bytes32"
        }
      ],
      "name": "get_contract",
      "outputs": [
        {
          "name": "_contract",
          "type": "address"
        }
      ],
      "payable": false,
      "stateMutability": "view",
      "type": "function"
    },
    {
      "constant": true,
      "inputs": [],
      "name": "currentTimeInQuarter",
      "outputs": [
        {
          "name": "_currentT",
          "type": "uint256"
        }
      ],
      "payable": false,
      "stateMutability": "view",
      "type": "function"
    },
    {
      "constant": true,
      "inputs": [],
      "name": "isMainPhase",
      "outputs": [
        {
          "name": "_isMainPhase",
          "type": "bool"
        }
      ],
      "payable": false,
      "stateMutability": "view",
      "type": "function"
    },
    {
      "constant": true,
      "inputs": [],
      "name": "isLockingPhase",
      "outputs": [
        {
          "name": "_isLockingPhase",
          "type": "bool"
        }
      ],
      "payable": false,
      "stateMutability": "view",
      "type": "function"
    },
    {
      "constant": true,
      "inputs": [],
      "name": "currentQuarterNumber",
      "outputs": [
        {
          "name": "_quarterNumber",
          "type": "uint256"
        }
      ],
      "payable": false,
      "stateMutability": "view",
      "type": "function"
    },
    {
      "constant": true,
      "inputs": [
        {
          "name": "_configKey",
          "type": "bytes32"
        }
      ],
      "name": "getUintConfig",
      "outputs": [
        {
          "name": "_configValue",
          "type": "uint256"
        }
      ],
      "payable": false,
      "stateMutability": "view",
      "type": "function"
    },
    {
      "constant": true,
      "inputs": [],
      "name": "isDaoNotReplaced",
      "outputs": [
        {
          "name": "_isNotReplaced",
          "type": "bool"
        }
      ],
      "payable": false,
      "stateMutability": "view",
      "type": "function"
    },
    {
      "constant": true,
      "inputs": [],
      "name": "CONTRACT_ADDRESS",
      "outputs": [
        {
          "name": "",
          "type": "address"
        }
      ],
      "payable": false,
      "stateMutability": "view",
      "type": "function"
    },
    {
      "constant": true,
      "inputs": [
        {
          "name": "_configKey",
          "type": "bytes32"
        }
      ],
      "name": "getAddressConfig",
      "outputs": [
        {
          "name": "_configValue",
          "type": "address"
        }
      ],
      "payable": false,
      "stateMutability": "view",
      "type": "function"
    },
    {
      "constant": true,
      "inputs": [
        {
          "name": "_configKey",
          "type": "bytes32"
        }
      ],
      "name": "getBytesConfig",
      "outputs": [
        {
          "name": "_configValue",
          "type": "bytes32"
        }
      ],
      "payable": false,
      "stateMutability": "view",
      "type": "function"
    },
    {
      "constant": true,
      "inputs": [
        {
          "name": "_user",
          "type": "address"
        }
      ],
      "name": "isParticipant",
      "outputs": [
        {
          "name": "_is",
          "type": "bool"
        }
      ],
      "payable": false,
      "stateMutability": "view",
      "type": "function"
    },
    {
      "constant": true,
      "inputs": [
        {
          "name": "_user",
          "type": "address"
        }
      ],
      "name": "isModerator",
      "outputs": [
        {
          "name": "_is",
          "type": "bool"
        }
      ],
      "payable": false,
      "stateMutability": "view",
      "type": "function"
    }
  ],
  "bytecode": "0x608060405260006001026003906000191690556000600460006101000a81548173ffffffffffffffffffffffffffffffffffffffff021916908373ffffffffffffffffffffffffffffffffffffffff1602179055507f70726f706f73616c5f73746174655f70726570726f706f73616c0000000000006005906000191690557f70726f706f73616c5f73746174655f64726166740000000000000000000000006006906000191690557f70726f706f73616c5f73746174655f6d6f6465726174656400000000000000006007906000191690557f70726f706f73616c5f73746174655f6f6e676f696e67000000000000000000006008906000191690557f70726f706f73616c5f73746174655f636c6f73656400000000000000000000006009906000191690557f70726f706f73616c5f73746174655f6172636869766564000000000000000000600a906000191690556001600b556002600c556003600d556001600e556002600f5560036010557f696e7465725f6467645f696400000000000000000000000000000000000000006011906000191690557f696e7465725f6d6f645f6467645f6964000000000000000000000000000000006012906000191690557f696e7465725f626f6e75735f63616c63756c6174696f6e5f69640000000000006013906000191690557f64616f00000000000000000000000000000000000000000000000000000000006014906000191690557f64616f3a7370656369616c3a70726f706f73616c0000000000000000000000006015906000191690557f64616f3a7374616b652d6c6f636b696e670000000000000000000000000000006016906000191690557f64616f3a766f74696e67000000000000000000000000000000000000000000006017906000191690557f64616f3a766f74696e673a636c61696d730000000000000000000000000000006018906000191690557f64616f3a73766f74696e673a636c61696d7300000000000000000000000000006019906000191690557f64616f3a6964656e746974790000000000000000000000000000000000000000601a906000191690557f64616f3a726577617264732d6d616e6167657200000000000000000000000000601b906000191690557f64616f3a726577617264732d6578747261730000000000000000000000000000601c906000191690557f64616f3a726f6c65730000000000000000000000000000000000000000000000601d906000191690557f64616f3a66756e64696e672d6d616e6167657200000000000000000000000000601e906000191690557f64616f3a77686974656c697374696e6700000000000000000000000000000000601f906000191690557f64616f3a696e666f726d6174696f6e00000000000000000000000000000000006020906000191690557f736572766963653a726f6c6500000000000000000000000000000000000000006021906000191690557f736572766963653a64616f3a696e666f000000000000000000000000000000006022906000191690557f736572766963653a64616f3a6c697374696e67000000000000000000000000006023906000191690557f736572766963653a64616f3a63616c63756c61746f72000000000000000000006024906000191690557f73746f726167653a64616f0000000000000000000000000000000000000000006025906000191690557f73746f726167653a64616f3a636f756e746572000000000000000000000000006026906000191690557f73746f726167653a64616f3a75706772616465000000000000000000000000006027906000191690557f73746f726167653a64616f3a6964656e746974790000000000000000000000006028906000191690557f73746f726167653a64616f3a706f696e747300000000000000000000000000006029906000191690557f73746f726167653a64616f3a7370656369616c00000000000000000000000000602a906000191690557f73746f726167653a64616f3a636f6e6669670000000000000000000000000000602b906000191690557f73746f726167653a64616f3a7374616b65000000000000000000000000000000602c906000191690557f73746f726167653a64616f3a7265776172647300000000000000000000000000602d906000191690557f73746f726167653a64616f3a77686974656c697374696e670000000000000000602e906000191690557f73746f726167653a696e7465726d6564696174653a726573756c747300000000602f906000191690557f743a6467640000000000000000000000000000000000000000000000000000006030906000191690557f743a6467780000000000000000000000000000000000000000000000000000006031906000191690557f743a6261646765000000000000000000000000000000000000000000000000006032906000191690556001603360006101000a81548160ff021916908360ff1602179055506002603360016101000a81548160ff021916908360ff1602179055506003603360026101000a81548160ff021916908360ff1602179055506004603360036101000a81548160ff021916908360ff1602179055506276a7006034557f6d696e5f6467645f7061727469636970616e74000000000000000000000000006035906000191690557f6d696e5f6467645f6d6f64657261746f720000000000000000000000000000006036906000191690557f6d696e5f72657075746174696f6e5f6d6f64657261746f7200000000000000006037906000191690557f6c6f636b696e675f70686173655f6475726174696f6e000000000000000000006038906000191690557f717561727465725f6475726174696f6e000000000000000000000000000000006039906000191690557f766f74696e675f636f6d6d69745f706861736500000000000000000000000000603a906000191690557f766f74696e675f70686173655f746f74616c0000000000000000000000000000603b906000191690557f696e746572696d5f766f74696e675f636f6d6d69745f70686173650000000000603c906000191690557f696e746572696d5f766f74696e675f70686173655f746f74616c000000000000603d906000191690557f64726166745f71756f72756d5f66697865645f6e756d657261746f7200000000603e906000191690557f64726166745f71756f72756d5f66697865645f64656e6f6d696e61746f720000603f906000191690557f64726166745f71756f72756d5f73666163746f725f6e756d657261746f7200006040906000191690557f64726166745f71756f72756d5f73666163746f725f64656e6f6d696e61746f726041906000191690557f766f74655f71756f72756d5f66697865645f6e756d657261746f7200000000006042906000191690557f766f74655f71756f72756d5f66697865645f64656e6f6d696e61746f720000006043906000191690557f766f74655f71756f72756d5f73666163746f725f6e756d657261746f720000006044906000191690557f766f74655f71756f72756d5f73666163746f725f64656e6f6d696e61746f72006045906000191690557f66696e616c5f7265776172645f73666163746f725f6e756d657261746f7200006046906000191690557f66696e616c5f7265776172645f73666163746f725f64656e6f6d696e61746f726047906000191690557f64726166745f71756f74615f6e756d657261746f7200000000000000000000006048906000191690557f64726166745f71756f74615f64656e6f6d696e61746f720000000000000000006049906000191690557f766f74696e675f71756f74615f6e756d657261746f7200000000000000000000604a906000191690557f766f74696e675f71756f74615f64656e6f6d696e61746f720000000000000000604b906000191690557f6d696e696d616c5f717000000000000000000000000000000000000000000000604c906000191690557f717561727465725f706f696e745f7363616c696e675f666163746f7200000000604d906000191690557f7265705f706f696e745f7363616c696e675f666163746f720000000000000000604e906000191690557f6d696e696d616c5f6d6f645f7170000000000000000000000000000000000000604f906000191690557f6d6f645f71705f7363616c696e675f666163746f7200000000000000000000006050906000191690557f6d6f645f7265705f706f696e745f7363616c696e675f666163746f72000000006051906000191690557f717561727465725f706f696e745f64726166745f766f746500000000000000006052906000191690557f717561727465725f706f696e745f766f746500000000000000000000000000006053906000191690557f717561727465725f706f696e745f696e746572696d5f766f74650000000000006054906000191690557f715f705f6d696c6573746f6e655f636f6d706c6574696f6e00000000000000006055906000191690557f626f6e75735f72657075746174696f6e5f6e756d657261746f720000000000006056906000191690557f626f6e75735f72657075746174696f6e5f64656e6f6d696e61746f72000000006057906000191690557f7370656369616c5f70726f706f73616c5f636f6d6d69745f70686173650000006058906000191690557f7370656369616c5f70726f706f73616c5f70686173655f746f74616c000000006059906000191690557f636f6e6669675f7370656369616c5f71756f74615f6e756d657261746f720000605a906000191690557f636f6e6669675f7370656369616c5f71756f74615f64656e6f6d696e61746f72605b906000191690557f7370656369616c5f71756f72756d5f6e756d657261746f720000000000000000605c906000191690557f7370656369616c5f71756f72756d5f64656e6f6d696e61746f72000000000000605d906000191690557f636f6e6669675f6d61785f72657075746174696f6e5f646564756374696f6e00605e906000191690557f636f6e6669675f70756e6973686d656e745f6e6f745f6c6f636b696e67000000605f906000191690557f636f6e6669675f7265705f7065725f65787472615f71705f6e756d00000000006060906000191690557f636f6e6669675f7265705f7065725f65787472615f71705f64656e00000000006061906000191690557f636f6e6669675f6d61785f6d5f72705f646564756374696f6e000000000000006062906000191690557f636f6e6669675f7265705f7065725f65787472615f6d5f71705f6e756d0000006063906000191690557f636f6e6669675f7265705f7065725f65787472615f6d5f71705f64656e0000006064906000191690557f636f6e6669675f6d6f645f706f7274696f6e5f6e756d000000000000000000006065906000191690557f636f6e6669675f6d6f645f706f7274696f6e5f64656e000000000000000000006066906000191690557f636f6e6669675f64726166745f766f74696e675f7068617365000000000000006067906000191690557f636f6e6669675f72705f626f6f73745f7065725f6261646765000000000000006068906000191690557f636f6e6669675f636c61696d696e675f646561646c696e6500000000000000006069906000191690557f636f6e6669675f70726570726f706f73616c5f636f6c6c61746572616c000000606a906000191690557f636f6e6669675f6d61785f66756e64696e675f6e6f6e44696769780000000000606b906000191690557f636f6e6669675f6d61785f6d696c6573746f6e65735f6e6f6e44696769780000606c906000191690557f636f6e6669675f6e6f6e44696769785f70726f706f73616c5f63617000000000606d906000191690557f636f6e6669675f646561645f6475726174696f6e000000000000000000000000606e906000191690557f636f6e6669675f63765f72657075746174696f6e000000000000000000000000606f9060001916905534801561113357600080fd5b5061116c806111436000396000f3006080604052600436106100d0576000357c0100000000000000000000000000000000000000000000000000000000900463ffffffff16806304f3bcec146100d55780631d8ccd041461012c5780633943380c1461019d5780633f83acff146101d0578063560a25ea14610241578063685330601461026c5780637d6fed801461029b5780637f6a26b6146102ca578063929066f5146102f557806393ddad0814610350578063b1e2b9dd1461039d578063d70d9358146103e2578063db4ecbc114610411578063fa6f393614610468575b600080fd5b3480156100e157600080fd5b506100ea6104c3565b604051808273ffffffffffffffffffffffffffffffffffffffff1673ffffffffffffffffffffffffffffffffffffffff16815260200191505060405180910390f35b34801561013857600080fd5b5061015b60048036038101908080356000191690602001909291905050506104e8565b604051808273ffffffffffffffffffffffffffffffffffffffff1673ffffffffffffffffffffffffffffffffffffffff16815260200191505060405180910390f35b3480156101a957600080fd5b506101b26105aa565b60405180826000191660001916815260200191505060405180910390f35b3480156101dc57600080fd5b506101ff60048036038101908080356000191690602001909291905050506105b0565b604051808273ffffffffffffffffffffffffffffffffffffffff1673ffffffffffffffffffffffffffffffffffffffff16815260200191505060405180910390f35b34801561024d57600080fd5b5061025661068c565b6040518082815260200191505060405180910390f35b34801561027857600080fd5b5061028161069c565b604051808215151515815260200191505060405180910390f35b3480156102a757600080fd5b506102b06106c8565b604051808215151515815260200191505060405180910390f35b3480156102d657600080fd5b506102df6106e3565b6040518082815260200191505060405180910390f35b34801561030157600080fd5b50610336600480360381019080803573ffffffffffffffffffffffffffffffffffffffff1690602001909291905050506106f3565b604051808215151515815260200191505060405180910390f35b34801561035c57600080fd5b5061037f60048036038101908080356000191690602001909291905050506108d4565b60405180826000191660001916815260200191505060405180910390f35b3480156103a957600080fd5b506103cc6004803603810190808035600019169060200190929190505050610996565b6040518082815260200191505060405180910390f35b3480156103ee57600080fd5b506103f7610a58565b604051808215151515815260200191505060405180910390f35b34801561041d57600080fd5b50610426610b06565b604051808273ffffffffffffffffffffffffffffffffffffffff1673ffffffffffffffffffffffffffffffffffffffff16815260200191505060405180910390f35b34801561047457600080fd5b506104a9600480360381019080803573ffffffffffffffffffffffffffffffffffffffff169060200190929190505050610b2c565b604051808215151515815260200191505060405180910390f35b6000809054906101000a900473ffffffffffffffffffffffffffffffffffffffff1681565b60006104f2610dff565b73ffffffffffffffffffffffffffffffffffffffff1663e6b39eab836040518263ffffffff167c0100000000000000000000000000000000000000000000000000000000028152600401808260001916600019168152602001915050602060405180830381600087803b15801561056857600080fd5b505af115801561057c573d6000803e3d6000fd5b505050506040513d602081101561059257600080fd5b81019080805190602001909291905050509050919050565b60015481565b60008060009054906101000a900473ffffffffffffffffffffffffffffffffffffffff1673ffffffffffffffffffffffffffffffffffffffff16633f83acff836040518263ffffffff167c0100000000000000000000000000000000000000000000000000000000028152600401808260001916600019168152602001915050602060405180830381600087803b15801561064a57600080fd5b505af115801561065e573d6000803e3d6000fd5b505050506040513d602081101561067457600080fd5b81019080805190602001909291905050509050919050565b600061069742610e11565b905090565b60006106a6610a58565b80156106c357506106b8603854610996565b6106c061068c565b10155b905090565b60006106d5603854610996565b6106dd61068c565b10905090565b60006106ee42610efa565b905090565b60006106fd6106e3565b610705610ffd565b73ffffffffffffffffffffffffffffffffffffffff1663cefc2bff846040518263ffffffff167c0100000000000000000000000000000000000000000000000000000000028152600401808273ffffffffffffffffffffffffffffffffffffffff1673ffffffffffffffffffffffffffffffffffffffff168152602001915050602060405180830381600087803b15801561079f57600080fd5b505af11580156107b3573d6000803e3d6000fd5b505050506040513d60208110156107c957600080fd5b81019080805190602001909291905050501480156108cd57506107ed603554610996565b6107f561100f565b73ffffffffffffffffffffffffffffffffffffffff1663cd094a27846040518263ffffffff167c0100000000000000000000000000000000000000000000000000000000028152600401808273ffffffffffffffffffffffffffffffffffffffff1673ffffffffffffffffffffffffffffffffffffffff168152602001915050602060405180830381600087803b15801561088f57600080fd5b505af11580156108a3573d6000803e3d6000fd5b505050506040513d60208110156108b957600080fd5b810190808051906020019092919050505010155b9050919050565b60006108de610dff565b73ffffffffffffffffffffffffffffffffffffffff1663c0a8405d836040518263ffffffff167c0100000000000000000000000000000000000000000000000000000000028152600401808260001916600019168152602001915050602060405180830381600087803b15801561095457600080fd5b505af1158015610968573d6000803e3d6000fd5b505050506040513d602081101561097e57600080fd5b81019080805190602001909291905050509050919050565b60006109a0610dff565b73ffffffffffffffffffffffffffffffffffffffff1663734c1168836040518263ffffffff167c0100000000000000000000000000000000000000000000000000000000028152600401808260001916600019168152602001915050602060405180830381600087803b158015610a1657600080fd5b505af1158015610a2a573d6000803e3d6000fd5b505050506040513d6020811015610a4057600080fd5b81019080805190602001909291905050509050919050565b6000610a62611021565b73ffffffffffffffffffffffffffffffffffffffff16638bc865fd6040518163ffffffff167c0100000000000000000000000000000000000000000000000000000000028152600401602060405180830381600087803b158015610ac557600080fd5b505af1158015610ad9573d6000803e3d6000fd5b505050506040513d6020811015610aef57600080fd5b810190808051906020019092919050505015905090565b600260009054906101000a900473ffffffffffffffffffffffffffffffffffffffff1681565b6000610b366106e3565b610b3e610ffd565b73ffffffffffffffffffffffffffffffffffffffff1663cefc2bff846040518263ffffffff167c0100000000000000000000000000000000000000000000000000000000028152600401808273ffffffffffffffffffffffffffffffffffffffff1673ffffffffffffffffffffffffffffffffffffffff168152602001915050602060405180830381600087803b158015610bd857600080fd5b505af1158015610bec573d6000803e3d6000fd5b505050506040513d6020811015610c0257600080fd5b8101908080519060200190929190505050148015610d065750610c26603654610996565b610c2e61100f565b73ffffffffffffffffffffffffffffffffffffffff1663cd094a27846040518263ffffffff167c0100000000000000000000000000000000000000000000000000000000028152600401808273ffffffffffffffffffffffffffffffffffffffff1673ffffffffffffffffffffffffffffffffffffffff168152602001915050602060405180830381600087803b158015610cc857600080fd5b505af1158015610cdc573d6000803e3d6000fd5b505050506040513d6020811015610cf257600080fd5b810190808051906020019092919050505010155b8015610df85750610d18603754610996565b610d20611033565b73ffffffffffffffffffffffffffffffffffffffff16639c89a0e2846040518263ffffffff167c0100000000000000000000000000000000000000000000000000000000028152600401808273ffffffffffffffffffffffffffffffffffffffff1673ffffffffffffffffffffffffffffffffffffffff168152602001915050602060405180830381600087803b158015610dba57600080fd5b505af1158015610dce573d6000803e3d6000fd5b505050506040513d6020811015610de457600080fd5b810190808051906020019092919050505010155b9050919050565b6000610e0c602b546105b0565b905090565b6000610e1b611045565b1515610e2657600080fd5b610e31603954610996565b610ee9610e3c611021565b73ffffffffffffffffffffffffffffffffffffffff1663d9c6bb206040518163ffffffff167c0100000000000000000000000000000000000000000000000000000000028152600401602060405180830381600087803b158015610e9f57600080fd5b505af1158015610eb3573d6000803e3d6000fd5b505050506040513d6020811015610ec957600080fd5b8101908080519060200190929190505050846110f590919063ffffffff16565b811515610ef257fe5b069050919050565b6000610f04611045565b1515610f0f57600080fd5b610ff66001610fe8610f22603954610996565b610fda610f2d611021565b73ffffffffffffffffffffffffffffffffffffffff1663d9c6bb206040518163ffffffff167c0100000000000000000000000000000000000000000000000000000000028152600401602060405180830381600087803b158015610f9057600080fd5b505af1158015610fa4573d6000803e3d6000fd5b505050506040513d6020811015610fba57600080fd5b8101908080519060200190929190505050876110f590919063ffffffff16565b61110e90919063ffffffff16565b61112490919063ffffffff16565b9050919050565b600061100a602d546105b0565b905090565b600061101c602c546105b0565b905090565b600061102e6027546105b0565b905090565b60006110406029546105b0565b905090565b600080611050611021565b73ffffffffffffffffffffffffffffffffffffffff1663d9c6bb206040518163ffffffff167c0100000000000000000000000000000000000000000000000000000000028152600401602060405180830381600087803b1580156110b357600080fd5b505af11580156110c7573d6000803e3d6000fd5b505050506040513d60208110156110dd57600080fd5b81019080805190602001909291905050501415905090565b600082821115151561110357fe5b818303905092915050565b6000818381151561111b57fe5b04905092915050565b6000818301905082811015151561113757fe5b809050929150505600a165627a7a7230582039d1dfc965cf60b631cf2f3583faee1b9885ff247ba52003d70a5d72e63436450029",
  "source": "pragma solidity ^0.4.25;\n\nimport \"./DaoCommonMini.sol\";\nimport \"../lib/MathHelper.sol\";\n\ncontract DaoCommon is DaoCommonMini {\n\n    using MathHelper for MathHelper;\n\n    /**\n    @notice Check if the transaction is called by the proposer of a proposal\n    @return _isFromProposer true if the caller is the proposer\n    */\n    function isFromProposer(bytes32 _proposalId)\n        internal\n        view\n        returns (bool _isFromProposer)\n    {\n        _isFromProposer = msg.sender == daoStorage().readProposalProposer(_proposalId);\n    }\n\n    /**\n    @notice Check if the proposal can still be \"editted\", or in other words, added more versions\n    @dev Once the proposal is finalized, it can no longer be editted. The proposer will still be able to add docs and change fundings though.\n    @return _isEditable true if the proposal is editable\n    */\n    function isEditable(bytes32 _proposalId)\n        internal\n        view\n        returns (bool _isEditable)\n    {\n        bytes32 _finalVersion;\n        (,,,,,,,_finalVersion,,) = daoStorage().readProposal(_proposalId);\n        _isEditable = _finalVersion == EMPTY_BYTES;\n    }\n\n    /**\n    @notice returns the balance of DaoFundingManager, which is the wei in DigixDAO\n    */\n    function weiInDao()\n        internal\n        view\n        returns (uint256 _wei)\n    {\n        _wei = get_contract(CONTRACT_DAO_FUNDING_MANAGER).balance;\n    }\n\n    /**\n    @notice Check if it is after the draft voting phase of the proposal\n    */\n    modifier ifAfterDraftVotingPhase(bytes32 _proposalId) {\n        uint256 _start = daoStorage().readProposalDraftVotingTime(_proposalId);\n        require(_start > 0); // Draft voting must have started. In other words, proposer must have finalized the proposal\n        require(now >= _start.add(getUintConfig(CONFIG_DRAFT_VOTING_PHASE)));\n        _;\n    }\n\n    modifier ifCommitPhase(bytes32 _proposalId, uint8 _index) {\n        requireInPhase(\n            daoStorage().readProposalVotingTime(_proposalId, _index),\n            0,\n            getUintConfig(_index == 0 ? CONFIG_VOTING_COMMIT_PHASE : CONFIG_INTERIM_COMMIT_PHASE)\n        );\n        _;\n    }\n\n    modifier ifRevealPhase(bytes32 _proposalId, uint256 _index) {\n      requireInPhase(\n          daoStorage().readProposalVotingTime(_proposalId, _index),\n          getUintConfig(_index == 0 ? CONFIG_VOTING_COMMIT_PHASE : CONFIG_INTERIM_COMMIT_PHASE),\n          getUintConfig(_index == 0 ? CONFIG_VOTING_PHASE_TOTAL : CONFIG_INTERIM_PHASE_TOTAL)\n      );\n      _;\n    }\n\n    modifier ifAfterProposalRevealPhase(bytes32 _proposalId, uint256 _index) {\n      uint256 _start = daoStorage().readProposalVotingTime(_proposalId, _index);\n      require(_start > 0);\n      require(now >= _start.add(getUintConfig(_index == 0 ? CONFIG_VOTING_PHASE_TOTAL : CONFIG_INTERIM_PHASE_TOTAL)));\n      _;\n    }\n\n    modifier ifDraftVotingPhase(bytes32 _proposalId) {\n        requireInPhase(\n            daoStorage().readProposalDraftVotingTime(_proposalId),\n            0,\n            getUintConfig(CONFIG_DRAFT_VOTING_PHASE)\n        );\n        _;\n    }\n\n    modifier isProposalState(bytes32 _proposalId, bytes32 _STATE) {\n        bytes32 _currentState;\n        (,,,_currentState,,,,,,) = daoStorage().readProposal(_proposalId);\n        require(_currentState == _STATE);\n        _;\n    }\n\n    modifier ifDraftNotClaimed(bytes32 _proposalId) {\n        require(daoStorage().isDraftClaimed(_proposalId) == false);\n        _;\n    }\n\n    modifier ifNotClaimed(bytes32 _proposalId, uint256 _index) {\n        require(daoStorage().isClaimed(_proposalId, _index) == false);\n        _;\n    }\n\n    modifier ifNotClaimedSpecial(bytes32 _proposalId) {\n        require(daoSpecialStorage().isClaimed(_proposalId) == false);\n        _;\n    }\n\n    modifier hasNotRevealed(bytes32 _proposalId, uint256 _index) {\n        uint256 _voteWeight;\n        (, _voteWeight) = daoStorage().readVote(_proposalId, _index, msg.sender);\n        require(_voteWeight == uint(0));\n        _;\n    }\n\n    modifier hasNotRevealedSpecial(bytes32 _proposalId) {\n        uint256 _weight;\n        (,_weight) = daoSpecialStorage().readVote(_proposalId, msg.sender);\n        require(_weight == uint256(0));\n        _;\n    }\n\n    modifier ifAfterRevealPhaseSpecial(bytes32 _proposalId) {\n      uint256 _start = daoSpecialStorage().readVotingTime(_proposalId);\n      require(_start > 0);\n      require(now.sub(_start) >= getUintConfig(CONFIG_SPECIAL_PROPOSAL_PHASE_TOTAL));\n      _;\n    }\n\n    modifier ifCommitPhaseSpecial(bytes32 _proposalId) {\n        requireInPhase(\n            daoSpecialStorage().readVotingTime(_proposalId),\n            0,\n            getUintConfig(CONFIG_SPECIAL_PROPOSAL_COMMIT_PHASE)\n        );\n        _;\n    }\n\n    modifier ifRevealPhaseSpecial(bytes32 _proposalId) {\n        requireInPhase(\n            daoSpecialStorage().readVotingTime(_proposalId),\n            getUintConfig(CONFIG_SPECIAL_PROPOSAL_COMMIT_PHASE),\n            getUintConfig(CONFIG_SPECIAL_PROPOSAL_PHASE_TOTAL)\n        );\n        _;\n    }\n\n    function daoWhitelistingStorage()\n        internal\n        view\n        returns (DaoWhitelistingStorage _contract)\n    {\n        _contract = DaoWhitelistingStorage(get_contract(CONTRACT_STORAGE_DAO_WHITELISTING));\n    }\n\n    function getAddressConfig(bytes32 _configKey)\n        public\n        view\n        returns (address _configValue)\n    {\n        _configValue = daoConfigsStorage().addressConfigs(_configKey);\n    }\n\n    function getBytesConfig(bytes32 _configKey)\n        public\n        view\n        returns (bytes32 _configValue)\n    {\n        _configValue = daoConfigsStorage().bytesConfigs(_configKey);\n    }\n\n    /**\n    @notice Check if a user is a participant in the current quarter\n    */\n    function isParticipant(address _user)\n        public\n        view\n        returns (bool _is)\n    {\n        _is =\n            (daoRewardsStorage().lastParticipatedQuarter(_user) == currentQuarterNumber())\n            && (daoStakeStorage().lockedDGDStake(_user) >= getUintConfig(CONFIG_MINIMUM_LOCKED_DGD));\n    }\n\n    /**\n    @notice Check if a user is a moderator in the current quarter\n    */\n    function isModerator(address _user)\n        public\n        view\n        returns (bool _is)\n    {\n        _is =\n            (daoRewardsStorage().lastParticipatedQuarter(_user) == currentQuarterNumber())\n            && (daoStakeStorage().lockedDGDStake(_user) >= getUintConfig(CONFIG_MINIMUM_DGD_FOR_MODERATOR))\n            && (daoPointsStorage().getReputation(_user) >= getUintConfig(CONFIG_MINIMUM_REPUTATION_FOR_MODERATOR));\n    }\n\n    /**\n    @notice Calculate the start of a specific milestone of a specific proposal.\n    @dev This is calculated from the voting start of the voting round preceding the milestone\n         This would throw if the voting start is 0 (the voting round has not started yet)\n         Note that if the milestoneIndex is exactly the same as the number of milestones,\n         This will just return the end of the last voting round.\n    */\n    function startOfMilestone(bytes32 _proposalId, uint256 _milestoneIndex)\n        internal\n        view\n        returns (uint256 _milestoneStart)\n    {\n        uint256 _startOfPrecedingVotingRound = daoStorage().readProposalVotingTime(_proposalId, _milestoneIndex);\n        require(_startOfPrecedingVotingRound > 0);\n        // the preceding voting round must have started\n\n        if (_milestoneIndex == 0) { // This is the 1st milestone, which starts after voting round 0\n            _milestoneStart =\n                _startOfPrecedingVotingRound\n                .add(getUintConfig(CONFIG_VOTING_PHASE_TOTAL));\n        } else { // if its the n-th milestone, it starts after voting round n-th\n            _milestoneStart =\n                _startOfPrecedingVotingRound\n                .add(getUintConfig(CONFIG_INTERIM_PHASE_TOTAL));\n        }\n    }\n\n    /**\n    @notice Calculate the actual voting start for a voting round, given the tentative start\n    @dev The tentative start is the ideal start. For example, when a proposer finish a milestone, it should be now\n         However, sometimes the tentative start is too close to the end of the quarter, hence, the actual voting start should be pushed to the next quarter\n    */\n    function getTimelineForNextVote(\n        uint256 _index,\n        uint256 _tentativeVotingStart\n    )\n        internal\n        view\n        returns (uint256 _actualVotingStart)\n    {\n        uint256 _timeLeftInQuarter = getTimeLeftInQuarter(_tentativeVotingStart);\n        uint256 _votingDuration = getUintConfig(_index == 0 ? CONFIG_VOTING_PHASE_TOTAL : CONFIG_INTERIM_PHASE_TOTAL);\n        _actualVotingStart = _tentativeVotingStart;\n        if (timeInQuarter(_tentativeVotingStart) < getUintConfig(CONFIG_LOCKING_PHASE_DURATION)) { // if the tentative start is during a locking phase\n            _actualVotingStart = _tentativeVotingStart.add(\n                getUintConfig(CONFIG_LOCKING_PHASE_DURATION).sub(timeInQuarter(_tentativeVotingStart))\n            );\n        } else if (_timeLeftInQuarter < _votingDuration.add(getUintConfig(CONFIG_VOTE_CLAIMING_DEADLINE))) { // if the time left in quarter is not enough to vote and claim voting\n            _actualVotingStart = _tentativeVotingStart.add(\n                _timeLeftInQuarter.add(getUintConfig(CONFIG_LOCKING_PHASE_DURATION)).add(1)\n            );\n        }\n    }\n\n    /**\n    @notice Check if we can add another non-Digix proposal in this quarter\n    @dev There is a max cap to the number of non-Digix proposals CONFIG_NON_DIGIX_PROPOSAL_CAP_PER_QUARTER\n    */\n    function checkNonDigixProposalLimit(bytes32 _proposalId)\n        internal\n        view\n    {\n        require(isNonDigixProposalsWithinLimit(_proposalId));\n    }\n\n    function isNonDigixProposalsWithinLimit(bytes32 _proposalId)\n        internal\n        view\n        returns (bool _withinLimit)\n    {\n        bool _isDigixProposal;\n        (,,,,,,,,,_isDigixProposal) = daoStorage().readProposal(_proposalId);\n        _withinLimit = true;\n        if (!_isDigixProposal) {\n            _withinLimit = daoProposalCounterStorage().proposalCountByQuarter(currentQuarterNumber()) < getUintConfig(CONFIG_NON_DIGIX_PROPOSAL_CAP_PER_QUARTER);\n        }\n    }\n\n    /**\n    @notice If its a non-Digix proposal, check if the fundings are within limit\n    @dev There is a max cap to the fundings and number of milestones for non-Digix proposals\n    */\n    function checkNonDigixFundings(uint256[] _milestonesFundings, uint256 _finalReward)\n        internal\n        view\n    {\n        if (!is_founder()) {\n            require(_milestonesFundings.length <= getUintConfig(CONFIG_MAX_MILESTONES_FOR_NON_DIGIX));\n            require(MathHelper.sumNumbers(_milestonesFundings).add(_finalReward) <= getUintConfig(CONFIG_MAX_FUNDING_FOR_NON_DIGIX));\n        }\n    }\n\n    /**\n    @notice Check if msg.sender can do operations as a proposer\n    @dev Note that this function does not check if he is the proposer of the proposal\n    */\n    function senderCanDoProposerOperations()\n        internal\n        view\n    {\n        require(isMainPhase());\n        require(isParticipant(msg.sender));\n        require(identity_storage().is_kyc_approved(msg.sender));\n    }\n}\n",
  "sourcePath": "/home/rohit/Develop/dao-contracts/contracts/common/DaoCommon.sol",
  "compiler": {
    "name": "solc",
    "version": "0.4.25+commit.59dbf8f1.Emscripten.clang"
  },
  "schemaVersion": "2.0.2",
  "updatedAt": "2019-03-18T07:32:19.968Z"
}