{
  "contractName": "DaoCommonMini",
  "abi": [
    {
      "constant": true,
      "inputs": [],
      "name": "resolver",
      "outputs": [
        {
          "name": "",
          "type": "address"
        }
      ],
      "payable": false,
      "stateMutability": "view",
      "type": "function"
    },
    {
      "constant": true,
      "inputs": [],
      "name": "key",
      "outputs": [
        {
          "name": "",
          "type": "bytes32"
        }
      ],
      "payable": false,
      "stateMutability": "view",
      "type": "function"
    },
    {
      "constant": true,
      "inputs": [
        {
          "name": "_key",
          "type": "bytes32"
        }
      ],
      "name": "get_contract",
      "outputs": [
        {
          "name": "_contract",
          "type": "address"
        }
      ],
      "payable": false,
      "stateMutability": "view",
      "type": "function"
    },
    {
      "constant": true,
      "inputs": [],
      "name": "CONTRACT_ADDRESS",
      "outputs": [
        {
          "name": "",
          "type": "address"
        }
      ],
      "payable": false,
      "stateMutability": "view",
      "type": "function"
    },
    {
      "constant": true,
      "inputs": [],
      "name": "isDaoNotReplaced",
      "outputs": [
        {
          "name": "_isNotReplaced",
          "type": "bool"
        }
      ],
      "payable": false,
      "stateMutability": "view",
      "type": "function"
    },
    {
      "constant": true,
      "inputs": [],
      "name": "isLockingPhase",
      "outputs": [
        {
          "name": "_isLockingPhase",
          "type": "bool"
        }
      ],
      "payable": false,
      "stateMutability": "view",
      "type": "function"
    },
    {
      "constant": true,
      "inputs": [],
      "name": "isMainPhase",
      "outputs": [
        {
          "name": "_isMainPhase",
          "type": "bool"
        }
      ],
      "payable": false,
      "stateMutability": "view",
      "type": "function"
    },
    {
      "constant": true,
      "inputs": [],
      "name": "currentQuarterNumber",
      "outputs": [
        {
          "name": "_quarterNumber",
          "type": "uint256"
        }
      ],
      "payable": false,
      "stateMutability": "view",
      "type": "function"
    },
    {
      "constant": true,
      "inputs": [],
      "name": "currentTimeInQuarter",
      "outputs": [
        {
          "name": "_currentT",
          "type": "uint256"
        }
      ],
      "payable": false,
      "stateMutability": "view",
      "type": "function"
    },
    {
      "constant": true,
      "inputs": [
        {
          "name": "_configKey",
          "type": "bytes32"
        }
      ],
      "name": "getUintConfig",
      "outputs": [
        {
          "name": "_configValue",
          "type": "uint256"
        }
      ],
      "payable": false,
      "stateMutability": "view",
      "type": "function"
    }
  ],
  "bytecode": "0x608060405260006001026003906000191690556000600460006101000a81548173ffffffffffffffffffffffffffffffffffffffff021916908373ffffffffffffffffffffffffffffffffffffffff1602179055507f70726f706f73616c5f73746174655f70726570726f706f73616c0000000000006005906000191690557f70726f706f73616c5f73746174655f64726166740000000000000000000000006006906000191690557f70726f706f73616c5f73746174655f6d6f6465726174656400000000000000006007906000191690557f70726f706f73616c5f73746174655f6f6e676f696e67000000000000000000006008906000191690557f70726f706f73616c5f73746174655f636c6f73656400000000000000000000006009906000191690557f70726f706f73616c5f73746174655f6172636869766564000000000000000000600a906000191690556001600b556002600c556003600d556001600e556002600f5560036010557f696e7465725f6467645f696400000000000000000000000000000000000000006011906000191690557f696e7465725f6d6f645f6467645f6964000000000000000000000000000000006012906000191690557f696e7465725f626f6e75735f63616c63756c6174696f6e5f69640000000000006013906000191690557f64616f00000000000000000000000000000000000000000000000000000000006014906000191690557f64616f3a7370656369616c3a70726f706f73616c0000000000000000000000006015906000191690557f64616f3a7374616b652d6c6f636b696e670000000000000000000000000000006016906000191690557f64616f3a766f74696e67000000000000000000000000000000000000000000006017906000191690557f64616f3a766f74696e673a636c61696d730000000000000000000000000000006018906000191690557f64616f3a73766f74696e673a636c61696d7300000000000000000000000000006019906000191690557f64616f3a6964656e746974790000000000000000000000000000000000000000601a906000191690557f64616f3a726577617264732d6d616e6167657200000000000000000000000000601b906000191690557f64616f3a726577617264732d6578747261730000000000000000000000000000601c906000191690557f64616f3a726f6c65730000000000000000000000000000000000000000000000601d906000191690557f64616f3a66756e64696e672d6d616e6167657200000000000000000000000000601e906000191690557f64616f3a77686974656c697374696e6700000000000000000000000000000000601f906000191690557f64616f3a696e666f726d6174696f6e00000000000000000000000000000000006020906000191690557f736572766963653a726f6c6500000000000000000000000000000000000000006021906000191690557f736572766963653a64616f3a696e666f000000000000000000000000000000006022906000191690557f736572766963653a64616f3a6c697374696e67000000000000000000000000006023906000191690557f736572766963653a64616f3a63616c63756c61746f72000000000000000000006024906000191690557f73746f726167653a64616f0000000000000000000000000000000000000000006025906000191690557f73746f726167653a64616f3a636f756e746572000000000000000000000000006026906000191690557f73746f726167653a64616f3a75706772616465000000000000000000000000006027906000191690557f73746f726167653a64616f3a6964656e746974790000000000000000000000006028906000191690557f73746f726167653a64616f3a706f696e747300000000000000000000000000006029906000191690557f73746f726167653a64616f3a7370656369616c00000000000000000000000000602a906000191690557f73746f726167653a64616f3a636f6e6669670000000000000000000000000000602b906000191690557f73746f726167653a64616f3a7374616b65000000000000000000000000000000602c906000191690557f73746f726167653a64616f3a7265776172647300000000000000000000000000602d906000191690557f73746f726167653a64616f3a77686974656c697374696e670000000000000000602e906000191690557f73746f726167653a696e7465726d6564696174653a726573756c747300000000602f906000191690557f743a6467640000000000000000000000000000000000000000000000000000006030906000191690557f743a6467780000000000000000000000000000000000000000000000000000006031906000191690557f743a6261646765000000000000000000000000000000000000000000000000006032906000191690556001603360006101000a81548160ff021916908360ff1602179055506002603360016101000a81548160ff021916908360ff1602179055506003603360026101000a81548160ff021916908360ff1602179055506004603360036101000a81548160ff021916908360ff1602179055506276a7006034557f6d696e5f6467645f7061727469636970616e74000000000000000000000000006035906000191690557f6d696e5f6467645f6d6f64657261746f720000000000000000000000000000006036906000191690557f6d696e5f72657075746174696f6e5f6d6f64657261746f7200000000000000006037906000191690557f6c6f636b696e675f70686173655f6475726174696f6e000000000000000000006038906000191690557f717561727465725f6475726174696f6e000000000000000000000000000000006039906000191690557f766f74696e675f636f6d6d69745f706861736500000000000000000000000000603a906000191690557f766f74696e675f70686173655f746f74616c0000000000000000000000000000603b906000191690557f696e746572696d5f766f74696e675f636f6d6d69745f70686173650000000000603c906000191690557f696e746572696d5f766f74696e675f70686173655f746f74616c000000000000603d906000191690557f64726166745f71756f72756d5f66697865645f6e756d657261746f7200000000603e906000191690557f64726166745f71756f72756d5f66697865645f64656e6f6d696e61746f720000603f906000191690557f64726166745f71756f72756d5f73666163746f725f6e756d657261746f7200006040906000191690557f64726166745f71756f72756d5f73666163746f725f64656e6f6d696e61746f726041906000191690557f766f74655f71756f72756d5f66697865645f6e756d657261746f7200000000006042906000191690557f766f74655f71756f72756d5f66697865645f64656e6f6d696e61746f720000006043906000191690557f766f74655f71756f72756d5f73666163746f725f6e756d657261746f720000006044906000191690557f766f74655f71756f72756d5f73666163746f725f64656e6f6d696e61746f72006045906000191690557f66696e616c5f7265776172645f73666163746f725f6e756d657261746f7200006046906000191690557f66696e616c5f7265776172645f73666163746f725f64656e6f6d696e61746f726047906000191690557f64726166745f71756f74615f6e756d657261746f7200000000000000000000006048906000191690557f64726166745f71756f74615f64656e6f6d696e61746f720000000000000000006049906000191690557f766f74696e675f71756f74615f6e756d657261746f7200000000000000000000604a906000191690557f766f74696e675f71756f74615f64656e6f6d696e61746f720000000000000000604b906000191690557f6d696e696d616c5f717000000000000000000000000000000000000000000000604c906000191690557f717561727465725f706f696e745f7363616c696e675f666163746f7200000000604d906000191690557f7265705f706f696e745f7363616c696e675f666163746f720000000000000000604e906000191690557f6d696e696d616c5f6d6f645f7170000000000000000000000000000000000000604f906000191690557f6d6f645f71705f7363616c696e675f666163746f7200000000000000000000006050906000191690557f6d6f645f7265705f706f696e745f7363616c696e675f666163746f72000000006051906000191690557f717561727465725f706f696e745f64726166745f766f746500000000000000006052906000191690557f717561727465725f706f696e745f766f746500000000000000000000000000006053906000191690557f717561727465725f706f696e745f696e746572696d5f766f74650000000000006054906000191690557f715f705f6d696c6573746f6e655f636f6d706c6574696f6e00000000000000006055906000191690557f626f6e75735f72657075746174696f6e5f6e756d657261746f720000000000006056906000191690557f626f6e75735f72657075746174696f6e5f64656e6f6d696e61746f72000000006057906000191690557f7370656369616c5f70726f706f73616c5f636f6d6d69745f70686173650000006058906000191690557f7370656369616c5f70726f706f73616c5f70686173655f746f74616c000000006059906000191690557f636f6e6669675f7370656369616c5f71756f74615f6e756d657261746f720000605a906000191690557f636f6e6669675f7370656369616c5f71756f74615f64656e6f6d696e61746f72605b906000191690557f7370656369616c5f71756f72756d5f6e756d657261746f720000000000000000605c906000191690557f7370656369616c5f71756f72756d5f64656e6f6d696e61746f72000000000000605d906000191690557f636f6e6669675f6d61785f72657075746174696f6e5f646564756374696f6e00605e906000191690557f636f6e6669675f70756e6973686d656e745f6e6f745f6c6f636b696e67000000605f906000191690557f636f6e6669675f7265705f7065725f65787472615f71705f6e756d00000000006060906000191690557f636f6e6669675f7265705f7065725f65787472615f71705f64656e00000000006061906000191690557f636f6e6669675f6d61785f6d5f72705f646564756374696f6e000000000000006062906000191690557f636f6e6669675f7265705f7065725f65787472615f6d5f71705f6e756d0000006063906000191690557f636f6e6669675f7265705f7065725f65787472615f6d5f71705f64656e0000006064906000191690557f636f6e6669675f6d6f645f706f7274696f6e5f6e756d000000000000000000006065906000191690557f636f6e6669675f6d6f645f706f7274696f6e5f64656e000000000000000000006066906000191690557f636f6e6669675f64726166745f766f74696e675f7068617365000000000000006067906000191690557f636f6e6669675f72705f626f6f73745f7065725f6261646765000000000000006068906000191690557f636f6e6669675f636c61696d696e675f646561646c696e6500000000000000006069906000191690557f636f6e6669675f70726570726f706f73616c5f636f6c6c61746572616c000000606a906000191690557f636f6e6669675f6d61785f66756e64696e675f6e6f6e44696769780000000000606b906000191690557f636f6e6669675f6d61785f6d696c6573746f6e65735f6e6f6e44696769780000606c906000191690557f636f6e6669675f6e6f6e44696769785f70726f706f73616c5f63617000000000606d906000191690557f636f6e6669675f646561645f6475726174696f6e000000000000000000000000606e906000191690557f636f6e6669675f63765f72657075746174696f6e000000000000000000000000606f9060001916905534801561113357600080fd5b5061095e806111436000396000f3006080604052600436106100a4576000357c0100000000000000000000000000000000000000000000000000000000900463ffffffff16806304f3bcec146100a95780633943380c146101005780633f83acff14610133578063560a25ea146101a457806368533060146101cf5780637d6fed80146101fe5780637f6a26b61461022d578063b1e2b9dd14610258578063d70d93581461029d578063db4ecbc1146102cc575b600080fd5b3480156100b557600080fd5b506100be610323565b604051808273ffffffffffffffffffffffffffffffffffffffff1673ffffffffffffffffffffffffffffffffffffffff16815260200191505060405180910390f35b34801561010c57600080fd5b50610115610348565b60405180826000191660001916815260200191505060405180910390f35b34801561013f57600080fd5b50610162600480360381019080803560001916906020019092919050505061034e565b604051808273ffffffffffffffffffffffffffffffffffffffff1673ffffffffffffffffffffffffffffffffffffffff16815260200191505060405180910390f35b3480156101b057600080fd5b506101b961042a565b6040518082815260200191505060405180910390f35b3480156101db57600080fd5b506101e461043a565b604051808215151515815260200191505060405180910390f35b34801561020a57600080fd5b50610213610466565b604051808215151515815260200191505060405180910390f35b34801561023957600080fd5b50610242610481565b6040518082815260200191505060405180910390f35b34801561026457600080fd5b506102876004803603810190808035600019169060200190929190505050610491565b6040518082815260200191505060405180910390f35b3480156102a957600080fd5b506102b2610553565b604051808215151515815260200191505060405180910390f35b3480156102d857600080fd5b506102e1610601565b604051808273ffffffffffffffffffffffffffffffffffffffff1673ffffffffffffffffffffffffffffffffffffffff16815260200191505060405180910390f35b6000809054906101000a900473ffffffffffffffffffffffffffffffffffffffff1681565b60015481565b60008060009054906101000a900473ffffffffffffffffffffffffffffffffffffffff1673ffffffffffffffffffffffffffffffffffffffff16633f83acff836040518263ffffffff167c0100000000000000000000000000000000000000000000000000000000028152600401808260001916600019168152602001915050602060405180830381600087803b1580156103e857600080fd5b505af11580156103fc573d6000803e3d6000fd5b505050506040513d602081101561041257600080fd5b81019080805190602001909291905050509050919050565b600061043542610627565b905090565b6000610444610553565b80156104615750610456603854610491565b61045e61042a565b10155b905090565b6000610473603854610491565b61047b61042a565b10905090565b600061048c42610710565b905090565b600061049b610813565b73ffffffffffffffffffffffffffffffffffffffff1663734c1168836040518263ffffffff167c0100000000000000000000000000000000000000000000000000000000028152600401808260001916600019168152602001915050602060405180830381600087803b15801561051157600080fd5b505af1158015610525573d6000803e3d6000fd5b505050506040513d602081101561053b57600080fd5b81019080805190602001909291905050509050919050565b600061055d610825565b73ffffffffffffffffffffffffffffffffffffffff16638bc865fd6040518163ffffffff167c0100000000000000000000000000000000000000000000000000000000028152600401602060405180830381600087803b1580156105c057600080fd5b505af11580156105d4573d6000803e3d6000fd5b505050506040513d60208110156105ea57600080fd5b810190808051906020019092919050505015905090565b600260009054906101000a900473ffffffffffffffffffffffffffffffffffffffff1681565b6000610631610837565b151561063c57600080fd5b610647603954610491565b6106ff610652610825565b73ffffffffffffffffffffffffffffffffffffffff1663d9c6bb206040518163ffffffff167c0100000000000000000000000000000000000000000000000000000000028152600401602060405180830381600087803b1580156106b557600080fd5b505af11580156106c9573d6000803e3d6000fd5b505050506040513d60208110156106df57600080fd5b8101908080519060200190929190505050846108e790919063ffffffff16565b81151561070857fe5b069050919050565b600061071a610837565b151561072557600080fd5b61080c60016107fe610738603954610491565b6107f0610743610825565b73ffffffffffffffffffffffffffffffffffffffff1663d9c6bb206040518163ffffffff167c0100000000000000000000000000000000000000000000000000000000028152600401602060405180830381600087803b1580156107a657600080fd5b505af11580156107ba573d6000803e3d6000fd5b505050506040513d60208110156107d057600080fd5b8101908080519060200190929190505050876108e790919063ffffffff16565b61090090919063ffffffff16565b61091690919063ffffffff16565b9050919050565b6000610820602b5461034e565b905090565b600061083260275461034e565b905090565b600080610842610825565b73ffffffffffffffffffffffffffffffffffffffff1663d9c6bb206040518163ffffffff167c0100000000000000000000000000000000000000000000000000000000028152600401602060405180830381600087803b1580156108a557600080fd5b505af11580156108b9573d6000803e3d6000fd5b505050506040513d60208110156108cf57600080fd5b81019080805190602001909291905050501415905090565b60008282111515156108f557fe5b818303905092915050565b6000818381151561090d57fe5b04905092915050565b6000818301905082811015151561092957fe5b809050929150505600a165627a7a72305820877ecfc6ec22babef0c33235c422f2154f5638c416013f9b855987afbf737a800029",
  "source": "pragma solidity ^0.4.25;\n\nimport \"../service/DaoListingService.sol\";\nimport \"./DaoConstants.sol\";\nimport \"./IdentityCommon.sol\";\nimport \"../storage/DaoConfigsStorage.sol\";\nimport \"../storage/DaoStakeStorage.sol\";\nimport \"../storage/DaoStorage.sol\";\nimport \"../storage/DaoProposalCounterStorage.sol\";\nimport \"../storage/DaoUpgradeStorage.sol\";\nimport \"../storage/DaoSpecialStorage.sol\";\nimport \"../storage/DaoPointsStorage.sol\";\nimport \"../storage/DaoRewardsStorage.sol\";\nimport \"../storage/IntermediateResultsStorage.sol\";\nimport \"../lib/MathHelper.sol\";\n\ncontract DaoCommonMini is IdentityCommon {\n\n    using MathHelper for MathHelper;\n\n    /**\n    @notice Check if the DAO contracts have been replaced by a new set of contracts\n    @return _isNotReplaced true if it is not replaced, false if it has already been replaced\n    */\n    function isDaoNotReplaced()\n        public\n        view\n        returns (bool _isNotReplaced)\n    {\n        _isNotReplaced = !daoUpgradeStorage().isReplacedByNewDao();\n    }\n\n    /**\n    @notice Check if it is currently in the locking phase\n    @dev No governance activities can happen in the locking phase. The locking phase is from t=0 to t=CONFIG_LOCKING_PHASE_DURATION-1\n    @return _isLockingPhase true if it is in the locking phase\n    */\n    function isLockingPhase()\n        public\n        view\n        returns (bool _isLockingPhase)\n    {\n        _isLockingPhase = currentTimeInQuarter() < getUintConfig(CONFIG_LOCKING_PHASE_DURATION);\n    }\n\n    /**\n    @notice Check if it is currently in a main phase.\n    @dev The main phase is where all the governance activities could take plase. If the DAO is replaced, there can never be any more main phase.\n    @return _isMainPhase true if it is in a main phase\n    */\n    function isMainPhase()\n        public\n        view\n        returns (bool _isMainPhase)\n    {\n        _isMainPhase =\n            isDaoNotReplaced() &&\n            currentTimeInQuarter() >= getUintConfig(CONFIG_LOCKING_PHASE_DURATION);\n    }\n\n    /**\n    @notice Check if the calculateGlobalRewardsBeforeNewQuarter function has been done for a certain quarter\n    @dev However, there is no need to run calculateGlobalRewardsBeforeNewQuarter for the first quarter\n    */\n    modifier ifGlobalRewardsSet(uint256 _quarterNumber) {\n        if (_quarterNumber > 1) {\n            require(daoRewardsStorage().readDgxDistributionDay(_quarterNumber) > 0);\n        }\n        _;\n    }\n\n    /**\n    @notice require that it is currently during a phase, which is within _relativePhaseStart and _relativePhaseEnd seconds, after the _startingPoint\n    */\n    function requireInPhase(uint256 _startingPoint, uint256 _relativePhaseStart, uint256 _relativePhaseEnd)\n        internal\n        view\n    {\n        require(_startingPoint > 0);\n        require(now < _startingPoint.add(_relativePhaseEnd));\n        require(now >= _startingPoint.add(_relativePhaseStart));\n    }\n\n    /**\n    @notice Get the current quarter index\n    @dev Quarter indexes starts from 1\n    @return _quarterNumber the current quarter index\n    */\n    function currentQuarterNumber()\n        public\n        view\n        returns(uint256 _quarterNumber)\n    {\n        _quarterNumber = getQuarterNumber(now);\n    }\n\n    /**\n    @notice Get the quarter index of a timestamp\n    @dev Quarter indexes starts from 1\n    @return _index the quarter index\n    */\n    function getQuarterNumber(uint256 _time)\n        internal\n        view\n        returns (uint256 _index)\n    {\n        require(startOfFirstQuarterIsSet());\n        _index =\n            _time.sub(daoUpgradeStorage().startOfFirstQuarter())\n            .div(getUintConfig(CONFIG_QUARTER_DURATION))\n            .add(1);\n    }\n\n    /**\n    @notice Get the relative time in quarter of a timestamp\n    @dev For example, the timeInQuarter of the first second of any quarter n-th is always 1\n    */\n    function timeInQuarter(uint256 _time)\n        internal\n        view\n        returns (uint256 _timeInQuarter)\n    {\n        require(startOfFirstQuarterIsSet()); // must be already set\n        _timeInQuarter =\n            _time.sub(daoUpgradeStorage().startOfFirstQuarter())\n            % getUintConfig(CONFIG_QUARTER_DURATION);\n    }\n\n    /**\n    @notice Check if the start of first quarter is already set\n    @return _isSet true if start of first quarter is already set\n    */\n    function startOfFirstQuarterIsSet()\n        internal\n        view\n        returns (bool _isSet)\n    {\n        _isSet = daoUpgradeStorage().startOfFirstQuarter() != 0;\n    }\n\n    /**\n    @notice Get the current relative time in the quarter\n    @dev For example: the currentTimeInQuarter of the first second of any quarter is 1\n    @return _currentT the current relative time in the quarter\n    */\n    function currentTimeInQuarter()\n        public\n        view\n        returns (uint256 _currentT)\n    {\n        _currentT = timeInQuarter(now);\n    }\n\n    /**\n    @notice Get the time remaining in the quarter\n    */\n    function getTimeLeftInQuarter(uint256 _time)\n        internal\n        view\n        returns (uint256 _timeLeftInQuarter)\n    {\n        _timeLeftInQuarter = getUintConfig(CONFIG_QUARTER_DURATION).sub(timeInQuarter(_time));\n    }\n\n    function daoListingService()\n        internal\n        view\n        returns (DaoListingService _contract)\n    {\n        _contract = DaoListingService(get_contract(CONTRACT_SERVICE_DAO_LISTING));\n    }\n\n    function daoConfigsStorage()\n        internal\n        view\n        returns (DaoConfigsStorage _contract)\n    {\n        _contract = DaoConfigsStorage(get_contract(CONTRACT_STORAGE_DAO_CONFIG));\n    }\n\n    function daoStakeStorage()\n        internal\n        view\n        returns (DaoStakeStorage _contract)\n    {\n        _contract = DaoStakeStorage(get_contract(CONTRACT_STORAGE_DAO_STAKE));\n    }\n\n    function daoStorage()\n        internal\n        view\n        returns (DaoStorage _contract)\n    {\n        _contract = DaoStorage(get_contract(CONTRACT_STORAGE_DAO));\n    }\n\n    function daoProposalCounterStorage()\n        internal\n        view\n        returns (DaoProposalCounterStorage _contract)\n    {\n        _contract = DaoProposalCounterStorage(get_contract(CONTRACT_STORAGE_DAO_COUNTER));\n    }\n\n    function daoUpgradeStorage()\n        internal\n        view\n        returns (DaoUpgradeStorage _contract)\n    {\n        _contract = DaoUpgradeStorage(get_contract(CONTRACT_STORAGE_DAO_UPGRADE));\n    }\n\n    function daoSpecialStorage()\n        internal\n        view\n        returns (DaoSpecialStorage _contract)\n    {\n        _contract = DaoSpecialStorage(get_contract(CONTRACT_STORAGE_DAO_SPECIAL));\n    }\n\n    function daoPointsStorage()\n        internal\n        view\n        returns (DaoPointsStorage _contract)\n    {\n        _contract = DaoPointsStorage(get_contract(CONTRACT_STORAGE_DAO_POINTS));\n    }\n\n    function daoRewardsStorage()\n        internal\n        view\n        returns (DaoRewardsStorage _contract)\n    {\n        _contract = DaoRewardsStorage(get_contract(CONTRACT_STORAGE_DAO_REWARDS));\n    }\n\n    function intermediateResultsStorage()\n        internal\n        view\n        returns (IntermediateResultsStorage _contract)\n    {\n        _contract = IntermediateResultsStorage(get_contract(CONTRACT_STORAGE_INTERMEDIATE_RESULTS));\n    }\n\n    function getUintConfig(bytes32 _configKey)\n        public\n        view\n        returns (uint256 _configValue)\n    {\n        _configValue = daoConfigsStorage().uintConfigs(_configKey);\n    }\n}\n",
  "sourcePath": "/home/rohit/Develop/dao-contracts/contracts/common/DaoCommonMini.sol",
  "compiler": {
    "name": "solc",
    "version": "0.4.25+commit.59dbf8f1.Emscripten.clang"
  },
  "schemaVersion": "2.0.2",
  "updatedAt": "2019-03-18T07:32:19.971Z"
}