{
  "contractName": "DaoInformation",
  "abi": [
    {
      "constant": true,
      "inputs": [],
      "name": "resolver",
      "outputs": [
        {
          "name": "",
          "type": "address"
        }
      ],
      "payable": false,
      "stateMutability": "view",
      "type": "function"
    },
    {
      "constant": true,
      "inputs": [
        {
          "name": "_configKey",
          "type": "bytes32"
        }
      ],
      "name": "getAddressConfig",
      "outputs": [
        {
          "name": "_configValue",
          "type": "address"
        }
      ],
      "payable": false,
      "stateMutability": "view",
      "type": "function"
    },
    {
      "constant": true,
      "inputs": [],
      "name": "key",
      "outputs": [
        {
          "name": "",
          "type": "bytes32"
        }
      ],
      "payable": false,
      "stateMutability": "view",
      "type": "function"
    },
    {
      "constant": true,
      "inputs": [
        {
          "name": "_key",
          "type": "bytes32"
        }
      ],
      "name": "get_contract",
      "outputs": [
        {
          "name": "_contract",
          "type": "address"
        }
      ],
      "payable": false,
      "stateMutability": "view",
      "type": "function"
    },
    {
      "constant": true,
      "inputs": [],
      "name": "currentTimeInQuarter",
      "outputs": [
        {
          "name": "_currentT",
          "type": "uint256"
        }
      ],
      "payable": false,
      "stateMutability": "view",
      "type": "function"
    },
    {
      "constant": true,
      "inputs": [],
      "name": "isMainPhase",
      "outputs": [
        {
          "name": "_isMainPhase",
          "type": "bool"
        }
      ],
      "payable": false,
      "stateMutability": "view",
      "type": "function"
    },
    {
      "constant": true,
      "inputs": [],
      "name": "isLockingPhase",
      "outputs": [
        {
          "name": "_isLockingPhase",
          "type": "bool"
        }
      ],
      "payable": false,
      "stateMutability": "view",
      "type": "function"
    },
    {
      "constant": true,
      "inputs": [],
      "name": "currentQuarterNumber",
      "outputs": [
        {
          "name": "_quarterNumber",
          "type": "uint256"
        }
      ],
      "payable": false,
      "stateMutability": "view",
      "type": "function"
    },
    {
      "constant": true,
      "inputs": [
        {
          "name": "_user",
          "type": "address"
        }
      ],
      "name": "isParticipant",
      "outputs": [
        {
          "name": "_is",
          "type": "bool"
        }
      ],
      "payable": false,
      "stateMutability": "view",
      "type": "function"
    },
    {
      "constant": true,
      "inputs": [
        {
          "name": "_configKey",
          "type": "bytes32"
        }
      ],
      "name": "getBytesConfig",
      "outputs": [
        {
          "name": "_configValue",
          "type": "bytes32"
        }
      ],
      "payable": false,
      "stateMutability": "view",
      "type": "function"
    },
    {
      "constant": true,
      "inputs": [
        {
          "name": "_configKey",
          "type": "bytes32"
        }
      ],
      "name": "getUintConfig",
      "outputs": [
        {
          "name": "_configValue",
          "type": "uint256"
        }
      ],
      "payable": false,
      "stateMutability": "view",
      "type": "function"
    },
    {
      "constant": true,
      "inputs": [],
      "name": "isDaoNotReplaced",
      "outputs": [
        {
          "name": "_isNotReplaced",
          "type": "bool"
        }
      ],
      "payable": false,
      "stateMutability": "view",
      "type": "function"
    },
    {
      "constant": true,
      "inputs": [],
      "name": "CONTRACT_ADDRESS",
      "outputs": [
        {
          "name": "",
          "type": "address"
        }
      ],
      "payable": false,
      "stateMutability": "view",
      "type": "function"
    },
    {
      "constant": true,
      "inputs": [
        {
          "name": "_user",
          "type": "address"
        }
      ],
      "name": "isModerator",
      "outputs": [
        {
          "name": "_is",
          "type": "bool"
        }
      ],
      "payable": false,
      "stateMutability": "view",
      "type": "function"
    },
    {
      "inputs": [
        {
          "name": "_resolver",
          "type": "address"
        }
      ],
      "payable": false,
      "stateMutability": "nonpayable",
      "type": "constructor"
    },
    {
      "constant": true,
      "inputs": [
        {
          "name": "_user",
          "type": "address"
        }
      ],
      "name": "readUserInfo",
      "outputs": [
        {
          "name": "_isParticipant",
          "type": "bool"
        },
        {
          "name": "_isModerator",
          "type": "bool"
        },
        {
          "name": "_isDigix",
          "type": "bool"
        },
        {
          "name": "_redeemedBadge",
          "type": "bool"
        },
        {
          "name": "_lastParticipatedQuarter",
          "type": "uint256"
        },
        {
          "name": "_lastQuarterThatReputationWasUpdated",
          "type": "uint256"
        },
        {
          "name": "_lockedDgdStake",
          "type": "uint256"
        },
        {
          "name": "_lockedDgd",
          "type": "uint256"
        },
        {
          "name": "_reputationPoints",
          "type": "uint256"
        },
        {
          "name": "_quarterPoints",
          "type": "uint256"
        },
        {
          "name": "_claimableDgx",
          "type": "uint256"
        },
        {
          "name": "_quarterModeratorPoints",
          "type": "uint256"
        }
      ],
      "payable": false,
      "stateMutability": "view",
      "type": "function"
    },
    {
      "constant": true,
      "inputs": [],
      "name": "readDaoInfo",
      "outputs": [
        {
          "name": "_currentQuarterNumber",
          "type": "uint256"
        },
        {
          "name": "_startOfQuarter",
          "type": "uint256"
        },
        {
          "name": "_startOfMainPhase",
          "type": "uint256"
        },
        {
          "name": "_startOfNextQuarter",
          "type": "uint256"
        },
        {
          "name": "_isMainPhase",
          "type": "bool"
        },
        {
          "name": "_isGlobalRewardsSet",
          "type": "bool"
        },
        {
          "name": "_nModerators",
          "type": "uint256"
        },
        {
          "name": "_nParticipants",
          "type": "uint256"
        }
      ],
      "payable": false,
      "stateMutability": "view",
      "type": "function"
    }
  ],
  "bytecode": "0x608060405260006001026003906000191690556000600460006101000a81548173ffffffffffffffffffffffffffffffffffffffff021916908373ffffffffffffffffffffffffffffffffffffffff1602179055507f70726f706f73616c5f73746174655f70726570726f706f73616c0000000000006005906000191690557f70726f706f73616c5f73746174655f64726166740000000000000000000000006006906000191690557f70726f706f73616c5f73746174655f6d6f6465726174656400000000000000006007906000191690557f70726f706f73616c5f73746174655f6f6e676f696e67000000000000000000006008906000191690557f70726f706f73616c5f73746174655f636c6f73656400000000000000000000006009906000191690557f70726f706f73616c5f73746174655f6172636869766564000000000000000000600a906000191690556001600b556002600c556003600d556001600e556002600f5560036010557f696e7465725f6467645f696400000000000000000000000000000000000000006011906000191690557f696e7465725f6d6f645f6467645f6964000000000000000000000000000000006012906000191690557f696e7465725f626f6e75735f63616c63756c6174696f6e5f69640000000000006013906000191690557f64616f00000000000000000000000000000000000000000000000000000000006014906000191690557f64616f3a7370656369616c3a70726f706f73616c0000000000000000000000006015906000191690557f64616f3a7374616b652d6c6f636b696e670000000000000000000000000000006016906000191690557f64616f3a766f74696e67000000000000000000000000000000000000000000006017906000191690557f64616f3a766f74696e673a636c61696d730000000000000000000000000000006018906000191690557f64616f3a73766f74696e673a636c61696d7300000000000000000000000000006019906000191690557f64616f3a6964656e746974790000000000000000000000000000000000000000601a906000191690557f64616f3a726577617264732d6d616e6167657200000000000000000000000000601b906000191690557f64616f3a726577617264732d6578747261730000000000000000000000000000601c906000191690557f64616f3a726f6c65730000000000000000000000000000000000000000000000601d906000191690557f64616f3a66756e64696e672d6d616e6167657200000000000000000000000000601e906000191690557f64616f3a77686974656c697374696e6700000000000000000000000000000000601f906000191690557f64616f3a696e666f726d6174696f6e00000000000000000000000000000000006020906000191690557f736572766963653a726f6c6500000000000000000000000000000000000000006021906000191690557f736572766963653a64616f3a696e666f000000000000000000000000000000006022906000191690557f736572766963653a64616f3a6c697374696e67000000000000000000000000006023906000191690557f736572766963653a64616f3a63616c63756c61746f72000000000000000000006024906000191690557f73746f726167653a64616f0000000000000000000000000000000000000000006025906000191690557f73746f726167653a64616f3a636f756e746572000000000000000000000000006026906000191690557f73746f726167653a64616f3a75706772616465000000000000000000000000006027906000191690557f73746f726167653a64616f3a6964656e746974790000000000000000000000006028906000191690557f73746f726167653a64616f3a706f696e747300000000000000000000000000006029906000191690557f73746f726167653a64616f3a7370656369616c00000000000000000000000000602a906000191690557f73746f726167653a64616f3a636f6e6669670000000000000000000000000000602b906000191690557f73746f726167653a64616f3a7374616b65000000000000000000000000000000602c906000191690557f73746f726167653a64616f3a7265776172647300000000000000000000000000602d906000191690557f73746f726167653a64616f3a77686974656c697374696e670000000000000000602e906000191690557f73746f726167653a696e7465726d6564696174653a726573756c747300000000602f906000191690557f743a6467640000000000000000000000000000000000000000000000000000006030906000191690557f743a6467780000000000000000000000000000000000000000000000000000006031906000191690557f743a6261646765000000000000000000000000000000000000000000000000006032906000191690556001603360006101000a81548160ff021916908360ff1602179055506002603360016101000a81548160ff021916908360ff1602179055506003603360026101000a81548160ff021916908360ff1602179055506004603360036101000a81548160ff021916908360ff1602179055506276a7006034557f6d696e5f6467645f7061727469636970616e74000000000000000000000000006035906000191690557f6d696e5f6467645f6d6f64657261746f720000000000000000000000000000006036906000191690557f6d696e5f72657075746174696f6e5f6d6f64657261746f7200000000000000006037906000191690557f6c6f636b696e675f70686173655f6475726174696f6e000000000000000000006038906000191690557f717561727465725f6475726174696f6e000000000000000000000000000000006039906000191690557f766f74696e675f636f6d6d69745f706861736500000000000000000000000000603a906000191690557f766f74696e675f70686173655f746f74616c0000000000000000000000000000603b906000191690557f696e746572696d5f766f74696e675f636f6d6d69745f70686173650000000000603c906000191690557f696e746572696d5f766f74696e675f70686173655f746f74616c000000000000603d906000191690557f64726166745f71756f72756d5f66697865645f6e756d657261746f7200000000603e906000191690557f64726166745f71756f72756d5f66697865645f64656e6f6d696e61746f720000603f906000191690557f64726166745f71756f72756d5f73666163746f725f6e756d657261746f7200006040906000191690557f64726166745f71756f72756d5f73666163746f725f64656e6f6d696e61746f726041906000191690557f766f74655f71756f72756d5f66697865645f6e756d657261746f7200000000006042906000191690557f766f74655f71756f72756d5f66697865645f64656e6f6d696e61746f720000006043906000191690557f766f74655f71756f72756d5f73666163746f725f6e756d657261746f720000006044906000191690557f766f74655f71756f72756d5f73666163746f725f64656e6f6d696e61746f72006045906000191690557f66696e616c5f7265776172645f73666163746f725f6e756d657261746f7200006046906000191690557f66696e616c5f7265776172645f73666163746f725f64656e6f6d696e61746f726047906000191690557f64726166745f71756f74615f6e756d657261746f7200000000000000000000006048906000191690557f64726166745f71756f74615f64656e6f6d696e61746f720000000000000000006049906000191690557f766f74696e675f71756f74615f6e756d657261746f7200000000000000000000604a906000191690557f766f74696e675f71756f74615f64656e6f6d696e61746f720000000000000000604b906000191690557f6d696e696d616c5f717000000000000000000000000000000000000000000000604c906000191690557f717561727465725f706f696e745f7363616c696e675f666163746f7200000000604d906000191690557f7265705f706f696e745f7363616c696e675f666163746f720000000000000000604e906000191690557f6d696e696d616c5f6d6f645f7170000000000000000000000000000000000000604f906000191690557f6d6f645f71705f7363616c696e675f666163746f7200000000000000000000006050906000191690557f6d6f645f7265705f706f696e745f7363616c696e675f666163746f72000000006051906000191690557f717561727465725f706f696e745f64726166745f766f746500000000000000006052906000191690557f717561727465725f706f696e745f766f746500000000000000000000000000006053906000191690557f717561727465725f706f696e745f696e746572696d5f766f74650000000000006054906000191690557f715f705f6d696c6573746f6e655f636f6d706c6574696f6e00000000000000006055906000191690557f626f6e75735f72657075746174696f6e5f6e756d657261746f720000000000006056906000191690557f626f6e75735f72657075746174696f6e5f64656e6f6d696e61746f72000000006057906000191690557f7370656369616c5f70726f706f73616c5f636f6d6d69745f70686173650000006058906000191690557f7370656369616c5f70726f706f73616c5f70686173655f746f74616c000000006059906000191690557f636f6e6669675f7370656369616c5f71756f74615f6e756d657261746f720000605a906000191690557f636f6e6669675f7370656369616c5f71756f74615f64656e6f6d696e61746f72605b906000191690557f7370656369616c5f71756f72756d5f6e756d657261746f720000000000000000605c906000191690557f7370656369616c5f71756f72756d5f64656e6f6d696e61746f72000000000000605d906000191690557f636f6e6669675f6d61785f72657075746174696f6e5f646564756374696f6e00605e906000191690557f636f6e6669675f70756e6973686d656e745f6e6f745f6c6f636b696e67000000605f906000191690557f636f6e6669675f7265705f7065725f65787472615f71705f6e756d00000000006060906000191690557f636f6e6669675f7265705f7065725f65787472615f71705f64656e00000000006061906000191690557f636f6e6669675f6d61785f6d5f72705f646564756374696f6e000000000000006062906000191690557f636f6e6669675f7265705f7065725f65787472615f6d5f71705f6e756d0000006063906000191690557f636f6e6669675f7265705f7065725f65787472615f6d5f71705f64656e0000006064906000191690557f636f6e6669675f6d6f645f706f7274696f6e5f6e756d000000000000000000006065906000191690557f636f6e6669675f6d6f645f706f7274696f6e5f64656e000000000000000000006066906000191690557f636f6e6669675f64726166745f766f74696e675f7068617365000000000000006067906000191690557f636f6e6669675f72705f626f6f73745f7065725f6261646765000000000000006068906000191690557f636f6e6669675f636c61696d696e675f646561646c696e6500000000000000006069906000191690557f636f6e6669675f70726570726f706f73616c5f636f6c6c61746572616c000000606a906000191690557f636f6e6669675f6d61785f66756e64696e675f6e6f6e44696769780000000000606b906000191690557f636f6e6669675f6d61785f6d696c6573746f6e65735f6e6f6e44696769780000606c906000191690557f636f6e6669675f6e6f6e44696769785f70726f706f73616c5f63617000000000606d906000191690557f636f6e6669675f646561645f6475726174696f6e000000000000000000000000606e906000191690557f636f6e6669675f63765f72657075746174696f6e000000000000000000000000606f906000191690553480156200113457600080fd5b50604051602080620031bc83398101806040528101908080519060200190929190505050620011756020548262001188640100000000026401000000009004565b15156200118157600080fd5b5062001419565b6000808273ffffffffffffffffffffffffffffffffffffffff16636d19a8826040518163ffffffff167c0100000000000000000000000000000000000000000000000000000000028152600401602060405180830381600087803b158015620011f057600080fd5b505af115801562001205573d6000803e3d6000fd5b505050506040513d60208110156200121c57600080fd5b810190808051906020019092919050505090506000151581151514156200140d5730600260006101000a81548173ffffffffffffffffffffffffffffffffffffffff021916908373ffffffffffffffffffffffffffffffffffffffff160217905550826000806101000a81548173ffffffffffffffffffffffffffffffffffffffff021916908373ffffffffffffffffffffffffffffffffffffffff16021790555083600181600019169055506000809054906101000a900473ffffffffffffffffffffffffffffffffffffffff1673ffffffffffffffffffffffffffffffffffffffff1663c0f6ef4a600154600260009054906101000a900473ffffffffffffffffffffffffffffffffffffffff166040518363ffffffff167c01000000000000000000000000000000000000000000000000000000000281526004018083600019166000191681526020018273ffffffffffffffffffffffffffffffffffffffff1673ffffffffffffffffffffffffffffffffffffffff16815260200192505050602060405180830381600087803b158015620013ba57600080fd5b505af1158015620013cf573d6000803e3d6000fd5b505050506040513d6020811015620013e657600080fd5b810190808051906020019092919050505015156200140357600080fd5b6001915062001412565b600091505b5092915050565b611d9380620014296000396000f3006080604052600436106100e6576000357c0100000000000000000000000000000000000000000000000000000000900463ffffffff16806304f3bcec146100eb5780631d8ccd04146101425780633943380c146101b35780633f83acff146101e6578063560a25ea1461025757806368533060146102825780637d6fed80146102b15780637f6a26b6146102e0578063850373351461030b578063929066f51461036f57806393ddad08146103ca578063a8dbd0cd14610417578063b1e2b9dd146104cb578063d70d935814610510578063db4ecbc11461053f578063fa6f393614610596575b600080fd5b3480156100f757600080fd5b506101006105f1565b604051808273ffffffffffffffffffffffffffffffffffffffff1673ffffffffffffffffffffffffffffffffffffffff16815260200191505060405180910390f35b34801561014e57600080fd5b506101716004803603810190808035600019169060200190929190505050610616565b604051808273ffffffffffffffffffffffffffffffffffffffff1673ffffffffffffffffffffffffffffffffffffffff16815260200191505060405180910390f35b3480156101bf57600080fd5b506101c86106d8565b60405180826000191660001916815260200191505060405180910390f35b3480156101f257600080fd5b5061021560048036038101908080356000191690602001909291905050506106de565b604051808273ffffffffffffffffffffffffffffffffffffffff1673ffffffffffffffffffffffffffffffffffffffff16815260200191505060405180910390f35b34801561026357600080fd5b5061026c6107ba565b6040518082815260200191505060405180910390f35b34801561028e57600080fd5b506102976107ca565b604051808215151515815260200191505060405180910390f35b3480156102bd57600080fd5b506102c66107f6565b604051808215151515815260200191505060405180910390f35b3480156102ec57600080fd5b506102f5610811565b6040518082815260200191505060405180910390f35b34801561031757600080fd5b50610320610821565b6040518089815260200188815260200187815260200186815260200185151515158152602001841515151581526020018381526020018281526020019850505050505050505060405180910390f35b34801561037b57600080fd5b506103b0600480360381019080803573ffffffffffffffffffffffffffffffffffffffff169060200190929190505050610ab9565b604051808215151515815260200191505060405180910390f35b3480156103d657600080fd5b506103f96004803603810190808035600019169060200190929190505050610c9a565b60405180826000191660001916815260200191505060405180910390f35b34801561042357600080fd5b50610458600480360381019080803573ffffffffffffffffffffffffffffffffffffffff169060200190929190505050610d5c565b604051808d1515151581526020018c1515151581526020018b1515151581526020018a1515151581526020018981526020018881526020018781526020018681526020018581526020018481526020018381526020018281526020019c5050505050505050505050505060405180910390f35b3480156104d757600080fd5b506104fa60048036038101908080356000191690602001909291905050506115ab565b6040518082815260200191505060405180910390f35b34801561051c57600080fd5b5061052561166d565b604051808215151515815260200191505060405180910390f35b34801561054b57600080fd5b5061055461171b565b604051808273ffffffffffffffffffffffffffffffffffffffff1673ffffffffffffffffffffffffffffffffffffffff16815260200191505060405180910390f35b3480156105a257600080fd5b506105d7600480360381019080803573ffffffffffffffffffffffffffffffffffffffff169060200190929190505050611741565b604051808215151515815260200191505060405180910390f35b6000809054906101000a900473ffffffffffffffffffffffffffffffffffffffff1681565b6000610620611a14565b73ffffffffffffffffffffffffffffffffffffffff1663e6b39eab836040518263ffffffff167c0100000000000000000000000000000000000000000000000000000000028152600401808260001916600019168152602001915050602060405180830381600087803b15801561069657600080fd5b505af11580156106aa573d6000803e3d6000fd5b505050506040513d60208110156106c057600080fd5b81019080805190602001909291905050509050919050565b60015481565b60008060009054906101000a900473ffffffffffffffffffffffffffffffffffffffff1673ffffffffffffffffffffffffffffffffffffffff16633f83acff836040518263ffffffff167c0100000000000000000000000000000000000000000000000000000000028152600401808260001916600019168152602001915050602060405180830381600087803b15801561077857600080fd5b505af115801561078c573d6000803e3d6000fd5b505050506040513d60208110156107a257600080fd5b81019080805190602001909291905050509050919050565b60006107c542611a26565b905090565b60006107d461166d565b80156107f157506107e66038546115ab565b6107ee6107ba565b10155b905090565b60006108036038546115ab565b61080b6107ba565b10905090565b600061081c42611b0f565b905090565b600080600080600080600080610835610811565b97506108516108426107ba565b42611c1290919063ffffffff16565b96506108706108616038546115ab565b88611c2b90919063ffffffff16565b955061088f6108806039546115ab565b88611c2b90919063ffffffff16565b94506108996107ca565b935060006108a5611c47565b73ffffffffffffffffffffffffffffffffffffffff1663a78e00d68a6040518263ffffffff167c010000000000000000000000000000000000000000000000000000000002815260040180828152602001915050602060405180830381600087803b15801561091357600080fd5b505af1158015610927573d6000803e3d6000fd5b505050506040513d602081101561093d57600080fd5b81019080805190602001909291905050501161095a57600061095d565b60015b9250610967611c59565b73ffffffffffffffffffffffffffffffffffffffff1663e3bc96ba6040518163ffffffff167c0100000000000000000000000000000000000000000000000000000000028152600401602060405180830381600087803b1580156109ca57600080fd5b505af11580156109de573d6000803e3d6000fd5b505050506040513d60208110156109f457600080fd5b81019080805190602001909291905050509150610a0f611c59565b73ffffffffffffffffffffffffffffffffffffffff1663b5830a4c6040518163ffffffff167c0100000000000000000000000000000000000000000000000000000000028152600401602060405180830381600087803b158015610a7257600080fd5b505af1158015610a86573d6000803e3d6000fd5b505050506040513d6020811015610a9c57600080fd5b810190808051906020019092919050505090509091929394959697565b6000610ac3610811565b610acb611c47565b73ffffffffffffffffffffffffffffffffffffffff1663cefc2bff846040518263ffffffff167c0100000000000000000000000000000000000000000000000000000000028152600401808273ffffffffffffffffffffffffffffffffffffffff1673ffffffffffffffffffffffffffffffffffffffff168152602001915050602060405180830381600087803b158015610b6557600080fd5b505af1158015610b79573d6000803e3d6000fd5b505050506040513d6020811015610b8f57600080fd5b8101908080519060200190929190505050148015610c935750610bb36035546115ab565b610bbb611c59565b73ffffffffffffffffffffffffffffffffffffffff1663cd094a27846040518263ffffffff167c0100000000000000000000000000000000000000000000000000000000028152600401808273ffffffffffffffffffffffffffffffffffffffff1673ffffffffffffffffffffffffffffffffffffffff168152602001915050602060405180830381600087803b158015610c5557600080fd5b505af1158015610c69573d6000803e3d6000fd5b505050506040513d6020811015610c7f57600080fd5b810190808051906020019092919050505010155b9050919050565b6000610ca4611a14565b73ffffffffffffffffffffffffffffffffffffffff1663c0a8405d836040518263ffffffff167c0100000000000000000000000000000000000000000000000000000000028152600401808260001916600019168152602001915050602060405180830381600087803b158015610d1a57600080fd5b505af1158015610d2e573d6000803e3d6000fd5b505050506040513d6020811015610d4457600080fd5b81019080805190602001909291905050509050919050565b600080600080600080600080600080600080610d76611c47565b73ffffffffffffffffffffffffffffffffffffffff1663cefc2bff8e6040518263ffffffff167c0100000000000000000000000000000000000000000000000000000000028152600401808273ffffffffffffffffffffffffffffffffffffffff1673ffffffffffffffffffffffffffffffffffffffff168152602001915050602060405180830381600087803b158015610e1057600080fd5b505af1158015610e24573d6000803e3d6000fd5b505050506040513d6020811015610e3a57600080fd5b81019080805190602001909291905050509750610e55611c47565b73ffffffffffffffffffffffffffffffffffffffff1663bd695d218e6040518263ffffffff167c0100000000000000000000000000000000000000000000000000000000028152600401808273ffffffffffffffffffffffffffffffffffffffff1673ffffffffffffffffffffffffffffffffffffffff168152602001915050602060405180830381600087803b158015610eef57600080fd5b505af1158015610f03573d6000803e3d6000fd5b505050506040513d6020811015610f1957600080fd5b81019080805190602001909291905050509650610f34611c59565b73ffffffffffffffffffffffffffffffffffffffff1663f01a13e18e6040518263ffffffff167c0100000000000000000000000000000000000000000000000000000000028152600401808273ffffffffffffffffffffffffffffffffffffffff1673ffffffffffffffffffffffffffffffffffffffff168152602001915050602060405180830381600087803b158015610fce57600080fd5b505af1158015610fe2573d6000803e3d6000fd5b505050506040513d6020811015610ff857600080fd5b81019080805190602001909291905050509850611013611c59565b73ffffffffffffffffffffffffffffffffffffffff16635bdd27438e6040518263ffffffff167c0100000000000000000000000000000000000000000000000000000000028152600401808273ffffffffffffffffffffffffffffffffffffffff1673ffffffffffffffffffffffffffffffffffffffff1681526020019150506040805180830381600087803b1580156110ac57600080fd5b505af11580156110c0573d6000803e3d6000fd5b505050506040513d60408110156110d657600080fd5b8101908080519060200190929190805190602001909291905050508097508196505050611101611c6b565b73ffffffffffffffffffffffffffffffffffffffff16639c89a0e28e6040518263ffffffff167c0100000000000000000000000000000000000000000000000000000000028152600401808273ffffffffffffffffffffffffffffffffffffffff1673ffffffffffffffffffffffffffffffffffffffff168152602001915050602060405180830381600087803b15801561119b57600080fd5b505af11580156111af573d6000803e3d6000fd5b505050506040513d60208110156111c557600080fd5b810190808051906020019092919050505093506111e0611c6b565b73ffffffffffffffffffffffffffffffffffffffff166393383c518e611204610811565b6040518363ffffffff167c0100000000000000000000000000000000000000000000000000000000028152600401808373ffffffffffffffffffffffffffffffffffffffff1673ffffffffffffffffffffffffffffffffffffffff16815260200182815260200192505050602060405180830381600087803b15801561128957600080fd5b505af115801561129d573d6000803e3d6000fd5b505050506040513d60208110156112b357600080fd5b810190808051906020019092919050505092506112ce611c6b565b73ffffffffffffffffffffffffffffffffffffffff1663a5a9f5bb8e6112f2610811565b6040518363ffffffff167c0100000000000000000000000000000000000000000000000000000000028152600401808373ffffffffffffffffffffffffffffffffffffffff1673ffffffffffffffffffffffffffffffffffffffff16815260200182815260200192505050602060405180830381600087803b15801561137757600080fd5b505af115801561138b573d6000803e3d6000fd5b505050506040513d60208110156113a157600080fd5b810190808051906020019092919050505090506113bd8d610ab9565b9b506113c88d611741565b9a50603360019054906101000a900460ff1660ff166113e5611c7d565b73ffffffffffffffffffffffffffffffffffffffff1663c31d02b28f6040518263ffffffff167c0100000000000000000000000000000000000000000000000000000000028152600401808273ffffffffffffffffffffffffffffffffffffffff1673ffffffffffffffffffffffffffffffffffffffff168152602001915050602060405180830381600087803b15801561147f57600080fd5b505af1158015611493573d6000803e3d6000fd5b505050506040513d60208110156114a957600080fd5b81019080805190602001909291905050501499506114c5611c47565b73ffffffffffffffffffffffffffffffffffffffff166378af89ac8e6040518263ffffffff167c0100000000000000000000000000000000000000000000000000000000028152600401808273ffffffffffffffffffffffffffffffffffffffff1673ffffffffffffffffffffffffffffffffffffffff168152602001915050602060405180830381600087803b15801561155f57600080fd5b505af1158015611573573d6000803e3d6000fd5b505050506040513d602081101561158957600080fd5b8101908080519060200190929190505050915091939597999b5091939597999b565b60006115b5611a14565b73ffffffffffffffffffffffffffffffffffffffff1663734c1168836040518263ffffffff167c0100000000000000000000000000000000000000000000000000000000028152600401808260001916600019168152602001915050602060405180830381600087803b15801561162b57600080fd5b505af115801561163f573d6000803e3d6000fd5b505050506040513d602081101561165557600080fd5b81019080805190602001909291905050509050919050565b6000611677611c8f565b73ffffffffffffffffffffffffffffffffffffffff16638bc865fd6040518163ffffffff167c0100000000000000000000000000000000000000000000000000000000028152600401602060405180830381600087803b1580156116da57600080fd5b505af11580156116ee573d6000803e3d6000fd5b505050506040513d602081101561170457600080fd5b810190808051906020019092919050505015905090565b600260009054906101000a900473ffffffffffffffffffffffffffffffffffffffff1681565b600061174b610811565b611753611c47565b73ffffffffffffffffffffffffffffffffffffffff1663cefc2bff846040518263ffffffff167c0100000000000000000000000000000000000000000000000000000000028152600401808273ffffffffffffffffffffffffffffffffffffffff1673ffffffffffffffffffffffffffffffffffffffff168152602001915050602060405180830381600087803b1580156117ed57600080fd5b505af1158015611801573d6000803e3d6000fd5b505050506040513d602081101561181757600080fd5b810190808051906020019092919050505014801561191b575061183b6036546115ab565b611843611c59565b73ffffffffffffffffffffffffffffffffffffffff1663cd094a27846040518263ffffffff167c0100000000000000000000000000000000000000000000000000000000028152600401808273ffffffffffffffffffffffffffffffffffffffff1673ffffffffffffffffffffffffffffffffffffffff168152602001915050602060405180830381600087803b1580156118dd57600080fd5b505af11580156118f1573d6000803e3d6000fd5b505050506040513d602081101561190757600080fd5b810190808051906020019092919050505010155b8015611a0d575061192d6037546115ab565b611935611c6b565b73ffffffffffffffffffffffffffffffffffffffff16639c89a0e2846040518263ffffffff167c0100000000000000000000000000000000000000000000000000000000028152600401808273ffffffffffffffffffffffffffffffffffffffff1673ffffffffffffffffffffffffffffffffffffffff168152602001915050602060405180830381600087803b1580156119cf57600080fd5b505af11580156119e3573d6000803e3d6000fd5b505050506040513d60208110156119f957600080fd5b810190808051906020019092919050505010155b9050919050565b6000611a21602b546106de565b905090565b6000611a30611ca1565b1515611a3b57600080fd5b611a466039546115ab565b611afe611a51611c8f565b73ffffffffffffffffffffffffffffffffffffffff1663d9c6bb206040518163ffffffff167c0100000000000000000000000000000000000000000000000000000000028152600401602060405180830381600087803b158015611ab457600080fd5b505af1158015611ac8573d6000803e3d6000fd5b505050506040513d6020811015611ade57600080fd5b810190808051906020019092919050505084611c1290919063ffffffff16565b811515611b0757fe5b069050919050565b6000611b19611ca1565b1515611b2457600080fd5b611c0b6001611bfd611b376039546115ab565b611bef611b42611c8f565b73ffffffffffffffffffffffffffffffffffffffff1663d9c6bb206040518163ffffffff167c0100000000000000000000000000000000000000000000000000000000028152600401602060405180830381600087803b158015611ba557600080fd5b505af1158015611bb9573d6000803e3d6000fd5b505050506040513d6020811015611bcf57600080fd5b810190808051906020019092919050505087611c1290919063ffffffff16565b611d5190919063ffffffff16565b611c2b90919063ffffffff16565b9050919050565b6000828211151515611c2057fe5b818303905092915050565b60008183019050828110151515611c3e57fe5b80905092915050565b6000611c54602d546106de565b905090565b6000611c66602c546106de565b905090565b6000611c786029546106de565b905090565b6000611c8a6028546106de565b905090565b6000611c9c6027546106de565b905090565b600080611cac611c8f565b73ffffffffffffffffffffffffffffffffffffffff1663d9c6bb206040518163ffffffff167c0100000000000000000000000000000000000000000000000000000000028152600401602060405180830381600087803b158015611d0f57600080fd5b505af1158015611d23573d6000803e3d6000fd5b505050506040513d6020811015611d3957600080fd5b81019080805190602001909291905050501415905090565b60008183811515611d5e57fe5b049050929150505600a165627a7a72305820f07c1974b2cf251b44ff620d914dac4212a8cd984eb237eb66954959d2ed70250029",
  "source": "pragma solidity ^0.4.25;\n\nimport \"./../common/DaoCommon.sol\";\n\n/**\n@title Contract (read-only) to read information from DAO\n@dev cannot introduce more read methods in other contracts due to deployment gas limit\n@author Digix Holdings\n*/\ncontract DaoInformation is DaoCommon {\n\n    constructor(address _resolver)\n        public\n    {\n        require(init(CONTRACT_DAO_INFORMATION, _resolver));\n    }\n\n    /**\n    @notice Function to read user specific information\n    @param _user Ethereum address of the user\n    @return {\n      \"_isParticipant\": \"Boolean, true if the user is a DigixDAO participant in the current quarter\",\n      \"_isModerator\": \"Boolean, true if the user is a DigixDAO moderator in the current quarter\",\n      \"_isDigix\": \"Boolean, true if the user is a Digix founder\",\n      \"_redeemedBadge\": \"Boolean, true if the user has redeemed a DGD badge in DigixDAO\",\n      \"_lastParticipatedQuarter\": \"The last quarter in which this user has/had participated in DigixDAO\",\n      \"_lastParticipatedQuarter\": \"The last quarter in which this user's reputation was updated in DigixDAO, equal to (currentQuarter - 1) if its updated at the moment\",\n      \"_lockedDgdStake\": \"The locked stage of this user in the current quarter\",\n      \"_lockedDgd\": \"The actual locked DGDs by this user in our contracts\",\n      \"_reputationPoints\": \"The cumulative reputation points accumulated by this user in DigixDAO\",\n      \"_quarterPoints\": \"Quarter points of this user in the current quarter\",\n      \"_claimableDgx\": \"DGX (in grams) that can be claimed by this user from DigixDAO\",\n      \"_quarterModeratorPoints\": \"Quarter Moderator points of this user in the current quarter\"\n    }\n    */\n    function readUserInfo(address _user)\n        public\n        view\n        returns (\n            bool _isParticipant,\n            bool _isModerator,\n            bool _isDigix,\n            bool _redeemedBadge,\n            uint256 _lastParticipatedQuarter,\n            uint256 _lastQuarterThatReputationWasUpdated,\n            uint256 _lockedDgdStake,\n            uint256 _lockedDgd,\n            uint256 _reputationPoints,\n            uint256 _quarterPoints,\n            uint256 _claimableDgx,\n            uint256 _quarterModeratorPoints\n        )\n    {\n         _lastParticipatedQuarter = daoRewardsStorage().lastParticipatedQuarter(_user);\n         _lastQuarterThatReputationWasUpdated = daoRewardsStorage().lastQuarterThatReputationWasUpdated(_user);\n         _redeemedBadge = daoStakeStorage().redeemedBadge(_user);\n         (_lockedDgd, _lockedDgdStake) = daoStakeStorage().readUserDGDStake(_user);\n         _reputationPoints = daoPointsStorage().getReputation(_user);\n         _quarterPoints = daoPointsStorage().getQuarterPoint(_user, currentQuarterNumber());\n         _quarterModeratorPoints = daoPointsStorage().getQuarterModeratorPoint(_user, currentQuarterNumber());\n         _isParticipant = isParticipant(_user);\n         _isModerator = isModerator(_user);\n         _isDigix = identity_storage().read_user_role_id(_user) == ROLES_FOUNDERS;\n         _claimableDgx = daoRewardsStorage().claimableDGXs(_user);\n    }\n\n    /**\n    @notice Function to read DigixDAO specific information\n    @return {\n      \"_currentQuarterNumber\": \"The current quarter number of DigixDAO (starts from 1)\",\n      \"_dgxDistributionDay\": \"The unix timestamp at which the quarter was initialized\",\n      \"_startOfQuarter\": \"The unix timestamp when the current quarter started\",\n      \"_startOfMainPhase\": \"The unix timestamp when the main phase of current quarter has/will start\",\n      \"_startOfNextQuarter\": \"The unix timestamp when the next quarter begins\",\n      \"_isMainPhase\": \"Boolean, true if this is the main phase, false if this is the locking phase\",\n      \"_isGlobalRewardsSet\": \"Boolean, true if the global rewards have been set for the quarter\",\n      \"_nModerators\": \"Number of moderators in DigixDAO\",\n      \"_nParticipants\": \"Number of participants in DigixDAO\"\n    }\n    */\n    function readDaoInfo()\n        public\n        view\n        returns (\n            uint256 _currentQuarterNumber,\n            uint256 _startOfQuarter,\n            uint256 _startOfMainPhase,\n            uint256 _startOfNextQuarter,\n            bool _isMainPhase,\n            bool _isGlobalRewardsSet,\n            uint256 _nModerators,\n            uint256 _nParticipants\n        )\n    {\n        _currentQuarterNumber = currentQuarterNumber();\n        _startOfQuarter = now.sub(currentTimeInQuarter());\n        _startOfMainPhase = _startOfQuarter.add(getUintConfig(CONFIG_LOCKING_PHASE_DURATION));\n        _startOfNextQuarter = _startOfQuarter.add(getUintConfig(CONFIG_QUARTER_DURATION));\n        _isMainPhase = isMainPhase();\n        _isGlobalRewardsSet = daoRewardsStorage().readDgxDistributionDay(_currentQuarterNumber) > 0 ? true : false;\n        _nModerators = daoStakeStorage().readTotalModerators();\n        _nParticipants = daoStakeStorage().readTotalParticipant();\n    }\n}\n",
  "sourcePath": "/home/rohit/Develop/dao-contracts/contracts/interactive/DaoInformation.sol",
  "compiler": {
    "name": "solc",
    "version": "0.4.25+commit.59dbf8f1.Emscripten.clang"
  },
  "schemaVersion": "2.0.2",
  "updatedAt": "2019-03-19T05:23:58.704Z"
}