{
  "contractName": "DaoInformation",
  "abi": [
    {
      "constant": true,
      "inputs": [],
      "name": "resolver",
      "outputs": [
        {
          "name": "",
          "type": "address"
        }
      ],
      "payable": false,
      "stateMutability": "view",
      "type": "function"
    },
    {
      "constant": true,
      "inputs": [
        {
          "name": "_configKey",
          "type": "bytes32"
        }
      ],
      "name": "getAddressConfig",
      "outputs": [
        {
          "name": "_configValue",
          "type": "address"
        }
      ],
      "payable": false,
      "stateMutability": "view",
      "type": "function"
    },
    {
      "constant": true,
      "inputs": [],
      "name": "key",
      "outputs": [
        {
          "name": "",
          "type": "bytes32"
        }
      ],
      "payable": false,
      "stateMutability": "view",
      "type": "function"
    },
    {
      "constant": true,
      "inputs": [
        {
          "name": "_key",
          "type": "bytes32"
        }
      ],
      "name": "get_contract",
      "outputs": [
        {
          "name": "_contract",
          "type": "address"
        }
      ],
      "payable": false,
      "stateMutability": "view",
      "type": "function"
    },
    {
      "constant": true,
      "inputs": [],
      "name": "currentTimeInQuarter",
      "outputs": [
        {
          "name": "_currentT",
          "type": "uint256"
        }
      ],
      "payable": false,
      "stateMutability": "view",
      "type": "function"
    },
    {
      "constant": true,
      "inputs": [],
      "name": "isMainPhase",
      "outputs": [
        {
          "name": "_isMainPhase",
          "type": "bool"
        }
      ],
      "payable": false,
      "stateMutability": "view",
      "type": "function"
    },
    {
      "constant": true,
      "inputs": [],
      "name": "isLockingPhase",
      "outputs": [
        {
          "name": "_isLockingPhase",
          "type": "bool"
        }
      ],
      "payable": false,
      "stateMutability": "view",
      "type": "function"
    },
    {
      "constant": true,
      "inputs": [],
      "name": "currentQuarterNumber",
      "outputs": [
        {
          "name": "_quarterNumber",
          "type": "uint256"
        }
      ],
      "payable": false,
      "stateMutability": "view",
      "type": "function"
    },
    {
      "constant": true,
      "inputs": [
        {
          "name": "_user",
          "type": "address"
        }
      ],
      "name": "isParticipant",
      "outputs": [
        {
          "name": "_is",
          "type": "bool"
        }
      ],
      "payable": false,
      "stateMutability": "view",
      "type": "function"
    },
    {
      "constant": true,
      "inputs": [
        {
          "name": "_configKey",
          "type": "bytes32"
        }
      ],
      "name": "getBytesConfig",
      "outputs": [
        {
          "name": "_configValue",
          "type": "bytes32"
        }
      ],
      "payable": false,
      "stateMutability": "view",
      "type": "function"
    },
    {
      "constant": true,
      "inputs": [
        {
          "name": "_configKey",
          "type": "bytes32"
        }
      ],
      "name": "getUintConfig",
      "outputs": [
        {
          "name": "_configValue",
          "type": "uint256"
        }
      ],
      "payable": false,
      "stateMutability": "view",
      "type": "function"
    },
    {
      "constant": true,
      "inputs": [],
      "name": "isDaoNotReplaced",
      "outputs": [
        {
          "name": "_isNotReplaced",
          "type": "bool"
        }
      ],
      "payable": false,
      "stateMutability": "view",
      "type": "function"
    },
    {
      "constant": true,
      "inputs": [],
      "name": "CONTRACT_ADDRESS",
      "outputs": [
        {
          "name": "",
          "type": "address"
        }
      ],
      "payable": false,
      "stateMutability": "view",
      "type": "function"
    },
    {
      "constant": true,
      "inputs": [
        {
          "name": "_user",
          "type": "address"
        }
      ],
      "name": "isModerator",
      "outputs": [
        {
          "name": "_is",
          "type": "bool"
        }
      ],
      "payable": false,
      "stateMutability": "view",
      "type": "function"
    },
    {
      "inputs": [
        {
          "name": "_resolver",
          "type": "address"
        }
      ],
      "payable": false,
      "stateMutability": "nonpayable",
      "type": "constructor"
    },
    {
      "constant": true,
      "inputs": [
        {
          "name": "_user",
          "type": "address"
        }
      ],
      "name": "readUserInfo",
      "outputs": [
        {
          "name": "_isParticipant",
          "type": "bool"
        },
        {
          "name": "_isModerator",
          "type": "bool"
        },
        {
          "name": "_isDigix",
          "type": "bool"
        },
        {
          "name": "_redeemedBadge",
          "type": "bool"
        },
        {
          "name": "_lastParticipatedQuarter",
          "type": "uint256"
        },
        {
          "name": "_lastQuarterThatReputationWasUpdated",
          "type": "uint256"
        },
        {
          "name": "_lockedDgdStake",
          "type": "uint256"
        },
        {
          "name": "_lockedDgd",
          "type": "uint256"
        },
        {
          "name": "_reputationPoints",
          "type": "uint256"
        },
        {
          "name": "_quarterPoints",
          "type": "uint256"
        },
        {
          "name": "_claimableDgx",
          "type": "uint256"
        }
      ],
      "payable": false,
      "stateMutability": "view",
      "type": "function"
    },
    {
      "constant": true,
      "inputs": [],
      "name": "readDaoInfo",
      "outputs": [
        {
          "name": "_currentQuarterNumber",
          "type": "uint256"
        },
        {
          "name": "_startOfQuarter",
          "type": "uint256"
        },
        {
          "name": "_startOfMainPhase",
          "type": "uint256"
        },
        {
          "name": "_startOfNextQuarter",
          "type": "uint256"
        },
        {
          "name": "_isMainPhase",
          "type": "bool"
        },
        {
          "name": "_isGlobalRewardsSet",
          "type": "bool"
        }
      ],
      "payable": false,
      "stateMutability": "view",
      "type": "function"
    }
  ],
  "bytecode": "0x608060405260006001026003906000191690556000600460006101000a81548173ffffffffffffffffffffffffffffffffffffffff021916908373ffffffffffffffffffffffffffffffffffffffff1602179055507f70726f706f73616c5f73746174655f70726570726f706f73616c0000000000006005906000191690557f70726f706f73616c5f73746174655f64726166740000000000000000000000006006906000191690557f70726f706f73616c5f73746174655f6d6f6465726174656400000000000000006007906000191690557f70726f706f73616c5f73746174655f6f6e676f696e67000000000000000000006008906000191690557f70726f706f73616c5f73746174655f636c6f73656400000000000000000000006009906000191690557f70726f706f73616c5f73746174655f6172636869766564000000000000000000600a906000191690556001600b556002600c556003600d556001600e556002600f5560036010557f696e7465725f6467645f696400000000000000000000000000000000000000006011906000191690557f696e7465725f6d6f645f6467645f6964000000000000000000000000000000006012906000191690557f696e7465725f626f6e75735f63616c63756c6174696f6e5f69640000000000006013906000191690557f64616f00000000000000000000000000000000000000000000000000000000006014906000191690557f64616f3a7370656369616c3a70726f706f73616c0000000000000000000000006015906000191690557f64616f3a7374616b652d6c6f636b696e670000000000000000000000000000006016906000191690557f64616f3a766f74696e67000000000000000000000000000000000000000000006017906000191690557f64616f3a766f74696e673a636c61696d730000000000000000000000000000006018906000191690557f64616f3a73766f74696e673a636c61696d7300000000000000000000000000006019906000191690557f64616f3a6964656e746974790000000000000000000000000000000000000000601a906000191690557f64616f3a726577617264732d6d616e6167657200000000000000000000000000601b906000191690557f64616f3a726577617264732d6578747261730000000000000000000000000000601c906000191690557f64616f3a726f6c65730000000000000000000000000000000000000000000000601d906000191690557f64616f3a66756e64696e672d6d616e6167657200000000000000000000000000601e906000191690557f64616f3a77686974656c697374696e6700000000000000000000000000000000601f906000191690557f64616f3a696e666f726d6174696f6e00000000000000000000000000000000006020906000191690557f736572766963653a726f6c6500000000000000000000000000000000000000006021906000191690557f736572766963653a64616f3a696e666f000000000000000000000000000000006022906000191690557f736572766963653a64616f3a6c697374696e67000000000000000000000000006023906000191690557f736572766963653a64616f3a63616c63756c61746f72000000000000000000006024906000191690557f73746f726167653a64616f0000000000000000000000000000000000000000006025906000191690557f73746f726167653a64616f3a636f756e746572000000000000000000000000006026906000191690557f73746f726167653a64616f3a75706772616465000000000000000000000000006027906000191690557f73746f726167653a64616f3a6964656e746974790000000000000000000000006028906000191690557f73746f726167653a64616f3a706f696e747300000000000000000000000000006029906000191690557f73746f726167653a64616f3a7370656369616c00000000000000000000000000602a906000191690557f73746f726167653a64616f3a636f6e6669670000000000000000000000000000602b906000191690557f73746f726167653a64616f3a7374616b65000000000000000000000000000000602c906000191690557f73746f726167653a64616f3a7265776172647300000000000000000000000000602d906000191690557f73746f726167653a64616f3a77686974656c697374696e670000000000000000602e906000191690557f73746f726167653a696e7465726d6564696174653a726573756c747300000000602f906000191690557f743a6467640000000000000000000000000000000000000000000000000000006030906000191690557f743a6467780000000000000000000000000000000000000000000000000000006031906000191690557f743a6261646765000000000000000000000000000000000000000000000000006032906000191690556001603360006101000a81548160ff021916908360ff1602179055506002603360016101000a81548160ff021916908360ff1602179055506003603360026101000a81548160ff021916908360ff1602179055506004603360036101000a81548160ff021916908360ff1602179055506276a7006034557f6d696e5f6467645f7061727469636970616e74000000000000000000000000006035906000191690557f6d696e5f6467645f6d6f64657261746f720000000000000000000000000000006036906000191690557f6d696e5f72657075746174696f6e5f6d6f64657261746f7200000000000000006037906000191690557f6c6f636b696e675f70686173655f6475726174696f6e000000000000000000006038906000191690557f717561727465725f6475726174696f6e000000000000000000000000000000006039906000191690557f766f74696e675f636f6d6d69745f706861736500000000000000000000000000603a906000191690557f766f74696e675f70686173655f746f74616c0000000000000000000000000000603b906000191690557f696e746572696d5f766f74696e675f636f6d6d69745f70686173650000000000603c906000191690557f696e746572696d5f766f74696e675f70686173655f746f74616c000000000000603d906000191690557f64726166745f71756f72756d5f66697865645f6e756d657261746f7200000000603e906000191690557f64726166745f71756f72756d5f66697865645f64656e6f6d696e61746f720000603f906000191690557f64726166745f71756f72756d5f73666163746f725f6e756d657261746f7200006040906000191690557f64726166745f71756f72756d5f73666163746f725f64656e6f6d696e61746f726041906000191690557f766f74655f71756f72756d5f66697865645f6e756d657261746f7200000000006042906000191690557f766f74655f71756f72756d5f66697865645f64656e6f6d696e61746f720000006043906000191690557f766f74655f71756f72756d5f73666163746f725f6e756d657261746f720000006044906000191690557f766f74655f71756f72756d5f73666163746f725f64656e6f6d696e61746f72006045906000191690557f66696e616c5f7265776172645f73666163746f725f6e756d657261746f7200006046906000191690557f66696e616c5f7265776172645f73666163746f725f64656e6f6d696e61746f726047906000191690557f64726166745f71756f74615f6e756d657261746f7200000000000000000000006048906000191690557f64726166745f71756f74615f64656e6f6d696e61746f720000000000000000006049906000191690557f766f74696e675f71756f74615f6e756d657261746f7200000000000000000000604a906000191690557f766f74696e675f71756f74615f64656e6f6d696e61746f720000000000000000604b906000191690557f6d696e696d616c5f717000000000000000000000000000000000000000000000604c906000191690557f717561727465725f706f696e745f7363616c696e675f666163746f7200000000604d906000191690557f7265705f706f696e745f7363616c696e675f666163746f720000000000000000604e906000191690557f6d696e696d616c5f6d6f645f7170000000000000000000000000000000000000604f906000191690557f6d6f645f71705f7363616c696e675f666163746f7200000000000000000000006050906000191690557f6d6f645f7265705f706f696e745f7363616c696e675f666163746f72000000006051906000191690557f717561727465725f706f696e745f64726166745f766f746500000000000000006052906000191690557f717561727465725f706f696e745f766f746500000000000000000000000000006053906000191690557f717561727465725f706f696e745f696e746572696d5f766f74650000000000006054906000191690557f715f705f6d696c6573746f6e655f636f6d706c6574696f6e00000000000000006055906000191690557f626f6e75735f72657075746174696f6e5f6e756d657261746f720000000000006056906000191690557f626f6e75735f72657075746174696f6e5f64656e6f6d696e61746f72000000006057906000191690557f7370656369616c5f70726f706f73616c5f636f6d6d69745f70686173650000006058906000191690557f7370656369616c5f70726f706f73616c5f70686173655f746f74616c000000006059906000191690557f636f6e6669675f7370656369616c5f71756f74615f6e756d657261746f720000605a906000191690557f636f6e6669675f7370656369616c5f71756f74615f64656e6f6d696e61746f72605b906000191690557f7370656369616c5f71756f72756d5f6e756d657261746f720000000000000000605c906000191690557f7370656369616c5f71756f72756d5f64656e6f6d696e61746f72000000000000605d906000191690557f636f6e6669675f6d61785f72657075746174696f6e5f646564756374696f6e00605e906000191690557f636f6e6669675f70756e6973686d656e745f6e6f745f6c6f636b696e67000000605f906000191690557f636f6e6669675f7265705f7065725f65787472615f71705f6e756d00000000006060906000191690557f636f6e6669675f7265705f7065725f65787472615f71705f64656e00000000006061906000191690557f636f6e6669675f6d61785f6d5f72705f646564756374696f6e000000000000006062906000191690557f636f6e6669675f7265705f7065725f65787472615f6d5f71705f6e756d0000006063906000191690557f636f6e6669675f7265705f7065725f65787472615f6d5f71705f64656e0000006064906000191690557f636f6e6669675f6d6f645f706f7274696f6e5f6e756d000000000000000000006065906000191690557f636f6e6669675f6d6f645f706f7274696f6e5f64656e000000000000000000006066906000191690557f636f6e6669675f64726166745f766f74696e675f7068617365000000000000006067906000191690557f636f6e6669675f72705f626f6f73745f7065725f6261646765000000000000006068906000191690557f636f6e6669675f636c61696d696e675f646561646c696e6500000000000000006069906000191690557f636f6e6669675f70726570726f706f73616c5f636f6c6c61746572616c000000606a906000191690557f636f6e6669675f6d61785f66756e64696e675f6e6f6e44696769780000000000606b906000191690557f636f6e6669675f6d61785f6d696c6573746f6e65735f6e6f6e44696769780000606c906000191690557f636f6e6669675f6e6f6e44696769785f70726f706f73616c5f63617000000000606d906000191690557f636f6e6669675f646561645f6475726174696f6e000000000000000000000000606e906000191690557f636f6e6669675f63765f72657075746174696f6e000000000000000000000000606f906000191690553480156200113457600080fd5b5060405160208062002f6383398101806040528101908080519060200190929190505050620011756020548262001188640100000000026401000000009004565b15156200118157600080fd5b5062001419565b6000808273ffffffffffffffffffffffffffffffffffffffff16636d19a8826040518163ffffffff167c0100000000000000000000000000000000000000000000000000000000028152600401602060405180830381600087803b158015620011f057600080fd5b505af115801562001205573d6000803e3d6000fd5b505050506040513d60208110156200121c57600080fd5b810190808051906020019092919050505090506000151581151514156200140d5730600260006101000a81548173ffffffffffffffffffffffffffffffffffffffff021916908373ffffffffffffffffffffffffffffffffffffffff160217905550826000806101000a81548173ffffffffffffffffffffffffffffffffffffffff021916908373ffffffffffffffffffffffffffffffffffffffff16021790555083600181600019169055506000809054906101000a900473ffffffffffffffffffffffffffffffffffffffff1673ffffffffffffffffffffffffffffffffffffffff1663c0f6ef4a600154600260009054906101000a900473ffffffffffffffffffffffffffffffffffffffff166040518363ffffffff167c01000000000000000000000000000000000000000000000000000000000281526004018083600019166000191681526020018273ffffffffffffffffffffffffffffffffffffffff1673ffffffffffffffffffffffffffffffffffffffff16815260200192505050602060405180830381600087803b158015620013ba57600080fd5b505af1158015620013cf573d6000803e3d6000fd5b505050506040513d6020811015620013e657600080fd5b810190808051906020019092919050505015156200140357600080fd5b6001915062001412565b600091505b5092915050565b611b3a80620014296000396000f3006080604052600436106100e6576000357c0100000000000000000000000000000000000000000000000000000000900463ffffffff16806304f3bcec146100eb5780631d8ccd04146101425780633943380c146101b35780633f83acff146101e6578063560a25ea1461025757806368533060146102825780637d6fed80146102b15780637f6a26b6146102e0578063850373351461030b578063929066f51461036157806393ddad08146103bc578063a8dbd0cd14610409578063b1e2b9dd146104b6578063d70d9358146104fb578063db4ecbc11461052a578063fa6f393614610581575b600080fd5b3480156100f757600080fd5b506101006105dc565b604051808273ffffffffffffffffffffffffffffffffffffffff1673ffffffffffffffffffffffffffffffffffffffff16815260200191505060405180910390f35b34801561014e57600080fd5b506101716004803603810190808035600019169060200190929190505050610601565b604051808273ffffffffffffffffffffffffffffffffffffffff1673ffffffffffffffffffffffffffffffffffffffff16815260200191505060405180910390f35b3480156101bf57600080fd5b506101c86106c3565b60405180826000191660001916815260200191505060405180910390f35b3480156101f257600080fd5b5061021560048036038101908080356000191690602001909291905050506106c9565b604051808273ffffffffffffffffffffffffffffffffffffffff1673ffffffffffffffffffffffffffffffffffffffff16815260200191505060405180910390f35b34801561026357600080fd5b5061026c6107a5565b6040518082815260200191505060405180910390f35b34801561028e57600080fd5b506102976107b5565b604051808215151515815260200191505060405180910390f35b3480156102bd57600080fd5b506102c66107e1565b604051808215151515815260200191505060405180910390f35b3480156102ec57600080fd5b506102f56107fc565b6040518082815260200191505060405180910390f35b34801561031757600080fd5b5061032061080c565b604051808781526020018681526020018581526020018481526020018315151515815260200182151515158152602001965050505050505060405180910390f35b34801561036d57600080fd5b506103a2600480360381019080803573ffffffffffffffffffffffffffffffffffffffff16906020019092919050505061094f565b604051808215151515815260200191505060405180910390f35b3480156103c857600080fd5b506103eb6004803603810190808035600019169060200190929190505050610b30565b60405180826000191660001916815260200191505060405180910390f35b34801561041557600080fd5b5061044a600480360381019080803573ffffffffffffffffffffffffffffffffffffffff169060200190929190505050610bf2565b604051808c1515151581526020018b1515151581526020018a151515158152602001891515151581526020018881526020018781526020018681526020018581526020018481526020018381526020018281526020019b50505050505050505050505060405180910390f35b3480156104c257600080fd5b506104e56004803603810190808035600019169060200190929190505050611352565b6040518082815260200191505060405180910390f35b34801561050757600080fd5b50610510611414565b604051808215151515815260200191505060405180910390f35b34801561053657600080fd5b5061053f6114c2565b604051808273ffffffffffffffffffffffffffffffffffffffff1673ffffffffffffffffffffffffffffffffffffffff16815260200191505060405180910390f35b34801561058d57600080fd5b506105c2600480360381019080803573ffffffffffffffffffffffffffffffffffffffff1690602001909291905050506114e8565b604051808215151515815260200191505060405180910390f35b6000809054906101000a900473ffffffffffffffffffffffffffffffffffffffff1681565b600061060b6117bb565b73ffffffffffffffffffffffffffffffffffffffff1663e6b39eab836040518263ffffffff167c0100000000000000000000000000000000000000000000000000000000028152600401808260001916600019168152602001915050602060405180830381600087803b15801561068157600080fd5b505af1158015610695573d6000803e3d6000fd5b505050506040513d60208110156106ab57600080fd5b81019080805190602001909291905050509050919050565b60015481565b60008060009054906101000a900473ffffffffffffffffffffffffffffffffffffffff1673ffffffffffffffffffffffffffffffffffffffff16633f83acff836040518263ffffffff167c0100000000000000000000000000000000000000000000000000000000028152600401808260001916600019168152602001915050602060405180830381600087803b15801561076357600080fd5b505af1158015610777573d6000803e3d6000fd5b505050506040513d602081101561078d57600080fd5b81019080805190602001909291905050509050919050565b60006107b0426117cd565b905090565b60006107bf611414565b80156107dc57506107d1603854611352565b6107d96107a5565b10155b905090565b60006107ee603854611352565b6107f66107a5565b10905090565b6000610807426118b6565b905090565b60008060008060008061081d6107fc565b955061083961082a6107a5565b426119b990919063ffffffff16565b9450610858610849603854611352565b866119d290919063ffffffff16565b9350610877610868603954611352565b866119d290919063ffffffff16565b92506108816107b5565b9150600061088d6119ee565b73ffffffffffffffffffffffffffffffffffffffff1663a78e00d6886040518263ffffffff167c010000000000000000000000000000000000000000000000000000000002815260040180828152602001915050602060405180830381600087803b1580156108fb57600080fd5b505af115801561090f573d6000803e3d6000fd5b505050506040513d602081101561092557600080fd5b810190808051906020019092919050505011610942576000610945565b60015b9050909192939495565b60006109596107fc565b6109616119ee565b73ffffffffffffffffffffffffffffffffffffffff1663cefc2bff846040518263ffffffff167c0100000000000000000000000000000000000000000000000000000000028152600401808273ffffffffffffffffffffffffffffffffffffffff1673ffffffffffffffffffffffffffffffffffffffff168152602001915050602060405180830381600087803b1580156109fb57600080fd5b505af1158015610a0f573d6000803e3d6000fd5b505050506040513d6020811015610a2557600080fd5b8101908080519060200190929190505050148015610b295750610a49603554611352565b610a51611a00565b73ffffffffffffffffffffffffffffffffffffffff1663cd094a27846040518263ffffffff167c0100000000000000000000000000000000000000000000000000000000028152600401808273ffffffffffffffffffffffffffffffffffffffff1673ffffffffffffffffffffffffffffffffffffffff168152602001915050602060405180830381600087803b158015610aeb57600080fd5b505af1158015610aff573d6000803e3d6000fd5b505050506040513d6020811015610b1557600080fd5b810190808051906020019092919050505010155b9050919050565b6000610b3a6117bb565b73ffffffffffffffffffffffffffffffffffffffff1663c0a8405d836040518263ffffffff167c0100000000000000000000000000000000000000000000000000000000028152600401808260001916600019168152602001915050602060405180830381600087803b158015610bb057600080fd5b505af1158015610bc4573d6000803e3d6000fd5b505050506040513d6020811015610bda57600080fd5b81019080805190602001909291905050509050919050565b6000806000806000806000806000806000610c0b6119ee565b73ffffffffffffffffffffffffffffffffffffffff1663cefc2bff8d6040518263ffffffff167c0100000000000000000000000000000000000000000000000000000000028152600401808273ffffffffffffffffffffffffffffffffffffffff1673ffffffffffffffffffffffffffffffffffffffff168152602001915050602060405180830381600087803b158015610ca557600080fd5b505af1158015610cb9573d6000803e3d6000fd5b505050506040513d6020811015610ccf57600080fd5b81019080805190602001909291905050509650610cea6119ee565b73ffffffffffffffffffffffffffffffffffffffff1663bd695d218d6040518263ffffffff167c0100000000000000000000000000000000000000000000000000000000028152600401808273ffffffffffffffffffffffffffffffffffffffff1673ffffffffffffffffffffffffffffffffffffffff168152602001915050602060405180830381600087803b158015610d8457600080fd5b505af1158015610d98573d6000803e3d6000fd5b505050506040513d6020811015610dae57600080fd5b81019080805190602001909291905050509550610dc9611a00565b73ffffffffffffffffffffffffffffffffffffffff1663f01a13e18d6040518263ffffffff167c0100000000000000000000000000000000000000000000000000000000028152600401808273ffffffffffffffffffffffffffffffffffffffff1673ffffffffffffffffffffffffffffffffffffffff168152602001915050602060405180830381600087803b158015610e6357600080fd5b505af1158015610e77573d6000803e3d6000fd5b505050506040513d6020811015610e8d57600080fd5b81019080805190602001909291905050509750610ea8611a00565b73ffffffffffffffffffffffffffffffffffffffff16635bdd27438d6040518263ffffffff167c0100000000000000000000000000000000000000000000000000000000028152600401808273ffffffffffffffffffffffffffffffffffffffff1673ffffffffffffffffffffffffffffffffffffffff1681526020019150506040805180830381600087803b158015610f4157600080fd5b505af1158015610f55573d6000803e3d6000fd5b505050506040513d6040811015610f6b57600080fd5b8101908080519060200190929190805190602001909291905050508096508195505050610f96611a12565b73ffffffffffffffffffffffffffffffffffffffff16639c89a0e28d6040518263ffffffff167c0100000000000000000000000000000000000000000000000000000000028152600401808273ffffffffffffffffffffffffffffffffffffffff1673ffffffffffffffffffffffffffffffffffffffff168152602001915050602060405180830381600087803b15801561103057600080fd5b505af1158015611044573d6000803e3d6000fd5b505050506040513d602081101561105a57600080fd5b81019080805190602001909291905050509250611075611a12565b73ffffffffffffffffffffffffffffffffffffffff166393383c518d6110996107fc565b6040518363ffffffff167c0100000000000000000000000000000000000000000000000000000000028152600401808373ffffffffffffffffffffffffffffffffffffffff1673ffffffffffffffffffffffffffffffffffffffff16815260200182815260200192505050602060405180830381600087803b15801561111e57600080fd5b505af1158015611132573d6000803e3d6000fd5b505050506040513d602081101561114857600080fd5b810190808051906020019092919050505091506111648c61094f565b9a5061116f8c6114e8565b9950603360019054906101000a900460ff1660ff1661118c611a24565b73ffffffffffffffffffffffffffffffffffffffff1663c31d02b28e6040518263ffffffff167c0100000000000000000000000000000000000000000000000000000000028152600401808273ffffffffffffffffffffffffffffffffffffffff1673ffffffffffffffffffffffffffffffffffffffff168152602001915050602060405180830381600087803b15801561122657600080fd5b505af115801561123a573d6000803e3d6000fd5b505050506040513d602081101561125057600080fd5b810190808051906020019092919050505014985061126c6119ee565b73ffffffffffffffffffffffffffffffffffffffff166378af89ac8d6040518263ffffffff167c0100000000000000000000000000000000000000000000000000000000028152600401808273ffffffffffffffffffffffffffffffffffffffff1673ffffffffffffffffffffffffffffffffffffffff168152602001915050602060405180830381600087803b15801561130657600080fd5b505af115801561131a573d6000803e3d6000fd5b505050506040513d602081101561133057600080fd5b8101908080519060200190929190505050905091939597999b90929496989a50565b600061135c6117bb565b73ffffffffffffffffffffffffffffffffffffffff1663734c1168836040518263ffffffff167c0100000000000000000000000000000000000000000000000000000000028152600401808260001916600019168152602001915050602060405180830381600087803b1580156113d257600080fd5b505af11580156113e6573d6000803e3d6000fd5b505050506040513d60208110156113fc57600080fd5b81019080805190602001909291905050509050919050565b600061141e611a36565b73ffffffffffffffffffffffffffffffffffffffff16638bc865fd6040518163ffffffff167c0100000000000000000000000000000000000000000000000000000000028152600401602060405180830381600087803b15801561148157600080fd5b505af1158015611495573d6000803e3d6000fd5b505050506040513d60208110156114ab57600080fd5b810190808051906020019092919050505015905090565b600260009054906101000a900473ffffffffffffffffffffffffffffffffffffffff1681565b60006114f26107fc565b6114fa6119ee565b73ffffffffffffffffffffffffffffffffffffffff1663cefc2bff846040518263ffffffff167c0100000000000000000000000000000000000000000000000000000000028152600401808273ffffffffffffffffffffffffffffffffffffffff1673ffffffffffffffffffffffffffffffffffffffff168152602001915050602060405180830381600087803b15801561159457600080fd5b505af11580156115a8573d6000803e3d6000fd5b505050506040513d60208110156115be57600080fd5b81019080805190602001909291905050501480156116c257506115e2603654611352565b6115ea611a00565b73ffffffffffffffffffffffffffffffffffffffff1663cd094a27846040518263ffffffff167c0100000000000000000000000000000000000000000000000000000000028152600401808273ffffffffffffffffffffffffffffffffffffffff1673ffffffffffffffffffffffffffffffffffffffff168152602001915050602060405180830381600087803b15801561168457600080fd5b505af1158015611698573d6000803e3d6000fd5b505050506040513d60208110156116ae57600080fd5b810190808051906020019092919050505010155b80156117b457506116d4603754611352565b6116dc611a12565b73ffffffffffffffffffffffffffffffffffffffff16639c89a0e2846040518263ffffffff167c0100000000000000000000000000000000000000000000000000000000028152600401808273ffffffffffffffffffffffffffffffffffffffff1673ffffffffffffffffffffffffffffffffffffffff168152602001915050602060405180830381600087803b15801561177657600080fd5b505af115801561178a573d6000803e3d6000fd5b505050506040513d60208110156117a057600080fd5b810190808051906020019092919050505010155b9050919050565b60006117c8602b546106c9565b905090565b60006117d7611a48565b15156117e257600080fd5b6117ed603954611352565b6118a56117f8611a36565b73ffffffffffffffffffffffffffffffffffffffff1663d9c6bb206040518163ffffffff167c0100000000000000000000000000000000000000000000000000000000028152600401602060405180830381600087803b15801561185b57600080fd5b505af115801561186f573d6000803e3d6000fd5b505050506040513d602081101561188557600080fd5b8101908080519060200190929190505050846119b990919063ffffffff16565b8115156118ae57fe5b069050919050565b60006118c0611a48565b15156118cb57600080fd5b6119b260016119a46118de603954611352565b6119966118e9611a36565b73ffffffffffffffffffffffffffffffffffffffff1663d9c6bb206040518163ffffffff167c0100000000000000000000000000000000000000000000000000000000028152600401602060405180830381600087803b15801561194c57600080fd5b505af1158015611960573d6000803e3d6000fd5b505050506040513d602081101561197657600080fd5b8101908080519060200190929190505050876119b990919063ffffffff16565b611af890919063ffffffff16565b6119d290919063ffffffff16565b9050919050565b60008282111515156119c757fe5b818303905092915050565b600081830190508281101515156119e557fe5b80905092915050565b60006119fb602d546106c9565b905090565b6000611a0d602c546106c9565b905090565b6000611a1f6029546106c9565b905090565b6000611a316028546106c9565b905090565b6000611a436027546106c9565b905090565b600080611a53611a36565b73ffffffffffffffffffffffffffffffffffffffff1663d9c6bb206040518163ffffffff167c0100000000000000000000000000000000000000000000000000000000028152600401602060405180830381600087803b158015611ab657600080fd5b505af1158015611aca573d6000803e3d6000fd5b505050506040513d6020811015611ae057600080fd5b81019080805190602001909291905050501415905090565b60008183811515611b0557fe5b049050929150505600a165627a7a7230582030f6b9f0a1f7b7a35b3cc9864391f9a079b9f6afb7022d6ec31d0fc816ab6e270029",
  "source": "pragma solidity ^0.4.25;\n\nimport \"./../common/DaoCommon.sol\";\n\n/**\n@title Contract (read-only) to read information from DAO\n@dev cannot introduce more read methods in other contracts due to deployment gas limit\n@author Digix Holdings\n*/\ncontract DaoInformation is DaoCommon {\n\n    constructor(address _resolver)\n        public\n    {\n        require(init(CONTRACT_DAO_INFORMATION, _resolver));\n    }\n\n    /**\n    @notice Function to read user specific information\n    @param _user Ethereum address of the user\n    @return {\n      \"_isParticipant\": \"Boolean, true if the user is a DigixDAO participant in the current quarter\",\n      \"_isModerator\": \"Boolean, true if the user is a DigixDAO moderator in the current quarter\",\n      \"_isDigix\": \"Boolean, true if the user is a Digix founder\",\n      \"_redeemedBadge\": \"Boolean, true if the user has redeemed a DGD badge in DigixDAO\",\n      \"_lastParticipatedQuarter\": \"The last quarter in which this user has/had participated in DigixDAO\",\n      \"_lastParticipatedQuarter\": \"The last quarter in which this user's reputation was updated in DigixDAO, equal to (currentQuarter - 1) if its updated at the moment\",\n      \"_lockedDgdStake\": \"The locked stage of this user in the current quarter\",\n      \"_lockedDgd\": \"The actual locked DGDs by this user in our contracts\",\n      \"_reputationPoints\": \"The cumulative reputation points accumulated by this user in DigixDAO\",\n      \"_quarterPoints\": \"Quarter points of this user in the current quarter\",\n      \"_claimableDgx\": \"DGX (in grams) that can be claimed by this user from DigixDAO\"\n    }\n    */\n    function readUserInfo(address _user)\n        public\n        constant\n        returns (\n            bool _isParticipant,\n            bool _isModerator,\n            bool _isDigix,\n            bool _redeemedBadge,\n            uint256 _lastParticipatedQuarter,\n            uint256 _lastQuarterThatReputationWasUpdated,\n            uint256 _lockedDgdStake,\n            uint256 _lockedDgd,\n            uint256 _reputationPoints,\n            uint256 _quarterPoints,\n            uint256 _claimableDgx\n        )\n    {\n         _lastParticipatedQuarter = daoRewardsStorage().lastParticipatedQuarter(_user);\n         _lastQuarterThatReputationWasUpdated = daoRewardsStorage().lastQuarterThatReputationWasUpdated(_user);\n         _redeemedBadge = daoStakeStorage().redeemedBadge(_user);\n         (_lockedDgd, _lockedDgdStake) = daoStakeStorage().readUserDGDStake(_user);\n         _reputationPoints = daoPointsStorage().getReputation(_user);\n         _quarterPoints = daoPointsStorage().getQuarterPoint(_user, currentQuarterNumber());\n         _isParticipant = isParticipant(_user);\n         _isModerator = isModerator(_user);\n         _isDigix = identity_storage().read_user_role_id(_user) == ROLES_FOUNDERS;\n         _claimableDgx = daoRewardsStorage().claimableDGXs(_user);\n    }\n\n    /**\n    @notice Function to read DigixDAO specific information\n    @return {\n      \"_currentQuarterNumber\": \"The current quarter number of DigixDAO (starts from 1)\",\n      \"_dgxDistributionDay\": \"The unix timestamp at which the quarter was initialized\",\n      \"_startOfQuarter\": \"The unix timestamp when the current quarter started\",\n      \"_startOfMainPhase\": \"The unix timestamp when the main phase of current quarter has/will start\",\n      \"_startOfNextQuarter\": \"The unix timestamp when the next quarter begins\",\n      \"_isMainPhase\": \"Boolean, true if this is the main phase, false if this is the locking phase\"\n    }\n    */\n    function readDaoInfo()\n        public\n        constant\n        returns (\n            uint256 _currentQuarterNumber,\n            uint256 _startOfQuarter,\n            uint256 _startOfMainPhase,\n            uint256 _startOfNextQuarter,\n            bool _isMainPhase,\n            bool _isGlobalRewardsSet\n        )\n    {\n        _currentQuarterNumber = currentQuarterNumber();\n        _startOfQuarter = now.sub(currentTimeInQuarter());\n        _startOfMainPhase = _startOfQuarter.add(getUintConfig(CONFIG_LOCKING_PHASE_DURATION));\n        _startOfNextQuarter = _startOfQuarter.add(getUintConfig(CONFIG_QUARTER_DURATION));\n        _isMainPhase = isMainPhase();\n        _isGlobalRewardsSet = daoRewardsStorage().readDgxDistributionDay(_currentQuarterNumber) > 0 ? true : false;\n    }\n}\n",
  "sourcePath": "/home/rohit/Develop/dao-contracts/contracts/interactive/DaoInformation.sol",
  "compiler": {
    "name": "solc",
    "version": "0.4.25+commit.59dbf8f1.Emscripten.clang"
  },
  "schemaVersion": "2.0.1",
  "updatedAt": "2019-01-18T07:00:57.809Z"
}