{
  "contractName": "DaoIdentityStorage",
  "abi": [
    {
      "constant": true,
      "inputs": [],
      "name": "resolver",
      "outputs": [
        {
          "name": "",
          "type": "address"
        }
      ],
      "payable": false,
      "stateMutability": "view",
      "type": "function"
    },
    {
      "constant": true,
      "inputs": [],
      "name": "read_first_group",
      "outputs": [
        {
          "name": "_group_id",
          "type": "uint256"
        }
      ],
      "payable": false,
      "stateMutability": "view",
      "type": "function"
    },
    {
      "constant": true,
      "inputs": [],
      "name": "read_total_groups",
      "outputs": [
        {
          "name": "_total_groups",
          "type": "uint256"
        }
      ],
      "payable": false,
      "stateMutability": "view",
      "type": "function"
    },
    {
      "constant": true,
      "inputs": [
        {
          "name": "_role_id",
          "type": "uint256"
        }
      ],
      "name": "read_role",
      "outputs": [
        {
          "name": "_name",
          "type": "bytes32"
        }
      ],
      "payable": false,
      "stateMutability": "view",
      "type": "function"
    },
    {
      "constant": true,
      "inputs": [
        {
          "name": "_group_id",
          "type": "bytes32"
        }
      ],
      "name": "read_first_user_in_group",
      "outputs": [
        {
          "name": "_user",
          "type": "address"
        }
      ],
      "payable": false,
      "stateMutability": "view",
      "type": "function"
    },
    {
      "constant": true,
      "inputs": [],
      "name": "key",
      "outputs": [
        {
          "name": "",
          "type": "bytes32"
        }
      ],
      "payable": false,
      "stateMutability": "view",
      "type": "function"
    },
    {
      "constant": true,
      "inputs": [
        {
          "name": "_user",
          "type": "address"
        }
      ],
      "name": "read_user",
      "outputs": [
        {
          "name": "_group_id",
          "type": "uint256"
        },
        {
          "name": "_role_id",
          "type": "uint256"
        },
        {
          "name": "_document",
          "type": "bytes32"
        }
      ],
      "payable": false,
      "stateMutability": "view",
      "type": "function"
    },
    {
      "constant": true,
      "inputs": [
        {
          "name": "_key",
          "type": "bytes32"
        }
      ],
      "name": "get_contract",
      "outputs": [
        {
          "name": "_contract",
          "type": "address"
        }
      ],
      "payable": false,
      "stateMutability": "view",
      "type": "function"
    },
    {
      "constant": true,
      "inputs": [
        {
          "name": "_group_id",
          "type": "bytes32"
        }
      ],
      "name": "read_last_user_in_group",
      "outputs": [
        {
          "name": "_user",
          "type": "address"
        }
      ],
      "payable": false,
      "stateMutability": "view",
      "type": "function"
    },
    {
      "constant": true,
      "inputs": [
        {
          "name": "_group_id",
          "type": "uint256"
        }
      ],
      "name": "read_group",
      "outputs": [
        {
          "name": "_role_id",
          "type": "uint256"
        },
        {
          "name": "_name",
          "type": "bytes32"
        },
        {
          "name": "_document",
          "type": "bytes32"
        },
        {
          "name": "_members_count",
          "type": "uint256"
        }
      ],
      "payable": false,
      "stateMutability": "view",
      "type": "function"
    },
    {
      "constant": true,
      "inputs": [],
      "name": "read_last_group",
      "outputs": [
        {
          "name": "_group_id",
          "type": "uint256"
        }
      ],
      "payable": false,
      "stateMutability": "view",
      "type": "function"
    },
    {
      "constant": true,
      "inputs": [
        {
          "name": "_user",
          "type": "address"
        }
      ],
      "name": "read_user_role_id",
      "outputs": [
        {
          "name": "_role_id",
          "type": "uint256"
        }
      ],
      "payable": false,
      "stateMutability": "view",
      "type": "function"
    },
    {
      "constant": true,
      "inputs": [
        {
          "name": "_group_id",
          "type": "bytes32"
        },
        {
          "name": "_current_user",
          "type": "address"
        }
      ],
      "name": "read_previous_user_in_group",
      "outputs": [
        {
          "name": "_user",
          "type": "address"
        }
      ],
      "payable": false,
      "stateMutability": "view",
      "type": "function"
    },
    {
      "constant": true,
      "inputs": [],
      "name": "CONTRACT_ADDRESS",
      "outputs": [
        {
          "name": "",
          "type": "address"
        }
      ],
      "payable": false,
      "stateMutability": "view",
      "type": "function"
    },
    {
      "constant": true,
      "inputs": [
        {
          "name": "_group_id",
          "type": "bytes32"
        }
      ],
      "name": "read_total_users_in_group",
      "outputs": [
        {
          "name": "_total_users",
          "type": "uint256"
        }
      ],
      "payable": false,
      "stateMutability": "view",
      "type": "function"
    },
    {
      "constant": true,
      "inputs": [
        {
          "name": "_current_group_id",
          "type": "uint256"
        }
      ],
      "name": "read_previous_group_from_group",
      "outputs": [
        {
          "name": "_group_id",
          "type": "uint256"
        }
      ],
      "payable": false,
      "stateMutability": "view",
      "type": "function"
    },
    {
      "constant": true,
      "inputs": [
        {
          "name": "_group_id",
          "type": "bytes32"
        },
        {
          "name": "_current_user",
          "type": "address"
        }
      ],
      "name": "read_next_user_in_group",
      "outputs": [
        {
          "name": "_user",
          "type": "address"
        }
      ],
      "payable": false,
      "stateMutability": "view",
      "type": "function"
    },
    {
      "constant": true,
      "inputs": [
        {
          "name": "_current_group_id",
          "type": "uint256"
        }
      ],
      "name": "read_next_group_from_group",
      "outputs": [
        {
          "name": "_group_id",
          "type": "uint256"
        }
      ],
      "payable": false,
      "stateMutability": "view",
      "type": "function"
    },
    {
      "inputs": [
        {
          "name": "_resolver",
          "type": "address"
        }
      ],
      "payable": false,
      "stateMutability": "nonpayable",
      "type": "constructor"
    },
    {
      "constant": false,
      "inputs": [
        {
          "name": "_role_id",
          "type": "uint256"
        },
        {
          "name": "_name",
          "type": "bytes32"
        },
        {
          "name": "_document",
          "type": "bytes32"
        }
      ],
      "name": "create_group",
      "outputs": [
        {
          "name": "_success",
          "type": "bool"
        },
        {
          "name": "_group_id",
          "type": "uint256"
        }
      ],
      "payable": false,
      "stateMutability": "nonpayable",
      "type": "function"
    },
    {
      "constant": false,
      "inputs": [
        {
          "name": "_role_id",
          "type": "uint256"
        },
        {
          "name": "_name",
          "type": "bytes32"
        }
      ],
      "name": "create_role",
      "outputs": [
        {
          "name": "_success",
          "type": "bool"
        }
      ],
      "payable": false,
      "stateMutability": "nonpayable",
      "type": "function"
    },
    {
      "constant": false,
      "inputs": [
        {
          "name": "_group_id",
          "type": "uint256"
        },
        {
          "name": "_user",
          "type": "address"
        },
        {
          "name": "_document",
          "type": "bytes32"
        }
      ],
      "name": "update_add_user_to_group",
      "outputs": [
        {
          "name": "_success",
          "type": "bool"
        }
      ],
      "payable": false,
      "stateMutability": "nonpayable",
      "type": "function"
    },
    {
      "constant": false,
      "inputs": [
        {
          "name": "_user",
          "type": "address"
        }
      ],
      "name": "update_remove_group_user",
      "outputs": [
        {
          "name": "_success",
          "type": "bool"
        }
      ],
      "payable": false,
      "stateMutability": "nonpayable",
      "type": "function"
    },
    {
      "constant": false,
      "inputs": [
        {
          "name": "_user",
          "type": "address"
        },
        {
          "name": "_doc",
          "type": "bytes32"
        },
        {
          "name": "_id_expiration",
          "type": "uint256"
        }
      ],
      "name": "update_kyc",
      "outputs": [],
      "payable": false,
      "stateMutability": "nonpayable",
      "type": "function"
    },
    {
      "constant": true,
      "inputs": [
        {
          "name": "_user",
          "type": "address"
        }
      ],
      "name": "read_kyc_info",
      "outputs": [
        {
          "name": "_doc",
          "type": "bytes32"
        },
        {
          "name": "_id_expiration",
          "type": "uint256"
        }
      ],
      "payable": false,
      "stateMutability": "view",
      "type": "function"
    },
    {
      "constant": true,
      "inputs": [
        {
          "name": "_user",
          "type": "address"
        }
      ],
      "name": "is_kyc_approved",
      "outputs": [
        {
          "name": "_approved",
          "type": "bool"
        }
      ],
      "payable": false,
      "stateMutability": "view",
      "type": "function"
    }
  ],
  "bytecode": "0x608060405260006001026003906000191690556000600460006101000a81548173ffffffffffffffffffffffffffffffffffffffff021916908373ffffffffffffffffffffffffffffffffffffffff1602179055507f70726f706f73616c5f73746174655f70726570726f706f73616c0000000000006005906000191690557f70726f706f73616c5f73746174655f64726166740000000000000000000000006006906000191690557f70726f706f73616c5f73746174655f6d6f6465726174656400000000000000006007906000191690557f70726f706f73616c5f73746174655f6f6e676f696e67000000000000000000006008906000191690557f70726f706f73616c5f73746174655f636c6f73656400000000000000000000006009906000191690557f70726f706f73616c5f73746174655f6172636869766564000000000000000000600a906000191690556001600b556002600c556003600d556001600e556002600f5560036010557f696e7465725f6467645f696400000000000000000000000000000000000000006011906000191690557f696e7465725f6d6f645f6467645f6964000000000000000000000000000000006012906000191690557f696e7465725f626f6e75735f63616c63756c6174696f6e5f69640000000000006013906000191690557f64616f00000000000000000000000000000000000000000000000000000000006014906000191690557f64616f3a7370656369616c3a70726f706f73616c0000000000000000000000006015906000191690557f64616f3a7374616b652d6c6f636b696e670000000000000000000000000000006016906000191690557f64616f3a766f74696e67000000000000000000000000000000000000000000006017906000191690557f64616f3a766f74696e673a636c61696d730000000000000000000000000000006018906000191690557f64616f3a73766f74696e673a636c61696d7300000000000000000000000000006019906000191690557f64616f3a6964656e746974790000000000000000000000000000000000000000601a906000191690557f64616f3a726577617264732d6d616e6167657200000000000000000000000000601b906000191690557f64616f3a726577617264732d6578747261730000000000000000000000000000601c906000191690557f64616f3a726f6c65730000000000000000000000000000000000000000000000601d906000191690557f64616f3a66756e64696e672d6d616e6167657200000000000000000000000000601e906000191690557f64616f3a77686974656c697374696e6700000000000000000000000000000000601f906000191690557f64616f3a696e666f726d6174696f6e00000000000000000000000000000000006020906000191690557f736572766963653a726f6c6500000000000000000000000000000000000000006021906000191690557f736572766963653a64616f3a696e666f000000000000000000000000000000006022906000191690557f736572766963653a64616f3a6c697374696e67000000000000000000000000006023906000191690557f736572766963653a64616f3a63616c63756c61746f72000000000000000000006024906000191690557f73746f726167653a64616f0000000000000000000000000000000000000000006025906000191690557f73746f726167653a64616f3a636f756e746572000000000000000000000000006026906000191690557f73746f726167653a64616f3a75706772616465000000000000000000000000006027906000191690557f73746f726167653a64616f3a6964656e746974790000000000000000000000006028906000191690557f73746f726167653a64616f3a706f696e747300000000000000000000000000006029906000191690557f73746f726167653a64616f3a7370656369616c00000000000000000000000000602a906000191690557f73746f726167653a64616f3a636f6e6669670000000000000000000000000000602b906000191690557f73746f726167653a64616f3a7374616b65000000000000000000000000000000602c906000191690557f73746f726167653a64616f3a7265776172647300000000000000000000000000602d906000191690557f73746f726167653a64616f3a77686974656c697374696e670000000000000000602e906000191690557f73746f726167653a696e7465726d6564696174653a726573756c747300000000602f906000191690557f743a6467640000000000000000000000000000000000000000000000000000006030906000191690557f743a6467780000000000000000000000000000000000000000000000000000006031906000191690557f743a6261646765000000000000000000000000000000000000000000000000006032906000191690556001603360006101000a81548160ff021916908360ff1602179055506002603360016101000a81548160ff021916908360ff1602179055506003603360026101000a81548160ff021916908360ff1602179055506004603360036101000a81548160ff021916908360ff1602179055506276a7006034557f6d696e5f6467645f7061727469636970616e74000000000000000000000000006035906000191690557f6d696e5f6467645f6d6f64657261746f720000000000000000000000000000006036906000191690557f6d696e5f72657075746174696f6e5f6d6f64657261746f7200000000000000006037906000191690557f6c6f636b696e675f70686173655f6475726174696f6e000000000000000000006038906000191690557f717561727465725f6475726174696f6e000000000000000000000000000000006039906000191690557f766f74696e675f636f6d6d69745f706861736500000000000000000000000000603a906000191690557f766f74696e675f70686173655f746f74616c0000000000000000000000000000603b906000191690557f696e746572696d5f766f74696e675f636f6d6d69745f70686173650000000000603c906000191690557f696e746572696d5f766f74696e675f70686173655f746f74616c000000000000603d906000191690557f64726166745f71756f72756d5f66697865645f6e756d657261746f7200000000603e906000191690557f64726166745f71756f72756d5f66697865645f64656e6f6d696e61746f720000603f906000191690557f64726166745f71756f72756d5f73666163746f725f6e756d657261746f7200006040906000191690557f64726166745f71756f72756d5f73666163746f725f64656e6f6d696e61746f726041906000191690557f766f74655f71756f72756d5f66697865645f6e756d657261746f7200000000006042906000191690557f766f74655f71756f72756d5f66697865645f64656e6f6d696e61746f720000006043906000191690557f766f74655f71756f72756d5f73666163746f725f6e756d657261746f720000006044906000191690557f766f74655f71756f72756d5f73666163746f725f64656e6f6d696e61746f72006045906000191690557f66696e616c5f7265776172645f73666163746f725f6e756d657261746f7200006046906000191690557f66696e616c5f7265776172645f73666163746f725f64656e6f6d696e61746f726047906000191690557f64726166745f71756f74615f6e756d657261746f7200000000000000000000006048906000191690557f64726166745f71756f74615f64656e6f6d696e61746f720000000000000000006049906000191690557f766f74696e675f71756f74615f6e756d657261746f7200000000000000000000604a906000191690557f766f74696e675f71756f74615f64656e6f6d696e61746f720000000000000000604b906000191690557f6d696e696d616c5f717000000000000000000000000000000000000000000000604c906000191690557f717561727465725f706f696e745f7363616c696e675f666163746f7200000000604d906000191690557f7265705f706f696e745f7363616c696e675f666163746f720000000000000000604e906000191690557f6d696e696d616c5f6d6f645f7170000000000000000000000000000000000000604f906000191690557f6d6f645f71705f7363616c696e675f666163746f7200000000000000000000006050906000191690557f6d6f645f7265705f706f696e745f7363616c696e675f666163746f72000000006051906000191690557f717561727465725f706f696e745f64726166745f766f746500000000000000006052906000191690557f717561727465725f706f696e745f766f746500000000000000000000000000006053906000191690557f717561727465725f706f696e745f696e746572696d5f766f74650000000000006054906000191690557f715f705f6d696c6573746f6e655f636f6d706c6574696f6e00000000000000006055906000191690557f626f6e75735f72657075746174696f6e5f6e756d657261746f720000000000006056906000191690557f626f6e75735f72657075746174696f6e5f64656e6f6d696e61746f72000000006057906000191690557f7370656369616c5f70726f706f73616c5f636f6d6d69745f70686173650000006058906000191690557f7370656369616c5f70726f706f73616c5f70686173655f746f74616c000000006059906000191690557f636f6e6669675f7370656369616c5f71756f74615f6e756d657261746f720000605a906000191690557f636f6e6669675f7370656369616c5f71756f74615f64656e6f6d696e61746f72605b906000191690557f7370656369616c5f71756f72756d5f6e756d657261746f720000000000000000605c906000191690557f7370656369616c5f71756f72756d5f64656e6f6d696e61746f72000000000000605d906000191690557f636f6e6669675f6d61785f72657075746174696f6e5f646564756374696f6e00605e906000191690557f636f6e6669675f70756e6973686d656e745f6e6f745f6c6f636b696e67000000605f906000191690557f636f6e6669675f7265705f7065725f65787472615f71705f6e756d00000000006060906000191690557f636f6e6669675f7265705f7065725f65787472615f71705f64656e00000000006061906000191690557f636f6e6669675f6d61785f6d5f72705f646564756374696f6e000000000000006062906000191690557f636f6e6669675f7265705f7065725f65787472615f6d5f71705f6e756d0000006063906000191690557f636f6e6669675f7265705f7065725f65787472615f6d5f71705f64656e0000006064906000191690557f636f6e6669675f6d6f645f706f7274696f6e5f6e756d000000000000000000006065906000191690557f636f6e6669675f6d6f645f706f7274696f6e5f64656e000000000000000000006066906000191690557f636f6e6669675f64726166745f766f74696e675f7068617365000000000000006067906000191690557f636f6e6669675f72705f626f6f73745f7065725f6261646765000000000000006068906000191690557f636f6e6669675f636c61696d696e675f646561646c696e6500000000000000006069906000191690557f636f6e6669675f70726570726f706f73616c5f636f6c6c61746572616c000000606a906000191690557f636f6e6669675f6d61785f66756e64696e675f6e6f6e44696769780000000000606b906000191690557f636f6e6669675f6d61785f6d696c6573746f6e65735f6e6f6e44696769780000606c906000191690557f636f6e6669675f6e6f6e44696769785f70726f706f73616c5f63617000000000606d906000191690557f636f6e6669675f646561645f6475726174696f6e000000000000000000000000606e906000191690557f636f6e6669675f63765f72657075746174696f6e000000000000000000000000606f906000191690553480156200113457600080fd5b5060405160208062003c5a833981018060405281019080805190602001909291905050506200117560285482620011ad640100000000026401000000009004565b15156200118157600080fd5b6200119a6200143e640100000000026401000000009004565b1515620011a657600080fd5b5062001a39565b6000808273ffffffffffffffffffffffffffffffffffffffff16636d19a8826040518163ffffffff167c0100000000000000000000000000000000000000000000000000000000028152600401602060405180830381600087803b1580156200121557600080fd5b505af11580156200122a573d6000803e3d6000fd5b505050506040513d60208110156200124157600080fd5b81019080805190602001909291905050509050600015158115151415620014325730600260006101000a81548173ffffffffffffffffffffffffffffffffffffffff021916908373ffffffffffffffffffffffffffffffffffffffff160217905550826000806101000a81548173ffffffffffffffffffffffffffffffffffffffff021916908373ffffffffffffffffffffffffffffffffffffffff16021790555083600181600019169055506000809054906101000a900473ffffffffffffffffffffffffffffffffffffffff1673ffffffffffffffffffffffffffffffffffffffff1663c0f6ef4a600154600260009054906101000a900473ffffffffffffffffffffffffffffffffffffffff166040518363ffffffff167c01000000000000000000000000000000000000000000000000000000000281526004018083600019166000191681526020018273ffffffffffffffffffffffffffffffffffffffff1673ffffffffffffffffffffffffffffffffffffffff16815260200192505050602060405180830381600087803b158015620013df57600080fd5b505af1158015620013f4573d6000803e3d6000fd5b505050506040513d60208110156200140b57600080fd5b810190808051906020019092919050505015156200142857600080fd5b6001915062001437565b600091505b5092915050565b60008015156070600a0160009054906101000a900460ff1615151415156200146557600080fd5b60006070600b018190555060016070600a0160006101000a81548160ff021916908315150217905550620014ca60017f726f6f74000000000000000000000000000000000000000000000000000000006200152e640100000000026401000000009004565b506200150960017f726f6f7400000000000000000000000000000000000000000000000000000000600062001584640100000000026401000000009004565b505062001529600132600062001706640100000000026401000000009004565b905090565b600080831115156200153f57600080fd5b6000600102600019168260001916141515156200155b57600080fd5b816070600901600085815260200190815260200160002081600019169055506001905092915050565b6000806000851115156200159757600080fd5b600060010260001916620015ba8662001a19640100000000026401000000009004565b6000191614151515620015cc57600080fd5b6070600b01600081546001019190508190559050607060000173__DoublyLinkedList______________________63d372d5f69091836040518363ffffffff167c0100000000000000000000000000000000000000000000000000000000028152600401808381526020018281526020019250505060206040518083038186803b1580156200165a57600080fd5b505af41580156200166f573d6000803e3d6000fd5b505050506040513d60208110156200168657600080fd5b810190808051906020019092919050505050846070600701600083815260200190815260200160002060020181905550836070600701600083815260200190815260200160002060000181600019169055508260706007016000838152602001908152602001600020600101816000191690555060019150935093915050565b60008015156070600701600086815260200190815260200160002060030160008573ffffffffffffffffffffffffffffffffffffffff1673ffffffffffffffffffffffffffffffffffffffff16815260200190815260200160002060010160009054906101000a900460ff161515148015620017c457506000607060080160008573ffffffffffffffffffffffffffffffffffffffff1673ffffffffffffffffffffffffffffffffffffffff16815260200190815260200160002054145b8015620017eb57506000607060070160008681526020019081526020016000206002015414155b1562001a0d5760016070600701600086815260200190815260200160002060030160008573ffffffffffffffffffffffffffffffffffffffff1673ffffffffffffffffffffffffffffffffffffffff16815260200190815260200160002060010160006101000a81548160ff02191690831515021790555083607060080160008573ffffffffffffffffffffffffffffffffffffffff1673ffffffffffffffffffffffffffffffffffffffff16815260200190815260200160002081905550607060060173__DoublyLinkedList______________________639682eb12909186600102866040518463ffffffff167c01000000000000000000000000000000000000000000000000000000000281526004018084815260200183600019166000191681526020018273ffffffffffffffffffffffffffffffffffffffff1673ffffffffffffffffffffffffffffffffffffffff168152602001935050505060206040518083038186803b1580156200196357600080fd5b505af415801562001978573d6000803e3d6000fd5b505050506040513d60208110156200198f57600080fd5b810190808051906020019092919050505050816070600701600086815260200190815260200160002060030160008573ffffffffffffffffffffffffffffffffffffffff1673ffffffffffffffffffffffffffffffffffffffff16815260200190815260200160002060000181600019169055506001905062001a12565b600090505b9392505050565b600060706009016000838152602001908152602001600020549050919050565b6122118062001a496000396000f300608060405260043610610149576000357c0100000000000000000000000000000000000000000000000000000000900463ffffffff16806304f3bcec1461014e57806307ded7c0146101a55780631d8b86b41461020057806320a4c22d1461022b57806327d0055914610256578063339f38b6146102a957806338eeb187146102f25780633943380c1461036357806339d20a5f146103965780633f83acff146104035780634a9aedc41461047457806350c7e73b146104cf5780635dcea2cf14610540578063657dcf0b146105a85780638a05cbe61461060e578063a04e0dce14610669578063ba16cfc7146106dc578063c31d02b214610707578063c32bebb51461075e578063c97f5104146107c4578063db4ecbc114610855578063dbee9e5b146108ac578063e17078c3146108f1578063eae2083f14610932578063ee9589aa146109c3575b600080fd5b34801561015a57600080fd5b50610163610a04565b604051808273ffffffffffffffffffffffffffffffffffffffff1673ffffffffffffffffffffffffffffffffffffffff16815260200191505060405180910390f35b3480156101b157600080fd5b506101fe600480360381019080803573ffffffffffffffffffffffffffffffffffffffff169060200190929190803560001916906020019092919080359060200190929190505050610a29565b005b34801561020c57600080fd5b50610215610ad6565b6040518082815260200191505060405180910390f35b34801561023757600080fd5b50610240610aea565b6040518082815260200191505060405180910390f35b34801561026257600080fd5b5061028f600480360381019080803590602001909291908035600019169060200190929190505050610afe565b604051808215151515815260200191505060405180910390f35b3480156102b557600080fd5b506102d460048036038101908080359060200190929190505050610b34565b60405180826000191660001916815260200191505060405180910390f35b3480156102fe57600080fd5b506103216004803603810190808035600019169060200190929190505050610b54565b604051808273ffffffffffffffffffffffffffffffffffffffff1673ffffffffffffffffffffffffffffffffffffffff16815260200191505060405180910390f35b34801561036f57600080fd5b50610378610b6b565b60405180826000191660001916815260200191505060405180910390f35b3480156103a257600080fd5b506103d7600480360381019080803573ffffffffffffffffffffffffffffffffffffffff169060200190929190505050610b71565b604051808481526020018381526020018260001916600019168152602001935050505060405180910390f35b34801561040f57600080fd5b506104326004803603810190808035600019169060200190929190505050610c3a565b604051808273ffffffffffffffffffffffffffffffffffffffff1673ffffffffffffffffffffffffffffffffffffffff16815260200191505060405180910390f35b34801561048057600080fd5b506104b5600480360381019080803573ffffffffffffffffffffffffffffffffffffffff169060200190929190505050610d16565b604051808215151515815260200191505060405180910390f35b3480156104db57600080fd5b506104fe6004803603810190808035600019169060200190929190505050610d33565b604051808273ffffffffffffffffffffffffffffffffffffffff1673ffffffffffffffffffffffffffffffffffffffff16815260200191505060405180910390f35b34801561054c57600080fd5b506105876004803603810190808035906020019092919080356000191690602001909291908035600019169060200190929190505050610d4a565b60405180831515151581526020018281526020019250505060405180910390f35b3480156105b457600080fd5b506105d360048036038101908080359060200190929190505050610d8a565b604051808581526020018460001916600019168152602001836000191660001916815260200182815260200194505050505060405180910390f35b34801561061a57600080fd5b5061064f600480360381019080803573ffffffffffffffffffffffffffffffffffffffff169060200190929190505050610eec565b604051808215151515815260200191505060405180910390f35b34801561067557600080fd5b506106c260048036038101908080359060200190929190803573ffffffffffffffffffffffffffffffffffffffff1690602001909291908035600019169060200190929190505050610f20565b604051808215151515815260200191505060405180910390f35b3480156106e857600080fd5b506106f1610f58565b6040518082815260200191505060405180910390f35b34801561071357600080fd5b50610748600480360381019080803573ffffffffffffffffffffffffffffffffffffffff169060200190929190505050610f6c565b6040518082815260200191505060405180910390f35b34801561076a57600080fd5b5061079f600480360381019080803573ffffffffffffffffffffffffffffffffffffffff169060200190929190505050610fd6565b6040518083600019166000191681526020018281526020019250505060405180910390f35b3480156107d057600080fd5b506108136004803603810190808035600019169060200190929190803573ffffffffffffffffffffffffffffffffffffffff169060200190929190505050611068565b604051808273ffffffffffffffffffffffffffffffffffffffff1673ffffffffffffffffffffffffffffffffffffffff16815260200191505060405180910390f35b34801561086157600080fd5b5061086a611081565b604051808273ffffffffffffffffffffffffffffffffffffffff1673ffffffffffffffffffffffffffffffffffffffff16815260200191505060405180910390f35b3480156108b857600080fd5b506108db60048036038101908080356000191690602001909291905050506110a7565b6040518082815260200191505060405180910390f35b3480156108fd57600080fd5b5061091c600480360381019080803590602001909291905050506110be565b6040518082815260200191505060405180910390f35b34801561093e57600080fd5b506109816004803603810190808035600019169060200190929190803573ffffffffffffffffffffffffffffffffffffffff1690602001909291905050506110d5565b604051808273ffffffffffffffffffffffffffffffffffffffff1673ffffffffffffffffffffffffffffffffffffffff16815260200191505060405180910390f35b3480156109cf57600080fd5b506109ee600480360381019080803590602001909291905050506110ee565b6040518082815260200191505060405180910390f35b6000809054906101000a900473ffffffffffffffffffffffffffffffffffffffff1681565b610a34601a54611105565b1515610a3f57600080fd5b81607c60008573ffffffffffffffffffffffffffffffffffffffff1673ffffffffffffffffffffffffffffffffffffffff168152602001908152602001600020600001816000191690555080607c60008573ffffffffffffffffffffffffffffffffffffffff1673ffffffffffffffffffffffffffffffffffffffff16815260200190815260200160002060010181905550505050565b6000610ae5607060000161120f565b905090565b6000610af960706000016112c0565b905090565b6000610b0b601a54611105565b1515610b1657600080fd5b610b208383611371565b9050801515610b2e57600080fd5b92915050565b600060706009016000838152602001908152602001600020549050919050565b6000610b646070600601836113c5565b9050919050565b60015481565b6000806000607060080160008573ffffffffffffffffffffffffffffffffffffffff1673ffffffffffffffffffffffffffffffffffffffff168152602001908152602001600020549250607060070160008481526020019081526020016000206002015491506070600701600084815260200190815260200160002060030160008573ffffffffffffffffffffffffffffffffffffffff1673ffffffffffffffffffffffffffffffffffffffff1681526020019081526020016000206000015490509193909250565b60008060009054906101000a900473ffffffffffffffffffffffffffffffffffffffff1673ffffffffffffffffffffffffffffffffffffffff16633f83acff836040518263ffffffff167c0100000000000000000000000000000000000000000000000000000000028152600401808260001916600019168152602001915050602060405180830381600087803b158015610cd457600080fd5b505af1158015610ce8573d6000803e3d6000fd5b505050506040513d6020811015610cfe57600080fd5b81019080805190602001909291905050509050919050565b600080610d2283610fd6565b905080915050428111915050919050565b6000610d43607060060183611487565b9050919050565b600080610d58601a54611105565b1515610d6357600080fd5b610d6e858585611549565b8092508193505050811515610d8257600080fd5b935093915050565b600080600080607060000173__DoublyLinkedList______________________639500c08e9091876040518363ffffffff167c0100000000000000000000000000000000000000000000000000000000028152600401808381526020018281526020019250505060206040518083038186803b158015610e0957600080fd5b505af4158015610e1d573d6000803e3d6000fd5b505050506040513d6020811015610e3357600080fd5b810190808051906020019092919050505015610eb557607060070160008681526020019081526020016000206002015493506070600701600086815260200190815260200160002060000154925060706007016000868152602001908152602001600020600101549150610eae6070600601866001026116b5565b9050610ee5565b600093507f696e76616c696400000000000000000000000000000000000000000000000000925060009150600090505b9193509193565b6000610ef9601a54611105565b1515610f0457600080fd5b610f0d82611777565b9050801515610f1b57600080fd5b919050565b6000610f2d601a54611105565b1515610f3857600080fd5b610f43848484611ac6565b9050801515610f5157600080fd5b9392505050565b6000610f676070600001611dd2565b905090565b600080607060080160008473ffffffffffffffffffffffffffffffffffffffff1673ffffffffffffffffffffffffffffffffffffffff1681526020019081526020016000205490506070600701600082815260200190815260200160002060020154915050919050565b600080607c60008473ffffffffffffffffffffffffffffffffffffffff1673ffffffffffffffffffffffffffffffffffffffff168152602001908152602001600020600001549150607c60008473ffffffffffffffffffffffffffffffffffffffff1673ffffffffffffffffffffffffffffffffffffffff168152602001908152602001600020600101549050915091565b600061107960706006018484611e83565b905092915050565b600260009054906101000a900473ffffffffffffffffffffffffffffffffffffffff1681565b60006110b76070600601836116b5565b9050919050565b60006110ce607060000183611f7a565b9050919050565b60006110e660706006018484612034565b905092915050565b60006110fe60706000018361212b565b9050919050565b60008060009054906101000a900473ffffffffffffffffffffffffffffffffffffffff1673ffffffffffffffffffffffffffffffffffffffff16633f83acff836040518263ffffffff167c0100000000000000000000000000000000000000000000000000000000028152600401808260001916600019168152602001915050602060405180830381600087803b15801561119f57600080fd5b505af11580156111b3573d6000803e3d6000fd5b505050506040513d60208110156111c957600080fd5b810190808051906020019092919050505073ffffffffffffffffffffffffffffffffffffffff163373ffffffffffffffffffffffffffffffffffffffff16149050919050565b60008173__DoublyLinkedList______________________631240ff5a90916040518263ffffffff167c01000000000000000000000000000000000000000000000000000000000281526004018082815260200191505060206040518083038186803b15801561127e57600080fd5b505af4158015611292573d6000803e3d6000fd5b505050506040513d60208110156112a857600080fd5b81019080805190602001909291905050509050919050565b60008173__DoublyLinkedList______________________633ae6974290916040518263ffffffff167c01000000000000000000000000000000000000000000000000000000000281526004018082815260200191505060206040518083038186803b15801561132f57600080fd5b505af4158015611343573d6000803e3d6000fd5b505050506040513d602081101561135957600080fd5b81019080805190602001909291905050509050919050565b6000808311151561138157600080fd5b60006001026000191682600019161415151561139c57600080fd5b816070600901600085815260200190815260200160002081600019169055506001905092915050565b60008273__DoublyLinkedList______________________63b0c29efb9091846040518363ffffffff167c01000000000000000000000000000000000000000000000000000000000281526004018083815260200182600019166000191681526020019250505060206040518083038186803b15801561144457600080fd5b505af4158015611458573d6000803e3d6000fd5b505050506040513d602081101561146e57600080fd5b8101908080519060200190929190505050905092915050565b60008273__DoublyLinkedList______________________63c501bf569091846040518363ffffffff167c01000000000000000000000000000000000000000000000000000000000281526004018083815260200182600019166000191681526020019250505060206040518083038186803b15801561150657600080fd5b505af415801561151a573d6000803e3d6000fd5b505050506040513d602081101561153057600080fd5b8101908080519060200190929190505050905092915050565b60008060008511151561155b57600080fd5b60006001026000191661156d86610b34565b600019161415151561157e57600080fd5b6070600b01600081546001019190508190559050607060000173__DoublyLinkedList______________________63d372d5f69091836040518363ffffffff167c0100000000000000000000000000000000000000000000000000000000028152600401808381526020018281526020019250505060206040518083038186803b15801561160b57600080fd5b505af415801561161f573d6000803e3d6000fd5b505050506040513d602081101561163557600080fd5b810190808051906020019092919050505050846070600701600083815260200190815260200160002060020181905550836070600701600083815260200190815260200160002060000181600019169055508260706007016000838152602001908152602001600020600101816000191690555060019150935093915050565b60008273__DoublyLinkedList______________________6355a0a1bf9091846040518363ffffffff167c01000000000000000000000000000000000000000000000000000000000281526004018083815260200182600019166000191681526020019250505060206040518083038186803b15801561173457600080fd5b505af4158015611748573d6000803e3d6000fd5b505050506040513d602081101561175e57600080fd5b8101908080519060200190929190505050905092915050565b600080607060080160008473ffffffffffffffffffffffffffffffffffffffff1673ffffffffffffffffffffffffffffffffffffffff16815260200190815260200160002054905060018114801561188d57506001607060060173__DoublyLinkedList______________________6355a0a1bf9091846001026040518363ffffffff167c01000000000000000000000000000000000000000000000000000000000281526004018083815260200182600019166000191681526020019250505060206040518083038186803b15801561185057600080fd5b505af4158015611864573d6000803e3d6000fd5b505050506040513d602081101561187a57600080fd5b8101908080519060200190929190505050145b1561189b5760009150611ac0565b60006070600701600083815260200190815260200160002060030160008573ffffffffffffffffffffffffffffffffffffffff1673ffffffffffffffffffffffffffffffffffffffff16815260200190815260200160002060010160006101000a81548160ff0219169083151502179055506000607060080160008573ffffffffffffffffffffffffffffffffffffffff1673ffffffffffffffffffffffffffffffffffffffff168152602001908152602001600020819055506070600701600082815260200190815260200160002060030160008473ffffffffffffffffffffffffffffffffffffffff1673ffffffffffffffffffffffffffffffffffffffff1681526020019081526020016000206000808201600090556001820160006101000a81549060ff02191690555050607060060173__DoublyLinkedList______________________63b598c31a909183600102866040518463ffffffff167c01000000000000000000000000000000000000000000000000000000000281526004018084815260200183600019166000191681526020018273ffffffffffffffffffffffffffffffffffffffff1673ffffffffffffffffffffffffffffffffffffffff168152602001935050505060206040518083038186803b158015611a8257600080fd5b505af4158015611a96573d6000803e3d6000fd5b505050506040513d6020811015611aac57600080fd5b810190808051906020019092919050505091505b50919050565b60008015156070600701600086815260200190815260200160002060030160008573ffffffffffffffffffffffffffffffffffffffff1673ffffffffffffffffffffffffffffffffffffffff16815260200190815260200160002060010160009054906101000a900460ff161515148015611b8357506000607060080160008573ffffffffffffffffffffffffffffffffffffffff1673ffffffffffffffffffffffffffffffffffffffff16815260200190815260200160002054145b8015611ba957506000607060070160008681526020019081526020016000206002015414155b15611dc65760016070600701600086815260200190815260200160002060030160008573ffffffffffffffffffffffffffffffffffffffff1673ffffffffffffffffffffffffffffffffffffffff16815260200190815260200160002060010160006101000a81548160ff02191690831515021790555083607060080160008573ffffffffffffffffffffffffffffffffffffffff1673ffffffffffffffffffffffffffffffffffffffff16815260200190815260200160002081905550607060060173__DoublyLinkedList______________________639682eb12909186600102866040518463ffffffff167c01000000000000000000000000000000000000000000000000000000000281526004018084815260200183600019166000191681526020018273ffffffffffffffffffffffffffffffffffffffff1673ffffffffffffffffffffffffffffffffffffffff168152602001935050505060206040518083038186803b158015611d1f57600080fd5b505af4158015611d33573d6000803e3d6000fd5b505050506040513d6020811015611d4957600080fd5b810190808051906020019092919050505050816070600701600086815260200190815260200160002060030160008573ffffffffffffffffffffffffffffffffffffffff1673ffffffffffffffffffffffffffffffffffffffff168152602001908152602001600020600001816000191690555060019050611dcb565b600090505b9392505050565b60008173__DoublyLinkedList______________________635e0d4aa990916040518263ffffffff167c01000000000000000000000000000000000000000000000000000000000281526004018082815260200191505060206040518083038186803b158015611e4157600080fd5b505af4158015611e55573d6000803e3d6000fd5b505050506040513d6020811015611e6b57600080fd5b81019080805190602001909291905050509050919050565b60008373__DoublyLinkedList______________________6320482030909185856040518463ffffffff167c01000000000000000000000000000000000000000000000000000000000281526004018084815260200183600019166000191681526020018273ffffffffffffffffffffffffffffffffffffffff1673ffffffffffffffffffffffffffffffffffffffff168152602001935050505060206040518083038186803b158015611f3657600080fd5b505af4158015611f4a573d6000803e3d6000fd5b505050506040513d6020811015611f6057600080fd5b810190808051906020019092919050505090509392505050565b60008273__DoublyLinkedList______________________6340c6bb189091846040518363ffffffff167c0100000000000000000000000000000000000000000000000000000000028152600401808381526020018281526020019250505060206040518083038186803b158015611ff157600080fd5b505af4158015612005573d6000803e3d6000fd5b505050506040513d602081101561201b57600080fd5b8101908080519060200190929190505050905092915050565b60008373__DoublyLinkedList______________________63675a4ef0909185856040518463ffffffff167c01000000000000000000000000000000000000000000000000000000000281526004018084815260200183600019166000191681526020018273ffffffffffffffffffffffffffffffffffffffff1673ffffffffffffffffffffffffffffffffffffffff168152602001935050505060206040518083038186803b1580156120e757600080fd5b505af41580156120fb573d6000803e3d6000fd5b505050506040513d602081101561211157600080fd5b810190808051906020019092919050505090509392505050565b60008273__DoublyLinkedList______________________63ec40b8979091846040518363ffffffff167c0100000000000000000000000000000000000000000000000000000000028152600401808381526020018281526020019250505060206040518083038186803b1580156121a257600080fd5b505af41580156121b6573d6000803e3d6000fd5b505050506040513d60208110156121cc57600080fd5b81019080805190602001909291905050509050929150505600a165627a7a72305820008537bb3bf054e9c90b7e32321aa3c5c2e1119b559b679961672d1e2786d07f0029",
  "source": "pragma solidity ^0.4.25;\n\nimport \"@digix/cacp-contracts-dao/contracts/ResolverClient.sol\";\nimport \"@digix/cdap/contracts/storage/DirectoryStorage.sol\";\nimport \"../common/DaoConstants.sol\";\n\ncontract DaoIdentityStorage is ResolverClient, DaoConstants, DirectoryStorage {\n\n    // struct for KYC details\n    // doc is the IPFS doc hash for any information regarding this KYC\n    // id_expiration is the UTC timestamp at which this KYC will expire\n    // at any time after this, the user's KYC is invalid, and that user\n    // MUST re-KYC before doing any proposer related operation in DigixDAO\n    struct KycDetails {\n        bytes32 doc;\n        uint256 id_expiration;\n    }\n\n    // a mapping of address to the KYC details\n    mapping (address => KycDetails) kycInfo;\n\n    constructor(address _resolver)\n        public\n    {\n        require(init(CONTRACT_STORAGE_DAO_IDENTITY, _resolver));\n        require(initialize_directory());\n    }\n\n    function create_group(uint256 _role_id, bytes32 _name, bytes32 _document)\n        public\n        returns (bool _success, uint256 _group_id)\n    {\n        require(sender_is(CONTRACT_DAO_IDENTITY));\n        (_success, _group_id) = internal_create_group(_role_id, _name, _document);\n        require(_success);\n    }\n\n    function create_role(uint256 _role_id, bytes32 _name)\n        public\n        returns (bool _success)\n    {\n        require(sender_is(CONTRACT_DAO_IDENTITY));\n        _success = internal_create_role(_role_id, _name);\n        require(_success);\n    }\n\n    function update_add_user_to_group(uint256 _group_id, address _user, bytes32 _document)\n        public\n        returns (bool _success)\n    {\n        require(sender_is(CONTRACT_DAO_IDENTITY));\n        _success = internal_update_add_user_to_group(_group_id, _user, _document);\n        require(_success);\n    }\n\n    function update_remove_group_user(address _user)\n        public\n        returns (bool _success)\n    {\n        require(sender_is(CONTRACT_DAO_IDENTITY));\n        _success = internal_destroy_group_user(_user);\n        require(_success);\n    }\n\n    function update_kyc(address _user, bytes32 _doc, uint256 _id_expiration)\n        public\n    {\n        require(sender_is(CONTRACT_DAO_IDENTITY));\n        kycInfo[_user].doc = _doc;\n        kycInfo[_user].id_expiration = _id_expiration;\n    }\n\n    function read_kyc_info(address _user)\n        public\n        view\n        returns (bytes32 _doc, uint256 _id_expiration)\n    {\n        _doc = kycInfo[_user].doc;\n        _id_expiration = kycInfo[_user].id_expiration;\n    }\n\n    function is_kyc_approved(address _user)\n        public\n        view\n        returns (bool _approved)\n    {\n        uint256 _id_expiration;\n        (,_id_expiration) = read_kyc_info(_user);\n        _approved = _id_expiration > now;\n    }\n}\n",
  "sourcePath": "/home/vu/digix/dao-contracts/contracts/storage/DaoIdentityStorage.sol",
  "compiler": {
    "name": "solc",
    "version": "0.4.25+commit.59dbf8f1.Emscripten.clang"
  },
  "schemaVersion": "2.0.2",
  "updatedAt": "2019-03-29T02:24:39.638Z"
}