{
  "contractName": "DaoIdentity",
  "abi": [
    {
      "constant": true,
      "inputs": [],
      "name": "resolver",
      "outputs": [
        {
          "name": "",
          "type": "address"
        }
      ],
      "payable": false,
      "stateMutability": "view",
      "type": "function"
    },
    {
      "constant": true,
      "inputs": [],
      "name": "key",
      "outputs": [
        {
          "name": "",
          "type": "bytes32"
        }
      ],
      "payable": false,
      "stateMutability": "view",
      "type": "function"
    },
    {
      "constant": true,
      "inputs": [
        {
          "name": "_key",
          "type": "bytes32"
        }
      ],
      "name": "get_contract",
      "outputs": [
        {
          "name": "_contract",
          "type": "address"
        }
      ],
      "payable": false,
      "stateMutability": "view",
      "type": "function"
    },
    {
      "constant": true,
      "inputs": [],
      "name": "CONTRACT_ADDRESS",
      "outputs": [
        {
          "name": "",
          "type": "address"
        }
      ],
      "payable": false,
      "stateMutability": "view",
      "type": "function"
    },
    {
      "inputs": [
        {
          "name": "_resolver",
          "type": "address"
        }
      ],
      "payable": false,
      "stateMutability": "nonpayable",
      "type": "constructor"
    },
    {
      "constant": false,
      "inputs": [
        {
          "name": "_group_id",
          "type": "uint256"
        },
        {
          "name": "_user",
          "type": "address"
        },
        {
          "name": "_doc",
          "type": "bytes32"
        }
      ],
      "name": "addGroupUser",
      "outputs": [],
      "payable": false,
      "stateMutability": "nonpayable",
      "type": "function"
    },
    {
      "constant": false,
      "inputs": [
        {
          "name": "_user",
          "type": "address"
        }
      ],
      "name": "removeGroupUser",
      "outputs": [],
      "payable": false,
      "stateMutability": "nonpayable",
      "type": "function"
    },
    {
      "constant": false,
      "inputs": [
        {
          "name": "_user",
          "type": "address"
        },
        {
          "name": "_doc",
          "type": "bytes32"
        },
        {
          "name": "_id_expiration",
          "type": "uint256"
        }
      ],
      "name": "updateKyc",
      "outputs": [],
      "payable": false,
      "stateMutability": "nonpayable",
      "type": "function"
    },
    {
      "constant": false,
      "inputs": [
        {
          "name": "_users",
          "type": "address[]"
        },
        {
          "name": "_docs",
          "type": "bytes32[]"
        },
        {
          "name": "_id_expirations",
          "type": "uint256[]"
        }
      ],
      "name": "bulkUpdateKyc",
      "outputs": [],
      "payable": false,
      "stateMutability": "nonpayable",
      "type": "function"
    }
  ],
  "bytecode": "0x608060405260006001026003906000191690556000600460006101000a81548173ffffffffffffffffffffffffffffffffffffffff021916908373ffffffffffffffffffffffffffffffffffffffff1602179055507f70726f706f73616c5f73746174655f70726570726f706f73616c0000000000006005906000191690557f70726f706f73616c5f73746174655f64726166740000000000000000000000006006906000191690557f70726f706f73616c5f73746174655f6d6f6465726174656400000000000000006007906000191690557f70726f706f73616c5f73746174655f6f6e676f696e67000000000000000000006008906000191690557f70726f706f73616c5f73746174655f636c6f73656400000000000000000000006009906000191690557f70726f706f73616c5f73746174655f6172636869766564000000000000000000600a906000191690556001600b556002600c556003600d556001600e556002600f5560036010557f696e7465725f6467645f696400000000000000000000000000000000000000006011906000191690557f696e7465725f6d6f645f6467645f6964000000000000000000000000000000006012906000191690557f696e7465725f626f6e75735f63616c63756c6174696f6e5f69640000000000006013906000191690557f64616f00000000000000000000000000000000000000000000000000000000006014906000191690557f64616f3a7370656369616c3a70726f706f73616c0000000000000000000000006015906000191690557f64616f3a7374616b652d6c6f636b696e670000000000000000000000000000006016906000191690557f64616f3a766f74696e67000000000000000000000000000000000000000000006017906000191690557f64616f3a766f74696e673a636c61696d730000000000000000000000000000006018906000191690557f64616f3a73766f74696e673a636c61696d7300000000000000000000000000006019906000191690557f64616f3a6964656e746974790000000000000000000000000000000000000000601a906000191690557f64616f3a726577617264732d6d616e6167657200000000000000000000000000601b906000191690557f64616f3a726577617264732d6578747261730000000000000000000000000000601c906000191690557f64616f3a726f6c65730000000000000000000000000000000000000000000000601d906000191690557f64616f3a66756e64696e672d6d616e6167657200000000000000000000000000601e906000191690557f64616f3a77686974656c697374696e6700000000000000000000000000000000601f906000191690557f64616f3a696e666f726d6174696f6e00000000000000000000000000000000006020906000191690557f736572766963653a726f6c6500000000000000000000000000000000000000006021906000191690557f736572766963653a64616f3a696e666f000000000000000000000000000000006022906000191690557f736572766963653a64616f3a6c697374696e67000000000000000000000000006023906000191690557f736572766963653a64616f3a63616c63756c61746f72000000000000000000006024906000191690557f73746f726167653a64616f0000000000000000000000000000000000000000006025906000191690557f73746f726167653a64616f3a636f756e746572000000000000000000000000006026906000191690557f73746f726167653a64616f3a75706772616465000000000000000000000000006027906000191690557f73746f726167653a64616f3a6964656e746974790000000000000000000000006028906000191690557f73746f726167653a64616f3a706f696e747300000000000000000000000000006029906000191690557f73746f726167653a64616f3a7370656369616c00000000000000000000000000602a906000191690557f73746f726167653a64616f3a636f6e6669670000000000000000000000000000602b906000191690557f73746f726167653a64616f3a7374616b65000000000000000000000000000000602c906000191690557f73746f726167653a64616f3a7265776172647300000000000000000000000000602d906000191690557f73746f726167653a64616f3a77686974656c697374696e670000000000000000602e906000191690557f73746f726167653a696e7465726d6564696174653a726573756c747300000000602f906000191690557f743a6467640000000000000000000000000000000000000000000000000000006030906000191690557f743a6467780000000000000000000000000000000000000000000000000000006031906000191690557f743a6261646765000000000000000000000000000000000000000000000000006032906000191690556001603360006101000a81548160ff021916908360ff1602179055506002603360016101000a81548160ff021916908360ff1602179055506003603360026101000a81548160ff021916908360ff1602179055506004603360036101000a81548160ff021916908360ff1602179055506276a7006034557f6d696e5f6467645f7061727469636970616e74000000000000000000000000006035906000191690557f6d696e5f6467645f6d6f64657261746f720000000000000000000000000000006036906000191690557f6d696e5f72657075746174696f6e5f6d6f64657261746f7200000000000000006037906000191690557f6c6f636b696e675f70686173655f6475726174696f6e000000000000000000006038906000191690557f717561727465725f6475726174696f6e000000000000000000000000000000006039906000191690557f766f74696e675f636f6d6d69745f706861736500000000000000000000000000603a906000191690557f766f74696e675f70686173655f746f74616c0000000000000000000000000000603b906000191690557f696e746572696d5f766f74696e675f636f6d6d69745f70686173650000000000603c906000191690557f696e746572696d5f766f74696e675f70686173655f746f74616c000000000000603d906000191690557f64726166745f71756f72756d5f66697865645f6e756d657261746f7200000000603e906000191690557f64726166745f71756f72756d5f66697865645f64656e6f6d696e61746f720000603f906000191690557f64726166745f71756f72756d5f73666163746f725f6e756d657261746f7200006040906000191690557f64726166745f71756f72756d5f73666163746f725f64656e6f6d696e61746f726041906000191690557f766f74655f71756f72756d5f66697865645f6e756d657261746f7200000000006042906000191690557f766f74655f71756f72756d5f66697865645f64656e6f6d696e61746f720000006043906000191690557f766f74655f71756f72756d5f73666163746f725f6e756d657261746f720000006044906000191690557f766f74655f71756f72756d5f73666163746f725f64656e6f6d696e61746f72006045906000191690557f66696e616c5f7265776172645f73666163746f725f6e756d657261746f7200006046906000191690557f66696e616c5f7265776172645f73666163746f725f64656e6f6d696e61746f726047906000191690557f64726166745f71756f74615f6e756d657261746f7200000000000000000000006048906000191690557f64726166745f71756f74615f64656e6f6d696e61746f720000000000000000006049906000191690557f766f74696e675f71756f74615f6e756d657261746f7200000000000000000000604a906000191690557f766f74696e675f71756f74615f64656e6f6d696e61746f720000000000000000604b906000191690557f6d696e696d616c5f717000000000000000000000000000000000000000000000604c906000191690557f717561727465725f706f696e745f7363616c696e675f666163746f7200000000604d906000191690557f7265705f706f696e745f7363616c696e675f666163746f720000000000000000604e906000191690557f6d696e696d616c5f6d6f645f7170000000000000000000000000000000000000604f906000191690557f6d6f645f71705f7363616c696e675f666163746f7200000000000000000000006050906000191690557f6d6f645f7265705f706f696e745f7363616c696e675f666163746f72000000006051906000191690557f717561727465725f706f696e745f64726166745f766f746500000000000000006052906000191690557f717561727465725f706f696e745f766f746500000000000000000000000000006053906000191690557f717561727465725f706f696e745f696e746572696d5f766f74650000000000006054906000191690557f715f705f6d696c6573746f6e655f636f6d706c6574696f6e00000000000000006055906000191690557f626f6e75735f72657075746174696f6e5f6e756d657261746f720000000000006056906000191690557f626f6e75735f72657075746174696f6e5f64656e6f6d696e61746f72000000006057906000191690557f7370656369616c5f70726f706f73616c5f636f6d6d69745f70686173650000006058906000191690557f7370656369616c5f70726f706f73616c5f70686173655f746f74616c000000006059906000191690557f636f6e6669675f7370656369616c5f71756f74615f6e756d657261746f720000605a906000191690557f636f6e6669675f7370656369616c5f71756f74615f64656e6f6d696e61746f72605b906000191690557f7370656369616c5f71756f72756d5f6e756d657261746f720000000000000000605c906000191690557f7370656369616c5f71756f72756d5f64656e6f6d696e61746f72000000000000605d906000191690557f636f6e6669675f6d61785f72657075746174696f6e5f646564756374696f6e00605e906000191690557f636f6e6669675f70756e6973686d656e745f6e6f745f6c6f636b696e67000000605f906000191690557f636f6e6669675f7265705f7065725f65787472615f71705f6e756d00000000006060906000191690557f636f6e6669675f7265705f7065725f65787472615f71705f64656e00000000006061906000191690557f636f6e6669675f6d61785f6d5f72705f646564756374696f6e000000000000006062906000191690557f636f6e6669675f7265705f7065725f65787472615f6d5f71705f6e756d0000006063906000191690557f636f6e6669675f7265705f7065725f65787472615f6d5f71705f64656e0000006064906000191690557f636f6e6669675f6d6f645f706f7274696f6e5f6e756d000000000000000000006065906000191690557f636f6e6669675f6d6f645f706f7274696f6e5f64656e000000000000000000006066906000191690557f636f6e6669675f64726166745f766f74696e675f7068617365000000000000006067906000191690557f636f6e6669675f72705f626f6f73745f7065725f6261646765000000000000006068906000191690557f636f6e6669675f636c61696d696e675f646561646c696e6500000000000000006069906000191690557f636f6e6669675f70726570726f706f73616c5f636f6c6c61746572616c000000606a906000191690557f636f6e6669675f6d61785f66756e64696e675f6e6f6e44696769780000000000606b906000191690557f636f6e6669675f6d61785f6d696c6573746f6e65735f6e6f6e44696769780000606c906000191690557f636f6e6669675f6e6f6e44696769785f70726f706f73616c5f63617000000000606d906000191690557f636f6e6669675f646561645f6475726174696f6e000000000000000000000000606e906000191690557f636f6e6669675f63765f72657075746174696f6e000000000000000000000000606f906000191690553480156200113457600080fd5b50604051602080620027478339810180604052810190808051906020019092919050505062001175601a5482620017af640100000000026401000000009004565b15156200118157600080fd5b6200119a62001a40640100000000026401000000009004565b73ffffffffffffffffffffffffffffffffffffffff166327d00559603360019054906101000a900460ff166040518263ffffffff167c0100000000000000000000000000000000000000000000000000000000028152600401808260ff168152602001807f666f756e64657273000000000000000000000000000000000000000000000000815250602001915050602060405180830381600087803b1580156200124357600080fd5b505af115801562001258573d6000803e3d6000fd5b505050506040513d60208110156200126f57600080fd5b8101908080519060200190929190505050506200129a62001a40640100000000026401000000009004565b73ffffffffffffffffffffffffffffffffffffffff166327d00559603360029054906101000a900460ff166040518263ffffffff167c0100000000000000000000000000000000000000000000000000000000028152600401808260ff168152602001807f70726c7300000000000000000000000000000000000000000000000000000000815250602001915050602060405180830381600087803b1580156200134357600080fd5b505af115801562001358573d6000803e3d6000fd5b505050506040513d60208110156200136f57600080fd5b8101908080519060200190929190505050506200139a62001a40640100000000026401000000009004565b73ffffffffffffffffffffffffffffffffffffffff166327d00559603360039054906101000a900460ff166040518263ffffffff167c0100000000000000000000000000000000000000000000000000000000028152600401808260ff168152602001807f6b796361646d696e730000000000000000000000000000000000000000000000815250602001915050602060405180830381600087803b1580156200144357600080fd5b505af115801562001458573d6000803e3d6000fd5b505050506040513d60208110156200146f57600080fd5b8101908080519060200190929190505050506200149a62001a40640100000000026401000000009004565b73ffffffffffffffffffffffffffffffffffffffff16635dcea2cf603360019054906101000a900460ff166040518263ffffffff167c0100000000000000000000000000000000000000000000000000000000028152600401808260ff168152602001807f666f756e646572735f67726f75700000000000000000000000000000000000008152506020016020019150506040805180830381600087803b1580156200154557600080fd5b505af11580156200155a573d6000803e3d6000fd5b505050506040513d60408110156200157157600080fd5b8101908080519060200190929190805190602001909291905050505050620015a762001a40640100000000026401000000009004565b73ffffffffffffffffffffffffffffffffffffffff16635dcea2cf603360029054906101000a900460ff166040518263ffffffff167c0100000000000000000000000000000000000000000000000000000000028152600401808260ff168152602001807f70726c735f67726f7570000000000000000000000000000000000000000000008152506020016020019150506040805180830381600087803b1580156200165257600080fd5b505af115801562001667573d6000803e3d6000fd5b505050506040513d60408110156200167e57600080fd5b8101908080519060200190929190805190602001909291905050505050620016b462001a40640100000000026401000000009004565b73ffffffffffffffffffffffffffffffffffffffff16635dcea2cf603360039054906101000a900460ff166040518263ffffffff167c0100000000000000000000000000000000000000000000000000000000028152600401808260ff168152602001807f6b796361646d696e735f67726f757000000000000000000000000000000000008152506020016020019150506040805180830381600087803b1580156200175f57600080fd5b505af115801562001774573d6000803e3d6000fd5b505050506040513d60408110156200178b57600080fd5b81019080805190602001909291908051906020019092919050505050505062001b42565b6000808273ffffffffffffffffffffffffffffffffffffffff16636d19a8826040518163ffffffff167c0100000000000000000000000000000000000000000000000000000000028152600401602060405180830381600087803b1580156200181757600080fd5b505af11580156200182c573d6000803e3d6000fd5b505050506040513d60208110156200184357600080fd5b8101908080519060200190929190505050905060001515811515141562001a345730600260006101000a81548173ffffffffffffffffffffffffffffffffffffffff021916908373ffffffffffffffffffffffffffffffffffffffff160217905550826000806101000a81548173ffffffffffffffffffffffffffffffffffffffff021916908373ffffffffffffffffffffffffffffffffffffffff16021790555083600181600019169055506000809054906101000a900473ffffffffffffffffffffffffffffffffffffffff1673ffffffffffffffffffffffffffffffffffffffff1663c0f6ef4a600154600260009054906101000a900473ffffffffffffffffffffffffffffffffffffffff166040518363ffffffff167c01000000000000000000000000000000000000000000000000000000000281526004018083600019166000191681526020018273ffffffffffffffffffffffffffffffffffffffff1673ffffffffffffffffffffffffffffffffffffffff16815260200192505050602060405180830381600087803b158015620019e157600080fd5b505af1158015620019f6573d6000803e3d6000fd5b505050506040513d602081101562001a0d57600080fd5b8101908080519060200190929190505050151562001a2a57600080fd5b6001915062001a39565b600091505b5092915050565b600062001a5e60285462001a63640100000000026401000000009004565b905090565b60008060009054906101000a900473ffffffffffffffffffffffffffffffffffffffff1673ffffffffffffffffffffffffffffffffffffffff16633f83acff836040518263ffffffff167c0100000000000000000000000000000000000000000000000000000000028152600401808260001916600019168152602001915050602060405180830381600087803b15801562001afe57600080fd5b505af115801562001b13573d6000803e3d6000fd5b505050506040513d602081101562001b2a57600080fd5b81019080805190602001909291905050509050919050565b610bf58062001b526000396000f30060806040526004361061008e576000357c0100000000000000000000000000000000000000000000000000000000900463ffffffff16806304f3bcec146100935780633943380c146100ea5780633f83acff1461011d578063737988e31461018e578063944ae971146101e9578063c86ee92514610244578063cb73835314610287578063db4ecbc1146102f2575b600080fd5b34801561009f57600080fd5b506100a8610349565b604051808273ffffffffffffffffffffffffffffffffffffffff1673ffffffffffffffffffffffffffffffffffffffff16815260200191505060405180910390f35b3480156100f657600080fd5b506100ff61036e565b60405180826000191660001916815260200191505060405180910390f35b34801561012957600080fd5b5061014c6004803603810190808035600019169060200190929190505050610374565b604051808273ffffffffffffffffffffffffffffffffffffffff1673ffffffffffffffffffffffffffffffffffffffff16815260200191505060405180910390f35b34801561019a57600080fd5b506101e760048036038101908080359060200190929190803573ffffffffffffffffffffffffffffffffffffffff1690602001909291908035600019169060200190929190505050610450565b005b3480156101f557600080fd5b50610242600480360381019080803573ffffffffffffffffffffffffffffffffffffffff169060200190929190803560001916906020019092919080359060200190929190505050610647565b005b34801561025057600080fd5b50610285600480360381019080803573ffffffffffffffffffffffffffffffffffffffff169060200190929190505050610753565b005b34801561029357600080fd5b506102f0600480360381019080803590602001908201803590602001919091929391929390803590602001908201803590602001919091929391929390803590602001908201803590602001919091929391929390505050610930565b005b3480156102fe57600080fd5b50610307610aba565b604051808273ffffffffffffffffffffffffffffffffffffffff1673ffffffffffffffffffffffffffffffffffffffff16815260200191505060405180910390f35b6000809054906101000a900473ffffffffffffffffffffffffffffffffffffffff1681565b60015481565b60008060009054906101000a900473ffffffffffffffffffffffffffffffffffffffff1673ffffffffffffffffffffffffffffffffffffffff16633f83acff836040518263ffffffff167c0100000000000000000000000000000000000000000000000000000000028152600401808260001916600019168152602001915050602060405180830381600087803b15801561040e57600080fd5b505af1158015610422573d6000803e3d6000fd5b505050506040513d602081101561043857600080fd5b81019080805190602001909291905050509050919050565b603360009054906101000a900460ff1660ff1661046b610ae0565b73ffffffffffffffffffffffffffffffffffffffff1663c31d02b2336040518263ffffffff167c0100000000000000000000000000000000000000000000000000000000028152600401808273ffffffffffffffffffffffffffffffffffffffff1673ffffffffffffffffffffffffffffffffffffffff168152602001915050602060405180830381600087803b15801561050557600080fd5b505af1158015610519573d6000803e3d6000fd5b505050506040513d602081101561052f57600080fd5b810190808051906020019092919050505014151561054c57600080fd5b610554610ae0565b73ffffffffffffffffffffffffffffffffffffffff1663a04e0dce8484846040518463ffffffff167c0100000000000000000000000000000000000000000000000000000000028152600401808481526020018373ffffffffffffffffffffffffffffffffffffffff1673ffffffffffffffffffffffffffffffffffffffff16815260200182600019166000191681526020019350505050602060405180830381600087803b15801561060657600080fd5b505af115801561061a573d6000803e3d6000fd5b505050506040513d602081101561063057600080fd5b810190808051906020019092919050505050505050565b603360039054906101000a900460ff1660ff16610662610ae0565b73ffffffffffffffffffffffffffffffffffffffff1663c31d02b2336040518263ffffffff167c0100000000000000000000000000000000000000000000000000000000028152600401808273ffffffffffffffffffffffffffffffffffffffff1673ffffffffffffffffffffffffffffffffffffffff168152602001915050602060405180830381600087803b1580156106fc57600080fd5b505af1158015610710573d6000803e3d6000fd5b505050506040513d602081101561072657600080fd5b810190808051906020019092919050505014151561074357600080fd5b61074e838383610af2565b505050565b603360009054906101000a900460ff1660ff1661076e610ae0565b73ffffffffffffffffffffffffffffffffffffffff1663c31d02b2336040518263ffffffff167c0100000000000000000000000000000000000000000000000000000000028152600401808273ffffffffffffffffffffffffffffffffffffffff1673ffffffffffffffffffffffffffffffffffffffff168152602001915050602060405180830381600087803b15801561080857600080fd5b505af115801561081c573d6000803e3d6000fd5b505050506040513d602081101561083257600080fd5b810190808051906020019092919050505014151561084f57600080fd5b610857610ae0565b73ffffffffffffffffffffffffffffffffffffffff16638a05cbe6826040518263ffffffff167c0100000000000000000000000000000000000000000000000000000000028152600401808273ffffffffffffffffffffffffffffffffffffffff1673ffffffffffffffffffffffffffffffffffffffff168152602001915050602060405180830381600087803b1580156108f157600080fd5b505af1158015610905573d6000803e3d6000fd5b505050506040513d602081101561091b57600080fd5b81019080805190602001909291905050505050565b600080603360039054906101000a900460ff1660ff1661094e610ae0565b73ffffffffffffffffffffffffffffffffffffffff1663c31d02b2336040518263ffffffff167c0100000000000000000000000000000000000000000000000000000000028152600401808273ffffffffffffffffffffffffffffffffffffffff1673ffffffffffffffffffffffffffffffffffffffff168152602001915050602060405180830381600087803b1580156109e857600080fd5b505af11580156109fc573d6000803e3d6000fd5b505050506040513d6020811015610a1257600080fd5b8101908080519060200190929190505050141515610a2f57600080fd5b878790509150600090505b81811015610ab057610aa38888838181101515610a5357fe5b9050602002013573ffffffffffffffffffffffffffffffffffffffff168787848181101515610a7e57fe5b90506020020135600019168686858181101515610a9757fe5b90506020020135610af2565b8080600101915050610a3a565b5050505050505050565b600260009054906101000a900473ffffffffffffffffffffffffffffffffffffffff1681565b6000610aed602854610374565b905090565b610afa610ae0565b73ffffffffffffffffffffffffffffffffffffffff166307ded7c08484846040518463ffffffff167c0100000000000000000000000000000000000000000000000000000000028152600401808473ffffffffffffffffffffffffffffffffffffffff1673ffffffffffffffffffffffffffffffffffffffff16815260200183600019166000191681526020018281526020019350505050600060405180830381600087803b158015610bac57600080fd5b505af1158015610bc0573d6000803e3d6000fd5b505050505050505600a165627a7a7230582076c87b3eea20f20035b77e32c68f3d9e0ff6b32ec9fb4490104c8c62cf7f835a0029",
  "source": "pragma solidity ^0.4.25;\n\nimport \"../storage/DaoIdentityStorage.sol\";\nimport \"../common/IdentityCommon.sol\";\n\n\n/**\n@title Contract to manage the admin roles in DAO (founders, prls, kyc admins)\n@author Digix Holdings\n*/\ncontract DaoIdentity is IdentityCommon {\n\n    /**\n    @notice Constructor (create initial roles, groups)\n    @param _resolver Address of Contract Resolver\n    */\n    constructor(address _resolver)\n        public\n    {\n        require(init(CONTRACT_DAO_IDENTITY, _resolver));\n        // create the three roles and the three corresponding groups\n        // the root role, and root group are already created, with only the contract deployer in it\n        // After deployment, the contract deployer will call addGroupUser to add a multi-sig to be another root\n        // The multi-sig will then call removeGroupUser to remove the contract deployer from root role\n        // From then on, the multi-sig will be the only root account\n        identity_storage().create_role(ROLES_FOUNDERS, \"founders\");\n        identity_storage().create_role(ROLES_PRLS, \"prls\");\n        identity_storage().create_role(ROLES_KYC_ADMINS, \"kycadmins\");\n        identity_storage().create_group(ROLES_FOUNDERS, \"founders_group\", \"\"); // group_id = 2\n        identity_storage().create_group(ROLES_PRLS, \"prls_group\", \"\"); // group_id = 3\n        identity_storage().create_group(ROLES_KYC_ADMINS, \"kycadmins_group\", \"\"); // group_id = 4\n    }\n\n    /**\n    @notice Function to add an address to a group (only root can call this function)\n    @param _group_id ID of the group to be added in\n    @param _user Ethereum address of the user\n    @param _doc hash of IPFS doc containing details of this user\n    */\n    function addGroupUser(uint256 _group_id, address _user, bytes32 _doc)\n        public\n        if_root()\n    {\n        identity_storage().update_add_user_to_group(_group_id, _user, _doc);\n    }\n\n    /**\n    @notice Function to remove a user from group (only root can call this)\n    @param _user Ethereum address of the user to be removed from their group\n    */\n    function removeGroupUser(address _user)\n        public\n        if_root()\n    {\n        identity_storage().update_remove_group_user(_user);\n    }\n\n    /**\n    @notice Function to update the KYC data of user (expiry data of valid KYC) (can only be called by the KYC ADMIN role)\n    @param _user Ethereum address of the user\n    @param _doc hash of the IPFS doc containing kyc information about this user\n    @param _id_expiration expiry date of the KYC\n    */\n    function updateKyc(address _user, bytes32 _doc, uint256 _id_expiration)\n        public\n        if_kyc_admin()\n    {\n        privateUpdateKyc(_user, _doc, _id_expiration);\n    }\n\n    /**\n    @notice Function to update the KYC data of multiple users (expiry data of valid KYC) (can only be called by the KYC ADMIN role)\n    @param _users Ethereum addresses of the users\n    @param _docs hashes of the IPFS docs containing kyc information about these users\n    @param _id_expirations expiry dates of the KYC docs for these users\n    */\n    function bulkUpdateKyc(address[] _users, bytes32[] _docs, uint256[] _id_expirations)\n        external\n        if_kyc_admin()\n    {\n        uint256 _n = _users.length;\n        for (uint256 _i = 0; _i < _n; _i++) {\n            privateUpdateKyc(_users[_i], _docs[_i], _id_expirations[_i]);\n        }\n    }\n\n    function privateUpdateKyc(address _user, bytes32 _doc, uint256 _id_expiration)\n        private\n    {\n        identity_storage().update_kyc(_user, _doc, _id_expiration);\n    }\n}\n",
  "sourcePath": "/home/rohit/Develop/dao-contracts/contracts/interactive/DaoIdentity.sol",
  "compiler": {
    "name": "solc",
    "version": "0.4.25+commit.59dbf8f1.Emscripten.clang"
  },
  "schemaVersion": "2.0.2",
  "updatedAt": "2019-03-18T09:32:27.625Z"
}