{
  "contractName": "DaoListingService",
  "abi": [
    {
      "constant": true,
      "inputs": [],
      "name": "resolver",
      "outputs": [
        {
          "name": "",
          "type": "address"
        }
      ],
      "payable": false,
      "stateMutability": "view",
      "type": "function"
    },
    {
      "constant": true,
      "inputs": [],
      "name": "key",
      "outputs": [
        {
          "name": "",
          "type": "bytes32"
        }
      ],
      "payable": false,
      "stateMutability": "view",
      "type": "function"
    },
    {
      "constant": true,
      "inputs": [
        {
          "name": "_key",
          "type": "bytes32"
        }
      ],
      "name": "get_contract",
      "outputs": [
        {
          "name": "_contract",
          "type": "address"
        }
      ],
      "payable": false,
      "stateMutability": "view",
      "type": "function"
    },
    {
      "constant": true,
      "inputs": [],
      "name": "CONTRACT_ADDRESS",
      "outputs": [
        {
          "name": "",
          "type": "address"
        }
      ],
      "payable": false,
      "stateMutability": "view",
      "type": "function"
    },
    {
      "inputs": [
        {
          "name": "_resolver",
          "type": "address"
        }
      ],
      "payable": false,
      "stateMutability": "nonpayable",
      "type": "constructor"
    },
    {
      "constant": true,
      "inputs": [
        {
          "name": "_count",
          "type": "uint256"
        },
        {
          "name": "_from_start",
          "type": "bool"
        }
      ],
      "name": "listModerators",
      "outputs": [
        {
          "name": "_moderators",
          "type": "address[]"
        }
      ],
      "payable": false,
      "stateMutability": "view",
      "type": "function"
    },
    {
      "constant": true,
      "inputs": [
        {
          "name": "_currentModerator",
          "type": "address"
        },
        {
          "name": "_count",
          "type": "uint256"
        },
        {
          "name": "_from_start",
          "type": "bool"
        }
      ],
      "name": "listModeratorsFrom",
      "outputs": [
        {
          "name": "_moderators",
          "type": "address[]"
        }
      ],
      "payable": false,
      "stateMutability": "view",
      "type": "function"
    },
    {
      "constant": true,
      "inputs": [
        {
          "name": "_count",
          "type": "uint256"
        },
        {
          "name": "_from_start",
          "type": "bool"
        }
      ],
      "name": "listParticipants",
      "outputs": [
        {
          "name": "_participants",
          "type": "address[]"
        }
      ],
      "payable": false,
      "stateMutability": "view",
      "type": "function"
    },
    {
      "constant": true,
      "inputs": [
        {
          "name": "_currentParticipant",
          "type": "address"
        },
        {
          "name": "_count",
          "type": "uint256"
        },
        {
          "name": "_from_start",
          "type": "bool"
        }
      ],
      "name": "listParticipantsFrom",
      "outputs": [
        {
          "name": "_participants",
          "type": "address[]"
        }
      ],
      "payable": false,
      "stateMutability": "view",
      "type": "function"
    },
    {
      "constant": true,
      "inputs": [
        {
          "name": "_count",
          "type": "uint256"
        },
        {
          "name": "_from_start",
          "type": "bool"
        }
      ],
      "name": "listProposals",
      "outputs": [
        {
          "name": "_proposals",
          "type": "bytes32[]"
        }
      ],
      "payable": false,
      "stateMutability": "view",
      "type": "function"
    },
    {
      "constant": true,
      "inputs": [
        {
          "name": "_currentProposal",
          "type": "bytes32"
        },
        {
          "name": "_count",
          "type": "uint256"
        },
        {
          "name": "_from_start",
          "type": "bool"
        }
      ],
      "name": "listProposalsFrom",
      "outputs": [
        {
          "name": "_proposals",
          "type": "bytes32[]"
        }
      ],
      "payable": false,
      "stateMutability": "view",
      "type": "function"
    },
    {
      "constant": true,
      "inputs": [
        {
          "name": "_stateId",
          "type": "bytes32"
        },
        {
          "name": "_count",
          "type": "uint256"
        },
        {
          "name": "_from_start",
          "type": "bool"
        }
      ],
      "name": "listProposalsInState",
      "outputs": [
        {
          "name": "_proposals",
          "type": "bytes32[]"
        }
      ],
      "payable": false,
      "stateMutability": "view",
      "type": "function"
    },
    {
      "constant": true,
      "inputs": [
        {
          "name": "_stateId",
          "type": "bytes32"
        },
        {
          "name": "_currentProposal",
          "type": "bytes32"
        },
        {
          "name": "_count",
          "type": "uint256"
        },
        {
          "name": "_from_start",
          "type": "bool"
        }
      ],
      "name": "listProposalsInStateFrom",
      "outputs": [
        {
          "name": "_proposals",
          "type": "bytes32[]"
        }
      ],
      "payable": false,
      "stateMutability": "view",
      "type": "function"
    },
    {
      "constant": true,
      "inputs": [
        {
          "name": "_proposalId",
          "type": "bytes32"
        },
        {
          "name": "_count",
          "type": "uint256"
        },
        {
          "name": "_from_start",
          "type": "bool"
        }
      ],
      "name": "listProposalVersions",
      "outputs": [
        {
          "name": "_versions",
          "type": "bytes32[]"
        }
      ],
      "payable": false,
      "stateMutability": "view",
      "type": "function"
    },
    {
      "constant": true,
      "inputs": [
        {
          "name": "_proposalId",
          "type": "bytes32"
        },
        {
          "name": "_currentVersion",
          "type": "bytes32"
        },
        {
          "name": "_count",
          "type": "uint256"
        },
        {
          "name": "_from_start",
          "type": "bool"
        }
      ],
      "name": "listProposalVersionsFrom",
      "outputs": [
        {
          "name": "_versions",
          "type": "bytes32[]"
        }
      ],
      "payable": false,
      "stateMutability": "view",
      "type": "function"
    }
  ],
  "bytecode": "0x608060405260006001026003906000191690556000600460006101000a81548173ffffffffffffffffffffffffffffffffffffffff021916908373ffffffffffffffffffffffffffffffffffffffff1602179055507f70726f706f73616c5f73746174655f70726570726f706f73616c0000000000006005906000191690557f70726f706f73616c5f73746174655f64726166740000000000000000000000006006906000191690557f70726f706f73616c5f73746174655f6d6f6465726174656400000000000000006007906000191690557f70726f706f73616c5f73746174655f6f6e676f696e67000000000000000000006008906000191690557f70726f706f73616c5f73746174655f636c6f73656400000000000000000000006009906000191690557f70726f706f73616c5f73746174655f6172636869766564000000000000000000600a906000191690556001600b556002600c556003600d556001600e556002600f5560036010557f696e7465725f6467645f696400000000000000000000000000000000000000006011906000191690557f696e7465725f6d6f645f6467645f6964000000000000000000000000000000006012906000191690557f696e7465725f626f6e75735f63616c63756c6174696f6e5f69640000000000006013906000191690557f64616f00000000000000000000000000000000000000000000000000000000006014906000191690557f64616f3a7370656369616c3a70726f706f73616c0000000000000000000000006015906000191690557f64616f3a7374616b652d6c6f636b696e670000000000000000000000000000006016906000191690557f64616f3a766f74696e67000000000000000000000000000000000000000000006017906000191690557f64616f3a766f74696e673a636c61696d730000000000000000000000000000006018906000191690557f64616f3a73766f74696e673a636c61696d7300000000000000000000000000006019906000191690557f64616f3a6964656e746974790000000000000000000000000000000000000000601a906000191690557f64616f3a726577617264732d6d616e6167657200000000000000000000000000601b906000191690557f64616f3a726577617264732d6578747261730000000000000000000000000000601c906000191690557f64616f3a726f6c65730000000000000000000000000000000000000000000000601d906000191690557f64616f3a66756e64696e672d6d616e6167657200000000000000000000000000601e906000191690557f64616f3a77686974656c697374696e6700000000000000000000000000000000601f906000191690557f64616f3a696e666f726d6174696f6e00000000000000000000000000000000006020906000191690557f736572766963653a726f6c6500000000000000000000000000000000000000006021906000191690557f736572766963653a64616f3a696e666f000000000000000000000000000000006022906000191690557f736572766963653a64616f3a6c697374696e67000000000000000000000000006023906000191690557f736572766963653a64616f3a63616c63756c61746f72000000000000000000006024906000191690557f73746f726167653a64616f0000000000000000000000000000000000000000006025906000191690557f73746f726167653a64616f3a636f756e746572000000000000000000000000006026906000191690557f73746f726167653a64616f3a75706772616465000000000000000000000000006027906000191690557f73746f726167653a64616f3a6964656e746974790000000000000000000000006028906000191690557f73746f726167653a64616f3a706f696e747300000000000000000000000000006029906000191690557f73746f726167653a64616f3a7370656369616c00000000000000000000000000602a906000191690557f73746f726167653a64616f3a636f6e6669670000000000000000000000000000602b906000191690557f73746f726167653a64616f3a7374616b65000000000000000000000000000000602c906000191690557f73746f726167653a64616f3a7265776172647300000000000000000000000000602d906000191690557f73746f726167653a64616f3a77686974656c697374696e670000000000000000602e906000191690557f73746f726167653a696e7465726d6564696174653a726573756c747300000000602f906000191690557f743a6467640000000000000000000000000000000000000000000000000000006030906000191690557f743a6467780000000000000000000000000000000000000000000000000000006031906000191690557f743a6261646765000000000000000000000000000000000000000000000000006032906000191690556001603360006101000a81548160ff021916908360ff1602179055506002603360016101000a81548160ff021916908360ff1602179055506003603360026101000a81548160ff021916908360ff1602179055506004603360036101000a81548160ff021916908360ff1602179055506276a7006034557f6d696e5f6467645f7061727469636970616e74000000000000000000000000006035906000191690557f6d696e5f6467645f6d6f64657261746f720000000000000000000000000000006036906000191690557f6d696e5f72657075746174696f6e5f6d6f64657261746f7200000000000000006037906000191690557f6c6f636b696e675f70686173655f6475726174696f6e000000000000000000006038906000191690557f717561727465725f6475726174696f6e000000000000000000000000000000006039906000191690557f766f74696e675f636f6d6d69745f706861736500000000000000000000000000603a906000191690557f766f74696e675f70686173655f746f74616c0000000000000000000000000000603b906000191690557f696e746572696d5f766f74696e675f636f6d6d69745f70686173650000000000603c906000191690557f696e746572696d5f766f74696e675f70686173655f746f74616c000000000000603d906000191690557f64726166745f71756f72756d5f66697865645f6e756d657261746f7200000000603e906000191690557f64726166745f71756f72756d5f66697865645f64656e6f6d696e61746f720000603f906000191690557f64726166745f71756f72756d5f73666163746f725f6e756d657261746f7200006040906000191690557f64726166745f71756f72756d5f73666163746f725f64656e6f6d696e61746f726041906000191690557f766f74655f71756f72756d5f66697865645f6e756d657261746f7200000000006042906000191690557f766f74655f71756f72756d5f66697865645f64656e6f6d696e61746f720000006043906000191690557f766f74655f71756f72756d5f73666163746f725f6e756d657261746f720000006044906000191690557f766f74655f71756f72756d5f73666163746f725f64656e6f6d696e61746f72006045906000191690557f66696e616c5f7265776172645f73666163746f725f6e756d657261746f7200006046906000191690557f66696e616c5f7265776172645f73666163746f725f64656e6f6d696e61746f726047906000191690557f64726166745f71756f74615f6e756d657261746f7200000000000000000000006048906000191690557f64726166745f71756f74615f64656e6f6d696e61746f720000000000000000006049906000191690557f766f74696e675f71756f74615f6e756d657261746f7200000000000000000000604a906000191690557f766f74696e675f71756f74615f64656e6f6d696e61746f720000000000000000604b906000191690557f6d696e696d616c5f717000000000000000000000000000000000000000000000604c906000191690557f717561727465725f706f696e745f7363616c696e675f666163746f7200000000604d906000191690557f7265705f706f696e745f7363616c696e675f666163746f720000000000000000604e906000191690557f6d696e696d616c5f6d6f645f7170000000000000000000000000000000000000604f906000191690557f6d6f645f71705f7363616c696e675f666163746f7200000000000000000000006050906000191690557f6d6f645f7265705f706f696e745f7363616c696e675f666163746f72000000006051906000191690557f717561727465725f706f696e745f64726166745f766f746500000000000000006052906000191690557f717561727465725f706f696e745f766f746500000000000000000000000000006053906000191690557f717561727465725f706f696e745f696e746572696d5f766f74650000000000006054906000191690557f715f705f6d696c6573746f6e655f636f6d706c6574696f6e00000000000000006055906000191690557f626f6e75735f72657075746174696f6e5f6e756d657261746f720000000000006056906000191690557f626f6e75735f72657075746174696f6e5f64656e6f6d696e61746f72000000006057906000191690557f7370656369616c5f70726f706f73616c5f636f6d6d69745f70686173650000006058906000191690557f7370656369616c5f70726f706f73616c5f70686173655f746f74616c000000006059906000191690557f636f6e6669675f7370656369616c5f71756f74615f6e756d657261746f720000605a906000191690557f636f6e6669675f7370656369616c5f71756f74615f64656e6f6d696e61746f72605b906000191690557f7370656369616c5f71756f72756d5f6e756d657261746f720000000000000000605c906000191690557f7370656369616c5f71756f72756d5f64656e6f6d696e61746f72000000000000605d906000191690557f636f6e6669675f6d61785f72657075746174696f6e5f646564756374696f6e00605e906000191690557f636f6e6669675f70756e6973686d656e745f6e6f745f6c6f636b696e67000000605f906000191690557f636f6e6669675f7265705f7065725f65787472615f71705f6e756d00000000006060906000191690557f636f6e6669675f7265705f7065725f65787472615f71705f64656e00000000006061906000191690557f636f6e6669675f6d61785f6d5f72705f646564756374696f6e000000000000006062906000191690557f636f6e6669675f7265705f7065725f65787472615f6d5f71705f6e756d0000006063906000191690557f636f6e6669675f7265705f7065725f65787472615f6d5f71705f64656e0000006064906000191690557f636f6e6669675f6d6f645f706f7274696f6e5f6e756d000000000000000000006065906000191690557f636f6e6669675f6d6f645f706f7274696f6e5f64656e000000000000000000006066906000191690557f636f6e6669675f64726166745f766f74696e675f7068617365000000000000006067906000191690557f636f6e6669675f72705f626f6f73745f7065725f6261646765000000000000006068906000191690557f636f6e6669675f636c61696d696e675f646561646c696e6500000000000000006069906000191690557f636f6e6669675f70726570726f706f73616c5f636f6c6c61746572616c000000606a906000191690557f636f6e6669675f6d61785f66756e64696e675f6e6f6e44696769780000000000606b906000191690557f636f6e6669675f6d61785f6d696c6573746f6e65735f6e6f6e44696769780000606c906000191690557f636f6e6669675f6e6f6e44696769785f70726f706f73616c5f63617000000000606d906000191690557f636f6e6669675f646561645f6475726174696f6e000000000000000000000000606e906000191690557f636f6e6669675f63765f72657075746174696f6e000000000000000000000000606f906000191690553480156200113457600080fd5b506040516020806200347f83398101806040528101908080519060200190929190505050620011756023548262001188640100000000026401000000009004565b15156200118157600080fd5b5062001419565b6000808273ffffffffffffffffffffffffffffffffffffffff16636d19a8826040518163ffffffff167c0100000000000000000000000000000000000000000000000000000000028152600401602060405180830381600087803b158015620011f057600080fd5b505af115801562001205573d6000803e3d6000fd5b505050506040513d60208110156200121c57600080fd5b810190808051906020019092919050505090506000151581151514156200140d5730600260006101000a81548173ffffffffffffffffffffffffffffffffffffffff021916908373ffffffffffffffffffffffffffffffffffffffff160217905550826000806101000a81548173ffffffffffffffffffffffffffffffffffffffff021916908373ffffffffffffffffffffffffffffffffffffffff16021790555083600181600019169055506000809054906101000a900473ffffffffffffffffffffffffffffffffffffffff1673ffffffffffffffffffffffffffffffffffffffff1663c0f6ef4a600154600260009054906101000a900473ffffffffffffffffffffffffffffffffffffffff166040518363ffffffff167c01000000000000000000000000000000000000000000000000000000000281526004018083600019166000191681526020018273ffffffffffffffffffffffffffffffffffffffff1673ffffffffffffffffffffffffffffffffffffffff16815260200192505050602060405180830381600087803b158015620013ba57600080fd5b505af1158015620013cf573d6000803e3d6000fd5b505050506040513d6020811015620013e657600080fd5b810190808051906020019092919050505015156200140357600080fd5b6001915062001412565b600091505b5092915050565b61205680620014296000396000f3006080604052600436106100d0576000357c0100000000000000000000000000000000000000000000000000000000900463ffffffff16806304f3bcec146100d5578063199a681b1461012c5780633943380c146101c85780633f83acff146101fb57806340c7174e1461026c5780634434afda1461031a5780634ddaee82146103a8578063541a073b1461045257806385f0e4bf146104fc57806396fe8e651461058a5780639cab7a7f14610638578063b9a50c79146106d4578063db4ecbc114610770578063f4f9fadc146107c7575b600080fd5b3480156100e157600080fd5b506100ea610855565b604051808273ffffffffffffffffffffffffffffffffffffffff1673ffffffffffffffffffffffffffffffffffffffff16815260200191505060405180910390f35b34801561013857600080fd5b5061017160048036038101908080356000191690602001909291908035906020019092919080351515906020019092919050505061087a565b6040518080602001828103825283818151815260200191508051906020019060200280838360005b838110156101b4578082015181840152602081019050610199565b505050509050019250505060405180910390f35b3480156101d457600080fd5b506101dd61091c565b60405180826000191660001916815260200191505060405180910390f35b34801561020757600080fd5b5061022a6004803603810190808035600019169060200190929190505050610922565b604051808273ffffffffffffffffffffffffffffffffffffffff1673ffffffffffffffffffffffffffffffffffffffff16815260200191505060405180910390f35b34801561027857600080fd5b506102c3600480360381019080803573ffffffffffffffffffffffffffffffffffffffff169060200190929190803590602001909291908035151590602001909291905050506109fe565b6040518080602001828103825283818151815260200191508051906020019060200280838360005b838110156103065780820151818401526020810190506102eb565b505050509050019250505060405180910390f35b34801561032657600080fd5b5061035160048036038101908080359060200190929190803515159060200190929190505050610aa0565b6040518080602001828103825283818151815260200191508051906020019060200280838360005b83811015610394578082015181840152602081019050610379565b505050509050019250505060405180910390f35b3480156103b457600080fd5b506103fb6004803603810190808035600019169060200190929190803560001916906020019092919080359060200190929190803515159060200190929190505050610b40565b6040518080602001828103825283818151815260200191508051906020019060200280838360005b8381101561043e578082015181840152602081019050610423565b505050509050019250505060405180910390f35b34801561045e57600080fd5b506104a56004803603810190808035600019169060200190929190803560001916906020019092919080359060200190929190803515159060200190929190505050610bf7565b6040518080602001828103825283818151815260200191508051906020019060200280838360005b838110156104e85780820151818401526020810190506104cd565b505050509050019250505060405180910390f35b34801561050857600080fd5b5061053360048036038101908080359060200190929190803515159060200190929190505050610c9b565b6040518080602001828103825283818151815260200191508051906020019060200280838360005b8381101561057657808201518184015260208101905061055b565b505050509050019250505060405180910390f35b34801561059657600080fd5b506105e1600480360381019080803573ffffffffffffffffffffffffffffffffffffffff16906020019092919080359060200190929190803515159060200190929190505050610d3b565b6040518080602001828103825283818151815260200191508051906020019060200280838360005b83811015610624578082015181840152602081019050610609565b505050509050019250505060405180910390f35b34801561064457600080fd5b5061067d600480360381019080803560001916906020019092919080359060200190929190803515159060200190929190505050610ddd565b6040518080602001828103825283818151815260200191508051906020019060200280838360005b838110156106c05780820151818401526020810190506106a5565b505050509050019250505060405180910390f35b3480156106e057600080fd5b50610719600480360381019080803560001916906020019092919080359060200190929190803515159060200190929190505050610e7f565b6040518080602001828103825283818151815260200191508051906020019060200280838360005b8381101561075c578082015181840152602081019050610741565b505050509050019250505060405180910390f35b34801561077c57600080fd5b50610785610f34565b604051808273ffffffffffffffffffffffffffffffffffffffff1673ffffffffffffffffffffffffffffffffffffffff16815260200191505060405180910390f35b3480156107d357600080fd5b506107fe60048036038101908080359060200190929190803515159060200190929190505050610f5a565b6040518080602001828103825283818151815260200191508051906020019060200280838360005b83811015610841578082015181840152602081019050610826565b505050509050019250505060405180910390f35b6000809054906101000a900473ffffffffffffffffffffffffffffffffffffffff1681565b60606109138484610889610ffa565b73ffffffffffffffffffffffffffffffffffffffff1663cfd591726108ac610ffa565b73ffffffffffffffffffffffffffffffffffffffff1663f0ab3dd96108cf610ffa565b73ffffffffffffffffffffffffffffffffffffffff1663237286e96108f2610ffa565b73ffffffffffffffffffffffffffffffffffffffff166370a6f5918c61100c565b90509392505050565b60015481565b60008060009054906101000a900473ffffffffffffffffffffffffffffffffffffffff1673ffffffffffffffffffffffffffffffffffffffff16633f83acff836040518263ffffffff167c0100000000000000000000000000000000000000000000000000000000028152600401808260001916600019168152602001915050602060405180830381600087803b1580156109bc57600080fd5b505af11580156109d0573d6000803e3d6000fd5b505050506040513d60208110156109e657600080fd5b81019080805190602001909291905050509050919050565b6060610a978484610a0d61104d565b73ffffffffffffffffffffffffffffffffffffffff1663583fd501610a3061104d565b73ffffffffffffffffffffffffffffffffffffffff1663bbb03dc2610a5361104d565b73ffffffffffffffffffffffffffffffffffffffff166344e518a3610a7661104d565b73ffffffffffffffffffffffffffffffffffffffff166363a640678c61105f565b90509392505050565b6060610b3883610aae610ffa565b73ffffffffffffffffffffffffffffffffffffffff1663cfd59172610ad1610ffa565b73ffffffffffffffffffffffffffffffffffffffff1663f0ab3dd9610af4610ffa565b73ffffffffffffffffffffffffffffffffffffffff1663237286e9610b17610ffa565b73ffffffffffffffffffffffffffffffffffffffff166370a6f5918b6110a0565b905092915050565b6060610b4a6111e8565b1515610b5557600080fd5b610bed858585610b63610ffa565b73ffffffffffffffffffffffffffffffffffffffff1663e7853aac610b86610ffa565b73ffffffffffffffffffffffffffffffffffffffff16631d47c3d3610ba9610ffa565b73ffffffffffffffffffffffffffffffffffffffff1663a692e0ef610bcc610ffa565b73ffffffffffffffffffffffffffffffffffffffff16631478fff18d611302565b9050949350505050565b6060610c91858585610c07610ffa565b73ffffffffffffffffffffffffffffffffffffffff1663e4156675610c2a610ffa565b73ffffffffffffffffffffffffffffffffffffffff16630c012e59610c4d610ffa565b73ffffffffffffffffffffffffffffffffffffffff166347d621a3610c70610ffa565b73ffffffffffffffffffffffffffffffffffffffff166356674c9f8d611302565b9050949350505050565b6060610d3383610ca961104d565b73ffffffffffffffffffffffffffffffffffffffff1663583fd501610ccc61104d565b73ffffffffffffffffffffffffffffffffffffffff1663bbb03dc2610cef61104d565b73ffffffffffffffffffffffffffffffffffffffff166344e518a3610d1261104d565b73ffffffffffffffffffffffffffffffffffffffff166363a640678b611346565b905092915050565b6060610dd48484610d4a61104d565b73ffffffffffffffffffffffffffffffffffffffff1663e3bd970e610d6d61104d565b73ffffffffffffffffffffffffffffffffffffffff166382624a2e610d9061104d565b73ffffffffffffffffffffffffffffffffffffffff16633e0fd265610db361104d565b73ffffffffffffffffffffffffffffffffffffffff16637bbad0b88c61105f565b90509392505050565b6060610e768484610dec610ffa565b73ffffffffffffffffffffffffffffffffffffffff1663e4156675610e0f610ffa565b73ffffffffffffffffffffffffffffffffffffffff16630c012e59610e32610ffa565b73ffffffffffffffffffffffffffffffffffffffff166347d621a3610e55610ffa565b73ffffffffffffffffffffffffffffffffffffffff166356674c9f8c61148e565b90509392505050565b6060610e896111e8565b1515610e9457600080fd5b610f2b8484610ea1610ffa565b73ffffffffffffffffffffffffffffffffffffffff1663e7853aac610ec4610ffa565b73ffffffffffffffffffffffffffffffffffffffff16631d47c3d3610ee7610ffa565b73ffffffffffffffffffffffffffffffffffffffff1663a692e0ef610f0a610ffa565b73ffffffffffffffffffffffffffffffffffffffff16631478fff18c61148e565b90509392505050565b600260009054906101000a900473ffffffffffffffffffffffffffffffffffffffff1681565b6060610ff283610f6861104d565b73ffffffffffffffffffffffffffffffffffffffff1663e3bd970e610f8b61104d565b73ffffffffffffffffffffffffffffffffffffffff166382624a2e610fae61104d565b73ffffffffffffffffffffffffffffffffffffffff16633e0fd265610fd161104d565b73ffffffffffffffffffffffffffffffffffffffff16637bbad0b88b611346565b905092915050565b6000611007602554610922565b905090565b6060811561102b576110248c8c60008b8b8b8b6115ff565b905061103e565b61103b8c8c60008d8d89896115ff565b90505b9b9a5050505050505050505050565b600061105a602c54610922565b905090565b6060811561107e576110778c8c60008b8b8b8b611901565b9050611091565b61108e8c8c60008d8d8989611901565b90505b9b9a5050505050505050505050565b606081156111435761113c8a8a6040518163ffffffff167c0100000000000000000000000000000000000000000000000000000000028152600401602060405180830381600087803b1580156110f557600080fd5b505af1158015611109573d6000803e3d6000fd5b505050506040513d602081101561111f57600080fd5b81019080805190602001909291905050508c60018b8b8b8b6115ff565b90506111da565b6111d788886040518163ffffffff167c0100000000000000000000000000000000000000000000000000000000028152600401602060405180830381600087803b15801561119057600080fd5b505af11580156111a4573d6000803e3d6000fd5b505050506040513d60208110156111ba57600080fd5b81019080805190602001909291905050508c60018d8d89896115ff565b90505b9a9950505050505050505050565b60003273ffffffffffffffffffffffffffffffffffffffff163373ffffffffffffffffffffffffffffffffffffffff1614806112fd5750611227611cf9565b73ffffffffffffffffffffffffffffffffffffffff16639b19251a336040518263ffffffff167c0100000000000000000000000000000000000000000000000000000000028152600401808273ffffffffffffffffffffffffffffffffffffffff1673ffffffffffffffffffffffffffffffffffffffff168152602001915050602060405180830381600087803b1580156112c157600080fd5b505af11580156112d5573d6000803e3d6000fd5b505050506040513d60208110156112eb57600080fd5b81019080805190602001909291905050505b905090565b606081156113225761131b8d8d8d60008c8c8c8c611d0b565b9050611336565b6113338d8d8d60008e8e8a8a611d0b565b90505b9c9b505050505050505050505050565b606081156113e9576113e28a8a6040518163ffffffff167c0100000000000000000000000000000000000000000000000000000000028152600401602060405180830381600087803b15801561139b57600080fd5b505af11580156113af573d6000803e3d6000fd5b505050506040513d60208110156113c557600080fd5b81019080805190602001909291905050508c60018b8b8b8b611901565b9050611480565b61147d88886040518163ffffffff167c0100000000000000000000000000000000000000000000000000000000028152600401602060405180830381600087803b15801561143657600080fd5b505af115801561144a573d6000803e3d6000fd5b505050506040513d602081101561146057600080fd5b81019080805190602001909291905050508c60018d8d8989611901565b90505b9a9950505050505050505050565b606081156115455761153e8c8b8b8f6040518263ffffffff167c0100000000000000000000000000000000000000000000000000000000028152600401808260001916600019168152602001915050602060405180830381600087803b1580156114f757600080fd5b505af115801561150b573d6000803e3d6000fd5b505050506040513d602081101561152157600080fd5b81019080805190602001909291905050508d60018c8c8c8c611d0b565b90506115f0565b6115ed8c89898f6040518263ffffffff167c0100000000000000000000000000000000000000000000000000000000028152600401808260001916600019168152602001915050602060405180830381600087803b1580156115a657600080fd5b505af11580156115ba573d6000803e3d6000fd5b505050506040513d60208110156115d057600080fd5b81019080805190602001909291905050508d60018e8e8a8a611d0b565b90505b9b9a5050505050505050505050565b606060008060006060600080935089896040518163ffffffff167c0100000000000000000000000000000000000000000000000000000000028152600401602060405180830381600087803b15801561165757600080fd5b505af115801561166b573d6000803e3d6000fd5b505050506040513d602081101561168157600080fd5b8101908080519060200190929190505050925060008c14806116ae57506000600102600019168360001916145b156116eb5760006040519080825280602002602001820160405280156116e35781602001602082028038833980820191505090505b5095506118f1565b8b60405190808252806020026020018201604052801561171a5781602001602082028038833980820191505090505b509150600115158b15151415611757578c82600081518110151561173a57fe5b906020019060200201906000191690816000191681525050600193505b8c90508394505b8b8510801561177557508260001916816000191614155b15611866578787826040518263ffffffff167c0100000000000000000000000000000000000000000000000000000000028152600401808260001916600019168152602001915050602060405180830381600087803b1580156117d757600080fd5b505af11580156117eb573d6000803e3d6000fd5b505050506040513d602081101561180157600080fd5b81019080805190602001909291905050509050600060010260001916816000191614151561185957838060010194505080828681518110151561184057fe5b9060200190602002019060001916908160001916815250505b848060010195505061175e565b836040519080825280602002602001820160405280156118955781602001602082028038833980820191505090505b509550600094505b838510156118f05781858151811015156118b357fe5b9060200190602002015186868151811015156118cb57fe5b906020019060200201906000191690816000191681525050848060010195505061189d565b5b5050505050979650505050505050565b606060008060006060600080935089896040518163ffffffff167c0100000000000000000000000000000000000000000000000000000000028152600401602060405180830381600087803b15801561195957600080fd5b505af115801561196d573d6000803e3d6000fd5b505050506040513d602081101561198357600080fd5b8101908080519060200190929190505050925060008c14806119d15750600073ffffffffffffffffffffffffffffffffffffffff168373ffffffffffffffffffffffffffffffffffffffff16145b15611a0e576000604051908082528060200260200182016040528015611a065781602001602082028038833980820191505090505b509550611ce9565b8b604051908082528060200260200182016040528015611a3d5781602001602082028038833980820191505090505b509150600115158b15151415611a9e578c826000815181101515611a5d57fe5b9060200190602002019073ffffffffffffffffffffffffffffffffffffffff16908173ffffffffffffffffffffffffffffffffffffffff1681525050600193505b8c90508394505b8b85108015611ae057508273ffffffffffffffffffffffffffffffffffffffff168173ffffffffffffffffffffffffffffffffffffffff1614155b15611c3a578787826040518263ffffffff167c0100000000000000000000000000000000000000000000000000000000028152600401808273ffffffffffffffffffffffffffffffffffffffff1673ffffffffffffffffffffffffffffffffffffffff168152602001915050602060405180830381600087803b158015611b6657600080fd5b505af1158015611b7a573d6000803e3d6000fd5b505050506040513d6020811015611b9057600080fd5b81019080805190602001909291905050509050600073ffffffffffffffffffffffffffffffffffffffff168173ffffffffffffffffffffffffffffffffffffffff16141515611c2d578380600101945050808286815181101515611bf057fe5b9060200190602002019073ffffffffffffffffffffffffffffffffffffffff16908173ffffffffffffffffffffffffffffffffffffffff16815250505b8480600101955050611aa5565b83604051908082528060200260200182016040528015611c695781602001602082028038833980820191505090505b509550600094505b83851015611ce8578185815181101515611c8757fe5b906020019060200201518686815181101515611c9f57fe5b9060200190602002019073ffffffffffffffffffffffffffffffffffffffff16908173ffffffffffffffffffffffffffffffffffffffff16815250508480600101955050611c71565b5b5050505050979650505050505050565b6000611d06602e54610922565b905090565b606060008060006060600080935089898f6040518263ffffffff167c0100000000000000000000000000000000000000000000000000000000028152600401808260001916600019168152602001915050602060405180830381600087803b158015611d7657600080fd5b505af1158015611d8a573d6000803e3d6000fd5b505050506040513d6020811015611da057600080fd5b8101908080519060200190929190505050925060008c1480611dcd57506000600102600019168360001916145b15611e0a576000604051908082528060200260200182016040528015611e025781602001602082028038833980820191505090505b509550612019565b8b604051908082528060200260200182016040528015611e395781602001602082028038833980820191505090505b5091508a15611e6f578c826000815181101515611e5257fe5b906020019060200201906000191690816000191681525050600193505b8c90508394505b8b85108015611e8d57508260001916816000191614155b15611f8e5787878f836040518363ffffffff167c0100000000000000000000000000000000000000000000000000000000028152600401808360001916600019168152602001826000191660001916815260200192505050602060405180830381600087803b158015611eff57600080fd5b505af1158015611f13573d6000803e3d6000fd5b505050506040513d6020811015611f2957600080fd5b810190808051906020019092919050505090506000600102600019168160001916141515611f81578380600101945050808286815181101515611f6857fe5b9060200190602002019060001916908160001916815250505b8480600101955050611e76565b83604051908082528060200260200182016040528015611fbd5781602001602082028038833980820191505090505b509550600094505b83851015612018578185815181101515611fdb57fe5b906020019060200201518686815181101515611ff357fe5b9060200190602002019060001916908160001916815250508480600101955050611fc5565b5b5050505050989750505050505050505600a165627a7a723058206b3d753f5a25de88de1b0f39abf2afb86d9e2a93afea79c76dec49e65e8a48680029",
  "source": "pragma solidity ^0.4.25;\n\n/* import \"@digix/cacp-contracts-dao/contracts/ResolverClient.sol\"; */\nimport \"@digix/solidity-collections/contracts/abstract/AddressIteratorInteractive.sol\";\nimport \"@digix/solidity-collections/contracts/abstract/BytesIteratorInteractive.sol\";\nimport \"@digix/solidity-collections/contracts/abstract/IndexedBytesIteratorInteractive.sol\";\nimport \"./../storage/DaoStorage.sol\";\nimport \"./../storage/DaoStakeStorage.sol\";\nimport \"./../common/DaoWhitelistingCommon.sol\";\n\n\n/**\n@title Contract to list various storage states from DigixDAO\n@author Digix Holdings\n*/\ncontract DaoListingService is\n    AddressIteratorInteractive,\n    BytesIteratorInteractive,\n    IndexedBytesIteratorInteractive,\n    DaoWhitelistingCommon\n{\n\n    /**\n    @notice Constructor\n    @param _resolver address of contract resolver\n    */\n    constructor(address _resolver) public {\n        require(init(CONTRACT_SERVICE_DAO_LISTING, _resolver));\n    }\n\n    function daoStakeStorage()\n        internal\n        view\n        returns (DaoStakeStorage _contract)\n    {\n        _contract = DaoStakeStorage(get_contract(CONTRACT_STORAGE_DAO_STAKE));\n    }\n\n    function daoStorage()\n        internal\n        view\n        returns (DaoStorage _contract)\n    {\n        _contract = DaoStorage(get_contract(CONTRACT_STORAGE_DAO));\n    }\n\n    /**\n    @notice function to list moderators\n    @dev note that this list may include some additional entries that are\n         not moderators in the current quarter. This may happen if they\n         were moderators in the previous quarter, but have not confirmed\n         their participation in the current quarter. For a single address,\n         a better way to know if moderator or not is:\n         Dao.isModerator(_user)\n    @param _count number of addresses to list\n    @param _from_start boolean, whether to list from start or end\n    @return {\n      \"_moderators\": \"list of moderator addresses\"\n    }\n    */\n    function listModerators(uint256 _count, bool _from_start)\n        public\n        view\n        returns (address[] _moderators)\n    {\n        _moderators = list_addresses(\n            _count,\n            daoStakeStorage().readFirstModerator,\n            daoStakeStorage().readLastModerator,\n            daoStakeStorage().readNextModerator,\n            daoStakeStorage().readPreviousModerator,\n            _from_start\n        );\n    }\n\n    /**\n    @notice function to list moderators from a particular moderator\n    @dev note that this list may include some additional entries that are\n         not moderators in the current quarter. This may happen if they\n         were moderators in the previous quarter, but have not confirmed\n         their participation in the current quarter. For a single address,\n         a better way to know if moderator or not is:\n         Dao.isModerator(_user)\n\n         Another note: this function will start listing AFTER the _currentModerator\n         For example: we have [address1, address2, address3, address4]. listModeratorsFrom(address1, 2, true) = [address2, address3]\n    @param _currentModerator start the list after this moderator address\n    @param _count number of addresses to list\n    @param _from_start boolean, whether to list from start or end\n    @return {\n      \"_moderators\": \"list of moderator addresses\"\n    }\n    */\n    function listModeratorsFrom(\n        address _currentModerator,\n        uint256 _count,\n        bool _from_start\n    )\n        public\n        view\n        returns (address[] _moderators)\n    {\n        _moderators = list_addresses_from(\n            _currentModerator,\n            _count,\n            daoStakeStorage().readFirstModerator,\n            daoStakeStorage().readLastModerator,\n            daoStakeStorage().readNextModerator,\n            daoStakeStorage().readPreviousModerator,\n            _from_start\n        );\n    }\n\n    /**\n    @notice function to list participants\n    @dev note that this list may include some additional entries that are\n         not participants in the current quarter. This may happen if they\n         were participants in the previous quarter, but have not confirmed\n         their participation in the current quarter. For a single address,\n         a better way to know if participant or not is:\n         Dao.isParticipant(_user)\n    @param _count number of addresses to list\n    @param _from_start boolean, whether to list from start or end\n    @return {\n      \"_participants\": \"list of participant addresses\"\n    }\n    */\n    function listParticipants(uint256 _count, bool _from_start)\n        public\n        view\n        returns (address[] _participants)\n    {\n        _participants = list_addresses(\n            _count,\n            daoStakeStorage().readFirstParticipant,\n            daoStakeStorage().readLastParticipant,\n            daoStakeStorage().readNextParticipant,\n            daoStakeStorage().readPreviousParticipant,\n            _from_start\n        );\n    }\n\n    /**\n    @notice function to list participants from a particular participant\n    @dev note that this list may include some additional entries that are\n         not participants in the current quarter. This may happen if they\n         were participants in the previous quarter, but have not confirmed\n         their participation in the current quarter. For a single address,\n         a better way to know if participant or not is:\n         contracts.dao.isParticipant(_user)\n\n         Another note: this function will start listing AFTER the _currentParticipant\n         For example: we have [address1, address2, address3, address4]. listParticipantsFrom(address1, 2, true) = [address2, address3]\n    @param _currentParticipant list from AFTER this participant address\n    @param _count number of addresses to list\n    @param _from_start boolean, whether to list from start or end\n    @return {\n      \"_participants\": \"list of participant addresses\"\n    }\n    */\n    function listParticipantsFrom(\n        address _currentParticipant,\n        uint256 _count,\n        bool _from_start\n    )\n        public\n        view\n        returns (address[] _participants)\n    {\n        _participants = list_addresses_from(\n            _currentParticipant,\n            _count,\n            daoStakeStorage().readFirstParticipant,\n            daoStakeStorage().readLastParticipant,\n            daoStakeStorage().readNextParticipant,\n            daoStakeStorage().readPreviousParticipant,\n            _from_start\n        );\n    }\n\n    /**\n    @notice function to list _count no. of proposals\n    @param _count number of proposals to list\n    @param _from_start boolean value, true if count from start, false if count from end\n    @return {\n      \"_proposals\": \"the list of proposal IDs\"\n    }\n    */\n    function listProposals(\n        uint256 _count,\n        bool _from_start\n    )\n        public\n        view\n        returns (bytes32[] _proposals)\n    {\n        _proposals = list_bytesarray(\n            _count,\n            daoStorage().getFirstProposal,\n            daoStorage().getLastProposal,\n            daoStorage().getNextProposal,\n            daoStorage().getPreviousProposal,\n            _from_start\n        );\n    }\n\n    /**\n    @notice function to list _count no. of proposals from AFTER _currentProposal\n    @param _currentProposal ID of proposal to list proposals from\n    @param _count number of proposals to list\n    @param _from_start boolean value, true if count forwards, false if count backwards\n    @return {\n      \"_proposals\": \"the list of proposal IDs\"\n    }\n    */\n    function listProposalsFrom(\n        bytes32 _currentProposal,\n        uint256 _count,\n        bool _from_start\n    )\n        public\n        view\n        returns (bytes32[] _proposals)\n    {\n        _proposals = list_bytesarray_from(\n            _currentProposal,\n            _count,\n            daoStorage().getFirstProposal,\n            daoStorage().getLastProposal,\n            daoStorage().getNextProposal,\n            daoStorage().getPreviousProposal,\n            _from_start\n        );\n    }\n\n    /**\n    @notice function to list _count no. of proposals in state _stateId\n    @param _stateId state of proposal\n    @param _count number of proposals to list\n    @param _from_start boolean value, true if count from start, false if count from end\n    @return {\n      \"_proposals\": \"the list of proposal IDs\"\n    }\n    */\n    function listProposalsInState(\n        bytes32 _stateId,\n        uint256 _count,\n        bool _from_start\n    )\n        public\n        view\n        returns (bytes32[] _proposals)\n    {\n        require(senderIsAllowedToRead());\n        _proposals = list_indexed_bytesarray(\n            _stateId,\n            _count,\n            daoStorage().getFirstProposalInState,\n            daoStorage().getLastProposalInState,\n            daoStorage().getNextProposalInState,\n            daoStorage().getPreviousProposalInState,\n            _from_start\n        );\n    }\n\n    /**\n    @notice function to list _count no. of proposals in state _stateId from AFTER _currentProposal\n    @param _stateId state of proposal\n    @param _currentProposal ID of proposal to list proposals from\n    @param _count number of proposals to list\n    @param _from_start boolean value, true if count forwards, false if count backwards\n    @return {\n      \"_proposals\": \"the list of proposal IDs\"\n    }\n    */\n    function listProposalsInStateFrom(\n        bytes32 _stateId,\n        bytes32 _currentProposal,\n        uint256 _count,\n        bool _from_start\n    )\n        public\n        view\n        returns (bytes32[] _proposals)\n    {\n        require(senderIsAllowedToRead());\n        _proposals = list_indexed_bytesarray_from(\n            _stateId,\n            _currentProposal,\n            _count,\n            daoStorage().getFirstProposalInState,\n            daoStorage().getLastProposalInState,\n            daoStorage().getNextProposalInState,\n            daoStorage().getPreviousProposalInState,\n            _from_start\n        );\n    }\n\n    /**\n    @notice function to list proposal versions\n    @param _proposalId ID of the proposal\n    @param _count number of proposal versions to list\n    @param _from_start boolean, true to list from start, false to list from end\n    @return {\n      \"_versions\": \"list of proposal versions\"\n    }\n    */\n    function listProposalVersions(\n        bytes32 _proposalId,\n        uint256 _count,\n        bool _from_start\n    )\n        public\n        view\n        returns (bytes32[] _versions)\n    {\n        _versions = list_indexed_bytesarray(\n            _proposalId,\n            _count,\n            daoStorage().getFirstProposalVersion,\n            daoStorage().getLastProposalVersion,\n            daoStorage().getNextProposalVersion,\n            daoStorage().getPreviousProposalVersion,\n            _from_start\n        );\n    }\n\n    /**\n    @notice function to list proposal versions from AFTER a particular version\n    @param _proposalId ID of the proposal\n    @param _currentVersion version to list _count versions from\n    @param _count number of proposal versions to list\n    @param _from_start boolean, true to list from start, false to list from end\n    @return {\n      \"_versions\": \"list of proposal versions\"\n    }\n    */\n    function listProposalVersionsFrom(\n        bytes32 _proposalId,\n        bytes32 _currentVersion,\n        uint256 _count,\n        bool _from_start\n    )\n        public\n        view\n        returns (bytes32[] _versions)\n    {\n        _versions = list_indexed_bytesarray_from(\n            _proposalId,\n            _currentVersion,\n            _count,\n            daoStorage().getFirstProposalVersion,\n            daoStorage().getLastProposalVersion,\n            daoStorage().getNextProposalVersion,\n            daoStorage().getPreviousProposalVersion,\n            _from_start\n        );\n    }\n}\n",
  "sourcePath": "/home/vu/digix/dao-contracts/contracts/service/DaoListingService.sol",
  "compiler": {
    "name": "solc",
    "version": "0.4.25+commit.59dbf8f1.Emscripten.clang"
  },
  "schemaVersion": "2.0.2",
  "updatedAt": "2019-03-12T10:37:27.503Z"
}