{
  "contractName": "DaoPointsStorage",
  "abi": [
    {
      "constant": true,
      "inputs": [],
      "name": "resolver",
      "outputs": [
        {
          "name": "",
          "type": "address"
        }
      ],
      "payable": false,
      "stateMutability": "view",
      "type": "function"
    },
    {
      "constant": true,
      "inputs": [],
      "name": "key",
      "outputs": [
        {
          "name": "",
          "type": "bytes32"
        }
      ],
      "payable": false,
      "stateMutability": "view",
      "type": "function"
    },
    {
      "constant": true,
      "inputs": [
        {
          "name": "_key",
          "type": "bytes32"
        }
      ],
      "name": "get_contract",
      "outputs": [
        {
          "name": "_contract",
          "type": "address"
        }
      ],
      "payable": false,
      "stateMutability": "view",
      "type": "function"
    },
    {
      "constant": true,
      "inputs": [],
      "name": "CONTRACT_ADDRESS",
      "outputs": [
        {
          "name": "",
          "type": "address"
        }
      ],
      "payable": false,
      "stateMutability": "view",
      "type": "function"
    },
    {
      "inputs": [
        {
          "name": "_resolver",
          "type": "address"
        }
      ],
      "payable": false,
      "stateMutability": "nonpayable",
      "type": "constructor"
    },
    {
      "constant": false,
      "inputs": [
        {
          "name": "_participant",
          "type": "address"
        },
        {
          "name": "_point",
          "type": "uint256"
        },
        {
          "name": "_quarterNumber",
          "type": "uint256"
        }
      ],
      "name": "addQuarterPoint",
      "outputs": [
        {
          "name": "_newPoint",
          "type": "uint256"
        },
        {
          "name": "_newTotalPoint",
          "type": "uint256"
        }
      ],
      "payable": false,
      "stateMutability": "nonpayable",
      "type": "function"
    },
    {
      "constant": false,
      "inputs": [
        {
          "name": "_participant",
          "type": "address"
        },
        {
          "name": "_point",
          "type": "uint256"
        },
        {
          "name": "_quarterNumber",
          "type": "uint256"
        }
      ],
      "name": "addModeratorQuarterPoint",
      "outputs": [
        {
          "name": "_newPoint",
          "type": "uint256"
        },
        {
          "name": "_newTotalPoint",
          "type": "uint256"
        }
      ],
      "payable": false,
      "stateMutability": "nonpayable",
      "type": "function"
    },
    {
      "constant": true,
      "inputs": [
        {
          "name": "_participant",
          "type": "address"
        },
        {
          "name": "_quarterNumber",
          "type": "uint256"
        }
      ],
      "name": "getQuarterPoint",
      "outputs": [
        {
          "name": "_point",
          "type": "uint256"
        }
      ],
      "payable": false,
      "stateMutability": "view",
      "type": "function"
    },
    {
      "constant": true,
      "inputs": [
        {
          "name": "_participant",
          "type": "address"
        },
        {
          "name": "_quarterNumber",
          "type": "uint256"
        }
      ],
      "name": "getQuarterModeratorPoint",
      "outputs": [
        {
          "name": "_point",
          "type": "uint256"
        }
      ],
      "payable": false,
      "stateMutability": "view",
      "type": "function"
    },
    {
      "constant": true,
      "inputs": [
        {
          "name": "_quarterNumber",
          "type": "uint256"
        }
      ],
      "name": "getTotalQuarterPoint",
      "outputs": [
        {
          "name": "_totalPoint",
          "type": "uint256"
        }
      ],
      "payable": false,
      "stateMutability": "view",
      "type": "function"
    },
    {
      "constant": true,
      "inputs": [
        {
          "name": "_quarterNumber",
          "type": "uint256"
        }
      ],
      "name": "getTotalQuarterModeratorPoint",
      "outputs": [
        {
          "name": "_totalPoint",
          "type": "uint256"
        }
      ],
      "payable": false,
      "stateMutability": "view",
      "type": "function"
    },
    {
      "constant": false,
      "inputs": [
        {
          "name": "_participant",
          "type": "address"
        },
        {
          "name": "_point",
          "type": "uint256"
        }
      ],
      "name": "increaseReputation",
      "outputs": [
        {
          "name": "_newPoint",
          "type": "uint256"
        },
        {
          "name": "_totalPoint",
          "type": "uint256"
        }
      ],
      "payable": false,
      "stateMutability": "nonpayable",
      "type": "function"
    },
    {
      "constant": false,
      "inputs": [
        {
          "name": "_participant",
          "type": "address"
        },
        {
          "name": "_point",
          "type": "uint256"
        }
      ],
      "name": "reduceReputation",
      "outputs": [
        {
          "name": "_newPoint",
          "type": "uint256"
        },
        {
          "name": "_totalPoint",
          "type": "uint256"
        }
      ],
      "payable": false,
      "stateMutability": "nonpayable",
      "type": "function"
    },
    {
      "constant": true,
      "inputs": [
        {
          "name": "_participant",
          "type": "address"
        }
      ],
      "name": "getReputation",
      "outputs": [
        {
          "name": "_point",
          "type": "uint256"
        }
      ],
      "payable": false,
      "stateMutability": "view",
      "type": "function"
    },
    {
      "constant": true,
      "inputs": [],
      "name": "getTotalReputation",
      "outputs": [
        {
          "name": "_totalPoint",
          "type": "uint256"
        }
      ],
      "payable": false,
      "stateMutability": "view",
      "type": "function"
    }
  ],
  "bytecode": "0x608060405260006001026003906000191690556000600460006101000a81548173ffffffffffffffffffffffffffffffffffffffff021916908373ffffffffffffffffffffffffffffffffffffffff1602179055507f70726f706f73616c5f73746174655f70726570726f706f73616c0000000000006005906000191690557f70726f706f73616c5f73746174655f64726166740000000000000000000000006006906000191690557f70726f706f73616c5f73746174655f6d6f6465726174656400000000000000006007906000191690557f70726f706f73616c5f73746174655f6f6e676f696e67000000000000000000006008906000191690557f70726f706f73616c5f73746174655f636c6f73656400000000000000000000006009906000191690557f70726f706f73616c5f73746174655f6172636869766564000000000000000000600a906000191690556001600b556002600c556003600d556001600e556002600f5560036010557f696e7465725f6467645f696400000000000000000000000000000000000000006011906000191690557f696e7465725f6d6f645f6467645f6964000000000000000000000000000000006012906000191690557f696e7465725f626f6e75735f63616c63756c6174696f6e5f69640000000000006013906000191690557f64616f00000000000000000000000000000000000000000000000000000000006014906000191690557f64616f3a7370656369616c3a70726f706f73616c0000000000000000000000006015906000191690557f64616f3a7374616b652d6c6f636b696e670000000000000000000000000000006016906000191690557f64616f3a766f74696e67000000000000000000000000000000000000000000006017906000191690557f64616f3a766f74696e673a636c61696d730000000000000000000000000000006018906000191690557f64616f3a73766f74696e673a636c61696d7300000000000000000000000000006019906000191690557f64616f3a6964656e746974790000000000000000000000000000000000000000601a906000191690557f64616f3a726577617264732d6d616e6167657200000000000000000000000000601b906000191690557f64616f3a726577617264732d6578747261730000000000000000000000000000601c906000191690557f64616f3a726f6c65730000000000000000000000000000000000000000000000601d906000191690557f64616f3a66756e64696e672d6d616e6167657200000000000000000000000000601e906000191690557f64616f3a77686974656c697374696e6700000000000000000000000000000000601f906000191690557f64616f3a696e666f726d6174696f6e00000000000000000000000000000000006020906000191690557f736572766963653a726f6c6500000000000000000000000000000000000000006021906000191690557f736572766963653a64616f3a696e666f000000000000000000000000000000006022906000191690557f736572766963653a64616f3a6c697374696e67000000000000000000000000006023906000191690557f736572766963653a64616f3a63616c63756c61746f72000000000000000000006024906000191690557f73746f726167653a64616f0000000000000000000000000000000000000000006025906000191690557f73746f726167653a64616f3a636f756e746572000000000000000000000000006026906000191690557f73746f726167653a64616f3a75706772616465000000000000000000000000006027906000191690557f73746f726167653a64616f3a6964656e746974790000000000000000000000006028906000191690557f73746f726167653a64616f3a706f696e747300000000000000000000000000006029906000191690557f73746f726167653a64616f3a7370656369616c00000000000000000000000000602a906000191690557f73746f726167653a64616f3a636f6e6669670000000000000000000000000000602b906000191690557f73746f726167653a64616f3a7374616b65000000000000000000000000000000602c906000191690557f73746f726167653a64616f3a7265776172647300000000000000000000000000602d906000191690557f73746f726167653a64616f3a77686974656c697374696e670000000000000000602e906000191690557f73746f726167653a696e7465726d6564696174653a726573756c747300000000602f906000191690557f743a6467640000000000000000000000000000000000000000000000000000006030906000191690557f743a6467780000000000000000000000000000000000000000000000000000006031906000191690557f743a6261646765000000000000000000000000000000000000000000000000006032906000191690556001603360006101000a81548160ff021916908360ff1602179055506002603360016101000a81548160ff021916908360ff1602179055506003603360026101000a81548160ff021916908360ff1602179055506004603360036101000a81548160ff021916908360ff1602179055506276a7006034557f6d696e5f6467645f7061727469636970616e74000000000000000000000000006035906000191690557f6d696e5f6467645f6d6f64657261746f720000000000000000000000000000006036906000191690557f6d696e5f72657075746174696f6e5f6d6f64657261746f7200000000000000006037906000191690557f6c6f636b696e675f70686173655f6475726174696f6e000000000000000000006038906000191690557f717561727465725f6475726174696f6e000000000000000000000000000000006039906000191690557f766f74696e675f636f6d6d69745f706861736500000000000000000000000000603a906000191690557f766f74696e675f70686173655f746f74616c0000000000000000000000000000603b906000191690557f696e746572696d5f766f74696e675f636f6d6d69745f70686173650000000000603c906000191690557f696e746572696d5f766f74696e675f70686173655f746f74616c000000000000603d906000191690557f64726166745f71756f72756d5f66697865645f6e756d657261746f7200000000603e906000191690557f64726166745f71756f72756d5f66697865645f64656e6f6d696e61746f720000603f906000191690557f64726166745f71756f72756d5f73666163746f725f6e756d657261746f7200006040906000191690557f64726166745f71756f72756d5f73666163746f725f64656e6f6d696e61746f726041906000191690557f766f74655f71756f72756d5f66697865645f6e756d657261746f7200000000006042906000191690557f766f74655f71756f72756d5f66697865645f64656e6f6d696e61746f720000006043906000191690557f766f74655f71756f72756d5f73666163746f725f6e756d657261746f720000006044906000191690557f766f74655f71756f72756d5f73666163746f725f64656e6f6d696e61746f72006045906000191690557f66696e616c5f7265776172645f73666163746f725f6e756d657261746f7200006046906000191690557f66696e616c5f7265776172645f73666163746f725f64656e6f6d696e61746f726047906000191690557f64726166745f71756f74615f6e756d657261746f7200000000000000000000006048906000191690557f64726166745f71756f74615f64656e6f6d696e61746f720000000000000000006049906000191690557f766f74696e675f71756f74615f6e756d657261746f7200000000000000000000604a906000191690557f766f74696e675f71756f74615f64656e6f6d696e61746f720000000000000000604b906000191690557f6d696e696d616c5f717000000000000000000000000000000000000000000000604c906000191690557f717561727465725f706f696e745f7363616c696e675f666163746f7200000000604d906000191690557f7265705f706f696e745f7363616c696e675f666163746f720000000000000000604e906000191690557f6d696e696d616c5f6d6f645f7170000000000000000000000000000000000000604f906000191690557f6d6f645f71705f7363616c696e675f666163746f7200000000000000000000006050906000191690557f6d6f645f7265705f706f696e745f7363616c696e675f666163746f72000000006051906000191690557f717561727465725f706f696e745f64726166745f766f746500000000000000006052906000191690557f717561727465725f706f696e745f766f746500000000000000000000000000006053906000191690557f717561727465725f706f696e745f696e746572696d5f766f74650000000000006054906000191690557f715f705f6d696c6573746f6e655f636f6d706c6574696f6e00000000000000006055906000191690557f626f6e75735f72657075746174696f6e5f6e756d657261746f720000000000006056906000191690557f626f6e75735f72657075746174696f6e5f64656e6f6d696e61746f72000000006057906000191690557f7370656369616c5f70726f706f73616c5f636f6d6d69745f70686173650000006058906000191690557f7370656369616c5f70726f706f73616c5f70686173655f746f74616c000000006059906000191690557f636f6e6669675f7370656369616c5f71756f74615f6e756d657261746f720000605a906000191690557f636f6e6669675f7370656369616c5f71756f74615f64656e6f6d696e61746f72605b906000191690557f7370656369616c5f71756f72756d5f6e756d657261746f720000000000000000605c906000191690557f7370656369616c5f71756f72756d5f64656e6f6d696e61746f72000000000000605d906000191690557f636f6e6669675f6d61785f72657075746174696f6e5f646564756374696f6e00605e906000191690557f636f6e6669675f70756e6973686d656e745f6e6f745f6c6f636b696e67000000605f906000191690557f636f6e6669675f7265705f7065725f65787472615f71705f6e756d00000000006060906000191690557f636f6e6669675f7265705f7065725f65787472615f71705f64656e00000000006061906000191690557f636f6e6669675f6d61785f6d5f72705f646564756374696f6e000000000000006062906000191690557f636f6e6669675f7265705f7065725f65787472615f6d5f71705f6e756d0000006063906000191690557f636f6e6669675f7265705f7065725f65787472615f6d5f71705f64656e0000006064906000191690557f636f6e6669675f6d6f645f706f7274696f6e5f6e756d000000000000000000006065906000191690557f636f6e6669675f6d6f645f706f7274696f6e5f64656e000000000000000000006066906000191690557f636f6e6669675f64726166745f766f74696e675f7068617365000000000000006067906000191690557f636f6e6669675f72705f626f6f73745f7065725f6261646765000000000000006068906000191690557f636f6e6669675f636c61696d696e675f646561646c696e6500000000000000006069906000191690557f636f6e6669675f70726570726f706f73616c5f636f6c6c61746572616c000000606a906000191690557f636f6e6669675f6d61785f66756e64696e675f6e6f6e44696769780000000000606b906000191690557f636f6e6669675f6d61785f6d696c6573746f6e65735f6e6f6e44696769780000606c906000191690557f636f6e6669675f6e6f6e44696769785f70726f706f73616c5f63617000000000606d906000191690557f636f6e6669675f646561645f6475726174696f6e000000000000000000000000606e906000191690557f636f6e6669675f63765f72657075746174696f6e000000000000000000000000606f906000191690553480156200113457600080fd5b506040516020806200255583398101806040528101908080519060200190929190505050620011756029548262001188640100000000026401000000009004565b15156200118157600080fd5b5062001419565b6000808273ffffffffffffffffffffffffffffffffffffffff16636d19a8826040518163ffffffff167c0100000000000000000000000000000000000000000000000000000000028152600401602060405180830381600087803b158015620011f057600080fd5b505af115801562001205573d6000803e3d6000fd5b505050506040513d60208110156200121c57600080fd5b810190808051906020019092919050505090506000151581151514156200140d5730600260006101000a81548173ffffffffffffffffffffffffffffffffffffffff021916908373ffffffffffffffffffffffffffffffffffffffff160217905550826000806101000a81548173ffffffffffffffffffffffffffffffffffffffff021916908373ffffffffffffffffffffffffffffffffffffffff16021790555083600181600019169055506000809054906101000a900473ffffffffffffffffffffffffffffffffffffffff1673ffffffffffffffffffffffffffffffffffffffff1663c0f6ef4a600154600260009054906101000a900473ffffffffffffffffffffffffffffffffffffffff166040518363ffffffff167c01000000000000000000000000000000000000000000000000000000000281526004018083600019166000191681526020018273ffffffffffffffffffffffffffffffffffffffff1673ffffffffffffffffffffffffffffffffffffffff16815260200192505050602060405180830381600087803b158015620013ba57600080fd5b505af1158015620013cf573d6000803e3d6000fd5b505050506040513d6020811015620013e657600080fd5b810190808051906020019092919050505015156200140357600080fd5b6001915062001412565b600091505b5092915050565b61112c80620014296000396000f3006080604052600436106100d0576000357c0100000000000000000000000000000000000000000000000000000000900463ffffffff16806304f3bcec146100d557806317a129501461012c5780631eee01541461015757806329101470146101c95780633943380c1461020a5780633f83acff1461023d5780637478fbe3146102ae5780637b22ebce1461031657806393383c51146103575780639c89a0e2146103b8578063a5a9f5bb1461040f578063db4ecbc114610470578063ded86d68146104c7578063f2f80af41461052f575b600080fd5b3480156100e157600080fd5b506100ea6105a1565b604051808273ffffffffffffffffffffffffffffffffffffffff1673ffffffffffffffffffffffffffffffffffffffff16815260200191505060405180910390f35b34801561013857600080fd5b506101416105c6565b6040518082815260200191505060405180910390f35b34801561016357600080fd5b506101ac600480360381019080803573ffffffffffffffffffffffffffffffffffffffff16906020019092919080359060200190929190803590602001909291905050506105d3565b604051808381526020018281526020019250505060405180910390f35b3480156101d557600080fd5b506101f46004803603810190808035906020019092919050505061079a565b6040518082815260200191505060405180910390f35b34801561021657600080fd5b5061021f6107ba565b60405180826000191660001916815260200191505060405180910390f35b34801561024957600080fd5b5061026c60048036038101908080356000191690602001909291905050506107c0565b604051808273ffffffffffffffffffffffffffffffffffffffff1673ffffffffffffffffffffffffffffffffffffffff16815260200191505060405180910390f35b3480156102ba57600080fd5b506102f9600480360381019080803573ffffffffffffffffffffffffffffffffffffffff1690602001909291908035906020019092919050505061089c565b604051808381526020018281526020019250505060405180910390f35b34801561032257600080fd5b5061034160048036038101908080359060200190929190505050610adf565b6040518082815260200191505060405180910390f35b34801561036357600080fd5b506103a2600480360381019080803573ffffffffffffffffffffffffffffffffffffffff16906020019092919080359060200190929190505050610aff565b6040518082815260200191505060405180910390f35b3480156103c457600080fd5b506103f9600480360381019080803573ffffffffffffffffffffffffffffffffffffffff169060200190929190505050610b5d565b6040518082815260200191505060405180910390f35b34801561041b57600080fd5b5061045a600480360381019080803573ffffffffffffffffffffffffffffffffffffffff16906020019092919080359060200190929190505050610ba9565b6040518082815260200191505060405180910390f35b34801561047c57600080fd5b50610485610c07565b604051808273ffffffffffffffffffffffffffffffffffffffff1673ffffffffffffffffffffffffffffffffffffffff16815260200191505060405180910390f35b3480156104d357600080fd5b50610512600480360381019080803573ffffffffffffffffffffffffffffffffffffffff16906020019092919080359060200190929190505050610c2d565b604051808381526020018281526020019250505060405180910390f35b34801561053b57600080fd5b50610584600480360381019080803573ffffffffffffffffffffffffffffffffffffffff1690602001909291908035906020019092919080359060200190929190505050610d8d565b604051808381526020018281526020019250505060405180910390f35b6000809054906101000a900473ffffffffffffffffffffffffffffffffffffffff1681565b6000607060000154905090565b60008061061860606040519081016040528060175460001916600019168152602001601854600019166000191681526020016003546000191660001916815250610f54565b151561062357600080fd5b61064c8460726000868152602001908152602001600020600001546110cb90919063ffffffff16565b60726000858152602001908152602001600020600001819055506106cc846072600086815260200190815260200160002060010160008873ffffffffffffffffffffffffffffffffffffffff1673ffffffffffffffffffffffffffffffffffffffff168152602001908152602001600020546110cb90919063ffffffff16565b6072600085815260200190815260200160002060010160008773ffffffffffffffffffffffffffffffffffffffff1673ffffffffffffffffffffffffffffffffffffffff168152602001908152602001600020819055506072600084815260200190815260200160002060010160008673ffffffffffffffffffffffffffffffffffffffff1673ffffffffffffffffffffffffffffffffffffffff16815260200190815260200160002054915060726000848152602001908152602001600020600001549050935093915050565b600060736000838152602001908152602001600020600001549050919050565b60015481565b60008060009054906101000a900473ffffffffffffffffffffffffffffffffffffffff1673ffffffffffffffffffffffffffffffffffffffff16633f83acff836040518263ffffffff167c0100000000000000000000000000000000000000000000000000000000028152600401808260001916600019168152602001915050602060405180830381600087803b15801561085a57600080fd5b505af115801561086e573d6000803e3d6000fd5b505050506040513d602081101561088457600080fd5b81019080805190602001909291905050509050919050565b60008060006108e360606040519081016040528060185460001916600019168152602001601b54600019166000191681526020016003546000191660001916815250610f54565b15156108ee57600080fd5b83905083607060010160008773ffffffffffffffffffffffffffffffffffffffff1673ffffffffffffffffffffffffffffffffffffffff1681526020019081526020016000205411156109db5761099084607060010160008873ffffffffffffffffffffffffffffffffffffffff1673ffffffffffffffffffffffffffffffffffffffff168152602001908152602001600020546110e790919063ffffffff16565b607060010160008773ffffffffffffffffffffffffffffffffffffffff1673ffffffffffffffffffffffffffffffffffffffff16815260200190815260200160002081905550610a69565b607060010160008673ffffffffffffffffffffffffffffffffffffffff1673ffffffffffffffffffffffffffffffffffffffff1681526020019081526020016000205490506000607060010160008773ffffffffffffffffffffffffffffffffffffffff1673ffffffffffffffffffffffffffffffffffffffff168152602001908152602001600020819055505b610a81816070600001546110e790919063ffffffff16565b607060000181905550607060010160008673ffffffffffffffffffffffffffffffffffffffff1673ffffffffffffffffffffffffffffffffffffffff1681526020019081526020016000205492506070600001549150509250929050565b600060726000838152602001908152602001600020600001549050919050565b60006072600083815260200190815260200160002060010160008473ffffffffffffffffffffffffffffffffffffffff1673ffffffffffffffffffffffffffffffffffffffff16815260200190815260200160002054905092915050565b6000607060010160008373ffffffffffffffffffffffffffffffffffffffff1673ffffffffffffffffffffffffffffffffffffffff168152602001908152602001600020549050919050565b60006073600083815260200190815260200160002060010160008473ffffffffffffffffffffffffffffffffffffffff1673ffffffffffffffffffffffffffffffffffffffff16815260200190815260200160002054905092915050565b600260009054906101000a900473ffffffffffffffffffffffffffffffffffffffff1681565b600080610c7260606040519081016040528060185460001916600019168152602001601b54600019166000191681526020016016546000191660001916815250610f54565b1515610c7d57600080fd5b610c95836070600001546110cb90919063ffffffff16565b607060000181905550610cf383607060010160008773ffffffffffffffffffffffffffffffffffffffff1673ffffffffffffffffffffffffffffffffffffffff168152602001908152602001600020546110cb90919063ffffffff16565b607060010160008673ffffffffffffffffffffffffffffffffffffffff1673ffffffffffffffffffffffffffffffffffffffff16815260200190815260200160002081905550607060010160008573ffffffffffffffffffffffffffffffffffffffff1673ffffffffffffffffffffffffffffffffffffffff16815260200190815260200160002054915060706000015490509250929050565b600080610dd260606040519081016040528060175460001916600019168152602001601854600019166000191681526020016003546000191660001916815250610f54565b1515610ddd57600080fd5b610e068460736000868152602001908152602001600020600001546110cb90919063ffffffff16565b6073600085815260200190815260200160002060000181905550610e86846073600086815260200190815260200160002060010160008873ffffffffffffffffffffffffffffffffffffffff1673ffffffffffffffffffffffffffffffffffffffff168152602001908152602001600020546110cb90919063ffffffff16565b6073600085815260200190815260200160002060010160008773ffffffffffffffffffffffffffffffffffffffff1673ffffffffffffffffffffffffffffffffffffffff168152602001908152602001600020819055506073600084815260200190815260200160002060010160008673ffffffffffffffffffffffffffffffffffffffff1673ffffffffffffffffffffffffffffffffffffffff16815260200190815260200160002054915060736000848152602001908152602001600020600001549050935093915050565b600080600060039150600090505b818110156110c4576000600102600019168482600381101515610f8157fe5b6020020151600019161415610f95576110b7565b6000809054906101000a900473ffffffffffffffffffffffffffffffffffffffff1673ffffffffffffffffffffffffffffffffffffffff16633f83acff8583600381101515610fe057fe5b60200201516040518263ffffffff167c0100000000000000000000000000000000000000000000000000000000028152600401808260001916600019168152602001915050602060405180830381600087803b15801561103f57600080fd5b505af1158015611053573d6000803e3d6000fd5b505050506040513d602081101561106957600080fd5b810190808051906020019092919050505073ffffffffffffffffffffffffffffffffffffffff163373ffffffffffffffffffffffffffffffffffffffff1614156110b657600192506110c4565b5b8080600101915050610f62565b5050919050565b600081830190508281101515156110de57fe5b80905092915050565b60008282111515156110f557fe5b8183039050929150505600a165627a7a72305820ef7e26122292f4e94f1fa19d13cb06837e130ad463a7bb0d90583946f2af2b2a0029",
  "source": "pragma solidity ^0.4.25;\n\nimport \"@digix/cacp-contracts-dao/contracts/ResolverClient.sol\";\nimport \"../common/DaoConstants.sol\";\n\ncontract DaoPointsStorage is ResolverClient, DaoConstants {\n\n    // struct for a non-transferrable token\n    struct Token {\n        uint256 totalSupply;\n        mapping (address => uint256) balance;\n    }\n\n    // the reputation point token\n    // since reputation is cumulative, we only need to store one value\n    Token reputationPoint;\n\n    // since quarter points are specific to quarters, we need a mapping from\n    // quarter number to the quarter point token for that quarter\n    mapping (uint256 => Token) quarterPoint;\n\n    // the same is the case with quarter moderator points\n    // these are specific to quarters\n    mapping (uint256 => Token) quarterModeratorPoint;\n\n    constructor(address _resolver)\n        public\n    {\n        require(init(CONTRACT_STORAGE_DAO_POINTS, _resolver));\n    }\n\n    /// @notice add quarter points for a _participant for a _quarterNumber\n    function addQuarterPoint(address _participant, uint256 _point, uint256 _quarterNumber)\n        public\n        returns (uint256 _newPoint, uint256 _newTotalPoint)\n    {\n        require(sender_is_from([CONTRACT_DAO_VOTING, CONTRACT_DAO_VOTING_CLAIMS, EMPTY_BYTES]));\n        quarterPoint[_quarterNumber].totalSupply = quarterPoint[_quarterNumber].totalSupply.add(_point);\n        quarterPoint[_quarterNumber].balance[_participant] = quarterPoint[_quarterNumber].balance[_participant].add(_point);\n\n        _newPoint = quarterPoint[_quarterNumber].balance[_participant];\n        _newTotalPoint = quarterPoint[_quarterNumber].totalSupply;\n    }\n\n    function addModeratorQuarterPoint(address _participant, uint256 _point, uint256 _quarterNumber)\n        public\n        returns (uint256 _newPoint, uint256 _newTotalPoint)\n    {\n        require(sender_is_from([CONTRACT_DAO_VOTING, CONTRACT_DAO_VOTING_CLAIMS, EMPTY_BYTES]));\n        quarterModeratorPoint[_quarterNumber].totalSupply = quarterModeratorPoint[_quarterNumber].totalSupply.add(_point);\n        quarterModeratorPoint[_quarterNumber].balance[_participant] = quarterModeratorPoint[_quarterNumber].balance[_participant].add(_point);\n\n        _newPoint = quarterModeratorPoint[_quarterNumber].balance[_participant];\n        _newTotalPoint = quarterModeratorPoint[_quarterNumber].totalSupply;\n    }\n\n    /// @notice get quarter points for a _participant in a _quarterNumber\n    function getQuarterPoint(address _participant, uint256 _quarterNumber)\n        public\n        view\n        returns (uint256 _point)\n    {\n        _point = quarterPoint[_quarterNumber].balance[_participant];\n    }\n\n    function getQuarterModeratorPoint(address _participant, uint256 _quarterNumber)\n        public\n        view\n        returns (uint256 _point)\n    {\n        _point = quarterModeratorPoint[_quarterNumber].balance[_participant];\n    }\n\n    /// @notice get total quarter points for a particular _quarterNumber\n    function getTotalQuarterPoint(uint256 _quarterNumber)\n        public\n        view\n        returns (uint256 _totalPoint)\n    {\n        _totalPoint = quarterPoint[_quarterNumber].totalSupply;\n    }\n\n    function getTotalQuarterModeratorPoint(uint256 _quarterNumber)\n        public\n        view\n        returns (uint256 _totalPoint)\n    {\n        _totalPoint = quarterModeratorPoint[_quarterNumber].totalSupply;\n    }\n\n    /// @notice add reputation points for a _participant\n    function increaseReputation(address _participant, uint256 _point)\n        public\n        returns (uint256 _newPoint, uint256 _totalPoint)\n    {\n        require(sender_is_from([CONTRACT_DAO_VOTING_CLAIMS, CONTRACT_DAO_REWARDS_MANAGER, CONTRACT_DAO_STAKE_LOCKING]));\n        reputationPoint.totalSupply = reputationPoint.totalSupply.add(_point);\n        reputationPoint.balance[_participant] = reputationPoint.balance[_participant].add(_point);\n\n        _newPoint = reputationPoint.balance[_participant];\n        _totalPoint = reputationPoint.totalSupply;\n    }\n\n    /// @notice subtract reputation points for a _participant\n    function reduceReputation(address _participant, uint256 _point)\n        public\n        returns (uint256 _newPoint, uint256 _totalPoint)\n    {\n        require(sender_is_from([CONTRACT_DAO_VOTING_CLAIMS, CONTRACT_DAO_REWARDS_MANAGER, EMPTY_BYTES]));\n        uint256 _toDeduct = _point;\n        if (reputationPoint.balance[_participant] > _point) {\n            reputationPoint.balance[_participant] = reputationPoint.balance[_participant].sub(_point);\n        } else {\n            _toDeduct = reputationPoint.balance[_participant];\n            reputationPoint.balance[_participant] = 0;\n        }\n\n        reputationPoint.totalSupply = reputationPoint.totalSupply.sub(_toDeduct);\n\n        _newPoint = reputationPoint.balance[_participant];\n        _totalPoint = reputationPoint.totalSupply;\n    }\n\n  /// @notice get reputation points for a _participant\n  function getReputation(address _participant)\n      public\n      view\n      returns (uint256 _point)\n  {\n      _point = reputationPoint.balance[_participant];\n  }\n\n  /// @notice get total reputation points distributed in the dao\n  function getTotalReputation()\n      public\n      view\n      returns (uint256 _totalPoint)\n  {\n      _totalPoint = reputationPoint.totalSupply;\n  }\n}\n",
  "sourcePath": "/home/rohit/Develop/dao-contracts/contracts/storage/DaoPointsStorage.sol",
  "compiler": {
    "name": "solc",
    "version": "0.4.25+commit.59dbf8f1.Emscripten.clang"
  },
  "schemaVersion": "2.0.1",
  "updatedAt": "2019-01-18T07:00:33.872Z"
}