{
  "contractName": "DaoRewardsManagerExtras",
  "abi": [
    {
      "constant": true,
      "inputs": [],
      "name": "resolver",
      "outputs": [
        {
          "name": "",
          "type": "address"
        }
      ],
      "payable": false,
      "stateMutability": "view",
      "type": "function"
    },
    {
      "constant": true,
      "inputs": [],
      "name": "key",
      "outputs": [
        {
          "name": "",
          "type": "bytes32"
        }
      ],
      "payable": false,
      "stateMutability": "view",
      "type": "function"
    },
    {
      "constant": true,
      "inputs": [
        {
          "name": "_key",
          "type": "bytes32"
        }
      ],
      "name": "get_contract",
      "outputs": [
        {
          "name": "_contract",
          "type": "address"
        }
      ],
      "payable": false,
      "stateMutability": "view",
      "type": "function"
    },
    {
      "constant": true,
      "inputs": [],
      "name": "currentTimeInQuarter",
      "outputs": [
        {
          "name": "_currentT",
          "type": "uint256"
        }
      ],
      "payable": false,
      "stateMutability": "view",
      "type": "function"
    },
    {
      "constant": true,
      "inputs": [],
      "name": "isMainPhase",
      "outputs": [
        {
          "name": "_isMainPhase",
          "type": "bool"
        }
      ],
      "payable": false,
      "stateMutability": "view",
      "type": "function"
    },
    {
      "constant": true,
      "inputs": [],
      "name": "isLockingPhase",
      "outputs": [
        {
          "name": "_isLockingPhase",
          "type": "bool"
        }
      ],
      "payable": false,
      "stateMutability": "view",
      "type": "function"
    },
    {
      "constant": true,
      "inputs": [],
      "name": "currentQuarterNumber",
      "outputs": [
        {
          "name": "_quarterNumber",
          "type": "uint256"
        }
      ],
      "payable": false,
      "stateMutability": "view",
      "type": "function"
    },
    {
      "constant": true,
      "inputs": [
        {
          "name": "_configKey",
          "type": "bytes32"
        }
      ],
      "name": "getUintConfig",
      "outputs": [
        {
          "name": "_configValue",
          "type": "uint256"
        }
      ],
      "payable": false,
      "stateMutability": "view",
      "type": "function"
    },
    {
      "constant": true,
      "inputs": [],
      "name": "isDaoNotReplaced",
      "outputs": [
        {
          "name": "_isNotReplaced",
          "type": "bool"
        }
      ],
      "payable": false,
      "stateMutability": "view",
      "type": "function"
    },
    {
      "constant": true,
      "inputs": [],
      "name": "CONTRACT_ADDRESS",
      "outputs": [
        {
          "name": "",
          "type": "address"
        }
      ],
      "payable": false,
      "stateMutability": "view",
      "type": "function"
    },
    {
      "inputs": [
        {
          "name": "_resolver",
          "type": "address"
        }
      ],
      "payable": false,
      "stateMutability": "nonpayable",
      "type": "constructor"
    },
    {
      "constant": true,
      "inputs": [
        {
          "name": "_user",
          "type": "address"
        }
      ],
      "name": "calculateUserRewardsForLastParticipatingQuarter",
      "outputs": [
        {
          "name": "_dgxRewardsAsParticipant",
          "type": "uint256"
        },
        {
          "name": "_dgxRewardsAsModerator",
          "type": "uint256"
        }
      ],
      "payable": false,
      "stateMutability": "view",
      "type": "function"
    }
  ],
  "bytecode": "0x608060405260006001026003906000191690556000600460006101000a81548173ffffffffffffffffffffffffffffffffffffffff021916908373ffffffffffffffffffffffffffffffffffffffff1602179055507f70726f706f73616c5f73746174655f70726570726f706f73616c0000000000006005906000191690557f70726f706f73616c5f73746174655f64726166740000000000000000000000006006906000191690557f70726f706f73616c5f73746174655f6d6f6465726174656400000000000000006007906000191690557f70726f706f73616c5f73746174655f6f6e676f696e67000000000000000000006008906000191690557f70726f706f73616c5f73746174655f636c6f73656400000000000000000000006009906000191690557f70726f706f73616c5f73746174655f6172636869766564000000000000000000600a906000191690556001600b556002600c556003600d556001600e556002600f5560036010557f696e7465725f6467645f696400000000000000000000000000000000000000006011906000191690557f696e7465725f6d6f645f6467645f6964000000000000000000000000000000006012906000191690557f696e7465725f626f6e75735f63616c63756c6174696f6e5f69640000000000006013906000191690557f64616f00000000000000000000000000000000000000000000000000000000006014906000191690557f64616f3a7370656369616c3a70726f706f73616c0000000000000000000000006015906000191690557f64616f3a7374616b652d6c6f636b696e670000000000000000000000000000006016906000191690557f64616f3a766f74696e67000000000000000000000000000000000000000000006017906000191690557f64616f3a766f74696e673a636c61696d730000000000000000000000000000006018906000191690557f64616f3a73766f74696e673a636c61696d7300000000000000000000000000006019906000191690557f64616f3a6964656e746974790000000000000000000000000000000000000000601a906000191690557f64616f3a726577617264732d6d616e6167657200000000000000000000000000601b906000191690557f64616f3a726577617264732d6578747261730000000000000000000000000000601c906000191690557f64616f3a726f6c65730000000000000000000000000000000000000000000000601d906000191690557f64616f3a66756e64696e672d6d616e6167657200000000000000000000000000601e906000191690557f64616f3a77686974656c697374696e6700000000000000000000000000000000601f906000191690557f64616f3a696e666f726d6174696f6e00000000000000000000000000000000006020906000191690557f736572766963653a726f6c6500000000000000000000000000000000000000006021906000191690557f736572766963653a64616f3a696e666f000000000000000000000000000000006022906000191690557f736572766963653a64616f3a6c697374696e67000000000000000000000000006023906000191690557f736572766963653a64616f3a63616c63756c61746f72000000000000000000006024906000191690557f73746f726167653a64616f0000000000000000000000000000000000000000006025906000191690557f73746f726167653a64616f3a636f756e746572000000000000000000000000006026906000191690557f73746f726167653a64616f3a75706772616465000000000000000000000000006027906000191690557f73746f726167653a64616f3a6964656e746974790000000000000000000000006028906000191690557f73746f726167653a64616f3a706f696e747300000000000000000000000000006029906000191690557f73746f726167653a64616f3a7370656369616c00000000000000000000000000602a906000191690557f73746f726167653a64616f3a636f6e6669670000000000000000000000000000602b906000191690557f73746f726167653a64616f3a7374616b65000000000000000000000000000000602c906000191690557f73746f726167653a64616f3a7265776172647300000000000000000000000000602d906000191690557f73746f726167653a64616f3a77686974656c697374696e670000000000000000602e906000191690557f73746f726167653a696e7465726d6564696174653a726573756c747300000000602f906000191690557f743a6467640000000000000000000000000000000000000000000000000000006030906000191690557f743a6467780000000000000000000000000000000000000000000000000000006031906000191690557f743a6261646765000000000000000000000000000000000000000000000000006032906000191690556001603360006101000a81548160ff021916908360ff1602179055506002603360016101000a81548160ff021916908360ff1602179055506003603360026101000a81548160ff021916908360ff1602179055506004603360036101000a81548160ff021916908360ff1602179055506276a7006034557f6d696e5f6467645f7061727469636970616e74000000000000000000000000006035906000191690557f6d696e5f6467645f6d6f64657261746f720000000000000000000000000000006036906000191690557f6d696e5f72657075746174696f6e5f6d6f64657261746f7200000000000000006037906000191690557f6c6f636b696e675f70686173655f6475726174696f6e000000000000000000006038906000191690557f717561727465725f6475726174696f6e000000000000000000000000000000006039906000191690557f766f74696e675f636f6d6d69745f706861736500000000000000000000000000603a906000191690557f766f74696e675f70686173655f746f74616c0000000000000000000000000000603b906000191690557f696e746572696d5f766f74696e675f636f6d6d69745f70686173650000000000603c906000191690557f696e746572696d5f766f74696e675f70686173655f746f74616c000000000000603d906000191690557f64726166745f71756f72756d5f66697865645f6e756d657261746f7200000000603e906000191690557f64726166745f71756f72756d5f66697865645f64656e6f6d696e61746f720000603f906000191690557f64726166745f71756f72756d5f73666163746f725f6e756d657261746f7200006040906000191690557f64726166745f71756f72756d5f73666163746f725f64656e6f6d696e61746f726041906000191690557f766f74655f71756f72756d5f66697865645f6e756d657261746f7200000000006042906000191690557f766f74655f71756f72756d5f66697865645f64656e6f6d696e61746f720000006043906000191690557f766f74655f71756f72756d5f73666163746f725f6e756d657261746f720000006044906000191690557f766f74655f71756f72756d5f73666163746f725f64656e6f6d696e61746f72006045906000191690557f66696e616c5f7265776172645f73666163746f725f6e756d657261746f7200006046906000191690557f66696e616c5f7265776172645f73666163746f725f64656e6f6d696e61746f726047906000191690557f64726166745f71756f74615f6e756d657261746f7200000000000000000000006048906000191690557f64726166745f71756f74615f64656e6f6d696e61746f720000000000000000006049906000191690557f766f74696e675f71756f74615f6e756d657261746f7200000000000000000000604a906000191690557f766f74696e675f71756f74615f64656e6f6d696e61746f720000000000000000604b906000191690557f6d696e696d616c5f717000000000000000000000000000000000000000000000604c906000191690557f717561727465725f706f696e745f7363616c696e675f666163746f7200000000604d906000191690557f7265705f706f696e745f7363616c696e675f666163746f720000000000000000604e906000191690557f6d696e696d616c5f6d6f645f7170000000000000000000000000000000000000604f906000191690557f6d6f645f71705f7363616c696e675f666163746f7200000000000000000000006050906000191690557f6d6f645f7265705f706f696e745f7363616c696e675f666163746f72000000006051906000191690557f717561727465725f706f696e745f64726166745f766f746500000000000000006052906000191690557f717561727465725f706f696e745f766f746500000000000000000000000000006053906000191690557f717561727465725f706f696e745f696e746572696d5f766f74650000000000006054906000191690557f715f705f6d696c6573746f6e655f636f6d706c6574696f6e00000000000000006055906000191690557f626f6e75735f72657075746174696f6e5f6e756d657261746f720000000000006056906000191690557f626f6e75735f72657075746174696f6e5f64656e6f6d696e61746f72000000006057906000191690557f7370656369616c5f70726f706f73616c5f636f6d6d69745f70686173650000006058906000191690557f7370656369616c5f70726f706f73616c5f70686173655f746f74616c000000006059906000191690557f636f6e6669675f7370656369616c5f71756f74615f6e756d657261746f720000605a906000191690557f636f6e6669675f7370656369616c5f71756f74615f64656e6f6d696e61746f72605b906000191690557f7370656369616c5f71756f72756d5f6e756d657261746f720000000000000000605c906000191690557f7370656369616c5f71756f72756d5f64656e6f6d696e61746f72000000000000605d906000191690557f636f6e6669675f6d61785f72657075746174696f6e5f646564756374696f6e00605e906000191690557f636f6e6669675f70756e6973686d656e745f6e6f745f6c6f636b696e67000000605f906000191690557f636f6e6669675f7265705f7065725f65787472615f71705f6e756d00000000006060906000191690557f636f6e6669675f7265705f7065725f65787472615f71705f64656e00000000006061906000191690557f636f6e6669675f6d61785f6d5f72705f646564756374696f6e000000000000006062906000191690557f636f6e6669675f7265705f7065725f65787472615f6d5f71705f6e756d0000006063906000191690557f636f6e6669675f7265705f7065725f65787472615f6d5f71705f64656e0000006064906000191690557f636f6e6669675f6d6f645f706f7274696f6e5f6e756d000000000000000000006065906000191690557f636f6e6669675f6d6f645f706f7274696f6e5f64656e000000000000000000006066906000191690557f636f6e6669675f64726166745f766f74696e675f7068617365000000000000006067906000191690557f636f6e6669675f72705f626f6f73745f7065725f6261646765000000000000006068906000191690557f636f6e6669675f636c61696d696e675f646561646c696e6500000000000000006069906000191690557f636f6e6669675f70726570726f706f73616c5f636f6c6c61746572616c000000606a906000191690557f636f6e6669675f6d61785f66756e64696e675f6e6f6e44696769780000000000606b906000191690557f636f6e6669675f6d61785f6d696c6573746f6e65735f6e6f6e44696769780000606c906000191690557f636f6e6669675f6e6f6e44696769785f70726f706f73616c5f63617000000000606d906000191690557f636f6e6669675f646561645f6475726174696f6e000000000000000000000000606e906000191690557f636f6e6669675f63765f72657075746174696f6e000000000000000000000000606f906000191690553480156200113457600080fd5b50604051602080620031118339810180604052810190808051906020019092919050505062001175601c548262001188640100000000026401000000009004565b15156200118157600080fd5b5062001419565b6000808273ffffffffffffffffffffffffffffffffffffffff16636d19a8826040518163ffffffff167c0100000000000000000000000000000000000000000000000000000000028152600401602060405180830381600087803b158015620011f057600080fd5b505af115801562001205573d6000803e3d6000fd5b505050506040513d60208110156200121c57600080fd5b810190808051906020019092919050505090506000151581151514156200140d5730600260006101000a81548173ffffffffffffffffffffffffffffffffffffffff021916908373ffffffffffffffffffffffffffffffffffffffff160217905550826000806101000a81548173ffffffffffffffffffffffffffffffffffffffff021916908373ffffffffffffffffffffffffffffffffffffffff16021790555083600181600019169055506000809054906101000a900473ffffffffffffffffffffffffffffffffffffffff1673ffffffffffffffffffffffffffffffffffffffff1663c0f6ef4a600154600260009054906101000a900473ffffffffffffffffffffffffffffffffffffffff166040518363ffffffff167c01000000000000000000000000000000000000000000000000000000000281526004018083600019166000191681526020018273ffffffffffffffffffffffffffffffffffffffff1673ffffffffffffffffffffffffffffffffffffffff16815260200192505050602060405180830381600087803b158015620013ba57600080fd5b505af1158015620013cf573d6000803e3d6000fd5b505050506040513d6020811015620013e657600080fd5b810190808051906020019092919050505015156200140357600080fd5b6001915062001412565b600091505b5092915050565b611ce880620014296000396000f3006080604052600436106100af576000357c0100000000000000000000000000000000000000000000000000000000900463ffffffff16806304f3bcec146100b45780633943380c1461010b5780633f83acff1461013e578063560a25ea146101af57806368533060146101da5780637d6fed80146102095780637f6a26b614610238578063b1e2b9dd14610263578063d70d9358146102a8578063db4ecbc1146102d7578063fd56ff831461032e575b600080fd5b3480156100c057600080fd5b506100c961038c565b604051808273ffffffffffffffffffffffffffffffffffffffff1673ffffffffffffffffffffffffffffffffffffffff16815260200191505060405180910390f35b34801561011757600080fd5b506101206103b1565b60405180826000191660001916815260200191505060405180910390f35b34801561014a57600080fd5b5061016d60048036038101908080356000191690602001909291905050506103b7565b604051808273ffffffffffffffffffffffffffffffffffffffff1673ffffffffffffffffffffffffffffffffffffffff16815260200191505060405180910390f35b3480156101bb57600080fd5b506101c4610493565b6040518082815260200191505060405180910390f35b3480156101e657600080fd5b506101ef6104a3565b604051808215151515815260200191505060405180910390f35b34801561021557600080fd5b5061021e6104cf565b604051808215151515815260200191505060405180910390f35b34801561024457600080fd5b5061024d6104ea565b6040518082815260200191505060405180910390f35b34801561026f57600080fd5b5061029260048036038101908080356000191690602001909291905050506104fa565b6040518082815260200191505060405180910390f35b3480156102b457600080fd5b506102bd6105bc565b604051808215151515815260200191505060405180910390f35b3480156102e357600080fd5b506102ec61066a565b604051808273ffffffffffffffffffffffffffffffffffffffff1673ffffffffffffffffffffffffffffffffffffffff16815260200191505060405180910390f35b34801561033a57600080fd5b5061036f600480360381019080803573ffffffffffffffffffffffffffffffffffffffff169060200190929190505050610690565b604051808381526020018281526020019250505060405180910390f35b6000809054906101000a900473ffffffffffffffffffffffffffffffffffffffff1681565b60015481565b60008060009054906101000a900473ffffffffffffffffffffffffffffffffffffffff1673ffffffffffffffffffffffffffffffffffffffff16633f83acff836040518263ffffffff167c0100000000000000000000000000000000000000000000000000000000028152600401808260001916600019168152602001915050602060405180830381600087803b15801561045157600080fd5b505af1158015610465573d6000803e3d6000fd5b505050506040513d602081101561047b57600080fd5b81019080805190602001909291905050509050919050565b600061049e42611380565b905090565b60006104ad6105bc565b80156104ca57506104bf6038546104fa565b6104c7610493565b10155b905090565b60006104dc6038546104fa565b6104e4610493565b10905090565b60006104f542611469565b905090565b600061050461156c565b73ffffffffffffffffffffffffffffffffffffffff1663734c1168836040518263ffffffff167c0100000000000000000000000000000000000000000000000000000000028152600401808260001916600019168152602001915050602060405180830381600087803b15801561057a57600080fd5b505af115801561058e573d6000803e3d6000fd5b505050506040513d60208110156105a457600080fd5b81019080805190602001909291905050509050919050565b60006105c661157e565b73ffffffffffffffffffffffffffffffffffffffff16638bc865fd6040518163ffffffff167c0100000000000000000000000000000000000000000000000000000000028152600401602060405180830381600087803b15801561062957600080fd5b505af115801561063d573d6000803e3d6000fd5b505050506040513d602081101561065357600080fd5b810190808051906020019092919050505015905090565b600260009054906101000a900473ffffffffffffffffffffffffffffffffffffffff1681565b60008061069b611bcf565b6106a484611590565b90506106ae61177e565b73ffffffffffffffffffffffffffffffffffffffff166370ae8f5c8260800151600001518360800151602001518460800151604001516106ec611790565b73ffffffffffffffffffffffffffffffffffffffff166393383c518a88600001516040518363ffffffff167c0100000000000000000000000000000000000000000000000000000000028152600401808373ffffffffffffffffffffffffffffffffffffffff1673ffffffffffffffffffffffffffffffffffffffff16815260200182815260200192505050602060405180830381600087803b15801561079257600080fd5b505af11580156107a6573d6000803e3d6000fd5b505050506040513d60208110156107bc57600080fd5b81019080805190602001909291905050506107d5611790565b73ffffffffffffffffffffffffffffffffffffffff16639c89a0e28b6040518263ffffffff167c0100000000000000000000000000000000000000000000000000000000028152600401808273ffffffffffffffffffffffffffffffffffffffff1673ffffffffffffffffffffffffffffffffffffffff168152602001915050602060405180830381600087803b15801561086f57600080fd5b505af1158015610883573d6000803e3d6000fd5b505050506040513d602081101561089957600080fd5b81019080805190602001909291905050506108b26117a2565b73ffffffffffffffffffffffffffffffffffffffff1663cd094a278c6040518263ffffffff167c0100000000000000000000000000000000000000000000000000000000028152600401808273ffffffffffffffffffffffffffffffffffffffff1673ffffffffffffffffffffffffffffffffffffffff168152602001915050602060405180830381600087803b15801561094c57600080fd5b505af1158015610960573d6000803e3d6000fd5b505050506040513d602081101561097657600080fd5b81019080805190602001909291905050506040518763ffffffff167c0100000000000000000000000000000000000000000000000000000000028152600401808781526020018681526020018581526020018481526020018381526020018281526020019650505050505050602060405180830381600087803b1580156109fc57600080fd5b505af1158015610a10573d6000803e3d6000fd5b505050506040513d6020811015610a2657600080fd5b8101908080519060200190929190505050816040018181525050610a4861177e565b73ffffffffffffffffffffffffffffffffffffffff166370ae8f5c826080015160800151836080015160a00151846080015160c00151610a86611790565b73ffffffffffffffffffffffffffffffffffffffff1663a5a9f5bb8a88600001516040518363ffffffff167c0100000000000000000000000000000000000000000000000000000000028152600401808373ffffffffffffffffffffffffffffffffffffffff1673ffffffffffffffffffffffffffffffffffffffff16815260200182815260200192505050602060405180830381600087803b158015610b2c57600080fd5b505af1158015610b40573d6000803e3d6000fd5b505050506040513d6020811015610b5657600080fd5b8101908080519060200190929190505050610b6f611790565b73ffffffffffffffffffffffffffffffffffffffff16639c89a0e28b6040518263ffffffff167c0100000000000000000000000000000000000000000000000000000000028152600401808273ffffffffffffffffffffffffffffffffffffffff1673ffffffffffffffffffffffffffffffffffffffff168152602001915050602060405180830381600087803b158015610c0957600080fd5b505af1158015610c1d573d6000803e3d6000fd5b505050506040513d6020811015610c3357600080fd5b8101908080519060200190929190505050610c4c6117a2565b73ffffffffffffffffffffffffffffffffffffffff1663cd094a278c6040518263ffffffff167c0100000000000000000000000000000000000000000000000000000000028152600401808273ffffffffffffffffffffffffffffffffffffffff1673ffffffffffffffffffffffffffffffffffffffff168152602001915050602060405180830381600087803b158015610ce657600080fd5b505af1158015610cfa573d6000803e3d6000fd5b505050506040513d6020811015610d1057600080fd5b81019080805190602001909291905050506040518763ffffffff167c0100000000000000000000000000000000000000000000000000000000028152600401808781526020018681526020018581526020018481526020018381526020018281526020019650505050505050602060405180830381600087803b158015610d9657600080fd5b505af1158015610daa573d6000803e3d6000fd5b505050506040513d6020811015610dc057600080fd5b81019080805190602001909291905050508160600181815250506000610de46117b4565b73ffffffffffffffffffffffffffffffffffffffff1663fedf9453610e17600185600001516117c690919063ffffffff16565b6040518263ffffffff167c010000000000000000000000000000000000000000000000000000000002815260040180828152602001915050602060405180830381600087803b158015610e6957600080fd5b505af1158015610e7d573d6000803e3d6000fd5b505050506040513d6020811015610e9357600080fd5b810190808051906020019092919050505011156110b8576110b5610eb86066546104fa565b6110a7610ec36117b4565b73ffffffffffffffffffffffffffffffffffffffff1663fedf9453610ef6600187600001516117c690919063ffffffff16565b6040518263ffffffff167c010000000000000000000000000000000000000000000000000000000002815260040180828152602001915050602060405180830381600087803b158015610f4857600080fd5b505af1158015610f5c573d6000803e3d6000fd5b505050506040513d6020811015610f7257600080fd5b8101908080519060200190929190505050611099610fad610f946065546104fa565b610f9f6066546104fa565b6117e290919063ffffffff16565b61108b610fb86117b4565b73ffffffffffffffffffffffffffffffffffffffff1663bb80203e610feb60018b600001516117c690919063ffffffff16565b6040518263ffffffff167c010000000000000000000000000000000000000000000000000000000002815260040180828152602001915050602060405180830381600087803b15801561103d57600080fd5b505af1158015611051573d6000803e3d6000fd5b505050506040513d602081101561106757600080fd5b810190808051906020019092919050505088604001516117fb90919063ffffffff16565b6117fb90919063ffffffff16565b61183390919063ffffffff16565b61183390919063ffffffff16565b92505b60006110c26117b4565b73ffffffffffffffffffffffffffffffffffffffff16630f491b116110f5600185600001516117c690919063ffffffff16565b6040518263ffffffff167c010000000000000000000000000000000000000000000000000000000002815260040180828152602001915050602060405180830381600087803b15801561114757600080fd5b505af115801561115b573d6000803e3d6000fd5b505050506040513d602081101561117157600080fd5b8101908080519060200190929190505050111561137a576113776111966066546104fa565b6113696111a16117b4565b73ffffffffffffffffffffffffffffffffffffffff16630f491b116111d4600187600001516117c690919063ffffffff16565b6040518263ffffffff167c010000000000000000000000000000000000000000000000000000000002815260040180828152602001915050602060405180830381600087803b15801561122657600080fd5b505af115801561123a573d6000803e3d6000fd5b505050506040513d602081101561125057600080fd5b810190808051906020019092919050505061135b61126f6065546104fa565b61134d61127a6117b4565b73ffffffffffffffffffffffffffffffffffffffff1663bb80203e6112ad60018b600001516117c690919063ffffffff16565b6040518263ffffffff167c010000000000000000000000000000000000000000000000000000000002815260040180828152602001915050602060405180830381600087803b1580156112ff57600080fd5b505af1158015611313573d6000803e3d6000fd5b505050506040513d602081101561132957600080fd5b810190808051906020019092919050505088606001516117fb90919063ffffffff16565b6117fb90919063ffffffff16565b61183390919063ffffffff16565b61183390919063ffffffff16565b91505b50915091565b600061138a611849565b151561139557600080fd5b6113a06039546104fa565b6114586113ab61157e565b73ffffffffffffffffffffffffffffffffffffffff1663d9c6bb206040518163ffffffff167c0100000000000000000000000000000000000000000000000000000000028152600401602060405180830381600087803b15801561140e57600080fd5b505af1158015611422573d6000803e3d6000fd5b505050506040513d602081101561143857600080fd5b8101908080519060200190929190505050846117e290919063ffffffff16565b81151561146157fe5b069050919050565b6000611473611849565b151561147e57600080fd5b61156560016115576114916039546104fa565b61154961149c61157e565b73ffffffffffffffffffffffffffffffffffffffff1663d9c6bb206040518163ffffffff167c0100000000000000000000000000000000000000000000000000000000028152600401602060405180830381600087803b1580156114ff57600080fd5b505af1158015611513573d6000803e3d6000fd5b505050506040513d602081101561152957600080fd5b8101908080519060200190929190505050876117e290919063ffffffff16565b61183390919063ffffffff16565b6117c690919063ffffffff16565b9050919050565b6000611579602b546103b7565b905090565b600061158b6027546103b7565b905090565b611598611bcf565b6115a06117b4565b73ffffffffffffffffffffffffffffffffffffffff1663cefc2bff836040518263ffffffff167c0100000000000000000000000000000000000000000000000000000000028152600401808273ffffffffffffffffffffffffffffffffffffffff1673ffffffffffffffffffffffffffffffffffffffff168152602001915050602060405180830381600087803b15801561163a57600080fd5b505af115801561164e573d6000803e3d6000fd5b505050506040513d602081101561166457600080fd5b81019080805190602001909291905050508160000181815250506116866117b4565b73ffffffffffffffffffffffffffffffffffffffff166327ddd3ae836040518263ffffffff167c0100000000000000000000000000000000000000000000000000000000028152600401808273ffffffffffffffffffffffffffffffffffffffff1673ffffffffffffffffffffffffffffffffffffffff168152602001915050602060405180830381600087803b15801561172057600080fd5b505af1158015611734573d6000803e3d6000fd5b505050506040513d602081101561174a57600080fd5b810190808051906020019092919050505081602001818152505061177181600001516118f9565b8160800181905250919050565b600061178b6024546103b7565b905090565b600061179d6029546103b7565b905090565b60006117af602c546103b7565b905090565b60006117c1602d546103b7565b905090565b600081830190508281101515156117d957fe5b80905092915050565b60008282111515156117f057fe5b818303905092915050565b60008083141561180e576000905061182d565b818302905081838281151561181f57fe5b0414151561182957fe5b8090505b92915050565b6000818381151561184057fe5b04905092915050565b60008061185461157e565b73ffffffffffffffffffffffffffffffffffffffff1663d9c6bb206040518163ffffffff167c0100000000000000000000000000000000000000000000000000000000028152600401602060405180830381600087803b1580156118b757600080fd5b505af11580156118cb573d6000803e3d6000fd5b505050506040513d60208110156118e157600080fd5b81019080805190602001909291905050501415905090565b611901611c06565b6119096117b4565b73ffffffffffffffffffffffffffffffffffffffff166362961de9836040518263ffffffff167c010000000000000000000000000000000000000000000000000000000002815260040180828152602001915050608060405180830381600087803b15801561197757600080fd5b505af115801561198b573d6000803e3d6000fd5b505050506040513d60808110156119a157600080fd5b81019080805190602001909291908051906020019092919080519060200190929190805190602001909291905050508460000185602001866040018760600184815250848152508481525084815250505050506119fc6117b4565b73ffffffffffffffffffffffffffffffffffffffff1663a301c0d2836040518263ffffffff167c010000000000000000000000000000000000000000000000000000000002815260040180828152602001915050608060405180830381600087803b158015611a6a57600080fd5b505af1158015611a7e573d6000803e3d6000fd5b505050506040513d6080811015611a9457600080fd5b8101908080519060200190929190805190602001909291908051906020019092919080519060200190929190505050846080018560a0018660c0018760e0018481525084815250848152508481525050505050611aef6117b4565b73ffffffffffffffffffffffffffffffffffffffff1663cf542aa9836040518263ffffffff167c010000000000000000000000000000000000000000000000000000000002815260040180828152602001915050606060405180830381600087803b158015611b5d57600080fd5b505af1158015611b71573d6000803e3d6000fd5b505050506040513d6060811015611b8757600080fd5b81019080805190602001909291908051906020019092919080519060200190929190505050836101000184610120018561014001838152508381525083815250505050919050565b6101e06040519081016040528060008152602001600081526020016000815260200160008152602001611c00611c61565b81525090565b6101606040519081016040528060008152602001600081526020016000815260200160008152602001600081526020016000815260200160008152602001600081526020016000815260200160008152602001600081525090565b61016060405190810160405280600081526020016000815260200160008152602001600081526020016000815260200160008152602001600081526020016000815260200160008152602001600081526020016000815250905600a165627a7a72305820a3c415e28feb96076caa9bf2fafc8de9ef2fb82feb527c6a41d431b485ac9a310029",
  "source": "pragma solidity ^0.4.25;\n\nimport \"../common/DaoRewardsManagerCommon.sol\";\nimport \"../service/DaoCalculatorService.sol\";\n\ncontract DaoRewardsManagerExtras is DaoRewardsManagerCommon {\n\n    constructor(address _resolver) public {\n        require(init(CONTRACT_DAO_REWARDS_MANAGER_EXTRAS, _resolver));\n    }\n\n    function daoCalculatorService()\n        internal\n        view\n        returns (DaoCalculatorService _contract)\n    {\n        _contract = DaoCalculatorService(get_contract(CONTRACT_SERVICE_DAO_CALCULATOR));\n    }\n\n    // done\n    // calculate dgx rewards; This is basically the DGXs that user has earned from participating in lastParticipatedQuarter, and can be withdrawn on the dgxDistributionDay of the (lastParticipatedQuarter + 1)\n    // when user actually withdraw some time after that, he will be deducted demurrage.\n    function calculateUserRewardsForLastParticipatingQuarter(address _user)\n        public\n        view\n        returns (uint256 _dgxRewardsAsParticipant, uint256 _dgxRewardsAsModerator)\n    {\n        UserRewards memory data = getUserRewardsStruct(_user);\n\n        data.effectiveDGDBalance = daoCalculatorService().calculateUserEffectiveBalance(\n            data.qInfo.minimalParticipationPoint,\n            data.qInfo.quarterPointScalingFactor,\n            data.qInfo.reputationPointScalingFactor,\n            daoPointsStorage().getQuarterPoint(_user, data.lastParticipatedQuarter),\n\n            // RP has been updated at the beginning of the lastParticipatedQuarter in\n            // a call to updateRewardsAndReputationBeforeNewQuarter(); It should not have changed since then\n            daoPointsStorage().getReputation(_user),\n\n            // lockedDGDStake should have stayed the same throughout since the lastParticipatedQuarter\n            // if this participant has done anything (lock/unlock/continue) to change the lockedDGDStake,\n            // updateUserRewardsForLastParticipatingQuarter, and hence this function, would have been called first before the lockedDGDStake is changed\n            daoStakeStorage().lockedDGDStake(_user)\n        );\n\n        data.effectiveModeratorDGDBalance = daoCalculatorService().calculateUserEffectiveBalance(\n            data.qInfo.moderatorMinimalParticipationPoint,\n            data.qInfo.moderatorQuarterPointScalingFactor,\n            data.qInfo.moderatorReputationPointScalingFactor,\n            daoPointsStorage().getQuarterModeratorPoint(_user, data.lastParticipatedQuarter),\n\n            // RP has been updated at the beginning of the lastParticipatedQuarter in\n            // a call to updateRewardsAndReputationBeforeNewQuarter();\n            daoPointsStorage().getReputation(_user),\n\n            // lockedDGDStake should have stayed the same throughout since the lastParticipatedQuarter\n            // if this participant has done anything (lock/unlock/continue) to change the lockedDGDStake,\n            // updateUserRewardsForLastParticipatingQuarter would have been called first before the lockedDGDStake is changed\n            daoStakeStorage().lockedDGDStake(_user)\n        );\n\n        // will not need to calculate if the totalEffectiveDGDLastQuarter is 0 (no one participated)\n        if (daoRewardsStorage().readTotalEffectiveDGDLastQuarter(data.lastParticipatedQuarter.add(1)) > 0) {\n            _dgxRewardsAsParticipant =\n                data.effectiveDGDBalance\n                .mul(daoRewardsStorage().readRewardsPoolOfLastQuarter(\n                    data.lastParticipatedQuarter.add(1)\n                ))\n                .mul(\n                    getUintConfig(CONFIG_PORTION_TO_MODERATORS_DEN)\n                    .sub(getUintConfig(CONFIG_PORTION_TO_MODERATORS_NUM))\n                )\n                .div(daoRewardsStorage().readTotalEffectiveDGDLastQuarter(\n                    data.lastParticipatedQuarter.add(1)\n                ))\n                .div(getUintConfig(CONFIG_PORTION_TO_MODERATORS_DEN));\n        }\n\n        // will not need to calculate if the totalEffectiveModeratorDGDLastQuarter is 0 (no one participated)\n        if (daoRewardsStorage().readTotalEffectiveModeratorDGDLastQuarter(data.lastParticipatedQuarter.add(1)) > 0) {\n            _dgxRewardsAsModerator =\n                data.effectiveModeratorDGDBalance\n                .mul(daoRewardsStorage().readRewardsPoolOfLastQuarter(\n                    data.lastParticipatedQuarter.add(1)\n                ))\n                .mul(\n                     getUintConfig(CONFIG_PORTION_TO_MODERATORS_NUM)\n                )\n                .div(daoRewardsStorage().readTotalEffectiveModeratorDGDLastQuarter(\n                    data.lastParticipatedQuarter.add(1)\n                ))\n                .div(getUintConfig(CONFIG_PORTION_TO_MODERATORS_DEN));\n        }\n    }\n}\n",
  "sourcePath": "/Users/aeufemio/projects/dgx/contracts/dao-contracts/contracts/interactive/DaoRewardsManagerExtras.sol",
  "compiler": {
    "name": "solc",
    "version": "0.4.25+commit.59dbf8f1.Emscripten.clang"
  },
  "schemaVersion": "2.0.2",
  "updatedAt": "2020-03-16T08:53:49.784Z"
}