{
  "contractName": "DaoRewardsStorage",
  "abi": [
    {
      "constant": true,
      "inputs": [],
      "name": "resolver",
      "outputs": [
        {
          "name": "",
          "type": "address"
        }
      ],
      "payable": false,
      "stateMutability": "view",
      "type": "function"
    },
    {
      "constant": true,
      "inputs": [
        {
          "name": "",
          "type": "address"
        }
      ],
      "name": "lastQuarterThatRewardsWasUpdated",
      "outputs": [
        {
          "name": "",
          "type": "uint256"
        }
      ],
      "payable": false,
      "stateMutability": "view",
      "type": "function"
    },
    {
      "constant": true,
      "inputs": [],
      "name": "key",
      "outputs": [
        {
          "name": "",
          "type": "bytes32"
        }
      ],
      "payable": false,
      "stateMutability": "view",
      "type": "function"
    },
    {
      "constant": true,
      "inputs": [
        {
          "name": "_key",
          "type": "bytes32"
        }
      ],
      "name": "get_contract",
      "outputs": [
        {
          "name": "_contract",
          "type": "address"
        }
      ],
      "payable": false,
      "stateMutability": "view",
      "type": "function"
    },
    {
      "constant": true,
      "inputs": [
        {
          "name": "",
          "type": "address"
        }
      ],
      "name": "claimableDGXs",
      "outputs": [
        {
          "name": "",
          "type": "uint256"
        }
      ],
      "payable": false,
      "stateMutability": "view",
      "type": "function"
    },
    {
      "constant": true,
      "inputs": [
        {
          "name": "",
          "type": "address"
        }
      ],
      "name": "previousLastParticipatedQuarter",
      "outputs": [
        {
          "name": "",
          "type": "uint256"
        }
      ],
      "payable": false,
      "stateMutability": "view",
      "type": "function"
    },
    {
      "constant": true,
      "inputs": [
        {
          "name": "",
          "type": "address"
        }
      ],
      "name": "lastQuarterThatReputationWasUpdated",
      "outputs": [
        {
          "name": "",
          "type": "uint256"
        }
      ],
      "payable": false,
      "stateMutability": "view",
      "type": "function"
    },
    {
      "constant": true,
      "inputs": [
        {
          "name": "",
          "type": "address"
        }
      ],
      "name": "lastParticipatedQuarter",
      "outputs": [
        {
          "name": "",
          "type": "uint256"
        }
      ],
      "payable": false,
      "stateMutability": "view",
      "type": "function"
    },
    {
      "constant": true,
      "inputs": [],
      "name": "CONTRACT_ADDRESS",
      "outputs": [
        {
          "name": "",
          "type": "address"
        }
      ],
      "payable": false,
      "stateMutability": "view",
      "type": "function"
    },
    {
      "constant": true,
      "inputs": [],
      "name": "totalDGXsClaimed",
      "outputs": [
        {
          "name": "",
          "type": "uint256"
        }
      ],
      "payable": false,
      "stateMutability": "view",
      "type": "function"
    },
    {
      "constant": true,
      "inputs": [
        {
          "name": "",
          "type": "uint256"
        }
      ],
      "name": "allQuartersInfo",
      "outputs": [
        {
          "name": "minimalParticipationPoint",
          "type": "uint256"
        },
        {
          "name": "quarterPointScalingFactor",
          "type": "uint256"
        },
        {
          "name": "reputationPointScalingFactor",
          "type": "uint256"
        },
        {
          "name": "totalEffectiveDGDPreviousQuarter",
          "type": "uint256"
        },
        {
          "name": "moderatorMinimalParticipationPoint",
          "type": "uint256"
        },
        {
          "name": "moderatorQuarterPointScalingFactor",
          "type": "uint256"
        },
        {
          "name": "moderatorReputationPointScalingFactor",
          "type": "uint256"
        },
        {
          "name": "totalEffectiveModeratorDGDLastQuarter",
          "type": "uint256"
        },
        {
          "name": "dgxDistributionDay",
          "type": "uint256"
        },
        {
          "name": "dgxRewardsPoolLastQuarter",
          "type": "uint256"
        },
        {
          "name": "sumRewardsFromBeginning",
          "type": "uint256"
        }
      ],
      "payable": false,
      "stateMutability": "view",
      "type": "function"
    },
    {
      "inputs": [
        {
          "name": "_resolver",
          "type": "address"
        }
      ],
      "payable": false,
      "stateMutability": "nonpayable",
      "type": "constructor"
    },
    {
      "constant": false,
      "inputs": [
        {
          "name": "_quarterNumber",
          "type": "uint256"
        },
        {
          "name": "_minimalParticipationPoint",
          "type": "uint256"
        },
        {
          "name": "_quarterPointScalingFactor",
          "type": "uint256"
        },
        {
          "name": "_reputationPointScalingFactor",
          "type": "uint256"
        },
        {
          "name": "_totalEffectiveDGDPreviousQuarter",
          "type": "uint256"
        },
        {
          "name": "_moderatorMinimalQuarterPoint",
          "type": "uint256"
        },
        {
          "name": "_moderatorQuarterPointScalingFactor",
          "type": "uint256"
        },
        {
          "name": "_moderatorReputationPointScalingFactor",
          "type": "uint256"
        },
        {
          "name": "_totalEffectiveModeratorDGDLastQuarter",
          "type": "uint256"
        },
        {
          "name": "_dgxDistributionDay",
          "type": "uint256"
        },
        {
          "name": "_dgxRewardsPoolLastQuarter",
          "type": "uint256"
        },
        {
          "name": "_sumRewardsFromBeginning",
          "type": "uint256"
        }
      ],
      "name": "updateQuarterInfo",
      "outputs": [],
      "payable": false,
      "stateMutability": "nonpayable",
      "type": "function"
    },
    {
      "constant": false,
      "inputs": [
        {
          "name": "_user",
          "type": "address"
        },
        {
          "name": "_newClaimableDGX",
          "type": "uint256"
        }
      ],
      "name": "updateClaimableDGX",
      "outputs": [],
      "payable": false,
      "stateMutability": "nonpayable",
      "type": "function"
    },
    {
      "constant": false,
      "inputs": [
        {
          "name": "_user",
          "type": "address"
        },
        {
          "name": "_lastQuarter",
          "type": "uint256"
        }
      ],
      "name": "updateLastParticipatedQuarter",
      "outputs": [],
      "payable": false,
      "stateMutability": "nonpayable",
      "type": "function"
    },
    {
      "constant": false,
      "inputs": [
        {
          "name": "_user",
          "type": "address"
        },
        {
          "name": "_lastQuarter",
          "type": "uint256"
        }
      ],
      "name": "updatePreviousLastParticipatedQuarter",
      "outputs": [],
      "payable": false,
      "stateMutability": "nonpayable",
      "type": "function"
    },
    {
      "constant": false,
      "inputs": [
        {
          "name": "_user",
          "type": "address"
        },
        {
          "name": "_lastQuarter",
          "type": "uint256"
        }
      ],
      "name": "updateLastQuarterThatRewardsWasUpdated",
      "outputs": [],
      "payable": false,
      "stateMutability": "nonpayable",
      "type": "function"
    },
    {
      "constant": false,
      "inputs": [
        {
          "name": "_user",
          "type": "address"
        },
        {
          "name": "_lastQuarter",
          "type": "uint256"
        }
      ],
      "name": "updateLastQuarterThatReputationWasUpdated",
      "outputs": [],
      "payable": false,
      "stateMutability": "nonpayable",
      "type": "function"
    },
    {
      "constant": false,
      "inputs": [
        {
          "name": "_dgxClaimed",
          "type": "uint256"
        }
      ],
      "name": "addToTotalDgxClaimed",
      "outputs": [],
      "payable": false,
      "stateMutability": "nonpayable",
      "type": "function"
    },
    {
      "constant": true,
      "inputs": [
        {
          "name": "_quarterNumber",
          "type": "uint256"
        }
      ],
      "name": "readQuarterInfo",
      "outputs": [
        {
          "name": "_minimalParticipationPoint",
          "type": "uint256"
        },
        {
          "name": "_quarterPointScalingFactor",
          "type": "uint256"
        },
        {
          "name": "_reputationPointScalingFactor",
          "type": "uint256"
        },
        {
          "name": "_totalEffectiveDGDPreviousQuarter",
          "type": "uint256"
        },
        {
          "name": "_moderatorMinimalQuarterPoint",
          "type": "uint256"
        },
        {
          "name": "_moderatorQuarterPointScalingFactor",
          "type": "uint256"
        },
        {
          "name": "_moderatorReputationPointScalingFactor",
          "type": "uint256"
        },
        {
          "name": "_totalEffectiveModeratorDGDLastQuarter",
          "type": "uint256"
        },
        {
          "name": "_dgxDistributionDay",
          "type": "uint256"
        },
        {
          "name": "_dgxRewardsPoolLastQuarter",
          "type": "uint256"
        },
        {
          "name": "_sumRewardsFromBeginning",
          "type": "uint256"
        }
      ],
      "payable": false,
      "stateMutability": "view",
      "type": "function"
    },
    {
      "constant": true,
      "inputs": [
        {
          "name": "_quarterNumber",
          "type": "uint256"
        }
      ],
      "name": "readQuarterGeneralInfo",
      "outputs": [
        {
          "name": "_dgxDistributionDay",
          "type": "uint256"
        },
        {
          "name": "_dgxRewardsPoolLastQuarter",
          "type": "uint256"
        },
        {
          "name": "_sumRewardsFromBeginning",
          "type": "uint256"
        }
      ],
      "payable": false,
      "stateMutability": "view",
      "type": "function"
    },
    {
      "constant": true,
      "inputs": [
        {
          "name": "_quarterNumber",
          "type": "uint256"
        }
      ],
      "name": "readQuarterModeratorInfo",
      "outputs": [
        {
          "name": "_moderatorMinimalQuarterPoint",
          "type": "uint256"
        },
        {
          "name": "_moderatorQuarterPointScalingFactor",
          "type": "uint256"
        },
        {
          "name": "_moderatorReputationPointScalingFactor",
          "type": "uint256"
        },
        {
          "name": "_totalEffectiveModeratorDGDLastQuarter",
          "type": "uint256"
        }
      ],
      "payable": false,
      "stateMutability": "view",
      "type": "function"
    },
    {
      "constant": true,
      "inputs": [
        {
          "name": "_quarterNumber",
          "type": "uint256"
        }
      ],
      "name": "readQuarterParticipantInfo",
      "outputs": [
        {
          "name": "_minimalParticipationPoint",
          "type": "uint256"
        },
        {
          "name": "_quarterPointScalingFactor",
          "type": "uint256"
        },
        {
          "name": "_reputationPointScalingFactor",
          "type": "uint256"
        },
        {
          "name": "_totalEffectiveDGDPreviousQuarter",
          "type": "uint256"
        }
      ],
      "payable": false,
      "stateMutability": "view",
      "type": "function"
    },
    {
      "constant": true,
      "inputs": [
        {
          "name": "_quarterNumber",
          "type": "uint256"
        }
      ],
      "name": "readDgxDistributionDay",
      "outputs": [
        {
          "name": "_distributionDay",
          "type": "uint256"
        }
      ],
      "payable": false,
      "stateMutability": "view",
      "type": "function"
    },
    {
      "constant": true,
      "inputs": [
        {
          "name": "_quarterNumber",
          "type": "uint256"
        }
      ],
      "name": "readTotalEffectiveDGDLastQuarter",
      "outputs": [
        {
          "name": "_totalEffectiveDGDPreviousQuarter",
          "type": "uint256"
        }
      ],
      "payable": false,
      "stateMutability": "view",
      "type": "function"
    },
    {
      "constant": true,
      "inputs": [
        {
          "name": "_quarterNumber",
          "type": "uint256"
        }
      ],
      "name": "readTotalEffectiveModeratorDGDLastQuarter",
      "outputs": [
        {
          "name": "_totalEffectiveModeratorDGDLastQuarter",
          "type": "uint256"
        }
      ],
      "payable": false,
      "stateMutability": "view",
      "type": "function"
    },
    {
      "constant": true,
      "inputs": [
        {
          "name": "_quarterNumber",
          "type": "uint256"
        }
      ],
      "name": "readRewardsPoolOfLastQuarter",
      "outputs": [
        {
          "name": "_rewardsPool",
          "type": "uint256"
        }
      ],
      "payable": false,
      "stateMutability": "view",
      "type": "function"
    }
  ],
  "bytecode": "0x608060405260006001026003906000191690556000600460006101000a81548173ffffffffffffffffffffffffffffffffffffffff021916908373ffffffffffffffffffffffffffffffffffffffff1602179055507f70726f706f73616c5f73746174655f70726570726f706f73616c0000000000006005906000191690557f70726f706f73616c5f73746174655f64726166740000000000000000000000006006906000191690557f70726f706f73616c5f73746174655f6d6f6465726174656400000000000000006007906000191690557f70726f706f73616c5f73746174655f6f6e676f696e67000000000000000000006008906000191690557f70726f706f73616c5f73746174655f636c6f73656400000000000000000000006009906000191690557f70726f706f73616c5f73746174655f6172636869766564000000000000000000600a906000191690556001600b556002600c556003600d556001600e556002600f5560036010557f696e7465725f6467645f696400000000000000000000000000000000000000006011906000191690557f696e7465725f6d6f645f6467645f6964000000000000000000000000000000006012906000191690557f696e7465725f626f6e75735f63616c63756c6174696f6e5f69640000000000006013906000191690557f64616f00000000000000000000000000000000000000000000000000000000006014906000191690557f64616f3a7370656369616c3a70726f706f73616c0000000000000000000000006015906000191690557f64616f3a7374616b652d6c6f636b696e670000000000000000000000000000006016906000191690557f64616f3a766f74696e67000000000000000000000000000000000000000000006017906000191690557f64616f3a766f74696e673a636c61696d730000000000000000000000000000006018906000191690557f64616f3a73766f74696e673a636c61696d7300000000000000000000000000006019906000191690557f64616f3a6964656e746974790000000000000000000000000000000000000000601a906000191690557f64616f3a726577617264732d6d616e6167657200000000000000000000000000601b906000191690557f64616f3a726577617264732d6578747261730000000000000000000000000000601c906000191690557f64616f3a726f6c65730000000000000000000000000000000000000000000000601d906000191690557f64616f3a66756e64696e672d6d616e6167657200000000000000000000000000601e906000191690557f64616f3a77686974656c697374696e6700000000000000000000000000000000601f906000191690557f64616f3a696e666f726d6174696f6e00000000000000000000000000000000006020906000191690557f736572766963653a726f6c6500000000000000000000000000000000000000006021906000191690557f736572766963653a64616f3a696e666f000000000000000000000000000000006022906000191690557f736572766963653a64616f3a6c697374696e67000000000000000000000000006023906000191690557f736572766963653a64616f3a63616c63756c61746f72000000000000000000006024906000191690557f73746f726167653a64616f0000000000000000000000000000000000000000006025906000191690557f73746f726167653a64616f3a636f756e746572000000000000000000000000006026906000191690557f73746f726167653a64616f3a75706772616465000000000000000000000000006027906000191690557f73746f726167653a64616f3a6964656e746974790000000000000000000000006028906000191690557f73746f726167653a64616f3a706f696e747300000000000000000000000000006029906000191690557f73746f726167653a64616f3a7370656369616c00000000000000000000000000602a906000191690557f73746f726167653a64616f3a636f6e6669670000000000000000000000000000602b906000191690557f73746f726167653a64616f3a7374616b65000000000000000000000000000000602c906000191690557f73746f726167653a64616f3a7265776172647300000000000000000000000000602d906000191690557f73746f726167653a64616f3a77686974656c697374696e670000000000000000602e906000191690557f73746f726167653a696e7465726d6564696174653a726573756c747300000000602f906000191690557f743a6467640000000000000000000000000000000000000000000000000000006030906000191690557f743a6467780000000000000000000000000000000000000000000000000000006031906000191690557f743a6261646765000000000000000000000000000000000000000000000000006032906000191690556001603360006101000a81548160ff021916908360ff1602179055506002603360016101000a81548160ff021916908360ff1602179055506003603360026101000a81548160ff021916908360ff1602179055506004603360036101000a81548160ff021916908360ff1602179055506276a7006034557f6d696e5f6467645f7061727469636970616e74000000000000000000000000006035906000191690557f6d696e5f6467645f6d6f64657261746f720000000000000000000000000000006036906000191690557f6d696e5f72657075746174696f6e5f6d6f64657261746f7200000000000000006037906000191690557f6c6f636b696e675f70686173655f6475726174696f6e000000000000000000006038906000191690557f717561727465725f6475726174696f6e000000000000000000000000000000006039906000191690557f766f74696e675f636f6d6d69745f706861736500000000000000000000000000603a906000191690557f766f74696e675f70686173655f746f74616c0000000000000000000000000000603b906000191690557f696e746572696d5f766f74696e675f636f6d6d69745f70686173650000000000603c906000191690557f696e746572696d5f766f74696e675f70686173655f746f74616c000000000000603d906000191690557f64726166745f71756f72756d5f66697865645f6e756d657261746f7200000000603e906000191690557f64726166745f71756f72756d5f66697865645f64656e6f6d696e61746f720000603f906000191690557f64726166745f71756f72756d5f73666163746f725f6e756d657261746f7200006040906000191690557f64726166745f71756f72756d5f73666163746f725f64656e6f6d696e61746f726041906000191690557f766f74655f71756f72756d5f66697865645f6e756d657261746f7200000000006042906000191690557f766f74655f71756f72756d5f66697865645f64656e6f6d696e61746f720000006043906000191690557f766f74655f71756f72756d5f73666163746f725f6e756d657261746f720000006044906000191690557f766f74655f71756f72756d5f73666163746f725f64656e6f6d696e61746f72006045906000191690557f66696e616c5f7265776172645f73666163746f725f6e756d657261746f7200006046906000191690557f66696e616c5f7265776172645f73666163746f725f64656e6f6d696e61746f726047906000191690557f64726166745f71756f74615f6e756d657261746f7200000000000000000000006048906000191690557f64726166745f71756f74615f64656e6f6d696e61746f720000000000000000006049906000191690557f766f74696e675f71756f74615f6e756d657261746f7200000000000000000000604a906000191690557f766f74696e675f71756f74615f64656e6f6d696e61746f720000000000000000604b906000191690557f6d696e696d616c5f717000000000000000000000000000000000000000000000604c906000191690557f717561727465725f706f696e745f7363616c696e675f666163746f7200000000604d906000191690557f7265705f706f696e745f7363616c696e675f666163746f720000000000000000604e906000191690557f6d696e696d616c5f6d6f645f7170000000000000000000000000000000000000604f906000191690557f6d6f645f71705f7363616c696e675f666163746f7200000000000000000000006050906000191690557f6d6f645f7265705f706f696e745f7363616c696e675f666163746f72000000006051906000191690557f717561727465725f706f696e745f64726166745f766f746500000000000000006052906000191690557f717561727465725f706f696e745f766f746500000000000000000000000000006053906000191690557f717561727465725f706f696e745f696e746572696d5f766f74650000000000006054906000191690557f715f705f6d696c6573746f6e655f636f6d706c6574696f6e00000000000000006055906000191690557f626f6e75735f72657075746174696f6e5f6e756d657261746f720000000000006056906000191690557f626f6e75735f72657075746174696f6e5f64656e6f6d696e61746f72000000006057906000191690557f7370656369616c5f70726f706f73616c5f636f6d6d69745f70686173650000006058906000191690557f7370656369616c5f70726f706f73616c5f70686173655f746f74616c000000006059906000191690557f636f6e6669675f7370656369616c5f71756f74615f6e756d657261746f720000605a906000191690557f636f6e6669675f7370656369616c5f71756f74615f64656e6f6d696e61746f72605b906000191690557f7370656369616c5f71756f72756d5f6e756d657261746f720000000000000000605c906000191690557f7370656369616c5f71756f72756d5f64656e6f6d696e61746f72000000000000605d906000191690557f636f6e6669675f6d61785f72657075746174696f6e5f646564756374696f6e00605e906000191690557f636f6e6669675f70756e6973686d656e745f6e6f745f6c6f636b696e67000000605f906000191690557f636f6e6669675f7265705f7065725f65787472615f71705f6e756d00000000006060906000191690557f636f6e6669675f7265705f7065725f65787472615f71705f64656e00000000006061906000191690557f636f6e6669675f6d61785f6d5f72705f646564756374696f6e000000000000006062906000191690557f636f6e6669675f7265705f7065725f65787472615f6d5f71705f6e756d0000006063906000191690557f636f6e6669675f7265705f7065725f65787472615f6d5f71705f64656e0000006064906000191690557f636f6e6669675f6d6f645f706f7274696f6e5f6e756d000000000000000000006065906000191690557f636f6e6669675f6d6f645f706f7274696f6e5f64656e000000000000000000006066906000191690557f636f6e6669675f64726166745f766f74696e675f7068617365000000000000006067906000191690557f636f6e6669675f72705f626f6f73745f7065725f6261646765000000000000006068906000191690557f636f6e6669675f636c61696d696e675f646561646c696e6500000000000000006069906000191690557f636f6e6669675f70726570726f706f73616c5f636f6c6c61746572616c000000606a906000191690557f636f6e6669675f6d61785f66756e64696e675f6e6f6e44696769780000000000606b906000191690557f636f6e6669675f6d61785f6d696c6573746f6e65735f6e6f6e44696769780000606c906000191690557f636f6e6669675f6e6f6e44696769785f70726f706f73616c5f63617000000000606d906000191690557f636f6e6669675f646561645f6475726174696f6e000000000000000000000000606e906000191690557f636f6e6669675f63765f72657075746174696f6e000000000000000000000000606f906000191690553480156200113457600080fd5b50604051602080620029878339810180604052810190808051906020019092919050505062001175602d548262001188640100000000026401000000009004565b15156200118157600080fd5b5062001419565b6000808273ffffffffffffffffffffffffffffffffffffffff16636d19a8826040518163ffffffff167c0100000000000000000000000000000000000000000000000000000000028152600401602060405180830381600087803b158015620011f057600080fd5b505af115801562001205573d6000803e3d6000fd5b505050506040513d60208110156200121c57600080fd5b810190808051906020019092919050505090506000151581151514156200140d5730600260006101000a81548173ffffffffffffffffffffffffffffffffffffffff021916908373ffffffffffffffffffffffffffffffffffffffff160217905550826000806101000a81548173ffffffffffffffffffffffffffffffffffffffff021916908373ffffffffffffffffffffffffffffffffffffffff16021790555083600181600019169055506000809054906101000a900473ffffffffffffffffffffffffffffffffffffffff1673ffffffffffffffffffffffffffffffffffffffff1663c0f6ef4a600154600260009054906101000a900473ffffffffffffffffffffffffffffffffffffffff166040518363ffffffff167c01000000000000000000000000000000000000000000000000000000000281526004018083600019166000191681526020018273ffffffffffffffffffffffffffffffffffffffff1673ffffffffffffffffffffffffffffffffffffffff16815260200192505050602060405180830381600087803b158015620013ba57600080fd5b505af1158015620013cf573d6000803e3d6000fd5b505050506040513d6020811015620013e657600080fd5b810190808051906020019092919050505015156200140357600080fd5b6001915062001412565b600091505b5092915050565b61155e80620014296000396000f300608060405260043610610154576000357c0100000000000000000000000000000000000000000000000000000000900463ffffffff16806304f3bcec146101595780630f491b11146101b057806312d9b939146101f157806327ddd3ae1461023e5780633943380c146102955780633f83acff146102c8578063521fcb661461033957806356dfd2b7146103d457806362961de91461045b5780636a8cfd09146104b157806378af89ac146104fe578063863eb74a14610555578063927bb668146105a2578063a301c0d2146105ef578063a78e00d614610645578063bb80203e14610686578063bcda6424146106c7578063bd695d211461071e578063cefc2bff14610775578063cf542aa9146107cc578063d715d6f51461081b578063d8048c9d14610848578063db4ecbc114610895578063f03222f0146108ec578063f1dfda7814610917578063fedf94531461099e575b600080fd5b34801561016557600080fd5b5061016e6109df565b604051808273ffffffffffffffffffffffffffffffffffffffff1673ffffffffffffffffffffffffffffffffffffffff16815260200191505060405180910390f35b3480156101bc57600080fd5b506101db60048036038101908080359060200190929190505050610a04565b6040518082815260200191505060405180910390f35b3480156101fd57600080fd5b5061023c600480360381019080803573ffffffffffffffffffffffffffffffffffffffff16906020019092919080359060200190929190505050610a24565b005b34801561024a57600080fd5b5061027f600480360381019080803573ffffffffffffffffffffffffffffffffffffffff169060200190929190505050610ab9565b6040518082815260200191505060405180910390f35b3480156102a157600080fd5b506102aa610ad1565b60405180826000191660001916815260200191505060405180910390f35b3480156102d457600080fd5b506102f76004803603810190808035600019169060200190929190505050610ad7565b604051808273ffffffffffffffffffffffffffffffffffffffff1673ffffffffffffffffffffffffffffffffffffffff16815260200191505060405180910390f35b34801561034557600080fd5b506103d2600480360381019080803590602001909291908035906020019092919080359060200190929190803590602001909291908035906020019092919080359060200190929190803590602001909291908035906020019092919080359060200190929190803590602001909291908035906020019092919080359060200190929190505050610bb3565b005b3480156103e057600080fd5b506103ff60048036038101908080359060200190929190505050610d00565b604051808c81526020018b81526020018a81526020018981526020018881526020018781526020018681526020018581526020018481526020018381526020018281526020019b50505050505050505050505060405180910390f35b34801561046757600080fd5b5061048660048036038101908080359060200190929190505050610e33565b6040518085815260200184815260200183815260200182815260200194505050505060405180910390f35b3480156104bd57600080fd5b506104fc600480360381019080803573ffffffffffffffffffffffffffffffffffffffff16906020019092919080359060200190929190505050610ea4565b005b34801561050a57600080fd5b5061053f600480360381019080803573ffffffffffffffffffffffffffffffffffffffff169060200190929190505050610f02565b6040518082815260200191505060405180910390f35b34801561056157600080fd5b506105a0600480360381019080803573ffffffffffffffffffffffffffffffffffffffff16906020019092919080359060200190929190505050610f1a565b005b3480156105ae57600080fd5b506105ed600480360381019080803573ffffffffffffffffffffffffffffffffffffffff16906020019092919080359060200190929190505050610f78565b005b3480156105fb57600080fd5b5061061a60048036038101908080359060200190929190505050610fd6565b6040518085815260200184815260200183815260200182815260200194505050505060405180910390f35b34801561065157600080fd5b5061067060048036038101908080359060200190929190505050611047565b6040518082815260200191505060405180910390f35b34801561069257600080fd5b506106b160048036038101908080359060200190929190505050611067565b6040518082815260200191505060405180910390f35b3480156106d357600080fd5b50610708600480360381019080803573ffffffffffffffffffffffffffffffffffffffff169060200190929190505050611087565b6040518082815260200191505060405180910390f35b34801561072a57600080fd5b5061075f600480360381019080803573ffffffffffffffffffffffffffffffffffffffff16906020019092919050505061109f565b6040518082815260200191505060405180910390f35b34801561078157600080fd5b506107b6600480360381019080803573ffffffffffffffffffffffffffffffffffffffff1690602001909291905050506110b7565b6040518082815260200191505060405180910390f35b3480156107d857600080fd5b506107f7600480360381019080803590602001909291905050506110cf565b60405180848152602001838152602001828152602001935050505060405180910390f35b34801561082757600080fd5b5061084660048036038101908080359060200190929190505050611126565b005b34801561085457600080fd5b50610893600480360381019080803573ffffffffffffffffffffffffffffffffffffffff1690602001909291908035906020019092919050505061115a565b005b3480156108a157600080fd5b506108aa6111ef565b604051808273ffffffffffffffffffffffffffffffffffffffff1673ffffffffffffffffffffffffffffffffffffffff16815260200191505060405180910390f35b3480156108f857600080fd5b50610901611215565b6040518082815260200191505060405180910390f35b34801561092357600080fd5b506109426004803603810190808035906020019092919050505061121b565b604051808c81526020018b81526020018a81526020018981526020018881526020018781526020018681526020018581526020018481526020018381526020018281526020019b50505050505050505050505060405180910390f35b3480156109aa57600080fd5b506109c960048036038101908080359060200190929190505050611275565b6040518082815260200191505060405180910390f35b6000809054906101000a900473ffffffffffffffffffffffffffffffffffffffff1681565b600060706000838152602001908152602001600020600701549050919050565b610a66606060405190810160405280601b5460001916600019168152602001601654600019166000191681526020016003546000191660001916815250611295565b1515610a7157600080fd5b80607660008473ffffffffffffffffffffffffffffffffffffffff1673ffffffffffffffffffffffffffffffffffffffff168152602001908152602001600020819055505050565b60756020528060005260406000206000915090505481565b60015481565b60008060009054906101000a900473ffffffffffffffffffffffffffffffffffffffff1673ffffffffffffffffffffffffffffffffffffffff16633f83acff836040518263ffffffff167c0100000000000000000000000000000000000000000000000000000000028152600401808260001916600019168152602001915050602060405180830381600087803b158015610b7157600080fd5b505af1158015610b85573d6000803e3d6000fd5b505050506040513d6020811015610b9b57600080fd5b81019080805190602001909291905050509050919050565b610bbe601b5461140c565b1515610bc957600080fd5b8a607060008e81526020019081526020016000206000018190555089607060008e81526020019081526020016000206001018190555088607060008e81526020019081526020016000206002018190555087607060008e81526020019081526020016000206003018190555086607060008e81526020019081526020016000206004018190555085607060008e81526020019081526020016000206005018190555084607060008e81526020019081526020016000206006018190555083607060008e81526020019081526020016000206007018190555082607060008e81526020019081526020016000206008018190555081607060008e81526020019081526020016000206009018190555080607060008e8152602001908152602001600020600a0181905550505050505050505050505050565b6000806000806000806000806000806000607060008d8152602001908152602001600020600001549a50607060008d8152602001908152602001600020600101549950607060008d8152602001908152602001600020600201549850607060008d8152602001908152602001600020600301549750607060008d8152602001908152602001600020600401549650607060008d8152602001908152602001600020600501549550607060008d8152602001908152602001600020600601549450607060008d8152602001908152602001600020600701549350607060008d8152602001908152602001600020600801549250607060008d8152602001908152602001600020600901549150607060008d8152602001908152602001600020600a0154905091939597999b90929496989a50565b600080600080607060008681526020019081526020016000206000015493506070600086815260200190815260200160002060010154925060706000868152602001908152602001600020600201549150607060008681526020019081526020016000206003015490509193509193565b610eaf601b5461140c565b1515610eba57600080fd5b80607160008473ffffffffffffffffffffffffffffffffffffffff1673ffffffffffffffffffffffffffffffffffffffff168152602001908152602001600020819055505050565b60716020528060005260406000206000915090505481565b610f2560165461140c565b1515610f3057600080fd5b80607460008473ffffffffffffffffffffffffffffffffffffffff1673ffffffffffffffffffffffffffffffffffffffff168152602001908152602001600020819055505050565b610f8360165461140c565b1515610f8e57600080fd5b80607360008473ffffffffffffffffffffffffffffffffffffffff1673ffffffffffffffffffffffffffffffffffffffff168152602001908152602001600020819055505050565b600080600080607060008681526020019081526020016000206004015493506070600086815260200190815260200160002060050154925060706000868152602001908152602001600020600601549150607060008681526020019081526020016000206007015490509193509193565b600060706000838152602001908152602001600020600801549050919050565b600060706000838152602001908152602001600020600901549050919050565b60746020528060005260406000206000915090505481565b60766020528060005260406000206000915090505481565b60736020528060005260406000206000915090505481565b6000806000607060008581526020019081526020016000206008015492506070600085815260200190815260200160002060090154915060706000858152602001908152602001600020600a015490509193909250565b611131601b5461140c565b151561113c57600080fd5b6111518160725461151690919063ffffffff16565b60728190555050565b61119c606060405190810160405280601b5460001916600019168152602001601654600019166000191681526020016003546000191660001916815250611295565b15156111a757600080fd5b80607560008473ffffffffffffffffffffffffffffffffffffffff1673ffffffffffffffffffffffffffffffffffffffff168152602001908152602001600020819055505050565b600260009054906101000a900473ffffffffffffffffffffffffffffffffffffffff1681565b60725481565b607060205280600052604060002060009150905080600001549080600101549080600201549080600301549080600401549080600501549080600601549080600701549080600801549080600901549080600a015490508b565b600060706000838152602001908152602001600020600301549050919050565b600080600060039150600090505b818110156114055760006001026000191684826003811015156112c257fe5b60200201516000191614156112d6576113f8565b6000809054906101000a900473ffffffffffffffffffffffffffffffffffffffff1673ffffffffffffffffffffffffffffffffffffffff16633f83acff858360038110151561132157fe5b60200201516040518263ffffffff167c0100000000000000000000000000000000000000000000000000000000028152600401808260001916600019168152602001915050602060405180830381600087803b15801561138057600080fd5b505af1158015611394573d6000803e3d6000fd5b505050506040513d60208110156113aa57600080fd5b810190808051906020019092919050505073ffffffffffffffffffffffffffffffffffffffff163373ffffffffffffffffffffffffffffffffffffffff1614156113f75760019250611405565b5b80806001019150506112a3565b5050919050565b60008060009054906101000a900473ffffffffffffffffffffffffffffffffffffffff1673ffffffffffffffffffffffffffffffffffffffff16633f83acff836040518263ffffffff167c0100000000000000000000000000000000000000000000000000000000028152600401808260001916600019168152602001915050602060405180830381600087803b1580156114a657600080fd5b505af11580156114ba573d6000803e3d6000fd5b505050506040513d60208110156114d057600080fd5b810190808051906020019092919050505073ffffffffffffffffffffffffffffffffffffffff163373ffffffffffffffffffffffffffffffffffffffff16149050919050565b6000818301905082811015151561152957fe5b809050929150505600a165627a7a72305820de7c773070352049ac09a243dfd32d4d00c36df207929d1c7f64633f040b0b0f0029",
  "source": "pragma solidity ^0.4.25;\n\nimport \"@digix/cacp-contracts-dao/contracts/ResolverClient.sol\";\nimport \"../common/DaoConstants.sol\";\nimport \"../lib/DaoStructs.sol\";\n\n// this contract will receive DGXs fees from the DGX fees distributors\ncontract DaoRewardsStorage is ResolverClient, DaoConstants {\n    using DaoStructs for DaoStructs.DaoQuarterInfo;\n\n    // DaoQuarterInfo is a struct that stores the quarter specific information\n    // regarding totalEffectiveDGDs, DGX distribution day, etc. pls check\n    // docs in lib/DaoStructs\n    mapping(uint256 => DaoStructs.DaoQuarterInfo) public allQuartersInfo;\n\n    // Mapping that stores the DGX that can be claimed as rewards by\n    // an address (a participant of DigixDAO)\n    mapping(address => uint256) public claimableDGXs;\n\n    // This stores the total DGX value that has been claimed by participants\n    // this can be done by calling the DaoRewardsManager.claimRewards method\n    // Note that this value is the only outgoing DGX from DaoRewardsManager contract\n    // Note that this value also takes into account the demurrage that has been paid\n    // by participants for simply holding their DGXs in the DaoRewardsManager contract\n    uint256 public totalDGXsClaimed;\n\n    // The Quarter ID in which the user last participated in\n    // To participate means they had locked more than CONFIG_MINIMUM_LOCKED_DGD\n    // DGD tokens. In addition, they should not have withdrawn those tokens in the same\n    // quarter. Basically, in the main phase of the quarter, if DaoCommon.isParticipant(_user)\n    // was true, they were participants. And that quarter was their lastParticipatedQuarter\n    mapping (address => uint256) public lastParticipatedQuarter;\n\n    // This mapping is only used to update the lastParticipatedQuarter to the\n    // previousLastParticipatedQuarter in case users lock and withdraw DGDs\n    // within the same quarter's locking phase\n    mapping (address => uint256) public previousLastParticipatedQuarter;\n\n    // This number marks the Quarter in which the rewards were last updated for that user\n    // Since the rewards calculation for a specific quarter is only done once that\n    // quarter is completed, we need this value to note the last quarter when the rewards were updated\n    // We then start adding the rewards for all quarters after that quarter, until the current quarter\n    mapping (address => uint256) public lastQuarterThatRewardsWasUpdated;\n\n    // Similar as the lastQuarterThatRewardsWasUpdated, but this is for reputation updates\n    // Note that reputation can also be deducted for no participation (not locking DGDs)\n    // This value is used to update the reputation based on all quarters from the lastQuarterThatReputationWasUpdated\n    // to the current quarter\n    mapping (address => uint256) public lastQuarterThatReputationWasUpdated;\n\n    constructor(address _resolver)\n           public\n    {\n        require(init(CONTRACT_STORAGE_DAO_REWARDS, _resolver));\n    }\n\n    function updateQuarterInfo(\n        uint256 _quarterNumber,\n        uint256 _minimalParticipationPoint,\n        uint256 _quarterPointScalingFactor,\n        uint256 _reputationPointScalingFactor,\n        uint256 _totalEffectiveDGDPreviousQuarter,\n\n        uint256 _moderatorMinimalQuarterPoint,\n        uint256 _moderatorQuarterPointScalingFactor,\n        uint256 _moderatorReputationPointScalingFactor,\n        uint256 _totalEffectiveModeratorDGDLastQuarter,\n\n        uint256 _dgxDistributionDay,\n        uint256 _dgxRewardsPoolLastQuarter,\n        uint256 _sumRewardsFromBeginning\n    )\n        public\n    {\n        require(sender_is(CONTRACT_DAO_REWARDS_MANAGER));\n        allQuartersInfo[_quarterNumber].minimalParticipationPoint = _minimalParticipationPoint;\n        allQuartersInfo[_quarterNumber].quarterPointScalingFactor = _quarterPointScalingFactor;\n        allQuartersInfo[_quarterNumber].reputationPointScalingFactor = _reputationPointScalingFactor;\n        allQuartersInfo[_quarterNumber].totalEffectiveDGDPreviousQuarter = _totalEffectiveDGDPreviousQuarter;\n\n        allQuartersInfo[_quarterNumber].moderatorMinimalParticipationPoint = _moderatorMinimalQuarterPoint;\n        allQuartersInfo[_quarterNumber].moderatorQuarterPointScalingFactor = _moderatorQuarterPointScalingFactor;\n        allQuartersInfo[_quarterNumber].moderatorReputationPointScalingFactor = _moderatorReputationPointScalingFactor;\n        allQuartersInfo[_quarterNumber].totalEffectiveModeratorDGDLastQuarter = _totalEffectiveModeratorDGDLastQuarter;\n\n        allQuartersInfo[_quarterNumber].dgxDistributionDay = _dgxDistributionDay;\n        allQuartersInfo[_quarterNumber].dgxRewardsPoolLastQuarter = _dgxRewardsPoolLastQuarter;\n        allQuartersInfo[_quarterNumber].sumRewardsFromBeginning = _sumRewardsFromBeginning;\n    }\n\n    function updateClaimableDGX(address _user, uint256 _newClaimableDGX)\n        public\n    {\n        require(sender_is(CONTRACT_DAO_REWARDS_MANAGER));\n        claimableDGXs[_user] = _newClaimableDGX;\n    }\n\n    function updateLastParticipatedQuarter(address _user, uint256 _lastQuarter)\n        public\n    {\n        require(sender_is(CONTRACT_DAO_STAKE_LOCKING));\n        lastParticipatedQuarter[_user] = _lastQuarter;\n    }\n\n    function updatePreviousLastParticipatedQuarter(address _user, uint256 _lastQuarter)\n        public\n    {\n        require(sender_is(CONTRACT_DAO_STAKE_LOCKING));\n        previousLastParticipatedQuarter[_user] = _lastQuarter;\n    }\n\n    function updateLastQuarterThatRewardsWasUpdated(address _user, uint256 _lastQuarter)\n        public\n    {\n        require(sender_is_from([CONTRACT_DAO_REWARDS_MANAGER, CONTRACT_DAO_STAKE_LOCKING, EMPTY_BYTES]));\n        lastQuarterThatRewardsWasUpdated[_user] = _lastQuarter;\n    }\n\n    function updateLastQuarterThatReputationWasUpdated(address _user, uint256 _lastQuarter)\n        public\n    {\n        require(sender_is_from([CONTRACT_DAO_REWARDS_MANAGER, CONTRACT_DAO_STAKE_LOCKING, EMPTY_BYTES]));\n        lastQuarterThatReputationWasUpdated[_user] = _lastQuarter;\n    }\n\n    function addToTotalDgxClaimed(uint256 _dgxClaimed)\n        public\n    {\n        require(sender_is(CONTRACT_DAO_REWARDS_MANAGER));\n        totalDGXsClaimed = totalDGXsClaimed.add(_dgxClaimed);\n    }\n\n    function readQuarterInfo(uint256 _quarterNumber)\n        public\n        view\n        returns (\n            uint256 _minimalParticipationPoint,\n            uint256 _quarterPointScalingFactor,\n            uint256 _reputationPointScalingFactor,\n            uint256 _totalEffectiveDGDPreviousQuarter,\n\n            uint256 _moderatorMinimalQuarterPoint,\n            uint256 _moderatorQuarterPointScalingFactor,\n            uint256 _moderatorReputationPointScalingFactor,\n            uint256 _totalEffectiveModeratorDGDLastQuarter,\n\n            uint256 _dgxDistributionDay,\n            uint256 _dgxRewardsPoolLastQuarter,\n            uint256 _sumRewardsFromBeginning\n        )\n    {\n        _minimalParticipationPoint = allQuartersInfo[_quarterNumber].minimalParticipationPoint;\n        _quarterPointScalingFactor = allQuartersInfo[_quarterNumber].quarterPointScalingFactor;\n        _reputationPointScalingFactor = allQuartersInfo[_quarterNumber].reputationPointScalingFactor;\n        _totalEffectiveDGDPreviousQuarter = allQuartersInfo[_quarterNumber].totalEffectiveDGDPreviousQuarter;\n        _moderatorMinimalQuarterPoint = allQuartersInfo[_quarterNumber].moderatorMinimalParticipationPoint;\n        _moderatorQuarterPointScalingFactor = allQuartersInfo[_quarterNumber].moderatorQuarterPointScalingFactor;\n        _moderatorReputationPointScalingFactor = allQuartersInfo[_quarterNumber].moderatorReputationPointScalingFactor;\n        _totalEffectiveModeratorDGDLastQuarter = allQuartersInfo[_quarterNumber].totalEffectiveModeratorDGDLastQuarter;\n        _dgxDistributionDay = allQuartersInfo[_quarterNumber].dgxDistributionDay;\n        _dgxRewardsPoolLastQuarter = allQuartersInfo[_quarterNumber].dgxRewardsPoolLastQuarter;\n        _sumRewardsFromBeginning = allQuartersInfo[_quarterNumber].sumRewardsFromBeginning;\n    }\n\n    function readQuarterGeneralInfo(uint256 _quarterNumber)\n        public\n        view\n        returns (\n            uint256 _dgxDistributionDay,\n            uint256 _dgxRewardsPoolLastQuarter,\n            uint256 _sumRewardsFromBeginning\n        )\n    {\n        _dgxDistributionDay = allQuartersInfo[_quarterNumber].dgxDistributionDay;\n        _dgxRewardsPoolLastQuarter = allQuartersInfo[_quarterNumber].dgxRewardsPoolLastQuarter;\n        _sumRewardsFromBeginning = allQuartersInfo[_quarterNumber].sumRewardsFromBeginning;\n    }\n\n    function readQuarterModeratorInfo(uint256 _quarterNumber)\n        public\n        view\n        returns (\n            uint256 _moderatorMinimalQuarterPoint,\n            uint256 _moderatorQuarterPointScalingFactor,\n            uint256 _moderatorReputationPointScalingFactor,\n            uint256 _totalEffectiveModeratorDGDLastQuarter\n        )\n    {\n        _moderatorMinimalQuarterPoint = allQuartersInfo[_quarterNumber].moderatorMinimalParticipationPoint;\n        _moderatorQuarterPointScalingFactor = allQuartersInfo[_quarterNumber].moderatorQuarterPointScalingFactor;\n        _moderatorReputationPointScalingFactor = allQuartersInfo[_quarterNumber].moderatorReputationPointScalingFactor;\n        _totalEffectiveModeratorDGDLastQuarter = allQuartersInfo[_quarterNumber].totalEffectiveModeratorDGDLastQuarter;\n    }\n\n    function readQuarterParticipantInfo(uint256 _quarterNumber)\n        public\n        view\n        returns (\n            uint256 _minimalParticipationPoint,\n            uint256 _quarterPointScalingFactor,\n            uint256 _reputationPointScalingFactor,\n            uint256 _totalEffectiveDGDPreviousQuarter\n        )\n    {\n        _minimalParticipationPoint = allQuartersInfo[_quarterNumber].minimalParticipationPoint;\n        _quarterPointScalingFactor = allQuartersInfo[_quarterNumber].quarterPointScalingFactor;\n        _reputationPointScalingFactor = allQuartersInfo[_quarterNumber].reputationPointScalingFactor;\n        _totalEffectiveDGDPreviousQuarter = allQuartersInfo[_quarterNumber].totalEffectiveDGDPreviousQuarter;\n    }\n\n    function readDgxDistributionDay(uint256 _quarterNumber)\n        public\n        view\n        returns (uint256 _distributionDay)\n    {\n        _distributionDay = allQuartersInfo[_quarterNumber].dgxDistributionDay;\n    }\n\n    function readTotalEffectiveDGDLastQuarter(uint256 _quarterNumber)\n        public\n        view\n        returns (uint256 _totalEffectiveDGDPreviousQuarter)\n    {\n        _totalEffectiveDGDPreviousQuarter = allQuartersInfo[_quarterNumber].totalEffectiveDGDPreviousQuarter;\n    }\n\n    function readTotalEffectiveModeratorDGDLastQuarter(uint256 _quarterNumber)\n        public\n        view\n        returns (uint256 _totalEffectiveModeratorDGDLastQuarter)\n    {\n        _totalEffectiveModeratorDGDLastQuarter = allQuartersInfo[_quarterNumber].totalEffectiveModeratorDGDLastQuarter;\n    }\n\n    function readRewardsPoolOfLastQuarter(uint256 _quarterNumber)\n        public\n        view\n        returns (uint256 _rewardsPool)\n    {\n        _rewardsPool = allQuartersInfo[_quarterNumber].dgxRewardsPoolLastQuarter;\n    }\n}\n",
  "sourcePath": "/home/rohit/Develop/dao-contracts/contracts/storage/DaoRewardsStorage.sol",
  "compiler": {
    "name": "solc",
    "version": "0.4.25+commit.59dbf8f1.Emscripten.clang"
  },
  "schemaVersion": "2.0.1",
  "updatedAt": "2019-03-05T03:50:20.926Z"
}