{
  "contractName": "DaoSpecialStorage",
  "abi": [
    {
      "constant": true,
      "inputs": [],
      "name": "resolver",
      "outputs": [
        {
          "name": "",
          "type": "address"
        }
      ],
      "payable": false,
      "stateMutability": "view",
      "type": "function"
    },
    {
      "constant": true,
      "inputs": [],
      "name": "key",
      "outputs": [
        {
          "name": "",
          "type": "bytes32"
        }
      ],
      "payable": false,
      "stateMutability": "view",
      "type": "function"
    },
    {
      "constant": true,
      "inputs": [
        {
          "name": "_key",
          "type": "bytes32"
        }
      ],
      "name": "get_contract",
      "outputs": [
        {
          "name": "_contract",
          "type": "address"
        }
      ],
      "payable": false,
      "stateMutability": "view",
      "type": "function"
    },
    {
      "constant": true,
      "inputs": [],
      "name": "CONTRACT_ADDRESS",
      "outputs": [
        {
          "name": "",
          "type": "address"
        }
      ],
      "payable": false,
      "stateMutability": "view",
      "type": "function"
    },
    {
      "inputs": [
        {
          "name": "_resolver",
          "type": "address"
        }
      ],
      "payable": false,
      "stateMutability": "nonpayable",
      "type": "constructor"
    },
    {
      "constant": false,
      "inputs": [
        {
          "name": "_proposalId",
          "type": "bytes32"
        },
        {
          "name": "_proposer",
          "type": "address"
        },
        {
          "name": "_uintConfigs",
          "type": "uint256[]"
        },
        {
          "name": "_addressConfigs",
          "type": "address[]"
        },
        {
          "name": "_bytesConfigs",
          "type": "bytes32[]"
        }
      ],
      "name": "addSpecialProposal",
      "outputs": [],
      "payable": false,
      "stateMutability": "nonpayable",
      "type": "function"
    },
    {
      "constant": true,
      "inputs": [
        {
          "name": "_proposalId",
          "type": "bytes32"
        }
      ],
      "name": "readProposal",
      "outputs": [
        {
          "name": "_id",
          "type": "bytes32"
        },
        {
          "name": "_proposer",
          "type": "address"
        },
        {
          "name": "_timeCreated",
          "type": "uint256"
        },
        {
          "name": "_timeVotingStarted",
          "type": "uint256"
        }
      ],
      "payable": false,
      "stateMutability": "view",
      "type": "function"
    },
    {
      "constant": true,
      "inputs": [
        {
          "name": "_proposalId",
          "type": "bytes32"
        }
      ],
      "name": "readProposalProposer",
      "outputs": [
        {
          "name": "_proposer",
          "type": "address"
        }
      ],
      "payable": false,
      "stateMutability": "view",
      "type": "function"
    },
    {
      "constant": true,
      "inputs": [
        {
          "name": "_proposalId",
          "type": "bytes32"
        }
      ],
      "name": "readConfigs",
      "outputs": [
        {
          "name": "_uintConfigs",
          "type": "uint256[]"
        },
        {
          "name": "_addressConfigs",
          "type": "address[]"
        },
        {
          "name": "_bytesConfigs",
          "type": "bytes32[]"
        }
      ],
      "payable": false,
      "stateMutability": "view",
      "type": "function"
    },
    {
      "constant": true,
      "inputs": [
        {
          "name": "_proposalId",
          "type": "bytes32"
        },
        {
          "name": "_allUsers",
          "type": "address[]"
        }
      ],
      "name": "readVotingCount",
      "outputs": [
        {
          "name": "_for",
          "type": "uint256"
        },
        {
          "name": "_against",
          "type": "uint256"
        }
      ],
      "payable": false,
      "stateMutability": "view",
      "type": "function"
    },
    {
      "constant": true,
      "inputs": [
        {
          "name": "_proposalId",
          "type": "bytes32"
        }
      ],
      "name": "readVotingTime",
      "outputs": [
        {
          "name": "_start",
          "type": "uint256"
        }
      ],
      "payable": false,
      "stateMutability": "view",
      "type": "function"
    },
    {
      "constant": false,
      "inputs": [
        {
          "name": "_proposalId",
          "type": "bytes32"
        },
        {
          "name": "_hash",
          "type": "bytes32"
        },
        {
          "name": "_voter",
          "type": "address"
        }
      ],
      "name": "commitVote",
      "outputs": [],
      "payable": false,
      "stateMutability": "nonpayable",
      "type": "function"
    },
    {
      "constant": true,
      "inputs": [
        {
          "name": "_proposalId",
          "type": "bytes32"
        },
        {
          "name": "_voter",
          "type": "address"
        }
      ],
      "name": "readComittedVote",
      "outputs": [
        {
          "name": "_commitHash",
          "type": "bytes32"
        }
      ],
      "payable": false,
      "stateMutability": "view",
      "type": "function"
    },
    {
      "constant": false,
      "inputs": [
        {
          "name": "_proposalId",
          "type": "bytes32"
        },
        {
          "name": "_time",
          "type": "uint256"
        }
      ],
      "name": "setVotingTime",
      "outputs": [],
      "payable": false,
      "stateMutability": "nonpayable",
      "type": "function"
    },
    {
      "constant": true,
      "inputs": [
        {
          "name": "_proposalId",
          "type": "bytes32"
        }
      ],
      "name": "readVotingResult",
      "outputs": [
        {
          "name": "_result",
          "type": "bool"
        }
      ],
      "payable": false,
      "stateMutability": "view",
      "type": "function"
    },
    {
      "constant": false,
      "inputs": [
        {
          "name": "_proposalId",
          "type": "bytes32"
        },
        {
          "name": "_result",
          "type": "bool"
        }
      ],
      "name": "setPass",
      "outputs": [],
      "payable": false,
      "stateMutability": "nonpayable",
      "type": "function"
    },
    {
      "constant": false,
      "inputs": [
        {
          "name": "_proposalId",
          "type": "bytes32"
        },
        {
          "name": "_claimed",
          "type": "bool"
        }
      ],
      "name": "setVotingClaim",
      "outputs": [],
      "payable": false,
      "stateMutability": "nonpayable",
      "type": "function"
    },
    {
      "constant": true,
      "inputs": [
        {
          "name": "_proposalId",
          "type": "bytes32"
        }
      ],
      "name": "isClaimed",
      "outputs": [
        {
          "name": "_claimed",
          "type": "bool"
        }
      ],
      "payable": false,
      "stateMutability": "view",
      "type": "function"
    },
    {
      "constant": true,
      "inputs": [
        {
          "name": "_proposalId",
          "type": "bytes32"
        },
        {
          "name": "_voter",
          "type": "address"
        }
      ],
      "name": "readVote",
      "outputs": [
        {
          "name": "_vote",
          "type": "bool"
        },
        {
          "name": "_weight",
          "type": "uint256"
        }
      ],
      "payable": false,
      "stateMutability": "view",
      "type": "function"
    },
    {
      "constant": false,
      "inputs": [
        {
          "name": "_proposalId",
          "type": "bytes32"
        },
        {
          "name": "_voter",
          "type": "address"
        },
        {
          "name": "_vote",
          "type": "bool"
        },
        {
          "name": "_weight",
          "type": "uint256"
        }
      ],
      "name": "revealVote",
      "outputs": [],
      "payable": false,
      "stateMutability": "nonpayable",
      "type": "function"
    }
  ],
  "bytecode": "0x608060405260006001026003906000191690556000600460006101000a81548173ffffffffffffffffffffffffffffffffffffffff021916908373ffffffffffffffffffffffffffffffffffffffff1602179055507f70726f706f73616c5f73746174655f70726570726f706f73616c0000000000006005906000191690557f70726f706f73616c5f73746174655f64726166740000000000000000000000006006906000191690557f70726f706f73616c5f73746174655f6d6f6465726174656400000000000000006007906000191690557f70726f706f73616c5f73746174655f6f6e676f696e67000000000000000000006008906000191690557f70726f706f73616c5f73746174655f636c6f73656400000000000000000000006009906000191690557f70726f706f73616c5f73746174655f6172636869766564000000000000000000600a906000191690556001600b556002600c556003600d556001600e556002600f5560036010557f696e7465725f6467645f696400000000000000000000000000000000000000006011906000191690557f696e7465725f6d6f645f6467645f6964000000000000000000000000000000006012906000191690557f696e7465725f626f6e75735f63616c63756c6174696f6e5f69640000000000006013906000191690557f64616f00000000000000000000000000000000000000000000000000000000006014906000191690557f64616f3a7370656369616c3a70726f706f73616c0000000000000000000000006015906000191690557f64616f3a7374616b652d6c6f636b696e670000000000000000000000000000006016906000191690557f64616f3a766f74696e67000000000000000000000000000000000000000000006017906000191690557f64616f3a766f74696e673a636c61696d730000000000000000000000000000006018906000191690557f64616f3a73766f74696e673a636c61696d7300000000000000000000000000006019906000191690557f64616f3a6964656e746974790000000000000000000000000000000000000000601a906000191690557f64616f3a726577617264732d6d616e6167657200000000000000000000000000601b906000191690557f64616f3a726577617264732d6578747261730000000000000000000000000000601c906000191690557f64616f3a726f6c65730000000000000000000000000000000000000000000000601d906000191690557f64616f3a66756e64696e672d6d616e6167657200000000000000000000000000601e906000191690557f64616f3a77686974656c697374696e6700000000000000000000000000000000601f906000191690557f64616f3a696e666f726d6174696f6e00000000000000000000000000000000006020906000191690557f736572766963653a726f6c6500000000000000000000000000000000000000006021906000191690557f736572766963653a64616f3a696e666f000000000000000000000000000000006022906000191690557f736572766963653a64616f3a6c697374696e67000000000000000000000000006023906000191690557f736572766963653a64616f3a63616c63756c61746f72000000000000000000006024906000191690557f73746f726167653a64616f0000000000000000000000000000000000000000006025906000191690557f73746f726167653a64616f3a636f756e746572000000000000000000000000006026906000191690557f73746f726167653a64616f3a75706772616465000000000000000000000000006027906000191690557f73746f726167653a64616f3a6964656e746974790000000000000000000000006028906000191690557f73746f726167653a64616f3a706f696e747300000000000000000000000000006029906000191690557f73746f726167653a64616f3a7370656369616c00000000000000000000000000602a906000191690557f73746f726167653a64616f3a636f6e6669670000000000000000000000000000602b906000191690557f73746f726167653a64616f3a7374616b65000000000000000000000000000000602c906000191690557f73746f726167653a64616f3a7265776172647300000000000000000000000000602d906000191690557f73746f726167653a64616f3a77686974656c697374696e670000000000000000602e906000191690557f73746f726167653a696e7465726d6564696174653a726573756c747300000000602f906000191690557f743a6467640000000000000000000000000000000000000000000000000000006030906000191690557f743a6467780000000000000000000000000000000000000000000000000000006031906000191690557f743a6261646765000000000000000000000000000000000000000000000000006032906000191690556001603360006101000a81548160ff021916908360ff1602179055506002603360016101000a81548160ff021916908360ff1602179055506003603360026101000a81548160ff021916908360ff1602179055506004603360036101000a81548160ff021916908360ff1602179055506276a7006034557f6d696e5f6467645f7061727469636970616e74000000000000000000000000006035906000191690557f6d696e5f6467645f6d6f64657261746f720000000000000000000000000000006036906000191690557f6d696e5f72657075746174696f6e5f6d6f64657261746f7200000000000000006037906000191690557f6c6f636b696e675f70686173655f6475726174696f6e000000000000000000006038906000191690557f717561727465725f6475726174696f6e000000000000000000000000000000006039906000191690557f766f74696e675f636f6d6d69745f706861736500000000000000000000000000603a906000191690557f766f74696e675f70686173655f746f74616c0000000000000000000000000000603b906000191690557f696e746572696d5f766f74696e675f636f6d6d69745f70686173650000000000603c906000191690557f696e746572696d5f766f74696e675f70686173655f746f74616c000000000000603d906000191690557f64726166745f71756f72756d5f66697865645f6e756d657261746f7200000000603e906000191690557f64726166745f71756f72756d5f66697865645f64656e6f6d696e61746f720000603f906000191690557f64726166745f71756f72756d5f73666163746f725f6e756d657261746f7200006040906000191690557f64726166745f71756f72756d5f73666163746f725f64656e6f6d696e61746f726041906000191690557f766f74655f71756f72756d5f66697865645f6e756d657261746f7200000000006042906000191690557f766f74655f71756f72756d5f66697865645f64656e6f6d696e61746f720000006043906000191690557f766f74655f71756f72756d5f73666163746f725f6e756d657261746f720000006044906000191690557f766f74655f71756f72756d5f73666163746f725f64656e6f6d696e61746f72006045906000191690557f66696e616c5f7265776172645f73666163746f725f6e756d657261746f7200006046906000191690557f66696e616c5f7265776172645f73666163746f725f64656e6f6d696e61746f726047906000191690557f64726166745f71756f74615f6e756d657261746f7200000000000000000000006048906000191690557f64726166745f71756f74615f64656e6f6d696e61746f720000000000000000006049906000191690557f766f74696e675f71756f74615f6e756d657261746f7200000000000000000000604a906000191690557f766f74696e675f71756f74615f64656e6f6d696e61746f720000000000000000604b906000191690557f6d696e696d616c5f717000000000000000000000000000000000000000000000604c906000191690557f717561727465725f706f696e745f7363616c696e675f666163746f7200000000604d906000191690557f7265705f706f696e745f7363616c696e675f666163746f720000000000000000604e906000191690557f6d696e696d616c5f6d6f645f7170000000000000000000000000000000000000604f906000191690557f6d6f645f71705f7363616c696e675f666163746f7200000000000000000000006050906000191690557f6d6f645f7265705f706f696e745f7363616c696e675f666163746f72000000006051906000191690557f717561727465725f706f696e745f64726166745f766f746500000000000000006052906000191690557f717561727465725f706f696e745f766f746500000000000000000000000000006053906000191690557f717561727465725f706f696e745f696e746572696d5f766f74650000000000006054906000191690557f715f705f6d696c6573746f6e655f636f6d706c6574696f6e00000000000000006055906000191690557f626f6e75735f72657075746174696f6e5f6e756d657261746f720000000000006056906000191690557f626f6e75735f72657075746174696f6e5f64656e6f6d696e61746f72000000006057906000191690557f7370656369616c5f70726f706f73616c5f636f6d6d69745f70686173650000006058906000191690557f7370656369616c5f70726f706f73616c5f70686173655f746f74616c000000006059906000191690557f636f6e6669675f7370656369616c5f71756f74615f6e756d657261746f720000605a906000191690557f636f6e6669675f7370656369616c5f71756f74615f64656e6f6d696e61746f72605b906000191690557f7370656369616c5f71756f72756d5f6e756d657261746f720000000000000000605c906000191690557f7370656369616c5f71756f72756d5f64656e6f6d696e61746f72000000000000605d906000191690557f636f6e6669675f6d61785f72657075746174696f6e5f646564756374696f6e00605e906000191690557f636f6e6669675f70756e6973686d656e745f6e6f745f6c6f636b696e67000000605f906000191690557f636f6e6669675f7265705f7065725f65787472615f71705f6e756d00000000006060906000191690557f636f6e6669675f7265705f7065725f65787472615f71705f64656e00000000006061906000191690557f636f6e6669675f6d61785f6d5f72705f646564756374696f6e000000000000006062906000191690557f636f6e6669675f7265705f7065725f65787472615f6d5f71705f6e756d0000006063906000191690557f636f6e6669675f7265705f7065725f65787472615f6d5f71705f64656e0000006064906000191690557f636f6e6669675f6d6f645f706f7274696f6e5f6e756d000000000000000000006065906000191690557f636f6e6669675f6d6f645f706f7274696f6e5f64656e000000000000000000006066906000191690557f636f6e6669675f64726166745f766f74696e675f7068617365000000000000006067906000191690557f636f6e6669675f72705f626f6f73745f7065725f6261646765000000000000006068906000191690557f636f6e6669675f636c61696d696e675f646561646c696e6500000000000000006069906000191690557f636f6e6669675f70726570726f706f73616c5f636f6c6c61746572616c000000606a906000191690557f636f6e6669675f6d61785f66756e64696e675f6e6f6e44696769780000000000606b906000191690557f636f6e6669675f6d61785f6d696c6573746f6e65735f6e6f6e44696769780000606c906000191690557f636f6e6669675f6e6f6e44696769785f70726f706f73616c5f63617000000000606d906000191690557f636f6e6669675f646561645f6475726174696f6e000000000000000000000000606e906000191690557f636f6e6669675f63765f72657075746174696f6e000000000000000000000000606f906000191690553480156200113457600080fd5b5060405160208062002d7d8339810180604052810190808051906020019092919050505062001175602a548262001188640100000000026401000000009004565b15156200118157600080fd5b5062001419565b6000808273ffffffffffffffffffffffffffffffffffffffff16636d19a8826040518163ffffffff167c0100000000000000000000000000000000000000000000000000000000028152600401602060405180830381600087803b158015620011f057600080fd5b505af115801562001205573d6000803e3d6000fd5b505050506040513d60208110156200121c57600080fd5b810190808051906020019092919050505090506000151581151514156200140d5730600260006101000a81548173ffffffffffffffffffffffffffffffffffffffff021916908373ffffffffffffffffffffffffffffffffffffffff160217905550826000806101000a81548173ffffffffffffffffffffffffffffffffffffffff021916908373ffffffffffffffffffffffffffffffffffffffff16021790555083600181600019169055506000809054906101000a900473ffffffffffffffffffffffffffffffffffffffff1673ffffffffffffffffffffffffffffffffffffffff1663c0f6ef4a600154600260009054906101000a900473ffffffffffffffffffffffffffffffffffffffff166040518363ffffffff167c01000000000000000000000000000000000000000000000000000000000281526004018083600019166000191681526020018273ffffffffffffffffffffffffffffffffffffffff1673ffffffffffffffffffffffffffffffffffffffff16815260200192505050602060405180830381600087803b158015620013ba57600080fd5b505af1158015620013cf573d6000803e3d6000fd5b505050506040513d6020811015620013e657600080fd5b810190808051906020019092919050505015156200140357600080fd5b6001915062001412565b600091505b5092915050565b61195480620014296000396000f300608060405260043610610107576000357c0100000000000000000000000000000000000000000000000000000000900463ffffffff16806304f3bcec1461010c5780630d92dfb2146101635780632e278bf9146101a05780633943380c146101ff5780633f83acff14610232578063462d701f146102a357806356ecd6571461030a5780635b712eb6146104205780636999b93f1461049157806373758c22146104cc57806379e4ce9d146105305780638839a29d146105795780638b8a7593146105be578063b89c3952146106d8578063d6ae87bf14610721578063d8d501791461075e578063db4ecbc1146107ec578063e5c2654e14610843578063f31a1ba2146108b3575b600080fd5b34801561011857600080fd5b50610121610920565b604051808273ffffffffffffffffffffffffffffffffffffffff1673ffffffffffffffffffffffffffffffffffffffff16815260200191505060405180910390f35b34801561016f57600080fd5b5061019e6004803603810190808035600019169060200190929190803515159060200190929190505050610945565b005b3480156101ac57600080fd5b506101fd60048036038101908080356000191690602001909291908035600019169060200190929190803573ffffffffffffffffffffffffffffffffffffffff169060200190929190505050610998565b005b34801561020b57600080fd5b50610214610a1a565b60405180826000191660001916815260200191505060405180910390f35b34801561023e57600080fd5b506102616004803603810190808035600019169060200190929190505050610a20565b604051808273ffffffffffffffffffffffffffffffffffffffff1673ffffffffffffffffffffffffffffffffffffffff16815260200191505060405180910390f35b3480156102af57600080fd5b506103086004803603810190808035600019169060200190929190803573ffffffffffffffffffffffffffffffffffffffff16906020019092919080351515906020019092919080359060200190929190505050610afc565b005b34801561031657600080fd5b506103396004803603810190808035600019169060200190929190505050610c02565b60405180806020018060200180602001848103845287818151815260200191508051906020019060200280838360005b83811015610384578082015181840152602081019050610369565b50505050905001848103835286818151815260200191508051906020019060200280838360005b838110156103c65780820151818401526020810190506103ab565b50505050905001848103825285818151815260200191508051906020019060200280838360005b838110156104085780820151818401526020810190506103ed565b50505050905001965050505050505060405180910390f35b34801561042c57600080fd5b5061044f6004803603810190808035600019169060200190929190505050610d95565b604051808273ffffffffffffffffffffffffffffffffffffffff1673ffffffffffffffffffffffffffffffffffffffff16815260200191505060405180910390f35b34801561049d57600080fd5b506104ca600480360381019080803560001916906020019092919080359060200190929190505050610ddd565b005b3480156104d857600080fd5b506105136004803603810190808035600019169060200190929190803590602001908201803590602001919091929391929390505050610e1d565b604051808381526020018281526020019250505060405180910390f35b34801561053c57600080fd5b5061055f6004803603810190808035600019169060200190929190505050610f32565b604051808215151515815260200191505060405180910390f35b34801561058557600080fd5b506105a86004803603810190808035600019169060200190929190505050610f7d565b6040518082815260200191505060405180910390f35b3480156105ca57600080fd5b506106d66004803603810190808035600019169060200190929190803573ffffffffffffffffffffffffffffffffffffffff169060200190929190803590602001908201803590602001908080602002602001604051908101604052809392919081815260200183836020028082843782019150505050505091929192908035906020019082018035906020019080806020026020016040519081016040528093929190818152602001838360200280828437820191505050505050919291929080359060200190820180359060200190808060200260200160405190810160405280939291908181526020018383602002808284378201915050505050509192919290505050610fbb565b005b3480156106e457600080fd5b50610707600480360381019080803560001916906020019092919050505061121e565b604051808215151515815260200191505060405180910390f35b34801561072d57600080fd5b5061075c6004803603810190808035600019169060200190929190803515159060200190929190505050611269565b005b34801561076a57600080fd5b5061078d60048036038101908080356000191690602001909291905050506112c2565b6040518085600019166000191681526020018473ffffffffffffffffffffffffffffffffffffffff1673ffffffffffffffffffffffffffffffffffffffff16815260200183815260200182815260200194505050505060405180910390f35b3480156107f857600080fd5b50610801611376565b604051808273ffffffffffffffffffffffffffffffffffffffff1673ffffffffffffffffffffffffffffffffffffffff16815260200191505060405180910390f35b34801561084f57600080fd5b506108926004803603810190808035600019169060200190929190803573ffffffffffffffffffffffffffffffffffffffff16906020019092919050505061139c565b60405180831515151581526020018281526020019250505060405180910390f35b3480156108bf57600080fd5b506109026004803603810190808035600019169060200190929190803573ffffffffffffffffffffffffffffffffffffffff1690602001909291905050506114bf565b60405180826000191660001916815260200191505060405180910390f35b6000809054906101000a900473ffffffffffffffffffffffffffffffffffffffff1681565b61095060195461153b565b151561095b57600080fd5b8060766000846000191660001916815260200190815260200160002060020160050160006101000a81548160ff0219169083151502179055505050565b6109a360175461153b565b15156109ae57600080fd5b8160766000856000191660001916815260200190815260200160002060020160020160008373ffffffffffffffffffffffffffffffffffffffff1673ffffffffffffffffffffffffffffffffffffffff1681526020019081526020016000208160001916905550505050565b60015481565b60008060009054906101000a900473ffffffffffffffffffffffffffffffffffffffff1673ffffffffffffffffffffffffffffffffffffffff16633f83acff836040518263ffffffff167c0100000000000000000000000000000000000000000000000000000000028152600401808260001916600019168152602001915050602060405180830381600087803b158015610aba57600080fd5b505af1158015610ace573d6000803e3d6000fd5b505050506040513d6020811015610ae457600080fd5b81019080805190602001909291905050509050919050565b610b0760175461153b565b1515610b1257600080fd5b60766000856000191660001916815260200190815260200160002060020173__DaoStructs____________________________631a14c51b90918585856040518563ffffffff167c0100000000000000000000000000000000000000000000000000000000028152600401808581526020018473ffffffffffffffffffffffffffffffffffffffff1673ffffffffffffffffffffffffffffffffffffffff1681526020018315151515815260200182815260200194505050505060006040518083038186803b158015610be457600080fd5b505af4158015610bf8573d6000803e3d6000fd5b5050505050505050565b6060806060607660008560001916600019168152602001908152602001600020600801805480602002602001604051908101604052809291908181526020018280548015610c6f57602002820191906000526020600020905b815481526020019060010190808311610c5b575b50505050509250607660008560001916600019168152602001908152602001600020600901805480602002602001604051908101604052809291908181526020018280548015610d1457602002820191906000526020600020905b8160009054906101000a900473ffffffffffffffffffffffffffffffffffffffff1673ffffffffffffffffffffffffffffffffffffffff1681526020019060010190808311610cca575b50505050509150607660008560001916600019168152602001908152602001600020600a01805480602002602001604051908101604052809291908181526020018280548015610d8757602002820191906000526020600020905b81546000191681526020019060010190808311610d6f575b505050505090509193909250565b6000607660008360001916600019168152602001908152602001600020600b0160009054906101000a900473ffffffffffffffffffffffffffffffffffffffff169050919050565b610de860155461153b565b1515610df357600080fd5b80607660008460001916600019168152602001908152602001600020600201600001819055505050565b600080610e28611645565b1515610e3357600080fd5b60766000866000191660001916815260200190815260200160002060020173__DaoStructs____________________________63b31ee28c909186866040518463ffffffff167c0100000000000000000000000000000000000000000000000000000000028152600401808481526020018060200182810382528484828181526020019250602002808284378201915050945050505050604080518083038186803b158015610ee157600080fd5b505af4158015610ef5573d6000803e3d6000fd5b505050506040513d6040811015610f0b57600080fd5b81019080805190602001909291908051906020019092919050505091509150935093915050565b6000610f3c611645565b1515610f4757600080fd5b60766000836000191660001916815260200190815260200160002060020160050160009054906101000a900460ff169050919050565b6000610f87611645565b1515610f9257600080fd5b607660008360001916600019168152602001908152602001600020600201600001549050919050565b610fc660155461153b565b1515610fd157600080fd5b600354600019166076600087600019166000191681526020019081526020016000206000015460001916148015611012575060035460001916856000191614155b151561101d57600080fd5b607073__DoublyLinkedList______________________63582f30b49091876040518363ffffffff167c01000000000000000000000000000000000000000000000000000000000281526004018083815260200182600019166000191681526020019250505060206040518083038186803b15801561109b57600080fd5b505af41580156110af573d6000803e3d6000fd5b505050506040513d60208110156110c557600080fd5b81019080805190602001909291905050505084607660008760001916600019168152602001908152602001600020600001816000191690555083607660008760001916600019168152602001908152602001600020600b0160006101000a81548173ffffffffffffffffffffffffffffffffffffffff021916908373ffffffffffffffffffffffffffffffffffffffff16021790555042607660008760001916600019168152602001908152602001600020600101819055508260766000876000191660001916815260200190815260200160002060080190805190602001906111b0929190611771565b508160766000876000191660001916815260200190815260200160002060090190805190602001906111e39291906117be565b5080607660008760001916600019168152602001908152602001600020600a019080519060200190611216929190611848565b505050505050565b6000611228611645565b151561123357600080fd5b60766000836000191660001916815260200190815260200160002060020160050160019054906101000a900460ff169050919050565b600061127660195461153b565b151561128157600080fd5b6076600084600019166000191681526020019081526020016000209050818160020160050160016101000a81548160ff021916908315150217905550505050565b600080600080607660008660001916600019168152602001908152602001600020600001549350607660008660001916600019168152602001908152602001600020600b0160009054906101000a900473ffffffffffffffffffffffffffffffffffffffff1692506076600086600019166000191681526020019081526020016000206001015491506076600086600019166000191681526020019081526020016000206002016000015490509193509193565b600260009054906101000a900473ffffffffffffffffffffffffffffffffffffffff1681565b6000806113a7611645565b15156113b257600080fd5b60766000856000191660001916815260200190815260200160002060020173__DaoStructs____________________________634bf150b99091856040518363ffffffff167c0100000000000000000000000000000000000000000000000000000000028152600401808381526020018273ffffffffffffffffffffffffffffffffffffffff1673ffffffffffffffffffffffffffffffffffffffff16815260200192505050604080518083038186803b15801561146f57600080fd5b505af4158015611483573d6000803e3d6000fd5b505050506040513d604081101561149957600080fd5b810190808051906020019092919080519060200190929190505050915091509250929050565b60006114c9611645565b15156114d457600080fd5b60766000846000191660001916815260200190815260200160002060020160020160008373ffffffffffffffffffffffffffffffffffffffff1673ffffffffffffffffffffffffffffffffffffffff16815260200190815260200160002054905092915050565b60008060009054906101000a900473ffffffffffffffffffffffffffffffffffffffff1673ffffffffffffffffffffffffffffffffffffffff16633f83acff836040518263ffffffff167c0100000000000000000000000000000000000000000000000000000000028152600401808260001916600019168152602001915050602060405180830381600087803b1580156115d557600080fd5b505af11580156115e9573d6000803e3d6000fd5b505050506040513d60208110156115ff57600080fd5b810190808051906020019092919050505073ffffffffffffffffffffffffffffffffffffffff163373ffffffffffffffffffffffffffffffffffffffff16149050919050565b60003273ffffffffffffffffffffffffffffffffffffffff163373ffffffffffffffffffffffffffffffffffffffff16148061175a575061168461175f565b73ffffffffffffffffffffffffffffffffffffffff16639b19251a336040518263ffffffff167c0100000000000000000000000000000000000000000000000000000000028152600401808273ffffffffffffffffffffffffffffffffffffffff1673ffffffffffffffffffffffffffffffffffffffff168152602001915050602060405180830381600087803b15801561171e57600080fd5b505af1158015611732573d6000803e3d6000fd5b505050506040513d602081101561174857600080fd5b81019080805190602001909291905050505b905090565b600061176c602e54610a20565b905090565b8280548282559060005260206000209081019282156117ad579160200282015b828111156117ac578251825591602001919060010190611791565b5b5090506117ba919061189b565b5090565b828054828255906000526020600020908101928215611837579160200282015b828111156118365782518260006101000a81548173ffffffffffffffffffffffffffffffffffffffff021916908373ffffffffffffffffffffffffffffffffffffffff160217905550916020019190600101906117de565b5b50905061184491906118c0565b5090565b82805482825590600052602060002090810192821561188a579160200282015b82811115611889578251829060001916905591602001919060010190611868565b5b5090506118979190611903565b5090565b6118bd91905b808211156118b95760008160009055506001016118a1565b5090565b90565b61190091905b808211156118fc57600081816101000a81549073ffffffffffffffffffffffffffffffffffffffff0219169055506001016118c6565b5090565b90565b61192591905b80821115611921576000816000905550600101611909565b5090565b905600a165627a7a72305820f2a4c13472545c23daaa112ad50e6c50df98fe3996ccf978090b608d5942f7040029",
  "source": "pragma solidity ^0.4.25;\n\nimport \"@digix/solidity-collections/contracts/lib/DoublyLinkedList.sol\";\nimport \"../common/DaoWhitelistingCommon.sol\";\nimport \"../lib/DaoStructs.sol\";\nimport \"./DaoWhitelistingStorage.sol\";\n\ncontract DaoSpecialStorage is DaoWhitelistingCommon {\n    using DoublyLinkedList for DoublyLinkedList.Bytes;\n    using DaoStructs for DaoStructs.SpecialProposal;\n    using DaoStructs for DaoStructs.Voting;\n\n    // List of all the special proposals ever created in DigixDAO\n    DoublyLinkedList.Bytes proposals;\n\n    // mapping of the SpecialProposal struct by its ID\n    // ID is also the IPFS doc hash of the proposal\n    mapping (bytes32 => DaoStructs.SpecialProposal) proposalsById;\n\n    constructor(address _resolver) public {\n        require(init(CONTRACT_STORAGE_DAO_SPECIAL, _resolver));\n    }\n\n    function addSpecialProposal(\n        bytes32 _proposalId,\n        address _proposer,\n        uint256[] _uintConfigs,\n        address[] _addressConfigs,\n        bytes32[] _bytesConfigs\n    )\n        public\n    {\n        require(sender_is(CONTRACT_DAO_SPECIAL_PROPOSAL));\n        require(\n          (proposalsById[_proposalId].proposalId == EMPTY_BYTES) &&\n          (_proposalId != EMPTY_BYTES)\n        );\n        proposals.append(_proposalId);\n        proposalsById[_proposalId].proposalId = _proposalId;\n        proposalsById[_proposalId].proposer = _proposer;\n        proposalsById[_proposalId].timeCreated = now;\n        proposalsById[_proposalId].uintConfigs = _uintConfigs;\n        proposalsById[_proposalId].addressConfigs = _addressConfigs;\n        proposalsById[_proposalId].bytesConfigs = _bytesConfigs;\n    }\n\n    function readProposal(bytes32 _proposalId)\n        public\n        view\n        returns (\n            bytes32 _id,\n            address _proposer,\n            uint256 _timeCreated,\n            uint256 _timeVotingStarted\n        )\n    {\n        _id = proposalsById[_proposalId].proposalId;\n        _proposer = proposalsById[_proposalId].proposer;\n        _timeCreated = proposalsById[_proposalId].timeCreated;\n        _timeVotingStarted = proposalsById[_proposalId].voting.startTime;\n    }\n\n    function readProposalProposer(bytes32 _proposalId)\n        public\n        view\n        returns (address _proposer)\n    {\n        _proposer = proposalsById[_proposalId].proposer;\n    }\n\n    function readConfigs(bytes32 _proposalId)\n        public\n        view\n        returns (\n            uint256[] memory _uintConfigs,\n            address[] memory _addressConfigs,\n            bytes32[] memory _bytesConfigs\n        )\n    {\n        _uintConfigs = proposalsById[_proposalId].uintConfigs;\n        _addressConfigs = proposalsById[_proposalId].addressConfigs;\n        _bytesConfigs = proposalsById[_proposalId].bytesConfigs;\n    }\n\n    function readVotingCount(bytes32 _proposalId, address[] _allUsers)\n        external\n        view\n        returns (uint256 _for, uint256 _against)\n    {\n        require(senderIsAllowedToRead());\n        return proposalsById[_proposalId].voting.countVotes(_allUsers);\n    }\n\n    function readVotingTime(bytes32 _proposalId)\n        public\n        view\n        returns (uint256 _start)\n    {\n        require(senderIsAllowedToRead());\n        _start = proposalsById[_proposalId].voting.startTime;\n    }\n\n    function commitVote(\n        bytes32 _proposalId,\n        bytes32 _hash,\n        address _voter\n    )\n        public\n    {\n        require(sender_is(CONTRACT_DAO_VOTING));\n        proposalsById[_proposalId].voting.commits[_voter] = _hash;\n    }\n\n    function readComittedVote(bytes32 _proposalId, address _voter)\n        public\n        view\n        returns (bytes32 _commitHash)\n    {\n        require(senderIsAllowedToRead());\n        _commitHash = proposalsById[_proposalId].voting.commits[_voter];\n    }\n\n    function setVotingTime(bytes32 _proposalId, uint256 _time)\n        public\n    {\n        require(sender_is(CONTRACT_DAO_SPECIAL_PROPOSAL));\n        proposalsById[_proposalId].voting.startTime = _time;\n    }\n\n    function readVotingResult(bytes32 _proposalId)\n        public\n        view\n        returns (bool _result)\n    {\n        require(senderIsAllowedToRead());\n        _result = proposalsById[_proposalId].voting.passed;\n    }\n\n    function setPass(bytes32 _proposalId, bool _result)\n        public\n    {\n        require(sender_is(CONTRACT_DAO_SPECIAL_VOTING_CLAIMS));\n        proposalsById[_proposalId].voting.passed = _result;\n    }\n\n    function setVotingClaim(bytes32 _proposalId, bool _claimed)\n        public\n    {\n        require(sender_is(CONTRACT_DAO_SPECIAL_VOTING_CLAIMS));\n        DaoStructs.SpecialProposal storage _proposal = proposalsById[_proposalId];\n        _proposal.voting.claimed = _claimed;\n    }\n\n    function isClaimed(bytes32 _proposalId)\n        public\n        view\n        returns (bool _claimed)\n    {\n        require(senderIsAllowedToRead());\n        _claimed = proposalsById[_proposalId].voting.claimed;\n    }\n\n    function readVote(bytes32 _proposalId, address _voter)\n        public\n        view\n        returns (bool _vote, uint256 _weight)\n    {\n        require(senderIsAllowedToRead());\n        return proposalsById[_proposalId].voting.readVote(_voter);\n    }\n\n    function revealVote(\n        bytes32 _proposalId,\n        address _voter,\n        bool _vote,\n        uint256 _weight\n    )\n        public\n    {\n        require(sender_is(CONTRACT_DAO_VOTING));\n        proposalsById[_proposalId].voting.revealVote(_voter, _vote, _weight);\n    }\n}\n",
  "sourcePath": "/home/vu/digix/dao-contracts/contracts/storage/DaoSpecialStorage.sol",
  "compiler": {
    "name": "solc",
    "version": "0.4.25+commit.59dbf8f1.Emscripten.clang"
  },
  "schemaVersion": "2.0.2",
  "updatedAt": "2019-03-29T02:32:49.744Z"
}