{
  "contractName": "DaoStructs",
  "abi": [
    {
      "constant": true,
      "inputs": [
        {
          "name": "_voting",
          "type": "DaoStructs.Voting storage"
        },
        {
          "name": "_allUsers",
          "type": "address[]"
        }
      ],
      "name": "countVotes",
      "outputs": [
        {
          "name": "_for",
          "type": "uint256"
        },
        {
          "name": "_against",
          "type": "uint256"
        }
      ],
      "payable": false,
      "stateMutability": "view",
      "type": "function"
    },
    {
      "constant": true,
      "inputs": [
        {
          "name": "_voting",
          "type": "DaoStructs.Voting storage"
        },
        {
          "name": "_allUsers",
          "type": "address[]"
        },
        {
          "name": "_vote",
          "type": "bool"
        }
      ],
      "name": "listVotes",
      "outputs": [
        {
          "name": "_voters",
          "type": "address[]"
        },
        {
          "name": "_length",
          "type": "uint256"
        }
      ],
      "payable": false,
      "stateMutability": "view",
      "type": "function"
    },
    {
      "constant": true,
      "inputs": [
        {
          "name": "_voting",
          "type": "DaoStructs.Voting storage"
        },
        {
          "name": "_voter",
          "type": "address"
        }
      ],
      "name": "readVote",
      "outputs": [
        {
          "name": "_vote",
          "type": "bool"
        },
        {
          "name": "_weight",
          "type": "uint256"
        }
      ],
      "payable": false,
      "stateMutability": "view",
      "type": "function"
    },
    {
      "constant": false,
      "inputs": [
        {
          "name": "_voting",
          "type": "DaoStructs.Voting storage"
        },
        {
          "name": "_voter",
          "type": "address"
        },
        {
          "name": "_vote",
          "type": "bool"
        },
        {
          "name": "_weight",
          "type": "uint256"
        }
      ],
      "name": "revealVote",
      "outputs": [],
      "payable": false,
      "stateMutability": "nonpayable",
      "type": "function"
    },
    {
      "constant": true,
      "inputs": [
        {
          "name": "_version",
          "type": "DaoStructs.ProposalVersion storage"
        }
      ],
      "name": "readVersion",
      "outputs": [
        {
          "name": "_doc",
          "type": "bytes32"
        },
        {
          "name": "_created",
          "type": "uint256"
        },
        {
          "name": "_milestoneFundings",
          "type": "uint256[]"
        },
        {
          "name": "_finalReward",
          "type": "uint256"
        }
      ],
      "payable": false,
      "stateMutability": "view",
      "type": "function"
    },
    {
      "constant": true,
      "inputs": [
        {
          "name": "_proposal",
          "type": "DaoStructs.Proposal storage"
        },
        {
          "name": "_milestoneIndex",
          "type": "uint256"
        }
      ],
      "name": "readProposalMilestone",
      "outputs": [
        {
          "name": "_funding",
          "type": "uint256"
        }
      ],
      "payable": false,
      "stateMutability": "view",
      "type": "function"
    },
    {
      "constant": false,
      "inputs": [
        {
          "name": "_proposal",
          "type": "DaoStructs.Proposal storage"
        },
        {
          "name": "_newDoc",
          "type": "bytes32"
        },
        {
          "name": "_newMilestoneFundings",
          "type": "uint256[]"
        },
        {
          "name": "_finalReward",
          "type": "uint256"
        }
      ],
      "name": "addProposalVersion",
      "outputs": [],
      "payable": false,
      "stateMutability": "nonpayable",
      "type": "function"
    }
  ],
  "bytecode": "0x610d5d610030600b82828239805160001a6073146000811461002057610022565bfe5b5030600052607381538281f300730000000000000000000000000000000000000000301460806040526004361061009a576000357c0100000000000000000000000000000000000000000000000000000000900463ffffffff16806310d31f641461009f5780631728cc36146101315780631a14c51b1461016f5780634bf150b9146101d2578063b31ee28c14610231578063ea496bc914610284578063f53380cf1461030c575b600080fd5b6100bd600480360381019080803590602001909291905050506103ac565b60405180856000191660001916815260200184815260200180602001838152602001828103825284818151815260200191508051906020019060200280838360005b8381101561011a5780820151818401526020810190506100ff565b505050509050019550505050505060405180910390f35b6101596004803603810190808035906020019092919080359060200190929190505050610424565b6040518082815260200191505060405180910390f35b81801561017b57600080fd5b506101d060048036038101908080359060200190929190803573ffffffffffffffffffffffffffffffffffffffff169060200190929190803515159060200190929190803590602001909291905050506104f3565b005b61021060048036038101908080359060200190929190803573ffffffffffffffffffffffffffffffffffffffff169060200190929190505050610591565b60405180831515151581526020018281526020019250505060405180910390f35b6102676004803603810190808035906020019092919080359060200190820180359060200191909192939192939050505061067b565b604051808381526020018281526020019250505060405180910390f35b81801561029057600080fd5b5061030a600480360381019080803590602001909291908035600019169060200190929190803590602001908201803590602001908080602002602001604051908101604052809392919081815260200183836020028082843782019150505050505091929192908035906020019092919050505061089a565b005b61034e60048036038101908080359060200190929190803590602001908201803590602001919091929391929390803515159060200190929190505050610a2a565b6040518080602001838152602001828103825284818151815260200191508051906020019060200280838360005b8381101561039757808201518184015260208101905061037c565b50505050905001935050505060405180910390f35b6000806060600084600001549350846001015492508460040180548060200260200160405190810160405280929190818152602001828054801561040f57602002820191906000526020600020905b8154815260200190600101908083116103fb575b50505050509150846003015490509193509193565b600080600084601301549150846009016000836000191660001916815260200190815260200160002060040180549050905080841115151561046557600080fd5b60006001026000191682600019161415151561048057600080fd5b808410156104c7578460090160008360001916600019168152602001908152602001600020600401848154811015156104b557fe5b906000526020600020015492506104eb565b84600901600083600019166000191681526020019081526020016000206003015492505b505092915050565b811561054457808460030160008573ffffffffffffffffffffffffffffffffffffffff1673ffffffffffffffffffffffffffffffffffffffff1681526020019081526020016000208190555061058b565b808460040160008573ffffffffffffffffffffffffffffffffffffffff1673ffffffffffffffffffffffffffffffffffffffff168152602001908152602001600020819055505b50505050565b60008060008460030160008573ffffffffffffffffffffffffffffffffffffffff1673ffffffffffffffffffffffffffffffffffffffff16815260200190815260200160002054111561062b578360030160008473ffffffffffffffffffffffffffffffffffffffff1673ffffffffffffffffffffffffffffffffffffffff16815260200190815260200160002054905060019150610674565b8360040160008473ffffffffffffffffffffffffffffffffffffffff1673ffffffffffffffffffffffffffffffffffffffff168152602001908152602001600020549050600091505b9250929050565b600080600080858590509150600090505b8181101561089057600087600301600088888581811015156106aa57fe5b9050602002013573ffffffffffffffffffffffffffffffffffffffff1673ffffffffffffffffffffffffffffffffffffffff1673ffffffffffffffffffffffffffffffffffffffff16815260200190815260200160002054111561078d57610786876003016000888885818110151561071f57fe5b9050602002013573ffffffffffffffffffffffffffffffffffffffff1673ffffffffffffffffffffffffffffffffffffffff1673ffffffffffffffffffffffffffffffffffffffff1681526020019081526020016000205485610ca390919063ffffffff16565b9350610883565b600087600401600088888581811015156107a357fe5b9050602002013573ffffffffffffffffffffffffffffffffffffffff1673ffffffffffffffffffffffffffffffffffffffff1673ffffffffffffffffffffffffffffffffffffffff1681526020019081526020016000205411156108825761087f876004016000888885818110151561081857fe5b9050602002013573ffffffffffffffffffffffffffffffffffffffff1673ffffffffffffffffffffffffffffffffffffffff1673ffffffffffffffffffffffffffffffffffffffff1681526020019081526020016000205484610ca390919063ffffffff16565b92505b5b808060010191505061068c565b5050935093915050565b8360030173__DoublyLinkedList______________________63582f30b49091856040518363ffffffff167c01000000000000000000000000000000000000000000000000000000000281526004018083815260200182600019166000191681526020019250505060206040518083038186803b15801561091a57600080fd5b505af415801561092e573d6000803e3d6000fd5b505050506040513d602081101561094457600080fd5b810190808051906020019092919050505050828460090160008560001916600019168152602001908152602001600020600001816000191690555042846009016000856000191660001916815260200190815260200160002060010181905550815184600901600085600019166000191681526020019081526020016000206002018190555081846009016000856000191660001916815260200190815260200160002060040190805190602001906109fe929190610cbf565b508084600901600085600019166000191681526020019081526020016000206003018190555050505050565b606060008060008686905091506000925081604051908082528060200260200182016040528015610a6a5781602001602082028038833980820191505090505b509350600115158515151415610b8b57600090505b81811015610b865760008860030160008989858181101515610a9d57fe5b9050602002013573ffffffffffffffffffffffffffffffffffffffff1673ffffffffffffffffffffffffffffffffffffffff1673ffffffffffffffffffffffffffffffffffffffff168152602001908152602001600020541115610b79578686828181101515610b0957fe5b9050602002013573ffffffffffffffffffffffffffffffffffffffff168484815181101515610b3457fe5b9060200190602002019073ffffffffffffffffffffffffffffffffffffffff16908173ffffffffffffffffffffffffffffffffffffffff168152505082806001019350505b8080600101915050610a7f565b610c98565b600090505b81811015610c975760008860040160008989858181101515610bae57fe5b9050602002013573ffffffffffffffffffffffffffffffffffffffff1673ffffffffffffffffffffffffffffffffffffffff1673ffffffffffffffffffffffffffffffffffffffff168152602001908152602001600020541115610c8a578686828181101515610c1a57fe5b9050602002013573ffffffffffffffffffffffffffffffffffffffff168484815181101515610c4557fe5b9060200190602002019073ffffffffffffffffffffffffffffffffffffffff16908173ffffffffffffffffffffffffffffffffffffffff168152505082806001019350505b8080600101915050610b90565b5b505094509492505050565b60008183019050828110151515610cb657fe5b80905092915050565b828054828255906000526020600020908101928215610cfb579160200282015b82811115610cfa578251825591602001919060010190610cdf565b5b509050610d089190610d0c565b5090565b610d2e91905b80821115610d2a576000816000905550600101610d12565b5090565b905600a165627a7a72305820facccf5f0d4234c6053c3170d31c81464d829692f569aa2c85246dceab9424be0029",
  "source": "pragma solidity ^0.4.25;\n\nimport \"@digix/solidity-collections/contracts/lib/DoublyLinkedList.sol\";\nimport 'openzeppelin-solidity/contracts/math/SafeMath.sol';\n\nlibrary DaoStructs {\n    using DoublyLinkedList for DoublyLinkedList.Bytes;\n    using SafeMath for uint256;\n    bytes32 constant EMPTY_BYTES = bytes32(0x0);\n\n    struct PrlAction {\n        // UTC timestamp at which the PRL action was done\n        uint256 at;\n\n        // IPFS hash of the document summarizing the action\n        bytes32 doc;\n\n        // Type of action\n        // check PRL_ACTION_* in \"./../common/DaoConstants.sol\"\n        uint256 actionId;\n    }\n\n    struct Voting {\n        // UTC timestamp at which the voting round starts\n        uint256 startTime;\n\n        // Mapping of whether a commit was used in this voting round\n        mapping (bytes32 => bool) usedCommits;\n\n        // Mapping of commits by address. These are the commits during the commit phase in a voting round\n        // This only stores the most recent commit in the voting round\n        // In case a vote is edited, the previous commit is overwritten by the new commit\n        // Only this new commit is verified at the reveal phase\n        mapping (address => bytes32) commits;\n\n        // This mapping is updated after the reveal phase, when votes are revealed\n        // It is a mapping of address to weight of vote\n        // Weight implies the lockedDGDStake of the address, at the time of revealing\n        // If the address voted \"NO\", or didn't vote, this would be 0\n        mapping (address => uint256) yesVotes;\n\n        // This mapping is updated after the reveal phase, when votes are revealed\n        // It is a mapping of address to weight of vote\n        // Weight implies the lockedDGDStake of the address, at the time of revealing\n        // If the address voted \"YES\", or didn't vote, this would be 0\n        mapping (address => uint256) noVotes;\n\n        // Boolean whether the voting round passed or not\n        bool passed;\n\n        // Boolean whether the voting round results were claimed or not\n        // refer the claimProposalVotingResult function in \"./../interative/DaoVotingClaims.sol\"\n        bool claimed;\n\n        // Boolean whether the milestone following this voting round was funded or not\n        // The milestone is funded when the proposer calls claimFunding in \"./../interactive/DaoFundingManager.sol\"\n        bool funded;\n    }\n\n    struct ProposalVersion {\n        // IPFS doc hash of this version of the proposal\n        bytes32 docIpfsHash;\n\n        // UTC timestamp at which this version was created\n        uint256 created;\n\n        // The number of milestones in the proposal as per this version\n        uint256 milestoneCount;\n\n        // The final reward asked by the proposer for completion of the entire proposal\n        uint256 finalReward;\n\n        // List of fundings required by the proposal as per this version\n        // The numbers are in wei\n        uint256[] milestoneFundings;\n\n        // When a proposal is finalized (calling Dao.finalizeProposal), the proposer can no longer add proposal versions\n        // However, they can still add more details to this final proposal version, in the form of IPFS docs.\n        // These IPFS docs are stored in this array\n        bytes32[] moreDocs;\n    }\n\n    struct Proposal {\n        // ID of the proposal. Also the IPFS hash of the first ProposalVersion\n        bytes32 proposalId;\n\n        // current state of the proposal\n        // refer PROPOSAL_STATE_* in \"./../common/DaoConstants.sol\"\n        bytes32 currentState;\n\n        // UTC timestamp at which the proposal was created\n        uint256 timeCreated;\n\n        // DoublyLinkedList of IPFS doc hashes of the various versions of the proposal\n        DoublyLinkedList.Bytes proposalVersionDocs;\n\n        // Mapping of version (IPFS doc hash) to ProposalVersion struct\n        mapping (bytes32 => ProposalVersion) proposalVersions;\n\n        // Voting struct for the draft voting round\n        Voting draftVoting;\n\n        // Mapping of voting round index (starts from 0) to Voting struct\n        // votingRounds[0] is the Voting round of the proposal, which lasts for get_uint_config(CONFIG_VOTING_PHASE_TOTAL)\n        // votingRounds[i] for i>0 are the Interim Voting rounds of the proposal, which lasts for get_uint_config(CONFIG_INTERIM_PHASE_TOTAL)\n        mapping (uint256 => Voting) votingRounds;\n\n        // Every proposal has a collateral tied to it with a value of\n        // get_uint_config(CONFIG_PREPROPOSAL_COLLATERAL) (refer \"./../storage/DaoConfigsStorage.sol\")\n        // Collateral can be in different states\n        // refer COLLATERAL_STATUS_* in \"./../common/DaoConstants.sol\"\n        uint256 collateralStatus;\n        uint256 collateralAmount;\n\n        // The final version of the proposal\n        // Every proposal needs to be finalized before it can be voted on\n        // This is the IPFS doc hash of the final version\n        bytes32 finalVersion;\n\n        // List of PrlAction structs\n        // These are all the actions done by the PRL on the proposal\n        PrlAction[] prlActions;\n\n        // Address of the user who created the proposal\n        address proposer;\n\n        // Address of the moderator who endorsed the proposal\n        address endorser;\n\n        // Boolean whether the proposal is paused/stopped at the moment\n        bool isPausedOrStopped;\n\n        // Boolean whether the proposal was created by a founder role\n        bool isDigix;\n    }\n\n    function countVotes(Voting storage _voting, address[] _allUsers)\n        external\n        view\n        returns (uint256 _for, uint256 _against)\n    {\n        uint256 _n = _allUsers.length;\n        for (uint256 i = 0; i < _n; i++) {\n            if (_voting.yesVotes[_allUsers[i]] > 0) {\n                _for = _for.add(_voting.yesVotes[_allUsers[i]]);\n            } else if (_voting.noVotes[_allUsers[i]] > 0) {\n                _against = _against.add(_voting.noVotes[_allUsers[i]]);\n            }\n        }\n    }\n\n    // get the list of voters who voted _vote (true-yes/false-no)\n    function listVotes(Voting storage _voting, address[] _allUsers, bool _vote)\n        external\n        view\n        returns (address[] memory _voters, uint256 _length)\n    {\n        uint256 _n = _allUsers.length;\n        uint256 i;\n        _length = 0;\n        _voters = new address[](_n);\n        if (_vote == true) {\n            for (i = 0; i < _n; i++) {\n                if (_voting.yesVotes[_allUsers[i]] > 0) {\n                    _voters[_length] = _allUsers[i];\n                    _length++;\n                }\n            }\n        } else {\n            for (i = 0; i < _n; i++) {\n                if (_voting.noVotes[_allUsers[i]] > 0) {\n                    _voters[_length] = _allUsers[i];\n                    _length++;\n                }\n            }\n        }\n    }\n\n    function readVote(Voting storage _voting, address _voter)\n        public\n        view\n        returns (bool _vote, uint256 _weight)\n    {\n        if (_voting.yesVotes[_voter] > 0) {\n            _weight = _voting.yesVotes[_voter];\n            _vote = true;\n        } else {\n            _weight = _voting.noVotes[_voter]; // if _voter didnt vote at all, the weight will be 0 anyway\n            _vote = false;\n        }\n    }\n\n    function revealVote(\n        Voting storage _voting,\n        address _voter,\n        bool _vote,\n        uint256 _weight\n    )\n        public\n    {\n        if (_vote) {\n            _voting.yesVotes[_voter] = _weight;\n        } else {\n            _voting.noVotes[_voter] = _weight;\n        }\n    }\n\n    function readVersion(ProposalVersion storage _version)\n        public\n        view\n        returns (\n            bytes32 _doc,\n            uint256 _created,\n            uint256[] _milestoneFundings,\n            uint256 _finalReward\n        )\n    {\n        _doc = _version.docIpfsHash;\n        _created = _version.created;\n        _milestoneFundings = _version.milestoneFundings;\n        _finalReward = _version.finalReward;\n    }\n\n    // read the funding for a particular milestone of a finalized proposal\n    // if _milestoneId is the same as _milestoneCount, it returns the final reward\n    function readProposalMilestone(Proposal storage _proposal, uint256 _milestoneIndex)\n        public\n        view\n        returns (uint256 _funding)\n    {\n        bytes32 _finalVersion = _proposal.finalVersion;\n        uint256 _milestoneCount = _proposal.proposalVersions[_finalVersion].milestoneFundings.length;\n        require(_milestoneIndex <= _milestoneCount);\n        require(_finalVersion != EMPTY_BYTES); // the proposal must have been finalized\n\n        if (_milestoneIndex < _milestoneCount) {\n            _funding = _proposal.proposalVersions[_finalVersion].milestoneFundings[_milestoneIndex];\n        } else {\n            _funding = _proposal.proposalVersions[_finalVersion].finalReward;\n        }\n    }\n\n    function addProposalVersion(\n        Proposal storage _proposal,\n        bytes32 _newDoc,\n        uint256[] _newMilestoneFundings,\n        uint256 _finalReward\n    )\n        public\n    {\n        _proposal.proposalVersionDocs.append(_newDoc);\n        _proposal.proposalVersions[_newDoc].docIpfsHash = _newDoc;\n        _proposal.proposalVersions[_newDoc].created = now;\n        _proposal.proposalVersions[_newDoc].milestoneCount = _newMilestoneFundings.length;\n        _proposal.proposalVersions[_newDoc].milestoneFundings = _newMilestoneFundings;\n        _proposal.proposalVersions[_newDoc].finalReward = _finalReward;\n    }\n\n    struct SpecialProposal {\n        // ID of the special proposal\n        // This is the IPFS doc hash of the proposal\n        bytes32 proposalId;\n\n        // UTC timestamp at which the proposal was created\n        uint256 timeCreated;\n\n        // Voting struct for the special proposal\n        Voting voting;\n\n        // List of the new uint256 configs as per the special proposal\n        uint256[] uintConfigs;\n\n        // List of the new address configs as per the special proposal\n        address[] addressConfigs;\n\n        // List of the new bytes32 configs as per the special proposal\n        bytes32[] bytesConfigs;\n\n        // Address of the user who created the special proposal\n        // This address should also be in the ROLES_FOUNDERS group\n        // refer \"./../storage/DaoIdentityStorage.sol\"\n        address proposer;\n    }\n\n    // All configs are as per the DaoConfigsStorage values at the time when\n    // calculateGlobalRewardsBeforeNewQuarter is called by founder in that quarter\n    struct DaoQuarterInfo {\n        // The minimum quarter points required\n        // below this, reputation will be deducted\n        uint256 minimalParticipationPoint;\n\n        // The scaling factor for quarter point\n        uint256 quarterPointScalingFactor;\n\n        // The scaling factor for reputation point\n        uint256 reputationPointScalingFactor;\n\n        // The summation of effectiveDGDs in the previous quarter\n        // The effectiveDGDs represents the effective participation in DigixDAO in a quarter\n        // Which depends on lockedDGDStake, quarter point and reputation point\n        // This value is the summation of all participant effectiveDGDs\n        // It will be used to calculate the fraction of effectiveDGD a user has,\n        // which will determine his portion of DGX rewards for that quarter\n        uint256 totalEffectiveDGDPreviousQuarter;\n\n        // The minimum moderator quarter point required\n        // below this, reputation will be deducted for moderators\n        uint256 moderatorMinimalParticipationPoint;\n\n        // the scaling factor for moderator quarter point\n        uint256 moderatorQuarterPointScalingFactor;\n\n        // the scaling factor for moderator reputation point\n        uint256 moderatorReputationPointScalingFactor;\n\n        // The summation of effectiveDGDs (only specific to moderators)\n        uint256 totalEffectiveModeratorDGDLastQuarter;\n\n        // UTC timestamp from which the DGX rewards for the previous quarter are distributable to Holders\n        uint256 dgxDistributionDay;\n\n        // This is the rewards pool for the previous quarter. This is the sum of the DGX fees coming in from the collector, and the demurrage that has incurred\n        // when user call claimRewards() in the previous quarter.\n        // more graphical explanation: https://ipfs.io/ipfs/QmZDgFFMbyF3dvuuDfoXv5F6orq4kaDPo7m3QvnseUguzo\n        uint256 dgxRewardsPoolLastQuarter;\n\n        // The summation of all dgxRewardsPoolLastQuarter up until this quarter\n        uint256 sumRewardsFromBeginning;\n    }\n\n    // There are many function calls where all calculations/summations cannot be done in one transaction\n    // and require multiple transactions.\n    // This struct stores the intermediate results in between the calculating transactions\n    // These intermediate results are stored in IntermediateResultsStorage\n    struct IntermediateResults {\n        // weight of \"FOR\" votes counted up until the current calculation step\n        uint256 currentForCount;\n\n        // weight of \"AGAINST\" votes counted up until the current calculation step\n        uint256 currentAgainstCount;\n\n        // summation of effectiveDGDs up until the iteration of calculation\n        uint256 currentSumOfEffectiveBalance;\n\n        // Address of user until which the calculation has been done\n        address countedUntil;\n    }\n}\n",
  "sourcePath": "/home/rohit/Develop/dao-contracts/contracts/lib/DaoStructs.sol",
  "compiler": {
    "name": "solc",
    "version": "0.4.25+commit.59dbf8f1.Emscripten.clang"
  },
  "schemaVersion": "2.0.2",
  "updatedAt": "2019-03-18T09:12:09.292Z"
}