{
  "contractName": "DaoStakeStorage",
  "abi": [
    {
      "constant": true,
      "inputs": [],
      "name": "resolver",
      "outputs": [
        {
          "name": "",
          "type": "address"
        }
      ],
      "payable": false,
      "stateMutability": "view",
      "type": "function"
    },
    {
      "constant": true,
      "inputs": [],
      "name": "key",
      "outputs": [
        {
          "name": "",
          "type": "bytes32"
        }
      ],
      "payable": false,
      "stateMutability": "view",
      "type": "function"
    },
    {
      "constant": true,
      "inputs": [
        {
          "name": "_key",
          "type": "bytes32"
        }
      ],
      "name": "get_contract",
      "outputs": [
        {
          "name": "_contract",
          "type": "address"
        }
      ],
      "payable": false,
      "stateMutability": "view",
      "type": "function"
    },
    {
      "constant": true,
      "inputs": [
        {
          "name": "",
          "type": "address"
        }
      ],
      "name": "carbonVoteBonusClaimed",
      "outputs": [
        {
          "name": "",
          "type": "bool"
        }
      ],
      "payable": false,
      "stateMutability": "view",
      "type": "function"
    },
    {
      "constant": true,
      "inputs": [
        {
          "name": "",
          "type": "address"
        }
      ],
      "name": "actualLockedDGD",
      "outputs": [
        {
          "name": "",
          "type": "uint256"
        }
      ],
      "payable": false,
      "stateMutability": "view",
      "type": "function"
    },
    {
      "constant": true,
      "inputs": [],
      "name": "totalLockedDGDStake",
      "outputs": [
        {
          "name": "",
          "type": "uint256"
        }
      ],
      "payable": false,
      "stateMutability": "view",
      "type": "function"
    },
    {
      "constant": true,
      "inputs": [],
      "name": "totalModeratorLockedDGDStake",
      "outputs": [
        {
          "name": "",
          "type": "uint256"
        }
      ],
      "payable": false,
      "stateMutability": "view",
      "type": "function"
    },
    {
      "constant": true,
      "inputs": [
        {
          "name": "",
          "type": "address"
        }
      ],
      "name": "lockedDGDStake",
      "outputs": [
        {
          "name": "",
          "type": "uint256"
        }
      ],
      "payable": false,
      "stateMutability": "view",
      "type": "function"
    },
    {
      "constant": true,
      "inputs": [],
      "name": "CONTRACT_ADDRESS",
      "outputs": [
        {
          "name": "",
          "type": "address"
        }
      ],
      "payable": false,
      "stateMutability": "view",
      "type": "function"
    },
    {
      "constant": true,
      "inputs": [
        {
          "name": "",
          "type": "address"
        }
      ],
      "name": "redeemedBadge",
      "outputs": [
        {
          "name": "",
          "type": "bool"
        }
      ],
      "payable": false,
      "stateMutability": "view",
      "type": "function"
    },
    {
      "inputs": [
        {
          "name": "_resolver",
          "type": "address"
        }
      ],
      "payable": false,
      "stateMutability": "nonpayable",
      "type": "constructor"
    },
    {
      "constant": false,
      "inputs": [
        {
          "name": "_user",
          "type": "address"
        }
      ],
      "name": "redeemBadge",
      "outputs": [],
      "payable": false,
      "stateMutability": "nonpayable",
      "type": "function"
    },
    {
      "constant": false,
      "inputs": [
        {
          "name": "_user",
          "type": "address"
        }
      ],
      "name": "setCarbonVoteBonusClaimed",
      "outputs": [],
      "payable": false,
      "stateMutability": "nonpayable",
      "type": "function"
    },
    {
      "constant": false,
      "inputs": [
        {
          "name": "_totalLockedDGDStake",
          "type": "uint256"
        }
      ],
      "name": "updateTotalLockedDGDStake",
      "outputs": [],
      "payable": false,
      "stateMutability": "nonpayable",
      "type": "function"
    },
    {
      "constant": false,
      "inputs": [
        {
          "name": "_totalLockedDGDStake",
          "type": "uint256"
        }
      ],
      "name": "updateTotalModeratorLockedDGDs",
      "outputs": [],
      "payable": false,
      "stateMutability": "nonpayable",
      "type": "function"
    },
    {
      "constant": false,
      "inputs": [
        {
          "name": "_user",
          "type": "address"
        },
        {
          "name": "_actualLockedDGD",
          "type": "uint256"
        },
        {
          "name": "_lockedDGDStake",
          "type": "uint256"
        }
      ],
      "name": "updateUserDGDStake",
      "outputs": [],
      "payable": false,
      "stateMutability": "nonpayable",
      "type": "function"
    },
    {
      "constant": true,
      "inputs": [
        {
          "name": "_user",
          "type": "address"
        }
      ],
      "name": "readUserDGDStake",
      "outputs": [
        {
          "name": "_actualLockedDGD",
          "type": "uint256"
        },
        {
          "name": "_lockedDGDStake",
          "type": "uint256"
        }
      ],
      "payable": false,
      "stateMutability": "view",
      "type": "function"
    },
    {
      "constant": false,
      "inputs": [
        {
          "name": "_user",
          "type": "address"
        }
      ],
      "name": "addToParticipantList",
      "outputs": [
        {
          "name": "_success",
          "type": "bool"
        }
      ],
      "payable": false,
      "stateMutability": "nonpayable",
      "type": "function"
    },
    {
      "constant": false,
      "inputs": [
        {
          "name": "_user",
          "type": "address"
        }
      ],
      "name": "removeFromParticipantList",
      "outputs": [
        {
          "name": "_success",
          "type": "bool"
        }
      ],
      "payable": false,
      "stateMutability": "nonpayable",
      "type": "function"
    },
    {
      "constant": false,
      "inputs": [
        {
          "name": "_user",
          "type": "address"
        }
      ],
      "name": "addToModeratorList",
      "outputs": [
        {
          "name": "_success",
          "type": "bool"
        }
      ],
      "payable": false,
      "stateMutability": "nonpayable",
      "type": "function"
    },
    {
      "constant": false,
      "inputs": [
        {
          "name": "_user",
          "type": "address"
        }
      ],
      "name": "removeFromModeratorList",
      "outputs": [
        {
          "name": "_success",
          "type": "bool"
        }
      ],
      "payable": false,
      "stateMutability": "nonpayable",
      "type": "function"
    },
    {
      "constant": true,
      "inputs": [
        {
          "name": "_user",
          "type": "address"
        }
      ],
      "name": "isInParticipantList",
      "outputs": [
        {
          "name": "_is",
          "type": "bool"
        }
      ],
      "payable": false,
      "stateMutability": "view",
      "type": "function"
    },
    {
      "constant": true,
      "inputs": [
        {
          "name": "_user",
          "type": "address"
        }
      ],
      "name": "isInModeratorsList",
      "outputs": [
        {
          "name": "_is",
          "type": "bool"
        }
      ],
      "payable": false,
      "stateMutability": "view",
      "type": "function"
    },
    {
      "constant": true,
      "inputs": [],
      "name": "readFirstModerator",
      "outputs": [
        {
          "name": "_item",
          "type": "address"
        }
      ],
      "payable": false,
      "stateMutability": "view",
      "type": "function"
    },
    {
      "constant": true,
      "inputs": [],
      "name": "readLastModerator",
      "outputs": [
        {
          "name": "_item",
          "type": "address"
        }
      ],
      "payable": false,
      "stateMutability": "view",
      "type": "function"
    },
    {
      "constant": true,
      "inputs": [
        {
          "name": "_current_item",
          "type": "address"
        }
      ],
      "name": "readNextModerator",
      "outputs": [
        {
          "name": "_item",
          "type": "address"
        }
      ],
      "payable": false,
      "stateMutability": "view",
      "type": "function"
    },
    {
      "constant": true,
      "inputs": [
        {
          "name": "_current_item",
          "type": "address"
        }
      ],
      "name": "readPreviousModerator",
      "outputs": [
        {
          "name": "_item",
          "type": "address"
        }
      ],
      "payable": false,
      "stateMutability": "view",
      "type": "function"
    },
    {
      "constant": true,
      "inputs": [],
      "name": "readTotalModerators",
      "outputs": [
        {
          "name": "_total_count",
          "type": "uint256"
        }
      ],
      "payable": false,
      "stateMutability": "view",
      "type": "function"
    },
    {
      "constant": true,
      "inputs": [],
      "name": "readFirstParticipant",
      "outputs": [
        {
          "name": "_item",
          "type": "address"
        }
      ],
      "payable": false,
      "stateMutability": "view",
      "type": "function"
    },
    {
      "constant": true,
      "inputs": [],
      "name": "readLastParticipant",
      "outputs": [
        {
          "name": "_item",
          "type": "address"
        }
      ],
      "payable": false,
      "stateMutability": "view",
      "type": "function"
    },
    {
      "constant": true,
      "inputs": [
        {
          "name": "_current_item",
          "type": "address"
        }
      ],
      "name": "readNextParticipant",
      "outputs": [
        {
          "name": "_item",
          "type": "address"
        }
      ],
      "payable": false,
      "stateMutability": "view",
      "type": "function"
    },
    {
      "constant": true,
      "inputs": [
        {
          "name": "_current_item",
          "type": "address"
        }
      ],
      "name": "readPreviousParticipant",
      "outputs": [
        {
          "name": "_item",
          "type": "address"
        }
      ],
      "payable": false,
      "stateMutability": "view",
      "type": "function"
    },
    {
      "constant": true,
      "inputs": [],
      "name": "readTotalParticipant",
      "outputs": [
        {
          "name": "_total_count",
          "type": "uint256"
        }
      ],
      "payable": false,
      "stateMutability": "view",
      "type": "function"
    }
  ],
  "bytecode": "0x608060405260006001026003906000191690556000600460006101000a81548173ffffffffffffffffffffffffffffffffffffffff021916908373ffffffffffffffffffffffffffffffffffffffff1602179055507f70726f706f73616c5f73746174655f70726570726f706f73616c0000000000006005906000191690557f70726f706f73616c5f73746174655f64726166740000000000000000000000006006906000191690557f70726f706f73616c5f73746174655f6d6f6465726174656400000000000000006007906000191690557f70726f706f73616c5f73746174655f6f6e676f696e67000000000000000000006008906000191690557f70726f706f73616c5f73746174655f636c6f73656400000000000000000000006009906000191690557f70726f706f73616c5f73746174655f6172636869766564000000000000000000600a906000191690556001600b556002600c556003600d556001600e556002600f5560036010557f696e7465725f6467645f696400000000000000000000000000000000000000006011906000191690557f696e7465725f6d6f645f6467645f6964000000000000000000000000000000006012906000191690557f696e7465725f626f6e75735f63616c63756c6174696f6e5f69640000000000006013906000191690557f64616f00000000000000000000000000000000000000000000000000000000006014906000191690557f64616f3a7370656369616c3a70726f706f73616c0000000000000000000000006015906000191690557f64616f3a7374616b652d6c6f636b696e670000000000000000000000000000006016906000191690557f64616f3a766f74696e67000000000000000000000000000000000000000000006017906000191690557f64616f3a766f74696e673a636c61696d730000000000000000000000000000006018906000191690557f64616f3a73766f74696e673a636c61696d7300000000000000000000000000006019906000191690557f64616f3a6964656e746974790000000000000000000000000000000000000000601a906000191690557f64616f3a726577617264732d6d616e6167657200000000000000000000000000601b906000191690557f64616f3a726577617264732d6578747261730000000000000000000000000000601c906000191690557f64616f3a726f6c65730000000000000000000000000000000000000000000000601d906000191690557f64616f3a66756e64696e672d6d616e6167657200000000000000000000000000601e906000191690557f64616f3a77686974656c697374696e6700000000000000000000000000000000601f906000191690557f64616f3a696e666f726d6174696f6e00000000000000000000000000000000006020906000191690557f736572766963653a726f6c6500000000000000000000000000000000000000006021906000191690557f736572766963653a64616f3a696e666f000000000000000000000000000000006022906000191690557f736572766963653a64616f3a6c697374696e67000000000000000000000000006023906000191690557f736572766963653a64616f3a63616c63756c61746f72000000000000000000006024906000191690557f73746f726167653a64616f0000000000000000000000000000000000000000006025906000191690557f73746f726167653a64616f3a636f756e746572000000000000000000000000006026906000191690557f73746f726167653a64616f3a75706772616465000000000000000000000000006027906000191690557f73746f726167653a64616f3a6964656e746974790000000000000000000000006028906000191690557f73746f726167653a64616f3a706f696e747300000000000000000000000000006029906000191690557f73746f726167653a64616f3a7370656369616c00000000000000000000000000602a906000191690557f73746f726167653a64616f3a636f6e6669670000000000000000000000000000602b906000191690557f73746f726167653a64616f3a7374616b65000000000000000000000000000000602c906000191690557f73746f726167653a64616f3a7265776172647300000000000000000000000000602d906000191690557f73746f726167653a64616f3a77686974656c697374696e670000000000000000602e906000191690557f73746f726167653a696e7465726d6564696174653a726573756c747300000000602f906000191690557f743a6467640000000000000000000000000000000000000000000000000000006030906000191690557f743a6467780000000000000000000000000000000000000000000000000000006031906000191690557f743a6261646765000000000000000000000000000000000000000000000000006032906000191690556001603360006101000a81548160ff021916908360ff1602179055506002603360016101000a81548160ff021916908360ff1602179055506003603360026101000a81548160ff021916908360ff1602179055506004603360036101000a81548160ff021916908360ff1602179055506276a7006034557f6d696e5f6467645f7061727469636970616e74000000000000000000000000006035906000191690557f6d696e5f6467645f6d6f64657261746f720000000000000000000000000000006036906000191690557f6d696e5f72657075746174696f6e5f6d6f64657261746f7200000000000000006037906000191690557f6c6f636b696e675f70686173655f6475726174696f6e000000000000000000006038906000191690557f717561727465725f6475726174696f6e000000000000000000000000000000006039906000191690557f766f74696e675f636f6d6d69745f706861736500000000000000000000000000603a906000191690557f766f74696e675f70686173655f746f74616c0000000000000000000000000000603b906000191690557f696e746572696d5f766f74696e675f636f6d6d69745f70686173650000000000603c906000191690557f696e746572696d5f766f74696e675f70686173655f746f74616c000000000000603d906000191690557f64726166745f71756f72756d5f66697865645f6e756d657261746f7200000000603e906000191690557f64726166745f71756f72756d5f66697865645f64656e6f6d696e61746f720000603f906000191690557f64726166745f71756f72756d5f73666163746f725f6e756d657261746f7200006040906000191690557f64726166745f71756f72756d5f73666163746f725f64656e6f6d696e61746f726041906000191690557f766f74655f71756f72756d5f66697865645f6e756d657261746f7200000000006042906000191690557f766f74655f71756f72756d5f66697865645f64656e6f6d696e61746f720000006043906000191690557f766f74655f71756f72756d5f73666163746f725f6e756d657261746f720000006044906000191690557f766f74655f71756f72756d5f73666163746f725f64656e6f6d696e61746f72006045906000191690557f66696e616c5f7265776172645f73666163746f725f6e756d657261746f7200006046906000191690557f66696e616c5f7265776172645f73666163746f725f64656e6f6d696e61746f726047906000191690557f64726166745f71756f74615f6e756d657261746f7200000000000000000000006048906000191690557f64726166745f71756f74615f64656e6f6d696e61746f720000000000000000006049906000191690557f766f74696e675f71756f74615f6e756d657261746f7200000000000000000000604a906000191690557f766f74696e675f71756f74615f64656e6f6d696e61746f720000000000000000604b906000191690557f6d696e696d616c5f717000000000000000000000000000000000000000000000604c906000191690557f717561727465725f706f696e745f7363616c696e675f666163746f7200000000604d906000191690557f7265705f706f696e745f7363616c696e675f666163746f720000000000000000604e906000191690557f6d696e696d616c5f6d6f645f7170000000000000000000000000000000000000604f906000191690557f6d6f645f71705f7363616c696e675f666163746f7200000000000000000000006050906000191690557f6d6f645f7265705f706f696e745f7363616c696e675f666163746f72000000006051906000191690557f717561727465725f706f696e745f64726166745f766f746500000000000000006052906000191690557f717561727465725f706f696e745f766f746500000000000000000000000000006053906000191690557f717561727465725f706f696e745f696e746572696d5f766f74650000000000006054906000191690557f715f705f6d696c6573746f6e655f636f6d706c6574696f6e00000000000000006055906000191690557f626f6e75735f72657075746174696f6e5f6e756d657261746f720000000000006056906000191690557f626f6e75735f72657075746174696f6e5f64656e6f6d696e61746f72000000006057906000191690557f7370656369616c5f70726f706f73616c5f636f6d6d69745f70686173650000006058906000191690557f7370656369616c5f70726f706f73616c5f70686173655f746f74616c000000006059906000191690557f636f6e6669675f7370656369616c5f71756f74615f6e756d657261746f720000605a906000191690557f636f6e6669675f7370656369616c5f71756f74615f64656e6f6d696e61746f72605b906000191690557f7370656369616c5f71756f72756d5f6e756d657261746f720000000000000000605c906000191690557f7370656369616c5f71756f72756d5f64656e6f6d696e61746f72000000000000605d906000191690557f636f6e6669675f6d61785f72657075746174696f6e5f646564756374696f6e00605e906000191690557f636f6e6669675f70756e6973686d656e745f6e6f745f6c6f636b696e67000000605f906000191690557f636f6e6669675f7265705f7065725f65787472615f71705f6e756d00000000006060906000191690557f636f6e6669675f7265705f7065725f65787472615f71705f64656e00000000006061906000191690557f636f6e6669675f6d61785f6d5f72705f646564756374696f6e000000000000006062906000191690557f636f6e6669675f7265705f7065725f65787472615f6d5f71705f6e756d0000006063906000191690557f636f6e6669675f7265705f7065725f65787472615f6d5f71705f64656e0000006064906000191690557f636f6e6669675f6d6f645f706f7274696f6e5f6e756d000000000000000000006065906000191690557f636f6e6669675f6d6f645f706f7274696f6e5f64656e000000000000000000006066906000191690557f636f6e6669675f64726166745f766f74696e675f7068617365000000000000006067906000191690557f636f6e6669675f72705f626f6f73745f7065725f6261646765000000000000006068906000191690557f636f6e6669675f636c61696d696e675f646561646c696e6500000000000000006069906000191690557f636f6e6669675f70726570726f706f73616c5f636f6c6c61746572616c000000606a906000191690557f636f6e6669675f6d61785f66756e64696e675f6e6f6e44696769780000000000606b906000191690557f636f6e6669675f6d61785f6d696c6573746f6e65735f6e6f6e44696769780000606c906000191690557f636f6e6669675f6e6f6e44696769785f70726f706f73616c5f63617000000000606d906000191690557f636f6e6669675f646561645f6475726174696f6e000000000000000000000000606e906000191690557f636f6e6669675f63765f72657075746174696f6e000000000000000000000000606f906000191690553480156200113457600080fd5b50604051602080620031b18339810180604052810190808051906020019092919050505062001175602c548262001188640100000000026401000000009004565b15156200118157600080fd5b5062001419565b6000808273ffffffffffffffffffffffffffffffffffffffff16636d19a8826040518163ffffffff167c0100000000000000000000000000000000000000000000000000000000028152600401602060405180830381600087803b158015620011f057600080fd5b505af115801562001205573d6000803e3d6000fd5b505050506040513d60208110156200121c57600080fd5b810190808051906020019092919050505090506000151581151514156200140d5730600260006101000a81548173ffffffffffffffffffffffffffffffffffffffff021916908373ffffffffffffffffffffffffffffffffffffffff160217905550826000806101000a81548173ffffffffffffffffffffffffffffffffffffffff021916908373ffffffffffffffffffffffffffffffffffffffff16021790555083600181600019169055506000809054906101000a900473ffffffffffffffffffffffffffffffffffffffff1673ffffffffffffffffffffffffffffffffffffffff1663c0f6ef4a600154600260009054906101000a900473ffffffffffffffffffffffffffffffffffffffff166040518363ffffffff167c01000000000000000000000000000000000000000000000000000000000281526004018083600019166000191681526020018273ffffffffffffffffffffffffffffffffffffffff1673ffffffffffffffffffffffffffffffffffffffff16815260200192505050602060405180830381600087803b158015620013ba57600080fd5b505af1158015620013cf573d6000803e3d6000fd5b505050506040513d6020811015620013e657600080fd5b810190808051906020019092919050505015156200140357600080fd5b6001915062001412565b600091505b5092915050565b611d8880620014296000396000f300608060405260043610610196576000357c0100000000000000000000000000000000000000000000000000000000900463ffffffff16806303a996a11461019b57806303cc89b4146101f657806304f3bcec146102395780630c30a1d5146102905780631538e68c146102eb5780633943380c146103185780633e0fd2651461034b5780633f83acff146103ce57806344d9bfe61461043f57806344e518a31461049a5780635515eb2c1461051d578063583fd501146105605780635bdd2743146105b757806363a64067146106155780636d080338146106985780637bbad0b8146106f357806382624a2e1461077657806388954a6c146107cd57806391baa14414610828578063abe8168c14610855578063abed029a146108ac578063ad5c4647146108d7578063b5830a4c1461092e578063bbb03dc214610959578063bf448a87146109b0578063cd094a27146109db578063db4ecbc114610a32578063e3bc96ba14610a89578063e3bd970e14610ab4578063e41b4c5c14610b0b578063f01a13e114610b66578063f2388b4214610bc1575b600080fd5b3480156101a757600080fd5b506101dc600480360381019080803573ffffffffffffffffffffffffffffffffffffffff169060200190929190505050610c1c565b604051808215151515815260200191505060405180910390f35b34801561020257600080fd5b50610237600480360381019080803573ffffffffffffffffffffffffffffffffffffffff169060200190929190505050610d18565b005b34801561024557600080fd5b5061024e610d89565b604051808273ffffffffffffffffffffffffffffffffffffffff1673ffffffffffffffffffffffffffffffffffffffff16815260200191505060405180910390f35b34801561029c57600080fd5b506102d1600480360381019080803573ffffffffffffffffffffffffffffffffffffffff169060200190929190505050610dae565b604051808215151515815260200191505060405180910390f35b3480156102f757600080fd5b5061031660048036038101908080359060200190929190505050610e97565b005b34801561032457600080fd5b5061032d610eee565b60405180826000191660001916815260200191505060405180910390f35b34801561035757600080fd5b5061038c600480360381019080803573ffffffffffffffffffffffffffffffffffffffff169060200190929190505050610ef4565b604051808273ffffffffffffffffffffffffffffffffffffffff1673ffffffffffffffffffffffffffffffffffffffff16815260200191505060405180910390f35b3480156103da57600080fd5b506103fd6004803603810190808035600019169060200190929190505050610f08565b604051808273ffffffffffffffffffffffffffffffffffffffff1673ffffffffffffffffffffffffffffffffffffffff16815260200191505060405180910390f35b34801561044b57600080fd5b50610480600480360381019080803573ffffffffffffffffffffffffffffffffffffffff169060200190929190505050610fe4565b604051808215151515815260200191505060405180910390f35b3480156104a657600080fd5b506104db600480360381019080803573ffffffffffffffffffffffffffffffffffffffff1690602001909291905050506110e0565b604051808273ffffffffffffffffffffffffffffffffffffffff1673ffffffffffffffffffffffffffffffffffffffff16815260200191505060405180910390f35b34801561052957600080fd5b5061055e600480360381019080803573ffffffffffffffffffffffffffffffffffffffff1690602001909291905050506110f4565b005b34801561056c57600080fd5b50610575611165565b604051808273ffffffffffffffffffffffffffffffffffffffff1673ffffffffffffffffffffffffffffffffffffffff16815260200191505060405180910390f35b3480156105c357600080fd5b506105f8600480360381019080803573ffffffffffffffffffffffffffffffffffffffff169060200190929190505050611176565b604051808381526020018281526020019250505060405180910390f35b34801561062157600080fd5b50610656600480360381019080803573ffffffffffffffffffffffffffffffffffffffff169060200190929190505050611202565b604051808273ffffffffffffffffffffffffffffffffffffffff1673ffffffffffffffffffffffffffffffffffffffff16815260200191505060405180910390f35b3480156106a457600080fd5b506106d9600480360381019080803573ffffffffffffffffffffffffffffffffffffffff169060200190929190505050611216565b604051808215151515815260200191505060405180910390f35b3480156106ff57600080fd5b50610734600480360381019080803573ffffffffffffffffffffffffffffffffffffffff169060200190929190505050611236565b604051808273ffffffffffffffffffffffffffffffffffffffff1673ffffffffffffffffffffffffffffffffffffffff16815260200191505060405180910390f35b34801561078257600080fd5b5061078b61124a565b604051808273ffffffffffffffffffffffffffffffffffffffff1673ffffffffffffffffffffffffffffffffffffffff16815260200191505060405180910390f35b3480156107d957600080fd5b5061080e600480360381019080803573ffffffffffffffffffffffffffffffffffffffff16906020019092919050505061125b565b604051808215151515815260200191505060405180910390f35b34801561083457600080fd5b5061085360048036038101908080359060200190929190505050611344565b005b34801561086157600080fd5b50610896600480360381019080803573ffffffffffffffffffffffffffffffffffffffff16906020019092919050505061139b565b6040518082815260200191505060405180910390f35b3480156108b857600080fd5b506108c16113b3565b6040518082815260200191505060405180910390f35b3480156108e357600080fd5b5061092c600480360381019080803573ffffffffffffffffffffffffffffffffffffffff16906020019092919080359060200190929190803590602001909291905050506113b9565b005b34801561093a57600080fd5b5061094361145c565b6040518082815260200191505060405180910390f35b34801561096557600080fd5b5061096e61146d565b604051808273ffffffffffffffffffffffffffffffffffffffff1673ffffffffffffffffffffffffffffffffffffffff16815260200191505060405180910390f35b3480156109bc57600080fd5b506109c561147e565b6040518082815260200191505060405180910390f35b3480156109e757600080fd5b50610a1c600480360381019080803573ffffffffffffffffffffffffffffffffffffffff169060200190929190505050611484565b6040518082815260200191505060405180910390f35b348015610a3e57600080fd5b50610a4761149c565b604051808273ffffffffffffffffffffffffffffffffffffffff1673ffffffffffffffffffffffffffffffffffffffff16815260200191505060405180910390f35b348015610a9557600080fd5b50610a9e6114c2565b6040518082815260200191505060405180910390f35b348015610ac057600080fd5b50610ac96114d3565b604051808273ffffffffffffffffffffffffffffffffffffffff1673ffffffffffffffffffffffffffffffffffffffff16815260200191505060405180910390f35b348015610b1757600080fd5b50610b4c600480360381019080803573ffffffffffffffffffffffffffffffffffffffff1690602001909291905050506114e4565b604051808215151515815260200191505060405180910390f35b348015610b7257600080fd5b50610ba7600480360381019080803573ffffffffffffffffffffffffffffffffffffffff1690602001909291905050506115e0565b604051808215151515815260200191505060405180910390f35b348015610bcd57600080fd5b50610c02600480360381019080803573ffffffffffffffffffffffffffffffffffffffff169060200190929190505050611600565b604051808215151515815260200191505060405180910390f35b6000610c296016546116fc565b1515610c3457600080fd5b607a73__DoublyLinkedList______________________63bf8a2ac69091846040518363ffffffff167c0100000000000000000000000000000000000000000000000000000000028152600401808381526020018273ffffffffffffffffffffffffffffffffffffffff1673ffffffffffffffffffffffffffffffffffffffff1681526020019250505060206040518083038186803b158015610cd657600080fd5b505af4158015610cea573d6000803e3d6000fd5b505050506040513d6020811015610d0057600080fd5b81019080805190602001909291905050509050919050565b610d236016546116fc565b1515610d2e57600080fd5b6001608060008373ffffffffffffffffffffffffffffffffffffffff1673ffffffffffffffffffffffffffffffffffffffff16815260200190815260200160002060006101000a81548160ff02191690831515021790555050565b6000809054906101000a900473ffffffffffffffffffffffffffffffffffffffff1681565b600080607473__DoublyLinkedList______________________637ee0a5839091856040518363ffffffff167c0100000000000000000000000000000000000000000000000000000000028152600401808381526020018273ffffffffffffffffffffffffffffffffffffffff1673ffffffffffffffffffffffffffffffffffffffff1681526020019250505060206040518083038186803b158015610e5357600080fd5b505af4158015610e67573d6000803e3d6000fd5b505050506040513d6020811015610e7d57600080fd5b810190808051906020019092919050505014159050919050565b610ed960606040519081016040528060165460001916600019168152602001601b54600019166000191681526020016003546000191660001916815250611806565b1515610ee457600080fd5b8060728190555050565b60015481565b6000610f0160748361197d565b9050919050565b60008060009054906101000a900473ffffffffffffffffffffffffffffffffffffffff1673ffffffffffffffffffffffffffffffffffffffff16633f83acff836040518263ffffffff167c0100000000000000000000000000000000000000000000000000000000028152600401808260001916600019168152602001915050602060405180830381600087803b158015610fa257600080fd5b505af1158015610fb6573d6000803e3d6000fd5b505050506040513d6020811015610fcc57600080fd5b81019080805190602001909291905050509050919050565b6000610ff16016546116fc565b1515610ffc57600080fd5b607473__DoublyLinkedList______________________638dc8bc2b9091846040518363ffffffff167c0100000000000000000000000000000000000000000000000000000000028152600401808381526020018273ffffffffffffffffffffffffffffffffffffffff1673ffffffffffffffffffffffffffffffffffffffff1681526020019250505060206040518083038186803b15801561109e57600080fd5b505af41580156110b2573d6000803e3d6000fd5b505050506040513d60208110156110c857600080fd5b81019080805190602001909291905050509050919050565b60006110ed607a8361197d565b9050919050565b6110ff6016546116fc565b151561110a57600080fd5b6001608160008373ffffffffffffffffffffffffffffffffffffffff1673ffffffffffffffffffffffffffffffffffffffff16815260200190815260200160002060006101000a81548160ff02191690831515021790555050565b6000611171607a611a63565b905090565b600080607160008473ffffffffffffffffffffffffffffffffffffffff1673ffffffffffffffffffffffffffffffffffffffff168152602001908152602001600020549150607060008473ffffffffffffffffffffffffffffffffffffffff1673ffffffffffffffffffffffffffffffffffffffff168152602001908152602001600020549050915091565b600061120f607a83611b14565b9050919050565b60816020528060005260406000206000915054906101000a900460ff1681565b6000611243607483611b14565b9050919050565b60006112566074611bfa565b905090565b600080607a73__DoublyLinkedList______________________637ee0a5839091856040518363ffffffff167c0100000000000000000000000000000000000000000000000000000000028152600401808381526020018273ffffffffffffffffffffffffffffffffffffffff1673ffffffffffffffffffffffffffffffffffffffff1681526020019250505060206040518083038186803b15801561130057600080fd5b505af4158015611314573d6000803e3d6000fd5b505050506040513d602081101561132a57600080fd5b810190808051906020019092919050505014159050919050565b61138660606040519081016040528060165460001916600019168152602001601b54600019166000191681526020016003546000191660001916815250611806565b151561139157600080fd5b8060738190555050565b60716020528060005260406000206000915090505481565b60725481565b6113c46016546116fc565b15156113cf57600080fd5b81607160008573ffffffffffffffffffffffffffffffffffffffff1673ffffffffffffffffffffffffffffffffffffffff1681526020019081526020016000208190555080607060008573ffffffffffffffffffffffffffffffffffffffff1673ffffffffffffffffffffffffffffffffffffffff16815260200190815260200160002081905550505050565b60006114686074611cab565b905090565b6000611479607a611bfa565b905090565b60735481565b60706020528060005260406000206000915090505481565b600260009054906101000a900473ffffffffffffffffffffffffffffffffffffffff1681565b60006114ce607a611cab565b905090565b60006114df6074611a63565b905090565b60006114f16016546116fc565b15156114fc57600080fd5b607473__DoublyLinkedList______________________63bf8a2ac69091846040518363ffffffff167c0100000000000000000000000000000000000000000000000000000000028152600401808381526020018273ffffffffffffffffffffffffffffffffffffffff1673ffffffffffffffffffffffffffffffffffffffff1681526020019250505060206040518083038186803b15801561159e57600080fd5b505af41580156115b2573d6000803e3d6000fd5b505050506040513d60208110156115c857600080fd5b81019080805190602001909291905050509050919050565b60806020528060005260406000206000915054906101000a900460ff1681565b600061160d6016546116fc565b151561161857600080fd5b607a73__DoublyLinkedList______________________638dc8bc2b9091846040518363ffffffff167c0100000000000000000000000000000000000000000000000000000000028152600401808381526020018273ffffffffffffffffffffffffffffffffffffffff1673ffffffffffffffffffffffffffffffffffffffff1681526020019250505060206040518083038186803b1580156116ba57600080fd5b505af41580156116ce573d6000803e3d6000fd5b505050506040513d60208110156116e457600080fd5b81019080805190602001909291905050509050919050565b60008060009054906101000a900473ffffffffffffffffffffffffffffffffffffffff1673ffffffffffffffffffffffffffffffffffffffff16633f83acff836040518263ffffffff167c0100000000000000000000000000000000000000000000000000000000028152600401808260001916600019168152602001915050602060405180830381600087803b15801561179657600080fd5b505af11580156117aa573d6000803e3d6000fd5b505050506040513d60208110156117c057600080fd5b810190808051906020019092919050505073ffffffffffffffffffffffffffffffffffffffff163373ffffffffffffffffffffffffffffffffffffffff16149050919050565b600080600060039150600090505b8181101561197657600060010260001916848260038110151561183357fe5b602002015160001916141561184757611969565b6000809054906101000a900473ffffffffffffffffffffffffffffffffffffffff1673ffffffffffffffffffffffffffffffffffffffff16633f83acff858360038110151561189257fe5b60200201516040518263ffffffff167c0100000000000000000000000000000000000000000000000000000000028152600401808260001916600019168152602001915050602060405180830381600087803b1580156118f157600080fd5b505af1158015611905573d6000803e3d6000fd5b505050506040513d602081101561191b57600080fd5b810190808051906020019092919050505073ffffffffffffffffffffffffffffffffffffffff163373ffffffffffffffffffffffffffffffffffffffff1614156119685760019250611976565b5b8080600101915050611814565b5050919050565b60008273__DoublyLinkedList______________________63a7b9777c9091846040518363ffffffff167c0100000000000000000000000000000000000000000000000000000000028152600401808381526020018273ffffffffffffffffffffffffffffffffffffffff1673ffffffffffffffffffffffffffffffffffffffff1681526020019250505060206040518083038186803b158015611a2057600080fd5b505af4158015611a34573d6000803e3d6000fd5b505050506040513d6020811015611a4a57600080fd5b8101908080519060200190929190505050905092915050565b60008173__DoublyLinkedList______________________63c333848890916040518263ffffffff167c01000000000000000000000000000000000000000000000000000000000281526004018082815260200191505060206040518083038186803b158015611ad257600080fd5b505af4158015611ae6573d6000803e3d6000fd5b505050506040513d6020811015611afc57600080fd5b81019080805190602001909291905050509050919050565b60008273__DoublyLinkedList______________________6387fca8a69091846040518363ffffffff167c0100000000000000000000000000000000000000000000000000000000028152600401808381526020018273ffffffffffffffffffffffffffffffffffffffff1673ffffffffffffffffffffffffffffffffffffffff1681526020019250505060206040518083038186803b158015611bb757600080fd5b505af4158015611bcb573d6000803e3d6000fd5b505050506040513d6020811015611be157600080fd5b8101908080519060200190929190505050905092915050565b60008173__DoublyLinkedList______________________63f46574aa90916040518263ffffffff167c01000000000000000000000000000000000000000000000000000000000281526004018082815260200191505060206040518083038186803b158015611c6957600080fd5b505af4158015611c7d573d6000803e3d6000fd5b505050506040513d6020811015611c9357600080fd5b81019080805190602001909291905050509050919050565b60008173__DoublyLinkedList______________________6312e3853d90916040518263ffffffff167c01000000000000000000000000000000000000000000000000000000000281526004018082815260200191505060206040518083038186803b158015611d1a57600080fd5b505af4158015611d2e573d6000803e3d6000fd5b505050506040513d6020811015611d4457600080fd5b810190808051906020019092919050505090509190505600a165627a7a7230582057c9fe8996dffd2a1656fbb185424e9ce6c1943648c73d836f1cb81704c434860029",
  "source": "pragma solidity ^0.4.25;\n\nimport \"@digix/solidity-collections/contracts/lib/DoublyLinkedList.sol\";\nimport \"@digix/solidity-collections/contracts/abstract/AddressIteratorStorage.sol\";\nimport \"@digix/cacp-contracts-dao/contracts/ResolverClient.sol\";\nimport \"../common/DaoConstants.sol\";\n\ncontract DaoStakeStorage is ResolverClient, DaoConstants, AddressIteratorStorage {\n    using DoublyLinkedList for DoublyLinkedList.Address;\n\n    // This is the DGD stake of a user (one that is considered in the DAO)\n    mapping (address => uint256) public lockedDGDStake;\n\n    // This is the actual number of DGDs locked by user\n    // may be more than the lockedDGDStake\n    // in case they locked during the main phase\n    mapping (address => uint256) public actualLockedDGD;\n\n    // The total locked DGDs in the DAO (summation of lockedDGDStake)\n    uint256 public totalLockedDGDStake;\n\n    // The total locked DGDs by moderators\n    uint256 public totalModeratorLockedDGDStake;\n\n    // The list of participants in DAO\n    // actual participants will be subset of this list\n    DoublyLinkedList.Address allParticipants;\n\n    // The list of moderators in DAO\n    // actual moderators will be subset of this list\n    DoublyLinkedList.Address allModerators;\n\n    // Boolean to mark if an address has redeemed\n    // reputation points for their DGD Badge\n    mapping (address => bool) public redeemedBadge;\n\n    // mapping to note whether an address has claimed their\n    // reputation bonus for carbon vote participation\n    mapping (address => bool) public carbonVoteBonusClaimed;\n\n    constructor(address _resolver) public {\n        require(init(CONTRACT_STORAGE_DAO_STAKE, _resolver));\n    }\n\n    function redeemBadge(address _user)\n        public\n    {\n        require(sender_is(CONTRACT_DAO_STAKE_LOCKING));\n        redeemedBadge[_user] = true;\n    }\n\n    function setCarbonVoteBonusClaimed(address _user)\n        public\n    {\n        require(sender_is(CONTRACT_DAO_STAKE_LOCKING));\n        carbonVoteBonusClaimed[_user] = true;\n    }\n\n    function updateTotalLockedDGDStake(uint256 _totalLockedDGDStake)\n        public\n    {\n        require(sender_is_from([CONTRACT_DAO_STAKE_LOCKING, CONTRACT_DAO_REWARDS_MANAGER, EMPTY_BYTES]));\n        totalLockedDGDStake = _totalLockedDGDStake;\n    }\n\n    function updateTotalModeratorLockedDGDs(uint256 _totalLockedDGDStake)\n        public\n    {\n        require(sender_is_from([CONTRACT_DAO_STAKE_LOCKING, CONTRACT_DAO_REWARDS_MANAGER, EMPTY_BYTES]));\n        totalModeratorLockedDGDStake = _totalLockedDGDStake;\n    }\n\n    function updateUserDGDStake(address _user, uint256 _actualLockedDGD, uint256 _lockedDGDStake)\n        public\n    {\n        require(sender_is(CONTRACT_DAO_STAKE_LOCKING));\n        actualLockedDGD[_user] = _actualLockedDGD;\n        lockedDGDStake[_user] = _lockedDGDStake;\n    }\n\n    function readUserDGDStake(address _user)\n        public\n        view\n        returns (\n            uint256 _actualLockedDGD,\n            uint256 _lockedDGDStake\n        )\n    {\n        _actualLockedDGD = actualLockedDGD[_user];\n        _lockedDGDStake = lockedDGDStake[_user];\n    }\n\n    function addToParticipantList(address _user)\n        public\n        returns (bool _success)\n    {\n        require(sender_is(CONTRACT_DAO_STAKE_LOCKING));\n        _success = allParticipants.append(_user);\n    }\n\n    function removeFromParticipantList(address _user)\n        public\n        returns (bool _success)\n    {\n        require(sender_is(CONTRACT_DAO_STAKE_LOCKING));\n        _success = allParticipants.remove_item(_user);\n    }\n\n    function addToModeratorList(address _user)\n        public\n        returns (bool _success)\n    {\n        require(sender_is(CONTRACT_DAO_STAKE_LOCKING));\n        _success = allModerators.append(_user);\n    }\n\n    function removeFromModeratorList(address _user)\n        public\n        returns (bool _success)\n    {\n        require(sender_is(CONTRACT_DAO_STAKE_LOCKING));\n        _success = allModerators.remove_item(_user);\n    }\n\n    function isInParticipantList(address _user)\n        public\n        view\n        returns (bool _is)\n    {\n        _is = allParticipants.find(_user) != 0;\n    }\n\n    function isInModeratorsList(address _user)\n        public\n        view\n        returns (bool _is)\n    {\n        _is = allModerators.find(_user) != 0;\n    }\n\n    function readFirstModerator()\n        public\n        view\n        returns (address _item)\n    {\n        _item = read_first_from_addresses(allModerators);\n    }\n\n    function readLastModerator()\n        public\n        view\n        returns (address _item)\n    {\n        _item = read_last_from_addresses(allModerators);\n    }\n\n    function readNextModerator(address _current_item)\n        public\n        view\n        returns (address _item)\n    {\n        _item = read_next_from_addresses(allModerators, _current_item);\n    }\n\n    function readPreviousModerator(address _current_item)\n        public\n        view\n        returns (address _item)\n    {\n        _item = read_previous_from_addresses(allModerators, _current_item);\n    }\n\n    function readTotalModerators()\n        public\n        view\n        returns (uint256 _total_count)\n    {\n        _total_count = read_total_addresses(allModerators);\n    }\n\n    function readFirstParticipant()\n        public\n        view\n        returns (address _item)\n    {\n        _item = read_first_from_addresses(allParticipants);\n    }\n\n    function readLastParticipant()\n        public\n        view\n        returns (address _item)\n    {\n        _item = read_last_from_addresses(allParticipants);\n    }\n\n    function readNextParticipant(address _current_item)\n        public\n        view\n        returns (address _item)\n    {\n        _item = read_next_from_addresses(allParticipants, _current_item);\n    }\n\n    function readPreviousParticipant(address _current_item)\n        public\n        view\n        returns (address _item)\n    {\n        _item = read_previous_from_addresses(allParticipants, _current_item);\n    }\n\n    function readTotalParticipant()\n        public\n        view\n        returns (uint256 _total_count)\n    {\n        _total_count = read_total_addresses(allParticipants);\n    }\n}\n",
  "sourcePath": "/Users/aeufemio/projects/dgx/contracts/dao-contracts/contracts/storage/DaoStakeStorage.sol",
  "compiler": {
    "name": "solc",
    "version": "0.4.25+commit.59dbf8f1.Emscripten.clang"
  },
  "schemaVersion": "2.0.2",
  "updatedAt": "2020-03-16T04:04:29.014Z"
}