{
  "contractName": "DaoStakeLocking",
  "abi": [
    {
      "constant": true,
      "inputs": [],
      "name": "resolver",
      "outputs": [
        {
          "name": "",
          "type": "address"
        }
      ],
      "payable": false,
      "stateMutability": "view",
      "type": "function"
    },
    {
      "constant": true,
      "inputs": [],
      "name": "dgdBadgeToken",
      "outputs": [
        {
          "name": "",
          "type": "address"
        }
      ],
      "payable": false,
      "stateMutability": "view",
      "type": "function"
    },
    {
      "constant": true,
      "inputs": [
        {
          "name": "_configKey",
          "type": "bytes32"
        }
      ],
      "name": "getAddressConfig",
      "outputs": [
        {
          "name": "_configValue",
          "type": "address"
        }
      ],
      "payable": false,
      "stateMutability": "view",
      "type": "function"
    },
    {
      "constant": true,
      "inputs": [],
      "name": "key",
      "outputs": [
        {
          "name": "",
          "type": "bytes32"
        }
      ],
      "payable": false,
      "stateMutability": "view",
      "type": "function"
    },
    {
      "constant": true,
      "inputs": [
        {
          "name": "_key",
          "type": "bytes32"
        }
      ],
      "name": "get_contract",
      "outputs": [
        {
          "name": "_contract",
          "type": "address"
        }
      ],
      "payable": false,
      "stateMutability": "view",
      "type": "function"
    },
    {
      "constant": true,
      "inputs": [],
      "name": "currentTimeInQuarter",
      "outputs": [
        {
          "name": "_currentT",
          "type": "uint256"
        }
      ],
      "payable": false,
      "stateMutability": "view",
      "type": "function"
    },
    {
      "constant": true,
      "inputs": [],
      "name": "isMainPhase",
      "outputs": [
        {
          "name": "_isMainPhase",
          "type": "bool"
        }
      ],
      "payable": false,
      "stateMutability": "view",
      "type": "function"
    },
    {
      "constant": true,
      "inputs": [],
      "name": "isLockingPhase",
      "outputs": [
        {
          "name": "_isLockingPhase",
          "type": "bool"
        }
      ],
      "payable": false,
      "stateMutability": "view",
      "type": "function"
    },
    {
      "constant": true,
      "inputs": [],
      "name": "currentQuarterNumber",
      "outputs": [
        {
          "name": "_quarterNumber",
          "type": "uint256"
        }
      ],
      "payable": false,
      "stateMutability": "view",
      "type": "function"
    },
    {
      "constant": true,
      "inputs": [
        {
          "name": "_user",
          "type": "address"
        }
      ],
      "name": "isParticipant",
      "outputs": [
        {
          "name": "_is",
          "type": "bool"
        }
      ],
      "payable": false,
      "stateMutability": "view",
      "type": "function"
    },
    {
      "constant": true,
      "inputs": [
        {
          "name": "_configKey",
          "type": "bytes32"
        }
      ],
      "name": "getBytesConfig",
      "outputs": [
        {
          "name": "_configValue",
          "type": "bytes32"
        }
      ],
      "payable": false,
      "stateMutability": "view",
      "type": "function"
    },
    {
      "constant": true,
      "inputs": [],
      "name": "carbonVoting1",
      "outputs": [
        {
          "name": "",
          "type": "address"
        }
      ],
      "payable": false,
      "stateMutability": "view",
      "type": "function"
    },
    {
      "constant": true,
      "inputs": [
        {
          "name": "_configKey",
          "type": "bytes32"
        }
      ],
      "name": "getUintConfig",
      "outputs": [
        {
          "name": "_configValue",
          "type": "uint256"
        }
      ],
      "payable": false,
      "stateMutability": "view",
      "type": "function"
    },
    {
      "constant": true,
      "inputs": [],
      "name": "dgdToken",
      "outputs": [
        {
          "name": "",
          "type": "address"
        }
      ],
      "payable": false,
      "stateMutability": "view",
      "type": "function"
    },
    {
      "constant": true,
      "inputs": [],
      "name": "isDaoNotReplaced",
      "outputs": [
        {
          "name": "_isNotReplaced",
          "type": "bool"
        }
      ],
      "payable": false,
      "stateMutability": "view",
      "type": "function"
    },
    {
      "constant": true,
      "inputs": [],
      "name": "CONTRACT_ADDRESS",
      "outputs": [
        {
          "name": "",
          "type": "address"
        }
      ],
      "payable": false,
      "stateMutability": "view",
      "type": "function"
    },
    {
      "constant": true,
      "inputs": [
        {
          "name": "_user",
          "type": "address"
        }
      ],
      "name": "isModerator",
      "outputs": [
        {
          "name": "_is",
          "type": "bool"
        }
      ],
      "payable": false,
      "stateMutability": "view",
      "type": "function"
    },
    {
      "constant": true,
      "inputs": [],
      "name": "carbonVoting2",
      "outputs": [
        {
          "name": "",
          "type": "address"
        }
      ],
      "payable": false,
      "stateMutability": "view",
      "type": "function"
    },
    {
      "inputs": [
        {
          "name": "_resolver",
          "type": "address"
        },
        {
          "name": "_dgdToken",
          "type": "address"
        },
        {
          "name": "_dgdBadgeToken",
          "type": "address"
        },
        {
          "name": "_carbonVoting1",
          "type": "address"
        },
        {
          "name": "_carbonVoting2",
          "type": "address"
        }
      ],
      "payable": false,
      "stateMutability": "nonpayable",
      "type": "constructor"
    },
    {
      "anonymous": false,
      "inputs": [
        {
          "indexed": true,
          "name": "_user",
          "type": "address"
        }
      ],
      "name": "RedeemBadge",
      "type": "event"
    },
    {
      "anonymous": false,
      "inputs": [
        {
          "indexed": true,
          "name": "_user",
          "type": "address"
        },
        {
          "indexed": false,
          "name": "_amount",
          "type": "uint256"
        },
        {
          "indexed": false,
          "name": "_currentLockedDGDStake",
          "type": "uint256"
        }
      ],
      "name": "LockDGD",
      "type": "event"
    },
    {
      "anonymous": false,
      "inputs": [
        {
          "indexed": true,
          "name": "_user",
          "type": "address"
        },
        {
          "indexed": false,
          "name": "_amount",
          "type": "uint256"
        },
        {
          "indexed": false,
          "name": "_currentLockedDGDStake",
          "type": "uint256"
        }
      ],
      "name": "WithdrawDGD",
      "type": "event"
    },
    {
      "constant": false,
      "inputs": [],
      "name": "redeemBadge",
      "outputs": [],
      "payable": false,
      "stateMutability": "nonpayable",
      "type": "function"
    },
    {
      "constant": false,
      "inputs": [
        {
          "name": "_amount",
          "type": "uint256"
        }
      ],
      "name": "lockDGD",
      "outputs": [],
      "payable": false,
      "stateMutability": "nonpayable",
      "type": "function"
    },
    {
      "constant": false,
      "inputs": [
        {
          "name": "_amount",
          "type": "uint256"
        }
      ],
      "name": "withdrawDGD",
      "outputs": [],
      "payable": false,
      "stateMutability": "nonpayable",
      "type": "function"
    },
    {
      "constant": false,
      "inputs": [],
      "name": "confirmContinuedParticipation",
      "outputs": [],
      "payable": false,
      "stateMutability": "nonpayable",
      "type": "function"
    }
  ],
  "bytecode": "0x608060405260006001026003906000191690556000600460006101000a81548173ffffffffffffffffffffffffffffffffffffffff021916908373ffffffffffffffffffffffffffffffffffffffff1602179055507f70726f706f73616c5f73746174655f70726570726f706f73616c0000000000006005906000191690557f70726f706f73616c5f73746174655f64726166740000000000000000000000006006906000191690557f70726f706f73616c5f73746174655f6d6f6465726174656400000000000000006007906000191690557f70726f706f73616c5f73746174655f6f6e676f696e67000000000000000000006008906000191690557f70726f706f73616c5f73746174655f636c6f73656400000000000000000000006009906000191690557f70726f706f73616c5f73746174655f6172636869766564000000000000000000600a906000191690556001600b556002600c556003600d556001600e556002600f5560036010557f696e7465725f6467645f696400000000000000000000000000000000000000006011906000191690557f696e7465725f6d6f645f6467645f6964000000000000000000000000000000006012906000191690557f696e7465725f626f6e75735f63616c63756c6174696f6e5f69640000000000006013906000191690557f64616f00000000000000000000000000000000000000000000000000000000006014906000191690557f64616f3a7370656369616c3a70726f706f73616c0000000000000000000000006015906000191690557f64616f3a7374616b652d6c6f636b696e670000000000000000000000000000006016906000191690557f64616f3a766f74696e67000000000000000000000000000000000000000000006017906000191690557f64616f3a766f74696e673a636c61696d730000000000000000000000000000006018906000191690557f64616f3a73766f74696e673a636c61696d7300000000000000000000000000006019906000191690557f64616f3a6964656e746974790000000000000000000000000000000000000000601a906000191690557f64616f3a726577617264732d6d616e6167657200000000000000000000000000601b906000191690557f64616f3a726577617264732d6578747261730000000000000000000000000000601c906000191690557f64616f3a726f6c65730000000000000000000000000000000000000000000000601d906000191690557f64616f3a66756e64696e672d6d616e6167657200000000000000000000000000601e906000191690557f64616f3a77686974656c697374696e6700000000000000000000000000000000601f906000191690557f64616f3a696e666f726d6174696f6e00000000000000000000000000000000006020906000191690557f736572766963653a726f6c6500000000000000000000000000000000000000006021906000191690557f736572766963653a64616f3a696e666f000000000000000000000000000000006022906000191690557f736572766963653a64616f3a6c697374696e67000000000000000000000000006023906000191690557f736572766963653a64616f3a63616c63756c61746f72000000000000000000006024906000191690557f73746f726167653a64616f0000000000000000000000000000000000000000006025906000191690557f73746f726167653a64616f3a636f756e746572000000000000000000000000006026906000191690557f73746f726167653a64616f3a75706772616465000000000000000000000000006027906000191690557f73746f726167653a64616f3a6964656e746974790000000000000000000000006028906000191690557f73746f726167653a64616f3a706f696e747300000000000000000000000000006029906000191690557f73746f726167653a64616f3a7370656369616c00000000000000000000000000602a906000191690557f73746f726167653a64616f3a636f6e6669670000000000000000000000000000602b906000191690557f73746f726167653a64616f3a7374616b65000000000000000000000000000000602c906000191690557f73746f726167653a64616f3a7265776172647300000000000000000000000000602d906000191690557f73746f726167653a64616f3a77686974656c697374696e670000000000000000602e906000191690557f73746f726167653a696e7465726d6564696174653a726573756c747300000000602f906000191690557f743a6467640000000000000000000000000000000000000000000000000000006030906000191690557f743a6467780000000000000000000000000000000000000000000000000000006031906000191690557f743a6261646765000000000000000000000000000000000000000000000000006032906000191690556001603360006101000a81548160ff021916908360ff1602179055506002603360016101000a81548160ff021916908360ff1602179055506003603360026101000a81548160ff021916908360ff1602179055506004603360036101000a81548160ff021916908360ff1602179055506276a7006034557f6d696e5f6467645f7061727469636970616e74000000000000000000000000006035906000191690557f6d696e5f6467645f6d6f64657261746f720000000000000000000000000000006036906000191690557f6d696e5f72657075746174696f6e5f6d6f64657261746f7200000000000000006037906000191690557f6c6f636b696e675f70686173655f6475726174696f6e000000000000000000006038906000191690557f717561727465725f6475726174696f6e000000000000000000000000000000006039906000191690557f766f74696e675f636f6d6d69745f706861736500000000000000000000000000603a906000191690557f766f74696e675f70686173655f746f74616c0000000000000000000000000000603b906000191690557f696e746572696d5f766f74696e675f636f6d6d69745f70686173650000000000603c906000191690557f696e746572696d5f766f74696e675f70686173655f746f74616c000000000000603d906000191690557f64726166745f71756f72756d5f66697865645f6e756d657261746f7200000000603e906000191690557f64726166745f71756f72756d5f66697865645f64656e6f6d696e61746f720000603f906000191690557f64726166745f71756f72756d5f73666163746f725f6e756d657261746f7200006040906000191690557f64726166745f71756f72756d5f73666163746f725f64656e6f6d696e61746f726041906000191690557f766f74655f71756f72756d5f66697865645f6e756d657261746f7200000000006042906000191690557f766f74655f71756f72756d5f66697865645f64656e6f6d696e61746f720000006043906000191690557f766f74655f71756f72756d5f73666163746f725f6e756d657261746f720000006044906000191690557f766f74655f71756f72756d5f73666163746f725f64656e6f6d696e61746f72006045906000191690557f66696e616c5f7265776172645f73666163746f725f6e756d657261746f7200006046906000191690557f66696e616c5f7265776172645f73666163746f725f64656e6f6d696e61746f726047906000191690557f64726166745f71756f74615f6e756d657261746f7200000000000000000000006048906000191690557f64726166745f71756f74615f64656e6f6d696e61746f720000000000000000006049906000191690557f766f74696e675f71756f74615f6e756d657261746f7200000000000000000000604a906000191690557f766f74696e675f71756f74615f64656e6f6d696e61746f720000000000000000604b906000191690557f6d696e696d616c5f717000000000000000000000000000000000000000000000604c906000191690557f717561727465725f706f696e745f7363616c696e675f666163746f7200000000604d906000191690557f7265705f706f696e745f7363616c696e675f666163746f720000000000000000604e906000191690557f6d696e696d616c5f6d6f645f7170000000000000000000000000000000000000604f906000191690557f6d6f645f71705f7363616c696e675f666163746f7200000000000000000000006050906000191690557f6d6f645f7265705f706f696e745f7363616c696e675f666163746f72000000006051906000191690557f717561727465725f706f696e745f64726166745f766f746500000000000000006052906000191690557f717561727465725f706f696e745f766f746500000000000000000000000000006053906000191690557f717561727465725f706f696e745f696e746572696d5f766f74650000000000006054906000191690557f715f705f6d696c6573746f6e655f636f6d706c6574696f6e00000000000000006055906000191690557f626f6e75735f72657075746174696f6e5f6e756d657261746f720000000000006056906000191690557f626f6e75735f72657075746174696f6e5f64656e6f6d696e61746f72000000006057906000191690557f7370656369616c5f70726f706f73616c5f636f6d6d69745f70686173650000006058906000191690557f7370656369616c5f70726f706f73616c5f70686173655f746f74616c000000006059906000191690557f636f6e6669675f7370656369616c5f71756f74615f6e756d657261746f720000605a906000191690557f636f6e6669675f7370656369616c5f71756f74615f64656e6f6d696e61746f72605b906000191690557f7370656369616c5f71756f72756d5f6e756d657261746f720000000000000000605c906000191690557f7370656369616c5f71756f72756d5f64656e6f6d696e61746f72000000000000605d906000191690557f636f6e6669675f6d61785f72657075746174696f6e5f646564756374696f6e00605e906000191690557f636f6e6669675f70756e6973686d656e745f6e6f745f6c6f636b696e67000000605f906000191690557f636f6e6669675f7265705f7065725f65787472615f71705f6e756d00000000006060906000191690557f636f6e6669675f7265705f7065725f65787472615f71705f64656e00000000006061906000191690557f636f6e6669675f6d61785f6d5f72705f646564756374696f6e000000000000006062906000191690557f636f6e6669675f7265705f7065725f65787472615f6d5f71705f6e756d0000006063906000191690557f636f6e6669675f7265705f7065725f65787472615f6d5f71705f64656e0000006064906000191690557f636f6e6669675f6d6f645f706f7274696f6e5f6e756d000000000000000000006065906000191690557f636f6e6669675f6d6f645f706f7274696f6e5f64656e000000000000000000006066906000191690557f636f6e6669675f64726166745f766f74696e675f7068617365000000000000006067906000191690557f636f6e6669675f72705f626f6f73745f7065725f6261646765000000000000006068906000191690557f636f6e6669675f636c61696d696e675f646561646c696e6500000000000000006069906000191690557f636f6e6669675f70726570726f706f73616c5f636f6c6c61746572616c000000606a906000191690557f636f6e6669675f6d61785f66756e64696e675f6e6f6e44696769780000000000606b906000191690557f636f6e6669675f6d61785f6d696c6573746f6e65735f6e6f6e44696769780000606c906000191690557f636f6e6669675f6e6f6e44696769785f70726f706f73616c5f63617000000000606d906000191690557f636f6e6669675f646561645f6475726174696f6e000000000000000000000000606e906000191690557f636f6e6669675f63765f72657075746174696f6e000000000000000000000000606f906000191690553480156200113457600080fd5b5060405160a080620058ff83398101806040528101908080519060200190929190805190602001909291908051906020019092919080519060200190929190805190602001909291905050506200119d60165486620012b8640100000000026401000000009004565b1515620011a957600080fd5b83607060006101000a81548173ffffffffffffffffffffffffffffffffffffffff021916908373ffffffffffffffffffffffffffffffffffffffff16021790555082607160006101000a81548173ffffffffffffffffffffffffffffffffffffffff021916908373ffffffffffffffffffffffffffffffffffffffff16021790555081607260006101000a81548173ffffffffffffffffffffffffffffffffffffffff021916908373ffffffffffffffffffffffffffffffffffffffff16021790555080607360006101000a81548173ffffffffffffffffffffffffffffffffffffffff021916908373ffffffffffffffffffffffffffffffffffffffff160217905550505050505062001549565b6000808273ffffffffffffffffffffffffffffffffffffffff16636d19a8826040518163ffffffff167c0100000000000000000000000000000000000000000000000000000000028152600401602060405180830381600087803b1580156200132057600080fd5b505af115801562001335573d6000803e3d6000fd5b505050506040513d60208110156200134c57600080fd5b810190808051906020019092919050505090506000151581151514156200153d5730600260006101000a81548173ffffffffffffffffffffffffffffffffffffffff021916908373ffffffffffffffffffffffffffffffffffffffff160217905550826000806101000a81548173ffffffffffffffffffffffffffffffffffffffff021916908373ffffffffffffffffffffffffffffffffffffffff16021790555083600181600019169055506000809054906101000a900473ffffffffffffffffffffffffffffffffffffffff1673ffffffffffffffffffffffffffffffffffffffff1663c0f6ef4a600154600260009054906101000a900473ffffffffffffffffffffffffffffffffffffffff166040518363ffffffff167c01000000000000000000000000000000000000000000000000000000000281526004018083600019166000191681526020018273ffffffffffffffffffffffffffffffffffffffff1673ffffffffffffffffffffffffffffffffffffffff16815260200192505050602060405180830381600087803b158015620014ea57600080fd5b505af1158015620014ff573d6000803e3d6000fd5b505050506040513d60208110156200151657600080fd5b810190808051906020019092919050505015156200153357600080fd5b6001915062001542565b600091505b5092915050565b6143a680620015596000396000f300608060405260043610610128576000357c0100000000000000000000000000000000000000000000000000000000900463ffffffff16806304f3bcec1461012d57806314efcd3c146101845780631b1e53ef146101b15780631d8ccd04146102085780633943380c146102795780633f83acff146102ac578063560a25ea1461031d578063685330601461034857806374cd7f6d146103775780637d6fed801461038e5780637f6a26b6146103bd578063929066f5146103e857806393ddad0814610443578063963cdbfd146104905780639bd71354146104bd578063b1e2b9dd14610514578063be6999c414610559578063d70d9358146105b0578063db4ecbc1146105df578063dda249f514610636578063fa6f39361461064d578063fbc28462146106a8575b600080fd5b34801561013957600080fd5b506101426106ff565b604051808273ffffffffffffffffffffffffffffffffffffffff1673ffffffffffffffffffffffffffffffffffffffff16815260200191505060405180910390f35b34801561019057600080fd5b506101af60048036038101908080359060200190929190505050610724565b005b3480156101bd57600080fd5b506101c661073f565b604051808273ffffffffffffffffffffffffffffffffffffffff1673ffffffffffffffffffffffffffffffffffffffff16815260200191505060405180910390f35b34801561021457600080fd5b506102376004803603810190808035600019169060200190929190505050610765565b604051808273ffffffffffffffffffffffffffffffffffffffff1673ffffffffffffffffffffffffffffffffffffffff16815260200191505060405180910390f35b34801561028557600080fd5b5061028e610827565b60405180826000191660001916815260200191505060405180910390f35b3480156102b857600080fd5b506102db600480360381019080803560001916906020019092919050505061082d565b604051808273ffffffffffffffffffffffffffffffffffffffff1673ffffffffffffffffffffffffffffffffffffffff16815260200191505060405180910390f35b34801561032957600080fd5b50610332610909565b6040518082815260200191505060405180910390f35b34801561035457600080fd5b5061035d610919565b604051808215151515815260200191505060405180910390f35b34801561038357600080fd5b5061038c610945565b005b34801561039a57600080fd5b506103a3610951565b604051808215151515815260200191505060405180910390f35b3480156103c957600080fd5b506103d261096c565b6040518082815260200191505060405180910390f35b3480156103f457600080fd5b50610429600480360381019080803573ffffffffffffffffffffffffffffffffffffffff16906020019092919050505061097c565b604051808215151515815260200191505060405180910390f35b34801561044f57600080fd5b506104726004803603810190808035600019169060200190929190505050610b5d565b60405180826000191660001916815260200191505060405180910390f35b34801561049c57600080fd5b506104bb60048036038101908080359060200190929190505050610c1f565b005b3480156104c957600080fd5b506104d2611731565b604051808273ffffffffffffffffffffffffffffffffffffffff1673ffffffffffffffffffffffffffffffffffffffff16815260200191505060405180910390f35b34801561052057600080fd5b506105436004803603810190808035600019169060200190929190505050611757565b6040518082815260200191505060405180910390f35b34801561056557600080fd5b5061056e611819565b604051808273ffffffffffffffffffffffffffffffffffffffff1673ffffffffffffffffffffffffffffffffffffffff16815260200191505060405180910390f35b3480156105bc57600080fd5b506105c561183f565b604051808215151515815260200191505060405180910390f35b3480156105eb57600080fd5b506105f46118ed565b604051808273ffffffffffffffffffffffffffffffffffffffff1673ffffffffffffffffffffffffffffffffffffffff16815260200191505060405180910390f35b34801561064257600080fd5b5061064b611913565b005b34801561065957600080fd5b5061068e600480360381019080803573ffffffffffffffffffffffffffffffffffffffff169060200190929190505050611e48565b604051808215151515815260200191505060405180910390f35b3480156106b457600080fd5b506106bd61211b565b604051808273ffffffffffffffffffffffffffffffffffffffff1673ffffffffffffffffffffffffffffffffffffffff16815260200191505060405180910390f35b6000809054906101000a900473ffffffffffffffffffffffffffffffffffffffff1681565b60008111151561073357600080fd5b61073c81612141565b50565b607160009054906101000a900473ffffffffffffffffffffffffffffffffffffffff1681565b600061076f612bea565b73ffffffffffffffffffffffffffffffffffffffff1663e6b39eab836040518263ffffffff167c0100000000000000000000000000000000000000000000000000000000028152600401808260001916600019168152602001915050602060405180830381600087803b1580156107e557600080fd5b505af11580156107f9573d6000803e3d6000fd5b505050506040513d602081101561080f57600080fd5b81019080805190602001909291905050509050919050565b60015481565b60008060009054906101000a900473ffffffffffffffffffffffffffffffffffffffff1673ffffffffffffffffffffffffffffffffffffffff16633f83acff836040518263ffffffff167c0100000000000000000000000000000000000000000000000000000000028152600401808260001916600019168152602001915050602060405180830381600087803b1580156108c757600080fd5b505af11580156108db573d6000803e3d6000fd5b505050506040513d60208110156108f157600080fd5b81019080805190602001909291905050509050919050565b600061091442612bfc565b905090565b600061092361183f565b80156109405750610935603854611757565b61093d610909565b10155b905090565b61094f6000612141565b565b600061095e603854611757565b610966610909565b10905090565b600061097742612ce5565b905090565b600061098661096c565b61098e612de8565b73ffffffffffffffffffffffffffffffffffffffff1663cefc2bff846040518263ffffffff167c0100000000000000000000000000000000000000000000000000000000028152600401808273ffffffffffffffffffffffffffffffffffffffff1673ffffffffffffffffffffffffffffffffffffffff168152602001915050602060405180830381600087803b158015610a2857600080fd5b505af1158015610a3c573d6000803e3d6000fd5b505050506040513d6020811015610a5257600080fd5b8101908080519060200190929190505050148015610b565750610a76603554611757565b610a7e612dfa565b73ffffffffffffffffffffffffffffffffffffffff1663cd094a27846040518263ffffffff167c0100000000000000000000000000000000000000000000000000000000028152600401808273ffffffffffffffffffffffffffffffffffffffff1673ffffffffffffffffffffffffffffffffffffffff168152602001915050602060405180830381600087803b158015610b1857600080fd5b505af1158015610b2c573d6000803e3d6000fd5b505050506040513d6020811015610b4257600080fd5b810190808051906020019092919050505010155b9050919050565b6000610b67612bea565b73ffffffffffffffffffffffffffffffffffffffff1663c0a8405d836040518263ffffffff167c0100000000000000000000000000000000000000000000000000000000028152600401808260001916600019168152602001915050602060405180830381600087803b158015610bdd57600080fd5b505af1158015610bf1573d6000803e3d6000fd5b505050506040513d6020811015610c0757600080fd5b81019080805190602001909291905050509050919050565b610c27614358565b610c2f614358565b600080610c3a61096c565b6001811115610d03576000610c4d612de8565b73ffffffffffffffffffffffffffffffffffffffff1663a78e00d6836040518263ffffffff167c010000000000000000000000000000000000000000000000000000000002815260040180828152602001915050602060405180830381600087803b158015610cbb57600080fd5b505af1158015610ccf573d6000803e3d6000fd5b505050506040513d6020811015610ce557600080fd5b8101908080519060200190929190505050111515610d0257600080fd5b5b610d0b610951565b80610db85750610d19612e0c565b73ffffffffffffffffffffffffffffffffffffffff16638bc865fd6040518163ffffffff167c0100000000000000000000000000000000000000000000000000000000028152600401602060405180830381600087803b158015610d7c57600080fd5b505af1158015610d90573d6000803e3d6000fd5b505050506040513d6020811015610da657600080fd5b81019080805190602001909291905050505b1515610dc357600080fd5b610dcc33612e1e565b9450610dd83386612fd2565b935060008560000151111515610ded57600080fd5b85856000015110151515610e0057600080fd5b610e178685600001516131de90919063ffffffff16565b846000018181525050610e378685602001516131de90919063ffffffff16565b846020018181525050610e578685604001516131de90919063ffffffff16565b846040018181525050610e686131f7565b73ffffffffffffffffffffffffffffffffffffffff166349da49bc336040518263ffffffff167c0100000000000000000000000000000000000000000000000000000000028152600401808273ffffffffffffffffffffffffffffffffffffffff1673ffffffffffffffffffffffffffffffffffffffff168152602001915050600060405180830381600087803b158015610f0257600080fd5b505af1158015610f16573d6000803e3d6000fd5b50505050610f25338686613209565b610f2d612de8565b73ffffffffffffffffffffffffffffffffffffffff1663cefc2bff336040518263ffffffff167c0100000000000000000000000000000000000000000000000000000000028152600401808273ffffffffffffffffffffffffffffffffffffffff1673ffffffffffffffffffffffffffffffffffffffff168152602001915050602060405180830381600087803b158015610fc757600080fd5b505af1158015610fdb573d6000803e3d6000fd5b505050506040513d6020811015610ff157600080fd5b8101908080519060200190929190505050925061100c61096c565b9150611019603554611757565b846020015110156112d257818314156111cb57611034612de8565b73ffffffffffffffffffffffffffffffffffffffff1663927bb66833611058612de8565b73ffffffffffffffffffffffffffffffffffffffff1663bcda6424336040518263ffffffff167c0100000000000000000000000000000000000000000000000000000000028152600401808273ffffffffffffffffffffffffffffffffffffffff1673ffffffffffffffffffffffffffffffffffffffff168152602001915050602060405180830381600087803b1580156110f257600080fd5b505af1158015611106573d6000803e3d6000fd5b505050506040513d602081101561111c57600080fd5b81019080805190602001909291905050506040518363ffffffff167c0100000000000000000000000000000000000000000000000000000000028152600401808373ffffffffffffffffffffffffffffffffffffffff1673ffffffffffffffffffffffffffffffffffffffff16815260200182815260200192505050600060405180830381600087803b1580156111b257600080fd5b505af11580156111c6573d6000803e3d6000fd5b505050505b6111e6846020015185604001516131de90919063ffffffff16565b8460400181815250506111f7612dfa565b73ffffffffffffffffffffffffffffffffffffffff166344d9bfe6336040518263ffffffff167c0100000000000000000000000000000000000000000000000000000000028152600401808273ffffffffffffffffffffffffffffffffffffffff1673ffffffffffffffffffffffffffffffffffffffff168152602001915050602060405180830381600087803b15801561129157600080fd5b505af11580156112a5573d6000803e3d6000fd5b505050506040513d60208110156112bb57600080fd5b810190808051906020019092919050505050611460565b8183101561145f576112e2612de8565b73ffffffffffffffffffffffffffffffffffffffff1663863eb74a33856040518363ffffffff167c0100000000000000000000000000000000000000000000000000000000028152600401808373ffffffffffffffffffffffffffffffffffffffff1673ffffffffffffffffffffffffffffffffffffffff16815260200182815260200192505050600060405180830381600087803b15801561138457600080fd5b505af1158015611398573d6000803e3d6000fd5b505050506113a4612de8565b73ffffffffffffffffffffffffffffffffffffffff1663927bb66833846040518363ffffffff167c0100000000000000000000000000000000000000000000000000000000028152600401808373ffffffffffffffffffffffffffffffffffffffff1673ffffffffffffffffffffffffffffffffffffffff16815260200182815260200192505050600060405180830381600087803b15801561144657600080fd5b505af115801561145a573d6000803e3d6000fd5b505050505b5b611468612dfa565b73ffffffffffffffffffffffffffffffffffffffff1663ad5c464733866000015187602001516040518463ffffffff167c0100000000000000000000000000000000000000000000000000000000028152600401808473ffffffffffffffffffffffffffffffffffffffff1673ffffffffffffffffffffffffffffffffffffffff1681526020018381526020018281526020019350505050600060405180830381600087803b15801561151a57600080fd5b505af115801561152e573d6000803e3d6000fd5b5050505061153a612dfa565b73ffffffffffffffffffffffffffffffffffffffff16631538e68c85604001516040518263ffffffff167c010000000000000000000000000000000000000000000000000000000002815260040180828152602001915050600060405180830381600087803b1580156115ac57600080fd5b505af11580156115c0573d6000803e3d6000fd5b50505050607060009054906101000a900473ffffffffffffffffffffffffffffffffffffffff1673ffffffffffffffffffffffffffffffffffffffff1663a9059cbb33886040518363ffffffff167c0100000000000000000000000000000000000000000000000000000000028152600401808373ffffffffffffffffffffffffffffffffffffffff1673ffffffffffffffffffffffffffffffffffffffff16815260200182815260200192505050602060405180830381600087803b15801561168957600080fd5b505af115801561169d573d6000803e3d6000fd5b505050506040513d60208110156116b357600080fd5b810190808051906020019092919050505015156116cf57600080fd5b3373ffffffffffffffffffffffffffffffffffffffff167f854445a9a1b2b97212d606c21f3640b8b15b514332fc52b957f9c93125a274a4878660200151604051808381526020018281526020019250505060405180910390a2505050505050565b607260009054906101000a900473ffffffffffffffffffffffffffffffffffffffff1681565b6000611761612bea565b73ffffffffffffffffffffffffffffffffffffffff1663734c1168836040518263ffffffff167c0100000000000000000000000000000000000000000000000000000000028152600401808260001916600019168152602001915050602060405180830381600087803b1580156117d757600080fd5b505af11580156117eb573d6000803e3d6000fd5b505050506040513d602081101561180157600080fd5b81019080805190602001909291905050509050919050565b607060009054906101000a900473ffffffffffffffffffffffffffffffffffffffff1681565b6000611849612e0c565b73ffffffffffffffffffffffffffffffffffffffff16638bc865fd6040518163ffffffff167c0100000000000000000000000000000000000000000000000000000000028152600401602060405180830381600087803b1580156118ac57600080fd5b505af11580156118c0573d6000803e3d6000fd5b505050506040513d60208110156118d657600080fd5b810190808051906020019092919050505015905090565b600260009054906101000a900473ffffffffffffffffffffffffffffffffffffffff1681565b61191b614358565b611923612dfa565b73ffffffffffffffffffffffffffffffffffffffff1663f01a13e1336040518263ffffffff167c0100000000000000000000000000000000000000000000000000000000028152600401808273ffffffffffffffffffffffffffffffffffffffff1673ffffffffffffffffffffffffffffffffffffffff168152602001915050602060405180830381600087803b1580156119bd57600080fd5b505af11580156119d1573d6000803e3d6000fd5b505050506040513d60208110156119e757600080fd5b8101908080519060200190929190505050151515611a0457600080fd5b6001611a0e61096c565b03611a17612de8565b73ffffffffffffffffffffffffffffffffffffffff1663bd695d21336040518263ffffffff167c0100000000000000000000000000000000000000000000000000000000028152600401808273ffffffffffffffffffffffffffffffffffffffff1673ffffffffffffffffffffffffffffffffffffffff168152602001915050602060405180830381600087803b158015611ab157600080fd5b505af1158015611ac5573d6000803e3d6000fd5b505050506040513d6020811015611adb57600080fd5b8101908080519060200190929190505050141515611af857600080fd5b611b00612dfa565b73ffffffffffffffffffffffffffffffffffffffff166303cc89b4336040518263ffffffff167c0100000000000000000000000000000000000000000000000000000000028152600401808273ffffffffffffffffffffffffffffffffffffffff1673ffffffffffffffffffffffffffffffffffffffff168152602001915050600060405180830381600087803b158015611b9a57600080fd5b505af1158015611bae573d6000803e3d6000fd5b50505050611bba613be1565b73ffffffffffffffffffffffffffffffffffffffff1663ded86d6833611be1606854611757565b6040518363ffffffff167c0100000000000000000000000000000000000000000000000000000000028152600401808373ffffffffffffffffffffffffffffffffffffffff1673ffffffffffffffffffffffffffffffffffffffff168152602001828152602001925050506040805180830381600087803b158015611c6557600080fd5b505af1158015611c79573d6000803e3d6000fd5b505050506040513d6040811015611c8f57600080fd5b8101908080519060200190929190805190602001909291905050505050611cb533612e1e565b9050611cc2338283613209565b607160009054906101000a900473ffffffffffffffffffffffffffffffffffffffff1673ffffffffffffffffffffffffffffffffffffffff166323b872dd333060016040518463ffffffff167c0100000000000000000000000000000000000000000000000000000000028152600401808473ffffffffffffffffffffffffffffffffffffffff1673ffffffffffffffffffffffffffffffffffffffff1681526020018373ffffffffffffffffffffffffffffffffffffffff1673ffffffffffffffffffffffffffffffffffffffff1681526020018281526020019350505050602060405180830381600087803b158015611dbc57600080fd5b505af1158015611dd0573d6000803e3d6000fd5b505050506040513d6020811015611de657600080fd5b81019080805190602001909291905050501515611e0257600080fd5b3373ffffffffffffffffffffffffffffffffffffffff167f212ab1ff1ffcea0692d08ce958ff341c42bca858661e7811a8bd71e5d7fcba4260405160405180910390a250565b6000611e5261096c565b611e5a612de8565b73ffffffffffffffffffffffffffffffffffffffff1663cefc2bff846040518263ffffffff167c0100000000000000000000000000000000000000000000000000000000028152600401808273ffffffffffffffffffffffffffffffffffffffff1673ffffffffffffffffffffffffffffffffffffffff168152602001915050602060405180830381600087803b158015611ef457600080fd5b505af1158015611f08573d6000803e3d6000fd5b505050506040513d6020811015611f1e57600080fd5b81019080805190602001909291905050501480156120225750611f42603654611757565b611f4a612dfa565b73ffffffffffffffffffffffffffffffffffffffff1663cd094a27846040518263ffffffff167c0100000000000000000000000000000000000000000000000000000000028152600401808273ffffffffffffffffffffffffffffffffffffffff1673ffffffffffffffffffffffffffffffffffffffff168152602001915050602060405180830381600087803b158015611fe457600080fd5b505af1158015611ff8573d6000803e3d6000fd5b505050506040513d602081101561200e57600080fd5b810190808051906020019092919050505010155b80156121145750612034603754611757565b61203c613be1565b73ffffffffffffffffffffffffffffffffffffffff16639c89a0e2846040518263ffffffff167c0100000000000000000000000000000000000000000000000000000000028152600401808273ffffffffffffffffffffffffffffffffffffffff1673ffffffffffffffffffffffffffffffffffffffff168152602001915050602060405180830381600087803b1580156120d657600080fd5b505af11580156120ea573d6000803e3d6000fd5b505050506040513d602081101561210057600080fd5b810190808051906020019092919050505010155b9050919050565b607360009054906101000a900473ffffffffffffffffffffffffffffffffffffffff1681565b612149614358565b612151614358565b600080600061215e61096c565b6001811115612227576000612171612de8565b73ffffffffffffffffffffffffffffffffffffffff1663a78e00d6836040518263ffffffff167c010000000000000000000000000000000000000000000000000000000002815260040180828152602001915050602060405180830381600087803b1580156121df57600080fd5b505af11580156121f3573d6000803e3d6000fd5b505050506040513d602081101561220957600080fd5b810190808051906020019092919050505011151561222657600080fd5b5b3273ffffffffffffffffffffffffffffffffffffffff163373ffffffffffffffffffffffffffffffffffffffff1614151561226157600080fd5b61226a33612e1e565b95506122763387612fd2565b94506000935060008711156123395761228d613bf3565b73ffffffffffffffffffffffffffffffffffffffff16630b3b1595886040518263ffffffff167c010000000000000000000000000000000000000000000000000000000002815260040180828152602001915050602060405180830381600087803b1580156122fb57600080fd5b505af115801561230f573d6000803e3d6000fd5b505050506040513d602081101561232557600080fd5b810190808051906020019092919050505093505b612350878660000151613c0590919063ffffffff16565b856000018181525050612370848660200151613c0590919063ffffffff16565b856020018181525050612390848660400151613c0590919063ffffffff16565b8560400181815250506123a16131f7565b73ffffffffffffffffffffffffffffffffffffffff166349da49bc336040518263ffffffff167c0100000000000000000000000000000000000000000000000000000000028152600401808273ffffffffffffffffffffffffffffffffffffffff1673ffffffffffffffffffffffffffffffffffffffff168152602001915050600060405180830381600087803b15801561243b57600080fd5b505af115801561244f573d6000803e3d6000fd5b5050505061245b612dfa565b73ffffffffffffffffffffffffffffffffffffffff1663ad5c464733876000015188602001516040518463ffffffff167c0100000000000000000000000000000000000000000000000000000000028152600401808473ffffffffffffffffffffffffffffffffffffffff1673ffffffffffffffffffffffffffffffffffffffff1681526020018381526020018281526020019350505050600060405180830381600087803b15801561250d57600080fd5b505af1158015612521573d6000803e3d6000fd5b50505050612530338787613209565b612538612de8565b73ffffffffffffffffffffffffffffffffffffffff1663cefc2bff336040518263ffffffff167c0100000000000000000000000000000000000000000000000000000000028152600401808273ffffffffffffffffffffffffffffffffffffffff1673ffffffffffffffffffffffffffffffffffffffff168152602001915050602060405180830381600087803b1580156125d257600080fd5b505af11580156125e6573d6000803e3d6000fd5b505050506040513d60208110156125fc57600080fd5b8101908080519060200190929190505050925061261761096c565b9150612624603554611757565b85602001511015156128b357612638612dfa565b73ffffffffffffffffffffffffffffffffffffffff1663e41b4c5c336040518263ffffffff167c0100000000000000000000000000000000000000000000000000000000028152600401808273ffffffffffffffffffffffffffffffffffffffff1673ffffffffffffffffffffffffffffffffffffffff168152602001915050602060405180830381600087803b1580156126d257600080fd5b505af11580156126e6573d6000803e3d6000fd5b505050506040513d60208110156126fc57600080fd5b8101908080519060200190929190505050508183101561289b5761271e612de8565b73ffffffffffffffffffffffffffffffffffffffff1663863eb74a33856040518363ffffffff167c0100000000000000000000000000000000000000000000000000000000028152600401808373ffffffffffffffffffffffffffffffffffffffff1673ffffffffffffffffffffffffffffffffffffffff16815260200182815260200192505050600060405180830381600087803b1580156127c057600080fd5b505af11580156127d4573d6000803e3d6000fd5b505050506127e0612de8565b73ffffffffffffffffffffffffffffffffffffffff1663927bb66833846040518363ffffffff167c0100000000000000000000000000000000000000000000000000000000028152600401808373ffffffffffffffffffffffffffffffffffffffff1673ffffffffffffffffffffffffffffffffffffffff16815260200182815260200192505050600060405180830381600087803b15801561288257600080fd5b505af1158015612896573d6000803e3d6000fd5b505050505b60008314156128ae576128ad33613c21565b5b6129b6565b6128ce856020015186604001516131de90919063ffffffff16565b8560400181815250506128df612dfa565b73ffffffffffffffffffffffffffffffffffffffff166344d9bfe6336040518263ffffffff167c0100000000000000000000000000000000000000000000000000000000028152600401808273ffffffffffffffffffffffffffffffffffffffff1673ffffffffffffffffffffffffffffffffffffffff168152602001915050602060405180830381600087803b15801561297957600080fd5b505af115801561298d573d6000803e3d6000fd5b505050506040513d60208110156129a357600080fd5b8101908080519060200190929190505050505b6129be612dfa565b73ffffffffffffffffffffffffffffffffffffffff16631538e68c86604001516040518263ffffffff167c010000000000000000000000000000000000000000000000000000000002815260040180828152602001915050600060405180830381600087803b158015612a3057600080fd5b505af1158015612a44573d6000803e3d6000fd5b50505050607060009054906101000a900473ffffffffffffffffffffffffffffffffffffffff1673ffffffffffffffffffffffffffffffffffffffff166323b872dd33308a6040518463ffffffff167c0100000000000000000000000000000000000000000000000000000000028152600401808473ffffffffffffffffffffffffffffffffffffffff1673ffffffffffffffffffffffffffffffffffffffff1681526020018373ffffffffffffffffffffffffffffffffffffffff1673ffffffffffffffffffffffffffffffffffffffff1681526020018281526020019350505050602060405180830381600087803b158015612b4157600080fd5b505af1158015612b55573d6000803e3d6000fd5b505050506040513d6020811015612b6b57600080fd5b81019080805190602001909291905050501515612b8757600080fd5b3373ffffffffffffffffffffffffffffffffffffffff167f31234eaf60e5e9eb15f098a26504dfe889551da611f4f904c9031e8b52382050888760200151604051808381526020018281526020019250505060405180910390a250505050505050565b6000612bf7602b5461082d565b905090565b6000612c06614292565b1515612c1157600080fd5b612c1c603954611757565b612cd4612c27612e0c565b73ffffffffffffffffffffffffffffffffffffffff1663d9c6bb206040518163ffffffff167c0100000000000000000000000000000000000000000000000000000000028152600401602060405180830381600087803b158015612c8a57600080fd5b505af1158015612c9e573d6000803e3d6000fd5b505050506040513d6020811015612cb457600080fd5b8101908080519060200190929190505050846131de90919063ffffffff16565b811515612cdd57fe5b069050919050565b6000612cef614292565b1515612cfa57600080fd5b612de16001612dd3612d0d603954611757565b612dc5612d18612e0c565b73ffffffffffffffffffffffffffffffffffffffff1663d9c6bb206040518163ffffffff167c0100000000000000000000000000000000000000000000000000000000028152600401602060405180830381600087803b158015612d7b57600080fd5b505af1158015612d8f573d6000803e3d6000fd5b505050506040513d6020811015612da557600080fd5b8101908080519060200190929190505050876131de90919063ffffffff16565b61434290919063ffffffff16565b613c0590919063ffffffff16565b9050919050565b6000612df5602d5461082d565b905090565b6000612e07602c5461082d565b905090565b6000612e1960275461082d565b905090565b612e26614358565b612e2e612dfa565b73ffffffffffffffffffffffffffffffffffffffff16635bdd2743836040518263ffffffff167c0100000000000000000000000000000000000000000000000000000000028152600401808273ffffffffffffffffffffffffffffffffffffffff1673ffffffffffffffffffffffffffffffffffffffff1681526020019150506040805180830381600087803b158015612ec757600080fd5b505af1158015612edb573d6000803e3d6000fd5b505050506040513d6040811015612ef157600080fd5b810190808051906020019092919080519060200190929190505050826000018360200182815250828152505050612f26612dfa565b73ffffffffffffffffffffffffffffffffffffffff1663abed029a6040518163ffffffff167c0100000000000000000000000000000000000000000000000000000000028152600401602060405180830381600087803b158015612f8957600080fd5b505af1158015612f9d573d6000803e3d6000fd5b505050506040513d6020811015612fb357600080fd5b8101908080519060200190929190505050816040018181525050919050565b612fda614358565b600082602001518260200181815250508260000151826000018181525050826040015182604001818152505061300e61096c565b905080613019612de8565b73ffffffffffffffffffffffffffffffffffffffff1663cefc2bff866040518263ffffffff167c0100000000000000000000000000000000000000000000000000000000028152600401808273ffffffffffffffffffffffffffffffffffffffff1673ffffffffffffffffffffffffffffffffffffffff168152602001915050602060405180830381600087803b1580156130b357600080fd5b505af11580156130c7573d6000803e3d6000fd5b505050506040513d60208110156130dd57600080fd5b810190808051906020019092919050505010156131d7576130fc613bf3565b73ffffffffffffffffffffffffffffffffffffffff16630b3b159584600001516040518263ffffffff167c010000000000000000000000000000000000000000000000000000000002815260040180828152602001915050602060405180830381600087803b15801561316e57600080fd5b505af1158015613182573d6000803e3d6000fd5b505050506040513d602081101561319857600080fd5b81019080805190602001909291905050508260200181815250506131cd82602001518360400151613c0590919063ffffffff16565b8260400181815250505b5092915050565b60008282111515156131ec57fe5b818303905092915050565b6000613204601b5461082d565b905090565b60008061321461096c565b61321c612de8565b73ffffffffffffffffffffffffffffffffffffffff1663cefc2bff876040518263ffffffff167c0100000000000000000000000000000000000000000000000000000000028152600401808273ffffffffffffffffffffffffffffffffffffffff1673ffffffffffffffffffffffffffffffffffffffff168152602001915050602060405180830381600087803b1580156132b657600080fd5b505af11580156132ca573d6000803e3d6000fd5b505050506040513d60208110156132e057600080fd5b81019080805190602001909291905050501491506132fc612dfa565b73ffffffffffffffffffffffffffffffffffffffff1663bf448a876040518163ffffffff167c0100000000000000000000000000000000000000000000000000000000028152600401602060405180830381600087803b15801561335f57600080fd5b505af1158015613373573d6000803e3d6000fd5b505050506040513d602081101561338957600080fd5b81019080805190602001909291905050509050600115156133a8612dfa565b73ffffffffffffffffffffffffffffffffffffffff166388954a6c876040518263ffffffff167c0100000000000000000000000000000000000000000000000000000000028152600401808273ffffffffffffffffffffffffffffffffffffffff1673ffffffffffffffffffffffffffffffffffffffff168152602001915050602060405180830381600087803b15801561344257600080fd5b505af1158015613456573d6000803e3d6000fd5b505050506040513d602081101561346c57600080fd5b81019080805190602001909291905050501515141561394d57613490603654611757565b8360200151108061358657506134a7603754611757565b6134af613be1565b73ffffffffffffffffffffffffffffffffffffffff16639c89a0e2876040518263ffffffff167c0100000000000000000000000000000000000000000000000000000000028152600401808273ffffffffffffffffffffffffffffffffffffffff1673ffffffffffffffffffffffffffffffffffffffff168152602001915050602060405180830381600087803b15801561354957600080fd5b505af115801561355d573d6000803e3d6000fd5b505050506040513d602081101561357357600080fd5b8101908080519060200190929190505050105b156137dd576001613595612dfa565b73ffffffffffffffffffffffffffffffffffffffff1663e3bc96ba6040518163ffffffff167c0100000000000000000000000000000000000000000000000000000000028152600401602060405180830381600087803b1580156135f857600080fd5b505af115801561360c573d6000803e3d6000fd5b505050506040513d602081101561362257600080fd5b81019080805190602001909291905050501180613644575061364261183f565b155b151561364f57600080fd5b613657612dfa565b73ffffffffffffffffffffffffffffffffffffffff1663f2388b42866040518263ffffffff167c0100000000000000000000000000000000000000000000000000000000028152600401808273ffffffffffffffffffffffffffffffffffffffff1673ffffffffffffffffffffffffffffffffffffffff168152602001915050602060405180830381600087803b1580156136f157600080fd5b505af1158015613705573d6000803e3d6000fd5b505050506040513d602081101561371b57600080fd5b81019080805190602001909291905050505081156137d85761373b612dfa565b73ffffffffffffffffffffffffffffffffffffffff166391baa14461376d8660200151846131de90919063ffffffff16565b6040518263ffffffff167c010000000000000000000000000000000000000000000000000000000002815260040180828152602001915050600060405180830381600087803b1580156137bf57600080fd5b505af11580156137d3573d6000803e3d6000fd5b505050505b613948565b81156138a2576137eb612dfa565b73ffffffffffffffffffffffffffffffffffffffff166391baa14461383385602001516138258860200151866131de90919063ffffffff16565b613c0590919063ffffffff16565b6040518263ffffffff167c010000000000000000000000000000000000000000000000000000000002815260040180828152602001915050600060405180830381600087803b15801561388557600080fd5b505af1158015613899573d6000803e3d6000fd5b50505050613947565b6138aa612dfa565b73ffffffffffffffffffffffffffffffffffffffff166391baa1446138dc856020015184613c0590919063ffffffff16565b6040518263ffffffff167c010000000000000000000000000000000000000000000000000000000002815260040180828152602001915050600060405180830381600087803b15801561392e57600080fd5b505af1158015613942573d6000803e3d6000fd5b505050505b5b613bda565b613958603654611757565b836020015110158015613a515750613971603754611757565b613979613be1565b73ffffffffffffffffffffffffffffffffffffffff16639c89a0e2876040518263ffffffff167c0100000000000000000000000000000000000000000000000000000000028152600401808273ffffffffffffffffffffffffffffffffffffffff1673ffffffffffffffffffffffffffffffffffffffff168152602001915050602060405180830381600087803b158015613a1357600080fd5b505af1158015613a27573d6000803e3d6000fd5b505050506040513d6020811015613a3d57600080fd5b810190808051906020019092919050505010155b15613bd957613a5e612dfa565b73ffffffffffffffffffffffffffffffffffffffff166303a996a1866040518263ffffffff167c0100000000000000000000000000000000000000000000000000000000028152600401808273ffffffffffffffffffffffffffffffffffffffff1673ffffffffffffffffffffffffffffffffffffffff168152602001915050602060405180830381600087803b158015613af857600080fd5b505af1158015613b0c573d6000803e3d6000fd5b505050506040513d6020811015613b2257600080fd5b810190808051906020019092919050505050613b3c612dfa565b73ffffffffffffffffffffffffffffffffffffffff166391baa144613b6e856020015184613c0590919063ffffffff16565b6040518263ffffffff167c010000000000000000000000000000000000000000000000000000000002815260040180828152602001915050600060405180830381600087803b158015613bc057600080fd5b505af1158015613bd4573d6000803e3d6000fd5b505050505b5b5050505050565b6000613bee60295461082d565b905090565b6000613c0060245461082d565b905090565b60008183019050828110151515613c1857fe5b80905092915050565b613c29612dfa565b73ffffffffffffffffffffffffffffffffffffffff16636d080338826040518263ffffffff167c0100000000000000000000000000000000000000000000000000000000028152600401808273ffffffffffffffffffffffffffffffffffffffff1673ffffffffffffffffffffffffffffffffffffffff168152602001915050602060405180830381600087803b158015613cc357600080fd5b505af1158015613cd7573d6000803e3d6000fd5b505050506040513d6020811015613ced57600080fd5b810190808051906020019092919050505015613d085761428f565b607260009054906101000a900473ffffffffffffffffffffffffffffffffffffffff1673ffffffffffffffffffffffffffffffffffffffff1663aec2ccae826040518263ffffffff167c0100000000000000000000000000000000000000000000000000000000028152600401808273ffffffffffffffffffffffffffffffffffffffff1673ffffffffffffffffffffffffffffffffffffffff168152602001915050602060405180830381600087803b158015613dc557600080fd5b505af1158015613dd9573d6000803e3d6000fd5b505050506040513d6020811015613def57600080fd5b810190808051906020019092919050505015613f0057613e0d613be1565b73ffffffffffffffffffffffffffffffffffffffff1663ded86d6882613e34606f54611757565b6040518363ffffffff167c0100000000000000000000000000000000000000000000000000000000028152600401808373ffffffffffffffffffffffffffffffffffffffff1673ffffffffffffffffffffffffffffffffffffffff168152602001828152602001925050506040805180830381600087803b158015613eb857600080fd5b505af1158015613ecc573d6000803e3d6000fd5b505050506040513d6040811015613ee257600080fd5b81019080805190602001909291908051906020019092919050505050505b607360009054906101000a900473ffffffffffffffffffffffffffffffffffffffff1673ffffffffffffffffffffffffffffffffffffffff1663aec2ccae826040518263ffffffff167c0100000000000000000000000000000000000000000000000000000000028152600401808273ffffffffffffffffffffffffffffffffffffffff1673ffffffffffffffffffffffffffffffffffffffff168152602001915050602060405180830381600087803b158015613fbd57600080fd5b505af1158015613fd1573d6000803e3d6000fd5b505050506040513d6020811015613fe757600080fd5b8101908080519060200190929190505050156140f857614005613be1565b73ffffffffffffffffffffffffffffffffffffffff1663ded86d688261402c606f54611757565b6040518363ffffffff167c0100000000000000000000000000000000000000000000000000000000028152600401808373ffffffffffffffffffffffffffffffffffffffff1673ffffffffffffffffffffffffffffffffffffffff168152602001828152602001925050506040805180830381600087803b1580156140b057600080fd5b505af11580156140c4573d6000803e3d6000fd5b505050506040513d60408110156140da57600080fd5b81019080805190602001909291908051906020019092919050505050505b614100612de8565b73ffffffffffffffffffffffffffffffffffffffff166312d9b93933614137600161412961096c565b6131de90919063ffffffff16565b6040518363ffffffff167c0100000000000000000000000000000000000000000000000000000000028152600401808373ffffffffffffffffffffffffffffffffffffffff1673ffffffffffffffffffffffffffffffffffffffff16815260200182815260200192505050600060405180830381600087803b1580156141bc57600080fd5b505af11580156141d0573d6000803e3d6000fd5b505050506141dc612dfa565b73ffffffffffffffffffffffffffffffffffffffff16635515eb2c826040518263ffffffff167c0100000000000000000000000000000000000000000000000000000000028152600401808273ffffffffffffffffffffffffffffffffffffffff1673ffffffffffffffffffffffffffffffffffffffff168152602001915050600060405180830381600087803b15801561427657600080fd5b505af115801561428a573d6000803e3d6000fd5b505050505b50565b60008061429d612e0c565b73ffffffffffffffffffffffffffffffffffffffff1663d9c6bb206040518163ffffffff167c0100000000000000000000000000000000000000000000000000000000028152600401602060405180830381600087803b15801561430057600080fd5b505af1158015614314573d6000803e3d6000fd5b505050506040513d602081101561432a57600080fd5b81019080805190602001909291905050501415905090565b6000818381151561434f57fe5b04905092915050565b60606040519081016040528060008152602001600081526020016000815250905600a165627a7a72305820d0f4b7ad81cfae656ef8555bc431005147d4a357871e141859a4e7db0d07985c0029",
  "source": "pragma solidity ^0.4.25;\n\nimport \"@digix/cacp-contracts-dao/contracts/ResolverClient.sol\";\nimport \"../lib/MathHelper.sol\";\nimport \"../common/DaoCommon.sol\";\nimport \"../service/DaoCalculatorService.sol\";\nimport \"./DaoRewardsManager.sol\";\nimport \"./../interface/NumberCarbonVoting.sol\";\n\n\n/**\n@title Contract to handle staking/withdrawing of DGDs for participation in DAO\n@author Digix Holdings\n*/\ncontract DaoStakeLocking is DaoCommon {\n\n    event RedeemBadge(address indexed _user);\n    event LockDGD(address indexed _user, uint256 _amount, uint256 _currentLockedDGDStake);\n    event WithdrawDGD(address indexed _user, uint256 _amount, uint256 _currentLockedDGDStake);\n\n    address public dgdToken;\n    address public dgdBadgeToken;\n\n    // carbonVoting1 refers to this carbon vote: https://digix.global/carbonvote/1/#/\n    // the contract is at: https://etherscan.io/address/0x9f56f330bceb9d4e756be94581298673e94ed592#code\n    address public carbonVoting1;\n\n    // carbonVoting2 refers to this carbon vote: https://digix.global/carbonvote/2/#/\n    // the contract is at: https://etherscan.io/address/0xdec6c0dc7004ba23940c9ee7cb4a0528ec4c0580#code\n    address public carbonVoting2;\n\n    // The two carbon votes implement the NumberCarbonVoting interface, which has a voted(address) function to find out\n    // whether an address has voted in the carbon vote.\n    // Addresses will be awarded a fixed amount of Reputation Point (CONFIG_CARBON_VOTE_REPUTATION_BONUS) for every carbon votes that they participated in\n\n    struct StakeInformation {\n        // this is the amount of DGDs that a user has actualy locked up\n        uint256 userActualLockedDGD;\n\n        // this is the DGDStake that the user get from locking up their DGDs.\n        // this amount might be smaller than the userActualLockedDGD, because the user has locked some DGDs in the middle of the quarter\n        // and those DGDs will not fetch as much DGDStake\n        uint256 userLockedDGDStake;\n\n        // this is the sum of everyone's DGD Stake\n        uint256 totalLockedDGDStake;\n    }\n\n\n    constructor(\n        address _resolver,\n        address _dgdToken,\n        address _dgdBadgeToken,\n        address _carbonVoting1,\n        address _carbonVoting2\n    ) public {\n        require(init(CONTRACT_DAO_STAKE_LOCKING, _resolver));\n        dgdToken = _dgdToken;\n        dgdBadgeToken = _dgdBadgeToken;\n        carbonVoting1 = _carbonVoting1;\n        carbonVoting2 = _carbonVoting2;\n    }\n\n    function daoCalculatorService()\n        internal\n        view\n        returns (DaoCalculatorService _contract)\n    {\n        _contract = DaoCalculatorService(get_contract(CONTRACT_SERVICE_DAO_CALCULATOR));\n    }\n\n    function daoRewardsManager()\n        internal\n        view\n        returns (DaoRewardsManager _contract)\n    {\n        _contract = DaoRewardsManager(get_contract(CONTRACT_DAO_REWARDS_MANAGER));\n    }\n\n\n    /**\n    @notice Function to convert a DGD Badge to Reputation Points\n    @dev The Badge holder can redeem the Badge anytime in the first quarter, or\n         Otherwise, the participant must either lock/withdraw/continue in the current quarter first, before he can redeem a badge\n         Only 1 DGD Badge is accepted from an address, so holders with multiple badges\n         should either sell their other badges or redeem reputation to another address\n    */\n    function redeemBadge()\n        public\n    {\n        // should not have redeemed a badge\n        require(!daoStakeStorage().redeemedBadge(msg.sender));\n\n        // Can only redeem a badge if the reputation has been updated to the previous quarter.\n        // In other words, this holder must have called either lockDGD/withdrawDGD/confirmContinuedParticipation in this quarter (hence, rewards for last quarter was already calculated)\n        // This is to prevent users from changing the Reputation point that would be used to calculate their rewards for the previous quarter.\n\n        // Note that after lockDGD/withdrawDGD/confirmContinuedParticipation is called, the reputation is always updated to the previous quarter\n        require(\n            daoRewardsStorage().lastQuarterThatReputationWasUpdated(msg.sender) == (currentQuarterNumber() - 1)\n        );\n\n        daoStakeStorage().redeemBadge(msg.sender);\n        daoPointsStorage().increaseReputation(msg.sender, getUintConfig(CONFIG_REPUTATION_POINT_BOOST_FOR_BADGE));\n\n        // update moderator status\n        StakeInformation memory _info = getStakeInformation(msg.sender);\n        refreshModeratorStatus(msg.sender, _info, _info);\n\n        // transfer the badge to this contract\n        require(ERC20(dgdBadgeToken).transferFrom(msg.sender, address(this), 1));\n\n        emit RedeemBadge(msg.sender);\n    }\n\n    function lockDGD(uint256 _amount) public {\n        require(_amount > 0);\n        lockDGDInternal(_amount);\n    }\n\n\n    /**\n    @notice Function to lock DGD tokens to participate in the DAO\n    @dev Users must `approve` the DaoStakeLocking contract to transfer DGDs from them\n         Contracts are not allowed to participate in DigixDAO\n    @param _amount Amount of DGDs to lock\n    */\n    function lockDGDInternal(uint256 _amount)\n        internal\n        ifGlobalRewardsSet(currentQuarterNumber())\n    {\n        // msg.sender must be an EOA. Disallows any contract from participating in the DAO.\n        require(msg.sender == tx.origin);\n\n        StakeInformation memory _info = getStakeInformation(msg.sender);\n        StakeInformation memory _newInfo = refreshDGDStake(msg.sender, _info);\n\n        uint256 _additionalStake = 0;\n        if (_amount > 0) _additionalStake = daoCalculatorService().calculateAdditionalLockedDGDStake(_amount);\n\n        _newInfo.userActualLockedDGD = _newInfo.userActualLockedDGD.add(_amount);\n        _newInfo.userLockedDGDStake = _newInfo.userLockedDGDStake.add(_additionalStake);\n        _newInfo.totalLockedDGDStake = _newInfo.totalLockedDGDStake.add(_additionalStake);\n\n        // This has to happen at least once before user can participate in next quarter\n        daoRewardsManager().updateRewardsAndReputationBeforeNewQuarter(msg.sender);\n\n        daoStakeStorage().updateUserDGDStake(msg.sender, _newInfo.userActualLockedDGD, _newInfo.userLockedDGDStake);\n\n\n        //since Reputation is updated, we need to refresh moderator status\n        refreshModeratorStatus(msg.sender, _info, _newInfo);\n\n        uint256 _lastParticipatedQuarter = daoRewardsStorage().lastParticipatedQuarter(msg.sender);\n        uint256 _currentQuarter = currentQuarterNumber();\n\n        // Note: there might be a case when user locked in very small amount A that is less than Minimum locked DGD\n        // then, lock again in the middle of the quarter. This will not take into account that A was staked in earlier. Its as if A is only staked in now.\n        // Its not ideal, but we will keep it this way.\n        if (_newInfo.userLockedDGDStake >= getUintConfig(CONFIG_MINIMUM_LOCKED_DGD)) {\n            daoStakeStorage().addToParticipantList(msg.sender); // this will not add a second duplicate of the address if its already there\n\n            // if this is the first time we lock/unlock/continue in this quarter, save the previous lastParticipatedQuarter\n            // the purpose of the previousLastParticipatedQuarter is so that, if this participant withdraw all his DGD after locking in,\n            // we will revert his lastParticipatedQuarter to the previousLastParticipatedQuarter, so as to not screw up any calculation\n            // that uses the lastParticipatedQuarter (for example, for calculating the Reputation penalty for not participating in a number of quarters)\n            if (_lastParticipatedQuarter < _currentQuarter) {\n                daoRewardsStorage().updatePreviousLastParticipatedQuarter(msg.sender, _lastParticipatedQuarter);\n                daoRewardsStorage().updateLastParticipatedQuarter(msg.sender, _currentQuarter);\n            }\n\n            // if this is the first time they're locking tokens, ever,\n            // reward them with bonus for carbon voting activity\n            if (_lastParticipatedQuarter == 0) {\n                rewardCarbonVotingBonus(msg.sender);\n            }\n        } else { // this participant doesnt have enough DGD to be a participant\n            // Absolute: The lastParticipatedQuarter of this participant WILL NEVER be the current quarter\n            // Otherwise, his lockedDGDStake must be above the CONFIG_MINIMUM_LOCKED_DGDd\n\n            // Hence, the refreshDGDStake() function must have added _newInfo.userLockedDGDStake to _newInfo.totalLockedDGDStake\n\n            // Since this participant is not counted as a participant, we need to deduct _newInfo.userLockedDGDStake from _newInfo.totalLockedDGDStake\n            _newInfo.totalLockedDGDStake = _newInfo.totalLockedDGDStake.sub(_newInfo.userLockedDGDStake);\n            daoStakeStorage().removeFromParticipantList(msg.sender);\n        }\n\n        daoStakeStorage().updateTotalLockedDGDStake(_newInfo.totalLockedDGDStake);\n\n        // interaction happens last\n        require(ERC20(dgdToken).transferFrom(msg.sender, address(this), _amount));\n        emit LockDGD(msg.sender, _amount, _newInfo.userLockedDGDStake);\n    }\n\n\n    /**\n    @notice Function to withdraw DGD tokens from this contract (can only be withdrawn in the locking phase of quarter)\n    @param _amount Number of DGD tokens to withdraw\n    @return {\n      \"_success\": \"Boolean, true if the withdrawal was successful, revert otherwise\"\n    }\n    */\n    function withdrawDGD(uint256 _amount)\n        public\n        ifGlobalRewardsSet(currentQuarterNumber())\n    {\n        require(isLockingPhase() || daoUpgradeStorage().isReplacedByNewDao()); // If the DAO is already replaced, everyone is free to withdraw their DGDs anytime\n        StakeInformation memory _info = getStakeInformation(msg.sender);\n        StakeInformation memory _newInfo = refreshDGDStake(msg.sender, _info);\n\n        // This address must have at least some DGDs locked in, to withdraw\n        // Otherwise, its meaningless anw\n        // This also makes sure that the first participation ever must be a lockDGD() call, to avoid unnecessary complications\n        require(_info.userActualLockedDGD > 0);\n\n        require(_info.userActualLockedDGD >= _amount);\n        _newInfo.userActualLockedDGD = _newInfo.userActualLockedDGD.sub(_amount);\n        _newInfo.userLockedDGDStake = _newInfo.userLockedDGDStake.sub(_amount);\n        _newInfo.totalLockedDGDStake = _newInfo.totalLockedDGDStake.sub(_amount);\n\n        //_newInfo.totalLockedDGDStake = _newInfo.totalLockedDGDStake.sub(_amount);\n\n        // This has to happen at least once before user can participate in next quarter\n        daoRewardsManager().updateRewardsAndReputationBeforeNewQuarter(msg.sender);\n\n        //since Reputation is updated, we need to refresh moderator status\n        refreshModeratorStatus(msg.sender, _info, _newInfo);\n\n        uint256 _lastParticipatedQuarter = daoRewardsStorage().lastParticipatedQuarter(msg.sender);\n        uint256 _currentQuarter = currentQuarterNumber();\n\n        if (_newInfo.userLockedDGDStake < getUintConfig(CONFIG_MINIMUM_LOCKED_DGD)) { // this participant doesnt have enough DGD to be a participant\n            // if this participant has lock/unlock/continue in this quarter before, we need to revert the lastParticipatedQuarter to the previousLastParticipatedQuarter\n            if (_lastParticipatedQuarter == _currentQuarter) {\n                daoRewardsStorage().updateLastParticipatedQuarter(msg.sender, daoRewardsStorage().previousLastParticipatedQuarter(msg.sender));\n            }\n\n            // if this participant is not counted as a participant, the totalLockedDGDStake should not take into account the userLockedDGDStake at all\n            _newInfo.totalLockedDGDStake = _newInfo.totalLockedDGDStake.sub(_newInfo.userLockedDGDStake);\n\n            daoStakeStorage().removeFromParticipantList(msg.sender);\n        } else { // This participant still remains as a participant\n            // if this is the first time we lock/unlock/continue in this quarter, save the previous lastParticipatedQuarter\n            if (_lastParticipatedQuarter < _currentQuarter) {\n                daoRewardsStorage().updatePreviousLastParticipatedQuarter(msg.sender, _lastParticipatedQuarter);\n                daoRewardsStorage().updateLastParticipatedQuarter(msg.sender, _currentQuarter);\n\n            }\n            // the totalLockedDGDStake after refreshDGDStake() should decrease by _amount, since this guy withdraws _amount\n        }\n\n        daoStakeStorage().updateUserDGDStake(msg.sender, _newInfo.userActualLockedDGD, _newInfo.userLockedDGDStake);\n        daoStakeStorage().updateTotalLockedDGDStake(_newInfo.totalLockedDGDStake);\n\n        require(ERC20(dgdToken).transfer(msg.sender, _amount));\n\n        emit WithdrawDGD(msg.sender, _amount, _newInfo.userLockedDGDStake);\n    }\n\n\n    /**\n    @notice Function to be called by someone who doesnt change their DGDStake for the next quarter to confirm that they're participating\n    @dev This can be done in the middle of the quarter as well.\n         If someone just lets their DGDs sit in the DAO, and don't call this function, they are not counted as a participant in the quarter.\n    */\n    function confirmContinuedParticipation()\n        public\n    {\n        lockDGDInternal(0);\n    }\n\n\n    /**\n    @notice This function refreshes the DGD stake of a user before doing any staking action(locking/withdrawing/continuing) in a new quarter\n    @dev We need to do this because sometimes, the user locked DGDs in the middle of the previous quarter. Hence, his DGDStake in the record now\n         is not correct. Note that this function might be called in the middle of the current quarter as well.\n\n        This has no effect if the user has already done some staking action in the current quarter\n         _infoBefore has the user's current stake information\n         _infoAfter will be the user's stake information after refreshing\n\n         This function updates the totalLockedDGDStake as if, the _user is participating in this quarter\n         Therefore, if the _user actually will not qualify as a participant, the caller of this function needs to deduct\n         _infoAfter.userLockedDGDStake from _infoAfter.totalLockedDGDStake\n    */\n    function refreshDGDStake(address _user, StakeInformation _infoBefore)\n        internal\n        view\n        returns (StakeInformation memory _infoAfter)\n    {\n        _infoAfter.userLockedDGDStake = _infoBefore.userLockedDGDStake;\n        _infoAfter.userActualLockedDGD = _infoBefore.userActualLockedDGD;\n        _infoAfter.totalLockedDGDStake = _infoBefore.totalLockedDGDStake;\n\n        // only need to refresh if this is the first refresh in this new quarter;\n        uint256 _currentQuarter = currentQuarterNumber();\n        if (daoRewardsStorage().lastParticipatedQuarter(_user) < _currentQuarter) {\n            _infoAfter.userLockedDGDStake = daoCalculatorService().calculateAdditionalLockedDGDStake(_infoBefore.userActualLockedDGD);\n\n            _infoAfter.totalLockedDGDStake = _infoAfter.totalLockedDGDStake.add(\n                _infoAfter.userLockedDGDStake\n            );\n        }\n    }\n\n\n    /**\n    @notice This function refreshes the Moderator status of a user, to be done right after ANY STEP where a user's reputation or DGDStake is changed\n    @dev _infoBefore is the stake information of the user before this transaction, _infoAfter is the stake information after this transaction\n         This function needs to:\n            - add/remove addresses from the moderator list accordingly\n            - adjust the totalModeratorLockedDGDStake accordingly as well\n    */\n    function refreshModeratorStatus(address _user, StakeInformation _infoBefore, StakeInformation _infoAfter)\n        internal\n    {\n        bool _alreadyParticipatedInThisQuarter = daoRewardsStorage().lastParticipatedQuarter(_user) == currentQuarterNumber();\n        uint256 _currentTotalModeratorLockedDGDs = daoStakeStorage().totalModeratorLockedDGDStake();\n\n        if (daoStakeStorage().isInModeratorsList(_user) == true) {\n            // this participant was already in the moderator list\n\n            if (_infoAfter.userLockedDGDStake < getUintConfig(CONFIG_MINIMUM_DGD_FOR_MODERATOR) ||\n                daoPointsStorage().getReputation(_user) < getUintConfig(CONFIG_MINIMUM_REPUTATION_FOR_MODERATOR)) {\n                // this participant is no longer a moderator this quarter, should be removed\n\n                // Throw if this is the last moderator. There must be at least one moderator in the moderator list. Otherwise calculateGlobalRewardsBeforeNewQuarter() will fail.\n                // after replacing DAO, we will want all moderators to withdraw their DGDs, hence the check\n                require(\n                    (daoStakeStorage().readTotalModerators() > 1) ||\n                    (!isDaoNotReplaced())\n                );\n\n                daoStakeStorage().removeFromModeratorList(_user);\n\n                // only need to deduct the dgdStake from the totalModeratorLockedDGDStake if this participant has participated in this quarter before this transaction\n                if (_alreadyParticipatedInThisQuarter) {\n                    daoStakeStorage().updateTotalModeratorLockedDGDs(\n                        _currentTotalModeratorLockedDGDs.sub(_infoBefore.userLockedDGDStake)\n                    );\n                }\n\n            } else { // this moderator was in the moderator list and still remains a moderator now\n                if (_alreadyParticipatedInThisQuarter) { // if already participated in this quarter, just account for the difference in dgdStake\n                    daoStakeStorage().updateTotalModeratorLockedDGDs(\n                        _currentTotalModeratorLockedDGDs.sub(_infoBefore.userLockedDGDStake).add(_infoAfter.userLockedDGDStake)\n                    );\n                } else { // has not participated in this quarter before this transaction\n                    daoStakeStorage().updateTotalModeratorLockedDGDs(\n                        _currentTotalModeratorLockedDGDs.add(_infoAfter.userLockedDGDStake)\n                    );\n                }\n            }\n        } else { // was not in moderator list\n            if (_infoAfter.userLockedDGDStake >= getUintConfig(CONFIG_MINIMUM_DGD_FOR_MODERATOR) &&\n                daoPointsStorage().getReputation(_user) >= getUintConfig(CONFIG_MINIMUM_REPUTATION_FOR_MODERATOR)) {\n\n                daoStakeStorage().addToModeratorList(_user);\n                daoStakeStorage().updateTotalModeratorLockedDGDs(\n                    _currentTotalModeratorLockedDGDs.add(_infoAfter.userLockedDGDStake)\n                );\n            }\n        }\n    }\n\n\n    /**\n    @notice Get the actualLockedDGD and lockedDGDStake of a user, as well as the totalLockedDGDStake of all users\n    */\n    function getStakeInformation(address _user)\n        internal\n        view\n        returns (StakeInformation _info)\n    {\n        (_info.userActualLockedDGD, _info.userLockedDGDStake) = daoStakeStorage().readUserDGDStake(_user);\n        _info.totalLockedDGDStake = daoStakeStorage().totalLockedDGDStake();\n    }\n\n\n    /**\n    @notice Reward the voters of carbon voting rounds with initial bonus reputation\n    @dev This is only called when they're locking tokens for the first time, enough tokens to be a participant\n    */\n    function rewardCarbonVotingBonus(address _user)\n        internal\n    {\n        // if the bonus has already been given out once to this user, return\n        if (daoStakeStorage().carbonVoteBonusClaimed(_user)) return;\n\n        // for carbon voting 1, if voted, give out a bonus\n        if (NumberCarbonVoting(carbonVoting1).voted(_user)) {\n            daoPointsStorage().increaseReputation(_user, getUintConfig(CONFIG_CARBON_VOTE_REPUTATION_BONUS));\n        }\n        // for carbon voting 2, if voted, give out a bonus\n        if (NumberCarbonVoting(carbonVoting2).voted(_user)) {\n            daoPointsStorage().increaseReputation(_user, getUintConfig(CONFIG_CARBON_VOTE_REPUTATION_BONUS));\n        }\n\n        // we changed reputation, so we need to update the last quarter that reputation was updated\n        // This is to take care of this situation:\n        // Holder A locks DGD for the first time in quarter 5, gets some bonus RP for the carbon votes\n        // Then, A withdraw all his DGDs right away. Essentially, he's not participating in quarter 5 anymore\n        // Now, when he comes back at quarter 10, he should be deducted reputation for 5 quarters that he didnt participated in: from quarter 5 to quarter 9\n        daoRewardsStorage().updateLastQuarterThatReputationWasUpdated(msg.sender, currentQuarterNumber().sub(1));\n\n        // set that this user's carbon voting bonus has been given out\n        daoStakeStorage().setCarbonVoteBonusClaimed(_user);\n    }\n}\n",
  "sourcePath": "/home/rohit/Develop/dao-contracts/contracts/interactive/DaoStakeLocking.sol",
  "compiler": {
    "name": "solc",
    "version": "0.4.25+commit.59dbf8f1.Emscripten.clang"
  },
  "schemaVersion": "2.0.2",
  "updatedAt": "2019-03-18T09:32:27.658Z"
}