{
  "contractName": "DaoSpecialVotingClaims",
  "abi": [
    {
      "constant": true,
      "inputs": [],
      "name": "resolver",
      "outputs": [
        {
          "name": "",
          "type": "address"
        }
      ],
      "payable": false,
      "stateMutability": "view",
      "type": "function"
    },
    {
      "constant": true,
      "inputs": [
        {
          "name": "_configKey",
          "type": "bytes32"
        }
      ],
      "name": "getAddressConfig",
      "outputs": [
        {
          "name": "_configValue",
          "type": "address"
        }
      ],
      "payable": false,
      "stateMutability": "view",
      "type": "function"
    },
    {
      "constant": true,
      "inputs": [],
      "name": "key",
      "outputs": [
        {
          "name": "",
          "type": "bytes32"
        }
      ],
      "payable": false,
      "stateMutability": "view",
      "type": "function"
    },
    {
      "constant": true,
      "inputs": [
        {
          "name": "_key",
          "type": "bytes32"
        }
      ],
      "name": "get_contract",
      "outputs": [
        {
          "name": "_contract",
          "type": "address"
        }
      ],
      "payable": false,
      "stateMutability": "view",
      "type": "function"
    },
    {
      "constant": true,
      "inputs": [],
      "name": "currentTimeInQuarter",
      "outputs": [
        {
          "name": "_currentT",
          "type": "uint256"
        }
      ],
      "payable": false,
      "stateMutability": "view",
      "type": "function"
    },
    {
      "constant": true,
      "inputs": [],
      "name": "isMainPhase",
      "outputs": [
        {
          "name": "_isMainPhase",
          "type": "bool"
        }
      ],
      "payable": false,
      "stateMutability": "view",
      "type": "function"
    },
    {
      "constant": true,
      "inputs": [],
      "name": "isLockingPhase",
      "outputs": [
        {
          "name": "_isLockingPhase",
          "type": "bool"
        }
      ],
      "payable": false,
      "stateMutability": "view",
      "type": "function"
    },
    {
      "constant": true,
      "inputs": [],
      "name": "currentQuarterNumber",
      "outputs": [
        {
          "name": "_quarterNumber",
          "type": "uint256"
        }
      ],
      "payable": false,
      "stateMutability": "view",
      "type": "function"
    },
    {
      "constant": true,
      "inputs": [
        {
          "name": "_user",
          "type": "address"
        }
      ],
      "name": "isParticipant",
      "outputs": [
        {
          "name": "_is",
          "type": "bool"
        }
      ],
      "payable": false,
      "stateMutability": "view",
      "type": "function"
    },
    {
      "constant": true,
      "inputs": [
        {
          "name": "_configKey",
          "type": "bytes32"
        }
      ],
      "name": "getBytesConfig",
      "outputs": [
        {
          "name": "_configValue",
          "type": "bytes32"
        }
      ],
      "payable": false,
      "stateMutability": "view",
      "type": "function"
    },
    {
      "constant": true,
      "inputs": [
        {
          "name": "_configKey",
          "type": "bytes32"
        }
      ],
      "name": "getUintConfig",
      "outputs": [
        {
          "name": "_configValue",
          "type": "uint256"
        }
      ],
      "payable": false,
      "stateMutability": "view",
      "type": "function"
    },
    {
      "constant": true,
      "inputs": [],
      "name": "isDaoNotReplaced",
      "outputs": [
        {
          "name": "_isNotReplaced",
          "type": "bool"
        }
      ],
      "payable": false,
      "stateMutability": "view",
      "type": "function"
    },
    {
      "constant": true,
      "inputs": [],
      "name": "CONTRACT_ADDRESS",
      "outputs": [
        {
          "name": "",
          "type": "address"
        }
      ],
      "payable": false,
      "stateMutability": "view",
      "type": "function"
    },
    {
      "constant": true,
      "inputs": [
        {
          "name": "_proposalId",
          "type": "bytes32"
        }
      ],
      "name": "isProposalPaused",
      "outputs": [
        {
          "name": "_isPausedOrStopped",
          "type": "bool"
        }
      ],
      "payable": false,
      "stateMutability": "view",
      "type": "function"
    },
    {
      "constant": true,
      "inputs": [
        {
          "name": "_user",
          "type": "address"
        }
      ],
      "name": "isModerator",
      "outputs": [
        {
          "name": "_is",
          "type": "bool"
        }
      ],
      "payable": false,
      "stateMutability": "view",
      "type": "function"
    },
    {
      "inputs": [
        {
          "name": "_resolver",
          "type": "address"
        }
      ],
      "payable": false,
      "stateMutability": "nonpayable",
      "type": "constructor"
    },
    {
      "anonymous": false,
      "inputs": [
        {
          "indexed": true,
          "name": "_proposalId",
          "type": "bytes32"
        },
        {
          "indexed": false,
          "name": "_result",
          "type": "bool"
        }
      ],
      "name": "SpecialProposalClaim",
      "type": "event"
    },
    {
      "constant": false,
      "inputs": [
        {
          "name": "_proposalId",
          "type": "bytes32"
        },
        {
          "name": "_operations",
          "type": "uint256"
        }
      ],
      "name": "claimSpecialProposalVotingResult",
      "outputs": [
        {
          "name": "_passed",
          "type": "bool"
        }
      ],
      "payable": false,
      "stateMutability": "nonpayable",
      "type": "function"
    }
  ],
  "bytecode": "0x608060405260006001026003906000191690556000600460006101000a81548173ffffffffffffffffffffffffffffffffffffffff021916908373ffffffffffffffffffffffffffffffffffffffff1602179055507f70726f706f73616c5f73746174655f70726570726f706f73616c0000000000006005906000191690557f70726f706f73616c5f73746174655f64726166740000000000000000000000006006906000191690557f70726f706f73616c5f73746174655f6d6f6465726174656400000000000000006007906000191690557f70726f706f73616c5f73746174655f6f6e676f696e67000000000000000000006008906000191690557f70726f706f73616c5f73746174655f636c6f73656400000000000000000000006009906000191690557f70726f706f73616c5f73746174655f6172636869766564000000000000000000600a906000191690556001600b556002600c556003600d556001600e556002600f5560036010557f696e7465725f6467645f696400000000000000000000000000000000000000006011906000191690557f696e7465725f6d6f645f6467645f6964000000000000000000000000000000006012906000191690557f696e7465725f626f6e75735f63616c63756c6174696f6e5f69640000000000006013906000191690557f64616f00000000000000000000000000000000000000000000000000000000006014906000191690557f64616f3a7370656369616c3a70726f706f73616c0000000000000000000000006015906000191690557f64616f3a7374616b652d6c6f636b696e670000000000000000000000000000006016906000191690557f64616f3a766f74696e67000000000000000000000000000000000000000000006017906000191690557f64616f3a766f74696e673a636c61696d730000000000000000000000000000006018906000191690557f64616f3a73766f74696e673a636c61696d7300000000000000000000000000006019906000191690557f64616f3a6964656e746974790000000000000000000000000000000000000000601a906000191690557f64616f3a726577617264732d6d616e6167657200000000000000000000000000601b906000191690557f64616f3a726577617264732d6578747261730000000000000000000000000000601c906000191690557f64616f3a726f6c65730000000000000000000000000000000000000000000000601d906000191690557f64616f3a66756e64696e672d6d616e6167657200000000000000000000000000601e906000191690557f64616f3a77686974656c697374696e6700000000000000000000000000000000601f906000191690557f64616f3a696e666f726d6174696f6e00000000000000000000000000000000006020906000191690557f736572766963653a726f6c6500000000000000000000000000000000000000006021906000191690557f736572766963653a64616f3a696e666f000000000000000000000000000000006022906000191690557f736572766963653a64616f3a6c697374696e67000000000000000000000000006023906000191690557f736572766963653a64616f3a63616c63756c61746f72000000000000000000006024906000191690557f73746f726167653a64616f0000000000000000000000000000000000000000006025906000191690557f73746f726167653a64616f3a636f756e746572000000000000000000000000006026906000191690557f73746f726167653a64616f3a75706772616465000000000000000000000000006027906000191690557f73746f726167653a64616f3a6964656e746974790000000000000000000000006028906000191690557f73746f726167653a64616f3a706f696e747300000000000000000000000000006029906000191690557f73746f726167653a64616f3a7370656369616c00000000000000000000000000602a906000191690557f73746f726167653a64616f3a636f6e6669670000000000000000000000000000602b906000191690557f73746f726167653a64616f3a7374616b65000000000000000000000000000000602c906000191690557f73746f726167653a64616f3a7265776172647300000000000000000000000000602d906000191690557f73746f726167653a64616f3a77686974656c697374696e670000000000000000602e906000191690557f73746f726167653a696e7465726d6564696174653a726573756c747300000000602f906000191690557f743a6467640000000000000000000000000000000000000000000000000000006030906000191690557f743a6467780000000000000000000000000000000000000000000000000000006031906000191690557f743a6261646765000000000000000000000000000000000000000000000000006032906000191690556001603360006101000a81548160ff021916908360ff1602179055506002603360016101000a81548160ff021916908360ff1602179055506003603360026101000a81548160ff021916908360ff1602179055506004603360036101000a81548160ff021916908360ff1602179055506276a7006034557f6d696e5f6467645f7061727469636970616e74000000000000000000000000006035906000191690557f6d696e5f6467645f6d6f64657261746f720000000000000000000000000000006036906000191690557f6d696e5f72657075746174696f6e5f6d6f64657261746f7200000000000000006037906000191690557f6c6f636b696e675f70686173655f6475726174696f6e000000000000000000006038906000191690557f717561727465725f6475726174696f6e000000000000000000000000000000006039906000191690557f766f74696e675f636f6d6d69745f706861736500000000000000000000000000603a906000191690557f766f74696e675f70686173655f746f74616c0000000000000000000000000000603b906000191690557f696e746572696d5f766f74696e675f636f6d6d69745f70686173650000000000603c906000191690557f696e746572696d5f766f74696e675f70686173655f746f74616c000000000000603d906000191690557f64726166745f71756f72756d5f66697865645f6e756d657261746f7200000000603e906000191690557f64726166745f71756f72756d5f66697865645f64656e6f6d696e61746f720000603f906000191690557f64726166745f71756f72756d5f73666163746f725f6e756d657261746f7200006040906000191690557f64726166745f71756f72756d5f73666163746f725f64656e6f6d696e61746f726041906000191690557f766f74655f71756f72756d5f66697865645f6e756d657261746f7200000000006042906000191690557f766f74655f71756f72756d5f66697865645f64656e6f6d696e61746f720000006043906000191690557f766f74655f71756f72756d5f73666163746f725f6e756d657261746f720000006044906000191690557f766f74655f71756f72756d5f73666163746f725f64656e6f6d696e61746f72006045906000191690557f66696e616c5f7265776172645f73666163746f725f6e756d657261746f7200006046906000191690557f66696e616c5f7265776172645f73666163746f725f64656e6f6d696e61746f726047906000191690557f64726166745f71756f74615f6e756d657261746f7200000000000000000000006048906000191690557f64726166745f71756f74615f64656e6f6d696e61746f720000000000000000006049906000191690557f766f74696e675f71756f74615f6e756d657261746f7200000000000000000000604a906000191690557f766f74696e675f71756f74615f64656e6f6d696e61746f720000000000000000604b906000191690557f6d696e696d616c5f717000000000000000000000000000000000000000000000604c906000191690557f717561727465725f706f696e745f7363616c696e675f666163746f7200000000604d906000191690557f7265705f706f696e745f7363616c696e675f666163746f720000000000000000604e906000191690557f6d696e696d616c5f6d6f645f7170000000000000000000000000000000000000604f906000191690557f6d6f645f71705f7363616c696e675f666163746f7200000000000000000000006050906000191690557f6d6f645f7265705f706f696e745f7363616c696e675f666163746f72000000006051906000191690557f717561727465725f706f696e745f64726166745f766f746500000000000000006052906000191690557f717561727465725f706f696e745f766f746500000000000000000000000000006053906000191690557f717561727465725f706f696e745f696e746572696d5f766f74650000000000006054906000191690557f715f705f6d696c6573746f6e655f636f6d706c6574696f6e00000000000000006055906000191690557f626f6e75735f72657075746174696f6e5f6e756d657261746f720000000000006056906000191690557f626f6e75735f72657075746174696f6e5f64656e6f6d696e61746f72000000006057906000191690557f7370656369616c5f70726f706f73616c5f636f6d6d69745f70686173650000006058906000191690557f7370656369616c5f70726f706f73616c5f70686173655f746f74616c000000006059906000191690557f636f6e6669675f7370656369616c5f71756f74615f6e756d657261746f720000605a906000191690557f636f6e6669675f7370656369616c5f71756f74615f64656e6f6d696e61746f72605b906000191690557f7370656369616c5f71756f72756d5f6e756d657261746f720000000000000000605c906000191690557f7370656369616c5f71756f72756d5f64656e6f6d696e61746f72000000000000605d906000191690557f636f6e6669675f6d61785f72657075746174696f6e5f646564756374696f6e00605e906000191690557f636f6e6669675f70756e6973686d656e745f6e6f745f6c6f636b696e67000000605f906000191690557f636f6e6669675f7265705f7065725f65787472615f71705f6e756d00000000006060906000191690557f636f6e6669675f7265705f7065725f65787472615f71705f64656e00000000006061906000191690557f636f6e6669675f6d61785f6d5f72705f646564756374696f6e000000000000006062906000191690557f636f6e6669675f7265705f7065725f65787472615f6d5f71705f6e756d0000006063906000191690557f636f6e6669675f7265705f7065725f65787472615f6d5f71705f64656e0000006064906000191690557f636f6e6669675f6d6f645f706f7274696f6e5f6e756d000000000000000000006065906000191690557f636f6e6669675f6d6f645f706f7274696f6e5f64656e000000000000000000006066906000191690557f636f6e6669675f64726166745f766f74696e675f7068617365000000000000006067906000191690557f636f6e6669675f72705f626f6f73745f7065725f6261646765000000000000006068906000191690557f636f6e6669675f636c61696d696e675f646561646c696e6500000000000000006069906000191690557f636f6e6669675f70726570726f706f73616c5f636f6c6c61746572616c000000606a906000191690557f636f6e6669675f6d61785f66756e64696e675f6e6f6e44696769780000000000606b906000191690557f636f6e6669675f6d61785f6d696c6573746f6e65735f6e6f6e44696769780000606c906000191690557f636f6e6669675f6e6f6e44696769785f70726f706f73616c5f63617000000000606d906000191690557f636f6e6669675f646561645f6475726174696f6e000000000000000000000000606e906000191690557f636f6e6669675f63765f72657075746174696f6e000000000000000000000000606f906000191690553480156200113457600080fd5b5060405160208062003a0283398101806040528101908080519060200190929190505050620011756019548262001188640100000000026401000000009004565b15156200118157600080fd5b5062001419565b6000808273ffffffffffffffffffffffffffffffffffffffff16636d19a8826040518163ffffffff167c0100000000000000000000000000000000000000000000000000000000028152600401602060405180830381600087803b158015620011f057600080fd5b505af115801562001205573d6000803e3d6000fd5b505050506040513d60208110156200121c57600080fd5b810190808051906020019092919050505090506000151581151514156200140d5730600260006101000a81548173ffffffffffffffffffffffffffffffffffffffff021916908373ffffffffffffffffffffffffffffffffffffffff160217905550826000806101000a81548173ffffffffffffffffffffffffffffffffffffffff021916908373ffffffffffffffffffffffffffffffffffffffff16021790555083600181600019169055506000809054906101000a900473ffffffffffffffffffffffffffffffffffffffff1673ffffffffffffffffffffffffffffffffffffffff1663c0f6ef4a600154600260009054906101000a900473ffffffffffffffffffffffffffffffffffffffff166040518363ffffffff167c01000000000000000000000000000000000000000000000000000000000281526004018083600019166000191681526020018273ffffffffffffffffffffffffffffffffffffffff1673ffffffffffffffffffffffffffffffffffffffff16815260200192505050602060405180830381600087803b158015620013ba57600080fd5b505af1158015620013cf573d6000803e3d6000fd5b505050506040513d6020811015620013e657600080fd5b810190808051906020019092919050505015156200140357600080fd5b6001915062001412565b600091505b5092915050565b6125d980620014296000396000f3006080604052600436106100e6576000357c0100000000000000000000000000000000000000000000000000000000900463ffffffff16806304f3bcec146100eb5780631d8ccd04146101425780633943380c146101b35780633f83acff146101e6578063560a25ea146102575780635932470b1461028257806368533060146102d55780637d6fed80146103045780637f6a26b614610333578063929066f51461035e57806393ddad08146103b9578063b1e2b9dd14610406578063d70d93581461044b578063db4ecbc11461047a578063f94f0f33146104d1578063fa6f39361461051a575b600080fd5b3480156100f757600080fd5b50610100610575565b604051808273ffffffffffffffffffffffffffffffffffffffff1673ffffffffffffffffffffffffffffffffffffffff16815260200191505060405180910390f35b34801561014e57600080fd5b50610171600480360381019080803560001916906020019092919050505061059a565b604051808273ffffffffffffffffffffffffffffffffffffffff1673ffffffffffffffffffffffffffffffffffffffff16815260200191505060405180910390f35b3480156101bf57600080fd5b506101c861065c565b60405180826000191660001916815260200191505060405180910390f35b3480156101f257600080fd5b506102156004803603810190808035600019169060200190929190505050610662565b604051808273ffffffffffffffffffffffffffffffffffffffff1673ffffffffffffffffffffffffffffffffffffffff16815260200191505060405180910390f35b34801561026357600080fd5b5061026c61073e565b6040518082815260200191505060405180910390f35b34801561028e57600080fd5b506102bb60048036038101908080356000191690602001909291908035906020019092919050505061074e565b604051808215151515815260200191505060405180910390f35b3480156102e157600080fd5b506102ea61166e565b604051808215151515815260200191505060405180910390f35b34801561031057600080fd5b5061031961169a565b604051808215151515815260200191505060405180910390f35b34801561033f57600080fd5b506103486116b5565b6040518082815260200191505060405180910390f35b34801561036a57600080fd5b5061039f600480360381019080803573ffffffffffffffffffffffffffffffffffffffff1690602001909291905050506116c5565b604051808215151515815260200191505060405180910390f35b3480156103c557600080fd5b506103e860048036038101908080356000191690602001909291905050506118a6565b60405180826000191660001916815260200191505060405180910390f35b34801561041257600080fd5b506104356004803603810190808035600019169060200190929190505050611968565b6040518082815260200191505060405180910390f35b34801561045757600080fd5b50610460611a2a565b604051808215151515815260200191505060405180910390f35b34801561048657600080fd5b5061048f611ad8565b604051808273ffffffffffffffffffffffffffffffffffffffff1673ffffffffffffffffffffffffffffffffffffffff16815260200191505060405180910390f35b3480156104dd57600080fd5b506105006004803603810190808035600019169060200190929190505050611afe565b604051808215151515815260200191505060405180910390f35b34801561052657600080fd5b5061055b600480360381019080803573ffffffffffffffffffffffffffffffffffffffff169060200190929190505050611c53565b604051808215151515815260200191505060405180910390f35b6000809054906101000a900473ffffffffffffffffffffffffffffffffffffffff1681565b60006105a4611f26565b73ffffffffffffffffffffffffffffffffffffffff1663e6b39eab836040518263ffffffff167c0100000000000000000000000000000000000000000000000000000000028152600401808260001916600019168152602001915050602060405180830381600087803b15801561061a57600080fd5b505af115801561062e573d6000803e3d6000fd5b505050506040513d602081101561064457600080fd5b81019080805190602001909291905050509050919050565b60015481565b60008060009054906101000a900473ffffffffffffffffffffffffffffffffffffffff1673ffffffffffffffffffffffffffffffffffffffff16633f83acff836040518263ffffffff167c0100000000000000000000000000000000000000000000000000000000028152600401808260001916600019168152602001915050602060405180830381600087803b1580156106fc57600080fd5b505af1158015610710573d6000803e3d6000fd5b505050506040513d602081101561072657600080fd5b81019080805190602001909291905050509050919050565b600061074942611f38565b905090565b6000610758612554565b60606000610764612593565b8660001515610771612021565b73ffffffffffffffffffffffffffffffffffffffff1663b89c3952836040518263ffffffff167c0100000000000000000000000000000000000000000000000000000000028152600401808260001916600019168152602001915050602060405180830381600087803b1580156107e757600080fd5b505af11580156107fb573d6000803e3d6000fd5b505050506040513d602081101561081157600080fd5b8101908080519060200190929190505050151514151561083057600080fd5b87600061083b612021565b73ffffffffffffffffffffffffffffffffffffffff16638839a29d836040518263ffffffff167c0100000000000000000000000000000000000000000000000000000000028152600401808260001916600019168152602001915050602060405180830381600087803b1580156108b157600080fd5b505af11580156108c5573d6000803e3d6000fd5b505050506040513d60208110156108db57600080fd5b810190808051906020019092919050505090506000811115156108fd57600080fd5b610908605954611968565b61091b824261203390919063ffffffff16565b1015151561092857600080fd5b61093061166e565b151561093b57600080fd5b610a2c610949606954611968565b610a1e610957605954611968565b61095f612021565b73ffffffffffffffffffffffffffffffffffffffff16638839a29d8f6040518263ffffffff167c0100000000000000000000000000000000000000000000000000000000028152600401808260001916600019168152602001915050602060405180830381600087803b1580156109d557600080fd5b505af11580156109e9573d6000803e3d6000fd5b505050506040513d60208110156109ff57600080fd5b810190808051906020019092919050505061204c90919063ffffffff16565b61204c90919063ffffffff16565b421115610adf57610a3b612021565b73ffffffffffffffffffffffffffffffffffffffff16630d92dfb28b60006040518363ffffffff167c01000000000000000000000000000000000000000000000000000000000281526004018083600019166000191681526020018215151515815260200192505050600060405180830381600087803b158015610abe57600080fd5b505af1158015610ad2573d6000803e3d6000fd5b5050505060009750611661565b610ae7612021565b73ffffffffffffffffffffffffffffffffffffffff16635b712eb68b6040518263ffffffff167c0100000000000000000000000000000000000000000000000000000000028152600401808260001916600019168152602001915050602060405180830381600087803b158015610b5d57600080fd5b505af1158015610b71573d6000803e3d6000fd5b505050506040513d6020811015610b8757600080fd5b810190808051906020019092919050505073ffffffffffffffffffffffffffffffffffffffff163373ffffffffffffffffffffffffffffffffffffffff16141515610bd157600080fd5b610bd9612068565b73ffffffffffffffffffffffffffffffffffffffff166312d0c13b8b6040518263ffffffff167c0100000000000000000000000000000000000000000000000000000000028152600401808260001916600019168152602001915050608060405180830381600087803b158015610c4f57600080fd5b505af1158015610c63573d6000803e3d6000fd5b505050506040513d6080811015610c7957600080fd5b810190808051906020019092919080519060200190929190805190602001909291908051906020019092919050505050896060018a6000018b60200183815250838152508373ffffffffffffffffffffffffffffffffffffffff1673ffffffffffffffffffffffffffffffffffffffff16815250505050600460009054906101000a900473ffffffffffffffffffffffffffffffffffffffff1673ffffffffffffffffffffffffffffffffffffffff16876060015173ffffffffffffffffffffffffffffffffffffffff161415610e6557610d5261207a565b73ffffffffffffffffffffffffffffffffffffffff1663f4f9fadc8a60016040518363ffffffff167c0100000000000000000000000000000000000000000000000000000000028152600401808381526020018215151515815260200192505050600060405180830381600087803b158015610dcd57600080fd5b505af1158015610de1573d6000803e3d6000fd5b505050506040513d6000823e3d601f19601f820116820180604052506020811015610e0b57600080fd5b810190808051640100000000811115610e2357600080fd5b82810190506020810184811115610e3957600080fd5b8151856020820283011164010000000082111715610e5657600080fd5b50509291905050509550610fb4565b610e6d61207a565b73ffffffffffffffffffffffffffffffffffffffff166396fe8e6588606001518b60016040518463ffffffff167c0100000000000000000000000000000000000000000000000000000000028152600401808473ffffffffffffffffffffffffffffffffffffffff1673ffffffffffffffffffffffffffffffffffffffff168152602001838152602001821515151581526020019350505050600060405180830381600087803b158015610f2057600080fd5b505af1158015610f34573d6000803e3d6000fd5b505050506040513d6000823e3d601f19601f820116820180604052506020811015610f5e57600080fd5b810190808051640100000000811115610f7657600080fd5b82810190506020810184811115610f8c57600080fd5b8151856020820283011164010000000082111715610fa957600080fd5b505092919050505095505b856001875103815181101515610fc657fe5b906020019060200201519450610fda612021565b73ffffffffffffffffffffffffffffffffffffffff166373758c228b886040518363ffffffff167c010000000000000000000000000000000000000000000000000000000002815260040180836000191660001916815260200180602001828103825283818151815260200191508051906020019060200280838360005b83811015611073578082015181840152602081019050611058565b5050505090500193505050506040805180830381600087803b15801561109857600080fd5b505af11580156110ac573d6000803e3d6000fd5b505050506040513d60408110156110c257600080fd5b81019080805190602001909291908051906020019092919050505085600001866020018281525082815250505084876060019073ffffffffffffffffffffffffffffffffffffffff16908173ffffffffffffffffffffffffffffffffffffffff16815250506111428460000151886000015161204c90919063ffffffff16565b8760000181815250506111668460200151886020015161204c90919063ffffffff16565b87602001818152505061117761208c565b73ffffffffffffffffffffffffffffffffffffffff166382624a2e6040518163ffffffff167c0100000000000000000000000000000000000000000000000000000000028152600401602060405180830381600087803b1580156111da57600080fd5b505af11580156111ee573d6000803e3d6000fd5b505050506040513d602081101561120457600080fd5b810190808051906020019092919050505073ffffffffffffffffffffffffffffffffffffffff168573ffffffffffffffffffffffffffffffffffffffff1614156115705761125061209e565b73ffffffffffffffffffffffffffffffffffffffff16632850568f6040518163ffffffff167c0100000000000000000000000000000000000000000000000000000000028152600401602060405180830381600087803b1580156112b357600080fd5b505af11580156112c7573d6000803e3d6000fd5b505050506040513d60208110156112dd57600080fd5b81019080805190602001909291905050506113098860200151896000015161204c90919063ffffffff16565b1180156113d3575061131961209e565b73ffffffffffffffffffffffffffffffffffffffff1663a27c834c886000015189602001516040518363ffffffff167c01000000000000000000000000000000000000000000000000000000000281526004018083815260200182815260200192505050602060405180830381600087803b15801561139757600080fd5b505af11580156113ab573d6000803e3d6000fd5b505050506040513d60208110156113c157600080fd5b81019080805190602001909291905050505b156113e657600197506113e58a6120b0565b5b6113ee612021565b73ffffffffffffffffffffffffffffffffffffffff16630d92dfb28b8a6040518363ffffffff167c01000000000000000000000000000000000000000000000000000000000281526004018083600019166000191681526020018215151515815260200192505050600060405180830381600087803b15801561147057600080fd5b505af1158015611484573d6000803e3d6000fd5b50505050611490612021565b73ffffffffffffffffffffffffffffffffffffffff1663d6ae87bf8b60016040518363ffffffff167c01000000000000000000000000000000000000000000000000000000000281526004018083600019166000191681526020018215151515815260200192505050600060405180830381600087803b15801561151357600080fd5b505af1158015611527573d6000803e3d6000fd5b5050505089600019167f46d648587884573d7eb9ac356d8a439b4e07e29d401bea0839e76769915adeee89604051808215151515815260200191505060405180910390a2611660565b611578612068565b73ffffffffffffffffffffffffffffffffffffffff16636e3f777c8b89606001518a600001518b6020015160006040518663ffffffff167c01000000000000000000000000000000000000000000000000000000000281526004018086600019166000191681526020018573ffffffffffffffffffffffffffffffffffffffff1673ffffffffffffffffffffffffffffffffffffffff16815260200184815260200183815260200182815260200195505050505050600060405180830381600087803b15801561164757600080fd5b505af115801561165b573d6000803e3d6000fd5b505050505b5b5050505050505092915050565b6000611678611a2a565b8015611695575061168a603854611968565b61169261073e565b10155b905090565b60006116a7603854611968565b6116af61073e565b10905090565b60006116c042612343565b905090565b60006116cf6116b5565b6116d7612446565b73ffffffffffffffffffffffffffffffffffffffff1663cefc2bff846040518263ffffffff167c0100000000000000000000000000000000000000000000000000000000028152600401808273ffffffffffffffffffffffffffffffffffffffff1673ffffffffffffffffffffffffffffffffffffffff168152602001915050602060405180830381600087803b15801561177157600080fd5b505af1158015611785573d6000803e3d6000fd5b505050506040513d602081101561179b57600080fd5b810190808051906020019092919050505014801561189f57506117bf603554611968565b6117c761208c565b73ffffffffffffffffffffffffffffffffffffffff1663cd094a27846040518263ffffffff167c0100000000000000000000000000000000000000000000000000000000028152600401808273ffffffffffffffffffffffffffffffffffffffff1673ffffffffffffffffffffffffffffffffffffffff168152602001915050602060405180830381600087803b15801561186157600080fd5b505af1158015611875573d6000803e3d6000fd5b505050506040513d602081101561188b57600080fd5b810190808051906020019092919050505010155b9050919050565b60006118b0611f26565b73ffffffffffffffffffffffffffffffffffffffff1663c0a8405d836040518263ffffffff167c0100000000000000000000000000000000000000000000000000000000028152600401808260001916600019168152602001915050602060405180830381600087803b15801561192657600080fd5b505af115801561193a573d6000803e3d6000fd5b505050506040513d602081101561195057600080fd5b81019080805190602001909291905050509050919050565b6000611972611f26565b73ffffffffffffffffffffffffffffffffffffffff1663734c1168836040518263ffffffff167c0100000000000000000000000000000000000000000000000000000000028152600401808260001916600019168152602001915050602060405180830381600087803b1580156119e857600080fd5b505af11580156119fc573d6000803e3d6000fd5b505050506040513d6020811015611a1257600080fd5b81019080805190602001909291905050509050919050565b6000611a34612458565b73ffffffffffffffffffffffffffffffffffffffff16638bc865fd6040518163ffffffff167c0100000000000000000000000000000000000000000000000000000000028152600401602060405180830381600087803b158015611a9757600080fd5b505af1158015611aab573d6000803e3d6000fd5b505050506040513d6020811015611ac157600080fd5b810190808051906020019092919050505015905090565b600260009054906101000a900473ffffffffffffffffffffffffffffffffffffffff1681565b6000611b0861246a565b73ffffffffffffffffffffffffffffffffffffffff1663d8d50179836040518263ffffffff167c010000000000000000000000000000000000000000000000000000000002815260040180826000191660001916815260200191505061014060405180830381600087803b158015611b7f57600080fd5b505af1158015611b93573d6000803e3d6000fd5b505050506040513d610140811015611baa57600080fd5b8101908080519060200190929190805190602001909291908051906020019092919080519060200190929190805190602001909291908051906020019092919080519060200190929190805190602001909291908051906020019092919080519060200190929190505050909192939495969798509091929394959697509091929394959650909192939495509091929394509091929350909192509091505080915050919050565b6000611c5d6116b5565b611c65612446565b73ffffffffffffffffffffffffffffffffffffffff1663cefc2bff846040518263ffffffff167c0100000000000000000000000000000000000000000000000000000000028152600401808273ffffffffffffffffffffffffffffffffffffffff1673ffffffffffffffffffffffffffffffffffffffff168152602001915050602060405180830381600087803b158015611cff57600080fd5b505af1158015611d13573d6000803e3d6000fd5b505050506040513d6020811015611d2957600080fd5b8101908080519060200190929190505050148015611e2d5750611d4d603654611968565b611d5561208c565b73ffffffffffffffffffffffffffffffffffffffff1663cd094a27846040518263ffffffff167c0100000000000000000000000000000000000000000000000000000000028152600401808273ffffffffffffffffffffffffffffffffffffffff1673ffffffffffffffffffffffffffffffffffffffff168152602001915050602060405180830381600087803b158015611def57600080fd5b505af1158015611e03573d6000803e3d6000fd5b505050506040513d6020811015611e1957600080fd5b810190808051906020019092919050505010155b8015611f1f5750611e3f603754611968565b611e4761247c565b73ffffffffffffffffffffffffffffffffffffffff16639c89a0e2846040518263ffffffff167c0100000000000000000000000000000000000000000000000000000000028152600401808273ffffffffffffffffffffffffffffffffffffffff1673ffffffffffffffffffffffffffffffffffffffff168152602001915050602060405180830381600087803b158015611ee157600080fd5b505af1158015611ef5573d6000803e3d6000fd5b505050506040513d6020811015611f0b57600080fd5b810190808051906020019092919050505010155b9050919050565b6000611f33602b54610662565b905090565b6000611f4261248e565b1515611f4d57600080fd5b611f58603954611968565b612010611f63612458565b73ffffffffffffffffffffffffffffffffffffffff1663d9c6bb206040518163ffffffff167c0100000000000000000000000000000000000000000000000000000000028152600401602060405180830381600087803b158015611fc657600080fd5b505af1158015611fda573d6000803e3d6000fd5b505050506040513d6020811015611ff057600080fd5b81019080805190602001909291905050508461203390919063ffffffff16565b81151561201957fe5b069050919050565b600061202e602a54610662565b905090565b600082821115151561204157fe5b818303905092915050565b6000818301905082811015151561205f57fe5b80905092915050565b6000612075602f54610662565b905090565b6000612087602354610662565b905090565b6000612099602c54610662565b905090565b60006120ab602454610662565b905090565b60608060606120bd612021565b73ffffffffffffffffffffffffffffffffffffffff166356ecd657856040518263ffffffff167c0100000000000000000000000000000000000000000000000000000000028152600401808260001916600019168152602001915050600060405180830381600087803b15801561213357600080fd5b505af1158015612147573d6000803e3d6000fd5b505050506040513d6000823e3d601f19601f82011682018060405250606081101561217157600080fd5b81019080805164010000000081111561218957600080fd5b8281019050602081018481111561219f57600080fd5b81518560208202830111640100000000821117156121bc57600080fd5b505092919060200180516401000000008111156121d857600080fd5b828101905060208101848111156121ee57600080fd5b815185602082028301116401000000008211171561220b57600080fd5b5050929190602001805164010000000081111561222757600080fd5b8281019050602081018481111561223d57600080fd5b815185602082028301116401000000008211171561225a57600080fd5b5050929190505050809350819450829550505050612276611f26565b73ffffffffffffffffffffffffffffffffffffffff1663aecbca67846040518263ffffffff167c01000000000000000000000000000000000000000000000000000000000281526004018080602001828103825283818151815260200191508051906020019060200280838360005b838110156123005780820151818401526020810190506122e5565b5050505090500192505050600060405180830381600087803b15801561232557600080fd5b505af1158015612339573d6000803e3d6000fd5b5050505050505050565b600061234d61248e565b151561235857600080fd5b61243f600161243161236b603954611968565b612423612376612458565b73ffffffffffffffffffffffffffffffffffffffff1663d9c6bb206040518163ffffffff167c0100000000000000000000000000000000000000000000000000000000028152600401602060405180830381600087803b1580156123d957600080fd5b505af11580156123ed573d6000803e3d6000fd5b505050506040513d602081101561240357600080fd5b81019080805190602001909291905050508761203390919063ffffffff16565b61253e90919063ffffffff16565b61204c90919063ffffffff16565b9050919050565b6000612453602d54610662565b905090565b6000612465602754610662565b905090565b6000612477602554610662565b905090565b6000612489602954610662565b905090565b600080612499612458565b73ffffffffffffffffffffffffffffffffffffffff1663d9c6bb206040518163ffffffff167c0100000000000000000000000000000000000000000000000000000000028152600401602060405180830381600087803b1580156124fc57600080fd5b505af1158015612510573d6000803e3d6000fd5b505050506040513d602081101561252657600080fd5b81019080805190602001909291905050501415905090565b6000818381151561254b57fe5b04905092915050565b608060405190810160405280600081526020016000815260200160008152602001600073ffffffffffffffffffffffffffffffffffffffff1681525090565b6040805190810160405280600081526020016000815250905600a165627a7a72305820374d4342d1340ba751c96486a51fbd492873d3564d1eb5112a5ab520cad848a90029",
  "source": "pragma solidity ^0.4.25;\n\nimport \"../common/DaoCommon.sol\";\nimport \"../service/DaoCalculatorService.sol\";\nimport \"./DaoFundingManager.sol\";\nimport \"./DaoRewardsManager.sol\";\nimport \"../lib/DaoIntermediateStructs.sol\";\nimport \"../lib/DaoStructs.sol\";\n\n/**\n@title Contract to claim voting results\n@author Digix Holdings\n*/\ncontract DaoSpecialVotingClaims is DaoCommon {\n    using DaoIntermediateStructs for DaoIntermediateStructs.VotingCount;\n    using DaoStructs for DaoStructs.IntermediateResults;\n\n    event SpecialProposalClaim(bytes32 indexed _proposalId, bool _result);\n\n    function daoCalculatorService()\n        internal\n        view\n        returns (DaoCalculatorService _contract)\n    {\n        _contract = DaoCalculatorService(get_contract(CONTRACT_SERVICE_DAO_CALCULATOR));\n    }\n\n    function daoFundingManager()\n        internal\n        view\n        returns (DaoFundingManager _contract)\n    {\n        _contract = DaoFundingManager(get_contract(CONTRACT_DAO_FUNDING_MANAGER));\n    }\n\n    function daoRewardsManager()\n        internal\n        view\n        returns (DaoRewardsManager _contract)\n    {\n        _contract = DaoRewardsManager(get_contract(CONTRACT_DAO_REWARDS_MANAGER));\n    }\n\n    constructor(address _resolver) public {\n        require(init(CONTRACT_DAO_SPECIAL_VOTING_CLAIMS, _resolver));\n    }\n\n\n    /**\n    @notice Function to claim the voting result on special proposal\n    @param _proposalId ID of the special proposal\n    @return {\n      \"_passed\": \"Boolean, true if voting passed, throw if failed, returns false if passed deadline\"\n    }\n    */\n    function claimSpecialProposalVotingResult(bytes32 _proposalId, uint256 _operations)\n        public\n        ifNotClaimedSpecial(_proposalId)\n        ifAfterRevealPhaseSpecial(_proposalId)\n        returns (bool _passed)\n    {\n        require(isMainPhase());\n        if (now > daoSpecialStorage().readVotingTime(_proposalId)\n                    .add(getUintConfig(CONFIG_SPECIAL_PROPOSAL_PHASE_TOTAL))\n                    .add(getUintConfig(CONFIG_VOTE_CLAIMING_DEADLINE))) {\n            daoSpecialStorage().setPass(_proposalId, false);\n            return false;\n        }\n        require(msg.sender == daoSpecialStorage().readProposalProposer(_proposalId));\n\n        DaoStructs.IntermediateResults memory _currentResults;\n        (\n            _currentResults.countedUntil,\n            _currentResults.currentForCount,\n            _currentResults.currentAgainstCount,\n        ) = intermediateResultsStorage().getIntermediateResults(_proposalId);\n\n        address[] memory _voters;\n        if (_currentResults.countedUntil == EMPTY_ADDRESS) {\n            _voters = daoListingService().listParticipants(\n                _operations,\n                true\n            );\n        } else {\n            _voters = daoListingService().listParticipantsFrom(\n                _currentResults.countedUntil,\n                _operations,\n                true\n            );\n        }\n\n        address _lastVoter = _voters[_voters.length - 1];\n\n        DaoIntermediateStructs.VotingCount memory _voteCount;\n        (_voteCount.forCount, _voteCount.againstCount) = daoSpecialStorage().readVotingCount(_proposalId, _voters);\n\n        _currentResults.countedUntil = _lastVoter;\n        _currentResults.currentForCount = _currentResults.currentForCount.add(_voteCount.forCount);\n        _currentResults.currentAgainstCount = _currentResults.currentAgainstCount.add(_voteCount.againstCount);\n\n        if (_lastVoter == daoStakeStorage().readLastParticipant()) {\n            // this is already the last transaction, we have counted all the votes\n\n            if (\n                (_currentResults.currentForCount.add(_currentResults.currentAgainstCount) > daoCalculatorService().minimumVotingQuorumForSpecial()) &&\n                (daoCalculatorService().votingQuotaForSpecialPass(_currentResults.currentForCount, _currentResults.currentAgainstCount))\n            ) {\n                _passed = true;\n                setConfigs(_proposalId);\n            }\n            daoSpecialStorage().setPass(_proposalId, _passed);\n            daoSpecialStorage().setVotingClaim(_proposalId, true);\n            emit SpecialProposalClaim(_proposalId, _passed);\n        } else {\n            intermediateResultsStorage().setIntermediateResults(\n                _proposalId,\n                _currentResults.countedUntil,\n                _currentResults.currentForCount,\n                _currentResults.currentAgainstCount,\n                0\n            );\n        }\n    }\n\n\n    function setConfigs(bytes32 _proposalId)\n        private\n    {\n        uint256[] memory _uintConfigs;\n        address[] memory _addressConfigs;\n        bytes32[] memory _bytesConfigs;\n        (\n            _uintConfigs,\n            _addressConfigs,\n            _bytesConfigs\n        ) = daoSpecialStorage().readConfigs(_proposalId);\n        daoConfigsStorage().updateUintConfigs(_uintConfigs);\n    }\n\n}\n",
  "sourcePath": "/Users/aeufemio/projects/dgx/contracts/dao-contracts/contracts/interactive/DaoSpecialVotingClaims.sol",
  "compiler": {
    "name": "solc",
    "version": "0.4.25+commit.59dbf8f1.Emscripten.clang"
  },
  "schemaVersion": "2.0.2",
  "updatedAt": "2020-03-16T08:53:49.700Z"
}