{
  "contractName": "DaoStorage",
  "abi": [
    {
      "constant": true,
      "inputs": [],
      "name": "resolver",
      "outputs": [
        {
          "name": "",
          "type": "address"
        }
      ],
      "payable": false,
      "stateMutability": "view",
      "type": "function"
    },
    {
      "constant": true,
      "inputs": [],
      "name": "key",
      "outputs": [
        {
          "name": "",
          "type": "bytes32"
        }
      ],
      "payable": false,
      "stateMutability": "view",
      "type": "function"
    },
    {
      "constant": true,
      "inputs": [
        {
          "name": "_key",
          "type": "bytes32"
        }
      ],
      "name": "get_contract",
      "outputs": [
        {
          "name": "_contract",
          "type": "address"
        }
      ],
      "payable": false,
      "stateMutability": "view",
      "type": "function"
    },
    {
      "constant": true,
      "inputs": [],
      "name": "CONTRACT_ADDRESS",
      "outputs": [
        {
          "name": "",
          "type": "address"
        }
      ],
      "payable": false,
      "stateMutability": "view",
      "type": "function"
    },
    {
      "inputs": [
        {
          "name": "_resolver",
          "type": "address"
        }
      ],
      "payable": false,
      "stateMutability": "nonpayable",
      "type": "constructor"
    },
    {
      "constant": true,
      "inputs": [
        {
          "name": "_proposalId",
          "type": "bytes32"
        }
      ],
      "name": "readProposal",
      "outputs": [
        {
          "name": "_doc",
          "type": "bytes32"
        },
        {
          "name": "_proposer",
          "type": "address"
        },
        {
          "name": "_endorser",
          "type": "address"
        },
        {
          "name": "_state",
          "type": "bytes32"
        },
        {
          "name": "_timeCreated",
          "type": "uint256"
        },
        {
          "name": "_nVersions",
          "type": "uint256"
        },
        {
          "name": "_latestVersionDoc",
          "type": "bytes32"
        },
        {
          "name": "_finalVersion",
          "type": "bytes32"
        },
        {
          "name": "_pausedOrStopped",
          "type": "bool"
        },
        {
          "name": "_isDigixProposal",
          "type": "bool"
        }
      ],
      "payable": false,
      "stateMutability": "view",
      "type": "function"
    },
    {
      "constant": true,
      "inputs": [
        {
          "name": "_proposalId",
          "type": "bytes32"
        }
      ],
      "name": "readProposalProposer",
      "outputs": [
        {
          "name": "_proposer",
          "type": "address"
        }
      ],
      "payable": false,
      "stateMutability": "view",
      "type": "function"
    },
    {
      "constant": true,
      "inputs": [
        {
          "name": "_proposalId",
          "type": "bytes32"
        }
      ],
      "name": "readTotalPrlActions",
      "outputs": [
        {
          "name": "_length",
          "type": "uint256"
        }
      ],
      "payable": false,
      "stateMutability": "view",
      "type": "function"
    },
    {
      "constant": true,
      "inputs": [
        {
          "name": "_proposalId",
          "type": "bytes32"
        },
        {
          "name": "_index",
          "type": "uint256"
        }
      ],
      "name": "readPrlAction",
      "outputs": [
        {
          "name": "_actionId",
          "type": "uint256"
        },
        {
          "name": "_time",
          "type": "uint256"
        },
        {
          "name": "_doc",
          "type": "bytes32"
        }
      ],
      "payable": false,
      "stateMutability": "view",
      "type": "function"
    },
    {
      "constant": true,
      "inputs": [
        {
          "name": "_proposalId",
          "type": "bytes32"
        }
      ],
      "name": "readProposalDraftVotingResult",
      "outputs": [
        {
          "name": "_result",
          "type": "bool"
        }
      ],
      "payable": false,
      "stateMutability": "view",
      "type": "function"
    },
    {
      "constant": true,
      "inputs": [
        {
          "name": "_proposalId",
          "type": "bytes32"
        },
        {
          "name": "_index",
          "type": "uint256"
        }
      ],
      "name": "readProposalVotingResult",
      "outputs": [
        {
          "name": "_result",
          "type": "bool"
        }
      ],
      "payable": false,
      "stateMutability": "view",
      "type": "function"
    },
    {
      "constant": true,
      "inputs": [
        {
          "name": "_proposalId",
          "type": "bytes32"
        }
      ],
      "name": "readProposalDraftVotingTime",
      "outputs": [
        {
          "name": "_start",
          "type": "uint256"
        }
      ],
      "payable": false,
      "stateMutability": "view",
      "type": "function"
    },
    {
      "constant": true,
      "inputs": [
        {
          "name": "_proposalId",
          "type": "bytes32"
        },
        {
          "name": "_index",
          "type": "uint256"
        }
      ],
      "name": "readProposalVotingTime",
      "outputs": [
        {
          "name": "_start",
          "type": "uint256"
        }
      ],
      "payable": false,
      "stateMutability": "view",
      "type": "function"
    },
    {
      "constant": true,
      "inputs": [
        {
          "name": "_proposalId",
          "type": "bytes32"
        },
        {
          "name": "_allUsers",
          "type": "address[]"
        }
      ],
      "name": "readDraftVotingCount",
      "outputs": [
        {
          "name": "_for",
          "type": "uint256"
        },
        {
          "name": "_against",
          "type": "uint256"
        }
      ],
      "payable": false,
      "stateMutability": "view",
      "type": "function"
    },
    {
      "constant": true,
      "inputs": [
        {
          "name": "_proposalId",
          "type": "bytes32"
        },
        {
          "name": "_index",
          "type": "uint256"
        },
        {
          "name": "_allUsers",
          "type": "address[]"
        }
      ],
      "name": "readVotingCount",
      "outputs": [
        {
          "name": "_for",
          "type": "uint256"
        },
        {
          "name": "_against",
          "type": "uint256"
        }
      ],
      "payable": false,
      "stateMutability": "view",
      "type": "function"
    },
    {
      "constant": true,
      "inputs": [
        {
          "name": "_proposalId",
          "type": "bytes32"
        },
        {
          "name": "_index",
          "type": "uint256"
        },
        {
          "name": "_allUsers",
          "type": "address[]"
        },
        {
          "name": "_vote",
          "type": "bool"
        }
      ],
      "name": "readVotingRoundVotes",
      "outputs": [
        {
          "name": "_voters",
          "type": "address[]"
        },
        {
          "name": "_length",
          "type": "uint256"
        }
      ],
      "payable": false,
      "stateMutability": "view",
      "type": "function"
    },
    {
      "constant": true,
      "inputs": [
        {
          "name": "_proposalId",
          "type": "bytes32"
        },
        {
          "name": "_voter",
          "type": "address"
        }
      ],
      "name": "readDraftVote",
      "outputs": [
        {
          "name": "_vote",
          "type": "bool"
        },
        {
          "name": "_weight",
          "type": "uint256"
        }
      ],
      "payable": false,
      "stateMutability": "view",
      "type": "function"
    },
    {
      "constant": true,
      "inputs": [
        {
          "name": "_proposalId",
          "type": "bytes32"
        },
        {
          "name": "_index",
          "type": "uint256"
        },
        {
          "name": "_voter",
          "type": "address"
        }
      ],
      "name": "readComittedVote",
      "outputs": [
        {
          "name": "_commitHash",
          "type": "bytes32"
        }
      ],
      "payable": false,
      "stateMutability": "view",
      "type": "function"
    },
    {
      "constant": true,
      "inputs": [
        {
          "name": "_proposalId",
          "type": "bytes32"
        },
        {
          "name": "_index",
          "type": "uint256"
        },
        {
          "name": "_voter",
          "type": "address"
        }
      ],
      "name": "readVote",
      "outputs": [
        {
          "name": "_vote",
          "type": "bool"
        },
        {
          "name": "_weight",
          "type": "uint256"
        }
      ],
      "payable": false,
      "stateMutability": "view",
      "type": "function"
    },
    {
      "constant": true,
      "inputs": [],
      "name": "getFirstProposal",
      "outputs": [
        {
          "name": "_id",
          "type": "bytes32"
        }
      ],
      "payable": false,
      "stateMutability": "view",
      "type": "function"
    },
    {
      "constant": true,
      "inputs": [],
      "name": "getLastProposal",
      "outputs": [
        {
          "name": "_id",
          "type": "bytes32"
        }
      ],
      "payable": false,
      "stateMutability": "view",
      "type": "function"
    },
    {
      "constant": true,
      "inputs": [
        {
          "name": "_proposalId",
          "type": "bytes32"
        }
      ],
      "name": "getNextProposal",
      "outputs": [
        {
          "name": "_id",
          "type": "bytes32"
        }
      ],
      "payable": false,
      "stateMutability": "view",
      "type": "function"
    },
    {
      "constant": true,
      "inputs": [
        {
          "name": "_proposalId",
          "type": "bytes32"
        }
      ],
      "name": "getPreviousProposal",
      "outputs": [
        {
          "name": "_id",
          "type": "bytes32"
        }
      ],
      "payable": false,
      "stateMutability": "view",
      "type": "function"
    },
    {
      "constant": true,
      "inputs": [
        {
          "name": "_stateId",
          "type": "bytes32"
        }
      ],
      "name": "getFirstProposalInState",
      "outputs": [
        {
          "name": "_id",
          "type": "bytes32"
        }
      ],
      "payable": false,
      "stateMutability": "view",
      "type": "function"
    },
    {
      "constant": true,
      "inputs": [
        {
          "name": "_stateId",
          "type": "bytes32"
        }
      ],
      "name": "getLastProposalInState",
      "outputs": [
        {
          "name": "_id",
          "type": "bytes32"
        }
      ],
      "payable": false,
      "stateMutability": "view",
      "type": "function"
    },
    {
      "constant": true,
      "inputs": [
        {
          "name": "_stateId",
          "type": "bytes32"
        },
        {
          "name": "_proposalId",
          "type": "bytes32"
        }
      ],
      "name": "getNextProposalInState",
      "outputs": [
        {
          "name": "_id",
          "type": "bytes32"
        }
      ],
      "payable": false,
      "stateMutability": "view",
      "type": "function"
    },
    {
      "constant": true,
      "inputs": [
        {
          "name": "_stateId",
          "type": "bytes32"
        },
        {
          "name": "_proposalId",
          "type": "bytes32"
        }
      ],
      "name": "getPreviousProposalInState",
      "outputs": [
        {
          "name": "_id",
          "type": "bytes32"
        }
      ],
      "payable": false,
      "stateMutability": "view",
      "type": "function"
    },
    {
      "constant": true,
      "inputs": [
        {
          "name": "_proposalId",
          "type": "bytes32"
        },
        {
          "name": "_version",
          "type": "bytes32"
        }
      ],
      "name": "readProposalVersion",
      "outputs": [
        {
          "name": "_doc",
          "type": "bytes32"
        },
        {
          "name": "_created",
          "type": "uint256"
        },
        {
          "name": "_milestoneFundings",
          "type": "uint256[]"
        },
        {
          "name": "_finalReward",
          "type": "uint256"
        }
      ],
      "payable": false,
      "stateMutability": "view",
      "type": "function"
    },
    {
      "constant": true,
      "inputs": [
        {
          "name": "_proposalId",
          "type": "bytes32"
        }
      ],
      "name": "readProposalFunding",
      "outputs": [
        {
          "name": "_fundings",
          "type": "uint256[]"
        },
        {
          "name": "_finalReward",
          "type": "uint256"
        }
      ],
      "payable": false,
      "stateMutability": "view",
      "type": "function"
    },
    {
      "constant": true,
      "inputs": [
        {
          "name": "_proposalId",
          "type": "bytes32"
        },
        {
          "name": "_index",
          "type": "uint256"
        }
      ],
      "name": "readProposalMilestone",
      "outputs": [
        {
          "name": "_funding",
          "type": "uint256"
        }
      ],
      "payable": false,
      "stateMutability": "view",
      "type": "function"
    },
    {
      "constant": true,
      "inputs": [
        {
          "name": "_proposalId",
          "type": "bytes32"
        }
      ],
      "name": "getFirstProposalVersion",
      "outputs": [
        {
          "name": "_version",
          "type": "bytes32"
        }
      ],
      "payable": false,
      "stateMutability": "view",
      "type": "function"
    },
    {
      "constant": true,
      "inputs": [
        {
          "name": "_proposalId",
          "type": "bytes32"
        }
      ],
      "name": "getLastProposalVersion",
      "outputs": [
        {
          "name": "_version",
          "type": "bytes32"
        }
      ],
      "payable": false,
      "stateMutability": "view",
      "type": "function"
    },
    {
      "constant": true,
      "inputs": [
        {
          "name": "_proposalId",
          "type": "bytes32"
        },
        {
          "name": "_version",
          "type": "bytes32"
        }
      ],
      "name": "getNextProposalVersion",
      "outputs": [
        {
          "name": "_nextVersion",
          "type": "bytes32"
        }
      ],
      "payable": false,
      "stateMutability": "view",
      "type": "function"
    },
    {
      "constant": true,
      "inputs": [
        {
          "name": "_proposalId",
          "type": "bytes32"
        },
        {
          "name": "_version",
          "type": "bytes32"
        }
      ],
      "name": "getPreviousProposalVersion",
      "outputs": [
        {
          "name": "_previousVersion",
          "type": "bytes32"
        }
      ],
      "payable": false,
      "stateMutability": "view",
      "type": "function"
    },
    {
      "constant": true,
      "inputs": [
        {
          "name": "_proposalId",
          "type": "bytes32"
        }
      ],
      "name": "isDraftClaimed",
      "outputs": [
        {
          "name": "_claimed",
          "type": "bool"
        }
      ],
      "payable": false,
      "stateMutability": "view",
      "type": "function"
    },
    {
      "constant": true,
      "inputs": [
        {
          "name": "_proposalId",
          "type": "bytes32"
        },
        {
          "name": "_index",
          "type": "uint256"
        }
      ],
      "name": "isClaimed",
      "outputs": [
        {
          "name": "_claimed",
          "type": "bool"
        }
      ],
      "payable": false,
      "stateMutability": "view",
      "type": "function"
    },
    {
      "constant": true,
      "inputs": [
        {
          "name": "_proposalId",
          "type": "bytes32"
        }
      ],
      "name": "readProposalCollateralStatus",
      "outputs": [
        {
          "name": "_status",
          "type": "uint256"
        }
      ],
      "payable": false,
      "stateMutability": "view",
      "type": "function"
    },
    {
      "constant": true,
      "inputs": [
        {
          "name": "_proposalId",
          "type": "bytes32"
        }
      ],
      "name": "readProposalCollateralAmount",
      "outputs": [
        {
          "name": "_amount",
          "type": "uint256"
        }
      ],
      "payable": false,
      "stateMutability": "view",
      "type": "function"
    },
    {
      "constant": true,
      "inputs": [
        {
          "name": "_proposalId",
          "type": "bytes32"
        }
      ],
      "name": "readProposalDocs",
      "outputs": [
        {
          "name": "_moreDocs",
          "type": "bytes32[]"
        }
      ],
      "payable": false,
      "stateMutability": "view",
      "type": "function"
    },
    {
      "constant": true,
      "inputs": [
        {
          "name": "_proposalId",
          "type": "bytes32"
        },
        {
          "name": "_milestoneId",
          "type": "uint256"
        }
      ],
      "name": "readIfMilestoneFunded",
      "outputs": [
        {
          "name": "_funded",
          "type": "bool"
        }
      ],
      "payable": false,
      "stateMutability": "view",
      "type": "function"
    },
    {
      "constant": false,
      "inputs": [
        {
          "name": "_doc",
          "type": "bytes32"
        },
        {
          "name": "_proposer",
          "type": "address"
        },
        {
          "name": "_milestoneFundings",
          "type": "uint256[]"
        },
        {
          "name": "_finalReward",
          "type": "uint256"
        },
        {
          "name": "_isFounder",
          "type": "bool"
        }
      ],
      "name": "addProposal",
      "outputs": [],
      "payable": false,
      "stateMutability": "nonpayable",
      "type": "function"
    },
    {
      "constant": false,
      "inputs": [
        {
          "name": "_proposalId",
          "type": "bytes32"
        },
        {
          "name": "_newDoc",
          "type": "bytes32"
        },
        {
          "name": "_newMilestoneFundings",
          "type": "uint256[]"
        },
        {
          "name": "_finalReward",
          "type": "uint256"
        }
      ],
      "name": "editProposal",
      "outputs": [],
      "payable": false,
      "stateMutability": "nonpayable",
      "type": "function"
    },
    {
      "constant": false,
      "inputs": [
        {
          "name": "_proposalId",
          "type": "bytes32"
        },
        {
          "name": "_newMilestoneFundings",
          "type": "uint256[]"
        },
        {
          "name": "_finalReward",
          "type": "uint256"
        }
      ],
      "name": "changeFundings",
      "outputs": [],
      "payable": false,
      "stateMutability": "nonpayable",
      "type": "function"
    },
    {
      "constant": false,
      "inputs": [
        {
          "name": "_proposalId",
          "type": "bytes32"
        },
        {
          "name": "_newDoc",
          "type": "bytes32"
        }
      ],
      "name": "addProposalDoc",
      "outputs": [],
      "payable": false,
      "stateMutability": "nonpayable",
      "type": "function"
    },
    {
      "constant": false,
      "inputs": [
        {
          "name": "_proposalId",
          "type": "bytes32"
        }
      ],
      "name": "finalizeProposal",
      "outputs": [],
      "payable": false,
      "stateMutability": "nonpayable",
      "type": "function"
    },
    {
      "constant": false,
      "inputs": [
        {
          "name": "_proposalId",
          "type": "bytes32"
        },
        {
          "name": "_endorser",
          "type": "address"
        }
      ],
      "name": "updateProposalEndorse",
      "outputs": [],
      "payable": false,
      "stateMutability": "nonpayable",
      "type": "function"
    },
    {
      "constant": false,
      "inputs": [
        {
          "name": "_proposalId",
          "type": "bytes32"
        },
        {
          "name": "_result",
          "type": "bool"
        }
      ],
      "name": "setProposalDraftPass",
      "outputs": [],
      "payable": false,
      "stateMutability": "nonpayable",
      "type": "function"
    },
    {
      "constant": false,
      "inputs": [
        {
          "name": "_proposalId",
          "type": "bytes32"
        },
        {
          "name": "_index",
          "type": "uint256"
        },
        {
          "name": "_result",
          "type": "bool"
        }
      ],
      "name": "setProposalPass",
      "outputs": [],
      "payable": false,
      "stateMutability": "nonpayable",
      "type": "function"
    },
    {
      "constant": false,
      "inputs": [
        {
          "name": "_proposalId",
          "type": "bytes32"
        },
        {
          "name": "_time",
          "type": "uint256"
        }
      ],
      "name": "setProposalDraftVotingTime",
      "outputs": [],
      "payable": false,
      "stateMutability": "nonpayable",
      "type": "function"
    },
    {
      "constant": false,
      "inputs": [
        {
          "name": "_proposalId",
          "type": "bytes32"
        },
        {
          "name": "_index",
          "type": "uint256"
        },
        {
          "name": "_time",
          "type": "uint256"
        }
      ],
      "name": "setProposalVotingTime",
      "outputs": [],
      "payable": false,
      "stateMutability": "nonpayable",
      "type": "function"
    },
    {
      "constant": false,
      "inputs": [
        {
          "name": "_proposalId",
          "type": "bytes32"
        },
        {
          "name": "_claimed",
          "type": "bool"
        }
      ],
      "name": "setDraftVotingClaim",
      "outputs": [],
      "payable": false,
      "stateMutability": "nonpayable",
      "type": "function"
    },
    {
      "constant": false,
      "inputs": [
        {
          "name": "_proposalId",
          "type": "bytes32"
        },
        {
          "name": "_index",
          "type": "uint256"
        },
        {
          "name": "_claimed",
          "type": "bool"
        }
      ],
      "name": "setVotingClaim",
      "outputs": [],
      "payable": false,
      "stateMutability": "nonpayable",
      "type": "function"
    },
    {
      "constant": false,
      "inputs": [
        {
          "name": "_proposalId",
          "type": "bytes32"
        },
        {
          "name": "_status",
          "type": "uint256"
        }
      ],
      "name": "setProposalCollateralStatus",
      "outputs": [],
      "payable": false,
      "stateMutability": "nonpayable",
      "type": "function"
    },
    {
      "constant": false,
      "inputs": [
        {
          "name": "_proposalId",
          "type": "bytes32"
        },
        {
          "name": "_amount",
          "type": "uint256"
        }
      ],
      "name": "setProposalCollateralAmount",
      "outputs": [],
      "payable": false,
      "stateMutability": "nonpayable",
      "type": "function"
    },
    {
      "constant": false,
      "inputs": [
        {
          "name": "_proposalId",
          "type": "bytes32"
        },
        {
          "name": "_action",
          "type": "uint256"
        },
        {
          "name": "_doc",
          "type": "bytes32"
        },
        {
          "name": "_time",
          "type": "uint256"
        }
      ],
      "name": "updateProposalPRL",
      "outputs": [],
      "payable": false,
      "stateMutability": "nonpayable",
      "type": "function"
    },
    {
      "constant": false,
      "inputs": [
        {
          "name": "_proposalId",
          "type": "bytes32"
        },
        {
          "name": "_voter",
          "type": "address"
        },
        {
          "name": "_vote",
          "type": "bool"
        },
        {
          "name": "_weight",
          "type": "uint256"
        }
      ],
      "name": "addDraftVote",
      "outputs": [],
      "payable": false,
      "stateMutability": "nonpayable",
      "type": "function"
    },
    {
      "constant": false,
      "inputs": [
        {
          "name": "_proposalId",
          "type": "bytes32"
        },
        {
          "name": "_hash",
          "type": "bytes32"
        },
        {
          "name": "_voter",
          "type": "address"
        },
        {
          "name": "_index",
          "type": "uint256"
        }
      ],
      "name": "commitVote",
      "outputs": [],
      "payable": false,
      "stateMutability": "nonpayable",
      "type": "function"
    },
    {
      "constant": false,
      "inputs": [
        {
          "name": "_proposalId",
          "type": "bytes32"
        },
        {
          "name": "_voter",
          "type": "address"
        },
        {
          "name": "_vote",
          "type": "bool"
        },
        {
          "name": "_weight",
          "type": "uint256"
        },
        {
          "name": "_index",
          "type": "uint256"
        }
      ],
      "name": "revealVote",
      "outputs": [],
      "payable": false,
      "stateMutability": "nonpayable",
      "type": "function"
    },
    {
      "constant": false,
      "inputs": [
        {
          "name": "_proposalId",
          "type": "bytes32"
        }
      ],
      "name": "closeProposal",
      "outputs": [],
      "payable": false,
      "stateMutability": "nonpayable",
      "type": "function"
    },
    {
      "constant": false,
      "inputs": [
        {
          "name": "_proposalId",
          "type": "bytes32"
        }
      ],
      "name": "archiveProposal",
      "outputs": [],
      "payable": false,
      "stateMutability": "nonpayable",
      "type": "function"
    },
    {
      "constant": false,
      "inputs": [
        {
          "name": "_proposalId",
          "type": "bytes32"
        },
        {
          "name": "_milestoneId",
          "type": "uint256"
        }
      ],
      "name": "setMilestoneFunded",
      "outputs": [],
      "payable": false,
      "stateMutability": "nonpayable",
      "type": "function"
    }
  ],
  "bytecode": "0x608060405260006001026003906000191690556000600460006101000a81548173ffffffffffffffffffffffffffffffffffffffff021916908373ffffffffffffffffffffffffffffffffffffffff1602179055507f70726f706f73616c5f73746174655f70726570726f706f73616c0000000000006005906000191690557f70726f706f73616c5f73746174655f64726166740000000000000000000000006006906000191690557f70726f706f73616c5f73746174655f6d6f6465726174656400000000000000006007906000191690557f70726f706f73616c5f73746174655f6f6e676f696e67000000000000000000006008906000191690557f70726f706f73616c5f73746174655f636c6f73656400000000000000000000006009906000191690557f70726f706f73616c5f73746174655f6172636869766564000000000000000000600a906000191690556001600b556002600c556003600d556001600e556002600f5560036010557f696e7465725f6467645f696400000000000000000000000000000000000000006011906000191690557f696e7465725f6d6f645f6467645f6964000000000000000000000000000000006012906000191690557f696e7465725f626f6e75735f63616c63756c6174696f6e5f69640000000000006013906000191690557f64616f00000000000000000000000000000000000000000000000000000000006014906000191690557f64616f3a7370656369616c3a70726f706f73616c0000000000000000000000006015906000191690557f64616f3a7374616b652d6c6f636b696e670000000000000000000000000000006016906000191690557f64616f3a766f74696e67000000000000000000000000000000000000000000006017906000191690557f64616f3a766f74696e673a636c61696d730000000000000000000000000000006018906000191690557f64616f3a73766f74696e673a636c61696d7300000000000000000000000000006019906000191690557f64616f3a6964656e746974790000000000000000000000000000000000000000601a906000191690557f64616f3a726577617264732d6d616e6167657200000000000000000000000000601b906000191690557f64616f3a726577617264732d6578747261730000000000000000000000000000601c906000191690557f64616f3a726f6c65730000000000000000000000000000000000000000000000601d906000191690557f64616f3a66756e64696e672d6d616e6167657200000000000000000000000000601e906000191690557f64616f3a77686974656c697374696e6700000000000000000000000000000000601f906000191690557f64616f3a696e666f726d6174696f6e00000000000000000000000000000000006020906000191690557f736572766963653a726f6c6500000000000000000000000000000000000000006021906000191690557f736572766963653a64616f3a696e666f000000000000000000000000000000006022906000191690557f736572766963653a64616f3a6c697374696e67000000000000000000000000006023906000191690557f736572766963653a64616f3a63616c63756c61746f72000000000000000000006024906000191690557f73746f726167653a64616f0000000000000000000000000000000000000000006025906000191690557f73746f726167653a64616f3a636f756e746572000000000000000000000000006026906000191690557f73746f726167653a64616f3a75706772616465000000000000000000000000006027906000191690557f73746f726167653a64616f3a6964656e746974790000000000000000000000006028906000191690557f73746f726167653a64616f3a706f696e747300000000000000000000000000006029906000191690557f73746f726167653a64616f3a7370656369616c00000000000000000000000000602a906000191690557f73746f726167653a64616f3a636f6e6669670000000000000000000000000000602b906000191690557f73746f726167653a64616f3a7374616b65000000000000000000000000000000602c906000191690557f73746f726167653a64616f3a7265776172647300000000000000000000000000602d906000191690557f73746f726167653a64616f3a77686974656c697374696e670000000000000000602e906000191690557f73746f726167653a696e7465726d6564696174653a726573756c747300000000602f906000191690557f743a6467640000000000000000000000000000000000000000000000000000006030906000191690557f743a6467780000000000000000000000000000000000000000000000000000006031906000191690557f743a6261646765000000000000000000000000000000000000000000000000006032906000191690556001603360006101000a81548160ff021916908360ff1602179055506002603360016101000a81548160ff021916908360ff1602179055506003603360026101000a81548160ff021916908360ff1602179055506004603360036101000a81548160ff021916908360ff1602179055506276a7006034557f6d696e5f6467645f7061727469636970616e74000000000000000000000000006035906000191690557f6d696e5f6467645f6d6f64657261746f720000000000000000000000000000006036906000191690557f6d696e5f72657075746174696f6e5f6d6f64657261746f7200000000000000006037906000191690557f6c6f636b696e675f70686173655f6475726174696f6e000000000000000000006038906000191690557f717561727465725f6475726174696f6e000000000000000000000000000000006039906000191690557f766f74696e675f636f6d6d69745f706861736500000000000000000000000000603a906000191690557f766f74696e675f70686173655f746f74616c0000000000000000000000000000603b906000191690557f696e746572696d5f766f74696e675f636f6d6d69745f70686173650000000000603c906000191690557f696e746572696d5f766f74696e675f70686173655f746f74616c000000000000603d906000191690557f64726166745f71756f72756d5f66697865645f6e756d657261746f7200000000603e906000191690557f64726166745f71756f72756d5f66697865645f64656e6f6d696e61746f720000603f906000191690557f64726166745f71756f72756d5f73666163746f725f6e756d657261746f7200006040906000191690557f64726166745f71756f72756d5f73666163746f725f64656e6f6d696e61746f726041906000191690557f766f74655f71756f72756d5f66697865645f6e756d657261746f7200000000006042906000191690557f766f74655f71756f72756d5f66697865645f64656e6f6d696e61746f720000006043906000191690557f766f74655f71756f72756d5f73666163746f725f6e756d657261746f720000006044906000191690557f766f74655f71756f72756d5f73666163746f725f64656e6f6d696e61746f72006045906000191690557f66696e616c5f7265776172645f73666163746f725f6e756d657261746f7200006046906000191690557f66696e616c5f7265776172645f73666163746f725f64656e6f6d696e61746f726047906000191690557f64726166745f71756f74615f6e756d657261746f7200000000000000000000006048906000191690557f64726166745f71756f74615f64656e6f6d696e61746f720000000000000000006049906000191690557f766f74696e675f71756f74615f6e756d657261746f7200000000000000000000604a906000191690557f766f74696e675f71756f74615f64656e6f6d696e61746f720000000000000000604b906000191690557f6d696e696d616c5f717000000000000000000000000000000000000000000000604c906000191690557f717561727465725f706f696e745f7363616c696e675f666163746f7200000000604d906000191690557f7265705f706f696e745f7363616c696e675f666163746f720000000000000000604e906000191690557f6d696e696d616c5f6d6f645f7170000000000000000000000000000000000000604f906000191690557f6d6f645f71705f7363616c696e675f666163746f7200000000000000000000006050906000191690557f6d6f645f7265705f706f696e745f7363616c696e675f666163746f72000000006051906000191690557f717561727465725f706f696e745f64726166745f766f746500000000000000006052906000191690557f717561727465725f706f696e745f766f746500000000000000000000000000006053906000191690557f717561727465725f706f696e745f696e746572696d5f766f74650000000000006054906000191690557f715f705f6d696c6573746f6e655f636f6d706c6574696f6e00000000000000006055906000191690557f626f6e75735f72657075746174696f6e5f6e756d657261746f720000000000006056906000191690557f626f6e75735f72657075746174696f6e5f64656e6f6d696e61746f72000000006057906000191690557f7370656369616c5f70726f706f73616c5f636f6d6d69745f70686173650000006058906000191690557f7370656369616c5f70726f706f73616c5f70686173655f746f74616c000000006059906000191690557f636f6e6669675f7370656369616c5f71756f74615f6e756d657261746f720000605a906000191690557f636f6e6669675f7370656369616c5f71756f74615f64656e6f6d696e61746f72605b906000191690557f7370656369616c5f71756f72756d5f6e756d657261746f720000000000000000605c906000191690557f7370656369616c5f71756f72756d5f64656e6f6d696e61746f72000000000000605d906000191690557f636f6e6669675f6d61785f72657075746174696f6e5f646564756374696f6e00605e906000191690557f636f6e6669675f70756e6973686d656e745f6e6f745f6c6f636b696e67000000605f906000191690557f636f6e6669675f7265705f7065725f65787472615f71705f6e756d00000000006060906000191690557f636f6e6669675f7265705f7065725f65787472615f71705f64656e00000000006061906000191690557f636f6e6669675f6d61785f6d5f72705f646564756374696f6e000000000000006062906000191690557f636f6e6669675f7265705f7065725f65787472615f6d5f71705f6e756d0000006063906000191690557f636f6e6669675f7265705f7065725f65787472615f6d5f71705f64656e0000006064906000191690557f636f6e6669675f6d6f645f706f7274696f6e5f6e756d000000000000000000006065906000191690557f636f6e6669675f6d6f645f706f7274696f6e5f64656e000000000000000000006066906000191690557f636f6e6669675f64726166745f766f74696e675f7068617365000000000000006067906000191690557f636f6e6669675f72705f626f6f73745f7065725f6261646765000000000000006068906000191690557f636f6e6669675f636c61696d696e675f646561646c696e6500000000000000006069906000191690557f636f6e6669675f70726570726f706f73616c5f636f6c6c61746572616c000000606a906000191690557f636f6e6669675f6d61785f66756e64696e675f6e6f6e44696769780000000000606b906000191690557f636f6e6669675f6d61785f6d696c6573746f6e65735f6e6f6e44696769780000606c906000191690557f636f6e6669675f6e6f6e44696769785f70726f706f73616c5f63617000000000606d906000191690557f636f6e6669675f646561645f6475726174696f6e000000000000000000000000606e906000191690557f636f6e6669675f63765f72657075746174696f6e000000000000000000000000606f906000191690553480156200113457600080fd5b50604051602080620060dd83398101806040528101908080519060200190929190505050620011756025548262001188640100000000026401000000009004565b15156200118157600080fd5b5062001419565b6000808273ffffffffffffffffffffffffffffffffffffffff16636d19a8826040518163ffffffff167c0100000000000000000000000000000000000000000000000000000000028152600401602060405180830381600087803b158015620011f057600080fd5b505af115801562001205573d6000803e3d6000fd5b505050506040513d60208110156200121c57600080fd5b810190808051906020019092919050505090506000151581151514156200140d5730600260006101000a81548173ffffffffffffffffffffffffffffffffffffffff021916908373ffffffffffffffffffffffffffffffffffffffff160217905550826000806101000a81548173ffffffffffffffffffffffffffffffffffffffff021916908373ffffffffffffffffffffffffffffffffffffffff16021790555083600181600019169055506000809054906101000a900473ffffffffffffffffffffffffffffffffffffffff1673ffffffffffffffffffffffffffffffffffffffff1663c0f6ef4a600154600260009054906101000a900473ffffffffffffffffffffffffffffffffffffffff166040518363ffffffff167c01000000000000000000000000000000000000000000000000000000000281526004018083600019166000191681526020018273ffffffffffffffffffffffffffffffffffffffff1673ffffffffffffffffffffffffffffffffffffffff16815260200192505050602060405180830381600087803b158015620013ba57600080fd5b505af1158015620013cf573d6000803e3d6000fd5b505050506040513d6020811015620013e657600080fd5b810190808051906020019092919050505015156200140357600080fd5b6001915062001412565b600091505b5092915050565b614cb480620014296000396000f3006080604052600436106102ca576000357c0100000000000000000000000000000000000000000000000000000000900463ffffffff16806303020ea9146102cf57806304f3bcec14610380578063078f872c146103d75780630bcaa451146104085780630c012e591461045b5780630ec8f125146104a85780631478fff1146104f15780631d2103d11461054c5780631d47c3d3146105c65780631ea5d62f14610613578063237286e91461065a57806327618ad9146106a757806327a9bb0e146106e45780632fd010da1461071f578063344e436e146107865780633943380c146107cb578063395ddde9146107fe5780633a85b822146108475780633be88369146108965780633e020d2f146108db5780633f83acff1461092257806341a715891461099357806347d0da14146109e657806347d621a314610a1757806349a428d014610a725780634c5b318a14610ab757806356674c9f14610afc57806358cec13914610b57578063598f0eaf14610bc05780635b712eb614610c3757806370a6f59114610ca85780637246d5a714610cf55780637aafacae14610d8257806382e445c614610de757806385f5276f14610e245780638a2d659714610e7757806395ecdf9e14610eb2578063a1d444a414610ee3578063a1e55acf14610f62578063a6129f8c14610fd0578063a692e0ef14611041578063ac443d9f1461109c578063baf42660146110ed578063bb3b5f6d1461113c578063c004b7de146111a0578063c3093bb1146111f3578063c362c79014611246578063cfd5917214611281578063d8d50179146112b4578063db4ecbc1146113b8578063de233e421461140f578063e14b2c2614611495578063e3f3f7a214611505578063e415667514611540578063e7853aac1461158d578063e81362fe146115da578063eb82718a14611695578063eef7b8f5146116da578063f0ab3dd914611719578063ffec1b211461174c575b600080fd5b3480156102db57600080fd5b5061030c600480360381019080803560001916906020019092919080356000191690602001909291905050506117ad565b60405180856000191660001916815260200184815260200180602001838152602001828103825284818151815260200191508051906020019060200280838360005b8381101561036957808201518184015260208101905061034e565b505050509050019550505050505060405180910390f35b34801561038c57600080fd5b5061039561191a565b604051808273ffffffffffffffffffffffffffffffffffffffff1673ffffffffffffffffffffffffffffffffffffffff16815260200191505060405180910390f35b3480156103e357600080fd5b50610406600480360381019080803560001916906020019092919050505061193f565b005b34801561041457600080fd5b50610441600480360381019080803560001916906020019092919080359060200190929190505050611961565b604051808215151515815260200191505060405180910390f35b34801561046757600080fd5b5061048a60048036038101908080356000191690602001909291905050506119be565b60405180826000191660001916815260200191505060405180910390f35b3480156104b457600080fd5b506104d760048036038101908080356000191690602001909291905050506119f2565b604051808215151515815260200191505060405180910390f35b3480156104fd57600080fd5b5061052e60048036038101908080356000191690602001909291908035600019169060200190929190505050611a3d565b60405180826000191660001916815260200191505060405180910390f35b34801561055857600080fd5b506105a5600480360381019080803560001916906020019092919080359060200190929190803573ffffffffffffffffffffffffffffffffffffffff169060200190929190505050611a7e565b60405180831515151581526020018281526020019250505060405180910390f35b3480156105d257600080fd5b506105f56004803603810190808035600019169060200190929190505050611bb3565b60405180826000191660001916815260200191505060405180910390f35b34801561061f57600080fd5b50610658600480360381019080803560001916906020019092919080359060200190929190803515159060200190929190505050611bf2565b005b34801561066657600080fd5b506106896004803603810190808035600019169060200190929190505050611e4a565b60405180826000191660001916815260200191505060405180910390f35b3480156106b357600080fd5b506106e26004803603810190808035600019169060200190929190803515159060200190929190505050611e5e565b005b3480156106f057600080fd5b5061071d600480360381019080803560001916906020019092919080359060200190929190505050611eb1565b005b34801561072b57600080fd5b506107846004803603810190808035600019169060200190929190803573ffffffffffffffffffffffffffffffffffffffff16906020019092919080351515906020019092919080359060200190929190505050611f16565b005b34801561079257600080fd5b506107c960048036038101908080356000191690602001909291908035906020019092919080359060200190929190505050612120565b005b3480156107d757600080fd5b506107e06121a9565b60405180826000191660001916815260200191505060405180910390f35b34801561080a57600080fd5b5061082d60048036038101908080356000191690602001909291905050506121af565b604051808215151515815260200191505060405180910390f35b34801561085357600080fd5b506108806004803603810190808035600019169060200190929190803590602001909291905050506121e7565b6040518082815260200191505060405180910390f35b3480156108a257600080fd5b506108c560048036038101908080356000191690602001909291905050506122ce565b6040518082815260200191505060405180910390f35b3480156108e757600080fd5b50610920600480360381019080803560001916906020019092919080359060200190929190803515159060200190929190505050612309565b005b34801561092e57600080fd5b50610951600480360381019080803560001916906020019092919050505061236e565b604051808273ffffffffffffffffffffffffffffffffffffffff1673ffffffffffffffffffffffffffffffffffffffff16815260200191505060405180910390f35b34801561099f57600080fd5b506109cc60048036038101908080356000191690602001909291908035906020019092919050505061244a565b604051808215151515815260200191505060405180910390f35b3480156109f257600080fd5b50610a1560048036038101908080356000191690602001909291905050506124a7565b005b348015610a2357600080fd5b50610a54600480360381019080803560001916906020019092919080356000191690602001909291905050506124ef565b60405180826000191660001916815260200191505060405180910390f35b348015610a7e57600080fd5b50610aa16004803603810190808035600019169060200190929190505050612525565b6040518082815260200191505060405180910390f35b348015610ac357600080fd5b50610ae66004803603810190808035600019169060200190929190505050612563565b6040518082815260200191505060405180910390f35b348015610b0857600080fd5b50610b396004803603810190808035600019169060200190929190803560001916906020019092919050505061258e565b60405180826000191660001916815260200191505060405180910390f35b348015610b6357600080fd5b50610bbe60048036038101908080356000191690602001909291908035600019169060200190929190803573ffffffffffffffffffffffffffffffffffffffff169060200190929190803590602001909291905050506125c4565b005b348015610bcc57600080fd5b50610c19600480360381019080803560001916906020019092919080359060200190929190803573ffffffffffffffffffffffffffffffffffffffff169060200190929190505050612658565b60405180826000191660001916815260200191505060405180910390f35b348015610c4357600080fd5b50610c6660048036038101908080356000191690602001909291905050506126e6565b604051808273ffffffffffffffffffffffffffffffffffffffff1673ffffffffffffffffffffffffffffffffffffffff16815260200191505060405180910390f35b348015610cb457600080fd5b50610cd7600480360381019080803560001916906020019092919050505061272e565b60405180826000191660001916815260200191505060405180910390f35b348015610d0157600080fd5b50610d246004803603810190808035600019169060200190929190505050612742565b6040518080602001838152602001828103825284818151815260200191508051906020019060200280838360005b83811015610d6d578082015181840152602081019050610d52565b50505050905001935050505060405180910390f35b348015610d8e57600080fd5b50610dbb600480360381019080803560001916906020019092919080359060200190929190505050612862565b604051808481526020018381526020018260001916600019168152602001935050505060405180910390f35b348015610df357600080fd5b50610e226004803603810190808035600019169060200190929190803515159060200190929190505050612977565b005b348015610e3057600080fd5b50610e5d600480360381019080803560001916906020019092919080359060200190929190505050612bb2565b604051808215151515815260200191505060405180910390f35b348015610e8357600080fd5b50610eb0600480360381019080803560001916906020019092919080359060200190929190505050612bfc565b005b348015610ebe57600080fd5b50610ee16004803603810190808035600019169060200190929190505050612c39565b005b348015610eef57600080fd5b50610f606004803603810190808035600019169060200190929190803573ffffffffffffffffffffffffffffffffffffffff16906020019092919080359060200190820180359060200191909192939192939080359060200190929190803515159060200190929190505050612e47565b005b348015610f6e57600080fd5b50610fb3600480360381019080803560001916906020019092919080359060200190929190803590602001908201803590602001919091929391929390505050613222565b604051808381526020018281526020019250505060405180910390f35b348015610fdc57600080fd5b5061103f6004803603810190808035600019169060200190929190803573ffffffffffffffffffffffffffffffffffffffff1690602001909291908035151590602001909291908035906020019092919080359060200190929190505050613349565b005b34801561104d57600080fd5b5061107e60048036038101908080356000191690602001909291908035600019169060200190929190505050613461565b60405180826000191660001916815260200191505060405180910390f35b3480156110a857600080fd5b506110eb6004803603810190808035600019169060200190929190803573ffffffffffffffffffffffffffffffffffffffff1690602001909291905050506134a2565b005b3480156110f957600080fd5b506111266004803603810190808035600019169060200190929190803590602001909291905050506136d8565b6040518082815260200191505060405180910390f35b34801561114857600080fd5b506111836004803603810190808035600019169060200190929190803590602001908201803590602001919091929391929390505050613728565b604051808381526020018281526020019250505060405180910390f35b3480156111ac57600080fd5b506111f160048036038101908080356000191690602001909291908035906020019092919080356000191690602001909291908035906020019092919050505061383d565b005b3480156111ff57600080fd5b50611244600480360381019080803560001916906020019092919080359060200190820180359060200191909192939192939080359060200190929190505050613a00565b005b34801561125257600080fd5b5061127f600480360381019080803560001916906020019092919080359060200190929190505050613ae2565b005b34801561128d57600080fd5b50611296613b56565b60405180826000191660001916815260200191505060405180910390f35b3480156112c057600080fd5b506112e36004803603810190808035600019169060200190929190505050613b67565b604051808b600019166000191681526020018a73ffffffffffffffffffffffffffffffffffffffff1673ffffffffffffffffffffffffffffffffffffffff1681526020018973ffffffffffffffffffffffffffffffffffffffff1673ffffffffffffffffffffffffffffffffffffffff16815260200188600019166000191681526020018781526020018681526020018560001916600019168152602001846000191660001916815260200183151515158152602001821515151581526020019a505050505050505050505060405180910390f35b3480156113c457600080fd5b506113cd613c64565b604051808273ffffffffffffffffffffffffffffffffffffffff1673ffffffffffffffffffffffffffffffffffffffff16815260200191505060405180910390f35b34801561141b57600080fd5b5061143e6004803603810190808035600019169060200190929190505050613c8a565b6040518080602001828103825283818151815260200191508051906020019060200280838360005b83811015611481578082015181840152602081019050611466565b505050509050019250505060405180910390f35b3480156114a157600080fd5b506114e46004803603810190808035600019169060200190929190803573ffffffffffffffffffffffffffffffffffffffff169060200190929190505050613d5d565b60405180831515151581526020018281526020019250505060405180910390f35b34801561151157600080fd5b5061153e600480360381019080803560001916906020019092919080359060200190929190505050613e80565b005b34801561154c57600080fd5b5061156f6004803603810190808035600019169060200190929190505050613ec0565b60405180826000191660001916815260200191505060405180910390f35b34801561159957600080fd5b506115bc6004803603810190808035600019169060200190929190505050613ef4565b60405180826000191660001916815260200191505060405180910390f35b3480156115e657600080fd5b50611637600480360381019080803560001916906020019092919080359060200190929190803590602001908201803590602001919091929391929390803515159060200190929190505050613f33565b6040518080602001838152602001828103825284818151815260200191508051906020019060200280838360005b83811015611680578082015181840152602081019050611665565b50505050905001935050505060405180910390f35b3480156116a157600080fd5b506116c460048036038101908080356000191690602001909291905050506140c2565b6040518082815260200191505060405180910390f35b3480156116e657600080fd5b50611717600480360381019080803560001916906020019092919080356000191690602001909291905050506140ea565b005b34801561172557600080fd5b5061172e6141ab565b60405180826000191660001916815260200191505060405180910390f35b34801561175857600080fd5b506117ab60048036038101908080356000191690602001909291908035600019169060200190929190803590602001908201803590602001919091929391929390803590602001909291905050506141bc565b005b600080606060006076600087600019166000191681526020019081526020016000206009016000866000191660001916815260200190815260200160002073__DaoStructs____________________________6310d31f6490916040518263ffffffff167c01000000000000000000000000000000000000000000000000000000000281526004018082815260200191505060006040518083038186803b15801561185757600080fd5b505af415801561186b573d6000803e3d6000fd5b505050506040513d6000823e3d601f19601f82011682018060405250608081101561189557600080fd5b81019080805190602001909291908051906020019092919080516401000000008111156118c157600080fd5b828101905060208101848111156118d757600080fd5b81518560208202830111640100000000821117156118f457600080fd5b505092919060200180519060200190929190505050935093509350935092959194509250565b6000809054906101000a900473ffffffffffffffffffffffffffffffffffffffff1681565b61194a6014546142b5565b151561195557600080fd5b61195e816143bf565b50565b600061196b6145b7565b151561197657600080fd5b607660008460001916600019168152602001908152602001600020601001600083815260200190815260200160002060050160009054906101000a900460ff16905092915050565b60008060766000846000191660001916815260200190815260200160002090506119ea816003016146d1565b915050919050565b60006119fc6145b7565b1515611a0757600080fd5b607660008360001916600019168152602001908152602001600020600a0160050160009054906101000a900460ff169050919050565b6000611a476145b7565b1515611a5257600080fd5b611a7660776000856000191660001916815260200190815260200160002083614782565b905092915050565b600080611a896145b7565b1515611a9457600080fd5b607660008660001916600019168152602001908152602001600020601001600085815260200190815260200160002073__DaoStructs____________________________634bf150b99091856040518363ffffffff167c0100000000000000000000000000000000000000000000000000000000028152600401808381526020018273ffffffffffffffffffffffffffffffffffffffff1673ffffffffffffffffffffffffffffffffffffffff16815260200192505050604080518083038186803b158015611b6257600080fd5b505af4158015611b76573d6000803e3d6000fd5b505050506040513d6040811015611b8c57600080fd5b81019080805190602001909291908051906020019092919050505091509150935093915050565b6000611bbd6145b7565b1515611bc857600080fd5b611beb6077600084600019166000191681526020019081526020016000206146d1565b9050919050565b611bfd6018546142b5565b1515611c0857600080fd5b801515611c1d57611c18836143bf565b611dfb565b6000821415611dfa57607760006007546000191660001916815260200190815260200160002073__DoublyLinkedList______________________6352c6bbf49091856040518363ffffffff167c01000000000000000000000000000000000000000000000000000000000281526004018083815260200182600019166000191681526020019250505060206040518083038186803b158015611cbf57600080fd5b505af4158015611cd3573d6000803e3d6000fd5b505050506040513d6020811015611ce957600080fd5b810190808051906020019092919050505050607760006008546000191660001916815260200190815260200160002073__DoublyLinkedList______________________63582f30b49091856040518363ffffffff167c01000000000000000000000000000000000000000000000000000000000281526004018083815260200182600019166000191681526020019250505060206040518083038186803b158015611d9457600080fd5b505af4158015611da8573d6000803e3d6000fd5b505050506040513d6020811015611dbe57600080fd5b81019080805190602001909291905050505060085460766000856000191660001916815260200190815260200160002060010181600019169055505b5b80607660008560001916600019168152602001908152602001600020601001600084815260200190815260200160002060050160006101000a81548160ff021916908315150217905550505050565b6000611e57607083614844565b9050919050565b611e696018546142b5565b1515611e7457600080fd5b80607660008460001916600019168152602001908152602001600020600a0160050160016101000a81548160ff0219169083151502179055505050565b611ebc601e546142b5565b1515611ec757600080fd5b6001607660008460001916600019168152602001908152602001600020601001600083815260200190815260200160002060050160026101000a81548160ff0219169083151502179055505050565b6000611f236017546142b5565b1515611f2e57600080fd5b60766000866000191660001916815260200190815260200160002090508215612037578181600a0160030160008673ffffffffffffffffffffffffffffffffffffffff1673ffffffffffffffffffffffffffffffffffffffff16815260200190815260200160002081905550600081600a0160040160008673ffffffffffffffffffffffffffffffffffffffff1673ffffffffffffffffffffffffffffffffffffffff16815260200190815260200160002054111561203257600081600a0160040160008673ffffffffffffffffffffffffffffffffffffffff1673ffffffffffffffffffffffffffffffffffffffff168152602001908152602001600020819055505b612119565b8181600a0160040160008673ffffffffffffffffffffffffffffffffffffffff1673ffffffffffffffffffffffffffffffffffffffff16815260200190815260200160002081905550600081600a0160030160008673ffffffffffffffffffffffffffffffffffffffff1673ffffffffffffffffffffffffffffffffffffffff16815260200190815260200160002054111561211857600081600a0160030160008673ffffffffffffffffffffffffffffffffffffffff1673ffffffffffffffffffffffffffffffffffffffff168152602001908152602001600020819055505b5b5050505050565b61216260606040519081016040528060145460001916600019168152602001601854600019166000191681526020016003546000191660001916815250614906565b151561216d57600080fd5b80607660008560001916600019168152602001908152602001600020601001600084815260200190815260200160002060000181905550505050565b60015481565b6000607660008360001916600019168152602001908152602001600020600a0160050160019054906101000a900460ff169050919050565b60006121f16145b7565b15156121fc57600080fd5b60766000846000191660001916815260200190815260200160002073__DaoStructs____________________________631728cc369091846040518363ffffffff167c0100000000000000000000000000000000000000000000000000000000028152600401808381526020018281526020019250505060206040518083038186803b15801561228b57600080fd5b505af415801561229f573d6000803e3d6000fd5b505050506040513d60208110156122b557600080fd5b8101908080519060200190929190505050905092915050565b60006122d86145b7565b15156122e357600080fd5b607660008360001916600019168152602001908152602001600020601101549050919050565b6123146018546142b5565b151561231f57600080fd5b80607660008560001916600019168152602001908152602001600020601001600084815260200190815260200160002060050160016101000a81548160ff021916908315150217905550505050565b60008060009054906101000a900473ffffffffffffffffffffffffffffffffffffffff1673ffffffffffffffffffffffffffffffffffffffff16633f83acff836040518263ffffffff167c0100000000000000000000000000000000000000000000000000000000028152600401808260001916600019168152602001915050602060405180830381600087803b15801561240857600080fd5b505af115801561241c573d6000803e3d6000fd5b505050506040513d602081101561243257600080fd5b81019080805190602001909291905050509050919050565b60006124546145b7565b151561245f57600080fd5b607660008460001916600019168152602001908152602001600020601001600083815260200190815260200160002060050160029054906101000a900460ff16905092915050565b6124b26014546142b5565b15156124bd57600080fd5b6124c6816119be565b607660008360001916600019168152602001908152602001600020601301816000191690555050565b600080607660008560001916600019168152602001908152602001600020905061251c8160030184614844565b91505092915050565b600061252f6145b7565b151561253a57600080fd5b607660008360001916600019168152602001908152602001600020600a01600001549050919050565b6000607660008360001916600019168152602001908152602001600020601401805490509050919050565b60008060766000856000191660001916815260200190815260200160002090506125bb8160030184614782565b91505092915050565b6125cf6017546142b5565b15156125da57600080fd5b82607660008660001916600019168152602001908152602001600020601001600083815260200190815260200160002060020160008473ffffffffffffffffffffffffffffffffffffffff1673ffffffffffffffffffffffffffffffffffffffff168152602001908152602001600020816000191690555050505050565b60006126626145b7565b151561266d57600080fd5b607660008560001916600019168152602001908152602001600020601001600084815260200190815260200160002060020160008373ffffffffffffffffffffffffffffffffffffffff1673ffffffffffffffffffffffffffffffffffffffff1681526020019081526020016000205490509392505050565b600060766000836000191660001916815260200190815260200160002060150160009054906101000a900473ffffffffffffffffffffffffffffffffffffffff169050919050565b600061273b607083614782565b9050919050565b606060008061274f6145b7565b151561275a57600080fd5b6076600085600019166000191681526020019081526020016000206013015490506003546000191681600019161415151561279457600080fd5b6076600085600019166000191681526020019081526020016000206009016000826000191660001916815260200190815260200160002060040180548060200260200160405190810160405280929190818152602001828054801561281857602002820191906000526020600020905b815481526020019060010190808311612804575b505050505092506076600085600019166000191681526020019081526020016000206009016000826000191660001916815260200190815260200160002060030154915050915091565b60008060006060607660008760001916600019168152602001908152602001600020601401805480602002602001604051908101604052809291908181526020016000905b8282101561290057838290600052602060002090600302016060604051908101604052908160008201548152602001600182015460001916600019168152602001600282015481525050815260200190600101906128a7565b50505050905080518510151561291557600080fd5b808581518110151561292357fe5b90602001906020020151604001519350808581518110151561294157fe5b90602001906020020151600001519250808581518110151561295f57fe5b90602001906020020151602001519150509250925092565b6129826018546142b5565b151561298d57600080fd5b80607660008460001916600019168152602001908152602001600020600a0160050160006101000a81548160ff0219169083151502179055508015612ba457607760006006546000191660001916815260200190815260200160002073__DoublyLinkedList______________________6352c6bbf49091846040518363ffffffff167c01000000000000000000000000000000000000000000000000000000000281526004018083815260200182600019166000191681526020019250505060206040518083038186803b158015612a6557600080fd5b505af4158015612a79573d6000803e3d6000fd5b505050506040513d6020811015612a8f57600080fd5b810190808051906020019092919050505050607760006007546000191660001916815260200190815260200160002073__DoublyLinkedList______________________63582f30b49091846040518363ffffffff167c01000000000000000000000000000000000000000000000000000000000281526004018083815260200182600019166000191681526020019250505060206040518083038186803b158015612b3a57600080fd5b505af4158015612b4e573d6000803e3d6000fd5b505050506040513d6020811015612b6457600080fd5b8101908080519060200190929190505050506007546076600084600019166000191681526020019081526020016000206001018160001916905550612bae565b612bad826143bf565b5b5050565b6000607660008460001916600019168152602001908152602001600020601001600083815260200190815260200160002060050160019054906101000a900460ff16905092915050565b612c076014546142b5565b1515612c1257600080fd5b80607660008460001916600019168152602001908152602001600020601201819055505050565b6000612c466018546142b5565b1515612c5157600080fd5b60766000836000191660001916815260200190815260200160002060010154905060776000826000191660001916815260200190815260200160002073__DoublyLinkedList______________________6352c6bbf49091846040518363ffffffff167c01000000000000000000000000000000000000000000000000000000000281526004018083815260200182600019166000191681526020019250505060206040518083038186803b158015612d0957600080fd5b505af4158015612d1d573d6000803e3d6000fd5b505050506040513d6020811015612d3357600080fd5b81019080805190602001909291905050505060776000600a546000191660001916815260200190815260200160002073__DoublyLinkedList______________________63582f30b49091846040518363ffffffff167c01000000000000000000000000000000000000000000000000000000000281526004018083815260200182600019166000191681526020019250505060206040518083038186803b158015612dde57600080fd5b505af4158015612df2573d6000803e3d6000fd5b505050506040513d6020811015612e0857600080fd5b810190808051906020019092919050505050600a5460766000846000191660001916815260200190815260200160002060010181600019169055505050565b612e526014546142b5565b1515612e5d57600080fd5b600354600019166076600088600019166000191681526020019081526020016000206000015460001916148015612e9e575060035460001916866000191614155b1515612ea957600080fd5b607073__DoublyLinkedList______________________63582f30b49091886040518363ffffffff167c01000000000000000000000000000000000000000000000000000000000281526004018083815260200182600019166000191681526020019250505060206040518083038186803b158015612f2757600080fd5b505af4158015612f3b573d6000803e3d6000fd5b505050506040513d6020811015612f5157600080fd5b810190808051906020019092919050505050607760006005546000191660001916815260200190815260200160002073__DoublyLinkedList______________________63582f30b49091886040518363ffffffff167c01000000000000000000000000000000000000000000000000000000000281526004018083815260200182600019166000191681526020019250505060206040518083038186803b158015612ffc57600080fd5b505af4158015613010573d6000803e3d6000fd5b505050506040513d602081101561302657600080fd5b8101908080519060200190929190505050508560766000886000191660001916815260200190815260200160002060000181600019169055508460766000886000191660001916815260200190815260200160002060150160006101000a81548173ffffffffffffffffffffffffffffffffffffffff021916908373ffffffffffffffffffffffffffffffffffffffff160217905550600554607660008860001916600019168152602001908152602001600020600101816000191690555042607660008860001916600019168152602001908152602001600020600201819055508060766000886000191660001916815260200190815260200160002060160160156101000a81548160ff02191690831515021790555060766000876000191660001916815260200190815260200160002073__DaoStructs____________________________63ea496bc99091888787876040518663ffffffff167c01000000000000000000000000000000000000000000000000000000000281526004018086815260200185600019166000191681526020018060200183815260200182810382528585828181526020019250602002808284378201915050965050505050505060006040518083038186803b15801561320257600080fd5b505af4158015613216573d6000803e3d6000fd5b50505050505050505050565b60008061322d6145b7565b151561323857600080fd5b607660008760001916600019168152602001908152602001600020601001600086815260200190815260200160002073__DaoStructs____________________________63b31ee28c909186866040518463ffffffff167c0100000000000000000000000000000000000000000000000000000000028152600401808481526020018060200182810382528484828181526020019250602002808284378201915050945050505050604080518083038186803b1580156132f757600080fd5b505af415801561330b573d6000803e3d6000fd5b505050506040513d604081101561332157600080fd5b8101908080519060200190929190805190602001909291905050509150915094509492505050565b6133546017546142b5565b151561335f57600080fd5b607660008660001916600019168152602001908152602001600020601001600082815260200190815260200160002073__DaoStructs____________________________631a14c51b90918686866040518563ffffffff167c0100000000000000000000000000000000000000000000000000000000028152600401808581526020018473ffffffffffffffffffffffffffffffffffffffff1673ffffffffffffffffffffffffffffffffffffffff1681526020018315151515815260200182815260200194505050505060006040518083038186803b15801561344257600080fd5b505af4158015613456573d6000803e3d6000fd5b505050505050505050565b600061346b6145b7565b151561347657600080fd5b61349a60776000856000191660001916815260200190815260200160002083614844565b905092915050565b60006134af6014546142b5565b15156134ba57600080fd5b6076600084600019166000191681526020019081526020016000209050818160160160006101000a81548173ffffffffffffffffffffffffffffffffffffffff021916908373ffffffffffffffffffffffffffffffffffffffff160217905550600654816001018160001916905550607760006005546000191660001916815260200190815260200160002073__DoublyLinkedList______________________6352c6bbf49091856040518363ffffffff167c01000000000000000000000000000000000000000000000000000000000281526004018083815260200182600019166000191681526020019250505060206040518083038186803b1580156135c257600080fd5b505af41580156135d6573d6000803e3d6000fd5b505050506040513d60208110156135ec57600080fd5b810190808051906020019092919050505050607760006006546000191660001916815260200190815260200160002073__DoublyLinkedList______________________63582f30b49091856040518363ffffffff167c01000000000000000000000000000000000000000000000000000000000281526004018083815260200182600019166000191681526020019250505060206040518083038186803b15801561369757600080fd5b505af41580156136ab573d6000803e3d6000fd5b505050506040513d60208110156136c157600080fd5b810190808051906020019092919050505050505050565b60006136e26145b7565b15156136ed57600080fd5b607660008460001916600019168152602001908152602001600020601001600083815260200190815260200160002060000154905092915050565b6000806137336145b7565b151561373e57600080fd5b607660008660001916600019168152602001908152602001600020600a0173__DaoStructs____________________________63b31ee28c909186866040518463ffffffff167c0100000000000000000000000000000000000000000000000000000000028152600401808481526020018060200182810382528484828181526020019250602002808284378201915050945050505050604080518083038186803b1580156137ec57600080fd5b505af4158015613800573d6000803e3d6000fd5b505050506040513d604081101561381657600080fd5b81019080805190602001909291908051906020019092919050505091509150935093915050565b613845614bf1565b6138506014546142b5565b151561385b57600080fd5b6009546000191660766000876000191660001916815260200190815260200160002060010154600019161415151561389257600080fd5b818160000181815250508281602001906000191690816000191681525050838160400181815250506076600086600019166000191681526020019081526020016000206014018190806001815401808255809150509060018203906000526020600020906003020160009091929091909150600082015181600001556020820151816001019060001916905560408201518160020155505050600c5484141561397157600160766000876000191660001916815260200190815260200160002060160160146101000a81548160ff0219169083151502179055506139f9565b600d548414156139b757600060766000876000191660001916815260200190815260200160002060160160146101000a81548160ff0219169083151502179055506139f8565b600160766000876000191660001916815260200190815260200160002060160160146101000a81548160ff0219169083151502179055506139f7856143bf565b5b5b5050505050565b6000613a0d6014546142b5565b1515613a1857600080fd5b60766000866000191660001916815260200190815260200160002060130154905060035460001916816000191614151515613a5257600080fd5b8383607660008860001916600019168152602001908152602001600020600901600084600019166000191681526020019081526020016000206004019190613a9b929190614c16565b508160766000876000191660001916815260200190815260200160002060090160008360001916600019168152602001908152602001600020600301819055505050505050565b613b2460606040519081016040528060185460001916600019168152602001601e54600019166000191681526020016014546000191660001916815250614906565b1515613b2f57600080fd5b80607660008460001916600019168152602001908152602001600020601101819055505050565b6000613b626070614a7d565b905090565b6000806000806000806000806000806000613b806145b7565b1515613b8b57600080fd5b607660008d60001916600019168152602001908152602001600020905080600001549a508060150160009054906101000a900473ffffffffffffffffffffffffffffffffffffffff1699508060160160009054906101000a900473ffffffffffffffffffffffffffffffffffffffff1698508060010154975080600201549650613c1781600301614b2e565b9550613c25816003016146d1565b9450806013015493508060160160149054906101000a900460ff1692508060160160159054906101000a900460ff169150509193959799509193959799565b600260009054906101000a900473ffffffffffffffffffffffffffffffffffffffff1681565b6060600060766000846000191660001916815260200190815260200160002060130154905060035460001916816000191614151515613cc857600080fd5b60766000846000191660001916815260200190815260200160002060090160008260001916600019168152602001908152602001600020600501805480602002602001604051908101604052809291908181526020018280548015613d5057602002820191906000526020600020905b81546000191681526020019060010190808311613d38575b5050505050915050919050565b600080613d686145b7565b1515613d7357600080fd5b607660008560001916600019168152602001908152602001600020600a0173__DaoStructs____________________________634bf150b99091856040518363ffffffff167c0100000000000000000000000000000000000000000000000000000000028152600401808381526020018273ffffffffffffffffffffffffffffffffffffffff1673ffffffffffffffffffffffffffffffffffffffff16815260200192505050604080518083038186803b158015613e3057600080fd5b505af4158015613e44573d6000803e3d6000fd5b505050506040513d6040811015613e5a57600080fd5b810190808051906020019092919080519060200190929190505050915091509250929050565b613e8b6014546142b5565b1515613e9657600080fd5b80607660008460001916600019168152602001908152602001600020600a01600001819055505050565b6000806076600084600019166000191681526020019081526020016000209050613eec81600301614a7d565b915050919050565b6000613efe6145b7565b1515613f0957600080fd5b613f2c607760008460001916600019168152602001908152602001600020614a7d565b9050919050565b60606000613f3f6145b7565b1515613f4a57600080fd5b607660008860001916600019168152602001908152602001600020601001600087815260200190815260200160002073__DaoStructs____________________________63f53380cf90918787876040518563ffffffff167c0100000000000000000000000000000000000000000000000000000000028152600401808581526020018060200183151515158152602001828103825285858281815260200192506020028082843782019150509550505050505060006040518083038186803b15801561401657600080fd5b505af415801561402a573d6000803e3d6000fd5b505050506040513d6000823e3d601f19601f82011682018060405250604081101561405457600080fd5b81019080805164010000000081111561406c57600080fd5b8281019050602081018481111561408257600080fd5b815185602082028301116401000000008211171561409f57600080fd5b505092919060200180519060200190929190505050915091509550959350505050565b6000607660008360001916600019168152602001908152602001600020601201549050919050565b60006140f76014546142b5565b151561410257600080fd5b6076600084600019166000191681526020019081526020016000206013015490506003546000191681600019161415151561413c57600080fd5b60766000846000191660001916815260200190815260200160002060090160008260001916600019168152602001908152602001600020600501829080600181540180825580915050906001820390600052602060002001600090919290919091509060001916905550505050565b60006141b760706146d1565b905090565b6141c76014546142b5565b15156141d257600080fd5b60766000866000191660001916815260200190815260200160002073__DaoStructs____________________________63ea496bc99091868686866040518663ffffffff167c01000000000000000000000000000000000000000000000000000000000281526004018086815260200185600019166000191681526020018060200183815260200182810382528585828181526020019250602002808284378201915050965050505050505060006040518083038186803b15801561429657600080fd5b505af41580156142aa573d6000803e3d6000fd5b505050505050505050565b60008060009054906101000a900473ffffffffffffffffffffffffffffffffffffffff1673ffffffffffffffffffffffffffffffffffffffff16633f83acff836040518263ffffffff167c0100000000000000000000000000000000000000000000000000000000028152600401808260001916600019168152602001915050602060405180830381600087803b15801561434f57600080fd5b505af1158015614363573d6000803e3d6000fd5b505050506040513d602081101561437957600080fd5b810190808051906020019092919050505073ffffffffffffffffffffffffffffffffffffffff163373ffffffffffffffffffffffffffffffffffffffff16149050919050565b600060766000836000191660001916815260200190815260200160002060010154905060776000826000191660001916815260200190815260200160002073__DoublyLinkedList______________________6352c6bbf49091846040518363ffffffff167c01000000000000000000000000000000000000000000000000000000000281526004018083815260200182600019166000191681526020019250505060206040518083038186803b15801561447957600080fd5b505af415801561448d573d6000803e3d6000fd5b505050506040513d60208110156144a357600080fd5b810190808051906020019092919050505050607760006009546000191660001916815260200190815260200160002073__DoublyLinkedList______________________63582f30b49091846040518363ffffffff167c01000000000000000000000000000000000000000000000000000000000281526004018083815260200182600019166000191681526020019250505060206040518083038186803b15801561454e57600080fd5b505af4158015614562573d6000803e3d6000fd5b505050506040513d602081101561457857600080fd5b81019080805190602001909291905050505060095460766000846000191660001916815260200190815260200160002060010181600019169055505050565b60003273ffffffffffffffffffffffffffffffffffffffff163373ffffffffffffffffffffffffffffffffffffffff1614806146cc57506145f6614bdf565b73ffffffffffffffffffffffffffffffffffffffff16639b19251a336040518263ffffffff167c0100000000000000000000000000000000000000000000000000000000028152600401808273ffffffffffffffffffffffffffffffffffffffff1673ffffffffffffffffffffffffffffffffffffffff168152602001915050602060405180830381600087803b15801561469057600080fd5b505af11580156146a4573d6000803e3d6000fd5b505050506040513d60208110156146ba57600080fd5b81019080805190602001909291905050505b905090565b60008173__DoublyLinkedList______________________632553148290916040518263ffffffff167c01000000000000000000000000000000000000000000000000000000000281526004018082815260200191505060206040518083038186803b15801561474057600080fd5b505af4158015614754573d6000803e3d6000fd5b505050506040513d602081101561476a57600080fd5b81019080805190602001909291905050509050919050565b60008273__DoublyLinkedList______________________632a1441789091846040518363ffffffff167c01000000000000000000000000000000000000000000000000000000000281526004018083815260200182600019166000191681526020019250505060206040518083038186803b15801561480157600080fd5b505af4158015614815573d6000803e3d6000fd5b505050506040513d602081101561482b57600080fd5b8101908080519060200190929190505050905092915050565b60008273__DoublyLinkedList______________________63cf06689d9091846040518363ffffffff167c01000000000000000000000000000000000000000000000000000000000281526004018083815260200182600019166000191681526020019250505060206040518083038186803b1580156148c357600080fd5b505af41580156148d7573d6000803e3d6000fd5b505050506040513d60208110156148ed57600080fd5b8101908080519060200190929190505050905092915050565b600080600060039150600090505b81811015614a7657600060010260001916848260038110151561493357fe5b602002015160001916141561494757614a69565b6000809054906101000a900473ffffffffffffffffffffffffffffffffffffffff1673ffffffffffffffffffffffffffffffffffffffff16633f83acff858360038110151561499257fe5b60200201516040518263ffffffff167c0100000000000000000000000000000000000000000000000000000000028152600401808260001916600019168152602001915050602060405180830381600087803b1580156149f157600080fd5b505af1158015614a05573d6000803e3d6000fd5b505050506040513d6020811015614a1b57600080fd5b810190808051906020019092919050505073ffffffffffffffffffffffffffffffffffffffff163373ffffffffffffffffffffffffffffffffffffffff161415614a685760019250614a76565b5b8080600101915050614914565b5050919050565b60008173__DoublyLinkedList______________________6356717c7990916040518263ffffffff167c01000000000000000000000000000000000000000000000000000000000281526004018082815260200191505060206040518083038186803b158015614aec57600080fd5b505af4158015614b00573d6000803e3d6000fd5b505050506040513d6020811015614b1657600080fd5b81019080805190602001909291905050509050919050565b60008173__DoublyLinkedList______________________630f77955290916040518263ffffffff167c01000000000000000000000000000000000000000000000000000000000281526004018082815260200191505060206040518083038186803b158015614b9d57600080fd5b505af4158015614bb1573d6000803e3d6000fd5b505050506040513d6020811015614bc757600080fd5b81019080805190602001909291905050509050919050565b6000614bec602e5461236e565b905090565b6060604051908101604052806000815260200160008019168152602001600081525090565b828054828255906000526020600020908101928215614c52579160200282015b82811115614c51578235825591602001919060010190614c36565b5b509050614c5f9190614c63565b5090565b614c8591905b80821115614c81576000816000905550600101614c69565b5090565b905600a165627a7a72305820b396f6c8343294e90c986b575bddd071fa370e9cb934a4fdc7ff3de042997b5e0029",
  "source": "pragma solidity ^0.4.25;\n\nimport \"@digix/solidity-collections/contracts/abstract/BytesIteratorStorage.sol\";\nimport \"@digix/solidity-collections/contracts/lib/DoublyLinkedList.sol\";\nimport \"../common/DaoWhitelistingCommon.sol\";\nimport \"../lib/DaoStructs.sol\";\nimport \"./DaoWhitelistingStorage.sol\";\n\ncontract DaoStorage is DaoWhitelistingCommon, BytesIteratorStorage {\n    using DoublyLinkedList for DoublyLinkedList.Bytes;\n    using DaoStructs for DaoStructs.Voting;\n    using DaoStructs for DaoStructs.Proposal;\n    using DaoStructs for DaoStructs.ProposalVersion;\n\n    // List of all the proposals ever created in DigixDAO\n    DoublyLinkedList.Bytes allProposals;\n\n    // mapping of Proposal struct by its ID\n    // ID is also the IPFS doc hash of the first ever version of this proposal\n    mapping (bytes32 => DaoStructs.Proposal) proposalsById;\n\n    // mapping from state of a proposal to list of all proposals in that state\n    // proposals are added/removed from the state's list as their states change\n    // eg. when proposal is endorsed, when proposal is funded, etc\n    mapping (bytes32 => DoublyLinkedList.Bytes) proposalsByState;\n\n    constructor(address _resolver) public {\n        require(init(CONTRACT_STORAGE_DAO, _resolver));\n    }\n\n    /////////////////////////////// READ FUNCTIONS //////////////////////////////\n\n    /// @notice read all information and details of proposal\n    /// @param _proposalId Proposal ID, i.e. hash of IPFS doc Proposal ID, i.e. hash of IPFS doc\n    /// return {\n    ///   \"_doc\": \"Original IPFS doc of proposal, also ID of proposal\",\n    ///   \"_proposer\": \"Address of the proposer\",\n    ///   \"_endorser\": \"Address of the moderator that endorsed the proposal\",\n    ///   \"_state\": \"Current state of the proposal\",\n    ///   \"_timeCreated\": \"UTC timestamp at which proposal was created\",\n    ///   \"_nVersions\": \"Number of versions of the proposal\",\n    ///   \"_latestVersionDoc\": \"IPFS doc hash of the latest version of this proposal\",\n    ///   \"_finalVersion\": \"If finalized, the version of the final proposal\",\n    ///   \"_pausedOrStopped\": \"If the proposal is paused/stopped at the moment\",\n    ///   \"_isDigixProposal\": \"If the proposal has been created by founder or not\"\n    /// }\n    function readProposal(bytes32 _proposalId)\n        public\n        view\n        returns (\n            bytes32 _doc,\n            address _proposer,\n            address _endorser,\n            bytes32 _state,\n            uint256 _timeCreated,\n            uint256 _nVersions,\n            bytes32 _latestVersionDoc,\n            bytes32 _finalVersion,\n            bool _pausedOrStopped,\n            bool _isDigixProposal\n        )\n    {\n        require(senderIsAllowedToRead());\n        DaoStructs.Proposal storage _proposal = proposalsById[_proposalId];\n        _doc = _proposal.proposalId;\n        _proposer = _proposal.proposer;\n        _endorser = _proposal.endorser;\n        _state = _proposal.currentState;\n        _timeCreated = _proposal.timeCreated;\n        _nVersions = read_total_bytesarray(_proposal.proposalVersionDocs);\n        _latestVersionDoc = read_last_from_bytesarray(_proposal.proposalVersionDocs);\n        _finalVersion = _proposal.finalVersion;\n        _pausedOrStopped = _proposal.isPausedOrStopped;\n        _isDigixProposal = _proposal.isDigix;\n    }\n\n    function readProposalProposer(bytes32 _proposalId)\n        public\n        view\n        returns (address _proposer)\n    {\n        _proposer = proposalsById[_proposalId].proposer;\n    }\n\n    function readTotalPrlActions(bytes32 _proposalId)\n        public\n        view\n        returns (uint256 _length)\n    {\n        _length = proposalsById[_proposalId].prlActions.length;\n    }\n\n    function readPrlAction(bytes32 _proposalId, uint256 _index)\n        public\n        view\n        returns (uint256 _actionId, uint256 _time, bytes32 _doc)\n    {\n        DaoStructs.PrlAction[] memory _actions = proposalsById[_proposalId].prlActions;\n        require(_index < _actions.length);\n        _actionId = _actions[_index].actionId;\n        _time = _actions[_index].at;\n        _doc = _actions[_index].doc;\n    }\n\n    function readProposalDraftVotingResult(bytes32 _proposalId)\n        public\n        view\n        returns (bool _result)\n    {\n        require(senderIsAllowedToRead());\n        _result = proposalsById[_proposalId].draftVoting.passed;\n    }\n\n    function readProposalVotingResult(bytes32 _proposalId, uint256 _index)\n        public\n        view\n        returns (bool _result)\n    {\n        require(senderIsAllowedToRead());\n        _result = proposalsById[_proposalId].votingRounds[_index].passed;\n    }\n\n    function readProposalDraftVotingTime(bytes32 _proposalId)\n        public\n        view\n        returns (uint256 _start)\n    {\n        require(senderIsAllowedToRead());\n        _start = proposalsById[_proposalId].draftVoting.startTime;\n    }\n\n    function readProposalVotingTime(bytes32 _proposalId, uint256 _index)\n        public\n        view\n        returns (uint256 _start)\n    {\n        require(senderIsAllowedToRead());\n        _start = proposalsById[_proposalId].votingRounds[_index].startTime;\n    }\n\n    function readDraftVotingCount(bytes32 _proposalId, address[] _allUsers)\n        external\n        view\n        returns (uint256 _for, uint256 _against)\n    {\n        require(senderIsAllowedToRead());\n        return proposalsById[_proposalId].draftVoting.countVotes(_allUsers);\n    }\n\n    function readVotingCount(bytes32 _proposalId, uint256 _index, address[] _allUsers)\n        external\n        view\n        returns (uint256 _for, uint256 _against)\n    {\n        require(senderIsAllowedToRead());\n        return proposalsById[_proposalId].votingRounds[_index].countVotes(_allUsers);\n    }\n\n    function readVotingRoundVotes(bytes32 _proposalId, uint256 _index, address[] _allUsers, bool _vote)\n        external\n        view\n        returns (address[] memory _voters, uint256 _length)\n    {\n        require(senderIsAllowedToRead());\n        return proposalsById[_proposalId].votingRounds[_index].listVotes(_allUsers, _vote);\n    }\n\n    function readDraftVote(bytes32 _proposalId, address _voter)\n        public\n        view\n        returns (bool _vote, uint256 _weight)\n    {\n        require(senderIsAllowedToRead());\n        return proposalsById[_proposalId].draftVoting.readVote(_voter);\n    }\n\n    /// @notice returns the latest committed vote by a voter on a proposal\n    /// @param _proposalId proposal ID\n    /// @param _voter address of the voter\n    /// @return {\n    ///   \"_commitHash\": \"\"\n    /// }\n    function readComittedVote(bytes32 _proposalId, uint256 _index, address _voter)\n        public\n        view\n        returns (bytes32 _commitHash)\n    {\n        require(senderIsAllowedToRead());\n        _commitHash = proposalsById[_proposalId].votingRounds[_index].commits[_voter];\n    }\n\n    function readVote(bytes32 _proposalId, uint256 _index, address _voter)\n        public\n        view\n        returns (bool _vote, uint256 _weight)\n    {\n        require(senderIsAllowedToRead());\n        return proposalsById[_proposalId].votingRounds[_index].readVote(_voter);\n    }\n\n    /// @notice get all information and details of the first proposal\n    /// return {\n    ///   \"_id\": \"\"\n    /// }\n    function getFirstProposal()\n        public\n        view\n        returns (bytes32 _id)\n    {\n        _id = read_first_from_bytesarray(allProposals);\n    }\n\n    /// @notice get all information and details of the last proposal\n    /// return {\n    ///   \"_id\": \"\"\n    /// }\n    function getLastProposal()\n        public\n        view\n        returns (bytes32 _id)\n    {\n        _id = read_last_from_bytesarray(allProposals);\n    }\n\n    /// @notice get all information and details of proposal next to _proposalId\n    /// @param _proposalId Proposal ID, i.e. hash of IPFS doc\n    /// return {\n    ///   \"_id\": \"\"\n    /// }\n    function getNextProposal(bytes32 _proposalId)\n        public\n        view\n        returns (bytes32 _id)\n    {\n        _id = read_next_from_bytesarray(\n            allProposals,\n            _proposalId\n        );\n    }\n\n    /// @notice get all information and details of proposal previous to _proposalId\n    /// @param _proposalId Proposal ID, i.e. hash of IPFS doc\n    /// return {\n    ///   \"_id\": \"\"\n    /// }\n    function getPreviousProposal(bytes32 _proposalId)\n        public\n        view\n        returns (bytes32 _id)\n    {\n        _id = read_previous_from_bytesarray(\n            allProposals,\n            _proposalId\n        );\n    }\n\n    /// @notice get all information and details of the first proposal in state _stateId\n    /// @param _stateId State ID of the proposal\n    /// return {\n    ///   \"_id\": \"\"\n    /// }\n    function getFirstProposalInState(bytes32 _stateId)\n        public\n        view\n        returns (bytes32 _id)\n    {\n        require(senderIsAllowedToRead());\n        _id = read_first_from_bytesarray(proposalsByState[_stateId]);\n    }\n\n    /// @notice get all information and details of the last proposal in state _stateId\n    /// @param _stateId State ID of the proposal\n    /// return {\n    ///   \"_id\": \"\"\n    /// }\n    function getLastProposalInState(bytes32 _stateId)\n        public\n        view\n        returns (bytes32 _id)\n    {\n        require(senderIsAllowedToRead());\n        _id = read_last_from_bytesarray(proposalsByState[_stateId]);\n    }\n\n    /// @notice get all information and details of the next proposal to _proposalId in state _stateId\n    /// @param _stateId State ID of the proposal\n    /// return {\n    ///   \"_id\": \"\"\n    /// }\n    function getNextProposalInState(bytes32 _stateId, bytes32 _proposalId)\n        public\n        view\n        returns (bytes32 _id)\n    {\n        require(senderIsAllowedToRead());\n        _id = read_next_from_bytesarray(\n            proposalsByState[_stateId],\n            _proposalId\n        );\n    }\n\n    /// @notice get all information and details of the previous proposal to _proposalId in state _stateId\n    /// @param _stateId State ID of the proposal\n    /// return {\n    ///   \"_id\": \"\"\n    /// }\n    function getPreviousProposalInState(bytes32 _stateId, bytes32 _proposalId)\n        public\n        view\n        returns (bytes32 _id)\n    {\n        require(senderIsAllowedToRead());\n        _id = read_previous_from_bytesarray(\n            proposalsByState[_stateId],\n            _proposalId\n        );\n    }\n\n    /// @notice read proposal version details for a specific version\n    /// @param _proposalId Proposal ID, i.e. hash of IPFS doc\n    /// @param _version Version of proposal, i.e. hash of IPFS doc for specific version\n    /// return {\n    ///   \"_doc\": \"\",\n    ///   \"_created\": \"\",\n    ///   \"_milestoneFundings\": \"\"\n    /// }\n    function readProposalVersion(bytes32 _proposalId, bytes32 _version)\n        public\n        view\n        returns (\n            bytes32 _doc,\n            uint256 _created,\n            uint256[] _milestoneFundings,\n            uint256 _finalReward\n        )\n    {\n        return proposalsById[_proposalId].proposalVersions[_version].readVersion();\n    }\n\n    /**\n    @notice Read the fundings of a finalized proposal\n    @return {\n        \"_fundings\": \"fundings for the milestones\",\n        \"_finalReward\": \"the final reward\"\n    }\n    */\n    function readProposalFunding(bytes32 _proposalId)\n        public\n        view\n        returns (uint256[] memory _fundings, uint256 _finalReward)\n    {\n        require(senderIsAllowedToRead());\n        bytes32 _finalVersion = proposalsById[_proposalId].finalVersion;\n        require(_finalVersion != EMPTY_BYTES);\n        _fundings = proposalsById[_proposalId].proposalVersions[_finalVersion].milestoneFundings;\n        _finalReward = proposalsById[_proposalId].proposalVersions[_finalVersion].finalReward;\n    }\n\n    function readProposalMilestone(bytes32 _proposalId, uint256 _index)\n        public\n        view\n        returns (uint256 _funding)\n    {\n        require(senderIsAllowedToRead());\n        _funding = proposalsById[_proposalId].readProposalMilestone(_index);\n    }\n\n    /// @notice get proposal version details for the first version\n    /// @param _proposalId Proposal ID, i.e. hash of IPFS doc\n    /// return {\n    ///   \"_version\": \"\"\n    /// }\n    function getFirstProposalVersion(bytes32 _proposalId)\n        public\n        view\n        returns (bytes32 _version)\n    {\n        DaoStructs.Proposal storage _proposal = proposalsById[_proposalId];\n        _version = read_first_from_bytesarray(_proposal.proposalVersionDocs);\n    }\n\n    /// @notice get proposal version details for the last version\n    /// @param _proposalId Proposal ID, i.e. hash of IPFS doc\n    /// return {\n    ///   \"_version\": \"\"\n    /// }\n    function getLastProposalVersion(bytes32 _proposalId)\n        public\n        view\n        returns (bytes32 _version)\n    {\n        DaoStructs.Proposal storage _proposal = proposalsById[_proposalId];\n        _version = read_last_from_bytesarray(_proposal.proposalVersionDocs);\n    }\n\n    /// @notice get proposal version details for the next version to _version\n    /// @param _proposalId Proposal ID, i.e. hash of IPFS doc\n    /// @param _version Version of proposal\n    /// return {\n    ///   \"_nextVersion\": \"\"\n    /// }\n    function getNextProposalVersion(bytes32 _proposalId, bytes32 _version)\n        public\n        view\n        returns (bytes32 _nextVersion)\n    {\n        DaoStructs.Proposal storage _proposal = proposalsById[_proposalId];\n        _nextVersion = read_next_from_bytesarray(\n            _proposal.proposalVersionDocs,\n            _version\n        );\n    }\n\n    /// @notice get proposal version details for the previous version to _version\n    /// @param _proposalId Proposal ID, i.e. hash of IPFS doc\n    /// @param _version Version of proposal\n    /// return {\n    ///   \"_previousVersion\": \"\"\n    /// }\n    function getPreviousProposalVersion(bytes32 _proposalId, bytes32 _version)\n        public\n        view\n        returns (bytes32 _previousVersion)\n    {\n        DaoStructs.Proposal storage _proposal = proposalsById[_proposalId];\n        _previousVersion = read_previous_from_bytesarray(\n            _proposal.proposalVersionDocs,\n            _version\n        );\n    }\n\n    function isDraftClaimed(bytes32 _proposalId)\n        public\n        view\n        returns (bool _claimed)\n    {\n        _claimed = proposalsById[_proposalId].draftVoting.claimed;\n    }\n\n    function isClaimed(bytes32 _proposalId, uint256 _index)\n        public\n        view\n        returns (bool _claimed)\n    {\n        _claimed = proposalsById[_proposalId].votingRounds[_index].claimed;\n    }\n\n    function readProposalCollateralStatus(bytes32 _proposalId)\n        public\n        view\n        returns (uint256 _status)\n    {\n        require(senderIsAllowedToRead());\n        _status = proposalsById[_proposalId].collateralStatus;\n    }\n\n    function readProposalCollateralAmount(bytes32 _proposalId)\n        public\n        view\n        returns (uint256 _amount)\n    {\n        _amount = proposalsById[_proposalId].collateralAmount;\n    }\n\n    /// @notice Read the additional docs that are added after the proposal is finalized\n    /// @dev Will throw if the propsal is not finalized yet\n    function readProposalDocs(bytes32 _proposalId)\n        public\n        view\n        returns (bytes32[] _moreDocs)\n    {\n        bytes32 _finalVersion = proposalsById[_proposalId].finalVersion;\n        require(_finalVersion != EMPTY_BYTES);\n        _moreDocs = proposalsById[_proposalId].proposalVersions[_finalVersion].moreDocs;\n    }\n\n    function readIfMilestoneFunded(bytes32 _proposalId, uint256 _milestoneId)\n        public\n        view\n        returns (bool _funded)\n    {\n        require(senderIsAllowedToRead());\n        _funded = proposalsById[_proposalId].votingRounds[_milestoneId].funded;\n    }\n\n    ////////////////////////////// WRITE FUNCTIONS //////////////////////////////\n\n    function addProposal(\n        bytes32 _doc,\n        address _proposer,\n        uint256[] _milestoneFundings,\n        uint256 _finalReward,\n        bool _isFounder\n    )\n        external\n    {\n        require(sender_is(CONTRACT_DAO));\n        require(\n          (proposalsById[_doc].proposalId == EMPTY_BYTES) &&\n          (_doc != EMPTY_BYTES)\n        );\n\n        allProposals.append(_doc);\n        proposalsByState[PROPOSAL_STATE_PREPROPOSAL].append(_doc);\n        proposalsById[_doc].proposalId = _doc;\n        proposalsById[_doc].proposer = _proposer;\n        proposalsById[_doc].currentState = PROPOSAL_STATE_PREPROPOSAL;\n        proposalsById[_doc].timeCreated = now;\n        proposalsById[_doc].isDigix = _isFounder;\n        proposalsById[_doc].addProposalVersion(_doc, _milestoneFundings, _finalReward);\n    }\n\n    function editProposal(\n        bytes32 _proposalId,\n        bytes32 _newDoc,\n        uint256[] _newMilestoneFundings,\n        uint256 _finalReward\n    )\n        external\n    {\n        require(sender_is(CONTRACT_DAO));\n\n        proposalsById[_proposalId].addProposalVersion(_newDoc, _newMilestoneFundings, _finalReward);\n    }\n\n    /// @notice change fundings of a proposal\n    /// @dev Will throw if the proposal is not finalized yet\n    function changeFundings(bytes32 _proposalId, uint256[] _newMilestoneFundings, uint256 _finalReward)\n        external\n    {\n        require(sender_is(CONTRACT_DAO));\n\n        bytes32 _finalVersion = proposalsById[_proposalId].finalVersion;\n        require(_finalVersion != EMPTY_BYTES);\n        proposalsById[_proposalId].proposalVersions[_finalVersion].milestoneFundings = _newMilestoneFundings;\n        proposalsById[_proposalId].proposalVersions[_finalVersion].finalReward = _finalReward;\n    }\n\n    /// @dev Will throw if the proposal is not finalized yet\n    function addProposalDoc(bytes32 _proposalId, bytes32 _newDoc)\n        public\n    {\n        require(sender_is(CONTRACT_DAO));\n\n        bytes32 _finalVersion = proposalsById[_proposalId].finalVersion;\n        require(_finalVersion != EMPTY_BYTES); //already checked in interactive layer, but why not\n        proposalsById[_proposalId].proposalVersions[_finalVersion].moreDocs.push(_newDoc);\n    }\n\n    function finalizeProposal(bytes32 _proposalId)\n        public\n    {\n        require(sender_is(CONTRACT_DAO));\n\n        proposalsById[_proposalId].finalVersion = getLastProposalVersion(_proposalId);\n    }\n\n    function updateProposalEndorse(\n        bytes32 _proposalId,\n        address _endorser\n    )\n        public\n    {\n        require(sender_is(CONTRACT_DAO));\n\n        DaoStructs.Proposal storage _proposal = proposalsById[_proposalId];\n        _proposal.endorser = _endorser;\n        _proposal.currentState = PROPOSAL_STATE_DRAFT;\n        proposalsByState[PROPOSAL_STATE_PREPROPOSAL].remove_item(_proposalId);\n        proposalsByState[PROPOSAL_STATE_DRAFT].append(_proposalId);\n    }\n\n    function setProposalDraftPass(bytes32 _proposalId, bool _result)\n        public\n    {\n        require(sender_is(CONTRACT_DAO_VOTING_CLAIMS));\n\n        proposalsById[_proposalId].draftVoting.passed = _result;\n        if (_result) {\n            proposalsByState[PROPOSAL_STATE_DRAFT].remove_item(_proposalId);\n            proposalsByState[PROPOSAL_STATE_MODERATED].append(_proposalId);\n            proposalsById[_proposalId].currentState = PROPOSAL_STATE_MODERATED;\n        } else {\n            closeProposalInternal(_proposalId);\n        }\n    }\n\n    function setProposalPass(bytes32 _proposalId, uint256 _index, bool _result)\n        public\n    {\n        require(sender_is(CONTRACT_DAO_VOTING_CLAIMS));\n\n        if (!_result) {\n            closeProposalInternal(_proposalId);\n        } else if (_index == 0) {\n            proposalsByState[PROPOSAL_STATE_MODERATED].remove_item(_proposalId);\n            proposalsByState[PROPOSAL_STATE_ONGOING].append(_proposalId);\n            proposalsById[_proposalId].currentState = PROPOSAL_STATE_ONGOING;\n        }\n        proposalsById[_proposalId].votingRounds[_index].passed = _result;\n    }\n\n    function setProposalDraftVotingTime(\n        bytes32 _proposalId,\n        uint256 _time\n    )\n        public\n    {\n        require(sender_is(CONTRACT_DAO));\n\n        proposalsById[_proposalId].draftVoting.startTime = _time;\n    }\n\n    function setProposalVotingTime(\n        bytes32 _proposalId,\n        uint256 _index,\n        uint256 _time\n    )\n        public\n    {\n        require(sender_is_from([CONTRACT_DAO, CONTRACT_DAO_VOTING_CLAIMS, EMPTY_BYTES]));\n\n        proposalsById[_proposalId].votingRounds[_index].startTime = _time;\n    }\n\n    function setDraftVotingClaim(bytes32 _proposalId, bool _claimed)\n        public\n    {\n        require(sender_is(CONTRACT_DAO_VOTING_CLAIMS));\n        proposalsById[_proposalId].draftVoting.claimed = _claimed;\n    }\n\n    function setVotingClaim(bytes32 _proposalId, uint256 _index, bool _claimed)\n        public\n    {\n        require(sender_is(CONTRACT_DAO_VOTING_CLAIMS));\n        proposalsById[_proposalId].votingRounds[_index].claimed = _claimed;\n    }\n\n    function setProposalCollateralStatus(bytes32 _proposalId, uint256 _status)\n        public\n    {\n        require(sender_is_from([CONTRACT_DAO_VOTING_CLAIMS, CONTRACT_DAO_FUNDING_MANAGER, CONTRACT_DAO]));\n        proposalsById[_proposalId].collateralStatus = _status;\n    }\n\n    function setProposalCollateralAmount(bytes32 _proposalId, uint256 _amount)\n        public\n    {\n        require(sender_is(CONTRACT_DAO));\n        proposalsById[_proposalId].collateralAmount = _amount;\n    }\n\n    function updateProposalPRL(\n        bytes32 _proposalId,\n        uint256 _action,\n        bytes32 _doc,\n        uint256 _time\n    )\n        public\n    {\n        require(sender_is(CONTRACT_DAO));\n        require(proposalsById[_proposalId].currentState != PROPOSAL_STATE_CLOSED);\n\n        DaoStructs.PrlAction memory prlAction;\n        prlAction.at = _time;\n        prlAction.doc = _doc;\n        prlAction.actionId = _action;\n        proposalsById[_proposalId].prlActions.push(prlAction);\n\n        if (_action == PRL_ACTION_PAUSE) {\n          proposalsById[_proposalId].isPausedOrStopped = true;\n        } else if (_action == PRL_ACTION_UNPAUSE) {\n          proposalsById[_proposalId].isPausedOrStopped = false;\n        } else { // STOP\n          proposalsById[_proposalId].isPausedOrStopped = true;\n          closeProposalInternal(_proposalId);\n        }\n    }\n\n    function closeProposalInternal(bytes32 _proposalId)\n        internal\n    {\n        bytes32 _currentState = proposalsById[_proposalId].currentState;\n        proposalsByState[_currentState].remove_item(_proposalId);\n        proposalsByState[PROPOSAL_STATE_CLOSED].append(_proposalId);\n        proposalsById[_proposalId].currentState = PROPOSAL_STATE_CLOSED;\n    }\n\n    function addDraftVote(\n        bytes32 _proposalId,\n        address _voter,\n        bool _vote,\n        uint256 _weight\n    )\n        public\n    {\n        require(sender_is(CONTRACT_DAO_VOTING));\n\n        DaoStructs.Proposal storage _proposal = proposalsById[_proposalId];\n        if (_vote) {\n            _proposal.draftVoting.yesVotes[_voter] = _weight;\n            if (_proposal.draftVoting.noVotes[_voter] > 0) { // minimize number of writes to storage, since EIP-1087 is not implemented yet\n                _proposal.draftVoting.noVotes[_voter] = 0;\n            }\n        } else {\n            _proposal.draftVoting.noVotes[_voter] = _weight;\n            if (_proposal.draftVoting.yesVotes[_voter] > 0) {\n                _proposal.draftVoting.yesVotes[_voter] = 0;\n            }\n        }\n    }\n\n    function commitVote(\n        bytes32 _proposalId,\n        bytes32 _hash,\n        address _voter,\n        uint256 _index\n    )\n        public\n    {\n        require(sender_is(CONTRACT_DAO_VOTING));\n\n        proposalsById[_proposalId].votingRounds[_index].commits[_voter] = _hash;\n    }\n\n    function revealVote(\n        bytes32 _proposalId,\n        address _voter,\n        bool _vote,\n        uint256 _weight,\n        uint256 _index\n    )\n        public\n    {\n        require(sender_is(CONTRACT_DAO_VOTING));\n\n        proposalsById[_proposalId].votingRounds[_index].revealVote(_voter, _vote, _weight);\n    }\n\n    function closeProposal(bytes32 _proposalId)\n        public\n    {\n        require(sender_is(CONTRACT_DAO));\n        closeProposalInternal(_proposalId);\n    }\n\n    function archiveProposal(bytes32 _proposalId)\n        public\n    {\n        require(sender_is(CONTRACT_DAO_VOTING_CLAIMS));\n        bytes32 _currentState = proposalsById[_proposalId].currentState;\n        proposalsByState[_currentState].remove_item(_proposalId);\n        proposalsByState[PROPOSAL_STATE_ARCHIVED].append(_proposalId);\n        proposalsById[_proposalId].currentState = PROPOSAL_STATE_ARCHIVED;\n    }\n\n    function setMilestoneFunded(bytes32 _proposalId, uint256 _milestoneId)\n        public\n    {\n        require(sender_is(CONTRACT_DAO_FUNDING_MANAGER));\n        proposalsById[_proposalId].votingRounds[_milestoneId].funded = true;\n    }\n}\n",
  "sourcePath": "/Users/aeufemio/projects/dgx/contracts/dao-contracts/contracts/storage/DaoStorage.sol",
  "compiler": {
    "name": "solc",
    "version": "0.4.25+commit.59dbf8f1.Emscripten.clang"
  },
  "schemaVersion": "2.0.2",
  "updatedAt": "2020-03-12T02:29:33.087Z"
}