{
  "contractName": "DaoSpecialVotingClaims",
  "abi": [
    {
      "constant": true,
      "inputs": [],
      "name": "resolver",
      "outputs": [
        {
          "name": "",
          "type": "address"
        }
      ],
      "payable": false,
      "stateMutability": "view",
      "type": "function"
    },
    {
      "constant": true,
      "inputs": [
        {
          "name": "_configKey",
          "type": "bytes32"
        }
      ],
      "name": "getAddressConfig",
      "outputs": [
        {
          "name": "_configValue",
          "type": "address"
        }
      ],
      "payable": false,
      "stateMutability": "view",
      "type": "function"
    },
    {
      "constant": true,
      "inputs": [],
      "name": "key",
      "outputs": [
        {
          "name": "",
          "type": "bytes32"
        }
      ],
      "payable": false,
      "stateMutability": "view",
      "type": "function"
    },
    {
      "constant": true,
      "inputs": [
        {
          "name": "_key",
          "type": "bytes32"
        }
      ],
      "name": "get_contract",
      "outputs": [
        {
          "name": "_contract",
          "type": "address"
        }
      ],
      "payable": false,
      "stateMutability": "view",
      "type": "function"
    },
    {
      "constant": true,
      "inputs": [],
      "name": "currentTimeInQuarter",
      "outputs": [
        {
          "name": "_currentT",
          "type": "uint256"
        }
      ],
      "payable": false,
      "stateMutability": "view",
      "type": "function"
    },
    {
      "constant": true,
      "inputs": [],
      "name": "isMainPhase",
      "outputs": [
        {
          "name": "_isMainPhase",
          "type": "bool"
        }
      ],
      "payable": false,
      "stateMutability": "view",
      "type": "function"
    },
    {
      "constant": true,
      "inputs": [],
      "name": "isLockingPhase",
      "outputs": [
        {
          "name": "_isLockingPhase",
          "type": "bool"
        }
      ],
      "payable": false,
      "stateMutability": "view",
      "type": "function"
    },
    {
      "constant": true,
      "inputs": [],
      "name": "currentQuarterNumber",
      "outputs": [
        {
          "name": "_quarterNumber",
          "type": "uint256"
        }
      ],
      "payable": false,
      "stateMutability": "view",
      "type": "function"
    },
    {
      "constant": true,
      "inputs": [
        {
          "name": "_user",
          "type": "address"
        }
      ],
      "name": "isParticipant",
      "outputs": [
        {
          "name": "_is",
          "type": "bool"
        }
      ],
      "payable": false,
      "stateMutability": "view",
      "type": "function"
    },
    {
      "constant": true,
      "inputs": [
        {
          "name": "_configKey",
          "type": "bytes32"
        }
      ],
      "name": "getBytesConfig",
      "outputs": [
        {
          "name": "_configValue",
          "type": "bytes32"
        }
      ],
      "payable": false,
      "stateMutability": "view",
      "type": "function"
    },
    {
      "constant": true,
      "inputs": [
        {
          "name": "_configKey",
          "type": "bytes32"
        }
      ],
      "name": "getUintConfig",
      "outputs": [
        {
          "name": "_configValue",
          "type": "uint256"
        }
      ],
      "payable": false,
      "stateMutability": "view",
      "type": "function"
    },
    {
      "constant": true,
      "inputs": [],
      "name": "isDaoNotReplaced",
      "outputs": [
        {
          "name": "_isNotReplaced",
          "type": "bool"
        }
      ],
      "payable": false,
      "stateMutability": "view",
      "type": "function"
    },
    {
      "constant": true,
      "inputs": [],
      "name": "CONTRACT_ADDRESS",
      "outputs": [
        {
          "name": "",
          "type": "address"
        }
      ],
      "payable": false,
      "stateMutability": "view",
      "type": "function"
    },
    {
      "constant": true,
      "inputs": [
        {
          "name": "_user",
          "type": "address"
        }
      ],
      "name": "isModerator",
      "outputs": [
        {
          "name": "_is",
          "type": "bool"
        }
      ],
      "payable": false,
      "stateMutability": "view",
      "type": "function"
    },
    {
      "inputs": [
        {
          "name": "_resolver",
          "type": "address"
        }
      ],
      "payable": false,
      "stateMutability": "nonpayable",
      "type": "constructor"
    },
    {
      "anonymous": false,
      "inputs": [
        {
          "indexed": true,
          "name": "_proposalId",
          "type": "bytes32"
        },
        {
          "indexed": false,
          "name": "_result",
          "type": "bool"
        }
      ],
      "name": "SpecialProposalClaim",
      "type": "event"
    },
    {
      "constant": false,
      "inputs": [
        {
          "name": "_proposalId",
          "type": "bytes32"
        },
        {
          "name": "_operations",
          "type": "uint256"
        }
      ],
      "name": "claimSpecialProposalVotingResult",
      "outputs": [
        {
          "name": "_passed",
          "type": "bool"
        }
      ],
      "payable": false,
      "stateMutability": "nonpayable",
      "type": "function"
    }
  ],
  "bytecode": "0x608060405260006001026003906000191690556000600460006101000a81548173ffffffffffffffffffffffffffffffffffffffff021916908373ffffffffffffffffffffffffffffffffffffffff1602179055507f70726f706f73616c5f73746174655f70726570726f706f73616c0000000000006005906000191690557f70726f706f73616c5f73746174655f64726166740000000000000000000000006006906000191690557f70726f706f73616c5f73746174655f6d6f6465726174656400000000000000006007906000191690557f70726f706f73616c5f73746174655f6f6e676f696e67000000000000000000006008906000191690557f70726f706f73616c5f73746174655f636c6f73656400000000000000000000006009906000191690557f70726f706f73616c5f73746174655f6172636869766564000000000000000000600a906000191690556001600b556002600c556003600d556001600e556002600f5560036010557f696e7465725f6467645f696400000000000000000000000000000000000000006011906000191690557f696e7465725f6d6f645f6467645f6964000000000000000000000000000000006012906000191690557f696e7465725f626f6e75735f63616c63756c6174696f6e5f69640000000000006013906000191690557f64616f00000000000000000000000000000000000000000000000000000000006014906000191690557f64616f3a7370656369616c3a70726f706f73616c0000000000000000000000006015906000191690557f64616f3a7374616b652d6c6f636b696e670000000000000000000000000000006016906000191690557f64616f3a766f74696e67000000000000000000000000000000000000000000006017906000191690557f64616f3a766f74696e673a636c61696d730000000000000000000000000000006018906000191690557f64616f3a73766f74696e673a636c61696d7300000000000000000000000000006019906000191690557f64616f3a6964656e746974790000000000000000000000000000000000000000601a906000191690557f64616f3a726577617264732d6d616e6167657200000000000000000000000000601b906000191690557f64616f3a726577617264732d6578747261730000000000000000000000000000601c906000191690557f64616f3a726f6c65730000000000000000000000000000000000000000000000601d906000191690557f64616f3a66756e64696e672d6d616e6167657200000000000000000000000000601e906000191690557f64616f3a77686974656c697374696e6700000000000000000000000000000000601f906000191690557f64616f3a696e666f726d6174696f6e00000000000000000000000000000000006020906000191690557f736572766963653a726f6c6500000000000000000000000000000000000000006021906000191690557f736572766963653a64616f3a696e666f000000000000000000000000000000006022906000191690557f736572766963653a64616f3a6c697374696e67000000000000000000000000006023906000191690557f736572766963653a64616f3a63616c63756c61746f72000000000000000000006024906000191690557f73746f726167653a64616f0000000000000000000000000000000000000000006025906000191690557f73746f726167653a64616f3a636f756e746572000000000000000000000000006026906000191690557f73746f726167653a64616f3a75706772616465000000000000000000000000006027906000191690557f73746f726167653a64616f3a6964656e746974790000000000000000000000006028906000191690557f73746f726167653a64616f3a706f696e747300000000000000000000000000006029906000191690557f73746f726167653a64616f3a7370656369616c00000000000000000000000000602a906000191690557f73746f726167653a64616f3a636f6e6669670000000000000000000000000000602b906000191690557f73746f726167653a64616f3a7374616b65000000000000000000000000000000602c906000191690557f73746f726167653a64616f3a7265776172647300000000000000000000000000602d906000191690557f73746f726167653a64616f3a77686974656c697374696e670000000000000000602e906000191690557f73746f726167653a696e7465726d6564696174653a726573756c747300000000602f906000191690557f743a6467640000000000000000000000000000000000000000000000000000006030906000191690557f743a6467780000000000000000000000000000000000000000000000000000006031906000191690557f743a6261646765000000000000000000000000000000000000000000000000006032906000191690556001603360006101000a81548160ff021916908360ff1602179055506002603360016101000a81548160ff021916908360ff1602179055506003603360026101000a81548160ff021916908360ff1602179055506004603360036101000a81548160ff021916908360ff1602179055506276a7006034557f6d696e5f6467645f7061727469636970616e74000000000000000000000000006035906000191690557f6d696e5f6467645f6d6f64657261746f720000000000000000000000000000006036906000191690557f6d696e5f72657075746174696f6e5f6d6f64657261746f7200000000000000006037906000191690557f6c6f636b696e675f70686173655f6475726174696f6e000000000000000000006038906000191690557f717561727465725f6475726174696f6e000000000000000000000000000000006039906000191690557f766f74696e675f636f6d6d69745f706861736500000000000000000000000000603a906000191690557f766f74696e675f70686173655f746f74616c0000000000000000000000000000603b906000191690557f696e746572696d5f766f74696e675f636f6d6d69745f70686173650000000000603c906000191690557f696e746572696d5f766f74696e675f70686173655f746f74616c000000000000603d906000191690557f64726166745f71756f72756d5f66697865645f6e756d657261746f7200000000603e906000191690557f64726166745f71756f72756d5f66697865645f64656e6f6d696e61746f720000603f906000191690557f64726166745f71756f72756d5f73666163746f725f6e756d657261746f7200006040906000191690557f64726166745f71756f72756d5f73666163746f725f64656e6f6d696e61746f726041906000191690557f766f74655f71756f72756d5f66697865645f6e756d657261746f7200000000006042906000191690557f766f74655f71756f72756d5f66697865645f64656e6f6d696e61746f720000006043906000191690557f766f74655f71756f72756d5f73666163746f725f6e756d657261746f720000006044906000191690557f766f74655f71756f72756d5f73666163746f725f64656e6f6d696e61746f72006045906000191690557f66696e616c5f7265776172645f73666163746f725f6e756d657261746f7200006046906000191690557f66696e616c5f7265776172645f73666163746f725f64656e6f6d696e61746f726047906000191690557f64726166745f71756f74615f6e756d657261746f7200000000000000000000006048906000191690557f64726166745f71756f74615f64656e6f6d696e61746f720000000000000000006049906000191690557f766f74696e675f71756f74615f6e756d657261746f7200000000000000000000604a906000191690557f766f74696e675f71756f74615f64656e6f6d696e61746f720000000000000000604b906000191690557f6d696e696d616c5f717000000000000000000000000000000000000000000000604c906000191690557f717561727465725f706f696e745f7363616c696e675f666163746f7200000000604d906000191690557f7265705f706f696e745f7363616c696e675f666163746f720000000000000000604e906000191690557f6d696e696d616c5f6d6f645f7170000000000000000000000000000000000000604f906000191690557f6d6f645f71705f7363616c696e675f666163746f7200000000000000000000006050906000191690557f6d6f645f7265705f706f696e745f7363616c696e675f666163746f72000000006051906000191690557f717561727465725f706f696e745f64726166745f766f746500000000000000006052906000191690557f717561727465725f706f696e745f766f746500000000000000000000000000006053906000191690557f717561727465725f706f696e745f696e746572696d5f766f74650000000000006054906000191690557f715f705f6d696c6573746f6e655f636f6d706c6574696f6e00000000000000006055906000191690557f626f6e75735f72657075746174696f6e5f6e756d657261746f720000000000006056906000191690557f626f6e75735f72657075746174696f6e5f64656e6f6d696e61746f72000000006057906000191690557f7370656369616c5f70726f706f73616c5f636f6d6d69745f70686173650000006058906000191690557f7370656369616c5f70726f706f73616c5f70686173655f746f74616c000000006059906000191690557f636f6e6669675f7370656369616c5f71756f74615f6e756d657261746f720000605a906000191690557f636f6e6669675f7370656369616c5f71756f74615f64656e6f6d696e61746f72605b906000191690557f7370656369616c5f71756f72756d5f6e756d657261746f720000000000000000605c906000191690557f7370656369616c5f71756f72756d5f64656e6f6d696e61746f72000000000000605d906000191690557f636f6e6669675f6d61785f72657075746174696f6e5f646564756374696f6e00605e906000191690557f636f6e6669675f70756e6973686d656e745f6e6f745f6c6f636b696e67000000605f906000191690557f636f6e6669675f7265705f7065725f65787472615f71705f6e756d00000000006060906000191690557f636f6e6669675f7265705f7065725f65787472615f71705f64656e00000000006061906000191690557f636f6e6669675f6d61785f6d5f72705f646564756374696f6e000000000000006062906000191690557f636f6e6669675f7265705f7065725f65787472615f6d5f71705f6e756d0000006063906000191690557f636f6e6669675f7265705f7065725f65787472615f6d5f71705f64656e0000006064906000191690557f636f6e6669675f6d6f645f706f7274696f6e5f6e756d000000000000000000006065906000191690557f636f6e6669675f6d6f645f706f7274696f6e5f64656e000000000000000000006066906000191690557f636f6e6669675f64726166745f766f74696e675f7068617365000000000000006067906000191690557f636f6e6669675f72705f626f6f73745f7065725f6261646765000000000000006068906000191690557f636f6e6669675f636c61696d696e675f646561646c696e6500000000000000006069906000191690557f636f6e6669675f70726570726f706f73616c5f636f6c6c61746572616c000000606a906000191690557f636f6e6669675f6d61785f66756e64696e675f6e6f6e44696769780000000000606b906000191690557f636f6e6669675f6d61785f6d696c6573746f6e65735f6e6f6e44696769780000606c906000191690557f636f6e6669675f6e6f6e44696769785f70726f706f73616c5f63617000000000606d906000191690557f636f6e6669675f646561645f6475726174696f6e000000000000000000000000606e906000191690557f636f6e6669675f63765f72657075746174696f6e000000000000000000000000606f906000191690553480156200113457600080fd5b506040516020806200384783398101806040528101908080519060200190929190505050620011756019548262001188640100000000026401000000009004565b15156200118157600080fd5b5062001419565b6000808273ffffffffffffffffffffffffffffffffffffffff16636d19a8826040518163ffffffff167c0100000000000000000000000000000000000000000000000000000000028152600401602060405180830381600087803b158015620011f057600080fd5b505af115801562001205573d6000803e3d6000fd5b505050506040513d60208110156200121c57600080fd5b810190808051906020019092919050505090506000151581151514156200140d5730600260006101000a81548173ffffffffffffffffffffffffffffffffffffffff021916908373ffffffffffffffffffffffffffffffffffffffff160217905550826000806101000a81548173ffffffffffffffffffffffffffffffffffffffff021916908373ffffffffffffffffffffffffffffffffffffffff16021790555083600181600019169055506000809054906101000a900473ffffffffffffffffffffffffffffffffffffffff1673ffffffffffffffffffffffffffffffffffffffff1663c0f6ef4a600154600260009054906101000a900473ffffffffffffffffffffffffffffffffffffffff166040518363ffffffff167c01000000000000000000000000000000000000000000000000000000000281526004018083600019166000191681526020018273ffffffffffffffffffffffffffffffffffffffff1673ffffffffffffffffffffffffffffffffffffffff16815260200192505050602060405180830381600087803b158015620013ba57600080fd5b505af1158015620013cf573d6000803e3d6000fd5b505050506040513d6020811015620013e657600080fd5b810190808051906020019092919050505015156200140357600080fd5b6001915062001412565b600091505b5092915050565b61241e80620014296000396000f3006080604052600436106100db576000357c0100000000000000000000000000000000000000000000000000000000900463ffffffff16806304f3bcec146100e05780631d8ccd04146101375780633943380c146101a85780633f83acff146101db578063560a25ea1461024c5780635932470b1461027757806368533060146102ca5780637d6fed80146102f95780637f6a26b614610328578063929066f51461035357806393ddad08146103ae578063b1e2b9dd146103fb578063d70d935814610440578063db4ecbc11461046f578063fa6f3936146104c6575b600080fd5b3480156100ec57600080fd5b506100f5610521565b604051808273ffffffffffffffffffffffffffffffffffffffff1673ffffffffffffffffffffffffffffffffffffffff16815260200191505060405180910390f35b34801561014357600080fd5b506101666004803603810190808035600019169060200190929190505050610546565b604051808273ffffffffffffffffffffffffffffffffffffffff1673ffffffffffffffffffffffffffffffffffffffff16815260200191505060405180910390f35b3480156101b457600080fd5b506101bd610608565b60405180826000191660001916815260200191505060405180910390f35b3480156101e757600080fd5b5061020a600480360381019080803560001916906020019092919050505061060e565b604051808273ffffffffffffffffffffffffffffffffffffffff1673ffffffffffffffffffffffffffffffffffffffff16815260200191505060405180910390f35b34801561025857600080fd5b506102616106ea565b6040518082815260200191505060405180910390f35b34801561028357600080fd5b506102b06004803603810190808035600019169060200190929190803590602001909291905050506106fa565b604051808215151515815260200191505060405180910390f35b3480156102d657600080fd5b506102df61161a565b604051808215151515815260200191505060405180910390f35b34801561030557600080fd5b5061030e611646565b604051808215151515815260200191505060405180910390f35b34801561033457600080fd5b5061033d611661565b6040518082815260200191505060405180910390f35b34801561035f57600080fd5b50610394600480360381019080803573ffffffffffffffffffffffffffffffffffffffff169060200190929190505050611671565b604051808215151515815260200191505060405180910390f35b3480156103ba57600080fd5b506103dd6004803603810190808035600019169060200190929190505050611852565b60405180826000191660001916815260200191505060405180910390f35b34801561040757600080fd5b5061042a6004803603810190808035600019169060200190929190505050611914565b6040518082815260200191505060405180910390f35b34801561044c57600080fd5b506104556119d6565b604051808215151515815260200191505060405180910390f35b34801561047b57600080fd5b50610484611a84565b604051808273ffffffffffffffffffffffffffffffffffffffff1673ffffffffffffffffffffffffffffffffffffffff16815260200191505060405180910390f35b3480156104d257600080fd5b50610507600480360381019080803573ffffffffffffffffffffffffffffffffffffffff169060200190929190505050611aaa565b604051808215151515815260200191505060405180910390f35b6000809054906101000a900473ffffffffffffffffffffffffffffffffffffffff1681565b6000610550611d7d565b73ffffffffffffffffffffffffffffffffffffffff1663e6b39eab836040518263ffffffff167c0100000000000000000000000000000000000000000000000000000000028152600401808260001916600019168152602001915050602060405180830381600087803b1580156105c657600080fd5b505af11580156105da573d6000803e3d6000fd5b505050506040513d60208110156105f057600080fd5b81019080805190602001909291905050509050919050565b60015481565b60008060009054906101000a900473ffffffffffffffffffffffffffffffffffffffff1673ffffffffffffffffffffffffffffffffffffffff16633f83acff836040518263ffffffff167c0100000000000000000000000000000000000000000000000000000000028152600401808260001916600019168152602001915050602060405180830381600087803b1580156106a857600080fd5b505af11580156106bc573d6000803e3d6000fd5b505050506040513d60208110156106d257600080fd5b81019080805190602001909291905050509050919050565b60006106f542611d8f565b905090565b6000610704612399565b606060006107106123d8565b866000151561071d611e78565b73ffffffffffffffffffffffffffffffffffffffff1663b89c3952836040518263ffffffff167c0100000000000000000000000000000000000000000000000000000000028152600401808260001916600019168152602001915050602060405180830381600087803b15801561079357600080fd5b505af11580156107a7573d6000803e3d6000fd5b505050506040513d60208110156107bd57600080fd5b810190808051906020019092919050505015151415156107dc57600080fd5b8760006107e7611e78565b73ffffffffffffffffffffffffffffffffffffffff16638839a29d836040518263ffffffff167c0100000000000000000000000000000000000000000000000000000000028152600401808260001916600019168152602001915050602060405180830381600087803b15801561085d57600080fd5b505af1158015610871573d6000803e3d6000fd5b505050506040513d602081101561088757600080fd5b810190808051906020019092919050505090506000811115156108a957600080fd5b6108b4605954611914565b6108c78242611e8a90919063ffffffff16565b101515156108d457600080fd5b6108dc61161a565b15156108e757600080fd5b6109d86108f5606954611914565b6109ca610903605954611914565b61090b611e78565b73ffffffffffffffffffffffffffffffffffffffff16638839a29d8f6040518263ffffffff167c0100000000000000000000000000000000000000000000000000000000028152600401808260001916600019168152602001915050602060405180830381600087803b15801561098157600080fd5b505af1158015610995573d6000803e3d6000fd5b505050506040513d60208110156109ab57600080fd5b8101908080519060200190929190505050611ea390919063ffffffff16565b611ea390919063ffffffff16565b421115610a8b576109e7611e78565b73ffffffffffffffffffffffffffffffffffffffff16630d92dfb28b60006040518363ffffffff167c01000000000000000000000000000000000000000000000000000000000281526004018083600019166000191681526020018215151515815260200192505050600060405180830381600087803b158015610a6a57600080fd5b505af1158015610a7e573d6000803e3d6000fd5b505050506000975061160d565b610a93611e78565b73ffffffffffffffffffffffffffffffffffffffff16635b712eb68b6040518263ffffffff167c0100000000000000000000000000000000000000000000000000000000028152600401808260001916600019168152602001915050602060405180830381600087803b158015610b0957600080fd5b505af1158015610b1d573d6000803e3d6000fd5b505050506040513d6020811015610b3357600080fd5b810190808051906020019092919050505073ffffffffffffffffffffffffffffffffffffffff163373ffffffffffffffffffffffffffffffffffffffff16141515610b7d57600080fd5b610b85611ebf565b73ffffffffffffffffffffffffffffffffffffffff166312d0c13b8b6040518263ffffffff167c0100000000000000000000000000000000000000000000000000000000028152600401808260001916600019168152602001915050608060405180830381600087803b158015610bfb57600080fd5b505af1158015610c0f573d6000803e3d6000fd5b505050506040513d6080811015610c2557600080fd5b810190808051906020019092919080519060200190929190805190602001909291908051906020019092919050505050896060018a6000018b60200183815250838152508373ffffffffffffffffffffffffffffffffffffffff1673ffffffffffffffffffffffffffffffffffffffff16815250505050600460009054906101000a900473ffffffffffffffffffffffffffffffffffffffff1673ffffffffffffffffffffffffffffffffffffffff16876060015173ffffffffffffffffffffffffffffffffffffffff161415610e1157610cfe611ed1565b73ffffffffffffffffffffffffffffffffffffffff1663f4f9fadc8a60016040518363ffffffff167c0100000000000000000000000000000000000000000000000000000000028152600401808381526020018215151515815260200192505050600060405180830381600087803b158015610d7957600080fd5b505af1158015610d8d573d6000803e3d6000fd5b505050506040513d6000823e3d601f19601f820116820180604052506020811015610db757600080fd5b810190808051640100000000811115610dcf57600080fd5b82810190506020810184811115610de557600080fd5b8151856020820283011164010000000082111715610e0257600080fd5b50509291905050509550610f60565b610e19611ed1565b73ffffffffffffffffffffffffffffffffffffffff166396fe8e6588606001518b60016040518463ffffffff167c0100000000000000000000000000000000000000000000000000000000028152600401808473ffffffffffffffffffffffffffffffffffffffff1673ffffffffffffffffffffffffffffffffffffffff168152602001838152602001821515151581526020019350505050600060405180830381600087803b158015610ecc57600080fd5b505af1158015610ee0573d6000803e3d6000fd5b505050506040513d6000823e3d601f19601f820116820180604052506020811015610f0a57600080fd5b810190808051640100000000811115610f2257600080fd5b82810190506020810184811115610f3857600080fd5b8151856020820283011164010000000082111715610f5557600080fd5b505092919050505095505b856001875103815181101515610f7257fe5b906020019060200201519450610f86611e78565b73ffffffffffffffffffffffffffffffffffffffff166373758c228b886040518363ffffffff167c010000000000000000000000000000000000000000000000000000000002815260040180836000191660001916815260200180602001828103825283818151815260200191508051906020019060200280838360005b8381101561101f578082015181840152602081019050611004565b5050505090500193505050506040805180830381600087803b15801561104457600080fd5b505af1158015611058573d6000803e3d6000fd5b505050506040513d604081101561106e57600080fd5b81019080805190602001909291908051906020019092919050505085600001866020018281525082815250505084876060019073ffffffffffffffffffffffffffffffffffffffff16908173ffffffffffffffffffffffffffffffffffffffff16815250506110ee84600001518860000151611ea390919063ffffffff16565b87600001818152505061111284602001518860200151611ea390919063ffffffff16565b876020018181525050611123611ee3565b73ffffffffffffffffffffffffffffffffffffffff166382624a2e6040518163ffffffff167c0100000000000000000000000000000000000000000000000000000000028152600401602060405180830381600087803b15801561118657600080fd5b505af115801561119a573d6000803e3d6000fd5b505050506040513d60208110156111b057600080fd5b810190808051906020019092919050505073ffffffffffffffffffffffffffffffffffffffff168573ffffffffffffffffffffffffffffffffffffffff16141561151c576111fc611ef5565b73ffffffffffffffffffffffffffffffffffffffff16632850568f6040518163ffffffff167c0100000000000000000000000000000000000000000000000000000000028152600401602060405180830381600087803b15801561125f57600080fd5b505af1158015611273573d6000803e3d6000fd5b505050506040513d602081101561128957600080fd5b81019080805190602001909291905050506112b588602001518960000151611ea390919063ffffffff16565b11801561137f57506112c5611ef5565b73ffffffffffffffffffffffffffffffffffffffff1663a27c834c886000015189602001516040518363ffffffff167c01000000000000000000000000000000000000000000000000000000000281526004018083815260200182815260200192505050602060405180830381600087803b15801561134357600080fd5b505af1158015611357573d6000803e3d6000fd5b505050506040513d602081101561136d57600080fd5b81019080805190602001909291905050505b1561139257600197506113918a611f07565b5b61139a611e78565b73ffffffffffffffffffffffffffffffffffffffff16630d92dfb28b8a6040518363ffffffff167c01000000000000000000000000000000000000000000000000000000000281526004018083600019166000191681526020018215151515815260200192505050600060405180830381600087803b15801561141c57600080fd5b505af1158015611430573d6000803e3d6000fd5b5050505061143c611e78565b73ffffffffffffffffffffffffffffffffffffffff1663d6ae87bf8b60016040518363ffffffff167c01000000000000000000000000000000000000000000000000000000000281526004018083600019166000191681526020018215151515815260200192505050600060405180830381600087803b1580156114bf57600080fd5b505af11580156114d3573d6000803e3d6000fd5b5050505089600019167f46d648587884573d7eb9ac356d8a439b4e07e29d401bea0839e76769915adeee89604051808215151515815260200191505060405180910390a261160c565b611524611ebf565b73ffffffffffffffffffffffffffffffffffffffff16636e3f777c8b89606001518a600001518b6020015160006040518663ffffffff167c01000000000000000000000000000000000000000000000000000000000281526004018086600019166000191681526020018573ffffffffffffffffffffffffffffffffffffffff1673ffffffffffffffffffffffffffffffffffffffff16815260200184815260200183815260200182815260200195505050505050600060405180830381600087803b1580156115f357600080fd5b505af1158015611607573d6000803e3d6000fd5b505050505b5b5050505050505092915050565b60006116246119d6565b80156116415750611636603854611914565b61163e6106ea565b10155b905090565b6000611653603854611914565b61165b6106ea565b10905090565b600061166c4261219a565b905090565b600061167b611661565b61168361229d565b73ffffffffffffffffffffffffffffffffffffffff1663cefc2bff846040518263ffffffff167c0100000000000000000000000000000000000000000000000000000000028152600401808273ffffffffffffffffffffffffffffffffffffffff1673ffffffffffffffffffffffffffffffffffffffff168152602001915050602060405180830381600087803b15801561171d57600080fd5b505af1158015611731573d6000803e3d6000fd5b505050506040513d602081101561174757600080fd5b810190808051906020019092919050505014801561184b575061176b603554611914565b611773611ee3565b73ffffffffffffffffffffffffffffffffffffffff1663cd094a27846040518263ffffffff167c0100000000000000000000000000000000000000000000000000000000028152600401808273ffffffffffffffffffffffffffffffffffffffff1673ffffffffffffffffffffffffffffffffffffffff168152602001915050602060405180830381600087803b15801561180d57600080fd5b505af1158015611821573d6000803e3d6000fd5b505050506040513d602081101561183757600080fd5b810190808051906020019092919050505010155b9050919050565b600061185c611d7d565b73ffffffffffffffffffffffffffffffffffffffff1663c0a8405d836040518263ffffffff167c0100000000000000000000000000000000000000000000000000000000028152600401808260001916600019168152602001915050602060405180830381600087803b1580156118d257600080fd5b505af11580156118e6573d6000803e3d6000fd5b505050506040513d60208110156118fc57600080fd5b81019080805190602001909291905050509050919050565b600061191e611d7d565b73ffffffffffffffffffffffffffffffffffffffff1663734c1168836040518263ffffffff167c0100000000000000000000000000000000000000000000000000000000028152600401808260001916600019168152602001915050602060405180830381600087803b15801561199457600080fd5b505af11580156119a8573d6000803e3d6000fd5b505050506040513d60208110156119be57600080fd5b81019080805190602001909291905050509050919050565b60006119e06122af565b73ffffffffffffffffffffffffffffffffffffffff16638bc865fd6040518163ffffffff167c0100000000000000000000000000000000000000000000000000000000028152600401602060405180830381600087803b158015611a4357600080fd5b505af1158015611a57573d6000803e3d6000fd5b505050506040513d6020811015611a6d57600080fd5b810190808051906020019092919050505015905090565b600260009054906101000a900473ffffffffffffffffffffffffffffffffffffffff1681565b6000611ab4611661565b611abc61229d565b73ffffffffffffffffffffffffffffffffffffffff1663cefc2bff846040518263ffffffff167c0100000000000000000000000000000000000000000000000000000000028152600401808273ffffffffffffffffffffffffffffffffffffffff1673ffffffffffffffffffffffffffffffffffffffff168152602001915050602060405180830381600087803b158015611b5657600080fd5b505af1158015611b6a573d6000803e3d6000fd5b505050506040513d6020811015611b8057600080fd5b8101908080519060200190929190505050148015611c845750611ba4603654611914565b611bac611ee3565b73ffffffffffffffffffffffffffffffffffffffff1663cd094a27846040518263ffffffff167c0100000000000000000000000000000000000000000000000000000000028152600401808273ffffffffffffffffffffffffffffffffffffffff1673ffffffffffffffffffffffffffffffffffffffff168152602001915050602060405180830381600087803b158015611c4657600080fd5b505af1158015611c5a573d6000803e3d6000fd5b505050506040513d6020811015611c7057600080fd5b810190808051906020019092919050505010155b8015611d765750611c96603754611914565b611c9e6122c1565b73ffffffffffffffffffffffffffffffffffffffff16639c89a0e2846040518263ffffffff167c0100000000000000000000000000000000000000000000000000000000028152600401808273ffffffffffffffffffffffffffffffffffffffff1673ffffffffffffffffffffffffffffffffffffffff168152602001915050602060405180830381600087803b158015611d3857600080fd5b505af1158015611d4c573d6000803e3d6000fd5b505050506040513d6020811015611d6257600080fd5b810190808051906020019092919050505010155b9050919050565b6000611d8a602b5461060e565b905090565b6000611d996122d3565b1515611da457600080fd5b611daf603954611914565b611e67611dba6122af565b73ffffffffffffffffffffffffffffffffffffffff1663d9c6bb206040518163ffffffff167c0100000000000000000000000000000000000000000000000000000000028152600401602060405180830381600087803b158015611e1d57600080fd5b505af1158015611e31573d6000803e3d6000fd5b505050506040513d6020811015611e4757600080fd5b810190808051906020019092919050505084611e8a90919063ffffffff16565b811515611e7057fe5b069050919050565b6000611e85602a5461060e565b905090565b6000828211151515611e9857fe5b818303905092915050565b60008183019050828110151515611eb657fe5b80905092915050565b6000611ecc602f5461060e565b905090565b6000611ede60235461060e565b905090565b6000611ef0602c5461060e565b905090565b6000611f0260245461060e565b905090565b6060806060611f14611e78565b73ffffffffffffffffffffffffffffffffffffffff166356ecd657856040518263ffffffff167c0100000000000000000000000000000000000000000000000000000000028152600401808260001916600019168152602001915050600060405180830381600087803b158015611f8a57600080fd5b505af1158015611f9e573d6000803e3d6000fd5b505050506040513d6000823e3d601f19601f820116820180604052506060811015611fc857600080fd5b810190808051640100000000811115611fe057600080fd5b82810190506020810184811115611ff657600080fd5b815185602082028301116401000000008211171561201357600080fd5b5050929190602001805164010000000081111561202f57600080fd5b8281019050602081018481111561204557600080fd5b815185602082028301116401000000008211171561206257600080fd5b5050929190602001805164010000000081111561207e57600080fd5b8281019050602081018481111561209457600080fd5b81518560208202830111640100000000821117156120b157600080fd5b50509291905050508093508194508295505050506120cd611d7d565b73ffffffffffffffffffffffffffffffffffffffff1663aecbca67846040518263ffffffff167c01000000000000000000000000000000000000000000000000000000000281526004018080602001828103825283818151815260200191508051906020019060200280838360005b8381101561215757808201518184015260208101905061213c565b5050505090500192505050600060405180830381600087803b15801561217c57600080fd5b505af1158015612190573d6000803e3d6000fd5b5050505050505050565b60006121a46122d3565b15156121af57600080fd5b61229660016122886121c2603954611914565b61227a6121cd6122af565b73ffffffffffffffffffffffffffffffffffffffff1663d9c6bb206040518163ffffffff167c0100000000000000000000000000000000000000000000000000000000028152600401602060405180830381600087803b15801561223057600080fd5b505af1158015612244573d6000803e3d6000fd5b505050506040513d602081101561225a57600080fd5b810190808051906020019092919050505087611e8a90919063ffffffff16565b61238390919063ffffffff16565b611ea390919063ffffffff16565b9050919050565b60006122aa602d5461060e565b905090565b60006122bc60275461060e565b905090565b60006122ce60295461060e565b905090565b6000806122de6122af565b73ffffffffffffffffffffffffffffffffffffffff1663d9c6bb206040518163ffffffff167c0100000000000000000000000000000000000000000000000000000000028152600401602060405180830381600087803b15801561234157600080fd5b505af1158015612355573d6000803e3d6000fd5b505050506040513d602081101561236b57600080fd5b81019080805190602001909291905050501415905090565b6000818381151561239057fe5b04905092915050565b608060405190810160405280600081526020016000815260200160008152602001600073ffffffffffffffffffffffffffffffffffffffff1681525090565b6040805190810160405280600081526020016000815250905600a165627a7a7230582014081a9571d615d5ecaa5b9efb2a5980938474f95e7323571f4eaeeab3599ecf0029",
  "source": "pragma solidity ^0.4.25;\n\nimport \"../common/DaoCommon.sol\";\nimport \"../service/DaoCalculatorService.sol\";\nimport \"./DaoFundingManager.sol\";\nimport \"./DaoRewardsManager.sol\";\nimport \"../lib/DaoIntermediateStructs.sol\";\nimport \"../lib/DaoStructs.sol\";\n\n/**\n@title Contract to claim voting results\n@author Digix Holdings\n*/\ncontract DaoSpecialVotingClaims is DaoCommon {\n    using DaoIntermediateStructs for DaoIntermediateStructs.VotingCount;\n    using DaoStructs for DaoStructs.IntermediateResults;\n\n    event SpecialProposalClaim(bytes32 indexed _proposalId, bool _result);\n\n    function daoCalculatorService()\n        internal\n        view\n        returns (DaoCalculatorService _contract)\n    {\n        _contract = DaoCalculatorService(get_contract(CONTRACT_SERVICE_DAO_CALCULATOR));\n    }\n\n    function daoFundingManager()\n        internal\n        view\n        returns (DaoFundingManager _contract)\n    {\n        _contract = DaoFundingManager(get_contract(CONTRACT_DAO_FUNDING_MANAGER));\n    }\n\n    function daoRewardsManager()\n        internal\n        view\n        returns (DaoRewardsManager _contract)\n    {\n        _contract = DaoRewardsManager(get_contract(CONTRACT_DAO_REWARDS_MANAGER));\n    }\n\n    constructor(address _resolver) public {\n        require(init(CONTRACT_DAO_SPECIAL_VOTING_CLAIMS, _resolver));\n    }\n\n\n    /**\n    @notice Function to claim the voting result on special proposal\n    @param _proposalId ID of the special proposal\n    @return {\n      \"_passed\": \"Boolean, true if voting passed, throw if failed, returns false if passed deadline\"\n    }\n    */\n    function claimSpecialProposalVotingResult(bytes32 _proposalId, uint256 _operations)\n        public\n        ifNotClaimedSpecial(_proposalId)\n        ifAfterRevealPhaseSpecial(_proposalId)\n        returns (bool _passed)\n    {\n        require(isMainPhase());\n        if (now > daoSpecialStorage().readVotingTime(_proposalId)\n                    .add(getUintConfig(CONFIG_SPECIAL_PROPOSAL_PHASE_TOTAL))\n                    .add(getUintConfig(CONFIG_VOTE_CLAIMING_DEADLINE))) {\n            daoSpecialStorage().setPass(_proposalId, false);\n            return false;\n        }\n        require(msg.sender == daoSpecialStorage().readProposalProposer(_proposalId));\n\n        DaoStructs.IntermediateResults memory _currentResults;\n        (\n            _currentResults.countedUntil,\n            _currentResults.currentForCount,\n            _currentResults.currentAgainstCount,\n        ) = intermediateResultsStorage().getIntermediateResults(_proposalId);\n\n        address[] memory _voters;\n        if (_currentResults.countedUntil == EMPTY_ADDRESS) {\n            _voters = daoListingService().listParticipants(\n                _operations,\n                true\n            );\n        } else {\n            _voters = daoListingService().listParticipantsFrom(\n                _currentResults.countedUntil,\n                _operations,\n                true\n            );\n        }\n\n        address _lastVoter = _voters[_voters.length - 1];\n\n        DaoIntermediateStructs.VotingCount memory _voteCount;\n        (_voteCount.forCount, _voteCount.againstCount) = daoSpecialStorage().readVotingCount(_proposalId, _voters);\n\n        _currentResults.countedUntil = _lastVoter;\n        _currentResults.currentForCount = _currentResults.currentForCount.add(_voteCount.forCount);\n        _currentResults.currentAgainstCount = _currentResults.currentAgainstCount.add(_voteCount.againstCount);\n\n        if (_lastVoter == daoStakeStorage().readLastParticipant()) {\n            // this is already the last transaction, we have counted all the votes\n\n            if (\n                (_currentResults.currentForCount.add(_currentResults.currentAgainstCount) > daoCalculatorService().minimumVotingQuorumForSpecial()) &&\n                (daoCalculatorService().votingQuotaForSpecialPass(_currentResults.currentForCount, _currentResults.currentAgainstCount))\n            ) {\n                _passed = true;\n                setConfigs(_proposalId);\n            }\n            daoSpecialStorage().setPass(_proposalId, _passed);\n            daoSpecialStorage().setVotingClaim(_proposalId, true);\n            emit SpecialProposalClaim(_proposalId, _passed);\n        } else {\n            intermediateResultsStorage().setIntermediateResults(\n                _proposalId,\n                _currentResults.countedUntil,\n                _currentResults.currentForCount,\n                _currentResults.currentAgainstCount,\n                0\n            );\n        }\n    }\n\n\n    function setConfigs(bytes32 _proposalId)\n        private\n    {\n        uint256[] memory _uintConfigs;\n        address[] memory _addressConfigs;\n        bytes32[] memory _bytesConfigs;\n        (\n            _uintConfigs,\n            _addressConfigs,\n            _bytesConfigs\n        ) = daoSpecialStorage().readConfigs(_proposalId);\n        daoConfigsStorage().updateUintConfigs(_uintConfigs);\n    }\n\n}\n",
  "sourcePath": "/home/rohit/Develop/dao-contracts/contracts/interactive/DaoSpecialVotingClaims.sol",
  "compiler": {
    "name": "solc",
    "version": "0.4.25+commit.59dbf8f1.Emscripten.clang"
  },
  "schemaVersion": "2.0.1",
  "updatedAt": "2018-12-19T03:42:00.670Z"
}