{
  "contractName": "DaoVotingClaims",
  "abi": [
    {
      "constant": true,
      "inputs": [],
      "name": "resolver",
      "outputs": [
        {
          "name": "",
          "type": "address"
        }
      ],
      "payable": false,
      "stateMutability": "view",
      "type": "function"
    },
    {
      "constant": true,
      "inputs": [
        {
          "name": "_configKey",
          "type": "bytes32"
        }
      ],
      "name": "getAddressConfig",
      "outputs": [
        {
          "name": "_configValue",
          "type": "address"
        }
      ],
      "payable": false,
      "stateMutability": "view",
      "type": "function"
    },
    {
      "constant": true,
      "inputs": [],
      "name": "key",
      "outputs": [
        {
          "name": "",
          "type": "bytes32"
        }
      ],
      "payable": false,
      "stateMutability": "view",
      "type": "function"
    },
    {
      "constant": true,
      "inputs": [
        {
          "name": "_key",
          "type": "bytes32"
        }
      ],
      "name": "get_contract",
      "outputs": [
        {
          "name": "_contract",
          "type": "address"
        }
      ],
      "payable": false,
      "stateMutability": "view",
      "type": "function"
    },
    {
      "constant": true,
      "inputs": [],
      "name": "currentTimeInQuarter",
      "outputs": [
        {
          "name": "_currentT",
          "type": "uint256"
        }
      ],
      "payable": false,
      "stateMutability": "view",
      "type": "function"
    },
    {
      "constant": true,
      "inputs": [],
      "name": "isMainPhase",
      "outputs": [
        {
          "name": "_isMainPhase",
          "type": "bool"
        }
      ],
      "payable": false,
      "stateMutability": "view",
      "type": "function"
    },
    {
      "constant": true,
      "inputs": [],
      "name": "isLockingPhase",
      "outputs": [
        {
          "name": "_isLockingPhase",
          "type": "bool"
        }
      ],
      "payable": false,
      "stateMutability": "view",
      "type": "function"
    },
    {
      "constant": true,
      "inputs": [],
      "name": "currentQuarterNumber",
      "outputs": [
        {
          "name": "_quarterNumber",
          "type": "uint256"
        }
      ],
      "payable": false,
      "stateMutability": "view",
      "type": "function"
    },
    {
      "constant": true,
      "inputs": [
        {
          "name": "_user",
          "type": "address"
        }
      ],
      "name": "isParticipant",
      "outputs": [
        {
          "name": "_is",
          "type": "bool"
        }
      ],
      "payable": false,
      "stateMutability": "view",
      "type": "function"
    },
    {
      "constant": true,
      "inputs": [
        {
          "name": "_configKey",
          "type": "bytes32"
        }
      ],
      "name": "getBytesConfig",
      "outputs": [
        {
          "name": "_configValue",
          "type": "bytes32"
        }
      ],
      "payable": false,
      "stateMutability": "view",
      "type": "function"
    },
    {
      "constant": true,
      "inputs": [
        {
          "name": "_configKey",
          "type": "bytes32"
        }
      ],
      "name": "getUintConfig",
      "outputs": [
        {
          "name": "_configValue",
          "type": "uint256"
        }
      ],
      "payable": false,
      "stateMutability": "view",
      "type": "function"
    },
    {
      "constant": true,
      "inputs": [],
      "name": "isDaoNotReplaced",
      "outputs": [
        {
          "name": "_isNotReplaced",
          "type": "bool"
        }
      ],
      "payable": false,
      "stateMutability": "view",
      "type": "function"
    },
    {
      "constant": true,
      "inputs": [],
      "name": "CONTRACT_ADDRESS",
      "outputs": [
        {
          "name": "",
          "type": "address"
        }
      ],
      "payable": false,
      "stateMutability": "view",
      "type": "function"
    },
    {
      "constant": true,
      "inputs": [
        {
          "name": "_proposalId",
          "type": "bytes32"
        }
      ],
      "name": "isProposalPaused",
      "outputs": [
        {
          "name": "_isPausedOrStopped",
          "type": "bool"
        }
      ],
      "payable": false,
      "stateMutability": "view",
      "type": "function"
    },
    {
      "constant": true,
      "inputs": [
        {
          "name": "_user",
          "type": "address"
        }
      ],
      "name": "isModerator",
      "outputs": [
        {
          "name": "_is",
          "type": "bool"
        }
      ],
      "payable": false,
      "stateMutability": "view",
      "type": "function"
    },
    {
      "inputs": [
        {
          "name": "_resolver",
          "type": "address"
        }
      ],
      "payable": false,
      "stateMutability": "nonpayable",
      "type": "constructor"
    },
    {
      "constant": false,
      "inputs": [
        {
          "name": "_proposalId",
          "type": "bytes32"
        },
        {
          "name": "_operations",
          "type": "uint256"
        }
      ],
      "name": "claimDraftVotingResult",
      "outputs": [
        {
          "name": "_passed",
          "type": "bool"
        },
        {
          "name": "_done",
          "type": "bool"
        }
      ],
      "payable": false,
      "stateMutability": "nonpayable",
      "type": "function"
    },
    {
      "constant": false,
      "inputs": [
        {
          "name": "_proposalId",
          "type": "bytes32"
        },
        {
          "name": "_index",
          "type": "uint256"
        },
        {
          "name": "_operations",
          "type": "uint256"
        }
      ],
      "name": "claimProposalVotingResult",
      "outputs": [
        {
          "name": "_passed",
          "type": "bool"
        },
        {
          "name": "_done",
          "type": "bool"
        }
      ],
      "payable": false,
      "stateMutability": "nonpayable",
      "type": "function"
    },
    {
      "constant": true,
      "inputs": [
        {
          "name": "_proposalId",
          "type": "bytes32"
        }
      ],
      "name": "getInterResultKeyForBonusCalculation",
      "outputs": [
        {
          "name": "_key",
          "type": "bytes32"
        }
      ],
      "payable": false,
      "stateMutability": "view",
      "type": "function"
    }
  ],
  "bytecode": "0x608060405260006001026003906000191690556000600460006101000a81548173ffffffffffffffffffffffffffffffffffffffff021916908373ffffffffffffffffffffffffffffffffffffffff1602179055507f70726f706f73616c5f73746174655f70726570726f706f73616c0000000000006005906000191690557f70726f706f73616c5f73746174655f64726166740000000000000000000000006006906000191690557f70726f706f73616c5f73746174655f6d6f6465726174656400000000000000006007906000191690557f70726f706f73616c5f73746174655f6f6e676f696e67000000000000000000006008906000191690557f70726f706f73616c5f73746174655f636c6f73656400000000000000000000006009906000191690557f70726f706f73616c5f73746174655f6172636869766564000000000000000000600a906000191690556001600b556002600c556003600d556001600e556002600f5560036010557f696e7465725f6467645f696400000000000000000000000000000000000000006011906000191690557f696e7465725f6d6f645f6467645f6964000000000000000000000000000000006012906000191690557f696e7465725f626f6e75735f63616c63756c6174696f6e5f69640000000000006013906000191690557f64616f00000000000000000000000000000000000000000000000000000000006014906000191690557f64616f3a7370656369616c3a70726f706f73616c0000000000000000000000006015906000191690557f64616f3a7374616b652d6c6f636b696e670000000000000000000000000000006016906000191690557f64616f3a766f74696e67000000000000000000000000000000000000000000006017906000191690557f64616f3a766f74696e673a636c61696d730000000000000000000000000000006018906000191690557f64616f3a73766f74696e673a636c61696d7300000000000000000000000000006019906000191690557f64616f3a6964656e746974790000000000000000000000000000000000000000601a906000191690557f64616f3a726577617264732d6d616e6167657200000000000000000000000000601b906000191690557f64616f3a726577617264732d6578747261730000000000000000000000000000601c906000191690557f64616f3a726f6c65730000000000000000000000000000000000000000000000601d906000191690557f64616f3a66756e64696e672d6d616e6167657200000000000000000000000000601e906000191690557f64616f3a77686974656c697374696e6700000000000000000000000000000000601f906000191690557f64616f3a696e666f726d6174696f6e00000000000000000000000000000000006020906000191690557f736572766963653a726f6c6500000000000000000000000000000000000000006021906000191690557f736572766963653a64616f3a696e666f000000000000000000000000000000006022906000191690557f736572766963653a64616f3a6c697374696e67000000000000000000000000006023906000191690557f736572766963653a64616f3a63616c63756c61746f72000000000000000000006024906000191690557f73746f726167653a64616f0000000000000000000000000000000000000000006025906000191690557f73746f726167653a64616f3a636f756e746572000000000000000000000000006026906000191690557f73746f726167653a64616f3a75706772616465000000000000000000000000006027906000191690557f73746f726167653a64616f3a6964656e746974790000000000000000000000006028906000191690557f73746f726167653a64616f3a706f696e747300000000000000000000000000006029906000191690557f73746f726167653a64616f3a7370656369616c00000000000000000000000000602a906000191690557f73746f726167653a64616f3a636f6e6669670000000000000000000000000000602b906000191690557f73746f726167653a64616f3a7374616b65000000000000000000000000000000602c906000191690557f73746f726167653a64616f3a7265776172647300000000000000000000000000602d906000191690557f73746f726167653a64616f3a77686974656c697374696e670000000000000000602e906000191690557f73746f726167653a696e7465726d6564696174653a726573756c747300000000602f906000191690557f743a6467640000000000000000000000000000000000000000000000000000006030906000191690557f743a6467780000000000000000000000000000000000000000000000000000006031906000191690557f743a6261646765000000000000000000000000000000000000000000000000006032906000191690556001603360006101000a81548160ff021916908360ff1602179055506002603360016101000a81548160ff021916908360ff1602179055506003603360026101000a81548160ff021916908360ff1602179055506004603360036101000a81548160ff021916908360ff1602179055506276a7006034557f6d696e5f6467645f7061727469636970616e74000000000000000000000000006035906000191690557f6d696e5f6467645f6d6f64657261746f720000000000000000000000000000006036906000191690557f6d696e5f72657075746174696f6e5f6d6f64657261746f7200000000000000006037906000191690557f6c6f636b696e675f70686173655f6475726174696f6e000000000000000000006038906000191690557f717561727465725f6475726174696f6e000000000000000000000000000000006039906000191690557f766f74696e675f636f6d6d69745f706861736500000000000000000000000000603a906000191690557f766f74696e675f70686173655f746f74616c0000000000000000000000000000603b906000191690557f696e746572696d5f766f74696e675f636f6d6d69745f70686173650000000000603c906000191690557f696e746572696d5f766f74696e675f70686173655f746f74616c000000000000603d906000191690557f64726166745f71756f72756d5f66697865645f6e756d657261746f7200000000603e906000191690557f64726166745f71756f72756d5f66697865645f64656e6f6d696e61746f720000603f906000191690557f64726166745f71756f72756d5f73666163746f725f6e756d657261746f7200006040906000191690557f64726166745f71756f72756d5f73666163746f725f64656e6f6d696e61746f726041906000191690557f766f74655f71756f72756d5f66697865645f6e756d657261746f7200000000006042906000191690557f766f74655f71756f72756d5f66697865645f64656e6f6d696e61746f720000006043906000191690557f766f74655f71756f72756d5f73666163746f725f6e756d657261746f720000006044906000191690557f766f74655f71756f72756d5f73666163746f725f64656e6f6d696e61746f72006045906000191690557f66696e616c5f7265776172645f73666163746f725f6e756d657261746f7200006046906000191690557f66696e616c5f7265776172645f73666163746f725f64656e6f6d696e61746f726047906000191690557f64726166745f71756f74615f6e756d657261746f7200000000000000000000006048906000191690557f64726166745f71756f74615f64656e6f6d696e61746f720000000000000000006049906000191690557f766f74696e675f71756f74615f6e756d657261746f7200000000000000000000604a906000191690557f766f74696e675f71756f74615f64656e6f6d696e61746f720000000000000000604b906000191690557f6d696e696d616c5f717000000000000000000000000000000000000000000000604c906000191690557f717561727465725f706f696e745f7363616c696e675f666163746f7200000000604d906000191690557f7265705f706f696e745f7363616c696e675f666163746f720000000000000000604e906000191690557f6d696e696d616c5f6d6f645f7170000000000000000000000000000000000000604f906000191690557f6d6f645f71705f7363616c696e675f666163746f7200000000000000000000006050906000191690557f6d6f645f7265705f706f696e745f7363616c696e675f666163746f72000000006051906000191690557f717561727465725f706f696e745f64726166745f766f746500000000000000006052906000191690557f717561727465725f706f696e745f766f746500000000000000000000000000006053906000191690557f717561727465725f706f696e745f696e746572696d5f766f74650000000000006054906000191690557f715f705f6d696c6573746f6e655f636f6d706c6574696f6e00000000000000006055906000191690557f626f6e75735f72657075746174696f6e5f6e756d657261746f720000000000006056906000191690557f626f6e75735f72657075746174696f6e5f64656e6f6d696e61746f72000000006057906000191690557f7370656369616c5f70726f706f73616c5f636f6d6d69745f70686173650000006058906000191690557f7370656369616c5f70726f706f73616c5f70686173655f746f74616c000000006059906000191690557f636f6e6669675f7370656369616c5f71756f74615f6e756d657261746f720000605a906000191690557f636f6e6669675f7370656369616c5f71756f74615f64656e6f6d696e61746f72605b906000191690557f7370656369616c5f71756f72756d5f6e756d657261746f720000000000000000605c906000191690557f7370656369616c5f71756f72756d5f64656e6f6d696e61746f72000000000000605d906000191690557f636f6e6669675f6d61785f72657075746174696f6e5f646564756374696f6e00605e906000191690557f636f6e6669675f70756e6973686d656e745f6e6f745f6c6f636b696e67000000605f906000191690557f636f6e6669675f7265705f7065725f65787472615f71705f6e756d00000000006060906000191690557f636f6e6669675f7265705f7065725f65787472615f71705f64656e00000000006061906000191690557f636f6e6669675f6d61785f6d5f72705f646564756374696f6e000000000000006062906000191690557f636f6e6669675f7265705f7065725f65787472615f6d5f71705f6e756d0000006063906000191690557f636f6e6669675f7265705f7065725f65787472615f6d5f71705f64656e0000006064906000191690557f636f6e6669675f6d6f645f706f7274696f6e5f6e756d000000000000000000006065906000191690557f636f6e6669675f6d6f645f706f7274696f6e5f64656e000000000000000000006066906000191690557f636f6e6669675f64726166745f766f74696e675f7068617365000000000000006067906000191690557f636f6e6669675f72705f626f6f73745f7065725f6261646765000000000000006068906000191690557f636f6e6669675f636c61696d696e675f646561646c696e6500000000000000006069906000191690557f636f6e6669675f70726570726f706f73616c5f636f6c6c61746572616c000000606a906000191690557f636f6e6669675f6d61785f66756e64696e675f6e6f6e44696769780000000000606b906000191690557f636f6e6669675f6d61785f6d696c6573746f6e65735f6e6f6e44696769780000606c906000191690557f636f6e6669675f6e6f6e44696769785f70726f706f73616c5f63617000000000606d906000191690557f636f6e6669675f646561645f6475726174696f6e000000000000000000000000606e906000191690557f636f6e6669675f63765f72657075746174696f6e000000000000000000000000606f906000191690553480156200113457600080fd5b506040516020806200693783398101806040528101908080519060200190929190505050620011756018548262001188640100000000026401000000009004565b15156200118157600080fd5b5062001419565b6000808273ffffffffffffffffffffffffffffffffffffffff16636d19a8826040518163ffffffff167c0100000000000000000000000000000000000000000000000000000000028152600401602060405180830381600087803b158015620011f057600080fd5b505af115801562001205573d6000803e3d6000fd5b505050506040513d60208110156200121c57600080fd5b810190808051906020019092919050505090506000151581151514156200140d5730600260006101000a81548173ffffffffffffffffffffffffffffffffffffffff021916908373ffffffffffffffffffffffffffffffffffffffff160217905550826000806101000a81548173ffffffffffffffffffffffffffffffffffffffff021916908373ffffffffffffffffffffffffffffffffffffffff16021790555083600181600019169055506000809054906101000a900473ffffffffffffffffffffffffffffffffffffffff1673ffffffffffffffffffffffffffffffffffffffff1663c0f6ef4a600154600260009054906101000a900473ffffffffffffffffffffffffffffffffffffffff166040518363ffffffff167c01000000000000000000000000000000000000000000000000000000000281526004018083600019166000191681526020018273ffffffffffffffffffffffffffffffffffffffff1673ffffffffffffffffffffffffffffffffffffffff16815260200192505050602060405180830381600087803b158015620013ba57600080fd5b505af1158015620013cf573d6000803e3d6000fd5b505050506040513d6020811015620013e657600080fd5b810190808051906020019092919050505015156200140357600080fd5b6001915062001412565b600091505b5092915050565b61550e80620014296000396000f3006080604052600436106100fc576000357c0100000000000000000000000000000000000000000000000000000000900463ffffffff16806304f3bcec146101015780631d8ccd04146101585780633943380c146101c95780633d554f39146101fc5780633f83acff14610264578063560a25ea146102d557806368533060146103005780637d6fed801461032f5780637f6a26b61461035e57806390e353df14610389578063929066f5146103e757806393ddad0814610442578063b1e2b9dd1461048f578063c66c9efd146104d4578063d70d935814610521578063db4ecbc114610550578063f94f0f33146105a7578063fa6f3936146105f0575b600080fd5b34801561010d57600080fd5b5061011661064b565b604051808273ffffffffffffffffffffffffffffffffffffffff1673ffffffffffffffffffffffffffffffffffffffff16815260200191505060405180910390f35b34801561016457600080fd5b506101876004803603810190808035600019169060200190929190505050610670565b604051808273ffffffffffffffffffffffffffffffffffffffff1673ffffffffffffffffffffffffffffffffffffffff16815260200191505060405180910390f35b3480156101d557600080fd5b506101de610732565b60405180826000191660001916815260200191505060405180910390f35b34801561020857600080fd5b5061023f60048036038101908080356000191690602001909291908035906020019092919080359060200190929190505050610738565b6040518083151515158152602001821515151581526020019250505060405180910390f35b34801561027057600080fd5b506102936004803603810190808035600019169060200190929190505050610ce2565b604051808273ffffffffffffffffffffffffffffffffffffffff1673ffffffffffffffffffffffffffffffffffffffff16815260200191505060405180910390f35b3480156102e157600080fd5b506102ea610dbe565b6040518082815260200191505060405180910390f35b34801561030c57600080fd5b50610315610dce565b604051808215151515815260200191505060405180910390f35b34801561033b57600080fd5b50610344610dfa565b604051808215151515815260200191505060405180910390f35b34801561036a57600080fd5b50610373610e15565b6040518082815260200191505060405180910390f35b34801561039557600080fd5b506103c2600480360381019080803560001916906020019092919080359060200190929190505050610e25565b6040518083151515158152602001821515151581526020019250505060405180910390f35b3480156103f357600080fd5b50610428600480360381019080803573ffffffffffffffffffffffffffffffffffffffff169060200190929190505050611b89565b604051808215151515815260200191505060405180910390f35b34801561044e57600080fd5b506104716004803603810190808035600019169060200190929190505050611d6a565b60405180826000191660001916815260200191505060405180910390f35b34801561049b57600080fd5b506104be6004803603810190808035600019169060200190929190505050611e2c565b6040518082815260200191505060405180910390f35b3480156104e057600080fd5b506105036004803603810190808035600019169060200190929190505050611eee565b60405180826000191660001916815260200191505060405180910390f35b34801561052d57600080fd5b50610536611f93565b604051808215151515815260200191505060405180910390f35b34801561055c57600080fd5b50610565612041565b604051808273ffffffffffffffffffffffffffffffffffffffff1673ffffffffffffffffffffffffffffffffffffffff16815260200191505060405180910390f35b3480156105b357600080fd5b506105d66004803603810190808035600019169060200190929190505050612067565b604051808215151515815260200191505060405180910390f35b3480156105fc57600080fd5b50610631600480360381019080803573ffffffffffffffffffffffffffffffffffffffff1690602001909291905050506121bc565b604051808215151515815260200191505060405180910390f35b6000809054906101000a900473ffffffffffffffffffffffffffffffffffffffff1681565b600061067a61248f565b73ffffffffffffffffffffffffffffffffffffffff1663e6b39eab836040518263ffffffff167c0100000000000000000000000000000000000000000000000000000000028152600401808260001916600019168152602001915050602060405180830381600087803b1580156106f057600080fd5b505af1158015610704573d6000803e3d6000fd5b505050506040513d602081101561071a57600080fd5b81019080805190602001909291905050509050919050565b60015481565b600080600085856000151561074b6124a1565b73ffffffffffffffffffffffffffffffffffffffff166385f5276f84846040518363ffffffff167c010000000000000000000000000000000000000000000000000000000002815260040180836000191660001916815260200182815260200192505050602060405180830381600087803b1580156107c957600080fd5b505af11580156107dd573d6000803e3d6000fd5b505050506040513d60208110156107f357600080fd5b8101908080519060200190929190505050151514151561087b576040517f08c379a000000000000000000000000000000000000000000000000000000000815260040180806020018281038252601c8152602001807f766f74696e6720726f756e6420616c726561647920636c61696d65640000000081525060200191505060405180910390fd5b878760006108876124a1565b73ffffffffffffffffffffffffffffffffffffffff1663baf4266084846040518363ffffffff167c010000000000000000000000000000000000000000000000000000000002815260040180836000191660001916815260200182815260200192505050602060405180830381600087803b15801561090557600080fd5b505af1158015610919573d6000803e3d6000fd5b505050506040513d602081101561092f57600080fd5b8101908080519060200190929190505050905060008111151561095157600080fd5b61097f6109706000841461096757603d5461096b565b603b545b611e2c565b826124b390919063ffffffff16565b421015151561098d57600080fd5b610995610dce565b1515610a09576040517f08c379a000000000000000000000000000000000000000000000000000000000815260040180806020018281038252600e8152602001807f6e6f74206d61696e20706861736500000000000000000000000000000000000081525060200191505060405180910390fd5b6001965060009750889550610a3a610a22606954611e2c565b610a2c8d8d6124cf565b6124b390919063ffffffff16565b421015610a6c57610a4c8b8b8b6125f8565b809950819a50829850505050861515610a6b5787600097509750610cd4565b5b6000965060008a1115610a9f57610a858b8b888b612e34565b9650861515610a9a5787600097509750610cd4565b610b69565b878015610ab15750610ab08b613800565b5b97508715610b5e57610ac16124a1565b73ffffffffffffffffffffffffffffffffffffffff1663c362c7908c600f546040518363ffffffff167c010000000000000000000000000000000000000000000000000000000002815260040180836000191660001916815260200182815260200192505050600060405180830381600087803b158015610b4157600080fd5b505af1158015610b55573d6000803e3d6000fd5b50505050610b68565b610b678b613a2a565b5b5b8715610b7a57610b798b8b613c7d565b5b610b826124a1565b73ffffffffffffffffffffffffffffffffffffffff16633e020d2f8c8c60016040518463ffffffff167c0100000000000000000000000000000000000000000000000000000000028152600401808460001916600019168152602001838152602001821515151581526020019350505050600060405180830381600087803b158015610c0d57600080fd5b505af1158015610c21573d6000803e3d6000fd5b50505050610c2d6124a1565b73ffffffffffffffffffffffffffffffffffffffff16631ea5d62f8c8c8b6040518463ffffffff167c0100000000000000000000000000000000000000000000000000000000028152600401808460001916600019168152602001838152602001821515151581526020019350505050600060405180830381600087803b158015610cb757600080fd5b505af1158015610ccb573d6000803e3d6000fd5b50505050600196505b505050505050935093915050565b60008060009054906101000a900473ffffffffffffffffffffffffffffffffffffffff1673ffffffffffffffffffffffffffffffffffffffff16633f83acff836040518263ffffffff167c0100000000000000000000000000000000000000000000000000000000028152600401808260001916600019168152602001915050602060405180830381600087803b158015610d7c57600080fd5b505af1158015610d90573d6000803e3d6000fd5b505050506040513d6020811015610da657600080fd5b81019080805190602001909291905050509050919050565b6000610dc942614393565b905090565b6000610dd8611f93565b8015610df55750610dea603854611e2c565b610df2610dbe565b10155b905090565b6000610e07603854611e2c565b610e0f610dbe565b10905090565b6000610e204261447c565b905090565b600080610e3061546f565b6060610e3a6154ae565b8660001515610e476124a1565b73ffffffffffffffffffffffffffffffffffffffff1663395ddde9836040518263ffffffff167c0100000000000000000000000000000000000000000000000000000000028152600401808260001916600019168152602001915050602060405180830381600087803b158015610ebd57600080fd5b505af1158015610ed1573d6000803e3d6000fd5b505050506040513d6020811015610ee757600080fd5b81019080805190602001909291905050501515141515610f6f576040517f08c379a00000000000000000000000000000000000000000000000000000000081526004018080602001828103825260188152602001807f647261667420697320616c726561647920636c61696d6564000000000000000081525060200191505060405180910390fd5b876000610f7a6124a1565b73ffffffffffffffffffffffffffffffffffffffff166349a428d0836040518263ffffffff167c0100000000000000000000000000000000000000000000000000000000028152600401808260001916600019168152602001915050602060405180830381600087803b158015610ff057600080fd5b505af1158015611004573d6000803e3d6000fd5b505050506040513d602081101561101a57600080fd5b8101908080519060200190929190505050905060008111151561103c57600080fd5b61105961104a606754611e2c565b826124b390919063ffffffff16565b421015151561106757600080fd5b611158611075606954611e2c565b61114a611083606754611e2c565b61108b6124a1565b73ffffffffffffffffffffffffffffffffffffffff166349a428d08f6040518263ffffffff167c0100000000000000000000000000000000000000000000000000000000028152600401808260001916600019168152602001915050602060405180830381600087803b15801561110157600080fd5b505af1158015611115573d6000803e3d6000fd5b505050506040513d602081101561112b57600080fd5b81019080805190602001909291905050506124b390919063ffffffff16565b6124b390919063ffffffff16565b42118061116b57506111698a613800565b155b156112cc576111786124a1565b73ffffffffffffffffffffffffffffffffffffffff166382e445c68b60006040518363ffffffff167c01000000000000000000000000000000000000000000000000000000000281526004018083600019166000191681526020018215151515815260200192505050600060405180830381600087803b1580156111fb57600080fd5b505af115801561120f573d6000803e3d6000fd5b5050505061121b6124a1565b73ffffffffffffffffffffffffffffffffffffffff166327618ad98b60016040518363ffffffff167c01000000000000000000000000000000000000000000000000000000000281526004018083600019166000191681526020018215151515815260200192505050600060405180830381600087803b15801561129e57600080fd5b505af11580156112b2573d6000803e3d6000fd5b505050506112bf8a613a2a565b6000600197509750611b7c565b6112d58a61457f565b1515611349576040517f08c379a000000000000000000000000000000000000000000000000000000000815260040180806020018281038252600c8152602001807f6e6f742070726f706f736572000000000000000000000000000000000000000081525060200191505060405180910390fd5b61135161466f565b6113596148bb565b73ffffffffffffffffffffffffffffffffffffffff166312d0c13b8b6040518263ffffffff167c0100000000000000000000000000000000000000000000000000000000028152600401808260001916600019168152602001915050608060405180830381600087803b1580156113cf57600080fd5b505af11580156113e3573d6000803e3d6000fd5b505050506040513d60808110156113f957600080fd5b81019080805190602001909291908051906020019092919080519060200190929190805190602001909291905050505088606001896000018a60200183815250838152508373ffffffffffffffffffffffffffffffffffffffff1673ffffffffffffffffffffffffffffffffffffffff16815250505050600460009054906101000a900473ffffffffffffffffffffffffffffffffffffffff1673ffffffffffffffffffffffffffffffffffffffff16866060015173ffffffffffffffffffffffffffffffffffffffff1614156115e5576114d26148cd565b73ffffffffffffffffffffffffffffffffffffffff166385f0e4bf8a60016040518363ffffffff167c0100000000000000000000000000000000000000000000000000000000028152600401808381526020018215151515815260200192505050600060405180830381600087803b15801561154d57600080fd5b505af1158015611561573d6000803e3d6000fd5b505050506040513d6000823e3d601f19601f82011682018060405250602081101561158b57600080fd5b8101908080516401000000008111156115a357600080fd5b828101905060208101848111156115b957600080fd5b81518560208202830111640100000000821117156115d657600080fd5b50509291905050509450611734565b6115ed6148cd565b73ffffffffffffffffffffffffffffffffffffffff166340c7174e87606001518b60016040518463ffffffff167c0100000000000000000000000000000000000000000000000000000000028152600401808473ffffffffffffffffffffffffffffffffffffffff1673ffffffffffffffffffffffffffffffffffffffff168152602001838152602001821515151581526020019350505050600060405180830381600087803b1580156116a057600080fd5b505af11580156116b4573d6000803e3d6000fd5b505050506040513d6000823e3d601f19601f8201168201806040525060208110156116de57600080fd5b8101908080516401000000008111156116f657600080fd5b8281019050602081018481111561170c57600080fd5b815185602082028301116401000000008211171561172957600080fd5b505092919050505094505b61173c6124a1565b73ffffffffffffffffffffffffffffffffffffffff1663bb3b5f6d8b876040518363ffffffff167c010000000000000000000000000000000000000000000000000000000002815260040180836000191660001916815260200180602001828103825283818151815260200191508051906020019060200280838360005b838110156117d55780820151818401526020810190506117ba565b5050505090500193505050506040805180830381600087803b1580156117fa57600080fd5b505af115801561180e573d6000803e3d6000fd5b505050506040513d604081101561182457600080fd5b81019080805190602001909291908051906020019092919050505085600001866020018281525082815250505084600186510381518110151561186357fe5b90602001906020020151866060019073ffffffffffffffffffffffffffffffffffffffff16908173ffffffffffffffffffffffffffffffffffffffff16815250506118bf846000015187600001516124b390919063ffffffff16565b8660000181815250506118e3846020015187602001516124b390919063ffffffff16565b8660200181815250506118f46148df565b73ffffffffffffffffffffffffffffffffffffffff1663bbb03dc26040518163ffffffff167c0100000000000000000000000000000000000000000000000000000000028152600401602060405180830381600087803b15801561195757600080fd5b505af115801561196b573d6000803e3d6000fd5b505050506040513d602081101561198157600080fd5b810190808051906020019092919050505073ffffffffffffffffffffffffffffffffffffffff168560018751038151811015156119ba57fe5b9060200190602002015173ffffffffffffffffffffffffffffffffffffffff161415611a8b576119ea8a876148f1565b9750600196506119f86148bb565b73ffffffffffffffffffffffffffffffffffffffff1663d590f4ab8b6040518263ffffffff167c0100000000000000000000000000000000000000000000000000000000028152600401808260001916600019168152602001915050600060405180830381600087803b158015611a6e57600080fd5b505af1158015611a82573d6000803e3d6000fd5b50505050611b7b565b611a936148bb565b73ffffffffffffffffffffffffffffffffffffffff16636e3f777c8b886060015189600001518a6020015160006040518663ffffffff167c01000000000000000000000000000000000000000000000000000000000281526004018086600019166000191681526020018573ffffffffffffffffffffffffffffffffffffffff1673ffffffffffffffffffffffffffffffffffffffff16815260200184815260200183815260200182815260200195505050505050600060405180830381600087803b158015611b6257600080fd5b505af1158015611b76573d6000803e3d6000fd5b505050505b5b5050505050509250929050565b6000611b93610e15565b611b9b614e22565b73ffffffffffffffffffffffffffffffffffffffff1663cefc2bff846040518263ffffffff167c0100000000000000000000000000000000000000000000000000000000028152600401808273ffffffffffffffffffffffffffffffffffffffff1673ffffffffffffffffffffffffffffffffffffffff168152602001915050602060405180830381600087803b158015611c3557600080fd5b505af1158015611c49573d6000803e3d6000fd5b505050506040513d6020811015611c5f57600080fd5b8101908080519060200190929190505050148015611d635750611c83603554611e2c565b611c8b6148df565b73ffffffffffffffffffffffffffffffffffffffff1663cd094a27846040518263ffffffff167c0100000000000000000000000000000000000000000000000000000000028152600401808273ffffffffffffffffffffffffffffffffffffffff1673ffffffffffffffffffffffffffffffffffffffff168152602001915050602060405180830381600087803b158015611d2557600080fd5b505af1158015611d39573d6000803e3d6000fd5b505050506040513d6020811015611d4f57600080fd5b810190808051906020019092919050505010155b9050919050565b6000611d7461248f565b73ffffffffffffffffffffffffffffffffffffffff1663c0a8405d836040518263ffffffff167c0100000000000000000000000000000000000000000000000000000000028152600401808260001916600019168152602001915050602060405180830381600087803b158015611dea57600080fd5b505af1158015611dfe573d6000803e3d6000fd5b505050506040513d6020811015611e1457600080fd5b81019080805190602001909291905050509050919050565b6000611e3661248f565b73ffffffffffffffffffffffffffffffffffffffff1663734c1168836040518263ffffffff167c0100000000000000000000000000000000000000000000000000000000028152600401808260001916600019168152602001915050602060405180830381600087803b158015611eac57600080fd5b505af1158015611ec0573d6000803e3d6000fd5b505050506040513d6020811015611ed657600080fd5b81019080805190602001909291905050509050919050565b6000816013546040516020018083600019166000191681526020018260001916600019168152602001925050506040516020818303038152906040526040518082805190602001908083835b602083101515611f5f5780518252602082019150602081019050602083039250611f3a565b6001836020036101000a03801982511681845116808217855250505050505090500191505060405180910390209050919050565b6000611f9d614e34565b73ffffffffffffffffffffffffffffffffffffffff16638bc865fd6040518163ffffffff167c0100000000000000000000000000000000000000000000000000000000028152600401602060405180830381600087803b15801561200057600080fd5b505af1158015612014573d6000803e3d6000fd5b505050506040513d602081101561202a57600080fd5b810190808051906020019092919050505015905090565b600260009054906101000a900473ffffffffffffffffffffffffffffffffffffffff1681565b60006120716124a1565b73ffffffffffffffffffffffffffffffffffffffff1663d8d50179836040518263ffffffff167c010000000000000000000000000000000000000000000000000000000002815260040180826000191660001916815260200191505061014060405180830381600087803b1580156120e857600080fd5b505af11580156120fc573d6000803e3d6000fd5b505050506040513d61014081101561211357600080fd5b8101908080519060200190929190805190602001909291908051906020019092919080519060200190929190805190602001909291908051906020019092919080519060200190929190805190602001909291908051906020019092919080519060200190929190505050909192939495969798509091929394959697509091929394959650909192939495509091929394509091929350909192509091505080915050919050565b60006121c6610e15565b6121ce614e22565b73ffffffffffffffffffffffffffffffffffffffff1663cefc2bff846040518263ffffffff167c0100000000000000000000000000000000000000000000000000000000028152600401808273ffffffffffffffffffffffffffffffffffffffff1673ffffffffffffffffffffffffffffffffffffffff168152602001915050602060405180830381600087803b15801561226857600080fd5b505af115801561227c573d6000803e3d6000fd5b505050506040513d602081101561229257600080fd5b810190808051906020019092919050505014801561239657506122b6603654611e2c565b6122be6148df565b73ffffffffffffffffffffffffffffffffffffffff1663cd094a27846040518263ffffffff167c0100000000000000000000000000000000000000000000000000000000028152600401808273ffffffffffffffffffffffffffffffffffffffff1673ffffffffffffffffffffffffffffffffffffffff168152602001915050602060405180830381600087803b15801561235857600080fd5b505af115801561236c573d6000803e3d6000fd5b505050506040513d602081101561238257600080fd5b810190808051906020019092919050505010155b801561248857506123a8603754611e2c565b6123b0614e46565b73ffffffffffffffffffffffffffffffffffffffff16639c89a0e2846040518263ffffffff167c0100000000000000000000000000000000000000000000000000000000028152600401808273ffffffffffffffffffffffffffffffffffffffff1673ffffffffffffffffffffffffffffffffffffffff168152602001915050602060405180830381600087803b15801561244a57600080fd5b505af115801561245e573d6000803e3d6000fd5b505050506040513d602081101561247457600080fd5b810190808051906020019092919050505010155b9050919050565b600061249c602b54610ce2565b905090565b60006124ae602554610ce2565b905090565b600081830190508281101515156124c657fe5b80905092915050565b6000806124da6124a1565b73ffffffffffffffffffffffffffffffffffffffff1663baf4266085856040518363ffffffff167c010000000000000000000000000000000000000000000000000000000002815260040180836000191660001916815260200182815260200192505050602060405180830381600087803b15801561255857600080fd5b505af115801561256c573d6000803e3d6000fd5b505050506040513d602081101561258257600080fd5b810190808051906020019092919050505090506000811115156125a457600080fd5b60008314156125d1576125ca6125bb603b54611e2c565b826124b390919063ffffffff16565b91506125f1565b6125ee6125df603d54611e2c565b826124b390919063ffffffff16565b91505b5092915050565b600080600061260561546f565b606060006126116154ae565b61261961466f565b6126228a61457f565b1515612696576040517f08c379a000000000000000000000000000000000000000000000000000000000815260040180806020018281038252600c8152602001807f6e6f742070726f706f736572000000000000000000000000000000000000000081525060200191505060405180910390fd5b61269e6148bb565b73ffffffffffffffffffffffffffffffffffffffff166312d0c13b8b6040518263ffffffff167c0100000000000000000000000000000000000000000000000000000000028152600401808260001916600019168152602001915050608060405180830381600087803b15801561271457600080fd5b505af1158015612728573d6000803e3d6000fd5b505050506040513d608081101561273e57600080fd5b81019080805190602001909291908051906020019092919080519060200190929190805190602001909291905050505086606001876000018860200183815250838152508373ffffffffffffffffffffffffffffffffffffffff1673ffffffffffffffffffffffffffffffffffffffff16815250505050600460009054906101000a900473ffffffffffffffffffffffffffffffffffffffff1673ffffffffffffffffffffffffffffffffffffffff16846060015173ffffffffffffffffffffffffffffffffffffffff16141561292a576128176148cd565b73ffffffffffffffffffffffffffffffffffffffff1663f4f9fadc8960016040518363ffffffff167c0100000000000000000000000000000000000000000000000000000000028152600401808381526020018215151515815260200192505050600060405180830381600087803b15801561289257600080fd5b505af11580156128a6573d6000803e3d6000fd5b505050506040513d6000823e3d601f19601f8201168201806040525060208110156128d057600080fd5b8101908080516401000000008111156128e857600080fd5b828101905060208101848111156128fe57600080fd5b815185602082028301116401000000008211171561291b57600080fd5b50509291905050509250612a9c565b6129326148cd565b73ffffffffffffffffffffffffffffffffffffffff166396fe8e6585606001518a60016040518463ffffffff167c0100000000000000000000000000000000000000000000000000000000028152600401808473ffffffffffffffffffffffffffffffffffffffff1673ffffffffffffffffffffffffffffffffffffffff168152602001838152602001821515151581526020019350505050600060405180830381600087803b1580156129e557600080fd5b505af11580156129f9573d6000803e3d6000fd5b505050506040513d6000823e3d601f19601f820116820180604052506020811015612a2357600080fd5b810190808051640100000000811115612a3b57600080fd5b82810190506020810184811115612a5157600080fd5b8151856020820283011164010000000082111715612a6e57600080fd5b50509291905050509250600083511415612a9b5787612a8e858c8c614e58565b6001965096509650612e27565b5b826001845103815181101515612aae57fe5b906020019060200201519150612ac26124a1565b73ffffffffffffffffffffffffffffffffffffffff1663a1e55acf8b8b866040518463ffffffff167c010000000000000000000000000000000000000000000000000000000002815260040180846000191660001916815260200183815260200180602001828103825283818151815260200191508051906020019060200280838360005b83811015612b62578082015181840152602081019050612b47565b505050509050019450505050506040805180830381600087803b158015612b8857600080fd5b505af1158015612b9c573d6000803e3d6000fd5b505050506040513d6040811015612bb257600080fd5b810190808051906020019092919080519060200190929190505050826000018360200182815250828152505050612bfa816000015185600001516124b390919063ffffffff16565b846000018181525050612c1e816020015185602001516124b390919063ffffffff16565b846020018181525050612c2f6148bb565b73ffffffffffffffffffffffffffffffffffffffff16636e3f777c8b848760000151886020015160006040518663ffffffff167c01000000000000000000000000000000000000000000000000000000000281526004018086600019166000191681526020018573ffffffffffffffffffffffffffffffffffffffff1673ffffffffffffffffffffffffffffffffffffffff16815260200184815260200183815260200182815260200195505050505050600060405180830381600087803b158015612cfa57600080fd5b505af1158015612d0e573d6000803e3d6000fd5b50505050612d1a6148df565b73ffffffffffffffffffffffffffffffffffffffff166382624a2e6040518163ffffffff167c0100000000000000000000000000000000000000000000000000000000028152600401602060405180830381600087803b158015612d7d57600080fd5b505af1158015612d91573d6000803e3d6000fd5b505050506040513d6020811015612da757600080fd5b810190808051906020019092919050505073ffffffffffffffffffffffffffffffffffffffff168273ffffffffffffffffffffffffffffffffffffffff16141515612dff576000806000829250965096509650612e27565b612e1383518961500990919063ffffffff16565b965060019450612e24848b8b614e58565b95505b5050505093509350939050565b60008060606000612e436154c8565b6000871415612e5557600094506137f4565b612e5d6148bb565b73ffffffffffffffffffffffffffffffffffffffff166312d0c13b612e818b611eee565b6040518263ffffffff167c0100000000000000000000000000000000000000000000000000000000028152600401808260001916600019168152602001915050608060405180830381600087803b158015612edb57600080fd5b505af1158015612eef573d6000803e3d6000fd5b505050506040513d6080811015612f0557600080fd5b810190808051906020019092919080519060200190929190805190602001909291908051906020019092919050505090915090505080945050600460009054906101000a900473ffffffffffffffffffffffffffffffffffffffff1673ffffffffffffffffffffffffffffffffffffffff168473ffffffffffffffffffffffffffffffffffffffff1614156130af57612f9c6148cd565b73ffffffffffffffffffffffffffffffffffffffff1663f4f9fadc8860016040518363ffffffff167c0100000000000000000000000000000000000000000000000000000000028152600401808381526020018215151515815260200192505050600060405180830381600087803b15801561301757600080fd5b505af115801561302b573d6000803e3d6000fd5b505050506040513d6000823e3d601f19601f82011682018060405250602081101561305557600080fd5b81019080805164010000000081111561306d57600080fd5b8281019050602081018481111561308357600080fd5b81518560208202830111640100000000821117156130a057600080fd5b505092919050505092506131fa565b6130b76148cd565b73ffffffffffffffffffffffffffffffffffffffff166396fe8e65858960016040518463ffffffff167c0100000000000000000000000000000000000000000000000000000000028152600401808473ffffffffffffffffffffffffffffffffffffffff1673ffffffffffffffffffffffffffffffffffffffff168152602001838152602001821515151581526020019350505050600060405180830381600087803b15801561316657600080fd5b505af115801561317a573d6000803e3d6000fd5b505050506040513d6000823e3d601f19601f8201168201806040525060208110156131a457600080fd5b8101908080516401000000008111156131bc57600080fd5b828101905060208101848111156131d257600080fd5b81518560208202830111640100000000821117156131ef57600080fd5b505092919050505092505b82600184510381518110151561320c57fe5b90602001906020020151915085156133c4576132266124a1565b73ffffffffffffffffffffffffffffffffffffffff1663e81362fe8a61325660018c61500990919063ffffffff16565b8660016040518563ffffffff167c01000000000000000000000000000000000000000000000000000000000281526004018085600019166000191681526020018481526020018060200183151515158152602001828103825284818151815260200191508051906020019060200280838360005b838110156132e55780820151818401526020810190506132ca565b5050505090500195505050505050600060405180830381600087803b15801561330d57600080fd5b505af1158015613321573d6000803e3d6000fd5b505050506040513d6000823e3d601f19601f82011682018060405250604081101561334b57600080fd5b81019080805164010000000081111561336357600080fd5b8281019050602081018481111561337957600080fd5b815185602082028301116401000000008211171561339657600080fd5b5050929190602001805190602001909291905050508191508260200183600001828152508290525050613566565b6133cc6124a1565b73ffffffffffffffffffffffffffffffffffffffff1663e81362fe8a6133fc60018c61500990919063ffffffff16565b8660006040518563ffffffff167c01000000000000000000000000000000000000000000000000000000000281526004018085600019166000191681526020018481526020018060200183151515158152602001828103825284818151815260200191508051906020019060200280838360005b8381101561348b578082015181840152602081019050613470565b5050505090500195505050505050600060405180830381600087803b1580156134b357600080fd5b505af11580156134c7573d6000803e3d6000fd5b505050506040513d6000823e3d601f19601f8201168201806040525060408110156134f157600080fd5b81019080805164010000000081111561350957600080fd5b8281019050602081018481111561351f57600080fd5b815185602082028301116401000000008211171561353c57600080fd5b50509291906020018051906020019092919050505081915082602001836000018281525082905250505b6000816000015111156135865761358581602001518260000151615022565b5b61358e6148df565b73ffffffffffffffffffffffffffffffffffffffff166382624a2e6040518163ffffffff167c0100000000000000000000000000000000000000000000000000000000028152600401602060405180830381600087803b1580156135f157600080fd5b505af1158015613605573d6000803e3d6000fd5b505050506040513d602081101561361b57600080fd5b810190808051906020019092919050505073ffffffffffffffffffffffffffffffffffffffff168273ffffffffffffffffffffffffffffffffffffffff161415613706576136676148bb565b73ffffffffffffffffffffffffffffffffffffffff1663d590f4ab61368b8b611eee565b6040518263ffffffff167c0100000000000000000000000000000000000000000000000000000000028152600401808260001916600019168152602001915050600060405180830381600087803b1580156136e557600080fd5b505af11580156136f9573d6000803e3d6000fd5b50505050600194506137f3565b61370e6148bb565b73ffffffffffffffffffffffffffffffffffffffff16636e3f777c6137328b611eee565b8460008060006040518663ffffffff167c01000000000000000000000000000000000000000000000000000000000281526004018086600019166000191681526020018573ffffffffffffffffffffffffffffffffffffffff1673ffffffffffffffffffffffffffffffffffffffff16815260200184815260200183815260200182815260200195505050505050600060405180830381600087803b1580156137da57600080fd5b505af11580156137ee573d6000803e3d6000fd5b505050505b5b50505050949350505050565b60008061380b6124a1565b73ffffffffffffffffffffffffffffffffffffffff1663d8d50179846040518263ffffffff167c010000000000000000000000000000000000000000000000000000000002815260040180826000191660001916815260200191505061014060405180830381600087803b15801561388257600080fd5b505af1158015613896573d6000803e3d6000fd5b505050506040513d6101408110156138ad57600080fd5b81019080805190602001909291908051906020019092919080519060200190929190805190602001909291908051906020019092919080519060200190929190805190602001909291908051906020019092919080519060200190929190805190602001909291905050509091929394959697985090919293949596975090919293949596509091929394955090919293945090919293509091925090915090508091505060019150801515613a2457613968606d54611e2c565b613970615200565b73ffffffffffffffffffffffffffffffffffffffff1663198c6e24613993610e15565b6040518263ffffffff167c010000000000000000000000000000000000000000000000000000000002815260040180828152602001915050602060405180830381600087803b1580156139e557600080fd5b505af11580156139f9573d6000803e3d6000fd5b505050506040513d6020811015613a0f57600080fd5b81019080805190602001909291905050501091505b50919050565b613a326124a1565b73ffffffffffffffffffffffffffffffffffffffff1663c362c790826010546040518363ffffffff167c010000000000000000000000000000000000000000000000000000000002815260040180836000191660001916815260200182815260200192505050600060405180830381600087803b158015613ab257600080fd5b505af1158015613ac6573d6000803e3d6000fd5b50505050613ad2615212565b73ffffffffffffffffffffffffffffffffffffffff16637e71332b613af56124a1565b73ffffffffffffffffffffffffffffffffffffffff16635b712eb6846040518263ffffffff167c0100000000000000000000000000000000000000000000000000000000028152600401808260001916600019168152602001915050602060405180830381600087803b158015613b6b57600080fd5b505af1158015613b7f573d6000803e3d6000fd5b505050506040513d6020811015613b9557600080fd5b8101908080519060200190929190505050836040518363ffffffff167c0100000000000000000000000000000000000000000000000000000000028152600401808373ffffffffffffffffffffffffffffffffffffffff1673ffffffffffffffffffffffffffffffffffffffff168152602001826000191660001916815260200192505050602060405180830381600087803b158015613c3457600080fd5b505af1158015613c48573d6000803e3d6000fd5b505050506040513d6020811015613c5e57600080fd5b81019080805190602001909291905050501515613c7a57600080fd5b50565b6060600080613c8a6148bb565b73ffffffffffffffffffffffffffffffffffffffff1663d590f4ab866040518263ffffffff167c0100000000000000000000000000000000000000000000000000000000028152600401808260001916600019168152602001915050600060405180830381600087803b158015613d0057600080fd5b505af1158015613d14573d6000803e3d6000fd5b50505050613d206124a1565b73ffffffffffffffffffffffffffffffffffffffff16637246d5a7866040518263ffffffff167c0100000000000000000000000000000000000000000000000000000000028152600401808260001916600019168152602001915050600060405180830381600087803b158015613d9657600080fd5b505af1158015613daa573d6000803e3d6000fd5b505050506040513d6000823e3d601f19601f820116820180604052506040811015613dd457600080fd5b810190808051640100000000811115613dec57600080fd5b82810190506020810184811115613e0257600080fd5b8151856020820283011164010000000082111715613e1f57600080fd5b50509291906020018051906020019092919050505050809350508251841415613ee257613e4b85613a2a565b613e536124a1565b73ffffffffffffffffffffffffffffffffffffffff166395ecdf9e866040518263ffffffff167c0100000000000000000000000000000000000000000000000000000000028152600401808260001916600019168152602001915050600060405180830381600087803b158015613ec957600080fd5b505af1158015613edd573d6000803e3d6000fd5b505050505b613eea6124a1565b73ffffffffffffffffffffffffffffffffffffffff1663d8d50179866040518263ffffffff167c010000000000000000000000000000000000000000000000000000000002815260040180826000191660001916815260200191505061014060405180830381600087803b158015613f6157600080fd5b505af1158015613f75573d6000803e3d6000fd5b505050506040513d610140811015613f8c57600080fd5b81019080805190602001909291908051906020019092919080519060200190929190805190602001909291908051906020019092919080519060200190929190805190602001909291908051906020019092919080519060200190929190805190602001909291905050509091929394959697985090919293949596975090919293949596509091929394955090919293945090919293509091925090915090508092505060008414801561403f575081155b156140da5761404c615200565b73ffffffffffffffffffffffffffffffffffffffff16635552f20061406f610e15565b6040518263ffffffff167c010000000000000000000000000000000000000000000000000000000002815260040180828152602001915050600060405180830381600087803b1580156140c157600080fd5b505af11580156140d5573d6000803e3d6000fd5b505050505b6140e26124a1565b73ffffffffffffffffffffffffffffffffffffffff16633a85b82286866040518363ffffffff167c010000000000000000000000000000000000000000000000000000000002815260040180836000191660001916815260200182815260200192505050602060405180830381600087803b15801561416057600080fd5b505af1158015614174573d6000803e3d6000fd5b505050506040513d602081101561418a57600080fd5b810190808051906020019092919050505090506141a5614e46565b73ffffffffffffffffffffffffffffffffffffffff16631eee01546141c86124a1565b73ffffffffffffffffffffffffffffffffffffffff16635b712eb6886040518263ffffffff167c0100000000000000000000000000000000000000000000000000000000028152600401808260001916600019168152602001915050602060405180830381600087803b15801561423e57600080fd5b505af1158015614252573d6000803e3d6000fd5b505050506040513d602081101561426857600080fd5b81019080805190602001909291905050506142b269021e19e0c9bab24000006142a486614296605554611e2c565b61522490919063ffffffff16565b61525c90919063ffffffff16565b6142ba610e15565b6040518463ffffffff167c0100000000000000000000000000000000000000000000000000000000028152600401808473ffffffffffffffffffffffffffffffffffffffff1673ffffffffffffffffffffffffffffffffffffffff16815260200183815260200182815260200193505050506040805180830381600087803b15801561434557600080fd5b505af1158015614359573d6000803e3d6000fd5b505050506040513d604081101561436f57600080fd5b81019080805190602001909291908051906020019092919050505050505050505050565b600061439d615272565b15156143a857600080fd5b6143b3603954611e2c565b61446b6143be614e34565b73ffffffffffffffffffffffffffffffffffffffff1663d9c6bb206040518163ffffffff167c0100000000000000000000000000000000000000000000000000000000028152600401602060405180830381600087803b15801561442157600080fd5b505af1158015614435573d6000803e3d6000fd5b505050506040513d602081101561444b57600080fd5b81019080805190602001909291905050508461500990919063ffffffff16565b81151561447457fe5b069050919050565b6000614486615272565b151561449157600080fd5b614578600161456a6144a4603954611e2c565b61455c6144af614e34565b73ffffffffffffffffffffffffffffffffffffffff1663d9c6bb206040518163ffffffff167c0100000000000000000000000000000000000000000000000000000000028152600401602060405180830381600087803b15801561451257600080fd5b505af1158015614526573d6000803e3d6000fd5b505050506040513d602081101561453c57600080fd5b81019080805190602001909291905050508761500990919063ffffffff16565b61525c90919063ffffffff16565b6124b390919063ffffffff16565b9050919050565b60006145896124a1565b73ffffffffffffffffffffffffffffffffffffffff16635b712eb6836040518263ffffffff167c0100000000000000000000000000000000000000000000000000000000028152600401808260001916600019168152602001915050602060405180830381600087803b1580156145ff57600080fd5b505af1158015614613573d6000803e3d6000fd5b505050506040513d602081101561462957600080fd5b810190808051906020019092919050505073ffffffffffffffffffffffffffffffffffffffff163373ffffffffffffffffffffffffffffffffffffffff16149050919050565b614677610dce565b15156146eb576040517f08c379a000000000000000000000000000000000000000000000000000000000815260040180806020018281038252600e8152602001807f6e6f74206d61696e20706861736500000000000000000000000000000000000081525060200191505060405180910390fd5b6146f433611b89565b1515614768576040517f08c379a000000000000000000000000000000000000000000000000000000000815260040180806020018281038252600f8152602001807f6e6f74207061727469636970616e74000000000000000000000000000000000081525060200191505060405180910390fd5b614770615322565b73ffffffffffffffffffffffffffffffffffffffff16634a9aedc4336040518263ffffffff167c0100000000000000000000000000000000000000000000000000000000028152600401808273ffffffffffffffffffffffffffffffffffffffff1673ffffffffffffffffffffffffffffffffffffffff168152602001915050602060405180830381600087803b15801561480a57600080fd5b505af115801561481e573d6000803e3d6000fd5b505050506040513d602081101561483457600080fd5b810190808051906020019092919050505015156148b9576040517f08c379a00000000000000000000000000000000000000000000000000000000081526004018080602001828103825260108152602001807f6e6f74206b796320617070726f7665640000000000000000000000000000000081525060200191505060405180910390fd5b565b60006148c8602f54610ce2565b905090565b60006148da602354610ce2565b905090565b60006148ec602c54610ce2565b905090565b6000806148fc615334565b73ffffffffffffffffffffffffffffffffffffffff1663535199aa856040518263ffffffff167c0100000000000000000000000000000000000000000000000000000000028152600401808260001916600019168152602001915050602060405180830381600087803b15801561497257600080fd5b505af1158015614986573d6000803e3d6000fd5b505050506040513d602081101561499c57600080fd5b81019080805190602001909291905050506149c8846020015185600001516124b390919063ffffffff16565b118015614a9257506149d8615334565b73ffffffffffffffffffffffffffffffffffffffff1663d32d0499846000015185602001516040518363ffffffff167c01000000000000000000000000000000000000000000000000000000000281526004018083815260200182815260200192505050602060405180830381600087803b158015614a5657600080fd5b505af1158015614a6a573d6000803e3d6000fd5b505050506040513d6020811015614a8057600080fd5b81019080805190602001909291905050505b15614ccb57614a9f6124a1565b73ffffffffffffffffffffffffffffffffffffffff166382e445c68560016040518363ffffffff167c01000000000000000000000000000000000000000000000000000000000281526004018083600019166000191681526020018215151515815260200192505050600060405180830381600087803b158015614b2257600080fd5b505af1158015614b36573d6000803e3d6000fd5b50505050614c0f614b48606754611e2c565b614b506124a1565b73ffffffffffffffffffffffffffffffffffffffff166349a428d0876040518263ffffffff167c0100000000000000000000000000000000000000000000000000000000028152600401808260001916600019168152602001915050602060405180830381600087803b158015614bc657600080fd5b505af1158015614bda573d6000803e3d6000fd5b505050506040513d6020811015614bf057600080fd5b81019080805190602001909291905050506124b390919063ffffffff16565b9050614c196124a1565b73ffffffffffffffffffffffffffffffffffffffff1663344e436e856000614c42600086615346565b6040518463ffffffff167c01000000000000000000000000000000000000000000000000000000000281526004018084600019166000191681526020018381526020018281526020019350505050600060405180830381600087803b158015614caa57600080fd5b505af1158015614cbe573d6000803e3d6000fd5b5050505060019150614d78565b614cd36124a1565b73ffffffffffffffffffffffffffffffffffffffff166382e445c68560006040518363ffffffff167c01000000000000000000000000000000000000000000000000000000000281526004018083600019166000191681526020018215151515815260200192505050600060405180830381600087803b158015614d5657600080fd5b505af1158015614d6a573d6000803e3d6000fd5b50505050614d7784613a2a565b5b614d806124a1565b73ffffffffffffffffffffffffffffffffffffffff166327618ad98560016040518363ffffffff167c01000000000000000000000000000000000000000000000000000000000281526004018083600019166000191681526020018215151515815260200192505050600060405180830381600087803b158015614e0357600080fd5b505af1158015614e17573d6000803e3d6000fd5b505050505092915050565b6000614e2f602d54610ce2565b905090565b6000614e41602754610ce2565b905090565b6000614e53602954610ce2565b905090565b6000614e62615334565b73ffffffffffffffffffffffffffffffffffffffff166377ebd46884846040518363ffffffff167c010000000000000000000000000000000000000000000000000000000002815260040180836000191660001916815260200182815260200192505050602060405180830381600087803b158015614ee057600080fd5b505af1158015614ef4573d6000803e3d6000fd5b505050506040513d6020811015614f0a57600080fd5b8101908080519060200190929190505050614f36856020015186600001516124b390919063ffffffff16565b1180156150005750614f46615334565b73ffffffffffffffffffffffffffffffffffffffff166336dfb1c2856000015186602001516040518363ffffffff167c01000000000000000000000000000000000000000000000000000000000281526004018083815260200182815260200192505050602060405180830381600087803b158015614fc457600080fd5b505af1158015614fd8573d6000803e3d6000fd5b505050506040513d6020811015614fee57600080fd5b81019080805190602001909291905050505b90509392505050565b600082821115151561501757fe5b818303905092915050565b6000806000806000615035605354611e2c565b9450615042605654611e2c565b935061504f605754611e2c565b92506150ae615071615062606154611e2c565b8561522490919063ffffffff16565b6150a061507f606054611e2c565b615092888a61522490919063ffffffff16565b61522490919063ffffffff16565b61525c90919063ffffffff16565b9150600090505b858110156151f7576150dd87828151811015156150ce57fe5b90602001906020020151611b89565b156151ea576150ea614e46565b73ffffffffffffffffffffffffffffffffffffffff1663ded86d68888381518110151561511357fe5b90602001906020020151846040518363ffffffff167c0100000000000000000000000000000000000000000000000000000000028152600401808373ffffffffffffffffffffffffffffffffffffffff1673ffffffffffffffffffffffffffffffffffffffff168152602001828152602001925050506040805180830381600087803b1580156151a257600080fd5b505af11580156151b6573d6000803e3d6000fd5b505050506040513d60408110156151cc57600080fd5b81019080805190602001909291908051906020019092919050505050505b80806001019150506150b5565b50505050505050565b600061520d602654610ce2565b905090565b600061521f601e54610ce2565b905090565b6000808314156152375760009050615256565b818302905081838281151561524857fe5b0414151561525257fe5b8090505b92915050565b6000818381151561526957fe5b04905092915050565b60008061527d614e34565b73ffffffffffffffffffffffffffffffffffffffff1663d9c6bb206040518163ffffffff167c0100000000000000000000000000000000000000000000000000000000028152600401602060405180830381600087803b1580156152e057600080fd5b505af11580156152f4573d6000803e3d6000fd5b505050506040513d602081101561530a57600080fd5b81019080805190602001909291905050501415905090565b600061532f602854610ce2565b905090565b6000615341602454610ce2565b905090565b600080600061535484615441565b91506153726000861461536957603d5461536d565b603b545b611e2c565b9050839250615382603854611e2c565b61538b85614393565b10156153cf576153c86153b96153a086614393565b6153ab603854611e2c565b61500990919063ffffffff16565b856124b390919063ffffffff16565b9250615439565b6153ec6153dd606954611e2c565b826124b390919063ffffffff16565b821015615438576154356154266001615418615409603854611e2c565b866124b390919063ffffffff16565b6124b390919063ffffffff16565b856124b390919063ffffffff16565b92505b5b505092915050565b600061546861544f83614393565b61545a603954611e2c565b61500990919063ffffffff16565b9050919050565b608060405190810160405280600081526020016000815260200160008152602001600073ffffffffffffffffffffffffffffffffffffffff1681525090565b604080519081016040528060008152602001600081525090565b6040805190810160405280600081526020016060815250905600a165627a7a72305820002a661480954fc4a714d9278974f0833b394465263421181a078285e0acb7e10029",
  "source": "pragma solidity ^0.4.25;\n\nimport \"../common/DaoCommon.sol\";\nimport \"../service/DaoCalculatorService.sol\";\nimport \"./DaoFundingManager.sol\";\nimport \"./DaoRewardsManager.sol\";\nimport \"../lib/DaoIntermediateStructs.sol\";\nimport \"../lib/DaoStructs.sol\";\n\n\n/**\n@title Contract to claim voting results\n@author Digix Holdings\n*/\ncontract DaoVotingClaims is DaoCommon {\n    using DaoIntermediateStructs for DaoIntermediateStructs.VotingCount;\n    using DaoIntermediateStructs for DaoIntermediateStructs.Users;\n    using DaoStructs for DaoStructs.IntermediateResults;\n\n    function daoCalculatorService()\n        internal\n        view\n        returns (DaoCalculatorService _contract)\n    {\n        _contract = DaoCalculatorService(get_contract(CONTRACT_SERVICE_DAO_CALCULATOR));\n    }\n\n    function daoFundingManager()\n        internal\n        view\n        returns (DaoFundingManager _contract)\n    {\n        _contract = DaoFundingManager(get_contract(CONTRACT_DAO_FUNDING_MANAGER));\n    }\n\n    function daoRewardsManager()\n        internal\n        view\n        returns (DaoRewardsManager _contract)\n    {\n        _contract = DaoRewardsManager(get_contract(CONTRACT_DAO_REWARDS_MANAGER));\n    }\n\n    constructor(address _resolver) public {\n        require(init(CONTRACT_DAO_VOTING_CLAIMS, _resolver));\n    }\n\n\n    /**\n    @notice Function to claim the draft voting result (can only be called by the proposal proposer)\n    @dev The founder/or anyone is supposed to call this function after the claiming deadline has passed, to clean it up and close this proposal.\n         If this voting fails, the collateral will be refunded\n    @param _proposalId ID of the proposal\n    @param _operations Number of operations to do in this call\n    @return {\n      \"_passed\": \"Boolean, true if the draft voting has passed, false if the claiming deadline has passed or the voting has failed\",\n      \"_done\": \"Boolean, true if the calculation has finished\"\n    }\n    */\n    function claimDraftVotingResult(\n        bytes32 _proposalId,\n        uint256 _operations\n    )\n        public\n        ifDraftNotClaimed(_proposalId)\n        ifAfterDraftVotingPhase(_proposalId)\n        returns (bool _passed, bool _done)\n    {\n        // if after the claiming deadline, or the limit for non-digix proposals is reached, its auto failed\n        if (now > daoStorage().readProposalDraftVotingTime(_proposalId)\n                    .add(getUintConfig(CONFIG_DRAFT_VOTING_PHASE))\n                    .add(getUintConfig(CONFIG_VOTE_CLAIMING_DEADLINE))\n            || !isNonDigixProposalsWithinLimit(_proposalId))\n        {\n            daoStorage().setProposalDraftPass(_proposalId, false);\n            daoStorage().setDraftVotingClaim(_proposalId, true);\n            processCollateralRefund(_proposalId);\n            return (false, true);\n        }\n        require(isFromProposer(_proposalId), \"not proposer\");\n        senderCanDoProposerOperations();\n\n        // get the previously stored intermediary state\n        DaoStructs.IntermediateResults memory _currentResults;\n        (\n            _currentResults.countedUntil,\n            _currentResults.currentForCount,\n            _currentResults.currentAgainstCount,\n        ) = intermediateResultsStorage().getIntermediateResults(_proposalId);\n\n        // get the moderators to calculate in this transaction, based on intermediate state\n        address[] memory _moderators;\n        if (_currentResults.countedUntil == EMPTY_ADDRESS) {\n            _moderators = daoListingService().listModerators(\n                _operations,\n                true\n            );\n        } else {\n            _moderators = daoListingService().listModeratorsFrom(\n               _currentResults.countedUntil,\n               _operations,\n               true\n           );\n        }\n\n        // count the votes for this batch of moderators\n        DaoIntermediateStructs.VotingCount memory _voteCount;\n        (_voteCount.forCount, _voteCount.againstCount) = daoStorage().readDraftVotingCount(_proposalId, _moderators);\n\n        _currentResults.countedUntil = _moderators[_moderators.length-1];\n        _currentResults.currentForCount = _currentResults.currentForCount.add(_voteCount.forCount);\n        _currentResults.currentAgainstCount = _currentResults.currentAgainstCount.add(_voteCount.againstCount);\n\n        if (_moderators[_moderators.length-1] == daoStakeStorage().readLastModerator()) {\n            // this is the last iteration\n            _passed = processDraftVotingClaim(_proposalId, _currentResults);\n            _done = true;\n\n            // reset intermediate result for the proposal.\n            intermediateResultsStorage().resetIntermediateResults(_proposalId);\n        } else {\n            // update intermediate results\n            intermediateResultsStorage().setIntermediateResults(\n                _proposalId,\n                _currentResults.countedUntil,\n                _currentResults.currentForCount,\n                _currentResults.currentAgainstCount,\n                0\n            );\n        }\n    }\n\n\n    function processDraftVotingClaim(bytes32 _proposalId, DaoStructs.IntermediateResults _currentResults)\n        internal\n        returns (bool _passed)\n    {\n        if (\n            (_currentResults.currentForCount.add(_currentResults.currentAgainstCount) > daoCalculatorService().minimumDraftQuorum(_proposalId)) &&\n            (daoCalculatorService().draftQuotaPass(_currentResults.currentForCount, _currentResults.currentAgainstCount))\n        ) {\n            daoStorage().setProposalDraftPass(_proposalId, true);\n\n            // set startTime of first voting round\n            // and the start of first milestone.\n            uint256 _idealStartTime = daoStorage().readProposalDraftVotingTime(_proposalId).add(getUintConfig(CONFIG_DRAFT_VOTING_PHASE));\n            daoStorage().setProposalVotingTime(\n                _proposalId,\n                0,\n                getTimelineForNextVote(0, _idealStartTime)\n            );\n            _passed = true;\n        } else {\n            daoStorage().setProposalDraftPass(_proposalId, false);\n            processCollateralRefund(_proposalId);\n        }\n\n        daoStorage().setDraftVotingClaim(_proposalId, true);\n    }\n\n    /// NOTE: Voting round i-th is before milestone index i-th\n\n\n    /**\n    @notice Function to claim the  voting round results\n    @dev This function has two major steps:\n         - Counting the votes\n            + There is no need for this step if there are some conditions that makes the proposal auto failed\n            + The number of operations needed for this step is the number of participants in the quarter\n         - Calculating the bonus for the voters in the preceding round\n            + We can skip this step if this is the Voting round 0 (there is no preceding voting round to calculate bonus)\n            + The number of operations needed for this step is the number of participants who voted \"correctly\" in the preceding voting round\n         Step 1 will have to finish first before step 2. The proposer is supposed to call this function repeatedly,\n         until _done is true\n\n         If the voting round fails, the collateral will be returned back to the proposer\n    @param _proposalId ID of the proposal\n    @param _index Index of the  voting round\n    @param _operations Number of operations to do in this call\n    @return {\n      \"_passed\": \"Boolean, true if the  voting round passed, false if failed\"\n    }\n    */\n    function claimProposalVotingResult(bytes32 _proposalId, uint256 _index, uint256 _operations)\n        public\n        ifNotClaimed(_proposalId, _index)\n        ifAfterProposalRevealPhase(_proposalId, _index)\n        returns (bool _passed, bool _done)\n    {\n        require(isMainPhase(), \"not main phase\");\n\n        // STEP 1\n        // If the claiming deadline is over, the proposal is auto failed, and anyone can call this function\n        // Here, _done is refering to whether STEP 1 is done\n        _done = true;\n        _passed = false; // redundant, put here just to emphasize that its false\n        uint256 _operationsLeft = _operations;\n        // In other words, we only need to do Step 1 if its before the deadline\n        if (now < startOfMilestone(_proposalId, _index)\n                    .add(getUintConfig(CONFIG_VOTE_CLAIMING_DEADLINE)))\n        {\n            (_operationsLeft, _passed, _done) = countProposalVote(_proposalId, _index, _operations);\n            // from here on, _operationsLeft is the number of operations left, after Step 1 is done\n            if (!_done) return (_passed, false); // haven't done Step 1 yet, return. The value of _passed here is irrelevant\n        }\n\n        // STEP 2\n        // from this point onwards, _done refers to step 2\n        _done = false;\n\n        if (_index > 0) { // We only need to do bonus calculation if its a interim voting round\n            _done = calculateVoterBonus(_proposalId, _index, _operationsLeft, _passed);\n            if (!_done) return (_passed, false); // Step 2 is not done yet, return\n        } else {\n            // its the first voting round, we return the collateral if it fails, locks if it passes\n\n            _passed = _passed && isNonDigixProposalsWithinLimit(_proposalId); // can only pass if its within the non-digix proposal limit\n            if (_passed) {\n                daoStorage().setProposalCollateralStatus(\n                    _proposalId,\n                    COLLATERAL_STATUS_LOCKED\n                );\n\n            } else {\n                processCollateralRefund(_proposalId);\n            }\n        }\n\n        if (_passed) {\n            processSuccessfulVotingClaim(_proposalId, _index);\n        }\n        daoStorage().setVotingClaim(_proposalId, _index, true);\n        daoStorage().setProposalPass(_proposalId, _index, _passed);\n        _done = true;\n    }\n\n\n    // do the necessary steps after a successful voting round.\n    function processSuccessfulVotingClaim(bytes32 _proposalId, uint256 _index)\n        internal\n    {\n        // clear the intermediate results for the proposal, so that next voting rounds can reuse the same key <proposal_id> for the intermediate results\n        intermediateResultsStorage().resetIntermediateResults(_proposalId);\n\n        // if this was the final voting round, unlock their original collateral\n        uint256[] memory _milestoneFundings;\n        (_milestoneFundings,) = daoStorage().readProposalFunding(_proposalId);\n        if (_index == _milestoneFundings.length) {\n            processCollateralRefund(_proposalId);\n            daoStorage().archiveProposal(_proposalId);\n        }\n\n        // increase the non-digix proposal count accordingly\n        bool _isDigixProposal;\n        (,,,,,,,,,_isDigixProposal) = daoStorage().readProposal(_proposalId);\n        if (_index == 0 && !_isDigixProposal) {\n            daoProposalCounterStorage().addNonDigixProposalCountInQuarter(currentQuarterNumber());\n        }\n\n        // Add quarter point for the proposer\n        uint256 _funding = daoStorage().readProposalMilestone(_proposalId, _index);\n        daoPointsStorage().addQuarterPoint(\n            daoStorage().readProposalProposer(_proposalId),\n            getUintConfig(CONFIG_QUARTER_POINT_MILESTONE_COMPLETION_PER_10000ETH).mul(_funding).div(10000 ether),\n            currentQuarterNumber()\n        );\n    }\n\n\n    function getInterResultKeyForBonusCalculation(bytes32 _proposalId) public view returns (bytes32 _key) {\n        _key = keccak256(abi.encodePacked(\n            _proposalId,\n            INTERMEDIATE_BONUS_CALCULATION_IDENTIFIER\n        ));\n    }\n\n\n    // calculate and update the bonuses for voters who voted \"correctly\" in the preceding voting round\n    function calculateVoterBonus(bytes32 _proposalId, uint256 _index, uint256 _operations, bool _passed)\n        internal\n        returns (bool _done)\n    {\n        if (_operations == 0) return false;\n        address _countedUntil;\n        (_countedUntil,,,) = intermediateResultsStorage().getIntermediateResults(\n            getInterResultKeyForBonusCalculation(_proposalId)\n        );\n\n        address[] memory _voterBatch;\n        if (_countedUntil == EMPTY_ADDRESS) {\n            _voterBatch = daoListingService().listParticipants(\n                _operations,\n                true\n            );\n        } else {\n            _voterBatch = daoListingService().listParticipantsFrom(\n                _countedUntil,\n                _operations,\n                true\n            );\n        }\n        address _lastVoter = _voterBatch[_voterBatch.length - 1]; // this will fail if _voterBatch is empty. However, there is at least the proposer as a participant in the quarter.\n\n        DaoIntermediateStructs.Users memory _bonusVoters;\n        if (_passed) {\n\n            // give bonus points for all those who\n            // voted YES in the previous round\n            (_bonusVoters.users, _bonusVoters.usersLength) = daoStorage().readVotingRoundVotes(_proposalId, _index.sub(1), _voterBatch, true);\n        } else {\n            // give bonus points for all those who\n            // voted NO in the previous round\n            (_bonusVoters.users, _bonusVoters.usersLength) = daoStorage().readVotingRoundVotes(_proposalId, _index.sub(1), _voterBatch, false);\n        }\n\n        if (_bonusVoters.usersLength > 0) addBonusReputation(_bonusVoters.users, _bonusVoters.usersLength);\n\n        if (_lastVoter == daoStakeStorage().readLastParticipant()) {\n            // this is the last iteration\n\n            intermediateResultsStorage().resetIntermediateResults(\n                getInterResultKeyForBonusCalculation(_proposalId)\n            );\n            _done = true;\n        } else {\n            // this is not the last iteration yet, save the intermediate results\n            intermediateResultsStorage().setIntermediateResults(\n                getInterResultKeyForBonusCalculation(_proposalId),\n                _lastVoter, 0, 0, 0\n            );\n        }\n    }\n\n\n    // Count the votes for a Voting Round and find out if its passed\n    /// @return _operationsLeft The number of operations left after the calculations in this function\n    /// @return _passed Whether this voting round passed\n    /// @return _done Whether the calculation for this step 1 is already done. If its not done, this function will need to run again in subsequent transactions\n    /// until _done is true\n    function countProposalVote(bytes32 _proposalId, uint256 _index, uint256 _operations)\n        internal\n        returns (uint256 _operationsLeft, bool _passed, bool _done)\n    {\n        senderCanDoProposerOperations();\n        require(isFromProposer(_proposalId), \"not proposer\");\n\n        DaoStructs.IntermediateResults memory _currentResults;\n        (\n            _currentResults.countedUntil,\n            _currentResults.currentForCount,\n            _currentResults.currentAgainstCount,\n        ) = intermediateResultsStorage().getIntermediateResults(_proposalId);\n        address[] memory _voters;\n        if (_currentResults.countedUntil == EMPTY_ADDRESS) { // This is the first transaction to count votes for this voting round\n            _voters = daoListingService().listParticipants(\n                _operations,\n                true\n            );\n        } else {\n            _voters = daoListingService().listParticipantsFrom(\n                _currentResults.countedUntil,\n                _operations,\n                true\n            );\n\n            // If there's no voters left to count, this means that STEP 1 is already done, just return whether it was passed\n            // Note that _currentResults should already be storing the final tally of votes for this voting round, as already calculated in previous iterations of this function\n            if (_voters.length == 0) {\n                return (\n                    _operations,\n                    isVoteCountPassed(_currentResults, _proposalId, _index),\n                    true\n                );\n            }\n        }\n\n        address _lastVoter = _voters[_voters.length - 1];\n\n        DaoIntermediateStructs.VotingCount memory _count;\n        (_count.forCount, _count.againstCount) = daoStorage().readVotingCount(_proposalId, _index, _voters);\n\n        _currentResults.currentForCount = _currentResults.currentForCount.add(_count.forCount);\n        _currentResults.currentAgainstCount = _currentResults.currentAgainstCount.add(_count.againstCount);\n        intermediateResultsStorage().setIntermediateResults(\n            _proposalId,\n            _lastVoter,\n            _currentResults.currentForCount,\n            _currentResults.currentAgainstCount,\n            0\n        );\n\n        if (_lastVoter != daoStakeStorage().readLastParticipant()) {\n            return (0, false, false); // hasn't done STEP 1 yet. The parent function (claimProposalVotingResult) should return after this. More transactions are needed to continue the calculation\n        }\n\n        // If it comes to here, this means all votes have already been counted\n        // From this point, the IntermediateResults struct will store the total tally of the votes for this voting round until processSuccessfulVotingClaim() is called,\n        // which will reset it.\n\n        _operationsLeft = _operations.sub(_voters.length);\n        _done = true;\n\n        _passed = isVoteCountPassed(_currentResults, _proposalId, _index);\n    }\n\n\n    function isVoteCountPassed(DaoStructs.IntermediateResults _currentResults, bytes32 _proposalId, uint256 _index)\n        internal\n        view\n        returns (bool _passed)\n    {\n        _passed = (_currentResults.currentForCount.add(_currentResults.currentAgainstCount) > daoCalculatorService().minimumVotingQuorum(_proposalId, _index))\n                && (daoCalculatorService().votingQuotaPass(_currentResults.currentForCount, _currentResults.currentAgainstCount));\n    }\n\n\n    function processCollateralRefund(bytes32 _proposalId)\n        internal\n    {\n        daoStorage().setProposalCollateralStatus(_proposalId, COLLATERAL_STATUS_CLAIMED);\n        require(daoFundingManager().refundCollateral(daoStorage().readProposalProposer(_proposalId), _proposalId));\n    }\n\n\n    // add bonus reputation for voters that voted \"correctly\" in the preceding voting round AND is currently participating this quarter\n    function addBonusReputation(address[] _voters, uint256 _n)\n        private\n    {\n        uint256 _qp = getUintConfig(CONFIG_QUARTER_POINT_VOTE);\n        uint256 _rate = getUintConfig(CONFIG_BONUS_REPUTATION_NUMERATOR);\n        uint256 _base = getUintConfig(CONFIG_BONUS_REPUTATION_DENOMINATOR);\n\n        uint256 _bonus = _qp.mul(_rate).mul(getUintConfig(CONFIG_REPUTATION_PER_EXTRA_QP_NUM))\n            .div(\n                _base.mul(getUintConfig(CONFIG_REPUTATION_PER_EXTRA_QP_DEN))\n            );\n\n        for (uint256 i = 0; i < _n; i++) {\n            if (isParticipant(_voters[i])) { // only give bonus reputation to current participants\n                daoPointsStorage().increaseReputation(_voters[i], _bonus);\n            }\n        }\n    }\n\n}\n",
  "sourcePath": "/Users/aeufemio/projects/dgx/contracts/dao-contracts/contracts/interactive/DaoVotingClaims.sol",
  "compiler": {
    "name": "solc",
    "version": "0.4.25+commit.59dbf8f1.Emscripten.clang"
  },
  "schemaVersion": "2.0.2",
  "updatedAt": "2020-03-13T02:42:40.698Z"
}