{
  "contractName": "DaoVoting",
  "abi": [
    {
      "constant": true,
      "inputs": [],
      "name": "resolver",
      "outputs": [
        {
          "name": "",
          "type": "address"
        }
      ],
      "payable": false,
      "stateMutability": "view",
      "type": "function"
    },
    {
      "constant": true,
      "inputs": [
        {
          "name": "_configKey",
          "type": "bytes32"
        }
      ],
      "name": "getAddressConfig",
      "outputs": [
        {
          "name": "_configValue",
          "type": "address"
        }
      ],
      "payable": false,
      "stateMutability": "view",
      "type": "function"
    },
    {
      "constant": true,
      "inputs": [],
      "name": "key",
      "outputs": [
        {
          "name": "",
          "type": "bytes32"
        }
      ],
      "payable": false,
      "stateMutability": "view",
      "type": "function"
    },
    {
      "constant": true,
      "inputs": [
        {
          "name": "_key",
          "type": "bytes32"
        }
      ],
      "name": "get_contract",
      "outputs": [
        {
          "name": "_contract",
          "type": "address"
        }
      ],
      "payable": false,
      "stateMutability": "view",
      "type": "function"
    },
    {
      "constant": true,
      "inputs": [],
      "name": "currentTimeInQuarter",
      "outputs": [
        {
          "name": "_currentT",
          "type": "uint256"
        }
      ],
      "payable": false,
      "stateMutability": "view",
      "type": "function"
    },
    {
      "constant": true,
      "inputs": [],
      "name": "isMainPhase",
      "outputs": [
        {
          "name": "_isMainPhase",
          "type": "bool"
        }
      ],
      "payable": false,
      "stateMutability": "view",
      "type": "function"
    },
    {
      "constant": true,
      "inputs": [],
      "name": "isLockingPhase",
      "outputs": [
        {
          "name": "_isLockingPhase",
          "type": "bool"
        }
      ],
      "payable": false,
      "stateMutability": "view",
      "type": "function"
    },
    {
      "constant": true,
      "inputs": [],
      "name": "currentQuarterNumber",
      "outputs": [
        {
          "name": "_quarterNumber",
          "type": "uint256"
        }
      ],
      "payable": false,
      "stateMutability": "view",
      "type": "function"
    },
    {
      "constant": true,
      "inputs": [
        {
          "name": "_user",
          "type": "address"
        }
      ],
      "name": "isParticipant",
      "outputs": [
        {
          "name": "_is",
          "type": "bool"
        }
      ],
      "payable": false,
      "stateMutability": "view",
      "type": "function"
    },
    {
      "constant": true,
      "inputs": [
        {
          "name": "_configKey",
          "type": "bytes32"
        }
      ],
      "name": "getBytesConfig",
      "outputs": [
        {
          "name": "_configValue",
          "type": "bytes32"
        }
      ],
      "payable": false,
      "stateMutability": "view",
      "type": "function"
    },
    {
      "constant": true,
      "inputs": [
        {
          "name": "_configKey",
          "type": "bytes32"
        }
      ],
      "name": "getUintConfig",
      "outputs": [
        {
          "name": "_configValue",
          "type": "uint256"
        }
      ],
      "payable": false,
      "stateMutability": "view",
      "type": "function"
    },
    {
      "constant": true,
      "inputs": [],
      "name": "isDaoNotReplaced",
      "outputs": [
        {
          "name": "_isNotReplaced",
          "type": "bool"
        }
      ],
      "payable": false,
      "stateMutability": "view",
      "type": "function"
    },
    {
      "constant": true,
      "inputs": [],
      "name": "CONTRACT_ADDRESS",
      "outputs": [
        {
          "name": "",
          "type": "address"
        }
      ],
      "payable": false,
      "stateMutability": "view",
      "type": "function"
    },
    {
      "constant": true,
      "inputs": [
        {
          "name": "_user",
          "type": "address"
        }
      ],
      "name": "isModerator",
      "outputs": [
        {
          "name": "_is",
          "type": "bool"
        }
      ],
      "payable": false,
      "stateMutability": "view",
      "type": "function"
    },
    {
      "inputs": [
        {
          "name": "_resolver",
          "type": "address"
        }
      ],
      "payable": false,
      "stateMutability": "nonpayable",
      "type": "constructor"
    },
    {
      "constant": false,
      "inputs": [
        {
          "name": "_proposalId",
          "type": "bytes32"
        },
        {
          "name": "_vote",
          "type": "bool"
        }
      ],
      "name": "voteOnDraft",
      "outputs": [],
      "payable": false,
      "stateMutability": "nonpayable",
      "type": "function"
    },
    {
      "constant": false,
      "inputs": [
        {
          "name": "_proposalId",
          "type": "bytes32"
        },
        {
          "name": "_commitHash",
          "type": "bytes32"
        }
      ],
      "name": "commitVoteOnSpecialProposal",
      "outputs": [],
      "payable": false,
      "stateMutability": "nonpayable",
      "type": "function"
    },
    {
      "constant": false,
      "inputs": [
        {
          "name": "_proposalId",
          "type": "bytes32"
        },
        {
          "name": "_vote",
          "type": "bool"
        },
        {
          "name": "_salt",
          "type": "bytes32"
        }
      ],
      "name": "revealVoteOnSpecialProposal",
      "outputs": [],
      "payable": false,
      "stateMutability": "nonpayable",
      "type": "function"
    },
    {
      "constant": false,
      "inputs": [
        {
          "name": "_proposalId",
          "type": "bytes32"
        },
        {
          "name": "_index",
          "type": "uint8"
        },
        {
          "name": "_commitHash",
          "type": "bytes32"
        }
      ],
      "name": "commitVoteOnProposal",
      "outputs": [],
      "payable": false,
      "stateMutability": "nonpayable",
      "type": "function"
    },
    {
      "constant": false,
      "inputs": [
        {
          "name": "_proposalId",
          "type": "bytes32"
        },
        {
          "name": "_index",
          "type": "uint8"
        },
        {
          "name": "_vote",
          "type": "bool"
        },
        {
          "name": "_salt",
          "type": "bytes32"
        }
      ],
      "name": "revealVoteOnProposal",
      "outputs": [],
      "payable": false,
      "stateMutability": "nonpayable",
      "type": "function"
    }
  ],
  "bytecode": "0x608060405260006001026003906000191690556000600460006101000a81548173ffffffffffffffffffffffffffffffffffffffff021916908373ffffffffffffffffffffffffffffffffffffffff1602179055507f70726f706f73616c5f73746174655f70726570726f706f73616c0000000000006005906000191690557f70726f706f73616c5f73746174655f64726166740000000000000000000000006006906000191690557f70726f706f73616c5f73746174655f6d6f6465726174656400000000000000006007906000191690557f70726f706f73616c5f73746174655f6f6e676f696e67000000000000000000006008906000191690557f70726f706f73616c5f73746174655f636c6f73656400000000000000000000006009906000191690557f70726f706f73616c5f73746174655f6172636869766564000000000000000000600a906000191690556001600b556002600c556003600d556001600e556002600f5560036010557f696e7465725f6467645f696400000000000000000000000000000000000000006011906000191690557f696e7465725f6d6f645f6467645f6964000000000000000000000000000000006012906000191690557f696e7465725f626f6e75735f63616c63756c6174696f6e5f69640000000000006013906000191690557f64616f00000000000000000000000000000000000000000000000000000000006014906000191690557f64616f3a7370656369616c3a70726f706f73616c0000000000000000000000006015906000191690557f64616f3a7374616b652d6c6f636b696e670000000000000000000000000000006016906000191690557f64616f3a766f74696e67000000000000000000000000000000000000000000006017906000191690557f64616f3a766f74696e673a636c61696d730000000000000000000000000000006018906000191690557f64616f3a73766f74696e673a636c61696d7300000000000000000000000000006019906000191690557f64616f3a6964656e746974790000000000000000000000000000000000000000601a906000191690557f64616f3a726577617264732d6d616e6167657200000000000000000000000000601b906000191690557f64616f3a726577617264732d6578747261730000000000000000000000000000601c906000191690557f64616f3a726f6c65730000000000000000000000000000000000000000000000601d906000191690557f64616f3a66756e64696e672d6d616e6167657200000000000000000000000000601e906000191690557f64616f3a77686974656c697374696e6700000000000000000000000000000000601f906000191690557f64616f3a696e666f726d6174696f6e00000000000000000000000000000000006020906000191690557f736572766963653a726f6c6500000000000000000000000000000000000000006021906000191690557f736572766963653a64616f3a696e666f000000000000000000000000000000006022906000191690557f736572766963653a64616f3a6c697374696e67000000000000000000000000006023906000191690557f736572766963653a64616f3a63616c63756c61746f72000000000000000000006024906000191690557f73746f726167653a64616f0000000000000000000000000000000000000000006025906000191690557f73746f726167653a64616f3a636f756e746572000000000000000000000000006026906000191690557f73746f726167653a64616f3a75706772616465000000000000000000000000006027906000191690557f73746f726167653a64616f3a6964656e746974790000000000000000000000006028906000191690557f73746f726167653a64616f3a706f696e747300000000000000000000000000006029906000191690557f73746f726167653a64616f3a7370656369616c00000000000000000000000000602a906000191690557f73746f726167653a64616f3a636f6e6669670000000000000000000000000000602b906000191690557f73746f726167653a64616f3a7374616b65000000000000000000000000000000602c906000191690557f73746f726167653a64616f3a7265776172647300000000000000000000000000602d906000191690557f73746f726167653a64616f3a77686974656c697374696e670000000000000000602e906000191690557f73746f726167653a696e7465726d6564696174653a726573756c747300000000602f906000191690557f743a6467640000000000000000000000000000000000000000000000000000006030906000191690557f743a6467780000000000000000000000000000000000000000000000000000006031906000191690557f743a6261646765000000000000000000000000000000000000000000000000006032906000191690556001603360006101000a81548160ff021916908360ff1602179055506002603360016101000a81548160ff021916908360ff1602179055506003603360026101000a81548160ff021916908360ff1602179055506004603360036101000a81548160ff021916908360ff1602179055506276a7006034557f6d696e5f6467645f7061727469636970616e74000000000000000000000000006035906000191690557f6d696e5f6467645f6d6f64657261746f720000000000000000000000000000006036906000191690557f6d696e5f72657075746174696f6e5f6d6f64657261746f7200000000000000006037906000191690557f6c6f636b696e675f70686173655f6475726174696f6e000000000000000000006038906000191690557f717561727465725f6475726174696f6e000000000000000000000000000000006039906000191690557f766f74696e675f636f6d6d69745f706861736500000000000000000000000000603a906000191690557f766f74696e675f70686173655f746f74616c0000000000000000000000000000603b906000191690557f696e746572696d5f766f74696e675f636f6d6d69745f70686173650000000000603c906000191690557f696e746572696d5f766f74696e675f70686173655f746f74616c000000000000603d906000191690557f64726166745f71756f72756d5f66697865645f6e756d657261746f7200000000603e906000191690557f64726166745f71756f72756d5f66697865645f64656e6f6d696e61746f720000603f906000191690557f64726166745f71756f72756d5f73666163746f725f6e756d657261746f7200006040906000191690557f64726166745f71756f72756d5f73666163746f725f64656e6f6d696e61746f726041906000191690557f766f74655f71756f72756d5f66697865645f6e756d657261746f7200000000006042906000191690557f766f74655f71756f72756d5f66697865645f64656e6f6d696e61746f720000006043906000191690557f766f74655f71756f72756d5f73666163746f725f6e756d657261746f720000006044906000191690557f766f74655f71756f72756d5f73666163746f725f64656e6f6d696e61746f72006045906000191690557f66696e616c5f7265776172645f73666163746f725f6e756d657261746f7200006046906000191690557f66696e616c5f7265776172645f73666163746f725f64656e6f6d696e61746f726047906000191690557f64726166745f71756f74615f6e756d657261746f7200000000000000000000006048906000191690557f64726166745f71756f74615f64656e6f6d696e61746f720000000000000000006049906000191690557f766f74696e675f71756f74615f6e756d657261746f7200000000000000000000604a906000191690557f766f74696e675f71756f74615f64656e6f6d696e61746f720000000000000000604b906000191690557f6d696e696d616c5f717000000000000000000000000000000000000000000000604c906000191690557f717561727465725f706f696e745f7363616c696e675f666163746f7200000000604d906000191690557f7265705f706f696e745f7363616c696e675f666163746f720000000000000000604e906000191690557f6d696e696d616c5f6d6f645f7170000000000000000000000000000000000000604f906000191690557f6d6f645f71705f7363616c696e675f666163746f7200000000000000000000006050906000191690557f6d6f645f7265705f706f696e745f7363616c696e675f666163746f72000000006051906000191690557f717561727465725f706f696e745f64726166745f766f746500000000000000006052906000191690557f717561727465725f706f696e745f766f746500000000000000000000000000006053906000191690557f717561727465725f706f696e745f696e746572696d5f766f74650000000000006054906000191690557f715f705f6d696c6573746f6e655f636f6d706c6574696f6e00000000000000006055906000191690557f626f6e75735f72657075746174696f6e5f6e756d657261746f720000000000006056906000191690557f626f6e75735f72657075746174696f6e5f64656e6f6d696e61746f72000000006057906000191690557f7370656369616c5f70726f706f73616c5f636f6d6d69745f70686173650000006058906000191690557f7370656369616c5f70726f706f73616c5f70686173655f746f74616c000000006059906000191690557f636f6e6669675f7370656369616c5f71756f74615f6e756d657261746f720000605a906000191690557f636f6e6669675f7370656369616c5f71756f74615f64656e6f6d696e61746f72605b906000191690557f7370656369616c5f71756f72756d5f6e756d657261746f720000000000000000605c906000191690557f7370656369616c5f71756f72756d5f64656e6f6d696e61746f72000000000000605d906000191690557f636f6e6669675f6d61785f72657075746174696f6e5f646564756374696f6e00605e906000191690557f636f6e6669675f70756e6973686d656e745f6e6f745f6c6f636b696e67000000605f906000191690557f636f6e6669675f7265705f7065725f65787472615f71705f6e756d00000000006060906000191690557f636f6e6669675f7265705f7065725f65787472615f71705f64656e00000000006061906000191690557f636f6e6669675f6d61785f6d5f72705f646564756374696f6e000000000000006062906000191690557f636f6e6669675f7265705f7065725f65787472615f6d5f71705f6e756d0000006063906000191690557f636f6e6669675f7265705f7065725f65787472615f6d5f71705f64656e0000006064906000191690557f636f6e6669675f6d6f645f706f7274696f6e5f6e756d000000000000000000006065906000191690557f636f6e6669675f6d6f645f706f7274696f6e5f64656e000000000000000000006066906000191690557f636f6e6669675f64726166745f766f74696e675f7068617365000000000000006067906000191690557f636f6e6669675f72705f626f6f73745f7065725f6261646765000000000000006068906000191690557f636f6e6669675f636c61696d696e675f646561646c696e6500000000000000006069906000191690557f636f6e6669675f70726570726f706f73616c5f636f6c6c61746572616c000000606a906000191690557f636f6e6669675f6d61785f66756e64696e675f6e6f6e44696769780000000000606b906000191690557f636f6e6669675f6d61785f6d696c6573746f6e65735f6e6f6e44696769780000606c906000191690557f636f6e6669675f6e6f6e44696769785f70726f706f73616c5f63617000000000606d906000191690557f636f6e6669675f646561645f6475726174696f6e000000000000000000000000606e906000191690557f636f6e6669675f63765f72657075746174696f6e000000000000000000000000606f906000191690553480156200113457600080fd5b5060405160208062003e1c83398101806040528101908080519060200190929190505050620011756017548262001188640100000000026401000000009004565b15156200118157600080fd5b5062001419565b6000808273ffffffffffffffffffffffffffffffffffffffff16636d19a8826040518163ffffffff167c0100000000000000000000000000000000000000000000000000000000028152600401602060405180830381600087803b158015620011f057600080fd5b505af115801562001205573d6000803e3d6000fd5b505050506040513d60208110156200121c57600080fd5b810190808051906020019092919050505090506000151581151514156200140d5730600260006101000a81548173ffffffffffffffffffffffffffffffffffffffff021916908373ffffffffffffffffffffffffffffffffffffffff160217905550826000806101000a81548173ffffffffffffffffffffffffffffffffffffffff021916908373ffffffffffffffffffffffffffffffffffffffff16021790555083600181600019169055506000809054906101000a900473ffffffffffffffffffffffffffffffffffffffff1673ffffffffffffffffffffffffffffffffffffffff1663c0f6ef4a600154600260009054906101000a900473ffffffffffffffffffffffffffffffffffffffff166040518363ffffffff167c01000000000000000000000000000000000000000000000000000000000281526004018083600019166000191681526020018273ffffffffffffffffffffffffffffffffffffffff1673ffffffffffffffffffffffffffffffffffffffff16815260200192505050602060405180830381600087803b158015620013ba57600080fd5b505af1158015620013cf573d6000803e3d6000fd5b505050506040513d6020811015620013e657600080fd5b810190808051906020019092919050505015156200140357600080fd5b6001915062001412565b600091505b5092915050565b6129f380620014296000396000f300608060405260043610610107576000357c0100000000000000000000000000000000000000000000000000000000900463ffffffff16806304f3bcec1461010c5780631d8ccd04146101635780632b051b50146101d45780633943380c1461022c5780633f83acff1461025f578063560a25ea146102d05780635e8254ea146102fb578063610af5701461034757806368533060146103845780637d6fed80146103b35780637f6a26b6146103e2578063929066f51461040d57806393ddad0814610468578063b1e2b9dd146104b5578063be29783f146104fa578063d70d935814610539578063d9db3c7314610568578063db4ecbc1146105b3578063fa6f39361461060a575b600080fd5b34801561011857600080fd5b50610121610665565b604051808273ffffffffffffffffffffffffffffffffffffffff1673ffffffffffffffffffffffffffffffffffffffff16815260200191505060405180910390f35b34801561016f57600080fd5b50610192600480360381019080803560001916906020019092919050505061068a565b604051808273ffffffffffffffffffffffffffffffffffffffff1673ffffffffffffffffffffffffffffffffffffffff16815260200191505060405180910390f35b3480156101e057600080fd5b5061022a6004803603810190808035600019169060200190929190803560ff169060200190929190803515159060200190929190803560001916906020019092919050505061074c565b005b34801561023857600080fd5b50610241610e74565b60405180826000191660001916815260200191505060405180910390f35b34801561026b57600080fd5b5061028e6004803603810190808035600019169060200190929190505050610e7a565b604051808273ffffffffffffffffffffffffffffffffffffffff1673ffffffffffffffffffffffffffffffffffffffff16815260200191505060405180910390f35b3480156102dc57600080fd5b506102e5610f56565b6040518082815260200191505060405180910390f35b34801561030757600080fd5b506103456004803603810190808035600019169060200190929190803560ff1690602001909291908035600019169060200190929190505050610f66565b005b34801561035357600080fd5b506103826004803603810190808035600019169060200190929190803515159060200190929190505050611155565b005b34801561039057600080fd5b50610399611627565b604051808215151515815260200191505060405180910390f35b3480156103bf57600080fd5b506103c8611653565b604051808215151515815260200191505060405180910390f35b3480156103ee57600080fd5b506103f761166e565b6040518082815260200191505060405180910390f35b34801561041957600080fd5b5061044e600480360381019080803573ffffffffffffffffffffffffffffffffffffffff16906020019092919050505061167e565b604051808215151515815260200191505060405180910390f35b34801561047457600080fd5b50610497600480360381019080803560001916906020019092919050505061185f565b60405180826000191660001916815260200191505060405180910390f35b3480156104c157600080fd5b506104e46004803603810190808035600019169060200190929190505050611921565b6040518082815260200191505060405180910390f35b34801561050657600080fd5b50610537600480360381019080803560001916906020019092919080356000191690602001909291905050506119e3565b005b34801561054557600080fd5b5061054e611ba5565b604051808215151515815260200191505060405180910390f35b34801561057457600080fd5b506105b160048036038101908080356000191690602001909291908035151590602001909291908035600019169060200190929190505050611c53565b005b3480156105bf57600080fd5b506105c8612314565b604051808273ffffffffffffffffffffffffffffffffffffffff1673ffffffffffffffffffffffffffffffffffffffff16815260200191505060405180910390f35b34801561061657600080fd5b5061064b600480360381019080803573ffffffffffffffffffffffffffffffffffffffff16906020019092919050505061233a565b604051808215151515815260200191505060405180910390f35b6000809054906101000a900473ffffffffffffffffffffffffffffffffffffffff1681565b600061069461260d565b73ffffffffffffffffffffffffffffffffffffffff1663e6b39eab836040518263ffffffff167c0100000000000000000000000000000000000000000000000000000000028152600401808260001916600019168152602001915050602060405180830381600087803b15801561070a57600080fd5b505af115801561071e573d6000803e3d6000fd5b505050506040513d602081101561073457600080fd5b81019080805190602001909291905050509050919050565b838360ff1661085261075c61261f565b73ffffffffffffffffffffffffffffffffffffffff1663baf4266084846040518363ffffffff167c010000000000000000000000000000000000000000000000000000000002815260040180836000191660001916815260200182815260200192505050602060405180830381600087803b1580156107da57600080fd5b505af11580156107ee573d6000803e3d6000fd5b505050506040513d602081101561080457600080fd5b81019080805190602001909291905050506108316000841461082857603c5461082c565b603a545b611921565b61084d6000851461084457603d54610848565b603b545b611921565b612631565b858560ff16600061086161261f565b73ffffffffffffffffffffffffffffffffffffffff16631d2103d18484336040518463ffffffff167c01000000000000000000000000000000000000000000000000000000000281526004018084600019166000191681526020018381526020018273ffffffffffffffffffffffffffffffffffffffff1673ffffffffffffffffffffffffffffffffffffffff16815260200193505050506040805180830381600087803b15801561091257600080fd5b505af1158015610926573d6000803e3d6000fd5b505050506040513d604081101561093c57600080fd5b81019080805190602001909291908051906020019092919050505090508091505060008114151561096c57600080fd5b6109753361167e565b151561098057600080fd5b61098861261f565b73ffffffffffffffffffffffffffffffffffffffff1663598f0eaf8a8a336040518463ffffffff167c01000000000000000000000000000000000000000000000000000000000281526004018084600019166000191681526020018360ff1681526020018273ffffffffffffffffffffffffffffffffffffffff1673ffffffffffffffffffffffffffffffffffffffff1681526020019350505050602060405180830381600087803b158015610a3d57600080fd5b505af1158015610a51573d6000803e3d6000fd5b505050506040513d6020811015610a6757600080fd5b810190808051906020019092919050505060001916338888604051602001808473ffffffffffffffffffffffffffffffffffffffff1673ffffffffffffffffffffffffffffffffffffffff166c0100000000000000000000000002815260140183151515157f0100000000000000000000000000000000000000000000000000000000000000028152600101826000191660001916815260200193505050506040516020818303038152906040526040518082805190602001908083835b602083101515610b4a5780518252602082019150602081019050602083039250610b25565b6001836020036101000a038019825116818451168082178552505050505050905001915050604051809103902060001916141515610b8757600080fd5b610b8f61261f565b73ffffffffffffffffffffffffffffffffffffffff1663a6129f8c8a338a610bb5612686565b73ffffffffffffffffffffffffffffffffffffffff1663cd094a27336040518263ffffffff167c0100000000000000000000000000000000000000000000000000000000028152600401808273ffffffffffffffffffffffffffffffffffffffff1673ffffffffffffffffffffffffffffffffffffffff168152602001915050602060405180830381600087803b158015610c4f57600080fd5b505af1158015610c63573d6000803e3d6000fd5b505050506040513d6020811015610c7957600080fd5b81019080805190602001909291905050508d6040518663ffffffff167c01000000000000000000000000000000000000000000000000000000000281526004018086600019166000191681526020018573ffffffffffffffffffffffffffffffffffffffff1673ffffffffffffffffffffffffffffffffffffffff168152602001841515151581526020018381526020018260ff16815260200195505050505050600060405180830381600087803b158015610d3457600080fd5b505af1158015610d48573d6000803e3d6000fd5b50505050610d54612698565b73ffffffffffffffffffffffffffffffffffffffff16631eee015433610d8f60008c60ff1614610d8657605454610d8a565b6053545b611921565b610d9761166e565b6040518463ffffffff167c0100000000000000000000000000000000000000000000000000000000028152600401808473ffffffffffffffffffffffffffffffffffffffff1673ffffffffffffffffffffffffffffffffffffffff16815260200183815260200182815260200193505050506040805180830381600087803b158015610e2257600080fd5b505af1158015610e36573d6000803e3d6000fd5b505050506040513d6040811015610e4c57600080fd5b8101908080519060200190929190805190602001909291905050505050505050505050505050565b60015481565b60008060009054906101000a900473ffffffffffffffffffffffffffffffffffffffff1673ffffffffffffffffffffffffffffffffffffffff16633f83acff836040518263ffffffff167c0100000000000000000000000000000000000000000000000000000000028152600401808260001916600019168152602001915050602060405180830381600087803b158015610f1457600080fd5b505af1158015610f28573d6000803e3d6000fd5b505050506040513d6020811015610f3e57600080fd5b81019080805190602001909291905050509050919050565b6000610f61426126aa565b905090565b8282611055610f7361261f565b73ffffffffffffffffffffffffffffffffffffffff1663baf4266084846040518363ffffffff167c01000000000000000000000000000000000000000000000000000000000281526004018083600019166000191681526020018260ff16815260200192505050602060405180830381600087803b158015610ff457600080fd5b505af1158015611008573d6000803e3d6000fd5b505050506040513d602081101561101e57600080fd5b8101908080519060200190929190505050600061105060008560ff161461104757603c5461104b565b603a545b611921565b612631565b61105e3361167e565b151561106957600080fd5b61107161261f565b73ffffffffffffffffffffffffffffffffffffffff166358cec139868533886040518563ffffffff167c010000000000000000000000000000000000000000000000000000000002815260040180856000191660001916815260200184600019166000191681526020018373ffffffffffffffffffffffffffffffffffffffff1673ffffffffffffffffffffffffffffffffffffffff1681526020018260ff168152602001945050505050600060405180830381600087803b15801561113657600080fd5b505af115801561114a573d6000803e3d6000fd5b505050505050505050565b60008060008461122961116661261f565b73ffffffffffffffffffffffffffffffffffffffff166349a428d0836040518263ffffffff167c0100000000000000000000000000000000000000000000000000000000028152600401808260001916600019168152602001915050602060405180830381600087803b1580156111dc57600080fd5b505af11580156111f0573d6000803e3d6000fd5b505050506040513d602081101561120657600080fd5b81019080805190602001909291905050506000611224606754611921565b612631565b611231611627565b151561123c57600080fd5b6112453361233a565b151561125057600080fd5b33935061125b612686565b73ffffffffffffffffffffffffffffffffffffffff1663cd094a27856040518263ffffffff167c0100000000000000000000000000000000000000000000000000000000028152600401808273ffffffffffffffffffffffffffffffffffffffff1673ffffffffffffffffffffffffffffffffffffffff168152602001915050602060405180830381600087803b1580156112f557600080fd5b505af1158015611309573d6000803e3d6000fd5b505050506040513d602081101561131f57600080fd5b8101908080519060200190929190505050925061133a61261f565b73ffffffffffffffffffffffffffffffffffffffff1663e14b2c2687866040518363ffffffff167c01000000000000000000000000000000000000000000000000000000000281526004018083600019166000191681526020018273ffffffffffffffffffffffffffffffffffffffff1673ffffffffffffffffffffffffffffffffffffffff168152602001925050506040805180830381600087803b1580156113e357600080fd5b505af11580156113f7573d6000803e3d6000fd5b505050506040513d604081101561140d57600080fd5b81019080805190602001909291908051906020019092919050505090508092505061143661261f565b73ffffffffffffffffffffffffffffffffffffffff16632fd010da878688876040518563ffffffff167c01000000000000000000000000000000000000000000000000000000000281526004018085600019166000191681526020018473ffffffffffffffffffffffffffffffffffffffff1673ffffffffffffffffffffffffffffffffffffffff16815260200183151515158152602001828152602001945050505050600060405180830381600087803b1580156114f457600080fd5b505af1158015611508573d6000803e3d6000fd5b50505050600082141561161f5761151d612698565b73ffffffffffffffffffffffffffffffffffffffff1663f2f80af485611544605254611921565b61154c61166e565b6040518463ffffffff167c0100000000000000000000000000000000000000000000000000000000028152600401808473ffffffffffffffffffffffffffffffffffffffff1673ffffffffffffffffffffffffffffffffffffffff16815260200183815260200182815260200193505050506040805180830381600087803b1580156115d757600080fd5b505af11580156115eb573d6000803e3d6000fd5b505050506040513d604081101561160157600080fd5b81019080805190602001909291908051906020019092919050505050505b505050505050565b6000611631611ba5565b801561164e5750611643603854611921565b61164b610f56565b10155b905090565b6000611660603854611921565b611668610f56565b10905090565b600061167942612793565b905090565b600061168861166e565b611690612896565b73ffffffffffffffffffffffffffffffffffffffff1663cefc2bff846040518263ffffffff167c0100000000000000000000000000000000000000000000000000000000028152600401808273ffffffffffffffffffffffffffffffffffffffff1673ffffffffffffffffffffffffffffffffffffffff168152602001915050602060405180830381600087803b15801561172a57600080fd5b505af115801561173e573d6000803e3d6000fd5b505050506040513d602081101561175457600080fd5b81019080805190602001909291905050501480156118585750611778603554611921565b611780612686565b73ffffffffffffffffffffffffffffffffffffffff1663cd094a27846040518263ffffffff167c0100000000000000000000000000000000000000000000000000000000028152600401808273ffffffffffffffffffffffffffffffffffffffff1673ffffffffffffffffffffffffffffffffffffffff168152602001915050602060405180830381600087803b15801561181a57600080fd5b505af115801561182e573d6000803e3d6000fd5b505050506040513d602081101561184457600080fd5b810190808051906020019092919050505010155b9050919050565b600061186961260d565b73ffffffffffffffffffffffffffffffffffffffff1663c0a8405d836040518263ffffffff167c0100000000000000000000000000000000000000000000000000000000028152600401808260001916600019168152602001915050602060405180830381600087803b1580156118df57600080fd5b505af11580156118f3573d6000803e3d6000fd5b505050506040513d602081101561190957600080fd5b81019080805190602001909291905050509050919050565b600061192b61260d565b73ffffffffffffffffffffffffffffffffffffffff1663734c1168836040518263ffffffff167c0100000000000000000000000000000000000000000000000000000000028152600401808260001916600019168152602001915050602060405180830381600087803b1580156119a157600080fd5b505af11580156119b5573d6000803e3d6000fd5b505050506040513d60208110156119cb57600080fd5b81019080805190602001909291905050509050919050565b81611ab26119ef6128a8565b73ffffffffffffffffffffffffffffffffffffffff16638839a29d836040518263ffffffff167c0100000000000000000000000000000000000000000000000000000000028152600401808260001916600019168152602001915050602060405180830381600087803b158015611a6557600080fd5b505af1158015611a79573d6000803e3d6000fd5b505050506040513d6020811015611a8f57600080fd5b81019080805190602001909291905050506000611aad605854611921565b612631565b611abb3361167e565b1515611ac657600080fd5b611ace6128a8565b73ffffffffffffffffffffffffffffffffffffffff16632e278bf98484336040518463ffffffff167c010000000000000000000000000000000000000000000000000000000002815260040180846000191660001916815260200183600019166000191681526020018273ffffffffffffffffffffffffffffffffffffffff1673ffffffffffffffffffffffffffffffffffffffff1681526020019350505050600060405180830381600087803b158015611b8857600080fd5b505af1158015611b9c573d6000803e3d6000fd5b50505050505050565b6000611baf6128ba565b73ffffffffffffffffffffffffffffffffffffffff16638bc865fd6040518163ffffffff167c0100000000000000000000000000000000000000000000000000000000028152600401602060405180830381600087803b158015611c1257600080fd5b505af1158015611c26573d6000803e3d6000fd5b505050506040513d6020811015611c3c57600080fd5b810190808051906020019092919050505015905090565b82611d2b611c5f6128a8565b73ffffffffffffffffffffffffffffffffffffffff16638839a29d836040518263ffffffff167c0100000000000000000000000000000000000000000000000000000000028152600401808260001916600019168152602001915050602060405180830381600087803b158015611cd557600080fd5b505af1158015611ce9573d6000803e3d6000fd5b505050506040513d6020811015611cff57600080fd5b8101908080519060200190929190505050611d1b605854611921565b611d26605954611921565b612631565b836000611d366128a8565b73ffffffffffffffffffffffffffffffffffffffff1663e5c2654e83336040518363ffffffff167c01000000000000000000000000000000000000000000000000000000000281526004018083600019166000191681526020018273ffffffffffffffffffffffffffffffffffffffff1673ffffffffffffffffffffffffffffffffffffffff168152602001925050506040805180830381600087803b158015611ddf57600080fd5b505af1158015611df3573d6000803e3d6000fd5b505050506040513d6040811015611e0957600080fd5b810190808051906020019092919080519060200190929190505050905080915050600081141515611e3957600080fd5b611e423361167e565b1515611e4d57600080fd5b611e556128a8565b73ffffffffffffffffffffffffffffffffffffffff1663f31a1ba287336040518363ffffffff167c01000000000000000000000000000000000000000000000000000000000281526004018083600019166000191681526020018273ffffffffffffffffffffffffffffffffffffffff1673ffffffffffffffffffffffffffffffffffffffff16815260200192505050602060405180830381600087803b158015611eff57600080fd5b505af1158015611f13573d6000803e3d6000fd5b505050506040513d6020811015611f2957600080fd5b810190808051906020019092919050505060001916338686604051602001808473ffffffffffffffffffffffffffffffffffffffff1673ffffffffffffffffffffffffffffffffffffffff166c0100000000000000000000000002815260140183151515157f0100000000000000000000000000000000000000000000000000000000000000028152600101826000191660001916815260200193505050506040516020818303038152906040526040518082805190602001908083835b60208310151561200c5780518252602082019150602081019050602083039250611fe7565b6001836020036101000a03801982511681845116808217855250505050505090500191505060405180910390206000191614151561204957600080fd5b6120516128a8565b73ffffffffffffffffffffffffffffffffffffffff1663462d701f873388612077612686565b73ffffffffffffffffffffffffffffffffffffffff1663cd094a27336040518263ffffffff167c0100000000000000000000000000000000000000000000000000000000028152600401808273ffffffffffffffffffffffffffffffffffffffff1673ffffffffffffffffffffffffffffffffffffffff168152602001915050602060405180830381600087803b15801561211157600080fd5b505af1158015612125573d6000803e3d6000fd5b505050506040513d602081101561213b57600080fd5b81019080805190602001909291905050506040518563ffffffff167c01000000000000000000000000000000000000000000000000000000000281526004018085600019166000191681526020018473ffffffffffffffffffffffffffffffffffffffff1673ffffffffffffffffffffffffffffffffffffffff16815260200183151515158152602001828152602001945050505050600060405180830381600087803b1580156121eb57600080fd5b505af11580156121ff573d6000803e3d6000fd5b5050505061220b612698565b73ffffffffffffffffffffffffffffffffffffffff16631eee015433612232605354611921565b61223a61166e565b6040518463ffffffff167c0100000000000000000000000000000000000000000000000000000000028152600401808473ffffffffffffffffffffffffffffffffffffffff1673ffffffffffffffffffffffffffffffffffffffff16815260200183815260200182815260200193505050506040805180830381600087803b1580156122c557600080fd5b505af11580156122d9573d6000803e3d6000fd5b505050506040513d60408110156122ef57600080fd5b8101908080519060200190929190805190602001909291905050505050505050505050565b600260009054906101000a900473ffffffffffffffffffffffffffffffffffffffff1681565b600061234461166e565b61234c612896565b73ffffffffffffffffffffffffffffffffffffffff1663cefc2bff846040518263ffffffff167c0100000000000000000000000000000000000000000000000000000000028152600401808273ffffffffffffffffffffffffffffffffffffffff1673ffffffffffffffffffffffffffffffffffffffff168152602001915050602060405180830381600087803b1580156123e657600080fd5b505af11580156123fa573d6000803e3d6000fd5b505050506040513d602081101561241057600080fd5b81019080805190602001909291905050501480156125145750612434603654611921565b61243c612686565b73ffffffffffffffffffffffffffffffffffffffff1663cd094a27846040518263ffffffff167c0100000000000000000000000000000000000000000000000000000000028152600401808273ffffffffffffffffffffffffffffffffffffffff1673ffffffffffffffffffffffffffffffffffffffff168152602001915050602060405180830381600087803b1580156124d657600080fd5b505af11580156124ea573d6000803e3d6000fd5b505050506040513d602081101561250057600080fd5b810190808051906020019092919050505010155b80156126065750612526603754611921565b61252e612698565b73ffffffffffffffffffffffffffffffffffffffff16639c89a0e2846040518263ffffffff167c0100000000000000000000000000000000000000000000000000000000028152600401808273ffffffffffffffffffffffffffffffffffffffff1673ffffffffffffffffffffffffffffffffffffffff168152602001915050602060405180830381600087803b1580156125c857600080fd5b505af11580156125dc573d6000803e3d6000fd5b505050506040513d60208110156125f257600080fd5b810190808051906020019092919050505010155b9050919050565b600061261a602b54610e7a565b905090565b600061262c602554610e7a565b905090565b60008311151561264057600080fd5b61265381846128cc90919063ffffffff16565b4210151561266057600080fd5b61267382846128cc90919063ffffffff16565b421015151561268157600080fd5b505050565b6000612693602c54610e7a565b905090565b60006126a5602954610e7a565b905090565b60006126b46128e8565b15156126bf57600080fd5b6126ca603954611921565b6127826126d56128ba565b73ffffffffffffffffffffffffffffffffffffffff1663d9c6bb206040518163ffffffff167c0100000000000000000000000000000000000000000000000000000000028152600401602060405180830381600087803b15801561273857600080fd5b505af115801561274c573d6000803e3d6000fd5b505050506040513d602081101561276257600080fd5b81019080805190602001909291905050508461299890919063ffffffff16565b81151561278b57fe5b069050919050565b600061279d6128e8565b15156127a857600080fd5b61288f60016128816127bb603954611921565b6128736127c66128ba565b73ffffffffffffffffffffffffffffffffffffffff1663d9c6bb206040518163ffffffff167c0100000000000000000000000000000000000000000000000000000000028152600401602060405180830381600087803b15801561282957600080fd5b505af115801561283d573d6000803e3d6000fd5b505050506040513d602081101561285357600080fd5b81019080805190602001909291905050508761299890919063ffffffff16565b6129b190919063ffffffff16565b6128cc90919063ffffffff16565b9050919050565b60006128a3602d54610e7a565b905090565b60006128b5602a54610e7a565b905090565b60006128c7602754610e7a565b905090565b600081830190508281101515156128df57fe5b80905092915050565b6000806128f36128ba565b73ffffffffffffffffffffffffffffffffffffffff1663d9c6bb206040518163ffffffff167c0100000000000000000000000000000000000000000000000000000000028152600401602060405180830381600087803b15801561295657600080fd5b505af115801561296a573d6000803e3d6000fd5b505050506040513d602081101561298057600080fd5b81019080805190602001909291905050501415905090565b60008282111515156129a657fe5b818303905092915050565b600081838115156129be57fe5b049050929150505600a165627a7a72305820fbe6b1b426e40a5924d1fc0e520e27cfd3f48ed43799b3349718f9033b97e9c90029",
  "source": "pragma solidity ^0.4.25;\n\nimport \"../common/DaoCommon.sol\";\n\n/**\n@title Contract for all voting operations of DAO\n@author Digix Holdings\n*/\ncontract DaoVoting is DaoCommon {\n\n    constructor(address _resolver) public {\n        require(init(CONTRACT_DAO_VOTING, _resolver));\n    }\n\n\n    /**\n    @notice Function to vote on draft proposal (only Moderators can vote)\n    @param _proposalId ID of the proposal\n    @param _vote Boolean, true if voting for, false if voting against\n    */\n    function voteOnDraft(\n        bytes32 _proposalId,\n        bool _vote\n    )\n        public\n        ifDraftVotingPhase(_proposalId)\n    {\n        require(isMainPhase());\n        require(isModerator(msg.sender));\n        address _moderator = msg.sender;\n        uint256 _moderatorStake = daoStakeStorage().lockedDGDStake(_moderator);\n\n        uint256 _voteWeight;\n        (,_voteWeight) = daoStorage().readDraftVote(_proposalId, _moderator);\n\n        daoStorage().addDraftVote(_proposalId, _moderator, _vote, _moderatorStake);\n\n        if (_voteWeight == 0) { // just voted the first time\n            daoPointsStorage().addModeratorQuarterPoint(_moderator, getUintConfig(CONFIG_QUARTER_POINT_DRAFT_VOTE), currentQuarterNumber());\n        }\n    }\n\n\n    /**\n    @notice Function to commit a vote on special proposal\n    @param _proposalId ID of the proposal\n    @param _commitHash Hash of the vote to commit (hash = SHA3(address(pub_address), bool(vote), bytes(random string)))\n    @return {\n      \"_success\": \"Boolean, true if vote was committed successfully\"\n    }\n    */\n    function commitVoteOnSpecialProposal(\n        bytes32 _proposalId,\n        bytes32 _commitHash\n    )\n        public\n        ifCommitPhaseSpecial(_proposalId)\n    {\n        require(isParticipant(msg.sender));\n        daoSpecialStorage().commitVote(_proposalId, _commitHash, msg.sender);\n    }\n\n\n    /**\n    @notice Function to reveal a committed vote on special proposal\n    @dev The lockedDGDStake that would be counted behind a participant's vote is his lockedDGDStake when this function is called\n    @param _proposalId ID of the proposal\n    @param _vote Boolean, true if voted for, false if voted against\n    @param _salt Random bytes used to commit vote\n    */\n    function revealVoteOnSpecialProposal(\n        bytes32 _proposalId,\n        bool _vote,\n        bytes32 _salt\n    )\n        public\n        ifRevealPhaseSpecial(_proposalId)\n        hasNotRevealedSpecial(_proposalId)\n    {\n        require(isParticipant(msg.sender));\n        require(keccak256(abi.encodePacked(msg.sender, _vote, _salt)) == daoSpecialStorage().readComittedVote(_proposalId, msg.sender));\n        daoSpecialStorage().revealVote(_proposalId, msg.sender, _vote, daoStakeStorage().lockedDGDStake(msg.sender));\n        daoPointsStorage().addQuarterPoint(msg.sender, getUintConfig(CONFIG_QUARTER_POINT_VOTE), currentQuarterNumber());\n    }\n\n\n    /**\n    @notice Function to commit a vote on proposal (Voting Round)\n    @param _proposalId ID of the proposal\n    @param _index Index of the Voting Round\n    @param _commitHash Hash of the vote to commit (hash = SHA3(address(pub_address), bool(vote), bytes32(random string)))\n    */\n    function commitVoteOnProposal(\n        bytes32 _proposalId,\n        uint8 _index,\n        bytes32 _commitHash\n    )\n        public\n        ifCommitPhase(_proposalId, _index)\n    {\n        require(isParticipant(msg.sender));\n        daoStorage().commitVote(_proposalId, _commitHash, msg.sender, _index);\n    }\n\n\n    /**\n    @notice Function to reveal a committed vote on proposal (Voting Round)\n    @dev The lockedDGDStake that would be counted behind a participant's vote is his lockedDGDStake when this function is called\n    @param _proposalId ID of the proposal\n    @param _index Index of the Voting Round\n    @param _vote Boolean, true if voted for, false if voted against\n    @param _salt Random bytes used to commit vote\n    */\n    function revealVoteOnProposal(\n        bytes32 _proposalId,\n        uint8 _index,\n        bool _vote,\n        bytes32 _salt\n    )\n        public\n        ifRevealPhase(_proposalId, _index)\n        hasNotRevealed(_proposalId, _index)\n    {\n        require(isParticipant(msg.sender));\n        require(keccak256(abi.encodePacked(msg.sender, _vote, _salt)) == daoStorage().readComittedVote(_proposalId, _index, msg.sender));\n        daoStorage().revealVote(_proposalId, msg.sender, _vote, daoStakeStorage().lockedDGDStake(msg.sender), _index);\n        daoPointsStorage().addQuarterPoint(\n            msg.sender,\n            getUintConfig(_index == 0 ? CONFIG_QUARTER_POINT_VOTE : CONFIG_QUARTER_POINT_INTERIM_VOTE),\n            currentQuarterNumber()\n        );\n    }\n}\n",
  "sourcePath": "/home/rohit/Develop/dao-contracts/contracts/interactive/DaoVoting.sol",
  "compiler": {
    "name": "solc",
    "version": "0.4.25+commit.59dbf8f1.Emscripten.clang"
  },
  "schemaVersion": "2.0.2",
  "updatedAt": "2019-03-19T05:26:59.190Z"
}