{
  "contractName": "DaoVoting",
  "abi": [
    {
      "constant": true,
      "inputs": [],
      "name": "resolver",
      "outputs": [
        {
          "name": "",
          "type": "address"
        }
      ],
      "payable": false,
      "stateMutability": "view",
      "type": "function"
    },
    {
      "constant": true,
      "inputs": [
        {
          "name": "_configKey",
          "type": "bytes32"
        }
      ],
      "name": "getAddressConfig",
      "outputs": [
        {
          "name": "_configValue",
          "type": "address"
        }
      ],
      "payable": false,
      "stateMutability": "view",
      "type": "function"
    },
    {
      "constant": true,
      "inputs": [],
      "name": "key",
      "outputs": [
        {
          "name": "",
          "type": "bytes32"
        }
      ],
      "payable": false,
      "stateMutability": "view",
      "type": "function"
    },
    {
      "constant": true,
      "inputs": [
        {
          "name": "_key",
          "type": "bytes32"
        }
      ],
      "name": "get_contract",
      "outputs": [
        {
          "name": "_contract",
          "type": "address"
        }
      ],
      "payable": false,
      "stateMutability": "view",
      "type": "function"
    },
    {
      "constant": true,
      "inputs": [],
      "name": "currentTimeInQuarter",
      "outputs": [
        {
          "name": "_currentT",
          "type": "uint256"
        }
      ],
      "payable": false,
      "stateMutability": "view",
      "type": "function"
    },
    {
      "constant": true,
      "inputs": [],
      "name": "isMainPhase",
      "outputs": [
        {
          "name": "_isMainPhase",
          "type": "bool"
        }
      ],
      "payable": false,
      "stateMutability": "view",
      "type": "function"
    },
    {
      "constant": true,
      "inputs": [],
      "name": "isLockingPhase",
      "outputs": [
        {
          "name": "_isLockingPhase",
          "type": "bool"
        }
      ],
      "payable": false,
      "stateMutability": "view",
      "type": "function"
    },
    {
      "constant": true,
      "inputs": [],
      "name": "currentQuarterNumber",
      "outputs": [
        {
          "name": "_quarterNumber",
          "type": "uint256"
        }
      ],
      "payable": false,
      "stateMutability": "view",
      "type": "function"
    },
    {
      "constant": true,
      "inputs": [
        {
          "name": "_user",
          "type": "address"
        }
      ],
      "name": "isParticipant",
      "outputs": [
        {
          "name": "_is",
          "type": "bool"
        }
      ],
      "payable": false,
      "stateMutability": "view",
      "type": "function"
    },
    {
      "constant": true,
      "inputs": [
        {
          "name": "_configKey",
          "type": "bytes32"
        }
      ],
      "name": "getBytesConfig",
      "outputs": [
        {
          "name": "_configValue",
          "type": "bytes32"
        }
      ],
      "payable": false,
      "stateMutability": "view",
      "type": "function"
    },
    {
      "constant": true,
      "inputs": [
        {
          "name": "_configKey",
          "type": "bytes32"
        }
      ],
      "name": "getUintConfig",
      "outputs": [
        {
          "name": "_configValue",
          "type": "uint256"
        }
      ],
      "payable": false,
      "stateMutability": "view",
      "type": "function"
    },
    {
      "constant": true,
      "inputs": [],
      "name": "isDaoNotReplaced",
      "outputs": [
        {
          "name": "_isNotReplaced",
          "type": "bool"
        }
      ],
      "payable": false,
      "stateMutability": "view",
      "type": "function"
    },
    {
      "constant": true,
      "inputs": [],
      "name": "CONTRACT_ADDRESS",
      "outputs": [
        {
          "name": "",
          "type": "address"
        }
      ],
      "payable": false,
      "stateMutability": "view",
      "type": "function"
    },
    {
      "constant": true,
      "inputs": [
        {
          "name": "_proposalId",
          "type": "bytes32"
        }
      ],
      "name": "isProposalPaused",
      "outputs": [
        {
          "name": "_isPausedOrStopped",
          "type": "bool"
        }
      ],
      "payable": false,
      "stateMutability": "view",
      "type": "function"
    },
    {
      "constant": true,
      "inputs": [
        {
          "name": "_user",
          "type": "address"
        }
      ],
      "name": "isModerator",
      "outputs": [
        {
          "name": "_is",
          "type": "bool"
        }
      ],
      "payable": false,
      "stateMutability": "view",
      "type": "function"
    },
    {
      "inputs": [
        {
          "name": "_resolver",
          "type": "address"
        }
      ],
      "payable": false,
      "stateMutability": "nonpayable",
      "type": "constructor"
    },
    {
      "constant": false,
      "inputs": [
        {
          "name": "_proposalId",
          "type": "bytes32"
        },
        {
          "name": "_vote",
          "type": "bool"
        }
      ],
      "name": "voteOnDraft",
      "outputs": [],
      "payable": false,
      "stateMutability": "nonpayable",
      "type": "function"
    },
    {
      "constant": false,
      "inputs": [
        {
          "name": "_proposalId",
          "type": "bytes32"
        },
        {
          "name": "_commitHash",
          "type": "bytes32"
        }
      ],
      "name": "commitVoteOnSpecialProposal",
      "outputs": [],
      "payable": false,
      "stateMutability": "nonpayable",
      "type": "function"
    },
    {
      "constant": false,
      "inputs": [
        {
          "name": "_proposalId",
          "type": "bytes32"
        },
        {
          "name": "_vote",
          "type": "bool"
        },
        {
          "name": "_salt",
          "type": "bytes32"
        }
      ],
      "name": "revealVoteOnSpecialProposal",
      "outputs": [],
      "payable": false,
      "stateMutability": "nonpayable",
      "type": "function"
    },
    {
      "constant": false,
      "inputs": [
        {
          "name": "_proposalId",
          "type": "bytes32"
        },
        {
          "name": "_index",
          "type": "uint8"
        },
        {
          "name": "_commitHash",
          "type": "bytes32"
        }
      ],
      "name": "commitVoteOnProposal",
      "outputs": [],
      "payable": false,
      "stateMutability": "nonpayable",
      "type": "function"
    },
    {
      "constant": false,
      "inputs": [
        {
          "name": "_proposalId",
          "type": "bytes32"
        },
        {
          "name": "_index",
          "type": "uint8"
        },
        {
          "name": "_vote",
          "type": "bool"
        },
        {
          "name": "_salt",
          "type": "bytes32"
        }
      ],
      "name": "revealVoteOnProposal",
      "outputs": [],
      "payable": false,
      "stateMutability": "nonpayable",
      "type": "function"
    }
  ],
  "bytecode": "0x608060405260006001026003906000191690556000600460006101000a81548173ffffffffffffffffffffffffffffffffffffffff021916908373ffffffffffffffffffffffffffffffffffffffff1602179055507f70726f706f73616c5f73746174655f70726570726f706f73616c0000000000006005906000191690557f70726f706f73616c5f73746174655f64726166740000000000000000000000006006906000191690557f70726f706f73616c5f73746174655f6d6f6465726174656400000000000000006007906000191690557f70726f706f73616c5f73746174655f6f6e676f696e67000000000000000000006008906000191690557f70726f706f73616c5f73746174655f636c6f73656400000000000000000000006009906000191690557f70726f706f73616c5f73746174655f6172636869766564000000000000000000600a906000191690556001600b556002600c556003600d556001600e556002600f5560036010557f696e7465725f6467645f696400000000000000000000000000000000000000006011906000191690557f696e7465725f6d6f645f6467645f6964000000000000000000000000000000006012906000191690557f696e7465725f626f6e75735f63616c63756c6174696f6e5f69640000000000006013906000191690557f64616f00000000000000000000000000000000000000000000000000000000006014906000191690557f64616f3a7370656369616c3a70726f706f73616c0000000000000000000000006015906000191690557f64616f3a7374616b652d6c6f636b696e670000000000000000000000000000006016906000191690557f64616f3a766f74696e67000000000000000000000000000000000000000000006017906000191690557f64616f3a766f74696e673a636c61696d730000000000000000000000000000006018906000191690557f64616f3a73766f74696e673a636c61696d7300000000000000000000000000006019906000191690557f64616f3a6964656e746974790000000000000000000000000000000000000000601a906000191690557f64616f3a726577617264732d6d616e6167657200000000000000000000000000601b906000191690557f64616f3a726577617264732d6578747261730000000000000000000000000000601c906000191690557f64616f3a726f6c65730000000000000000000000000000000000000000000000601d906000191690557f64616f3a66756e64696e672d6d616e6167657200000000000000000000000000601e906000191690557f64616f3a77686974656c697374696e6700000000000000000000000000000000601f906000191690557f64616f3a696e666f726d6174696f6e00000000000000000000000000000000006020906000191690557f736572766963653a726f6c6500000000000000000000000000000000000000006021906000191690557f736572766963653a64616f3a696e666f000000000000000000000000000000006022906000191690557f736572766963653a64616f3a6c697374696e67000000000000000000000000006023906000191690557f736572766963653a64616f3a63616c63756c61746f72000000000000000000006024906000191690557f73746f726167653a64616f0000000000000000000000000000000000000000006025906000191690557f73746f726167653a64616f3a636f756e746572000000000000000000000000006026906000191690557f73746f726167653a64616f3a75706772616465000000000000000000000000006027906000191690557f73746f726167653a64616f3a6964656e746974790000000000000000000000006028906000191690557f73746f726167653a64616f3a706f696e747300000000000000000000000000006029906000191690557f73746f726167653a64616f3a7370656369616c00000000000000000000000000602a906000191690557f73746f726167653a64616f3a636f6e6669670000000000000000000000000000602b906000191690557f73746f726167653a64616f3a7374616b65000000000000000000000000000000602c906000191690557f73746f726167653a64616f3a7265776172647300000000000000000000000000602d906000191690557f73746f726167653a64616f3a77686974656c697374696e670000000000000000602e906000191690557f73746f726167653a696e7465726d6564696174653a726573756c747300000000602f906000191690557f743a6467640000000000000000000000000000000000000000000000000000006030906000191690557f743a6467780000000000000000000000000000000000000000000000000000006031906000191690557f743a6261646765000000000000000000000000000000000000000000000000006032906000191690556001603360006101000a81548160ff021916908360ff1602179055506002603360016101000a81548160ff021916908360ff1602179055506003603360026101000a81548160ff021916908360ff1602179055506004603360036101000a81548160ff021916908360ff1602179055506276a7006034557f6d696e5f6467645f7061727469636970616e74000000000000000000000000006035906000191690557f6d696e5f6467645f6d6f64657261746f720000000000000000000000000000006036906000191690557f6d696e5f72657075746174696f6e5f6d6f64657261746f7200000000000000006037906000191690557f6c6f636b696e675f70686173655f6475726174696f6e000000000000000000006038906000191690557f717561727465725f6475726174696f6e000000000000000000000000000000006039906000191690557f766f74696e675f636f6d6d69745f706861736500000000000000000000000000603a906000191690557f766f74696e675f70686173655f746f74616c0000000000000000000000000000603b906000191690557f696e746572696d5f766f74696e675f636f6d6d69745f70686173650000000000603c906000191690557f696e746572696d5f766f74696e675f70686173655f746f74616c000000000000603d906000191690557f64726166745f71756f72756d5f66697865645f6e756d657261746f7200000000603e906000191690557f64726166745f71756f72756d5f66697865645f64656e6f6d696e61746f720000603f906000191690557f64726166745f71756f72756d5f73666163746f725f6e756d657261746f7200006040906000191690557f64726166745f71756f72756d5f73666163746f725f64656e6f6d696e61746f726041906000191690557f766f74655f71756f72756d5f66697865645f6e756d657261746f7200000000006042906000191690557f766f74655f71756f72756d5f66697865645f64656e6f6d696e61746f720000006043906000191690557f766f74655f71756f72756d5f73666163746f725f6e756d657261746f720000006044906000191690557f766f74655f71756f72756d5f73666163746f725f64656e6f6d696e61746f72006045906000191690557f66696e616c5f7265776172645f73666163746f725f6e756d657261746f7200006046906000191690557f66696e616c5f7265776172645f73666163746f725f64656e6f6d696e61746f726047906000191690557f64726166745f71756f74615f6e756d657261746f7200000000000000000000006048906000191690557f64726166745f71756f74615f64656e6f6d696e61746f720000000000000000006049906000191690557f766f74696e675f71756f74615f6e756d657261746f7200000000000000000000604a906000191690557f766f74696e675f71756f74615f64656e6f6d696e61746f720000000000000000604b906000191690557f6d696e696d616c5f717000000000000000000000000000000000000000000000604c906000191690557f717561727465725f706f696e745f7363616c696e675f666163746f7200000000604d906000191690557f7265705f706f696e745f7363616c696e675f666163746f720000000000000000604e906000191690557f6d696e696d616c5f6d6f645f7170000000000000000000000000000000000000604f906000191690557f6d6f645f71705f7363616c696e675f666163746f7200000000000000000000006050906000191690557f6d6f645f7265705f706f696e745f7363616c696e675f666163746f72000000006051906000191690557f717561727465725f706f696e745f64726166745f766f746500000000000000006052906000191690557f717561727465725f706f696e745f766f746500000000000000000000000000006053906000191690557f717561727465725f706f696e745f696e746572696d5f766f74650000000000006054906000191690557f715f705f6d696c6573746f6e655f636f6d706c6574696f6e00000000000000006055906000191690557f626f6e75735f72657075746174696f6e5f6e756d657261746f720000000000006056906000191690557f626f6e75735f72657075746174696f6e5f64656e6f6d696e61746f72000000006057906000191690557f7370656369616c5f70726f706f73616c5f636f6d6d69745f70686173650000006058906000191690557f7370656369616c5f70726f706f73616c5f70686173655f746f74616c000000006059906000191690557f636f6e6669675f7370656369616c5f71756f74615f6e756d657261746f720000605a906000191690557f636f6e6669675f7370656369616c5f71756f74615f64656e6f6d696e61746f72605b906000191690557f7370656369616c5f71756f72756d5f6e756d657261746f720000000000000000605c906000191690557f7370656369616c5f71756f72756d5f64656e6f6d696e61746f72000000000000605d906000191690557f636f6e6669675f6d61785f72657075746174696f6e5f646564756374696f6e00605e906000191690557f636f6e6669675f70756e6973686d656e745f6e6f745f6c6f636b696e67000000605f906000191690557f636f6e6669675f7265705f7065725f65787472615f71705f6e756d00000000006060906000191690557f636f6e6669675f7265705f7065725f65787472615f71705f64656e00000000006061906000191690557f636f6e6669675f6d61785f6d5f72705f646564756374696f6e000000000000006062906000191690557f636f6e6669675f7265705f7065725f65787472615f6d5f71705f6e756d0000006063906000191690557f636f6e6669675f7265705f7065725f65787472615f6d5f71705f64656e0000006064906000191690557f636f6e6669675f6d6f645f706f7274696f6e5f6e756d000000000000000000006065906000191690557f636f6e6669675f6d6f645f706f7274696f6e5f64656e000000000000000000006066906000191690557f636f6e6669675f64726166745f766f74696e675f7068617365000000000000006067906000191690557f636f6e6669675f72705f626f6f73745f7065725f6261646765000000000000006068906000191690557f636f6e6669675f636c61696d696e675f646561646c696e6500000000000000006069906000191690557f636f6e6669675f70726570726f706f73616c5f636f6c6c61746572616c000000606a906000191690557f636f6e6669675f6d61785f66756e64696e675f6e6f6e44696769780000000000606b906000191690557f636f6e6669675f6d61785f6d696c6573746f6e65735f6e6f6e44696769780000606c906000191690557f636f6e6669675f6e6f6e44696769785f70726f706f73616c5f63617000000000606d906000191690557f636f6e6669675f646561645f6475726174696f6e000000000000000000000000606e906000191690557f636f6e6669675f63765f72657075746174696f6e000000000000000000000000606f906000191690553480156200113457600080fd5b506040516020806200430d83398101806040528101908080519060200190929190505050620011756017548262001188640100000000026401000000009004565b15156200118157600080fd5b5062001419565b6000808273ffffffffffffffffffffffffffffffffffffffff16636d19a8826040518163ffffffff167c0100000000000000000000000000000000000000000000000000000000028152600401602060405180830381600087803b158015620011f057600080fd5b505af115801562001205573d6000803e3d6000fd5b505050506040513d60208110156200121c57600080fd5b810190808051906020019092919050505090506000151581151514156200140d5730600260006101000a81548173ffffffffffffffffffffffffffffffffffffffff021916908373ffffffffffffffffffffffffffffffffffffffff160217905550826000806101000a81548173ffffffffffffffffffffffffffffffffffffffff021916908373ffffffffffffffffffffffffffffffffffffffff16021790555083600181600019169055506000809054906101000a900473ffffffffffffffffffffffffffffffffffffffff1673ffffffffffffffffffffffffffffffffffffffff1663c0f6ef4a600154600260009054906101000a900473ffffffffffffffffffffffffffffffffffffffff166040518363ffffffff167c01000000000000000000000000000000000000000000000000000000000281526004018083600019166000191681526020018273ffffffffffffffffffffffffffffffffffffffff1673ffffffffffffffffffffffffffffffffffffffff16815260200192505050602060405180830381600087803b158015620013ba57600080fd5b505af1158015620013cf573d6000803e3d6000fd5b505050506040513d6020811015620013e657600080fd5b810190808051906020019092919050505015156200140357600080fd5b6001915062001412565b600091505b5092915050565b612ee480620014296000396000f300608060405260043610610112576000357c0100000000000000000000000000000000000000000000000000000000900463ffffffff16806304f3bcec146101175780631d8ccd041461016e5780632b051b50146101df5780633943380c146102375780633f83acff1461026a578063560a25ea146102db5780635e8254ea14610306578063610af57014610352578063685330601461038f5780637d6fed80146103be5780637f6a26b6146103ed578063929066f51461041857806393ddad0814610473578063b1e2b9dd146104c0578063be29783f14610505578063d70d935814610544578063d9db3c7314610573578063db4ecbc1146105be578063f94f0f3314610615578063fa6f39361461065e575b600080fd5b34801561012357600080fd5b5061012c6106b9565b604051808273ffffffffffffffffffffffffffffffffffffffff1673ffffffffffffffffffffffffffffffffffffffff16815260200191505060405180910390f35b34801561017a57600080fd5b5061019d60048036038101908080356000191690602001909291905050506106de565b604051808273ffffffffffffffffffffffffffffffffffffffff1673ffffffffffffffffffffffffffffffffffffffff16815260200191505060405180910390f35b3480156101eb57600080fd5b506102356004803603810190808035600019169060200190929190803560ff16906020019092919080351515906020019092919080356000191690602001909291905050506107a0565b005b34801561024357600080fd5b5061024c611003565b60405180826000191660001916815260200191505060405180910390f35b34801561027657600080fd5b506102996004803603810190808035600019169060200190929190505050611009565b604051808273ffffffffffffffffffffffffffffffffffffffff1673ffffffffffffffffffffffffffffffffffffffff16815260200191505060405180910390f35b3480156102e757600080fd5b506102f06110e5565b6040518082815260200191505060405180910390f35b34801561031257600080fd5b506103506004803603810190808035600019169060200190929190803560ff16906020019092919080356000191690602001909291905050506110f5565b005b34801561035e57600080fd5b5061038d60048036038101908080356000191690602001909291908035151590602001909291905050506112e4565b005b34801561039b57600080fd5b506103a461181f565b604051808215151515815260200191505060405180910390f35b3480156103ca57600080fd5b506103d361184b565b604051808215151515815260200191505060405180910390f35b3480156103f957600080fd5b50610402611866565b6040518082815260200191505060405180910390f35b34801561042457600080fd5b50610459600480360381019080803573ffffffffffffffffffffffffffffffffffffffff169060200190929190505050611876565b604051808215151515815260200191505060405180910390f35b34801561047f57600080fd5b506104a26004803603810190808035600019169060200190929190505050611a57565b60405180826000191660001916815260200191505060405180910390f35b3480156104cc57600080fd5b506104ef6004803603810190808035600019169060200190929190505050611b19565b6040518082815260200191505060405180910390f35b34801561051157600080fd5b5061054260048036038101908080356000191690602001909291908035600019169060200190929190505050611bdb565b005b34801561055057600080fd5b50610559611e06565b604051808215151515815260200191505060405180910390f35b34801561057f57600080fd5b506105bc60048036038101908080356000191690602001909291908035151590602001909291908035600019169060200190929190505050611eb4565b005b3480156105ca57600080fd5b506105d3612575565b604051808273ffffffffffffffffffffffffffffffffffffffff1673ffffffffffffffffffffffffffffffffffffffff16815260200191505060405180910390f35b34801561062157600080fd5b50610644600480360381019080803560001916906020019092919050505061259b565b604051808215151515815260200191505060405180910390f35b34801561066a57600080fd5b5061069f600480360381019080803573ffffffffffffffffffffffffffffffffffffffff1690602001909291905050506126f0565b604051808215151515815260200191505060405180910390f35b6000809054906101000a900473ffffffffffffffffffffffffffffffffffffffff1681565b60006106e86129c3565b73ffffffffffffffffffffffffffffffffffffffff1663e6b39eab836040518263ffffffff167c0100000000000000000000000000000000000000000000000000000000028152600401808260001916600019168152602001915050602060405180830381600087803b15801561075e57600080fd5b505af1158015610772573d6000803e3d6000fd5b505050506040513d602081101561078857600080fd5b81019080805190602001909291905050509050919050565b838360ff166108a66107b06129d5565b73ffffffffffffffffffffffffffffffffffffffff1663baf4266084846040518363ffffffff167c010000000000000000000000000000000000000000000000000000000002815260040180836000191660001916815260200182815260200192505050602060405180830381600087803b15801561082e57600080fd5b505af1158015610842573d6000803e3d6000fd5b505050506040513d602081101561085857600080fd5b81019080805190602001909291905050506108856000841461087c57603c54610880565b603a545b611b19565b6108a16000851461089857603d5461089c565b603b545b611b19565b6129e7565b858560ff1660006108b56129d5565b73ffffffffffffffffffffffffffffffffffffffff16631d2103d18484336040518463ffffffff167c01000000000000000000000000000000000000000000000000000000000281526004018084600019166000191681526020018381526020018273ffffffffffffffffffffffffffffffffffffffff1673ffffffffffffffffffffffffffffffffffffffff16815260200193505050506040805180830381600087803b15801561096657600080fd5b505af115801561097a573d6000803e3d6000fd5b505050506040513d604081101561099057600080fd5b810190808051906020019092919080519060200190929190505050905080915050600081141515610a29576040517f08c379a00000000000000000000000000000000000000000000000000000000081526004018080602001828103825260148152602001807f68617320616c72656164792072657665616c656400000000000000000000000081525060200191505060405180910390fd5b610a3233611876565b1515610aa6576040517f08c379a000000000000000000000000000000000000000000000000000000000815260040180806020018281038252600f8152602001807f6e6f74207061727469636970616e74000000000000000000000000000000000081525060200191505060405180910390fd5b610aae6129d5565b73ffffffffffffffffffffffffffffffffffffffff1663598f0eaf8a8a336040518463ffffffff167c01000000000000000000000000000000000000000000000000000000000281526004018084600019166000191681526020018360ff1681526020018273ffffffffffffffffffffffffffffffffffffffff1673ffffffffffffffffffffffffffffffffffffffff1681526020019350505050602060405180830381600087803b158015610b6357600080fd5b505af1158015610b77573d6000803e3d6000fd5b505050506040513d6020811015610b8d57600080fd5b810190808051906020019092919050505060001916338888604051602001808473ffffffffffffffffffffffffffffffffffffffff1673ffffffffffffffffffffffffffffffffffffffff166c0100000000000000000000000002815260140183151515157f0100000000000000000000000000000000000000000000000000000000000000028152600101826000191660001916815260200193505050506040516020818303038152906040526040518082805190602001908083835b602083101515610c705780518252602082019150602081019050602083039250610c4b565b6001836020036101000a038019825116818451168082178552505050505050905001915050604051809103902060001916141515610d16576040517f08c379a00000000000000000000000000000000000000000000000000000000081526004018080602001828103825260118152602001807f76616c69646174696f6e206661696c656400000000000000000000000000000081525060200191505060405180910390fd5b610d1e6129d5565b73ffffffffffffffffffffffffffffffffffffffff1663a6129f8c8a338a610d44612b77565b73ffffffffffffffffffffffffffffffffffffffff1663cd094a27336040518263ffffffff167c0100000000000000000000000000000000000000000000000000000000028152600401808273ffffffffffffffffffffffffffffffffffffffff1673ffffffffffffffffffffffffffffffffffffffff168152602001915050602060405180830381600087803b158015610dde57600080fd5b505af1158015610df2573d6000803e3d6000fd5b505050506040513d6020811015610e0857600080fd5b81019080805190602001909291905050508d6040518663ffffffff167c01000000000000000000000000000000000000000000000000000000000281526004018086600019166000191681526020018573ffffffffffffffffffffffffffffffffffffffff1673ffffffffffffffffffffffffffffffffffffffff168152602001841515151581526020018381526020018260ff16815260200195505050505050600060405180830381600087803b158015610ec357600080fd5b505af1158015610ed7573d6000803e3d6000fd5b50505050610ee3612b89565b73ffffffffffffffffffffffffffffffffffffffff16631eee015433610f1e60008c60ff1614610f1557605454610f19565b6053545b611b19565b610f26611866565b6040518463ffffffff167c0100000000000000000000000000000000000000000000000000000000028152600401808473ffffffffffffffffffffffffffffffffffffffff1673ffffffffffffffffffffffffffffffffffffffff16815260200183815260200182815260200193505050506040805180830381600087803b158015610fb157600080fd5b505af1158015610fc5573d6000803e3d6000fd5b505050506040513d6040811015610fdb57600080fd5b8101908080519060200190929190805190602001909291905050505050505050505050505050565b60015481565b60008060009054906101000a900473ffffffffffffffffffffffffffffffffffffffff1673ffffffffffffffffffffffffffffffffffffffff16633f83acff836040518263ffffffff167c0100000000000000000000000000000000000000000000000000000000028152600401808260001916600019168152602001915050602060405180830381600087803b1580156110a357600080fd5b505af11580156110b7573d6000803e3d6000fd5b505050506040513d60208110156110cd57600080fd5b81019080805190602001909291905050509050919050565b60006110f042612b9b565b905090565b82826111e46111026129d5565b73ffffffffffffffffffffffffffffffffffffffff1663baf4266084846040518363ffffffff167c01000000000000000000000000000000000000000000000000000000000281526004018083600019166000191681526020018260ff16815260200192505050602060405180830381600087803b15801561118357600080fd5b505af1158015611197573d6000803e3d6000fd5b505050506040513d60208110156111ad57600080fd5b810190808051906020019092919050505060006111df60008560ff16146111d657603c546111da565b603a545b611b19565b6129e7565b6111ed33611876565b15156111f857600080fd5b6112006129d5565b73ffffffffffffffffffffffffffffffffffffffff166358cec139868533886040518563ffffffff167c010000000000000000000000000000000000000000000000000000000002815260040180856000191660001916815260200184600019166000191681526020018373ffffffffffffffffffffffffffffffffffffffff1673ffffffffffffffffffffffffffffffffffffffff1681526020018260ff168152602001945050505050600060405180830381600087803b1580156112c557600080fd5b505af11580156112d9573d6000803e3d6000fd5b505050505050505050565b6000806000846113b86112f56129d5565b73ffffffffffffffffffffffffffffffffffffffff166349a428d0836040518263ffffffff167c0100000000000000000000000000000000000000000000000000000000028152600401808260001916600019168152602001915050602060405180830381600087803b15801561136b57600080fd5b505af115801561137f573d6000803e3d6000fd5b505050506040513d602081101561139557600080fd5b810190808051906020019092919050505060006113b3606754611b19565b6129e7565b6113c061181f565b15156113cb57600080fd5b6113d4336126f0565b1515611448576040517f08c379a000000000000000000000000000000000000000000000000000000000815260040180806020018281038252600d8152602001807f6e6f74206d6f64657261746f720000000000000000000000000000000000000081525060200191505060405180910390fd5b339350611453612b77565b73ffffffffffffffffffffffffffffffffffffffff1663cd094a27856040518263ffffffff167c0100000000000000000000000000000000000000000000000000000000028152600401808273ffffffffffffffffffffffffffffffffffffffff1673ffffffffffffffffffffffffffffffffffffffff168152602001915050602060405180830381600087803b1580156114ed57600080fd5b505af1158015611501573d6000803e3d6000fd5b505050506040513d602081101561151757600080fd5b810190808051906020019092919050505092506115326129d5565b73ffffffffffffffffffffffffffffffffffffffff1663e14b2c2687866040518363ffffffff167c01000000000000000000000000000000000000000000000000000000000281526004018083600019166000191681526020018273ffffffffffffffffffffffffffffffffffffffff1673ffffffffffffffffffffffffffffffffffffffff168152602001925050506040805180830381600087803b1580156115db57600080fd5b505af11580156115ef573d6000803e3d6000fd5b505050506040513d604081101561160557600080fd5b81019080805190602001909291908051906020019092919050505090508092505061162e6129d5565b73ffffffffffffffffffffffffffffffffffffffff16632fd010da878688876040518563ffffffff167c01000000000000000000000000000000000000000000000000000000000281526004018085600019166000191681526020018473ffffffffffffffffffffffffffffffffffffffff1673ffffffffffffffffffffffffffffffffffffffff16815260200183151515158152602001828152602001945050505050600060405180830381600087803b1580156116ec57600080fd5b505af1158015611700573d6000803e3d6000fd5b50505050600082141561181757611715612b89565b73ffffffffffffffffffffffffffffffffffffffff1663f2f80af48561173c605254611b19565b611744611866565b6040518463ffffffff167c0100000000000000000000000000000000000000000000000000000000028152600401808473ffffffffffffffffffffffffffffffffffffffff1673ffffffffffffffffffffffffffffffffffffffff16815260200183815260200182815260200193505050506040805180830381600087803b1580156117cf57600080fd5b505af11580156117e3573d6000803e3d6000fd5b505050506040513d60408110156117f957600080fd5b81019080805190602001909291908051906020019092919050505050505b505050505050565b6000611829611e06565b8015611846575061183b603854611b19565b6118436110e5565b10155b905090565b6000611858603854611b19565b6118606110e5565b10905090565b600061187142612c84565b905090565b6000611880611866565b611888612d87565b73ffffffffffffffffffffffffffffffffffffffff1663cefc2bff846040518263ffffffff167c0100000000000000000000000000000000000000000000000000000000028152600401808273ffffffffffffffffffffffffffffffffffffffff1673ffffffffffffffffffffffffffffffffffffffff168152602001915050602060405180830381600087803b15801561192257600080fd5b505af1158015611936573d6000803e3d6000fd5b505050506040513d602081101561194c57600080fd5b8101908080519060200190929190505050148015611a505750611970603554611b19565b611978612b77565b73ffffffffffffffffffffffffffffffffffffffff1663cd094a27846040518263ffffffff167c0100000000000000000000000000000000000000000000000000000000028152600401808273ffffffffffffffffffffffffffffffffffffffff1673ffffffffffffffffffffffffffffffffffffffff168152602001915050602060405180830381600087803b158015611a1257600080fd5b505af1158015611a26573d6000803e3d6000fd5b505050506040513d6020811015611a3c57600080fd5b810190808051906020019092919050505010155b9050919050565b6000611a616129c3565b73ffffffffffffffffffffffffffffffffffffffff1663c0a8405d836040518263ffffffff167c0100000000000000000000000000000000000000000000000000000000028152600401808260001916600019168152602001915050602060405180830381600087803b158015611ad757600080fd5b505af1158015611aeb573d6000803e3d6000fd5b505050506040513d6020811015611b0157600080fd5b81019080805190602001909291905050509050919050565b6000611b236129c3565b73ffffffffffffffffffffffffffffffffffffffff1663734c1168836040518263ffffffff167c0100000000000000000000000000000000000000000000000000000000028152600401808260001916600019168152602001915050602060405180830381600087803b158015611b9957600080fd5b505af1158015611bad573d6000803e3d6000fd5b505050506040513d6020811015611bc357600080fd5b81019080805190602001909291905050509050919050565b81611caa611be7612d99565b73ffffffffffffffffffffffffffffffffffffffff16638839a29d836040518263ffffffff167c0100000000000000000000000000000000000000000000000000000000028152600401808260001916600019168152602001915050602060405180830381600087803b158015611c5d57600080fd5b505af1158015611c71573d6000803e3d6000fd5b505050506040513d6020811015611c8757600080fd5b81019080805190602001909291905050506000611ca5605854611b19565b6129e7565b611cb333611876565b1515611d27576040517f08c379a000000000000000000000000000000000000000000000000000000000815260040180806020018281038252600f8152602001807f6e6f74207061727469636970616e74000000000000000000000000000000000081525060200191505060405180910390fd5b611d2f612d99565b73ffffffffffffffffffffffffffffffffffffffff16632e278bf98484336040518463ffffffff167c010000000000000000000000000000000000000000000000000000000002815260040180846000191660001916815260200183600019166000191681526020018273ffffffffffffffffffffffffffffffffffffffff1673ffffffffffffffffffffffffffffffffffffffff1681526020019350505050600060405180830381600087803b158015611de957600080fd5b505af1158015611dfd573d6000803e3d6000fd5b50505050505050565b6000611e10612dab565b73ffffffffffffffffffffffffffffffffffffffff16638bc865fd6040518163ffffffff167c0100000000000000000000000000000000000000000000000000000000028152600401602060405180830381600087803b158015611e7357600080fd5b505af1158015611e87573d6000803e3d6000fd5b505050506040513d6020811015611e9d57600080fd5b810190808051906020019092919050505015905090565b82611f8c611ec0612d99565b73ffffffffffffffffffffffffffffffffffffffff16638839a29d836040518263ffffffff167c0100000000000000000000000000000000000000000000000000000000028152600401808260001916600019168152602001915050602060405180830381600087803b158015611f3657600080fd5b505af1158015611f4a573d6000803e3d6000fd5b505050506040513d6020811015611f6057600080fd5b8101908080519060200190929190505050611f7c605854611b19565b611f87605954611b19565b6129e7565b836000611f97612d99565b73ffffffffffffffffffffffffffffffffffffffff1663e5c2654e83336040518363ffffffff167c01000000000000000000000000000000000000000000000000000000000281526004018083600019166000191681526020018273ffffffffffffffffffffffffffffffffffffffff1673ffffffffffffffffffffffffffffffffffffffff168152602001925050506040805180830381600087803b15801561204057600080fd5b505af1158015612054573d6000803e3d6000fd5b505050506040513d604081101561206a57600080fd5b81019080805190602001909291908051906020019092919050505090508091505060008114151561209a57600080fd5b6120a333611876565b15156120ae57600080fd5b6120b6612d99565b73ffffffffffffffffffffffffffffffffffffffff1663f31a1ba287336040518363ffffffff167c01000000000000000000000000000000000000000000000000000000000281526004018083600019166000191681526020018273ffffffffffffffffffffffffffffffffffffffff1673ffffffffffffffffffffffffffffffffffffffff16815260200192505050602060405180830381600087803b15801561216057600080fd5b505af1158015612174573d6000803e3d6000fd5b505050506040513d602081101561218a57600080fd5b810190808051906020019092919050505060001916338686604051602001808473ffffffffffffffffffffffffffffffffffffffff1673ffffffffffffffffffffffffffffffffffffffff166c0100000000000000000000000002815260140183151515157f0100000000000000000000000000000000000000000000000000000000000000028152600101826000191660001916815260200193505050506040516020818303038152906040526040518082805190602001908083835b60208310151561226d5780518252602082019150602081019050602083039250612248565b6001836020036101000a0380198251168184511680821785525050505050509050019150506040518091039020600019161415156122aa57600080fd5b6122b2612d99565b73ffffffffffffffffffffffffffffffffffffffff1663462d701f8733886122d8612b77565b73ffffffffffffffffffffffffffffffffffffffff1663cd094a27336040518263ffffffff167c0100000000000000000000000000000000000000000000000000000000028152600401808273ffffffffffffffffffffffffffffffffffffffff1673ffffffffffffffffffffffffffffffffffffffff168152602001915050602060405180830381600087803b15801561237257600080fd5b505af1158015612386573d6000803e3d6000fd5b505050506040513d602081101561239c57600080fd5b81019080805190602001909291905050506040518563ffffffff167c01000000000000000000000000000000000000000000000000000000000281526004018085600019166000191681526020018473ffffffffffffffffffffffffffffffffffffffff1673ffffffffffffffffffffffffffffffffffffffff16815260200183151515158152602001828152602001945050505050600060405180830381600087803b15801561244c57600080fd5b505af1158015612460573d6000803e3d6000fd5b5050505061246c612b89565b73ffffffffffffffffffffffffffffffffffffffff16631eee015433612493605354611b19565b61249b611866565b6040518463ffffffff167c0100000000000000000000000000000000000000000000000000000000028152600401808473ffffffffffffffffffffffffffffffffffffffff1673ffffffffffffffffffffffffffffffffffffffff16815260200183815260200182815260200193505050506040805180830381600087803b15801561252657600080fd5b505af115801561253a573d6000803e3d6000fd5b505050506040513d604081101561255057600080fd5b8101908080519060200190929190805190602001909291905050505050505050505050565b600260009054906101000a900473ffffffffffffffffffffffffffffffffffffffff1681565b60006125a56129d5565b73ffffffffffffffffffffffffffffffffffffffff1663d8d50179836040518263ffffffff167c010000000000000000000000000000000000000000000000000000000002815260040180826000191660001916815260200191505061014060405180830381600087803b15801561261c57600080fd5b505af1158015612630573d6000803e3d6000fd5b505050506040513d61014081101561264757600080fd5b8101908080519060200190929190805190602001909291908051906020019092919080519060200190929190805190602001909291908051906020019092919080519060200190929190805190602001909291908051906020019092919080519060200190929190505050909192939495969798509091929394959697509091929394959650909192939495509091929394509091929350909192509091505080915050919050565b60006126fa611866565b612702612d87565b73ffffffffffffffffffffffffffffffffffffffff1663cefc2bff846040518263ffffffff167c0100000000000000000000000000000000000000000000000000000000028152600401808273ffffffffffffffffffffffffffffffffffffffff1673ffffffffffffffffffffffffffffffffffffffff168152602001915050602060405180830381600087803b15801561279c57600080fd5b505af11580156127b0573d6000803e3d6000fd5b505050506040513d60208110156127c657600080fd5b81019080805190602001909291905050501480156128ca57506127ea603654611b19565b6127f2612b77565b73ffffffffffffffffffffffffffffffffffffffff1663cd094a27846040518263ffffffff167c0100000000000000000000000000000000000000000000000000000000028152600401808273ffffffffffffffffffffffffffffffffffffffff1673ffffffffffffffffffffffffffffffffffffffff168152602001915050602060405180830381600087803b15801561288c57600080fd5b505af11580156128a0573d6000803e3d6000fd5b505050506040513d60208110156128b657600080fd5b810190808051906020019092919050505010155b80156129bc57506128dc603754611b19565b6128e4612b89565b73ffffffffffffffffffffffffffffffffffffffff16639c89a0e2846040518263ffffffff167c0100000000000000000000000000000000000000000000000000000000028152600401808273ffffffffffffffffffffffffffffffffffffffff1673ffffffffffffffffffffffffffffffffffffffff168152602001915050602060405180830381600087803b15801561297e57600080fd5b505af1158015612992573d6000803e3d6000fd5b505050506040513d60208110156129a857600080fd5b810190808051906020019092919050505010155b9050919050565b60006129d0602b54611009565b905090565b60006129e2602554611009565b905090565b600083111515612a5f576040517f08c379a000000000000000000000000000000000000000000000000000000000815260040180806020018281038252600d8152602001807f7374617274206e6f74207365740000000000000000000000000000000000000081525060200191505060405180910390fd5b612a728184612dbd90919063ffffffff16565b42101515612ae8576040517f08c379a00000000000000000000000000000000000000000000000000000000081526004018080602001828103825260148152602001807f6e6f742077697468696e20706861736520656e6400000000000000000000000081525060200191505060405180910390fd5b612afb8284612dbd90919063ffffffff16565b4210151515612b72576040517f08c379a00000000000000000000000000000000000000000000000000000000081526004018080602001828103825260158152602001807f6e6f74206166746572207068617365207374617274000000000000000000000081525060200191505060405180910390fd5b505050565b6000612b84602c54611009565b905090565b6000612b96602954611009565b905090565b6000612ba5612dd9565b1515612bb057600080fd5b612bbb603954611b19565b612c73612bc6612dab565b73ffffffffffffffffffffffffffffffffffffffff1663d9c6bb206040518163ffffffff167c0100000000000000000000000000000000000000000000000000000000028152600401602060405180830381600087803b158015612c2957600080fd5b505af1158015612c3d573d6000803e3d6000fd5b505050506040513d6020811015612c5357600080fd5b810190808051906020019092919050505084612e8990919063ffffffff16565b811515612c7c57fe5b069050919050565b6000612c8e612dd9565b1515612c9957600080fd5b612d806001612d72612cac603954611b19565b612d64612cb7612dab565b73ffffffffffffffffffffffffffffffffffffffff1663d9c6bb206040518163ffffffff167c0100000000000000000000000000000000000000000000000000000000028152600401602060405180830381600087803b158015612d1a57600080fd5b505af1158015612d2e573d6000803e3d6000fd5b505050506040513d6020811015612d4457600080fd5b810190808051906020019092919050505087612e8990919063ffffffff16565b612ea290919063ffffffff16565b612dbd90919063ffffffff16565b9050919050565b6000612d94602d54611009565b905090565b6000612da6602a54611009565b905090565b6000612db8602754611009565b905090565b60008183019050828110151515612dd057fe5b80905092915050565b600080612de4612dab565b73ffffffffffffffffffffffffffffffffffffffff1663d9c6bb206040518163ffffffff167c0100000000000000000000000000000000000000000000000000000000028152600401602060405180830381600087803b158015612e4757600080fd5b505af1158015612e5b573d6000803e3d6000fd5b505050506040513d6020811015612e7157600080fd5b81019080805190602001909291905050501415905090565b6000828211151515612e9757fe5b818303905092915050565b60008183811515612eaf57fe5b049050929150505600a165627a7a72305820a95df52176e1386cc2499b79182e60ea5f1a443ff1310fd47db4c01f1c1277090029",
  "source": "pragma solidity ^0.4.25;\n\nimport \"../common/DaoCommon.sol\";\n\n/**\n@title Contract for all voting operations of DAO\n@author Digix Holdings\n*/\ncontract DaoVoting is DaoCommon {\n\n    constructor(address _resolver) public {\n        require(init(CONTRACT_DAO_VOTING, _resolver));\n    }\n\n\n    /**\n    @notice Function to vote on draft proposal (only Moderators can vote)\n    @param _proposalId ID of the proposal\n    @param _vote Boolean, true if voting for, false if voting against\n    */\n    function voteOnDraft(\n        bytes32 _proposalId,\n        bool _vote\n    )\n        public\n        ifDraftVotingPhase(_proposalId)\n    {\n        require(isMainPhase());\n        require(isModerator(msg.sender), \"not moderator\");\n        address _moderator = msg.sender;\n        uint256 _moderatorStake = daoStakeStorage().lockedDGDStake(_moderator);\n\n        uint256 _voteWeight;\n        (,_voteWeight) = daoStorage().readDraftVote(_proposalId, _moderator);\n\n        daoStorage().addDraftVote(_proposalId, _moderator, _vote, _moderatorStake);\n\n        if (_voteWeight == 0) { // just voted the first time\n            daoPointsStorage().addModeratorQuarterPoint(_moderator, getUintConfig(CONFIG_QUARTER_POINT_DRAFT_VOTE), currentQuarterNumber());\n        }\n    }\n\n\n    /**\n    @notice Function to commit a vote on special proposal\n    @param _proposalId ID of the proposal\n    @param _commitHash Hash of the vote to commit (hash = SHA3(address(pub_address), bool(vote), bytes(random string)))\n    @return {\n      \"_success\": \"Boolean, true if vote was committed successfully\"\n    }\n    */\n    function commitVoteOnSpecialProposal(\n        bytes32 _proposalId,\n        bytes32 _commitHash\n    )\n        public\n        ifCommitPhaseSpecial(_proposalId)\n    {\n        require(isParticipant(msg.sender), \"not participant\");\n        daoSpecialStorage().commitVote(_proposalId, _commitHash, msg.sender);\n    }\n\n\n    /**\n    @notice Function to reveal a committed vote on special proposal\n    @dev The lockedDGDStake that would be counted behind a participant's vote is his lockedDGDStake when this function is called\n    @param _proposalId ID of the proposal\n    @param _vote Boolean, true if voted for, false if voted against\n    @param _salt Random bytes used to commit vote\n    */\n    function revealVoteOnSpecialProposal(\n        bytes32 _proposalId,\n        bool _vote,\n        bytes32 _salt\n    )\n        public\n        ifRevealPhaseSpecial(_proposalId)\n        hasNotRevealedSpecial(_proposalId)\n    {\n        require(isParticipant(msg.sender));\n        require(keccak256(abi.encodePacked(msg.sender, _vote, _salt)) == daoSpecialStorage().readComittedVote(_proposalId, msg.sender));\n        daoSpecialStorage().revealVote(_proposalId, msg.sender, _vote, daoStakeStorage().lockedDGDStake(msg.sender));\n        daoPointsStorage().addQuarterPoint(msg.sender, getUintConfig(CONFIG_QUARTER_POINT_VOTE), currentQuarterNumber());\n    }\n\n\n    /**\n    @notice Function to commit a vote on proposal (Voting Round)\n    @param _proposalId ID of the proposal\n    @param _index Index of the Voting Round\n    @param _commitHash Hash of the vote to commit (hash = SHA3(address(pub_address), bool(vote), bytes32(random string)))\n    */\n    function commitVoteOnProposal(\n        bytes32 _proposalId,\n        uint8 _index,\n        bytes32 _commitHash\n    )\n        public\n        ifCommitPhase(_proposalId, _index)\n    {\n        require(isParticipant(msg.sender));\n        daoStorage().commitVote(_proposalId, _commitHash, msg.sender, _index);\n    }\n\n\n    /**\n    @notice Function to reveal a committed vote on proposal (Voting Round)\n    @dev The lockedDGDStake that would be counted behind a participant's vote is his lockedDGDStake when this function is called\n    @param _proposalId ID of the proposal\n    @param _index Index of the Voting Round\n    @param _vote Boolean, true if voted for, false if voted against\n    @param _salt Random bytes used to commit vote\n    */\n    function revealVoteOnProposal(\n        bytes32 _proposalId,\n        uint8 _index,\n        bool _vote,\n        bytes32 _salt\n    )\n        public\n        ifRevealPhase(_proposalId, _index)\n        hasNotRevealed(_proposalId, _index)\n    {\n        require(isParticipant(msg.sender), \"not participant\");\n        require(keccak256(abi.encodePacked(msg.sender, _vote, _salt)) == daoStorage().readComittedVote(_proposalId, _index, msg.sender), \"validation failed\");\n        daoStorage().revealVote(_proposalId, msg.sender, _vote, daoStakeStorage().lockedDGDStake(msg.sender), _index);\n        daoPointsStorage().addQuarterPoint(\n            msg.sender,\n            getUintConfig(_index == 0 ? CONFIG_QUARTER_POINT_VOTE : CONFIG_QUARTER_POINT_INTERIM_VOTE),\n            currentQuarterNumber()\n        );\n    }\n}\n",
  "sourcePath": "/Users/aeufemio/projects/dgx/contracts/dao-contracts/contracts/interactive/DaoVoting.sol",
  "compiler": {
    "name": "solc",
    "version": "0.4.25+commit.59dbf8f1.Emscripten.clang"
  },
  "schemaVersion": "2.0.2",
  "updatedAt": "2020-03-13T02:42:40.664Z"
}