{
  "contractName": "DaoVotingClaims",
  "abi": [
    {
      "constant": true,
      "inputs": [],
      "name": "resolver",
      "outputs": [
        {
          "name": "",
          "type": "address"
        }
      ],
      "payable": false,
      "stateMutability": "view",
      "type": "function"
    },
    {
      "constant": true,
      "inputs": [
        {
          "name": "_configKey",
          "type": "bytes32"
        }
      ],
      "name": "getAddressConfig",
      "outputs": [
        {
          "name": "_configValue",
          "type": "address"
        }
      ],
      "payable": false,
      "stateMutability": "view",
      "type": "function"
    },
    {
      "constant": true,
      "inputs": [],
      "name": "key",
      "outputs": [
        {
          "name": "",
          "type": "bytes32"
        }
      ],
      "payable": false,
      "stateMutability": "view",
      "type": "function"
    },
    {
      "constant": true,
      "inputs": [
        {
          "name": "_key",
          "type": "bytes32"
        }
      ],
      "name": "get_contract",
      "outputs": [
        {
          "name": "_contract",
          "type": "address"
        }
      ],
      "payable": false,
      "stateMutability": "view",
      "type": "function"
    },
    {
      "constant": true,
      "inputs": [],
      "name": "currentTimeInQuarter",
      "outputs": [
        {
          "name": "_currentT",
          "type": "uint256"
        }
      ],
      "payable": false,
      "stateMutability": "view",
      "type": "function"
    },
    {
      "constant": true,
      "inputs": [],
      "name": "isMainPhase",
      "outputs": [
        {
          "name": "_isMainPhase",
          "type": "bool"
        }
      ],
      "payable": false,
      "stateMutability": "view",
      "type": "function"
    },
    {
      "constant": true,
      "inputs": [],
      "name": "isLockingPhase",
      "outputs": [
        {
          "name": "_isLockingPhase",
          "type": "bool"
        }
      ],
      "payable": false,
      "stateMutability": "view",
      "type": "function"
    },
    {
      "constant": true,
      "inputs": [],
      "name": "currentQuarterNumber",
      "outputs": [
        {
          "name": "_quarterNumber",
          "type": "uint256"
        }
      ],
      "payable": false,
      "stateMutability": "view",
      "type": "function"
    },
    {
      "constant": true,
      "inputs": [
        {
          "name": "_user",
          "type": "address"
        }
      ],
      "name": "isParticipant",
      "outputs": [
        {
          "name": "_is",
          "type": "bool"
        }
      ],
      "payable": false,
      "stateMutability": "view",
      "type": "function"
    },
    {
      "constant": true,
      "inputs": [
        {
          "name": "_configKey",
          "type": "bytes32"
        }
      ],
      "name": "getBytesConfig",
      "outputs": [
        {
          "name": "_configValue",
          "type": "bytes32"
        }
      ],
      "payable": false,
      "stateMutability": "view",
      "type": "function"
    },
    {
      "constant": true,
      "inputs": [
        {
          "name": "_configKey",
          "type": "bytes32"
        }
      ],
      "name": "getUintConfig",
      "outputs": [
        {
          "name": "_configValue",
          "type": "uint256"
        }
      ],
      "payable": false,
      "stateMutability": "view",
      "type": "function"
    },
    {
      "constant": true,
      "inputs": [],
      "name": "isDaoNotReplaced",
      "outputs": [
        {
          "name": "_isNotReplaced",
          "type": "bool"
        }
      ],
      "payable": false,
      "stateMutability": "view",
      "type": "function"
    },
    {
      "constant": true,
      "inputs": [],
      "name": "CONTRACT_ADDRESS",
      "outputs": [
        {
          "name": "",
          "type": "address"
        }
      ],
      "payable": false,
      "stateMutability": "view",
      "type": "function"
    },
    {
      "constant": true,
      "inputs": [
        {
          "name": "_user",
          "type": "address"
        }
      ],
      "name": "isModerator",
      "outputs": [
        {
          "name": "_is",
          "type": "bool"
        }
      ],
      "payable": false,
      "stateMutability": "view",
      "type": "function"
    },
    {
      "inputs": [
        {
          "name": "_resolver",
          "type": "address"
        }
      ],
      "payable": false,
      "stateMutability": "nonpayable",
      "type": "constructor"
    },
    {
      "constant": false,
      "inputs": [
        {
          "name": "_proposalId",
          "type": "bytes32"
        },
        {
          "name": "_operations",
          "type": "uint256"
        }
      ],
      "name": "claimDraftVotingResult",
      "outputs": [
        {
          "name": "_passed",
          "type": "bool"
        },
        {
          "name": "_done",
          "type": "bool"
        }
      ],
      "payable": false,
      "stateMutability": "nonpayable",
      "type": "function"
    },
    {
      "constant": false,
      "inputs": [
        {
          "name": "_proposalId",
          "type": "bytes32"
        },
        {
          "name": "_index",
          "type": "uint256"
        },
        {
          "name": "_operations",
          "type": "uint256"
        }
      ],
      "name": "claimProposalVotingResult",
      "outputs": [
        {
          "name": "_passed",
          "type": "bool"
        },
        {
          "name": "_done",
          "type": "bool"
        }
      ],
      "payable": false,
      "stateMutability": "nonpayable",
      "type": "function"
    },
    {
      "constant": true,
      "inputs": [
        {
          "name": "_proposalId",
          "type": "bytes32"
        }
      ],
      "name": "getInterResultKeyForBonusCalculation",
      "outputs": [
        {
          "name": "_key",
          "type": "bytes32"
        }
      ],
      "payable": false,
      "stateMutability": "view",
      "type": "function"
    }
  ],
  "bytecode": "0x608060405260006001026003906000191690556000600460006101000a81548173ffffffffffffffffffffffffffffffffffffffff021916908373ffffffffffffffffffffffffffffffffffffffff1602179055507f70726f706f73616c5f73746174655f70726570726f706f73616c0000000000006005906000191690557f70726f706f73616c5f73746174655f64726166740000000000000000000000006006906000191690557f70726f706f73616c5f73746174655f6d6f6465726174656400000000000000006007906000191690557f70726f706f73616c5f73746174655f6f6e676f696e67000000000000000000006008906000191690557f70726f706f73616c5f73746174655f636c6f73656400000000000000000000006009906000191690557f70726f706f73616c5f73746174655f6172636869766564000000000000000000600a906000191690556001600b556002600c556003600d556001600e556002600f5560036010557f696e7465725f6467645f696400000000000000000000000000000000000000006011906000191690557f696e7465725f6d6f645f6467645f6964000000000000000000000000000000006012906000191690557f696e7465725f626f6e75735f63616c63756c6174696f6e5f69640000000000006013906000191690557f64616f00000000000000000000000000000000000000000000000000000000006014906000191690557f64616f3a7370656369616c3a70726f706f73616c0000000000000000000000006015906000191690557f64616f3a7374616b652d6c6f636b696e670000000000000000000000000000006016906000191690557f64616f3a766f74696e67000000000000000000000000000000000000000000006017906000191690557f64616f3a766f74696e673a636c61696d730000000000000000000000000000006018906000191690557f64616f3a73766f74696e673a636c61696d7300000000000000000000000000006019906000191690557f64616f3a6964656e746974790000000000000000000000000000000000000000601a906000191690557f64616f3a726577617264732d6d616e6167657200000000000000000000000000601b906000191690557f64616f3a726577617264732d6578747261730000000000000000000000000000601c906000191690557f64616f3a726f6c65730000000000000000000000000000000000000000000000601d906000191690557f64616f3a66756e64696e672d6d616e6167657200000000000000000000000000601e906000191690557f64616f3a77686974656c697374696e6700000000000000000000000000000000601f906000191690557f64616f3a696e666f726d6174696f6e00000000000000000000000000000000006020906000191690557f736572766963653a726f6c6500000000000000000000000000000000000000006021906000191690557f736572766963653a64616f3a696e666f000000000000000000000000000000006022906000191690557f736572766963653a64616f3a6c697374696e67000000000000000000000000006023906000191690557f736572766963653a64616f3a63616c63756c61746f72000000000000000000006024906000191690557f73746f726167653a64616f0000000000000000000000000000000000000000006025906000191690557f73746f726167653a64616f3a636f756e746572000000000000000000000000006026906000191690557f73746f726167653a64616f3a75706772616465000000000000000000000000006027906000191690557f73746f726167653a64616f3a6964656e746974790000000000000000000000006028906000191690557f73746f726167653a64616f3a706f696e747300000000000000000000000000006029906000191690557f73746f726167653a64616f3a7370656369616c00000000000000000000000000602a906000191690557f73746f726167653a64616f3a636f6e6669670000000000000000000000000000602b906000191690557f73746f726167653a64616f3a7374616b65000000000000000000000000000000602c906000191690557f73746f726167653a64616f3a7265776172647300000000000000000000000000602d906000191690557f73746f726167653a64616f3a77686974656c697374696e670000000000000000602e906000191690557f73746f726167653a696e7465726d6564696174653a726573756c747300000000602f906000191690557f743a6467640000000000000000000000000000000000000000000000000000006030906000191690557f743a6467780000000000000000000000000000000000000000000000000000006031906000191690557f743a6261646765000000000000000000000000000000000000000000000000006032906000191690556001603360006101000a81548160ff021916908360ff1602179055506002603360016101000a81548160ff021916908360ff1602179055506003603360026101000a81548160ff021916908360ff1602179055506004603360036101000a81548160ff021916908360ff1602179055506276a7006034557f6d696e5f6467645f7061727469636970616e74000000000000000000000000006035906000191690557f6d696e5f6467645f6d6f64657261746f720000000000000000000000000000006036906000191690557f6d696e5f72657075746174696f6e5f6d6f64657261746f7200000000000000006037906000191690557f6c6f636b696e675f70686173655f6475726174696f6e000000000000000000006038906000191690557f717561727465725f6475726174696f6e000000000000000000000000000000006039906000191690557f766f74696e675f636f6d6d69745f706861736500000000000000000000000000603a906000191690557f766f74696e675f70686173655f746f74616c0000000000000000000000000000603b906000191690557f696e746572696d5f766f74696e675f636f6d6d69745f70686173650000000000603c906000191690557f696e746572696d5f766f74696e675f70686173655f746f74616c000000000000603d906000191690557f64726166745f71756f72756d5f66697865645f6e756d657261746f7200000000603e906000191690557f64726166745f71756f72756d5f66697865645f64656e6f6d696e61746f720000603f906000191690557f64726166745f71756f72756d5f73666163746f725f6e756d657261746f7200006040906000191690557f64726166745f71756f72756d5f73666163746f725f64656e6f6d696e61746f726041906000191690557f766f74655f71756f72756d5f66697865645f6e756d657261746f7200000000006042906000191690557f766f74655f71756f72756d5f66697865645f64656e6f6d696e61746f720000006043906000191690557f766f74655f71756f72756d5f73666163746f725f6e756d657261746f720000006044906000191690557f766f74655f71756f72756d5f73666163746f725f64656e6f6d696e61746f72006045906000191690557f66696e616c5f7265776172645f73666163746f725f6e756d657261746f7200006046906000191690557f66696e616c5f7265776172645f73666163746f725f64656e6f6d696e61746f726047906000191690557f64726166745f71756f74615f6e756d657261746f7200000000000000000000006048906000191690557f64726166745f71756f74615f64656e6f6d696e61746f720000000000000000006049906000191690557f766f74696e675f71756f74615f6e756d657261746f7200000000000000000000604a906000191690557f766f74696e675f71756f74615f64656e6f6d696e61746f720000000000000000604b906000191690557f6d696e696d616c5f717000000000000000000000000000000000000000000000604c906000191690557f717561727465725f706f696e745f7363616c696e675f666163746f7200000000604d906000191690557f7265705f706f696e745f7363616c696e675f666163746f720000000000000000604e906000191690557f6d696e696d616c5f6d6f645f7170000000000000000000000000000000000000604f906000191690557f6d6f645f71705f7363616c696e675f666163746f7200000000000000000000006050906000191690557f6d6f645f7265705f706f696e745f7363616c696e675f666163746f72000000006051906000191690557f717561727465725f706f696e745f64726166745f766f746500000000000000006052906000191690557f717561727465725f706f696e745f766f746500000000000000000000000000006053906000191690557f717561727465725f706f696e745f696e746572696d5f766f74650000000000006054906000191690557f715f705f6d696c6573746f6e655f636f6d706c6574696f6e00000000000000006055906000191690557f626f6e75735f72657075746174696f6e5f6e756d657261746f720000000000006056906000191690557f626f6e75735f72657075746174696f6e5f64656e6f6d696e61746f72000000006057906000191690557f7370656369616c5f70726f706f73616c5f636f6d6d69745f70686173650000006058906000191690557f7370656369616c5f70726f706f73616c5f70686173655f746f74616c000000006059906000191690557f636f6e6669675f7370656369616c5f71756f74615f6e756d657261746f720000605a906000191690557f636f6e6669675f7370656369616c5f71756f74615f64656e6f6d696e61746f72605b906000191690557f7370656369616c5f71756f72756d5f6e756d657261746f720000000000000000605c906000191690557f7370656369616c5f71756f72756d5f64656e6f6d696e61746f72000000000000605d906000191690557f636f6e6669675f6d61785f72657075746174696f6e5f646564756374696f6e00605e906000191690557f636f6e6669675f70756e6973686d656e745f6e6f745f6c6f636b696e67000000605f906000191690557f636f6e6669675f7265705f7065725f65787472615f71705f6e756d00000000006060906000191690557f636f6e6669675f7265705f7065725f65787472615f71705f64656e00000000006061906000191690557f636f6e6669675f6d61785f6d5f72705f646564756374696f6e000000000000006062906000191690557f636f6e6669675f7265705f7065725f65787472615f6d5f71705f6e756d0000006063906000191690557f636f6e6669675f7265705f7065725f65787472615f6d5f71705f64656e0000006064906000191690557f636f6e6669675f6d6f645f706f7274696f6e5f6e756d000000000000000000006065906000191690557f636f6e6669675f6d6f645f706f7274696f6e5f64656e000000000000000000006066906000191690557f636f6e6669675f64726166745f766f74696e675f7068617365000000000000006067906000191690557f636f6e6669675f72705f626f6f73745f7065725f6261646765000000000000006068906000191690557f636f6e6669675f636c61696d696e675f646561646c696e6500000000000000006069906000191690557f636f6e6669675f70726570726f706f73616c5f636f6c6c61746572616c000000606a906000191690557f636f6e6669675f6d61785f66756e64696e675f6e6f6e44696769780000000000606b906000191690557f636f6e6669675f6d61785f6d696c6573746f6e65735f6e6f6e44696769780000606c906000191690557f636f6e6669675f6e6f6e44696769785f70726f706f73616c5f63617000000000606d906000191690557f636f6e6669675f646561645f6475726174696f6e000000000000000000000000606e906000191690557f636f6e6669675f63765f72657075746174696f6e000000000000000000000000606f906000191690553480156200113457600080fd5b506040516020806200647083398101806040528101908080519060200190929190505050620011756018548262001188640100000000026401000000009004565b15156200118157600080fd5b5062001419565b6000808273ffffffffffffffffffffffffffffffffffffffff16636d19a8826040518163ffffffff167c0100000000000000000000000000000000000000000000000000000000028152600401602060405180830381600087803b158015620011f057600080fd5b505af115801562001205573d6000803e3d6000fd5b505050506040513d60208110156200121c57600080fd5b810190808051906020019092919050505090506000151581151514156200140d5730600260006101000a81548173ffffffffffffffffffffffffffffffffffffffff021916908373ffffffffffffffffffffffffffffffffffffffff160217905550826000806101000a81548173ffffffffffffffffffffffffffffffffffffffff021916908373ffffffffffffffffffffffffffffffffffffffff16021790555083600181600019169055506000809054906101000a900473ffffffffffffffffffffffffffffffffffffffff1673ffffffffffffffffffffffffffffffffffffffff1663c0f6ef4a600154600260009054906101000a900473ffffffffffffffffffffffffffffffffffffffff166040518363ffffffff167c01000000000000000000000000000000000000000000000000000000000281526004018083600019166000191681526020018273ffffffffffffffffffffffffffffffffffffffff1673ffffffffffffffffffffffffffffffffffffffff16815260200192505050602060405180830381600087803b158015620013ba57600080fd5b505af1158015620013cf573d6000803e3d6000fd5b505050506040513d6020811015620013e657600080fd5b810190808051906020019092919050505015156200140357600080fd5b6001915062001412565b600091505b5092915050565b61504780620014296000396000f3006080604052600436106100f1576000357c0100000000000000000000000000000000000000000000000000000000900463ffffffff16806304f3bcec146100f65780631d8ccd041461014d5780633943380c146101be5780633d554f39146101f15780633f83acff14610259578063560a25ea146102ca57806368533060146102f55780637d6fed80146103245780637f6a26b61461035357806390e353df1461037e578063929066f5146103dc57806393ddad0814610437578063b1e2b9dd14610484578063c66c9efd146104c9578063d70d935814610516578063db4ecbc114610545578063fa6f39361461059c575b600080fd5b34801561010257600080fd5b5061010b6105f7565b604051808273ffffffffffffffffffffffffffffffffffffffff1673ffffffffffffffffffffffffffffffffffffffff16815260200191505060405180910390f35b34801561015957600080fd5b5061017c600480360381019080803560001916906020019092919050505061061c565b604051808273ffffffffffffffffffffffffffffffffffffffff1673ffffffffffffffffffffffffffffffffffffffff16815260200191505060405180910390f35b3480156101ca57600080fd5b506101d36106de565b60405180826000191660001916815260200191505060405180910390f35b3480156101fd57600080fd5b50610234600480360381019080803560001916906020019092919080359060200190929190803590602001909291905050506106e4565b6040518083151515158152602001821515151581526020019250505060405180910390f35b34801561026557600080fd5b506102886004803603810190808035600019169060200190929190505050610bd1565b604051808273ffffffffffffffffffffffffffffffffffffffff1673ffffffffffffffffffffffffffffffffffffffff16815260200191505060405180910390f35b3480156102d657600080fd5b506102df610cad565b6040518082815260200191505060405180910390f35b34801561030157600080fd5b5061030a610cbd565b604051808215151515815260200191505060405180910390f35b34801561033057600080fd5b50610339610ce9565b604051808215151515815260200191505060405180910390f35b34801561035f57600080fd5b50610368610d04565b6040518082815260200191505060405180910390f35b34801561038a57600080fd5b506103b7600480360381019080803560001916906020019092919080359060200190929190505050610d14565b6040518083151515158152602001821515151581526020019250505060405180910390f35b3480156103e857600080fd5b5061041d600480360381019080803573ffffffffffffffffffffffffffffffffffffffff1690602001909291905050506119bb565b604051808215151515815260200191505060405180910390f35b34801561044357600080fd5b506104666004803603810190808035600019169060200190929190505050611b9c565b60405180826000191660001916815260200191505060405180910390f35b34801561049057600080fd5b506104b36004803603810190808035600019169060200190929190505050611c5e565b6040518082815260200191505060405180910390f35b3480156104d557600080fd5b506104f86004803603810190808035600019169060200190929190505050611d20565b60405180826000191660001916815260200191505060405180910390f35b34801561052257600080fd5b5061052b611dc5565b604051808215151515815260200191505060405180910390f35b34801561055157600080fd5b5061055a611e73565b604051808273ffffffffffffffffffffffffffffffffffffffff1673ffffffffffffffffffffffffffffffffffffffff16815260200191505060405180910390f35b3480156105a857600080fd5b506105dd600480360381019080803573ffffffffffffffffffffffffffffffffffffffff169060200190929190505050611e99565b604051808215151515815260200191505060405180910390f35b6000809054906101000a900473ffffffffffffffffffffffffffffffffffffffff1681565b600061062661216c565b73ffffffffffffffffffffffffffffffffffffffff1663e6b39eab836040518263ffffffff167c0100000000000000000000000000000000000000000000000000000000028152600401808260001916600019168152602001915050602060405180830381600087803b15801561069c57600080fd5b505af11580156106b0573d6000803e3d6000fd5b505050506040513d60208110156106c657600080fd5b81019080805190602001909291905050509050919050565b60015481565b60008060008585600015156106f761217e565b73ffffffffffffffffffffffffffffffffffffffff166385f5276f84846040518363ffffffff167c010000000000000000000000000000000000000000000000000000000002815260040180836000191660001916815260200182815260200192505050602060405180830381600087803b15801561077557600080fd5b505af1158015610789573d6000803e3d6000fd5b505050506040513d602081101561079f57600080fd5b810190808051906020019092919050505015151415156107be57600080fd5b878760006107ca61217e565b73ffffffffffffffffffffffffffffffffffffffff1663baf4266084846040518363ffffffff167c010000000000000000000000000000000000000000000000000000000002815260040180836000191660001916815260200182815260200192505050602060405180830381600087803b15801561084857600080fd5b505af115801561085c573d6000803e3d6000fd5b505050506040513d602081101561087257600080fd5b8101908080519060200190929190505050905060008111151561089457600080fd5b6108c26108b3600084146108aa57603d546108ae565b603b545b611c5e565b8261219090919063ffffffff16565b42101515156108d057600080fd5b6108d8610cbd565b15156108e357600080fd5b600196506000975088955060008914156109035760008097509750610bc3565b610929610911606954611c5e565b61091b8d8d6121ac565b61219090919063ffffffff16565b42101561095b5761093b8b8b8b6122d5565b809950819a5082985050505086151561095a5787600097509750610bc3565b5b6000965060008a111561098e576109748b8b888b612aa8565b96508615156109895787600097509750610bc3565b610a58565b8780156109a0575061099f8b613474565b5b97508715610a4d576109b061217e565b73ffffffffffffffffffffffffffffffffffffffff1663c362c7908c600f546040518363ffffffff167c010000000000000000000000000000000000000000000000000000000002815260040180836000191660001916815260200182815260200192505050600060405180830381600087803b158015610a3057600080fd5b505af1158015610a44573d6000803e3d6000fd5b50505050610a57565b610a568b61369e565b5b5b8715610a6957610a688b8b6138f1565b5b610a7161217e565b73ffffffffffffffffffffffffffffffffffffffff16633e020d2f8c8c60016040518463ffffffff167c0100000000000000000000000000000000000000000000000000000000028152600401808460001916600019168152602001838152602001821515151581526020019350505050600060405180830381600087803b158015610afc57600080fd5b505af1158015610b10573d6000803e3d6000fd5b50505050610b1c61217e565b73ffffffffffffffffffffffffffffffffffffffff16631ea5d62f8c8c8b6040518463ffffffff167c0100000000000000000000000000000000000000000000000000000000028152600401808460001916600019168152602001838152602001821515151581526020019350505050600060405180830381600087803b158015610ba657600080fd5b505af1158015610bba573d6000803e3d6000fd5b50505050600196505b505050505050935093915050565b60008060009054906101000a900473ffffffffffffffffffffffffffffffffffffffff1673ffffffffffffffffffffffffffffffffffffffff16633f83acff836040518263ffffffff167c0100000000000000000000000000000000000000000000000000000000028152600401808260001916600019168152602001915050602060405180830381600087803b158015610c6b57600080fd5b505af1158015610c7f573d6000803e3d6000fd5b505050506040513d6020811015610c9557600080fd5b81019080805190602001909291905050509050919050565b6000610cb842614007565b905090565b6000610cc7611dc5565b8015610ce45750610cd9603854611c5e565b610ce1610cad565b10155b905090565b6000610cf6603854611c5e565b610cfe610cad565b10905090565b6000610d0f426140f0565b905090565b600080610d1f614fa8565b6060610d29614fe7565b8660001515610d3661217e565b73ffffffffffffffffffffffffffffffffffffffff1663395ddde9836040518263ffffffff167c0100000000000000000000000000000000000000000000000000000000028152600401808260001916600019168152602001915050602060405180830381600087803b158015610dac57600080fd5b505af1158015610dc0573d6000803e3d6000fd5b505050506040513d6020811015610dd657600080fd5b81019080805190602001909291905050501515141515610df557600080fd5b876000610e0061217e565b73ffffffffffffffffffffffffffffffffffffffff166349a428d0836040518263ffffffff167c0100000000000000000000000000000000000000000000000000000000028152600401808260001916600019168152602001915050602060405180830381600087803b158015610e7657600080fd5b505af1158015610e8a573d6000803e3d6000fd5b505050506040513d6020811015610ea057600080fd5b81019080805190602001909291905050509050600081111515610ec257600080fd5b610edf610ed0606754611c5e565b8261219090919063ffffffff16565b4210151515610eed57600080fd5b610fde610efb606954611c5e565b610fd0610f09606754611c5e565b610f1161217e565b73ffffffffffffffffffffffffffffffffffffffff166349a428d08f6040518263ffffffff167c0100000000000000000000000000000000000000000000000000000000028152600401808260001916600019168152602001915050602060405180830381600087803b158015610f8757600080fd5b505af1158015610f9b573d6000803e3d6000fd5b505050506040513d6020811015610fb157600080fd5b810190808051906020019092919050505061219090919063ffffffff16565b61219090919063ffffffff16565b421180610ff15750610fef8a613474565b155b1561115257610ffe61217e565b73ffffffffffffffffffffffffffffffffffffffff166382e445c68b60006040518363ffffffff167c01000000000000000000000000000000000000000000000000000000000281526004018083600019166000191681526020018215151515815260200192505050600060405180830381600087803b15801561108157600080fd5b505af1158015611095573d6000803e3d6000fd5b505050506110a161217e565b73ffffffffffffffffffffffffffffffffffffffff166327618ad98b60016040518363ffffffff167c01000000000000000000000000000000000000000000000000000000000281526004018083600019166000191681526020018215151515815260200192505050600060405180830381600087803b15801561112457600080fd5b505af1158015611138573d6000803e3d6000fd5b505050506111458a61369e565b60006001975097506119ae565b61115b8a6141f3565b151561116657600080fd5b61116e6142e3565b600089141561118357600080975097506119ae565b61118b6143f4565b73ffffffffffffffffffffffffffffffffffffffff166312d0c13b8b6040518263ffffffff167c0100000000000000000000000000000000000000000000000000000000028152600401808260001916600019168152602001915050608060405180830381600087803b15801561120157600080fd5b505af1158015611215573d6000803e3d6000fd5b505050506040513d608081101561122b57600080fd5b81019080805190602001909291908051906020019092919080519060200190929190805190602001909291905050505088606001896000018a60200183815250838152508373ffffffffffffffffffffffffffffffffffffffff1673ffffffffffffffffffffffffffffffffffffffff16815250505050600460009054906101000a900473ffffffffffffffffffffffffffffffffffffffff1673ffffffffffffffffffffffffffffffffffffffff16866060015173ffffffffffffffffffffffffffffffffffffffff16141561141757611304614406565b73ffffffffffffffffffffffffffffffffffffffff166385f0e4bf8a60016040518363ffffffff167c0100000000000000000000000000000000000000000000000000000000028152600401808381526020018215151515815260200192505050600060405180830381600087803b15801561137f57600080fd5b505af1158015611393573d6000803e3d6000fd5b505050506040513d6000823e3d601f19601f8201168201806040525060208110156113bd57600080fd5b8101908080516401000000008111156113d557600080fd5b828101905060208101848111156113eb57600080fd5b815185602082028301116401000000008211171561140857600080fd5b50509291905050509450611566565b61141f614406565b73ffffffffffffffffffffffffffffffffffffffff166340c7174e87606001518b60016040518463ffffffff167c0100000000000000000000000000000000000000000000000000000000028152600401808473ffffffffffffffffffffffffffffffffffffffff1673ffffffffffffffffffffffffffffffffffffffff168152602001838152602001821515151581526020019350505050600060405180830381600087803b1580156114d257600080fd5b505af11580156114e6573d6000803e3d6000fd5b505050506040513d6000823e3d601f19601f82011682018060405250602081101561151057600080fd5b81019080805164010000000081111561152857600080fd5b8281019050602081018481111561153e57600080fd5b815185602082028301116401000000008211171561155b57600080fd5b505092919050505094505b61156e61217e565b73ffffffffffffffffffffffffffffffffffffffff1663bb3b5f6d8b876040518363ffffffff167c010000000000000000000000000000000000000000000000000000000002815260040180836000191660001916815260200180602001828103825283818151815260200191508051906020019060200280838360005b838110156116075780820151818401526020810190506115ec565b5050505090500193505050506040805180830381600087803b15801561162c57600080fd5b505af1158015611640573d6000803e3d6000fd5b505050506040513d604081101561165657600080fd5b81019080805190602001909291908051906020019092919050505085600001866020018281525082815250505084600186510381518110151561169557fe5b90602001906020020151866060019073ffffffffffffffffffffffffffffffffffffffff16908173ffffffffffffffffffffffffffffffffffffffff16815250506116f18460000151876000015161219090919063ffffffff16565b8660000181815250506117158460200151876020015161219090919063ffffffff16565b866020018181525050611726614418565b73ffffffffffffffffffffffffffffffffffffffff1663bbb03dc26040518163ffffffff167c0100000000000000000000000000000000000000000000000000000000028152600401602060405180830381600087803b15801561178957600080fd5b505af115801561179d573d6000803e3d6000fd5b505050506040513d60208110156117b357600080fd5b810190808051906020019092919050505073ffffffffffffffffffffffffffffffffffffffff168560018751038151811015156117ec57fe5b9060200190602002015173ffffffffffffffffffffffffffffffffffffffff1614156118bd5761181c8a8761442a565b97506001965061182a6143f4565b73ffffffffffffffffffffffffffffffffffffffff1663d590f4ab8b6040518263ffffffff167c0100000000000000000000000000000000000000000000000000000000028152600401808260001916600019168152602001915050600060405180830381600087803b1580156118a057600080fd5b505af11580156118b4573d6000803e3d6000fd5b505050506119ad565b6118c56143f4565b73ffffffffffffffffffffffffffffffffffffffff16636e3f777c8b886060015189600001518a6020015160006040518663ffffffff167c01000000000000000000000000000000000000000000000000000000000281526004018086600019166000191681526020018573ffffffffffffffffffffffffffffffffffffffff1673ffffffffffffffffffffffffffffffffffffffff16815260200184815260200183815260200182815260200195505050505050600060405180830381600087803b15801561199457600080fd5b505af11580156119a8573d6000803e3d6000fd5b505050505b5b5050505050509250929050565b60006119c5610d04565b6119cd61495b565b73ffffffffffffffffffffffffffffffffffffffff1663cefc2bff846040518263ffffffff167c0100000000000000000000000000000000000000000000000000000000028152600401808273ffffffffffffffffffffffffffffffffffffffff1673ffffffffffffffffffffffffffffffffffffffff168152602001915050602060405180830381600087803b158015611a6757600080fd5b505af1158015611a7b573d6000803e3d6000fd5b505050506040513d6020811015611a9157600080fd5b8101908080519060200190929190505050148015611b955750611ab5603554611c5e565b611abd614418565b73ffffffffffffffffffffffffffffffffffffffff1663cd094a27846040518263ffffffff167c0100000000000000000000000000000000000000000000000000000000028152600401808273ffffffffffffffffffffffffffffffffffffffff1673ffffffffffffffffffffffffffffffffffffffff168152602001915050602060405180830381600087803b158015611b5757600080fd5b505af1158015611b6b573d6000803e3d6000fd5b505050506040513d6020811015611b8157600080fd5b810190808051906020019092919050505010155b9050919050565b6000611ba661216c565b73ffffffffffffffffffffffffffffffffffffffff1663c0a8405d836040518263ffffffff167c0100000000000000000000000000000000000000000000000000000000028152600401808260001916600019168152602001915050602060405180830381600087803b158015611c1c57600080fd5b505af1158015611c30573d6000803e3d6000fd5b505050506040513d6020811015611c4657600080fd5b81019080805190602001909291905050509050919050565b6000611c6861216c565b73ffffffffffffffffffffffffffffffffffffffff1663734c1168836040518263ffffffff167c0100000000000000000000000000000000000000000000000000000000028152600401808260001916600019168152602001915050602060405180830381600087803b158015611cde57600080fd5b505af1158015611cf2573d6000803e3d6000fd5b505050506040513d6020811015611d0857600080fd5b81019080805190602001909291905050509050919050565b6000816013546040516020018083600019166000191681526020018260001916600019168152602001925050506040516020818303038152906040526040518082805190602001908083835b602083101515611d915780518252602082019150602081019050602083039250611d6c565b6001836020036101000a03801982511681845116808217855250505050505090500191505060405180910390209050919050565b6000611dcf61496d565b73ffffffffffffffffffffffffffffffffffffffff16638bc865fd6040518163ffffffff167c0100000000000000000000000000000000000000000000000000000000028152600401602060405180830381600087803b158015611e3257600080fd5b505af1158015611e46573d6000803e3d6000fd5b505050506040513d6020811015611e5c57600080fd5b810190808051906020019092919050505015905090565b600260009054906101000a900473ffffffffffffffffffffffffffffffffffffffff1681565b6000611ea3610d04565b611eab61495b565b73ffffffffffffffffffffffffffffffffffffffff1663cefc2bff846040518263ffffffff167c0100000000000000000000000000000000000000000000000000000000028152600401808273ffffffffffffffffffffffffffffffffffffffff1673ffffffffffffffffffffffffffffffffffffffff168152602001915050602060405180830381600087803b158015611f4557600080fd5b505af1158015611f59573d6000803e3d6000fd5b505050506040513d6020811015611f6f57600080fd5b81019080805190602001909291905050501480156120735750611f93603654611c5e565b611f9b614418565b73ffffffffffffffffffffffffffffffffffffffff1663cd094a27846040518263ffffffff167c0100000000000000000000000000000000000000000000000000000000028152600401808273ffffffffffffffffffffffffffffffffffffffff1673ffffffffffffffffffffffffffffffffffffffff168152602001915050602060405180830381600087803b15801561203557600080fd5b505af1158015612049573d6000803e3d6000fd5b505050506040513d602081101561205f57600080fd5b810190808051906020019092919050505010155b80156121655750612085603754611c5e565b61208d61497f565b73ffffffffffffffffffffffffffffffffffffffff16639c89a0e2846040518263ffffffff167c0100000000000000000000000000000000000000000000000000000000028152600401808273ffffffffffffffffffffffffffffffffffffffff1673ffffffffffffffffffffffffffffffffffffffff168152602001915050602060405180830381600087803b15801561212757600080fd5b505af115801561213b573d6000803e3d6000fd5b505050506040513d602081101561215157600080fd5b810190808051906020019092919050505010155b9050919050565b6000612179602b54610bd1565b905090565b600061218b602554610bd1565b905090565b600081830190508281101515156121a357fe5b80905092915050565b6000806121b761217e565b73ffffffffffffffffffffffffffffffffffffffff1663baf4266085856040518363ffffffff167c010000000000000000000000000000000000000000000000000000000002815260040180836000191660001916815260200182815260200192505050602060405180830381600087803b15801561223557600080fd5b505af1158015612249573d6000803e3d6000fd5b505050506040513d602081101561225f57600080fd5b8101908080519060200190929190505050905060008111151561228157600080fd5b60008314156122ae576122a7612298603b54611c5e565b8261219090919063ffffffff16565b91506122ce565b6122cb6122bc603d54611c5e565b8261219090919063ffffffff16565b91505b5092915050565b60008060006122e2614fa8565b606060006122ee614fe7565b6122f66142e3565b6122ff8a6141f3565b151561230a57600080fd5b6123126143f4565b73ffffffffffffffffffffffffffffffffffffffff166312d0c13b8b6040518263ffffffff167c0100000000000000000000000000000000000000000000000000000000028152600401808260001916600019168152602001915050608060405180830381600087803b15801561238857600080fd5b505af115801561239c573d6000803e3d6000fd5b505050506040513d60808110156123b257600080fd5b81019080805190602001909291908051906020019092919080519060200190929190805190602001909291905050505086606001876000018860200183815250838152508373ffffffffffffffffffffffffffffffffffffffff1673ffffffffffffffffffffffffffffffffffffffff16815250505050600460009054906101000a900473ffffffffffffffffffffffffffffffffffffffff1673ffffffffffffffffffffffffffffffffffffffff16846060015173ffffffffffffffffffffffffffffffffffffffff16141561259e5761248b614406565b73ffffffffffffffffffffffffffffffffffffffff1663f4f9fadc8960016040518363ffffffff167c0100000000000000000000000000000000000000000000000000000000028152600401808381526020018215151515815260200192505050600060405180830381600087803b15801561250657600080fd5b505af115801561251a573d6000803e3d6000fd5b505050506040513d6000823e3d601f19601f82011682018060405250602081101561254457600080fd5b81019080805164010000000081111561255c57600080fd5b8281019050602081018481111561257257600080fd5b815185602082028301116401000000008211171561258f57600080fd5b50509291905050509250612710565b6125a6614406565b73ffffffffffffffffffffffffffffffffffffffff166396fe8e6585606001518a60016040518463ffffffff167c0100000000000000000000000000000000000000000000000000000000028152600401808473ffffffffffffffffffffffffffffffffffffffff1673ffffffffffffffffffffffffffffffffffffffff168152602001838152602001821515151581526020019350505050600060405180830381600087803b15801561265957600080fd5b505af115801561266d573d6000803e3d6000fd5b505050506040513d6000823e3d601f19601f82011682018060405250602081101561269757600080fd5b8101908080516401000000008111156126af57600080fd5b828101905060208101848111156126c557600080fd5b81518560208202830111640100000000821117156126e257600080fd5b5050929190505050925060008351141561270f5787612702858c8c614991565b6001965096509650612a9b565b5b82600184510381518110151561272257fe5b90602001906020020151915061273661217e565b73ffffffffffffffffffffffffffffffffffffffff1663a1e55acf8b8b866040518463ffffffff167c010000000000000000000000000000000000000000000000000000000002815260040180846000191660001916815260200183815260200180602001828103825283818151815260200191508051906020019060200280838360005b838110156127d65780820151818401526020810190506127bb565b505050509050019450505050506040805180830381600087803b1580156127fc57600080fd5b505af1158015612810573d6000803e3d6000fd5b505050506040513d604081101561282657600080fd5b81019080805190602001909291908051906020019092919050505082600001836020018281525082815250505061286e8160000151856000015161219090919063ffffffff16565b8460000181815250506128928160200151856020015161219090919063ffffffff16565b8460200181815250506128a36143f4565b73ffffffffffffffffffffffffffffffffffffffff16636e3f777c8b848760000151886020015160006040518663ffffffff167c01000000000000000000000000000000000000000000000000000000000281526004018086600019166000191681526020018573ffffffffffffffffffffffffffffffffffffffff1673ffffffffffffffffffffffffffffffffffffffff16815260200184815260200183815260200182815260200195505050505050600060405180830381600087803b15801561296e57600080fd5b505af1158015612982573d6000803e3d6000fd5b5050505061298e614418565b73ffffffffffffffffffffffffffffffffffffffff166382624a2e6040518163ffffffff167c0100000000000000000000000000000000000000000000000000000000028152600401602060405180830381600087803b1580156129f157600080fd5b505af1158015612a05573d6000803e3d6000fd5b505050506040513d6020811015612a1b57600080fd5b810190808051906020019092919050505073ffffffffffffffffffffffffffffffffffffffff168273ffffffffffffffffffffffffffffffffffffffff16141515612a73576000806000829250965096509650612a9b565b612a87835189614b4290919063ffffffff16565b965060019450612a98848b8b614991565b95505b5050505093509350939050565b60008060606000612ab7615001565b6000871415612ac95760009450613468565b612ad16143f4565b73ffffffffffffffffffffffffffffffffffffffff166312d0c13b612af58b611d20565b6040518263ffffffff167c0100000000000000000000000000000000000000000000000000000000028152600401808260001916600019168152602001915050608060405180830381600087803b158015612b4f57600080fd5b505af1158015612b63573d6000803e3d6000fd5b505050506040513d6080811015612b7957600080fd5b810190808051906020019092919080519060200190929190805190602001909291908051906020019092919050505090915090505080945050600460009054906101000a900473ffffffffffffffffffffffffffffffffffffffff1673ffffffffffffffffffffffffffffffffffffffff168473ffffffffffffffffffffffffffffffffffffffff161415612d2357612c10614406565b73ffffffffffffffffffffffffffffffffffffffff1663f4f9fadc8860016040518363ffffffff167c0100000000000000000000000000000000000000000000000000000000028152600401808381526020018215151515815260200192505050600060405180830381600087803b158015612c8b57600080fd5b505af1158015612c9f573d6000803e3d6000fd5b505050506040513d6000823e3d601f19601f820116820180604052506020811015612cc957600080fd5b810190808051640100000000811115612ce157600080fd5b82810190506020810184811115612cf757600080fd5b8151856020820283011164010000000082111715612d1457600080fd5b50509291905050509250612e6e565b612d2b614406565b73ffffffffffffffffffffffffffffffffffffffff166396fe8e65858960016040518463ffffffff167c0100000000000000000000000000000000000000000000000000000000028152600401808473ffffffffffffffffffffffffffffffffffffffff1673ffffffffffffffffffffffffffffffffffffffff168152602001838152602001821515151581526020019350505050600060405180830381600087803b158015612dda57600080fd5b505af1158015612dee573d6000803e3d6000fd5b505050506040513d6000823e3d601f19601f820116820180604052506020811015612e1857600080fd5b810190808051640100000000811115612e3057600080fd5b82810190506020810184811115612e4657600080fd5b8151856020820283011164010000000082111715612e6357600080fd5b505092919050505092505b826001845103815181101515612e8057fe5b906020019060200201519150851561303857612e9a61217e565b73ffffffffffffffffffffffffffffffffffffffff1663e81362fe8a612eca60018c614b4290919063ffffffff16565b8660016040518563ffffffff167c01000000000000000000000000000000000000000000000000000000000281526004018085600019166000191681526020018481526020018060200183151515158152602001828103825284818151815260200191508051906020019060200280838360005b83811015612f59578082015181840152602081019050612f3e565b5050505090500195505050505050600060405180830381600087803b158015612f8157600080fd5b505af1158015612f95573d6000803e3d6000fd5b505050506040513d6000823e3d601f19601f820116820180604052506040811015612fbf57600080fd5b810190808051640100000000811115612fd757600080fd5b82810190506020810184811115612fed57600080fd5b815185602082028301116401000000008211171561300a57600080fd5b50509291906020018051906020019092919050505081915082602001836000018281525082905250506131da565b61304061217e565b73ffffffffffffffffffffffffffffffffffffffff1663e81362fe8a61307060018c614b4290919063ffffffff16565b8660006040518563ffffffff167c01000000000000000000000000000000000000000000000000000000000281526004018085600019166000191681526020018481526020018060200183151515158152602001828103825284818151815260200191508051906020019060200280838360005b838110156130ff5780820151818401526020810190506130e4565b5050505090500195505050505050600060405180830381600087803b15801561312757600080fd5b505af115801561313b573d6000803e3d6000fd5b505050506040513d6000823e3d601f19601f82011682018060405250604081101561316557600080fd5b81019080805164010000000081111561317d57600080fd5b8281019050602081018481111561319357600080fd5b81518560208202830111640100000000821117156131b057600080fd5b50509291906020018051906020019092919050505081915082602001836000018281525082905250505b6000816000015111156131fa576131f981602001518260000151614b5b565b5b613202614418565b73ffffffffffffffffffffffffffffffffffffffff166382624a2e6040518163ffffffff167c0100000000000000000000000000000000000000000000000000000000028152600401602060405180830381600087803b15801561326557600080fd5b505af1158015613279573d6000803e3d6000fd5b505050506040513d602081101561328f57600080fd5b810190808051906020019092919050505073ffffffffffffffffffffffffffffffffffffffff168273ffffffffffffffffffffffffffffffffffffffff16141561337a576132db6143f4565b73ffffffffffffffffffffffffffffffffffffffff1663d590f4ab6132ff8b611d20565b6040518263ffffffff167c0100000000000000000000000000000000000000000000000000000000028152600401808260001916600019168152602001915050600060405180830381600087803b15801561335957600080fd5b505af115801561336d573d6000803e3d6000fd5b5050505060019450613467565b6133826143f4565b73ffffffffffffffffffffffffffffffffffffffff16636e3f777c6133a68b611d20565b8460008060006040518663ffffffff167c01000000000000000000000000000000000000000000000000000000000281526004018086600019166000191681526020018573ffffffffffffffffffffffffffffffffffffffff1673ffffffffffffffffffffffffffffffffffffffff16815260200184815260200183815260200182815260200195505050505050600060405180830381600087803b15801561344e57600080fd5b505af1158015613462573d6000803e3d6000fd5b505050505b5b50505050949350505050565b60008061347f61217e565b73ffffffffffffffffffffffffffffffffffffffff1663d8d50179846040518263ffffffff167c010000000000000000000000000000000000000000000000000000000002815260040180826000191660001916815260200191505061014060405180830381600087803b1580156134f657600080fd5b505af115801561350a573d6000803e3d6000fd5b505050506040513d61014081101561352157600080fd5b81019080805190602001909291908051906020019092919080519060200190929190805190602001909291908051906020019092919080519060200190929190805190602001909291908051906020019092919080519060200190929190805190602001909291905050509091929394959697985090919293949596975090919293949596509091929394955090919293945090919293509091925090915090508091505060019150801515613698576135dc606d54611c5e565b6135e4614d39565b73ffffffffffffffffffffffffffffffffffffffff1663198c6e24613607610d04565b6040518263ffffffff167c010000000000000000000000000000000000000000000000000000000002815260040180828152602001915050602060405180830381600087803b15801561365957600080fd5b505af115801561366d573d6000803e3d6000fd5b505050506040513d602081101561368357600080fd5b81019080805190602001909291905050501091505b50919050565b6136a661217e565b73ffffffffffffffffffffffffffffffffffffffff1663c362c790826010546040518363ffffffff167c010000000000000000000000000000000000000000000000000000000002815260040180836000191660001916815260200182815260200192505050600060405180830381600087803b15801561372657600080fd5b505af115801561373a573d6000803e3d6000fd5b50505050613746614d4b565b73ffffffffffffffffffffffffffffffffffffffff16637e71332b61376961217e565b73ffffffffffffffffffffffffffffffffffffffff16635b712eb6846040518263ffffffff167c0100000000000000000000000000000000000000000000000000000000028152600401808260001916600019168152602001915050602060405180830381600087803b1580156137df57600080fd5b505af11580156137f3573d6000803e3d6000fd5b505050506040513d602081101561380957600080fd5b8101908080519060200190929190505050836040518363ffffffff167c0100000000000000000000000000000000000000000000000000000000028152600401808373ffffffffffffffffffffffffffffffffffffffff1673ffffffffffffffffffffffffffffffffffffffff168152602001826000191660001916815260200192505050602060405180830381600087803b1580156138a857600080fd5b505af11580156138bc573d6000803e3d6000fd5b505050506040513d60208110156138d257600080fd5b810190808051906020019092919050505015156138ee57600080fd5b50565b60606000806138fe6143f4565b73ffffffffffffffffffffffffffffffffffffffff1663d590f4ab866040518263ffffffff167c0100000000000000000000000000000000000000000000000000000000028152600401808260001916600019168152602001915050600060405180830381600087803b15801561397457600080fd5b505af1158015613988573d6000803e3d6000fd5b5050505061399461217e565b73ffffffffffffffffffffffffffffffffffffffff16637246d5a7866040518263ffffffff167c0100000000000000000000000000000000000000000000000000000000028152600401808260001916600019168152602001915050600060405180830381600087803b158015613a0a57600080fd5b505af1158015613a1e573d6000803e3d6000fd5b505050506040513d6000823e3d601f19601f820116820180604052506040811015613a4857600080fd5b810190808051640100000000811115613a6057600080fd5b82810190506020810184811115613a7657600080fd5b8151856020820283011164010000000082111715613a9357600080fd5b50509291906020018051906020019092919050505050809350508251841415613b5657613abf8561369e565b613ac761217e565b73ffffffffffffffffffffffffffffffffffffffff166395ecdf9e866040518263ffffffff167c0100000000000000000000000000000000000000000000000000000000028152600401808260001916600019168152602001915050600060405180830381600087803b158015613b3d57600080fd5b505af1158015613b51573d6000803e3d6000fd5b505050505b613b5e61217e565b73ffffffffffffffffffffffffffffffffffffffff1663d8d50179866040518263ffffffff167c010000000000000000000000000000000000000000000000000000000002815260040180826000191660001916815260200191505061014060405180830381600087803b158015613bd557600080fd5b505af1158015613be9573d6000803e3d6000fd5b505050506040513d610140811015613c0057600080fd5b810190808051906020019092919080519060200190929190805190602001909291908051906020019092919080519060200190929190805190602001909291908051906020019092919080519060200190929190805190602001909291908051906020019092919050505090919293949596979850909192939495969750909192939495965090919293949550909192939450909192935090919250909150905080925050600084148015613cb3575081155b15613d4e57613cc0614d39565b73ffffffffffffffffffffffffffffffffffffffff16635552f200613ce3610d04565b6040518263ffffffff167c010000000000000000000000000000000000000000000000000000000002815260040180828152602001915050600060405180830381600087803b158015613d3557600080fd5b505af1158015613d49573d6000803e3d6000fd5b505050505b613d5661217e565b73ffffffffffffffffffffffffffffffffffffffff16633a85b82286866040518363ffffffff167c010000000000000000000000000000000000000000000000000000000002815260040180836000191660001916815260200182815260200192505050602060405180830381600087803b158015613dd457600080fd5b505af1158015613de8573d6000803e3d6000fd5b505050506040513d6020811015613dfe57600080fd5b81019080805190602001909291905050509050613e1961497f565b73ffffffffffffffffffffffffffffffffffffffff16631eee0154613e3c61217e565b73ffffffffffffffffffffffffffffffffffffffff16635b712eb6886040518263ffffffff167c0100000000000000000000000000000000000000000000000000000000028152600401808260001916600019168152602001915050602060405180830381600087803b158015613eb257600080fd5b505af1158015613ec6573d6000803e3d6000fd5b505050506040513d6020811015613edc57600080fd5b8101908080519060200190929190505050613f2669021e19e0c9bab2400000613f1886613f0a605554611c5e565b614d5d90919063ffffffff16565b614d9590919063ffffffff16565b613f2e610d04565b6040518463ffffffff167c0100000000000000000000000000000000000000000000000000000000028152600401808473ffffffffffffffffffffffffffffffffffffffff1673ffffffffffffffffffffffffffffffffffffffff16815260200183815260200182815260200193505050506040805180830381600087803b158015613fb957600080fd5b505af1158015613fcd573d6000803e3d6000fd5b505050506040513d6040811015613fe357600080fd5b81019080805190602001909291908051906020019092919050505050505050505050565b6000614011614dab565b151561401c57600080fd5b614027603954611c5e565b6140df61403261496d565b73ffffffffffffffffffffffffffffffffffffffff1663d9c6bb206040518163ffffffff167c0100000000000000000000000000000000000000000000000000000000028152600401602060405180830381600087803b15801561409557600080fd5b505af11580156140a9573d6000803e3d6000fd5b505050506040513d60208110156140bf57600080fd5b810190808051906020019092919050505084614b4290919063ffffffff16565b8115156140e857fe5b069050919050565b60006140fa614dab565b151561410557600080fd5b6141ec60016141de614118603954611c5e565b6141d061412361496d565b73ffffffffffffffffffffffffffffffffffffffff1663d9c6bb206040518163ffffffff167c0100000000000000000000000000000000000000000000000000000000028152600401602060405180830381600087803b15801561418657600080fd5b505af115801561419a573d6000803e3d6000fd5b505050506040513d60208110156141b057600080fd5b810190808051906020019092919050505087614b4290919063ffffffff16565b614d9590919063ffffffff16565b61219090919063ffffffff16565b9050919050565b60006141fd61217e565b73ffffffffffffffffffffffffffffffffffffffff16635b712eb6836040518263ffffffff167c0100000000000000000000000000000000000000000000000000000000028152600401808260001916600019168152602001915050602060405180830381600087803b15801561427357600080fd5b505af1158015614287573d6000803e3d6000fd5b505050506040513d602081101561429d57600080fd5b810190808051906020019092919050505073ffffffffffffffffffffffffffffffffffffffff163373ffffffffffffffffffffffffffffffffffffffff16149050919050565b6142eb610cbd565b15156142f657600080fd5b6142ff336119bb565b151561430a57600080fd5b614312614e5b565b73ffffffffffffffffffffffffffffffffffffffff16634a9aedc4336040518263ffffffff167c0100000000000000000000000000000000000000000000000000000000028152600401808273ffffffffffffffffffffffffffffffffffffffff1673ffffffffffffffffffffffffffffffffffffffff168152602001915050602060405180830381600087803b1580156143ac57600080fd5b505af11580156143c0573d6000803e3d6000fd5b505050506040513d60208110156143d657600080fd5b810190808051906020019092919050505015156143f257600080fd5b565b6000614401602f54610bd1565b905090565b6000614413602354610bd1565b905090565b6000614425602c54610bd1565b905090565b600080614435614e6d565b73ffffffffffffffffffffffffffffffffffffffff1663535199aa856040518263ffffffff167c0100000000000000000000000000000000000000000000000000000000028152600401808260001916600019168152602001915050602060405180830381600087803b1580156144ab57600080fd5b505af11580156144bf573d6000803e3d6000fd5b505050506040513d60208110156144d557600080fd5b81019080805190602001909291905050506145018460200151856000015161219090919063ffffffff16565b1180156145cb5750614511614e6d565b73ffffffffffffffffffffffffffffffffffffffff1663d32d0499846000015185602001516040518363ffffffff167c01000000000000000000000000000000000000000000000000000000000281526004018083815260200182815260200192505050602060405180830381600087803b15801561458f57600080fd5b505af11580156145a3573d6000803e3d6000fd5b505050506040513d60208110156145b957600080fd5b81019080805190602001909291905050505b15614804576145d861217e565b73ffffffffffffffffffffffffffffffffffffffff166382e445c68560016040518363ffffffff167c01000000000000000000000000000000000000000000000000000000000281526004018083600019166000191681526020018215151515815260200192505050600060405180830381600087803b15801561465b57600080fd5b505af115801561466f573d6000803e3d6000fd5b50505050614748614681606754611c5e565b61468961217e565b73ffffffffffffffffffffffffffffffffffffffff166349a428d0876040518263ffffffff167c0100000000000000000000000000000000000000000000000000000000028152600401808260001916600019168152602001915050602060405180830381600087803b1580156146ff57600080fd5b505af1158015614713573d6000803e3d6000fd5b505050506040513d602081101561472957600080fd5b810190808051906020019092919050505061219090919063ffffffff16565b905061475261217e565b73ffffffffffffffffffffffffffffffffffffffff1663344e436e85600061477b600086614e7f565b6040518463ffffffff167c01000000000000000000000000000000000000000000000000000000000281526004018084600019166000191681526020018381526020018281526020019350505050600060405180830381600087803b1580156147e357600080fd5b505af11580156147f7573d6000803e3d6000fd5b50505050600191506148b1565b61480c61217e565b73ffffffffffffffffffffffffffffffffffffffff166382e445c68560006040518363ffffffff167c01000000000000000000000000000000000000000000000000000000000281526004018083600019166000191681526020018215151515815260200192505050600060405180830381600087803b15801561488f57600080fd5b505af11580156148a3573d6000803e3d6000fd5b505050506148b08461369e565b5b6148b961217e565b73ffffffffffffffffffffffffffffffffffffffff166327618ad98560016040518363ffffffff167c01000000000000000000000000000000000000000000000000000000000281526004018083600019166000191681526020018215151515815260200192505050600060405180830381600087803b15801561493c57600080fd5b505af1158015614950573d6000803e3d6000fd5b505050505092915050565b6000614968602d54610bd1565b905090565b600061497a602754610bd1565b905090565b600061498c602954610bd1565b905090565b600061499b614e6d565b73ffffffffffffffffffffffffffffffffffffffff166377ebd46884846040518363ffffffff167c010000000000000000000000000000000000000000000000000000000002815260040180836000191660001916815260200182815260200192505050602060405180830381600087803b158015614a1957600080fd5b505af1158015614a2d573d6000803e3d6000fd5b505050506040513d6020811015614a4357600080fd5b8101908080519060200190929190505050614a6f8560200151866000015161219090919063ffffffff16565b118015614b395750614a7f614e6d565b73ffffffffffffffffffffffffffffffffffffffff166336dfb1c2856000015186602001516040518363ffffffff167c01000000000000000000000000000000000000000000000000000000000281526004018083815260200182815260200192505050602060405180830381600087803b158015614afd57600080fd5b505af1158015614b11573d6000803e3d6000fd5b505050506040513d6020811015614b2757600080fd5b81019080805190602001909291905050505b90509392505050565b6000828211151515614b5057fe5b818303905092915050565b6000806000806000614b6e605354611c5e565b9450614b7b605654611c5e565b9350614b88605754611c5e565b9250614be7614baa614b9b606154611c5e565b85614d5d90919063ffffffff16565b614bd9614bb8606054611c5e565b614bcb888a614d5d90919063ffffffff16565b614d5d90919063ffffffff16565b614d9590919063ffffffff16565b9150600090505b85811015614d3057614c168782815181101515614c0757fe5b906020019060200201516119bb565b15614d2357614c2361497f565b73ffffffffffffffffffffffffffffffffffffffff1663ded86d688883815181101515614c4c57fe5b90602001906020020151846040518363ffffffff167c0100000000000000000000000000000000000000000000000000000000028152600401808373ffffffffffffffffffffffffffffffffffffffff1673ffffffffffffffffffffffffffffffffffffffff168152602001828152602001925050506040805180830381600087803b158015614cdb57600080fd5b505af1158015614cef573d6000803e3d6000fd5b505050506040513d6040811015614d0557600080fd5b81019080805190602001909291908051906020019092919050505050505b8080600101915050614bee565b50505050505050565b6000614d46602654610bd1565b905090565b6000614d58601e54610bd1565b905090565b600080831415614d705760009050614d8f565b8183029050818382811515614d8157fe5b04141515614d8b57fe5b8090505b92915050565b60008183811515614da257fe5b04905092915050565b600080614db661496d565b73ffffffffffffffffffffffffffffffffffffffff1663d9c6bb206040518163ffffffff167c0100000000000000000000000000000000000000000000000000000000028152600401602060405180830381600087803b158015614e1957600080fd5b505af1158015614e2d573d6000803e3d6000fd5b505050506040513d6020811015614e4357600080fd5b81019080805190602001909291905050501415905090565b6000614e68602854610bd1565b905090565b6000614e7a602454610bd1565b905090565b6000806000614e8d84614f7a565b9150614eab60008614614ea257603d54614ea6565b603b545b611c5e565b9050839250614ebb603854611c5e565b614ec485614007565b1015614f0857614f01614ef2614ed986614007565b614ee4603854611c5e565b614b4290919063ffffffff16565b8561219090919063ffffffff16565b9250614f72565b614f25614f16606954611c5e565b8261219090919063ffffffff16565b821015614f7157614f6e614f5f6001614f51614f42603854611c5e565b8661219090919063ffffffff16565b61219090919063ffffffff16565b8561219090919063ffffffff16565b92505b5b505092915050565b6000614fa1614f8883614007565b614f93603954611c5e565b614b4290919063ffffffff16565b9050919050565b608060405190810160405280600081526020016000815260200160008152602001600073ffffffffffffffffffffffffffffffffffffffff1681525090565b604080519081016040528060008152602001600081525090565b6040805190810160405280600081526020016060815250905600a165627a7a72305820f5a8270f4c36a4f5392ecbde7307ed98eb1b81f3fe0a13e9ee95e930439434270029",
  "source": "pragma solidity ^0.4.25;\n\nimport \"../common/DaoCommon.sol\";\nimport \"../service/DaoCalculatorService.sol\";\nimport \"./DaoFundingManager.sol\";\nimport \"./DaoRewardsManager.sol\";\nimport \"../lib/DaoIntermediateStructs.sol\";\nimport \"../lib/DaoStructs.sol\";\n\n\n/**\n@title Contract to claim voting results\n@author Digix Holdings\n*/\ncontract DaoVotingClaims is DaoCommon {\n    using DaoIntermediateStructs for DaoIntermediateStructs.VotingCount;\n    using DaoIntermediateStructs for DaoIntermediateStructs.Users;\n    using DaoStructs for DaoStructs.IntermediateResults;\n\n    function daoCalculatorService()\n        internal\n        view\n        returns (DaoCalculatorService _contract)\n    {\n        _contract = DaoCalculatorService(get_contract(CONTRACT_SERVICE_DAO_CALCULATOR));\n    }\n\n    function daoFundingManager()\n        internal\n        view\n        returns (DaoFundingManager _contract)\n    {\n        _contract = DaoFundingManager(get_contract(CONTRACT_DAO_FUNDING_MANAGER));\n    }\n\n    function daoRewardsManager()\n        internal\n        view\n        returns (DaoRewardsManager _contract)\n    {\n        _contract = DaoRewardsManager(get_contract(CONTRACT_DAO_REWARDS_MANAGER));\n    }\n\n    constructor(address _resolver) public {\n        require(init(CONTRACT_DAO_VOTING_CLAIMS, _resolver));\n    }\n\n\n    /**\n    @notice Function to claim the draft voting result (can only be called by the proposal proposer)\n    @dev The founder/or anyone is supposed to call this function after the claiming deadline has passed, to clean it up and close this proposal.\n         If this voting fails, the collateral will be refunded\n    @param _proposalId ID of the proposal\n    @param _operations Number of operations to do in this call\n    @return {\n      \"_passed\": \"Boolean, true if the draft voting has passed, false if the claiming deadline has passed or the voting has failed\",\n      \"_done\": \"Boolean, true if the calculation has finished\"\n    }\n    */\n    function claimDraftVotingResult(\n        bytes32 _proposalId,\n        uint256 _operations\n    )\n        public\n        ifDraftNotClaimed(_proposalId)\n        ifAfterDraftVotingPhase(_proposalId)\n        returns (bool _passed, bool _done)\n    {\n        // if after the claiming deadline, or the limit for non-digix proposals is reached, its auto failed\n        if (now > daoStorage().readProposalDraftVotingTime(_proposalId)\n                    .add(getUintConfig(CONFIG_DRAFT_VOTING_PHASE))\n                    .add(getUintConfig(CONFIG_VOTE_CLAIMING_DEADLINE))\n            || !isNonDigixProposalsWithinLimit(_proposalId))\n        {\n            daoStorage().setProposalDraftPass(_proposalId, false);\n            daoStorage().setDraftVotingClaim(_proposalId, true);\n            processCollateralRefund(_proposalId);\n            return (false, true);\n        }\n        require(isFromProposer(_proposalId));\n        senderCanDoProposerOperations();\n\n        if (_operations == 0) { // if no operations are passed, return with done = false\n            return (false, false);\n        }\n\n        // get the previously stored intermediary state\n        DaoStructs.IntermediateResults memory _currentResults;\n        (\n            _currentResults.countedUntil,\n            _currentResults.currentForCount,\n            _currentResults.currentAgainstCount,\n        ) = intermediateResultsStorage().getIntermediateResults(_proposalId);\n\n        // get the moderators to calculate in this transaction, based on intermediate state\n        address[] memory _moderators;\n        if (_currentResults.countedUntil == EMPTY_ADDRESS) {\n            _moderators = daoListingService().listModerators(\n                _operations,\n                true\n            );\n        } else {\n            _moderators = daoListingService().listModeratorsFrom(\n               _currentResults.countedUntil,\n               _operations,\n               true\n           );\n        }\n\n        // count the votes for this batch of moderators\n        DaoIntermediateStructs.VotingCount memory _voteCount;\n        (_voteCount.forCount, _voteCount.againstCount) = daoStorage().readDraftVotingCount(_proposalId, _moderators);\n\n        _currentResults.countedUntil = _moderators[_moderators.length-1];\n        _currentResults.currentForCount = _currentResults.currentForCount.add(_voteCount.forCount);\n        _currentResults.currentAgainstCount = _currentResults.currentAgainstCount.add(_voteCount.againstCount);\n\n        if (_moderators[_moderators.length-1] == daoStakeStorage().readLastModerator()) {\n            // this is the last iteration\n            _passed = processDraftVotingClaim(_proposalId, _currentResults);\n            _done = true;\n\n            // reset intermediate result for the proposal.\n            intermediateResultsStorage().resetIntermediateResults(_proposalId);\n        } else {\n            // update intermediate results\n            intermediateResultsStorage().setIntermediateResults(\n                _proposalId,\n                _currentResults.countedUntil,\n                _currentResults.currentForCount,\n                _currentResults.currentAgainstCount,\n                0\n            );\n        }\n    }\n\n\n    function processDraftVotingClaim(bytes32 _proposalId, DaoStructs.IntermediateResults _currentResults)\n        internal\n        returns (bool _passed)\n    {\n        if (\n            (_currentResults.currentForCount.add(_currentResults.currentAgainstCount) > daoCalculatorService().minimumDraftQuorum(_proposalId)) &&\n            (daoCalculatorService().draftQuotaPass(_currentResults.currentForCount, _currentResults.currentAgainstCount))\n        ) {\n            daoStorage().setProposalDraftPass(_proposalId, true);\n\n            // set startTime of first voting round\n            // and the start of first milestone.\n            uint256 _idealStartTime = daoStorage().readProposalDraftVotingTime(_proposalId).add(getUintConfig(CONFIG_DRAFT_VOTING_PHASE));\n            daoStorage().setProposalVotingTime(\n                _proposalId,\n                0,\n                getTimelineForNextVote(0, _idealStartTime)\n            );\n            _passed = true;\n        } else {\n            daoStorage().setProposalDraftPass(_proposalId, false);\n            processCollateralRefund(_proposalId);\n        }\n\n        daoStorage().setDraftVotingClaim(_proposalId, true);\n    }\n\n    /// NOTE: Voting round i-th is before milestone index i-th\n\n\n    /**\n    @notice Function to claim the  voting round results\n    @dev This function has two major steps:\n         - Counting the votes\n            + There is no need for this step if there are some conditions that makes the proposal auto failed\n            + The number of operations needed for this step is the number of participants in the quarter\n         - Calculating the bonus for the voters in the preceding round\n            + We can skip this step if this is the Voting round 0 (there is no preceding voting round to calculate bonus)\n            + The number of operations needed for this step is the number of participants who voted \"correctly\" in the preceding voting round\n         Step 1 will have to finish first before step 2. The proposer is supposed to call this function repeatedly,\n         until _done is true\n\n         If the voting round fails, the collateral will be returned back to the proposer\n    @param _proposalId ID of the proposal\n    @param _index Index of the  voting round\n    @param _operations Number of operations to do in this call\n    @return {\n      \"_passed\": \"Boolean, true if the  voting round passed, false if failed\"\n    }\n    */\n    function claimProposalVotingResult(bytes32 _proposalId, uint256 _index, uint256 _operations)\n        public\n        ifNotClaimed(_proposalId, _index)\n        ifAfterProposalRevealPhase(_proposalId, _index)\n        returns (bool _passed, bool _done)\n    {\n        require(isMainPhase());\n\n        // STEP 1\n        // If the claiming deadline is over, the proposal is auto failed, and anyone can call this function\n        // Here, _done is refering to whether STEP 1 is done\n        _done = true;\n        _passed = false; // redundant, put here just to emphasize that its false\n        uint256 _operationsLeft = _operations;\n\n        if (_operations == 0) { // if no operations are passed, return with done = false\n            return (false, false);\n        }\n        \n        // In other words, we only need to do Step 1 if its before the deadline\n        if (now < startOfMilestone(_proposalId, _index)\n                    .add(getUintConfig(CONFIG_VOTE_CLAIMING_DEADLINE)))\n        {\n            (_operationsLeft, _passed, _done) = countProposalVote(_proposalId, _index, _operations);\n            // from here on, _operationsLeft is the number of operations left, after Step 1 is done\n            if (!_done) return (_passed, false); // haven't done Step 1 yet, return. The value of _passed here is irrelevant\n        }\n\n        // STEP 2\n        // from this point onwards, _done refers to step 2\n        _done = false;\n\n        if (_index > 0) { // We only need to do bonus calculation if its a interim voting round\n            _done = calculateVoterBonus(_proposalId, _index, _operationsLeft, _passed);\n            if (!_done) return (_passed, false); // Step 2 is not done yet, return\n        } else {\n            // its the first voting round, we return the collateral if it fails, locks if it passes\n\n            _passed = _passed && isNonDigixProposalsWithinLimit(_proposalId); // can only pass if its within the non-digix proposal limit\n            if (_passed) {\n                daoStorage().setProposalCollateralStatus(\n                    _proposalId,\n                    COLLATERAL_STATUS_LOCKED\n                );\n\n            } else {\n                processCollateralRefund(_proposalId);\n            }\n        }\n\n        if (_passed) {\n            processSuccessfulVotingClaim(_proposalId, _index);\n        }\n        daoStorage().setVotingClaim(_proposalId, _index, true);\n        daoStorage().setProposalPass(_proposalId, _index, _passed);\n        _done = true;\n    }\n\n\n    // do the necessary steps after a successful voting round.\n    function processSuccessfulVotingClaim(bytes32 _proposalId, uint256 _index)\n        internal\n    {\n        // clear the intermediate results for the proposal, so that next voting rounds can reuse the same key <proposal_id> for the intermediate results\n        intermediateResultsStorage().resetIntermediateResults(_proposalId);\n\n        // if this was the final voting round, unlock their original collateral\n        uint256[] memory _milestoneFundings;\n        (_milestoneFundings,) = daoStorage().readProposalFunding(_proposalId);\n        if (_index == _milestoneFundings.length) {\n            processCollateralRefund(_proposalId);\n            daoStorage().archiveProposal(_proposalId);\n        }\n\n        // increase the non-digix proposal count accordingly\n        bool _isDigixProposal;\n        (,,,,,,,,,_isDigixProposal) = daoStorage().readProposal(_proposalId);\n        if (_index == 0 && !_isDigixProposal) {\n            daoProposalCounterStorage().addNonDigixProposalCountInQuarter(currentQuarterNumber());\n        }\n\n        // Add quarter point for the proposer\n        uint256 _funding = daoStorage().readProposalMilestone(_proposalId, _index);\n        daoPointsStorage().addQuarterPoint(\n            daoStorage().readProposalProposer(_proposalId),\n            getUintConfig(CONFIG_QUARTER_POINT_MILESTONE_COMPLETION_PER_10000ETH).mul(_funding).div(10000 ether),\n            currentQuarterNumber()\n        );\n    }\n\n\n    function getInterResultKeyForBonusCalculation(bytes32 _proposalId) public view returns (bytes32 _key) {\n        _key = keccak256(abi.encodePacked(\n            _proposalId,\n            INTERMEDIATE_BONUS_CALCULATION_IDENTIFIER\n        ));\n    }\n\n\n    // calculate and update the bonuses for voters who voted \"correctly\" in the preceding voting round\n    function calculateVoterBonus(bytes32 _proposalId, uint256 _index, uint256 _operations, bool _passed)\n        internal\n        returns (bool _done)\n    {\n        if (_operations == 0) return false;\n        address _countedUntil;\n        (_countedUntil,,,) = intermediateResultsStorage().getIntermediateResults(\n            getInterResultKeyForBonusCalculation(_proposalId)\n        );\n\n        address[] memory _voterBatch;\n        if (_countedUntil == EMPTY_ADDRESS) {\n            _voterBatch = daoListingService().listParticipants(\n                _operations,\n                true\n            );\n        } else {\n            _voterBatch = daoListingService().listParticipantsFrom(\n                _countedUntil,\n                _operations,\n                true\n            );\n        }\n        address _lastVoter = _voterBatch[_voterBatch.length - 1]; // this will fail if _voterBatch is empty. However, there is at least the proposer as a participant in the quarter.\n\n        DaoIntermediateStructs.Users memory _bonusVoters;\n        if (_passed) {\n\n            // give bonus points for all those who\n            // voted YES in the previous round\n            (_bonusVoters.users, _bonusVoters.usersLength) = daoStorage().readVotingRoundVotes(_proposalId, _index.sub(1), _voterBatch, true);\n        } else {\n            // give bonus points for all those who\n            // voted NO in the previous round\n            (_bonusVoters.users, _bonusVoters.usersLength) = daoStorage().readVotingRoundVotes(_proposalId, _index.sub(1), _voterBatch, false);\n        }\n\n        if (_bonusVoters.usersLength > 0) addBonusReputation(_bonusVoters.users, _bonusVoters.usersLength);\n\n        if (_lastVoter == daoStakeStorage().readLastParticipant()) {\n            // this is the last iteration\n\n            intermediateResultsStorage().resetIntermediateResults(\n                getInterResultKeyForBonusCalculation(_proposalId)\n            );\n            _done = true;\n        } else {\n            // this is not the last iteration yet, save the intermediate results\n            intermediateResultsStorage().setIntermediateResults(\n                getInterResultKeyForBonusCalculation(_proposalId),\n                _lastVoter, 0, 0, 0\n            );\n        }\n    }\n\n\n    // Count the votes for a Voting Round and find out if its passed\n    /// @return _operationsLeft The number of operations left after the calculations in this function\n    /// @return _passed Whether this voting round passed\n    /// @return _done Whether the calculation for this step 1 is already done. If its not done, this function will need to run again in subsequent transactions\n    /// until _done is true\n    function countProposalVote(bytes32 _proposalId, uint256 _index, uint256 _operations)\n        internal\n        returns (uint256 _operationsLeft, bool _passed, bool _done)\n    {\n        senderCanDoProposerOperations();\n        require(isFromProposer(_proposalId));\n\n        DaoStructs.IntermediateResults memory _currentResults;\n        (\n            _currentResults.countedUntil,\n            _currentResults.currentForCount,\n            _currentResults.currentAgainstCount,\n        ) = intermediateResultsStorage().getIntermediateResults(_proposalId);\n        address[] memory _voters;\n        if (_currentResults.countedUntil == EMPTY_ADDRESS) { // This is the first transaction to count votes for this voting round\n            _voters = daoListingService().listParticipants(\n                _operations,\n                true\n            );\n        } else {\n            _voters = daoListingService().listParticipantsFrom(\n                _currentResults.countedUntil,\n                _operations,\n                true\n            );\n\n            // If there's no voters left to count, this means that STEP 1 is already done, just return whether it was passed\n            // Note that _currentResults should already be storing the final tally of votes for this voting round, as already calculated in previous iterations of this function\n            if (_voters.length == 0) {\n                return (\n                    _operations,\n                    isVoteCountPassed(_currentResults, _proposalId, _index),\n                    true\n                );\n            }\n        }\n\n        address _lastVoter = _voters[_voters.length - 1];\n\n        DaoIntermediateStructs.VotingCount memory _count;\n        (_count.forCount, _count.againstCount) = daoStorage().readVotingCount(_proposalId, _index, _voters);\n\n        _currentResults.currentForCount = _currentResults.currentForCount.add(_count.forCount);\n        _currentResults.currentAgainstCount = _currentResults.currentAgainstCount.add(_count.againstCount);\n        intermediateResultsStorage().setIntermediateResults(\n            _proposalId,\n            _lastVoter,\n            _currentResults.currentForCount,\n            _currentResults.currentAgainstCount,\n            0\n        );\n\n        if (_lastVoter != daoStakeStorage().readLastParticipant()) {\n            return (0, false, false); // hasn't done STEP 1 yet. The parent function (claimProposalVotingResult) should return after this. More transactions are needed to continue the calculation\n        }\n\n        // If it comes to here, this means all votes have already been counted\n        // From this point, the IntermediateResults struct will store the total tally of the votes for this voting round until processSuccessfulVotingClaim() is called,\n        // which will reset it.\n\n        _operationsLeft = _operations.sub(_voters.length);\n        _done = true;\n\n        _passed = isVoteCountPassed(_currentResults, _proposalId, _index);\n    }\n\n\n    function isVoteCountPassed(DaoStructs.IntermediateResults _currentResults, bytes32 _proposalId, uint256 _index)\n        internal\n        view\n        returns (bool _passed)\n    {\n        _passed = (_currentResults.currentForCount.add(_currentResults.currentAgainstCount) > daoCalculatorService().minimumVotingQuorum(_proposalId, _index))\n                && (daoCalculatorService().votingQuotaPass(_currentResults.currentForCount, _currentResults.currentAgainstCount));\n    }\n\n\n    function processCollateralRefund(bytes32 _proposalId)\n        internal\n    {\n        daoStorage().setProposalCollateralStatus(_proposalId, COLLATERAL_STATUS_CLAIMED);\n        require(daoFundingManager().refundCollateral(daoStorage().readProposalProposer(_proposalId), _proposalId));\n    }\n\n\n    // add bonus reputation for voters that voted \"correctly\" in the preceding voting round AND is currently participating this quarter\n    function addBonusReputation(address[] _voters, uint256 _n)\n        private\n    {\n        uint256 _qp = getUintConfig(CONFIG_QUARTER_POINT_VOTE);\n        uint256 _rate = getUintConfig(CONFIG_BONUS_REPUTATION_NUMERATOR);\n        uint256 _base = getUintConfig(CONFIG_BONUS_REPUTATION_DENOMINATOR);\n\n        uint256 _bonus = _qp.mul(_rate).mul(getUintConfig(CONFIG_REPUTATION_PER_EXTRA_QP_NUM))\n            .div(\n                _base.mul(getUintConfig(CONFIG_REPUTATION_PER_EXTRA_QP_DEN))\n            );\n\n        for (uint256 i = 0; i < _n; i++) {\n            if (isParticipant(_voters[i])) { // only give bonus reputation to current participants\n                daoPointsStorage().increaseReputation(_voters[i], _bonus);\n            }\n        }\n    }\n\n}\n",
  "sourcePath": "/home/vu/digix/dao-contracts/contracts/interactive/DaoVotingClaims.sol",
  "compiler": {
    "name": "solc",
    "version": "0.4.25+commit.59dbf8f1.Emscripten.clang"
  },
  "schemaVersion": "2.0.2",
  "updatedAt": "2019-03-29T02:55:36.696Z"
}