{
  "contractName": "DaoWhitelisting",
  "abi": [
    {
      "constant": true,
      "inputs": [],
      "name": "resolver",
      "outputs": [
        {
          "name": "",
          "type": "address"
        }
      ],
      "payable": false,
      "stateMutability": "view",
      "type": "function"
    },
    {
      "constant": true,
      "inputs": [
        {
          "name": "_configKey",
          "type": "bytes32"
        }
      ],
      "name": "getAddressConfig",
      "outputs": [
        {
          "name": "_configValue",
          "type": "address"
        }
      ],
      "payable": false,
      "stateMutability": "view",
      "type": "function"
    },
    {
      "constant": true,
      "inputs": [],
      "name": "key",
      "outputs": [
        {
          "name": "",
          "type": "bytes32"
        }
      ],
      "payable": false,
      "stateMutability": "view",
      "type": "function"
    },
    {
      "constant": true,
      "inputs": [
        {
          "name": "_key",
          "type": "bytes32"
        }
      ],
      "name": "get_contract",
      "outputs": [
        {
          "name": "_contract",
          "type": "address"
        }
      ],
      "payable": false,
      "stateMutability": "view",
      "type": "function"
    },
    {
      "constant": true,
      "inputs": [],
      "name": "currentTimeInQuarter",
      "outputs": [
        {
          "name": "_currentT",
          "type": "uint256"
        }
      ],
      "payable": false,
      "stateMutability": "view",
      "type": "function"
    },
    {
      "constant": true,
      "inputs": [],
      "name": "isMainPhase",
      "outputs": [
        {
          "name": "_isMainPhase",
          "type": "bool"
        }
      ],
      "payable": false,
      "stateMutability": "view",
      "type": "function"
    },
    {
      "constant": true,
      "inputs": [],
      "name": "isLockingPhase",
      "outputs": [
        {
          "name": "_isLockingPhase",
          "type": "bool"
        }
      ],
      "payable": false,
      "stateMutability": "view",
      "type": "function"
    },
    {
      "constant": true,
      "inputs": [],
      "name": "currentQuarterNumber",
      "outputs": [
        {
          "name": "_quarterNumber",
          "type": "uint256"
        }
      ],
      "payable": false,
      "stateMutability": "view",
      "type": "function"
    },
    {
      "constant": true,
      "inputs": [
        {
          "name": "_user",
          "type": "address"
        }
      ],
      "name": "isParticipant",
      "outputs": [
        {
          "name": "_is",
          "type": "bool"
        }
      ],
      "payable": false,
      "stateMutability": "view",
      "type": "function"
    },
    {
      "constant": true,
      "inputs": [
        {
          "name": "_configKey",
          "type": "bytes32"
        }
      ],
      "name": "getBytesConfig",
      "outputs": [
        {
          "name": "_configValue",
          "type": "bytes32"
        }
      ],
      "payable": false,
      "stateMutability": "view",
      "type": "function"
    },
    {
      "constant": true,
      "inputs": [
        {
          "name": "_configKey",
          "type": "bytes32"
        }
      ],
      "name": "getUintConfig",
      "outputs": [
        {
          "name": "_configValue",
          "type": "uint256"
        }
      ],
      "payable": false,
      "stateMutability": "view",
      "type": "function"
    },
    {
      "constant": true,
      "inputs": [],
      "name": "isDaoNotReplaced",
      "outputs": [
        {
          "name": "_isNotReplaced",
          "type": "bool"
        }
      ],
      "payable": false,
      "stateMutability": "view",
      "type": "function"
    },
    {
      "constant": true,
      "inputs": [],
      "name": "CONTRACT_ADDRESS",
      "outputs": [
        {
          "name": "",
          "type": "address"
        }
      ],
      "payable": false,
      "stateMutability": "view",
      "type": "function"
    },
    {
      "constant": true,
      "inputs": [
        {
          "name": "_user",
          "type": "address"
        }
      ],
      "name": "isModerator",
      "outputs": [
        {
          "name": "_is",
          "type": "bool"
        }
      ],
      "payable": false,
      "stateMutability": "view",
      "type": "function"
    },
    {
      "inputs": [
        {
          "name": "_resolver",
          "type": "address"
        },
        {
          "name": "_initialWhitelist",
          "type": "address[]"
        }
      ],
      "payable": false,
      "stateMutability": "nonpayable",
      "type": "constructor"
    },
    {
      "constant": false,
      "inputs": [
        {
          "name": "_contract",
          "type": "address"
        },
        {
          "name": "_senderIsAllowedToRead",
          "type": "bool"
        }
      ],
      "name": "setWhitelisted",
      "outputs": [],
      "payable": false,
      "stateMutability": "nonpayable",
      "type": "function"
    }
  ],
  "bytecode": "0x608060405260006001026003906000191690556000600460006101000a81548173ffffffffffffffffffffffffffffffffffffffff021916908373ffffffffffffffffffffffffffffffffffffffff1602179055507f70726f706f73616c5f73746174655f70726570726f706f73616c0000000000006005906000191690557f70726f706f73616c5f73746174655f64726166740000000000000000000000006006906000191690557f70726f706f73616c5f73746174655f6d6f6465726174656400000000000000006007906000191690557f70726f706f73616c5f73746174655f6f6e676f696e67000000000000000000006008906000191690557f70726f706f73616c5f73746174655f636c6f73656400000000000000000000006009906000191690557f70726f706f73616c5f73746174655f6172636869766564000000000000000000600a906000191690556001600b556002600c556003600d556001600e556002600f5560036010557f696e7465725f6467645f696400000000000000000000000000000000000000006011906000191690557f696e7465725f6d6f645f6467645f6964000000000000000000000000000000006012906000191690557f696e7465725f626f6e75735f63616c63756c6174696f6e5f69640000000000006013906000191690557f64616f00000000000000000000000000000000000000000000000000000000006014906000191690557f64616f3a7370656369616c3a70726f706f73616c0000000000000000000000006015906000191690557f64616f3a7374616b652d6c6f636b696e670000000000000000000000000000006016906000191690557f64616f3a766f74696e67000000000000000000000000000000000000000000006017906000191690557f64616f3a766f74696e673a636c61696d730000000000000000000000000000006018906000191690557f64616f3a73766f74696e673a636c61696d7300000000000000000000000000006019906000191690557f64616f3a6964656e746974790000000000000000000000000000000000000000601a906000191690557f64616f3a726577617264732d6d616e6167657200000000000000000000000000601b906000191690557f64616f3a726577617264732d6578747261730000000000000000000000000000601c906000191690557f64616f3a726f6c65730000000000000000000000000000000000000000000000601d906000191690557f64616f3a66756e64696e672d6d616e6167657200000000000000000000000000601e906000191690557f64616f3a77686974656c697374696e6700000000000000000000000000000000601f906000191690557f64616f3a696e666f726d6174696f6e00000000000000000000000000000000006020906000191690557f736572766963653a726f6c6500000000000000000000000000000000000000006021906000191690557f736572766963653a64616f3a696e666f000000000000000000000000000000006022906000191690557f736572766963653a64616f3a6c697374696e67000000000000000000000000006023906000191690557f736572766963653a64616f3a63616c63756c61746f72000000000000000000006024906000191690557f73746f726167653a64616f0000000000000000000000000000000000000000006025906000191690557f73746f726167653a64616f3a636f756e746572000000000000000000000000006026906000191690557f73746f726167653a64616f3a75706772616465000000000000000000000000006027906000191690557f73746f726167653a64616f3a6964656e746974790000000000000000000000006028906000191690557f73746f726167653a64616f3a706f696e747300000000000000000000000000006029906000191690557f73746f726167653a64616f3a7370656369616c00000000000000000000000000602a906000191690557f73746f726167653a64616f3a636f6e6669670000000000000000000000000000602b906000191690557f73746f726167653a64616f3a7374616b65000000000000000000000000000000602c906000191690557f73746f726167653a64616f3a7265776172647300000000000000000000000000602d906000191690557f73746f726167653a64616f3a77686974656c697374696e670000000000000000602e906000191690557f73746f726167653a696e7465726d6564696174653a726573756c747300000000602f906000191690557f743a6467640000000000000000000000000000000000000000000000000000006030906000191690557f743a6467780000000000000000000000000000000000000000000000000000006031906000191690557f743a6261646765000000000000000000000000000000000000000000000000006032906000191690556001603360006101000a81548160ff021916908360ff1602179055506002603360016101000a81548160ff021916908360ff1602179055506003603360026101000a81548160ff021916908360ff1602179055506004603360036101000a81548160ff021916908360ff1602179055506276a7006034557f6d696e5f6467645f7061727469636970616e74000000000000000000000000006035906000191690557f6d696e5f6467645f6d6f64657261746f720000000000000000000000000000006036906000191690557f6d696e5f72657075746174696f6e5f6d6f64657261746f7200000000000000006037906000191690557f6c6f636b696e675f70686173655f6475726174696f6e000000000000000000006038906000191690557f717561727465725f6475726174696f6e000000000000000000000000000000006039906000191690557f766f74696e675f636f6d6d69745f706861736500000000000000000000000000603a906000191690557f766f74696e675f70686173655f746f74616c0000000000000000000000000000603b906000191690557f696e746572696d5f766f74696e675f636f6d6d69745f70686173650000000000603c906000191690557f696e746572696d5f766f74696e675f70686173655f746f74616c000000000000603d906000191690557f64726166745f71756f72756d5f66697865645f6e756d657261746f7200000000603e906000191690557f64726166745f71756f72756d5f66697865645f64656e6f6d696e61746f720000603f906000191690557f64726166745f71756f72756d5f73666163746f725f6e756d657261746f7200006040906000191690557f64726166745f71756f72756d5f73666163746f725f64656e6f6d696e61746f726041906000191690557f766f74655f71756f72756d5f66697865645f6e756d657261746f7200000000006042906000191690557f766f74655f71756f72756d5f66697865645f64656e6f6d696e61746f720000006043906000191690557f766f74655f71756f72756d5f73666163746f725f6e756d657261746f720000006044906000191690557f766f74655f71756f72756d5f73666163746f725f64656e6f6d696e61746f72006045906000191690557f66696e616c5f7265776172645f73666163746f725f6e756d657261746f7200006046906000191690557f66696e616c5f7265776172645f73666163746f725f64656e6f6d696e61746f726047906000191690557f64726166745f71756f74615f6e756d657261746f7200000000000000000000006048906000191690557f64726166745f71756f74615f64656e6f6d696e61746f720000000000000000006049906000191690557f766f74696e675f71756f74615f6e756d657261746f7200000000000000000000604a906000191690557f766f74696e675f71756f74615f64656e6f6d696e61746f720000000000000000604b906000191690557f6d696e696d616c5f717000000000000000000000000000000000000000000000604c906000191690557f717561727465725f706f696e745f7363616c696e675f666163746f7200000000604d906000191690557f7265705f706f696e745f7363616c696e675f666163746f720000000000000000604e906000191690557f6d696e696d616c5f6d6f645f7170000000000000000000000000000000000000604f906000191690557f6d6f645f71705f7363616c696e675f666163746f7200000000000000000000006050906000191690557f6d6f645f7265705f706f696e745f7363616c696e675f666163746f72000000006051906000191690557f717561727465725f706f696e745f64726166745f766f746500000000000000006052906000191690557f717561727465725f706f696e745f766f746500000000000000000000000000006053906000191690557f717561727465725f706f696e745f696e746572696d5f766f74650000000000006054906000191690557f715f705f6d696c6573746f6e655f636f6d706c6574696f6e00000000000000006055906000191690557f626f6e75735f72657075746174696f6e5f6e756d657261746f720000000000006056906000191690557f626f6e75735f72657075746174696f6e5f64656e6f6d696e61746f72000000006057906000191690557f7370656369616c5f70726f706f73616c5f636f6d6d69745f70686173650000006058906000191690557f7370656369616c5f70726f706f73616c5f70686173655f746f74616c000000006059906000191690557f636f6e6669675f7370656369616c5f71756f74615f6e756d657261746f720000605a906000191690557f636f6e6669675f7370656369616c5f71756f74615f64656e6f6d696e61746f72605b906000191690557f7370656369616c5f71756f72756d5f6e756d657261746f720000000000000000605c906000191690557f7370656369616c5f71756f72756d5f64656e6f6d696e61746f72000000000000605d906000191690557f636f6e6669675f6d61785f72657075746174696f6e5f646564756374696f6e00605e906000191690557f636f6e6669675f70756e6973686d656e745f6e6f745f6c6f636b696e67000000605f906000191690557f636f6e6669675f7265705f7065725f65787472615f71705f6e756d00000000006060906000191690557f636f6e6669675f7265705f7065725f65787472615f71705f64656e00000000006061906000191690557f636f6e6669675f6d61785f6d5f72705f646564756374696f6e000000000000006062906000191690557f636f6e6669675f7265705f7065725f65787472615f6d5f71705f6e756d0000006063906000191690557f636f6e6669675f7265705f7065725f65787472615f6d5f71705f64656e0000006064906000191690557f636f6e6669675f6d6f645f706f7274696f6e5f6e756d000000000000000000006065906000191690557f636f6e6669675f6d6f645f706f7274696f6e5f64656e000000000000000000006066906000191690557f636f6e6669675f64726166745f766f74696e675f7068617365000000000000006067906000191690557f636f6e6669675f72705f626f6f73745f7065725f6261646765000000000000006068906000191690557f636f6e6669675f636c61696d696e675f646561646c696e6500000000000000006069906000191690557f636f6e6669675f70726570726f706f73616c5f636f6c6c61746572616c000000606a906000191690557f636f6e6669675f6d61785f66756e64696e675f6e6f6e44696769780000000000606b906000191690557f636f6e6669675f6d61785f6d696c6573746f6e65735f6e6f6e44696769780000606c906000191690557f636f6e6669675f6e6f6e44696769785f70726f706f73616c5f63617000000000606d906000191690557f636f6e6669675f646561645f6475726174696f6e000000000000000000000000606e906000191690557f636f6e6669675f63765f72657075746174696f6e000000000000000000000000606f906000191690553480156200113457600080fd5b50604051620029fe380380620029fe833981018060405281019080805190602001909291908051820192919050505060008062001183601f5485620012ab640100000000026401000000009004565b15156200118f57600080fd5b82519150600090505b81811015620012a157620011ba6200153c640100000000026401000000009004565b73ffffffffffffffffffffffffffffffffffffffff16639281aa0b8483815181101515620011e457fe5b9060200190602002015160016040518363ffffffff167c0100000000000000000000000000000000000000000000000000000000028152600401808373ffffffffffffffffffffffffffffffffffffffff1673ffffffffffffffffffffffffffffffffffffffff1681526020018215151515815260200192505050600060405180830381600087803b1580156200127a57600080fd5b505af11580156200128f573d6000803e3d6000fd5b50505050808060010191505062001198565b505050506200163e565b6000808273ffffffffffffffffffffffffffffffffffffffff16636d19a8826040518163ffffffff167c0100000000000000000000000000000000000000000000000000000000028152600401602060405180830381600087803b1580156200131357600080fd5b505af115801562001328573d6000803e3d6000fd5b505050506040513d60208110156200133f57600080fd5b81019080805190602001909291905050509050600015158115151415620015305730600260006101000a81548173ffffffffffffffffffffffffffffffffffffffff021916908373ffffffffffffffffffffffffffffffffffffffff160217905550826000806101000a81548173ffffffffffffffffffffffffffffffffffffffff021916908373ffffffffffffffffffffffffffffffffffffffff16021790555083600181600019169055506000809054906101000a900473ffffffffffffffffffffffffffffffffffffffff1673ffffffffffffffffffffffffffffffffffffffff1663c0f6ef4a600154600260009054906101000a900473ffffffffffffffffffffffffffffffffffffffff166040518363ffffffff167c01000000000000000000000000000000000000000000000000000000000281526004018083600019166000191681526020018273ffffffffffffffffffffffffffffffffffffffff1673ffffffffffffffffffffffffffffffffffffffff16815260200192505050602060405180830381600087803b158015620014dd57600080fd5b505af1158015620014f2573d6000803e3d6000fd5b505050506040513d60208110156200150957600080fd5b810190808051906020019092919050505015156200152657600080fd5b6001915062001535565b600091505b5092915050565b60006200155a602e546200155f640100000000026401000000009004565b905090565b60008060009054906101000a900473ffffffffffffffffffffffffffffffffffffffff1673ffffffffffffffffffffffffffffffffffffffff16633f83acff836040518263ffffffff167c0100000000000000000000000000000000000000000000000000000000028152600401808260001916600019168152602001915050602060405180830381600087803b158015620015fa57600080fd5b505af11580156200160f573d6000803e3d6000fd5b505050506040513d60208110156200162657600080fd5b81019080805190602001909291905050509050919050565b6113b0806200164e6000396000f3006080604052600436106100db576000357c0100000000000000000000000000000000000000000000000000000000900463ffffffff16806304f3bcec146100e05780631d8ccd04146101375780633943380c146101a85780633f83acff146101db578063560a25ea1461024c57806368533060146102775780637d6fed80146102a65780637f6a26b6146102d55780639281aa0b14610300578063929066f51461034f57806393ddad08146103aa578063b1e2b9dd146103f7578063d70d93581461043c578063db4ecbc11461046b578063fa6f3936146104c2575b600080fd5b3480156100ec57600080fd5b506100f561051d565b604051808273ffffffffffffffffffffffffffffffffffffffff1673ffffffffffffffffffffffffffffffffffffffff16815260200191505060405180910390f35b34801561014357600080fd5b506101666004803603810190808035600019169060200190929190505050610542565b604051808273ffffffffffffffffffffffffffffffffffffffff1673ffffffffffffffffffffffffffffffffffffffff16815260200191505060405180910390f35b3480156101b457600080fd5b506101bd610604565b60405180826000191660001916815260200191505060405180910390f35b3480156101e757600080fd5b5061020a600480360381019080803560001916906020019092919050505061060a565b604051808273ffffffffffffffffffffffffffffffffffffffff1673ffffffffffffffffffffffffffffffffffffffff16815260200191505060405180910390f35b34801561025857600080fd5b506102616106e6565b6040518082815260200191505060405180910390f35b34801561028357600080fd5b5061028c6106f6565b604051808215151515815260200191505060405180910390f35b3480156102b257600080fd5b506102bb610722565b604051808215151515815260200191505060405180910390f35b3480156102e157600080fd5b506102ea61073d565b6040518082815260200191505060405180910390f35b34801561030c57600080fd5b5061034d600480360381019080803573ffffffffffffffffffffffffffffffffffffffff16906020019092919080351515906020019092919050505061074d565b005b34801561035b57600080fd5b50610390600480360381019080803573ffffffffffffffffffffffffffffffffffffffff169060200190929190505050610913565b604051808215151515815260200191505060405180910390f35b3480156103b657600080fd5b506103d96004803603810190808035600019169060200190929190505050610af4565b60405180826000191660001916815260200191505060405180910390f35b34801561040357600080fd5b506104266004803603810190808035600019169060200190929190505050610bb6565b6040518082815260200191505060405180910390f35b34801561044857600080fd5b50610451610c78565b604051808215151515815260200191505060405180910390f35b34801561047757600080fd5b50610480610d26565b604051808273ffffffffffffffffffffffffffffffffffffffff1673ffffffffffffffffffffffffffffffffffffffff16815260200191505060405180910390f35b3480156104ce57600080fd5b50610503600480360381019080803573ffffffffffffffffffffffffffffffffffffffff169060200190929190505050610d4c565b604051808215151515815260200191505060405180910390f35b6000809054906101000a900473ffffffffffffffffffffffffffffffffffffffff1681565b600061054c61101f565b73ffffffffffffffffffffffffffffffffffffffff1663e6b39eab836040518263ffffffff167c0100000000000000000000000000000000000000000000000000000000028152600401808260001916600019168152602001915050602060405180830381600087803b1580156105c257600080fd5b505af11580156105d6573d6000803e3d6000fd5b505050506040513d60208110156105ec57600080fd5b81019080805190602001909291905050509050919050565b60015481565b60008060009054906101000a900473ffffffffffffffffffffffffffffffffffffffff1673ffffffffffffffffffffffffffffffffffffffff16633f83acff836040518263ffffffff167c0100000000000000000000000000000000000000000000000000000000028152600401808260001916600019168152602001915050602060405180830381600087803b1580156106a457600080fd5b505af11580156106b8573d6000803e3d6000fd5b505050506040513d60208110156106ce57600080fd5b81019080805190602001909291905050509050919050565b60006106f142611031565b905090565b6000610700610c78565b801561071d5750610712603854610bb6565b61071a6106e6565b10155b905090565b600061072f603854610bb6565b6107376106e6565b10905090565b60006107484261111a565b905090565b603360029054906101000a900460ff1660ff1661076861121d565b73ffffffffffffffffffffffffffffffffffffffff1663c31d02b2336040518263ffffffff167c0100000000000000000000000000000000000000000000000000000000028152600401808273ffffffffffffffffffffffffffffffffffffffff1673ffffffffffffffffffffffffffffffffffffffff168152602001915050602060405180830381600087803b15801561080257600080fd5b505af1158015610816573d6000803e3d6000fd5b505050506040513d602081101561082c57600080fd5b810190808051906020019092919050505014151561084957600080fd5b61085161122f565b73ffffffffffffffffffffffffffffffffffffffff16639281aa0b83836040518363ffffffff167c0100000000000000000000000000000000000000000000000000000000028152600401808373ffffffffffffffffffffffffffffffffffffffff1673ffffffffffffffffffffffffffffffffffffffff1681526020018215151515815260200192505050600060405180830381600087803b1580156108f757600080fd5b505af115801561090b573d6000803e3d6000fd5b505050505050565b600061091d61073d565b610925611241565b73ffffffffffffffffffffffffffffffffffffffff1663cefc2bff846040518263ffffffff167c0100000000000000000000000000000000000000000000000000000000028152600401808273ffffffffffffffffffffffffffffffffffffffff1673ffffffffffffffffffffffffffffffffffffffff168152602001915050602060405180830381600087803b1580156109bf57600080fd5b505af11580156109d3573d6000803e3d6000fd5b505050506040513d60208110156109e957600080fd5b8101908080519060200190929190505050148015610aed5750610a0d603554610bb6565b610a15611253565b73ffffffffffffffffffffffffffffffffffffffff1663cd094a27846040518263ffffffff167c0100000000000000000000000000000000000000000000000000000000028152600401808273ffffffffffffffffffffffffffffffffffffffff1673ffffffffffffffffffffffffffffffffffffffff168152602001915050602060405180830381600087803b158015610aaf57600080fd5b505af1158015610ac3573d6000803e3d6000fd5b505050506040513d6020811015610ad957600080fd5b810190808051906020019092919050505010155b9050919050565b6000610afe61101f565b73ffffffffffffffffffffffffffffffffffffffff1663c0a8405d836040518263ffffffff167c0100000000000000000000000000000000000000000000000000000000028152600401808260001916600019168152602001915050602060405180830381600087803b158015610b7457600080fd5b505af1158015610b88573d6000803e3d6000fd5b505050506040513d6020811015610b9e57600080fd5b81019080805190602001909291905050509050919050565b6000610bc061101f565b73ffffffffffffffffffffffffffffffffffffffff1663734c1168836040518263ffffffff167c0100000000000000000000000000000000000000000000000000000000028152600401808260001916600019168152602001915050602060405180830381600087803b158015610c3657600080fd5b505af1158015610c4a573d6000803e3d6000fd5b505050506040513d6020811015610c6057600080fd5b81019080805190602001909291905050509050919050565b6000610c82611265565b73ffffffffffffffffffffffffffffffffffffffff16638bc865fd6040518163ffffffff167c0100000000000000000000000000000000000000000000000000000000028152600401602060405180830381600087803b158015610ce557600080fd5b505af1158015610cf9573d6000803e3d6000fd5b505050506040513d6020811015610d0f57600080fd5b810190808051906020019092919050505015905090565b600260009054906101000a900473ffffffffffffffffffffffffffffffffffffffff1681565b6000610d5661073d565b610d5e611241565b73ffffffffffffffffffffffffffffffffffffffff1663cefc2bff846040518263ffffffff167c0100000000000000000000000000000000000000000000000000000000028152600401808273ffffffffffffffffffffffffffffffffffffffff1673ffffffffffffffffffffffffffffffffffffffff168152602001915050602060405180830381600087803b158015610df857600080fd5b505af1158015610e0c573d6000803e3d6000fd5b505050506040513d6020811015610e2257600080fd5b8101908080519060200190929190505050148015610f265750610e46603654610bb6565b610e4e611253565b73ffffffffffffffffffffffffffffffffffffffff1663cd094a27846040518263ffffffff167c0100000000000000000000000000000000000000000000000000000000028152600401808273ffffffffffffffffffffffffffffffffffffffff1673ffffffffffffffffffffffffffffffffffffffff168152602001915050602060405180830381600087803b158015610ee857600080fd5b505af1158015610efc573d6000803e3d6000fd5b505050506040513d6020811015610f1257600080fd5b810190808051906020019092919050505010155b80156110185750610f38603754610bb6565b610f40611277565b73ffffffffffffffffffffffffffffffffffffffff16639c89a0e2846040518263ffffffff167c0100000000000000000000000000000000000000000000000000000000028152600401808273ffffffffffffffffffffffffffffffffffffffff1673ffffffffffffffffffffffffffffffffffffffff168152602001915050602060405180830381600087803b158015610fda57600080fd5b505af1158015610fee573d6000803e3d6000fd5b505050506040513d602081101561100457600080fd5b810190808051906020019092919050505010155b9050919050565b600061102c602b5461060a565b905090565b600061103b611289565b151561104657600080fd5b611051603954610bb6565b61110961105c611265565b73ffffffffffffffffffffffffffffffffffffffff1663d9c6bb206040518163ffffffff167c0100000000000000000000000000000000000000000000000000000000028152600401602060405180830381600087803b1580156110bf57600080fd5b505af11580156110d3573d6000803e3d6000fd5b505050506040513d60208110156110e957600080fd5b81019080805190602001909291905050508461133990919063ffffffff16565b81151561111257fe5b069050919050565b6000611124611289565b151561112f57600080fd5b6112166001611208611142603954610bb6565b6111fa61114d611265565b73ffffffffffffffffffffffffffffffffffffffff1663d9c6bb206040518163ffffffff167c0100000000000000000000000000000000000000000000000000000000028152600401602060405180830381600087803b1580156111b057600080fd5b505af11580156111c4573d6000803e3d6000fd5b505050506040513d60208110156111da57600080fd5b81019080805190602001909291905050508761133990919063ffffffff16565b61135290919063ffffffff16565b61136890919063ffffffff16565b9050919050565b600061122a60285461060a565b905090565b600061123c602e5461060a565b905090565b600061124e602d5461060a565b905090565b6000611260602c5461060a565b905090565b600061127260275461060a565b905090565b600061128460295461060a565b905090565b600080611294611265565b73ffffffffffffffffffffffffffffffffffffffff1663d9c6bb206040518163ffffffff167c0100000000000000000000000000000000000000000000000000000000028152600401602060405180830381600087803b1580156112f757600080fd5b505af115801561130b573d6000803e3d6000fd5b505050506040513d602081101561132157600080fd5b81019080805190602001909291905050501415905090565b600082821115151561134757fe5b818303905092915050565b6000818381151561135f57fe5b04905092915050565b6000818301905082811015151561137b57fe5b809050929150505600a165627a7a72305820e6c704a9e4388daa146a5f9ea9417bba0605344cdf6968afc22575e95da027a60029",
  "source": "pragma solidity ^0.4.25;\n\nimport \"../common/DaoConstants.sol\";\nimport \"../common/DaoCommon.sol\";\nimport \"@digix/cacp-contracts-dao/contracts/ResolverClient.sol\";\n\n\n/**\n@title Interactive DAO contract for whitelisting/blacklisting contracts from reading from Storage layer contracts\n@author Digix Holdings\n*/\ncontract DaoWhitelisting is ResolverClient, DaoConstants, DaoCommon {\n\n    /**\n    @notice Constructor\n    @dev Pass in the DigixDAO interactive contract addresses, that can read votes\n    @param _resolver Address of ContractResolver contract\n    @param _initialWhitelist Array of addresses, initially whitelisted contracts\n    */\n    constructor(address _resolver, address[] _initialWhitelist)\n        public\n    {\n        require(init(CONTRACT_DAO_WHITELISTING, _resolver));\n\n        uint256 _n = _initialWhitelist.length;\n        for (uint256 i = 0; i < _n; i++) {\n            daoWhitelistingStorage().setWhitelisted(_initialWhitelist[i], true);\n        }\n    }\n\n    /**\n    @notice Function to whitelist a contract address (only callable by PRL)\n    @dev Whitelisted contracts can read votes from the DaoStorage contract\n    @param _contract Ethereum address of the deployed contract\n    @param _senderIsAllowedToRead Boolean, true if to be whitelisted, false to blacklist\n    */\n    function setWhitelisted(address _contract, bool _senderIsAllowedToRead)\n        public\n        if_prl()\n    {\n        daoWhitelistingStorage().setWhitelisted(_contract, _senderIsAllowedToRead);\n    }\n}\n",
  "sourcePath": "/home/rohit/Develop/dao-contracts/contracts/interactive/DaoWhitelisting.sol",
  "compiler": {
    "name": "solc",
    "version": "0.4.25+commit.59dbf8f1.Emscripten.clang"
  },
  "schemaVersion": "2.0.2",
  "updatedAt": "2019-03-18T09:32:27.690Z"
}