{
  "contractName": "DirectoryStorage",
  "abi": [
    {
      "constant": true,
      "inputs": [
        {
          "name": "_role_id",
          "type": "uint256"
        }
      ],
      "name": "read_role",
      "outputs": [
        {
          "name": "_name",
          "type": "bytes32"
        }
      ],
      "payable": false,
      "stateMutability": "view",
      "type": "function"
    },
    {
      "constant": true,
      "inputs": [
        {
          "name": "_group_id",
          "type": "uint256"
        }
      ],
      "name": "read_group",
      "outputs": [
        {
          "name": "_role_id",
          "type": "uint256"
        },
        {
          "name": "_name",
          "type": "bytes32"
        },
        {
          "name": "_document",
          "type": "bytes32"
        },
        {
          "name": "_members_count",
          "type": "uint256"
        }
      ],
      "payable": false,
      "stateMutability": "view",
      "type": "function"
    },
    {
      "constant": true,
      "inputs": [
        {
          "name": "_user",
          "type": "address"
        }
      ],
      "name": "read_user_role_id",
      "outputs": [
        {
          "name": "_role_id",
          "type": "uint256"
        }
      ],
      "payable": false,
      "stateMutability": "view",
      "type": "function"
    },
    {
      "constant": true,
      "inputs": [
        {
          "name": "_user",
          "type": "address"
        }
      ],
      "name": "read_user",
      "outputs": [
        {
          "name": "_group_id",
          "type": "uint256"
        },
        {
          "name": "_role_id",
          "type": "uint256"
        },
        {
          "name": "_document",
          "type": "bytes32"
        }
      ],
      "payable": false,
      "stateMutability": "view",
      "type": "function"
    },
    {
      "constant": true,
      "inputs": [],
      "name": "read_first_group",
      "outputs": [
        {
          "name": "_group_id",
          "type": "uint256"
        }
      ],
      "payable": false,
      "stateMutability": "view",
      "type": "function"
    },
    {
      "constant": true,
      "inputs": [],
      "name": "read_last_group",
      "outputs": [
        {
          "name": "_group_id",
          "type": "uint256"
        }
      ],
      "payable": false,
      "stateMutability": "view",
      "type": "function"
    },
    {
      "constant": true,
      "inputs": [
        {
          "name": "_current_group_id",
          "type": "uint256"
        }
      ],
      "name": "read_previous_group_from_group",
      "outputs": [
        {
          "name": "_group_id",
          "type": "uint256"
        }
      ],
      "payable": false,
      "stateMutability": "view",
      "type": "function"
    },
    {
      "constant": true,
      "inputs": [
        {
          "name": "_current_group_id",
          "type": "uint256"
        }
      ],
      "name": "read_next_group_from_group",
      "outputs": [
        {
          "name": "_group_id",
          "type": "uint256"
        }
      ],
      "payable": false,
      "stateMutability": "view",
      "type": "function"
    },
    {
      "constant": true,
      "inputs": [],
      "name": "read_total_groups",
      "outputs": [
        {
          "name": "_total_groups",
          "type": "uint256"
        }
      ],
      "payable": false,
      "stateMutability": "view",
      "type": "function"
    },
    {
      "constant": true,
      "inputs": [
        {
          "name": "_group_id",
          "type": "bytes32"
        }
      ],
      "name": "read_first_user_in_group",
      "outputs": [
        {
          "name": "_user",
          "type": "address"
        }
      ],
      "payable": false,
      "stateMutability": "view",
      "type": "function"
    },
    {
      "constant": true,
      "inputs": [
        {
          "name": "_group_id",
          "type": "bytes32"
        }
      ],
      "name": "read_last_user_in_group",
      "outputs": [
        {
          "name": "_user",
          "type": "address"
        }
      ],
      "payable": false,
      "stateMutability": "view",
      "type": "function"
    },
    {
      "constant": true,
      "inputs": [
        {
          "name": "_group_id",
          "type": "bytes32"
        },
        {
          "name": "_current_user",
          "type": "address"
        }
      ],
      "name": "read_next_user_in_group",
      "outputs": [
        {
          "name": "_user",
          "type": "address"
        }
      ],
      "payable": false,
      "stateMutability": "view",
      "type": "function"
    },
    {
      "constant": true,
      "inputs": [
        {
          "name": "_group_id",
          "type": "bytes32"
        },
        {
          "name": "_current_user",
          "type": "address"
        }
      ],
      "name": "read_previous_user_in_group",
      "outputs": [
        {
          "name": "_user",
          "type": "address"
        }
      ],
      "payable": false,
      "stateMutability": "view",
      "type": "function"
    },
    {
      "constant": true,
      "inputs": [
        {
          "name": "_group_id",
          "type": "bytes32"
        }
      ],
      "name": "read_total_users_in_group",
      "outputs": [
        {
          "name": "_total_users",
          "type": "uint256"
        }
      ],
      "payable": false,
      "stateMutability": "view",
      "type": "function"
    }
  ],
  "bytecode": "0x608060405234801561001057600080fd5b50611109806100206000396000f3006080604052600436106100d0576000357c0100000000000000000000000000000000000000000000000000000000900463ffffffff1680631d8b86b4146100d557806320a4c22d14610100578063339f38b61461012b57806338eeb1871461017457806339d20a5f146101e557806350c7e73b14610252578063657dcf0b146102c3578063ba16cfc714610329578063c31d02b214610354578063c97f5104146103ab578063dbee9e5b1461043c578063e17078c314610481578063eae2083f146104c2578063ee9589aa14610553575b600080fd5b3480156100e157600080fd5b506100ea610594565b6040518082815260200191505060405180910390f35b34801561010c57600080fd5b506101156105a7565b6040518082815260200191505060405180910390f35b34801561013757600080fd5b50610156600480360381019080803590602001909291905050506105ba565b60405180826000191660001916815260200191505060405180910390f35b34801561018057600080fd5b506101a360048036038101908080356000191690602001909291905050506105d9565b604051808273ffffffffffffffffffffffffffffffffffffffff1673ffffffffffffffffffffffffffffffffffffffff16815260200191505060405180910390f35b3480156101f157600080fd5b50610226600480360381019080803573ffffffffffffffffffffffffffffffffffffffff1690602001909291905050506105f0565b604051808481526020018381526020018260001916600019168152602001935050505060405180910390f35b34801561025e57600080fd5b5061028160048036038101908080356000191690602001909291905050506106b8565b604051808273ffffffffffffffffffffffffffffffffffffffff1673ffffffffffffffffffffffffffffffffffffffff16815260200191505060405180910390f35b3480156102cf57600080fd5b506102ee600480360381019080803590602001909291905050506106cf565b604051808581526020018460001916600019168152602001836000191660001916815260200182815260200194505050505060405180910390f35b34801561033557600080fd5b5061033e610830565b6040518082815260200191505060405180910390f35b34801561036057600080fd5b50610395600480360381019080803573ffffffffffffffffffffffffffffffffffffffff169060200190929190505050610843565b6040518082815260200191505060405180910390f35b3480156103b757600080fd5b506103fa6004803603810190808035600019169060200190929190803573ffffffffffffffffffffffffffffffffffffffff1690602001909291905050506108ad565b604051808273ffffffffffffffffffffffffffffffffffffffff1673ffffffffffffffffffffffffffffffffffffffff16815260200191505060405180910390f35b34801561044857600080fd5b5061046b60048036038101908080356000191690602001909291905050506108c6565b6040518082815260200191505060405180910390f35b34801561048d57600080fd5b506104ac600480360381019080803590602001909291905050506108dd565b6040518082815260200191505060405180910390f35b3480156104ce57600080fd5b506105116004803603810190808035600019169060200190929190803573ffffffffffffffffffffffffffffffffffffffff1690602001909291905050506108f3565b604051808273ffffffffffffffffffffffffffffffffffffffff1673ffffffffffffffffffffffffffffffffffffffff16815260200191505060405180910390f35b34801561055f57600080fd5b5061057e6004803603810190808035906020019092919050505061090c565b6040518082815260200191505060405180910390f35b60006105a260008001610922565b905090565b60006105b5600080016109d3565b905090565b6000806009016000838152602001908152602001600020549050919050565b60006105e9600060060183610a84565b9050919050565b60008060008060080160008573ffffffffffffffffffffffffffffffffffffffff1673ffffffffffffffffffffffffffffffffffffffff168152602001908152602001600020549250600060070160008481526020019081526020016000206002015491506000600701600084815260200190815260200160002060030160008573ffffffffffffffffffffffffffffffffffffffff1673ffffffffffffffffffffffffffffffffffffffff1681526020019081526020016000206000015490509193909250565b60006106c8600060060183610b46565b9050919050565b6000806000806000800173__DoublyLinkedList______________________639500c08e9091876040518363ffffffff167c0100000000000000000000000000000000000000000000000000000000028152600401808381526020018281526020019250505060206040518083038186803b15801561074d57600080fd5b505af4158015610761573d6000803e3d6000fd5b505050506040513d602081101561077757600080fd5b8101908080519060200190929190505050156107f9576000600701600086815260200190815260200160002060020154935060006007016000868152602001908152602001600020600001549250600060070160008681526020019081526020016000206001015491506107f2600060060186600102610c08565b9050610829565b600093507f696e76616c696400000000000000000000000000000000000000000000000000925060009150600090505b9193509193565b600061083e60008001610cca565b905090565b600080600060080160008473ffffffffffffffffffffffffffffffffffffffff1673ffffffffffffffffffffffffffffffffffffffff1681526020019081526020016000205490506000600701600082815260200190815260200160002060020154915050919050565b60006108be60006006018484610d7b565b905092915050565b60006108d6600060060183610c08565b9050919050565b60006108ec6000800183610e72565b9050919050565b600061090460006006018484610f2c565b905092915050565b600061091b6000800183611023565b9050919050565b60008173__DoublyLinkedList______________________631240ff5a90916040518263ffffffff167c01000000000000000000000000000000000000000000000000000000000281526004018082815260200191505060206040518083038186803b15801561099157600080fd5b505af41580156109a5573d6000803e3d6000fd5b505050506040513d60208110156109bb57600080fd5b81019080805190602001909291905050509050919050565b60008173__DoublyLinkedList______________________633ae6974290916040518263ffffffff167c01000000000000000000000000000000000000000000000000000000000281526004018082815260200191505060206040518083038186803b158015610a4257600080fd5b505af4158015610a56573d6000803e3d6000fd5b505050506040513d6020811015610a6c57600080fd5b81019080805190602001909291905050509050919050565b60008273__DoublyLinkedList______________________63b0c29efb9091846040518363ffffffff167c01000000000000000000000000000000000000000000000000000000000281526004018083815260200182600019166000191681526020019250505060206040518083038186803b158015610b0357600080fd5b505af4158015610b17573d6000803e3d6000fd5b505050506040513d6020811015610b2d57600080fd5b8101908080519060200190929190505050905092915050565b60008273__DoublyLinkedList______________________63c501bf569091846040518363ffffffff167c01000000000000000000000000000000000000000000000000000000000281526004018083815260200182600019166000191681526020019250505060206040518083038186803b158015610bc557600080fd5b505af4158015610bd9573d6000803e3d6000fd5b505050506040513d6020811015610bef57600080fd5b8101908080519060200190929190505050905092915050565b60008273__DoublyLinkedList______________________6355a0a1bf9091846040518363ffffffff167c01000000000000000000000000000000000000000000000000000000000281526004018083815260200182600019166000191681526020019250505060206040518083038186803b158015610c8757600080fd5b505af4158015610c9b573d6000803e3d6000fd5b505050506040513d6020811015610cb157600080fd5b8101908080519060200190929190505050905092915050565b60008173__DoublyLinkedList______________________635e0d4aa990916040518263ffffffff167c01000000000000000000000000000000000000000000000000000000000281526004018082815260200191505060206040518083038186803b158015610d3957600080fd5b505af4158015610d4d573d6000803e3d6000fd5b505050506040513d6020811015610d6357600080fd5b81019080805190602001909291905050509050919050565b60008373__DoublyLinkedList______________________6320482030909185856040518463ffffffff167c01000000000000000000000000000000000000000000000000000000000281526004018084815260200183600019166000191681526020018273ffffffffffffffffffffffffffffffffffffffff1673ffffffffffffffffffffffffffffffffffffffff168152602001935050505060206040518083038186803b158015610e2e57600080fd5b505af4158015610e42573d6000803e3d6000fd5b505050506040513d6020811015610e5857600080fd5b810190808051906020019092919050505090509392505050565b60008273__DoublyLinkedList______________________6340c6bb189091846040518363ffffffff167c0100000000000000000000000000000000000000000000000000000000028152600401808381526020018281526020019250505060206040518083038186803b158015610ee957600080fd5b505af4158015610efd573d6000803e3d6000fd5b505050506040513d6020811015610f1357600080fd5b8101908080519060200190929190505050905092915050565b60008373__DoublyLinkedList______________________63675a4ef0909185856040518463ffffffff167c01000000000000000000000000000000000000000000000000000000000281526004018084815260200183600019166000191681526020018273ffffffffffffffffffffffffffffffffffffffff1673ffffffffffffffffffffffffffffffffffffffff168152602001935050505060206040518083038186803b158015610fdf57600080fd5b505af4158015610ff3573d6000803e3d6000fd5b505050506040513d602081101561100957600080fd5b810190808051906020019092919050505090509392505050565b60008273__DoublyLinkedList______________________63ec40b8979091846040518363ffffffff167c0100000000000000000000000000000000000000000000000000000000028152600401808381526020018281526020019250505060206040518083038186803b15801561109a57600080fd5b505af41580156110ae573d6000803e3d6000fd5b505050506040513d60208110156110c457600080fd5b81019080805190602001909291905050509050929150505600a165627a7a7230582094cc7eca2b5ffbf7508d3e176ad8db25efed60655160bc7c8f479fbf1d2031f30029",
  "source": "pragma solidity ^0.4.16;\n\nimport \"@digix/solidity-collections/contracts/abstract/IndexedAddressIteratorStorage.sol\";\nimport \"@digix/solidity-collections/contracts/abstract/UintIteratorStorage.sol\";\n\n/**\n@title Directory Storage contains information of a directory\n@author DigixGlobal\n*/\ncontract DirectoryStorage is IndexedAddressIteratorStorage, UintIteratorStorage {\n\n  using DoublyLinkedList for DoublyLinkedList.IndexedAddress;\n  using DoublyLinkedList for DoublyLinkedList.Uint;\n\n  struct User {\n    bytes32 document;\n    bool active;\n  }\n\n  struct Group {\n    bytes32 name;\n    bytes32 document;\n    uint256 role_id;\n    mapping(address => User) members_by_address;\n  }\n\n  struct System {\n    DoublyLinkedList.Uint groups;\n    DoublyLinkedList.IndexedAddress groups_collection;\n    mapping (uint256 => Group) groups_by_id;\n    mapping (address => uint256) group_ids_by_address;\n    mapping (uint256 => bytes32) roles_by_id;\n    bool initialized;\n    uint256 total_groups;\n  }\n\n  System system;\n\n  /**\n  @notice Initializes directory settings\n  @return _success If directory initialization is successful\n  */\n  function initialize_directory()\n           internal\n           returns (bool _success)\n  {\n    require(system.initialized == false);\n    system.total_groups = 0;\n    system.initialized = true;\n    internal_create_role(1, \"root\");\n    internal_create_group(1, \"root\", \"\");\n    _success = internal_update_add_user_to_group(1, tx.origin, \"\");\n  }\n\n  /**\n  @notice Creates a new role with the given information\n  @param _role_id Id of the new role\n  @param _name Name of the new role\n  @return {\"_success\": \"If creation of new role is successful\"}\n  */\n  function internal_create_role(uint256 _role_id, bytes32 _name)\n           internal\n           returns (bool _success)\n  {\n    require(_role_id > 0);\n    require(_name != bytes32(0x0));\n    system.roles_by_id[_role_id] = _name;\n    _success = true;\n  }\n\n  /**\n  @notice Returns the role's name of a role id\n  @param _role_id Id of the role\n  @return {\"_name\": \"Name of the role\"}\n  */\n  function read_role(uint256 _role_id)\n           public\n           constant\n           returns (bytes32 _name)\n  {\n    _name = system.roles_by_id[_role_id];\n  }\n\n  /**\n  @notice Creates a new group with the given information\n  @param _role_id Role id of the new group\n  @param _name Name of the new group\n  @param _document Document of the new group\n  @return {\n    \"_success\": \"If creation of the new group is successful\",\n    \"_group_id: \"Id of the new group\"\n  }\n  */\n  function internal_create_group(uint256 _role_id, bytes32 _name, bytes32 _document)\n           internal\n           returns (bool _success, uint256 _group_id)\n  {\n    require(_role_id > 0);\n    require(read_role(_role_id) != bytes32(0x0));\n    _group_id = ++system.total_groups;\n    system.groups.append(_group_id);\n    system.groups_by_id[_group_id].role_id = _role_id;\n    system.groups_by_id[_group_id].name = _name;\n    system.groups_by_id[_group_id].document = _document;\n    _success = true;\n  }\n\n  /**\n  @notice Returns the group's information\n  @param _group_id Id of the group\n  @return {\n    \"_role_id\": \"Role id of the group\",\n    \"_name: \"Name of the group\",\n    \"_document: \"Document of the group\"\n  }\n  */\n  function read_group(uint256 _group_id)\n           public\n           constant\n           returns (uint256 _role_id, bytes32 _name, bytes32 _document, uint256 _members_count)\n  {\n    if (system.groups.valid_item(_group_id)) {\n      _role_id = system.groups_by_id[_group_id].role_id;\n      _name = system.groups_by_id[_group_id].name;\n      _document = system.groups_by_id[_group_id].document;\n      _members_count = read_total_indexed_addresses(system.groups_collection, bytes32(_group_id));\n    } else {\n      _role_id = 0;\n      _name = \"invalid\";\n      _document = \"\";\n      _members_count = 0;\n    }\n  }\n\n  /**\n  @notice Adds new user with the given information to a group\n  @param _group_id Id of the group\n  @param _user Address of the new user\n  @param _document Information of the new user\n  @return {\"_success\": \"If adding new user to a group is successful\"}\n  */\n  function internal_update_add_user_to_group(uint256 _group_id, address _user, bytes32 _document)\n           internal\n           returns (bool _success)\n  {\n    if (system.groups_by_id[_group_id].members_by_address[_user].active == false && system.group_ids_by_address[_user] == 0 && system.groups_by_id[_group_id].role_id != 0) {\n\n      system.groups_by_id[_group_id].members_by_address[_user].active = true;\n      system.group_ids_by_address[_user] = _group_id;\n      system.groups_collection.append(bytes32(_group_id), _user);\n      system.groups_by_id[_group_id].members_by_address[_user].document = _document;\n      _success = true;\n    } else {\n      _success = false;\n    }\n  }\n\n  /**\n  @notice Removes user from its group\n  @param _user Address of the user\n  @return {\"_success\": \"If removing of user is successful\"}\n  */\n  function internal_destroy_group_user(address _user)\n           internal\n           returns (bool _success)\n  {\n    uint256 _group_id = system.group_ids_by_address[_user];\n    if ((_group_id == 1) && (system.groups_collection.total(bytes32(_group_id)) == 1)) {\n      _success = false;\n    } else {\n      system.groups_by_id[_group_id].members_by_address[_user].active = false;\n      system.group_ids_by_address[_user] = 0;\n      delete system.groups_by_id[_group_id].members_by_address[_user];\n      _success = system.groups_collection.remove_item(bytes32(_group_id), _user);\n    }\n  }\n\n  /**\n  @notice Returns the role id of a user\n  @param _user Address of a user\n  @return {\"_role_id\": \"Role id of the user\"}\n  */\n  function read_user_role_id(address _user)\n           constant\n           public\n           returns (uint256 _role_id)\n  {\n    uint256 _group_id = system.group_ids_by_address[_user];\n    _role_id = system.groups_by_id[_group_id].role_id;\n  }\n\n  /**\n  @notice Returns the user's information\n  @param _user Address of the user\n  @return {\n    \"_group_id\": \"Group id of the user\",\n    \"_role_id\": \"Role id of the user\",\n    \"_document\": \"Information of the user\"\n  }\n  */\n  function read_user(address _user)\n           public\n           constant\n           returns (uint256 _group_id, uint256 _role_id, bytes32 _document)\n  {\n    _group_id = system.group_ids_by_address[_user];\n    _role_id = system.groups_by_id[_group_id].role_id;\n    _document = system.groups_by_id[_group_id].members_by_address[_user].document;\n  }\n\n  /**\n  @notice Returns the id of the first group\n  @return {\"_group_id\": \"Id of the first group\"}\n  */\n  function read_first_group()\n           view\n           external\n           returns (uint256 _group_id)\n  {\n    _group_id = read_first_from_uints(system.groups);\n  }\n\n  /**\n  @notice Returns the id of the last group\n  @return {\"_group_id\": \"Id of the last group\"}\n  */\n  function read_last_group()\n           view\n           external\n           returns (uint256 _group_id)\n  {\n    _group_id = read_last_from_uints(system.groups);\n  }\n\n  /**\n  @notice Returns the id of the previous group depending on the given current group\n  @param _current_group_id Id of the current group\n  @return {\"_group_id\": \"Id of the previous group\"}\n  */\n  function read_previous_group_from_group(uint256 _current_group_id)\n           view\n           external\n           returns (uint256 _group_id)\n  {\n    _group_id = read_previous_from_uints(system.groups, _current_group_id);\n  }\n\n  /**\n  @notice Returns the id of the next group depending on the given current group\n  @param _current_group_id Id of the current group\n  @return {\"_group_id\": \"Id of the next group\"}\n  */\n  function read_next_group_from_group(uint256 _current_group_id)\n           view\n           external\n           returns (uint256 _group_id)\n  {\n    _group_id = read_next_from_uints(system.groups, _current_group_id);\n  }\n\n  /**\n  @notice Returns the total number of groups\n  @return {\"_total_groups\": \"Total number of groups\"}\n  */\n  function read_total_groups()\n           view\n           external\n           returns (uint256 _total_groups)\n  {\n    _total_groups = read_total_uints(system.groups);\n  }\n\n  /**\n  @notice Returns the first user of a group\n  @param _group_id Id of the group\n  @return {\"_user\": \"Address of the user\"}\n  */\n  function read_first_user_in_group(bytes32 _group_id)\n           view\n           external\n           returns (address _user)\n  {\n    _user = read_first_from_indexed_addresses(system.groups_collection, bytes32(_group_id));\n  }\n\n  /**\n  @notice Returns the last user of a group\n  @param _group_id Id of the group\n  @return {\"_user\": \"Address of the user\"}\n  */\n  function read_last_user_in_group(bytes32 _group_id)\n           view\n           external\n           returns (address _user)\n  {\n    _user = read_last_from_indexed_addresses(system.groups_collection, bytes32(_group_id));\n  }\n\n  /**\n  @notice Returns the next user of a group depending on the given current user\n  @param _group_id Id of the group\n  @param _current_user Address of the current user\n  @return {\"_user\": \"Address of the next user\"}\n  */\n  function read_next_user_in_group(bytes32 _group_id, address _current_user)\n           view\n           external\n           returns (address _user)\n  {\n    _user = read_next_from_indexed_addresses(system.groups_collection, bytes32(_group_id), _current_user);\n  }\n\n  /**\n  @notice Returns the previous user of a group depending on the given current user\n  @param _group_id Id of the group\n  @param _current_user Address of the current user\n  @return {\"_user\": \"Address of the last user\"}\n  */\n  function read_previous_user_in_group(bytes32 _group_id, address _current_user)\n           view\n           external\n           returns (address _user)\n  {\n    _user = read_previous_from_indexed_addresses(system.groups_collection, bytes32(_group_id), _current_user);\n  }\n\n  /**\n  @notice Returns the total number of users of a group\n  @param _group_id Id of the group\n  @return {\"_total_users\": \"Total number of users\"}\n  */\n  function read_total_users_in_group(bytes32 _group_id)\n           view\n           external\n           returns (uint256 _total_users)\n  {\n    _total_users = read_total_indexed_addresses(system.groups_collection, bytes32(_group_id));\n  }\n}\n",
  "sourcePath": "@digix/cdap/contracts/storage/DirectoryStorage.sol",
  "compiler": {
    "name": "solc",
    "version": "0.4.25+commit.59dbf8f1.Emscripten.clang"
  },
  "schemaVersion": "2.0.2",
  "updatedAt": "2019-03-18T07:32:20.050Z"
}