{
  "contractName": "DoublyLinkedList",
  "abi": [
    {
      "constant": true,
      "inputs": [
        {
          "name": "self",
          "type": "DoublyLinkedList.IndexedUint storage"
        },
        {
          "name": "_collection_index",
          "type": "bytes32"
        },
        {
          "name": "_item",
          "type": "uint256"
        }
      ],
      "name": "find",
      "outputs": [
        {
          "name": "_item_index",
          "type": "uint256"
        }
      ],
      "payable": false,
      "stateMutability": "view",
      "type": "function"
    },
    {
      "constant": true,
      "inputs": [
        {
          "name": "self",
          "type": "DoublyLinkedList.Address storage"
        },
        {
          "name": "_item",
          "type": "address"
        }
      ],
      "name": "find",
      "outputs": [
        {
          "name": "_item_index",
          "type": "uint256"
        }
      ],
      "payable": false,
      "stateMutability": "view",
      "type": "function"
    },
    {
      "constant": true,
      "inputs": [
        {
          "name": "self",
          "type": "DoublyLinkedList.Bytes storage"
        },
        {
          "name": "_item",
          "type": "bytes32"
        }
      ],
      "name": "find",
      "outputs": [
        {
          "name": "_item_index",
          "type": "uint256"
        }
      ],
      "payable": false,
      "stateMutability": "view",
      "type": "function"
    },
    {
      "constant": true,
      "inputs": [
        {
          "name": "self",
          "type": "DoublyLinkedList.Data storage"
        },
        {
          "name": "_item",
          "type": "bytes32"
        }
      ],
      "name": "find",
      "outputs": [
        {
          "name": "_item_index",
          "type": "uint256"
        }
      ],
      "payable": false,
      "stateMutability": "view",
      "type": "function"
    },
    {
      "constant": true,
      "inputs": [
        {
          "name": "self",
          "type": "DoublyLinkedList.Uint storage"
        },
        {
          "name": "_item",
          "type": "uint256"
        }
      ],
      "name": "find",
      "outputs": [
        {
          "name": "_item_index",
          "type": "uint256"
        }
      ],
      "payable": false,
      "stateMutability": "view",
      "type": "function"
    },
    {
      "constant": true,
      "inputs": [
        {
          "name": "self",
          "type": "DoublyLinkedList.Uint storage"
        },
        {
          "name": "_item_index",
          "type": "uint256"
        }
      ],
      "name": "get",
      "outputs": [
        {
          "name": "_item",
          "type": "uint256"
        }
      ],
      "payable": false,
      "stateMutability": "view",
      "type": "function"
    },
    {
      "constant": true,
      "inputs": [
        {
          "name": "self",
          "type": "DoublyLinkedList.Data storage"
        },
        {
          "name": "_item_index",
          "type": "uint256"
        }
      ],
      "name": "get",
      "outputs": [
        {
          "name": "_item",
          "type": "bytes32"
        }
      ],
      "payable": false,
      "stateMutability": "view",
      "type": "function"
    },
    {
      "constant": true,
      "inputs": [
        {
          "name": "self",
          "type": "DoublyLinkedList.Bytes storage"
        },
        {
          "name": "_item_index",
          "type": "uint256"
        }
      ],
      "name": "get",
      "outputs": [
        {
          "name": "_item",
          "type": "bytes32"
        }
      ],
      "payable": false,
      "stateMutability": "view",
      "type": "function"
    },
    {
      "constant": true,
      "inputs": [
        {
          "name": "self",
          "type": "DoublyLinkedList.IndexedUint storage"
        },
        {
          "name": "_collection_index",
          "type": "bytes32"
        },
        {
          "name": "_item_index",
          "type": "uint256"
        }
      ],
      "name": "get",
      "outputs": [
        {
          "name": "_item",
          "type": "uint256"
        }
      ],
      "payable": false,
      "stateMutability": "view",
      "type": "function"
    },
    {
      "constant": true,
      "inputs": [
        {
          "name": "self",
          "type": "DoublyLinkedList.Address storage"
        },
        {
          "name": "_item_index",
          "type": "uint256"
        }
      ],
      "name": "get",
      "outputs": [
        {
          "name": "_item",
          "type": "address"
        }
      ],
      "payable": false,
      "stateMutability": "view",
      "type": "function"
    },
    {
      "constant": false,
      "inputs": [
        {
          "name": "self",
          "type": "DoublyLinkedList.IndexedUint storage"
        },
        {
          "name": "_collection_index",
          "type": "bytes32"
        },
        {
          "name": "_data",
          "type": "uint256"
        }
      ],
      "name": "append",
      "outputs": [
        {
          "name": "_success",
          "type": "bool"
        }
      ],
      "payable": false,
      "stateMutability": "nonpayable",
      "type": "function"
    },
    {
      "constant": false,
      "inputs": [
        {
          "name": "self",
          "type": "DoublyLinkedList.IndexedAddress storage"
        },
        {
          "name": "_collection_index",
          "type": "bytes32"
        },
        {
          "name": "_data",
          "type": "address"
        }
      ],
      "name": "append",
      "outputs": [
        {
          "name": "_success",
          "type": "bool"
        }
      ],
      "payable": false,
      "stateMutability": "nonpayable",
      "type": "function"
    },
    {
      "constant": false,
      "inputs": [
        {
          "name": "self",
          "type": "DoublyLinkedList.IndexedBytes storage"
        },
        {
          "name": "_collection_index",
          "type": "bytes32"
        },
        {
          "name": "_data",
          "type": "bytes32"
        }
      ],
      "name": "append",
      "outputs": [
        {
          "name": "_success",
          "type": "bool"
        }
      ],
      "payable": false,
      "stateMutability": "nonpayable",
      "type": "function"
    },
    {
      "constant": false,
      "inputs": [
        {
          "name": "self",
          "type": "DoublyLinkedList.Uint storage"
        },
        {
          "name": "_data",
          "type": "uint256"
        }
      ],
      "name": "append",
      "outputs": [
        {
          "name": "_success",
          "type": "bool"
        }
      ],
      "payable": false,
      "stateMutability": "nonpayable",
      "type": "function"
    },
    {
      "constant": false,
      "inputs": [
        {
          "name": "self",
          "type": "DoublyLinkedList.Bytes storage"
        },
        {
          "name": "_data",
          "type": "bytes32"
        }
      ],
      "name": "append",
      "outputs": [
        {
          "name": "_success",
          "type": "bool"
        }
      ],
      "payable": false,
      "stateMutability": "nonpayable",
      "type": "function"
    },
    {
      "constant": false,
      "inputs": [
        {
          "name": "self",
          "type": "DoublyLinkedList.Address storage"
        },
        {
          "name": "_data",
          "type": "address"
        }
      ],
      "name": "append",
      "outputs": [
        {
          "name": "_success",
          "type": "bool"
        }
      ],
      "payable": false,
      "stateMutability": "nonpayable",
      "type": "function"
    },
    {
      "constant": false,
      "inputs": [
        {
          "name": "self",
          "type": "DoublyLinkedList.IndexedUint storage"
        },
        {
          "name": "_collection_index",
          "type": "bytes32"
        },
        {
          "name": "_item",
          "type": "uint256"
        }
      ],
      "name": "remove_item",
      "outputs": [
        {
          "name": "_success",
          "type": "bool"
        }
      ],
      "payable": false,
      "stateMutability": "nonpayable",
      "type": "function"
    },
    {
      "constant": false,
      "inputs": [
        {
          "name": "self",
          "type": "DoublyLinkedList.Bytes storage"
        },
        {
          "name": "_item",
          "type": "bytes32"
        }
      ],
      "name": "remove_item",
      "outputs": [
        {
          "name": "_success",
          "type": "bool"
        }
      ],
      "payable": false,
      "stateMutability": "nonpayable",
      "type": "function"
    },
    {
      "constant": false,
      "inputs": [
        {
          "name": "self",
          "type": "DoublyLinkedList.IndexedBytes storage"
        },
        {
          "name": "_collection_index",
          "type": "bytes32"
        },
        {
          "name": "_item",
          "type": "bytes32"
        }
      ],
      "name": "remove_item",
      "outputs": [
        {
          "name": "_success",
          "type": "bool"
        }
      ],
      "payable": false,
      "stateMutability": "nonpayable",
      "type": "function"
    },
    {
      "constant": false,
      "inputs": [
        {
          "name": "self",
          "type": "DoublyLinkedList.IndexedAddress storage"
        },
        {
          "name": "_collection_index",
          "type": "bytes32"
        },
        {
          "name": "_item",
          "type": "address"
        }
      ],
      "name": "remove_item",
      "outputs": [
        {
          "name": "_success",
          "type": "bool"
        }
      ],
      "payable": false,
      "stateMutability": "nonpayable",
      "type": "function"
    },
    {
      "constant": false,
      "inputs": [
        {
          "name": "self",
          "type": "DoublyLinkedList.Uint storage"
        },
        {
          "name": "_item",
          "type": "uint256"
        }
      ],
      "name": "remove_item",
      "outputs": [
        {
          "name": "_success",
          "type": "bool"
        }
      ],
      "payable": false,
      "stateMutability": "nonpayable",
      "type": "function"
    },
    {
      "constant": false,
      "inputs": [
        {
          "name": "self",
          "type": "DoublyLinkedList.Address storage"
        },
        {
          "name": "_item",
          "type": "address"
        }
      ],
      "name": "remove_item",
      "outputs": [
        {
          "name": "_success",
          "type": "bool"
        }
      ],
      "payable": false,
      "stateMutability": "nonpayable",
      "type": "function"
    },
    {
      "constant": true,
      "inputs": [
        {
          "name": "self",
          "type": "DoublyLinkedList.Bytes storage"
        }
      ],
      "name": "total",
      "outputs": [
        {
          "name": "_total_count",
          "type": "uint256"
        }
      ],
      "payable": false,
      "stateMutability": "view",
      "type": "function"
    },
    {
      "constant": true,
      "inputs": [
        {
          "name": "self",
          "type": "DoublyLinkedList.IndexedBytes storage"
        },
        {
          "name": "_collection_index",
          "type": "bytes32"
        }
      ],
      "name": "total",
      "outputs": [
        {
          "name": "_total_count",
          "type": "uint256"
        }
      ],
      "payable": false,
      "stateMutability": "view",
      "type": "function"
    },
    {
      "constant": true,
      "inputs": [
        {
          "name": "self",
          "type": "DoublyLinkedList.Data storage"
        }
      ],
      "name": "total",
      "outputs": [
        {
          "name": "_total_count",
          "type": "uint256"
        }
      ],
      "payable": false,
      "stateMutability": "view",
      "type": "function"
    },
    {
      "constant": true,
      "inputs": [
        {
          "name": "self",
          "type": "DoublyLinkedList.IndexedAddress storage"
        },
        {
          "name": "_collection_index",
          "type": "bytes32"
        }
      ],
      "name": "total",
      "outputs": [
        {
          "name": "_total_count",
          "type": "uint256"
        }
      ],
      "payable": false,
      "stateMutability": "view",
      "type": "function"
    },
    {
      "constant": true,
      "inputs": [
        {
          "name": "self",
          "type": "DoublyLinkedList.IndexedUint storage"
        },
        {
          "name": "_collection_index",
          "type": "bytes32"
        }
      ],
      "name": "total",
      "outputs": [
        {
          "name": "_total_count",
          "type": "uint256"
        }
      ],
      "payable": false,
      "stateMutability": "view",
      "type": "function"
    },
    {
      "constant": true,
      "inputs": [
        {
          "name": "self",
          "type": "DoublyLinkedList.Address storage"
        }
      ],
      "name": "total",
      "outputs": [
        {
          "name": "_total_count",
          "type": "uint256"
        }
      ],
      "payable": false,
      "stateMutability": "view",
      "type": "function"
    },
    {
      "constant": true,
      "inputs": [
        {
          "name": "self",
          "type": "DoublyLinkedList.Uint storage"
        }
      ],
      "name": "total",
      "outputs": [
        {
          "name": "_total_count",
          "type": "uint256"
        }
      ],
      "payable": false,
      "stateMutability": "view",
      "type": "function"
    },
    {
      "constant": true,
      "inputs": [
        {
          "name": "self",
          "type": "DoublyLinkedList.IndexedBytes storage"
        },
        {
          "name": "_collection_index",
          "type": "bytes32"
        }
      ],
      "name": "start",
      "outputs": [
        {
          "name": "_index",
          "type": "uint256"
        }
      ],
      "payable": false,
      "stateMutability": "view",
      "type": "function"
    },
    {
      "constant": true,
      "inputs": [
        {
          "name": "self",
          "type": "DoublyLinkedList.IndexedAddress storage"
        },
        {
          "name": "_collection_index",
          "type": "bytes32"
        }
      ],
      "name": "start",
      "outputs": [
        {
          "name": "_index",
          "type": "uint256"
        }
      ],
      "payable": false,
      "stateMutability": "view",
      "type": "function"
    },
    {
      "constant": true,
      "inputs": [
        {
          "name": "self",
          "type": "DoublyLinkedList.Bytes storage"
        }
      ],
      "name": "start",
      "outputs": [
        {
          "name": "_index",
          "type": "uint256"
        }
      ],
      "payable": false,
      "stateMutability": "view",
      "type": "function"
    },
    {
      "constant": true,
      "inputs": [
        {
          "name": "self",
          "type": "DoublyLinkedList.Address storage"
        }
      ],
      "name": "start",
      "outputs": [
        {
          "name": "_index",
          "type": "uint256"
        }
      ],
      "payable": false,
      "stateMutability": "view",
      "type": "function"
    },
    {
      "constant": true,
      "inputs": [
        {
          "name": "self",
          "type": "DoublyLinkedList.Data storage"
        }
      ],
      "name": "start",
      "outputs": [
        {
          "name": "_item_index",
          "type": "uint256"
        }
      ],
      "payable": false,
      "stateMutability": "view",
      "type": "function"
    },
    {
      "constant": true,
      "inputs": [
        {
          "name": "self",
          "type": "DoublyLinkedList.Uint storage"
        }
      ],
      "name": "start",
      "outputs": [
        {
          "name": "_index",
          "type": "uint256"
        }
      ],
      "payable": false,
      "stateMutability": "view",
      "type": "function"
    },
    {
      "constant": true,
      "inputs": [
        {
          "name": "self",
          "type": "DoublyLinkedList.IndexedUint storage"
        },
        {
          "name": "_collection_index",
          "type": "bytes32"
        }
      ],
      "name": "start",
      "outputs": [
        {
          "name": "_index",
          "type": "uint256"
        }
      ],
      "payable": false,
      "stateMutability": "view",
      "type": "function"
    },
    {
      "constant": true,
      "inputs": [
        {
          "name": "self",
          "type": "DoublyLinkedList.Bytes storage"
        }
      ],
      "name": "start_item",
      "outputs": [
        {
          "name": "_start_item",
          "type": "bytes32"
        }
      ],
      "payable": false,
      "stateMutability": "view",
      "type": "function"
    },
    {
      "constant": true,
      "inputs": [
        {
          "name": "self",
          "type": "DoublyLinkedList.IndexedBytes storage"
        },
        {
          "name": "_collection_index",
          "type": "bytes32"
        }
      ],
      "name": "start_item",
      "outputs": [
        {
          "name": "_start_item",
          "type": "bytes32"
        }
      ],
      "payable": false,
      "stateMutability": "view",
      "type": "function"
    },
    {
      "constant": true,
      "inputs": [
        {
          "name": "self",
          "type": "DoublyLinkedList.Address storage"
        }
      ],
      "name": "start_item",
      "outputs": [
        {
          "name": "_start_item",
          "type": "address"
        }
      ],
      "payable": false,
      "stateMutability": "view",
      "type": "function"
    },
    {
      "constant": true,
      "inputs": [
        {
          "name": "self",
          "type": "DoublyLinkedList.IndexedUint storage"
        },
        {
          "name": "_collection_index",
          "type": "bytes32"
        }
      ],
      "name": "start_item",
      "outputs": [
        {
          "name": "_start_item",
          "type": "uint256"
        }
      ],
      "payable": false,
      "stateMutability": "view",
      "type": "function"
    },
    {
      "constant": true,
      "inputs": [
        {
          "name": "self",
          "type": "DoublyLinkedList.Uint storage"
        }
      ],
      "name": "start_item",
      "outputs": [
        {
          "name": "_start_item",
          "type": "uint256"
        }
      ],
      "payable": false,
      "stateMutability": "view",
      "type": "function"
    },
    {
      "constant": true,
      "inputs": [
        {
          "name": "self",
          "type": "DoublyLinkedList.Data storage"
        }
      ],
      "name": "start_item",
      "outputs": [
        {
          "name": "_item",
          "type": "bytes32"
        }
      ],
      "payable": false,
      "stateMutability": "view",
      "type": "function"
    },
    {
      "constant": true,
      "inputs": [
        {
          "name": "self",
          "type": "DoublyLinkedList.IndexedAddress storage"
        },
        {
          "name": "_collection_index",
          "type": "bytes32"
        }
      ],
      "name": "start_item",
      "outputs": [
        {
          "name": "_start_item",
          "type": "address"
        }
      ],
      "payable": false,
      "stateMutability": "view",
      "type": "function"
    },
    {
      "constant": true,
      "inputs": [
        {
          "name": "self",
          "type": "DoublyLinkedList.IndexedBytes storage"
        },
        {
          "name": "_collection_index",
          "type": "bytes32"
        }
      ],
      "name": "end",
      "outputs": [
        {
          "name": "_index",
          "type": "uint256"
        }
      ],
      "payable": false,
      "stateMutability": "view",
      "type": "function"
    },
    {
      "constant": true,
      "inputs": [
        {
          "name": "self",
          "type": "DoublyLinkedList.Uint storage"
        }
      ],
      "name": "end",
      "outputs": [
        {
          "name": "_index",
          "type": "uint256"
        }
      ],
      "payable": false,
      "stateMutability": "view",
      "type": "function"
    },
    {
      "constant": true,
      "inputs": [
        {
          "name": "self",
          "type": "DoublyLinkedList.Bytes storage"
        }
      ],
      "name": "end",
      "outputs": [
        {
          "name": "_index",
          "type": "uint256"
        }
      ],
      "payable": false,
      "stateMutability": "view",
      "type": "function"
    },
    {
      "constant": true,
      "inputs": [
        {
          "name": "self",
          "type": "DoublyLinkedList.IndexedAddress storage"
        },
        {
          "name": "_collection_index",
          "type": "bytes32"
        }
      ],
      "name": "end",
      "outputs": [
        {
          "name": "_index",
          "type": "uint256"
        }
      ],
      "payable": false,
      "stateMutability": "view",
      "type": "function"
    },
    {
      "constant": true,
      "inputs": [
        {
          "name": "self",
          "type": "DoublyLinkedList.Data storage"
        }
      ],
      "name": "end",
      "outputs": [
        {
          "name": "_item_index",
          "type": "uint256"
        }
      ],
      "payable": false,
      "stateMutability": "view",
      "type": "function"
    },
    {
      "constant": true,
      "inputs": [
        {
          "name": "self",
          "type": "DoublyLinkedList.IndexedUint storage"
        },
        {
          "name": "_collection_index",
          "type": "bytes32"
        }
      ],
      "name": "end",
      "outputs": [
        {
          "name": "_index",
          "type": "uint256"
        }
      ],
      "payable": false,
      "stateMutability": "view",
      "type": "function"
    },
    {
      "constant": true,
      "inputs": [
        {
          "name": "self",
          "type": "DoublyLinkedList.Address storage"
        }
      ],
      "name": "end",
      "outputs": [
        {
          "name": "_index",
          "type": "uint256"
        }
      ],
      "payable": false,
      "stateMutability": "view",
      "type": "function"
    },
    {
      "constant": true,
      "inputs": [
        {
          "name": "self",
          "type": "DoublyLinkedList.Uint storage"
        }
      ],
      "name": "end_item",
      "outputs": [
        {
          "name": "_end_item",
          "type": "uint256"
        }
      ],
      "payable": false,
      "stateMutability": "view",
      "type": "function"
    },
    {
      "constant": true,
      "inputs": [
        {
          "name": "self",
          "type": "DoublyLinkedList.Data storage"
        }
      ],
      "name": "end_item",
      "outputs": [
        {
          "name": "_item",
          "type": "bytes32"
        }
      ],
      "payable": false,
      "stateMutability": "view",
      "type": "function"
    },
    {
      "constant": true,
      "inputs": [
        {
          "name": "self",
          "type": "DoublyLinkedList.IndexedUint storage"
        },
        {
          "name": "_collection_index",
          "type": "bytes32"
        }
      ],
      "name": "end_item",
      "outputs": [
        {
          "name": "_end_item",
          "type": "uint256"
        }
      ],
      "payable": false,
      "stateMutability": "view",
      "type": "function"
    },
    {
      "constant": true,
      "inputs": [
        {
          "name": "self",
          "type": "DoublyLinkedList.Bytes storage"
        }
      ],
      "name": "end_item",
      "outputs": [
        {
          "name": "_end_item",
          "type": "bytes32"
        }
      ],
      "payable": false,
      "stateMutability": "view",
      "type": "function"
    },
    {
      "constant": true,
      "inputs": [
        {
          "name": "self",
          "type": "DoublyLinkedList.Address storage"
        }
      ],
      "name": "end_item",
      "outputs": [
        {
          "name": "_end_item",
          "type": "address"
        }
      ],
      "payable": false,
      "stateMutability": "view",
      "type": "function"
    },
    {
      "constant": true,
      "inputs": [
        {
          "name": "self",
          "type": "DoublyLinkedList.IndexedAddress storage"
        },
        {
          "name": "_collection_index",
          "type": "bytes32"
        }
      ],
      "name": "end_item",
      "outputs": [
        {
          "name": "_end_item",
          "type": "address"
        }
      ],
      "payable": false,
      "stateMutability": "view",
      "type": "function"
    },
    {
      "constant": true,
      "inputs": [
        {
          "name": "self",
          "type": "DoublyLinkedList.IndexedBytes storage"
        },
        {
          "name": "_collection_index",
          "type": "bytes32"
        }
      ],
      "name": "end_item",
      "outputs": [
        {
          "name": "_end_item",
          "type": "bytes32"
        }
      ],
      "payable": false,
      "stateMutability": "view",
      "type": "function"
    },
    {
      "constant": true,
      "inputs": [
        {
          "name": "self",
          "type": "DoublyLinkedList.IndexedUint storage"
        },
        {
          "name": "_collection_index",
          "type": "bytes32"
        },
        {
          "name": "_item_index",
          "type": "uint256"
        }
      ],
      "name": "valid",
      "outputs": [
        {
          "name": "_yes",
          "type": "bool"
        }
      ],
      "payable": false,
      "stateMutability": "view",
      "type": "function"
    },
    {
      "constant": true,
      "inputs": [
        {
          "name": "self",
          "type": "DoublyLinkedList.Data storage"
        },
        {
          "name": "_item_index",
          "type": "uint256"
        }
      ],
      "name": "valid",
      "outputs": [
        {
          "name": "_yes",
          "type": "bool"
        }
      ],
      "payable": false,
      "stateMutability": "view",
      "type": "function"
    },
    {
      "constant": true,
      "inputs": [
        {
          "name": "self",
          "type": "DoublyLinkedList.Uint storage"
        },
        {
          "name": "_item_index",
          "type": "uint256"
        }
      ],
      "name": "valid",
      "outputs": [
        {
          "name": "_yes",
          "type": "bool"
        }
      ],
      "payable": false,
      "stateMutability": "view",
      "type": "function"
    },
    {
      "constant": true,
      "inputs": [
        {
          "name": "self",
          "type": "DoublyLinkedList.Bytes storage"
        },
        {
          "name": "_item_index",
          "type": "uint256"
        }
      ],
      "name": "valid",
      "outputs": [
        {
          "name": "_yes",
          "type": "bool"
        }
      ],
      "payable": false,
      "stateMutability": "view",
      "type": "function"
    },
    {
      "constant": true,
      "inputs": [
        {
          "name": "self",
          "type": "DoublyLinkedList.IndexedAddress storage"
        },
        {
          "name": "_collection_index",
          "type": "bytes32"
        },
        {
          "name": "_item_index",
          "type": "uint256"
        }
      ],
      "name": "valid",
      "outputs": [
        {
          "name": "_yes",
          "type": "bool"
        }
      ],
      "payable": false,
      "stateMutability": "view",
      "type": "function"
    },
    {
      "constant": true,
      "inputs": [
        {
          "name": "self",
          "type": "DoublyLinkedList.Address storage"
        },
        {
          "name": "_item_index",
          "type": "uint256"
        }
      ],
      "name": "valid",
      "outputs": [
        {
          "name": "_yes",
          "type": "bool"
        }
      ],
      "payable": false,
      "stateMutability": "view",
      "type": "function"
    },
    {
      "constant": true,
      "inputs": [
        {
          "name": "self",
          "type": "DoublyLinkedList.IndexedBytes storage"
        },
        {
          "name": "_collection_index",
          "type": "bytes32"
        },
        {
          "name": "_item_index",
          "type": "uint256"
        }
      ],
      "name": "valid",
      "outputs": [
        {
          "name": "_yes",
          "type": "bool"
        }
      ],
      "payable": false,
      "stateMutability": "view",
      "type": "function"
    },
    {
      "constant": true,
      "inputs": [
        {
          "name": "self",
          "type": "DoublyLinkedList.Data storage"
        },
        {
          "name": "_item",
          "type": "bytes32"
        }
      ],
      "name": "valid_item",
      "outputs": [
        {
          "name": "_yes",
          "type": "bool"
        }
      ],
      "payable": false,
      "stateMutability": "view",
      "type": "function"
    },
    {
      "constant": true,
      "inputs": [
        {
          "name": "self",
          "type": "DoublyLinkedList.IndexedUint storage"
        },
        {
          "name": "_collection_index",
          "type": "bytes32"
        },
        {
          "name": "_item",
          "type": "uint256"
        }
      ],
      "name": "valid_item",
      "outputs": [
        {
          "name": "_yes",
          "type": "bool"
        }
      ],
      "payable": false,
      "stateMutability": "view",
      "type": "function"
    },
    {
      "constant": true,
      "inputs": [
        {
          "name": "self",
          "type": "DoublyLinkedList.Uint storage"
        },
        {
          "name": "_item",
          "type": "uint256"
        }
      ],
      "name": "valid_item",
      "outputs": [
        {
          "name": "_yes",
          "type": "bool"
        }
      ],
      "payable": false,
      "stateMutability": "view",
      "type": "function"
    },
    {
      "constant": true,
      "inputs": [
        {
          "name": "self",
          "type": "DoublyLinkedList.IndexedBytes storage"
        },
        {
          "name": "_collection_index",
          "type": "bytes32"
        },
        {
          "name": "_item",
          "type": "bytes32"
        }
      ],
      "name": "valid_item",
      "outputs": [
        {
          "name": "_yes",
          "type": "bool"
        }
      ],
      "payable": false,
      "stateMutability": "view",
      "type": "function"
    },
    {
      "constant": true,
      "inputs": [
        {
          "name": "self",
          "type": "DoublyLinkedList.Bytes storage"
        },
        {
          "name": "_item",
          "type": "bytes32"
        }
      ],
      "name": "valid_item",
      "outputs": [
        {
          "name": "_yes",
          "type": "bool"
        }
      ],
      "payable": false,
      "stateMutability": "view",
      "type": "function"
    },
    {
      "constant": true,
      "inputs": [
        {
          "name": "self",
          "type": "DoublyLinkedList.IndexedAddress storage"
        },
        {
          "name": "_collection_index",
          "type": "bytes32"
        },
        {
          "name": "_item",
          "type": "address"
        }
      ],
      "name": "valid_item",
      "outputs": [
        {
          "name": "_yes",
          "type": "bool"
        }
      ],
      "payable": false,
      "stateMutability": "view",
      "type": "function"
    },
    {
      "constant": true,
      "inputs": [
        {
          "name": "self",
          "type": "DoublyLinkedList.Address storage"
        },
        {
          "name": "_item",
          "type": "address"
        }
      ],
      "name": "valid_item",
      "outputs": [
        {
          "name": "_yes",
          "type": "bool"
        }
      ],
      "payable": false,
      "stateMutability": "view",
      "type": "function"
    },
    {
      "constant": true,
      "inputs": [
        {
          "name": "self",
          "type": "DoublyLinkedList.Bytes storage"
        },
        {
          "name": "_current_index",
          "type": "uint256"
        }
      ],
      "name": "previous",
      "outputs": [
        {
          "name": "_previous_index",
          "type": "uint256"
        }
      ],
      "payable": false,
      "stateMutability": "view",
      "type": "function"
    },
    {
      "constant": true,
      "inputs": [
        {
          "name": "self",
          "type": "DoublyLinkedList.Uint storage"
        },
        {
          "name": "_current_index",
          "type": "uint256"
        }
      ],
      "name": "previous",
      "outputs": [
        {
          "name": "_previous_index",
          "type": "uint256"
        }
      ],
      "payable": false,
      "stateMutability": "view",
      "type": "function"
    },
    {
      "constant": true,
      "inputs": [
        {
          "name": "self",
          "type": "DoublyLinkedList.IndexedBytes storage"
        },
        {
          "name": "_collection_index",
          "type": "bytes32"
        },
        {
          "name": "_current_index",
          "type": "uint256"
        }
      ],
      "name": "previous",
      "outputs": [
        {
          "name": "_previous_index",
          "type": "uint256"
        }
      ],
      "payable": false,
      "stateMutability": "view",
      "type": "function"
    },
    {
      "constant": true,
      "inputs": [
        {
          "name": "self",
          "type": "DoublyLinkedList.IndexedUint storage"
        },
        {
          "name": "_collection_index",
          "type": "bytes32"
        },
        {
          "name": "_current_index",
          "type": "uint256"
        }
      ],
      "name": "previous",
      "outputs": [
        {
          "name": "_previous_index",
          "type": "uint256"
        }
      ],
      "payable": false,
      "stateMutability": "view",
      "type": "function"
    },
    {
      "constant": true,
      "inputs": [
        {
          "name": "self",
          "type": "DoublyLinkedList.IndexedAddress storage"
        },
        {
          "name": "_collection_index",
          "type": "bytes32"
        },
        {
          "name": "_current_index",
          "type": "uint256"
        }
      ],
      "name": "previous",
      "outputs": [
        {
          "name": "_previous_index",
          "type": "uint256"
        }
      ],
      "payable": false,
      "stateMutability": "view",
      "type": "function"
    },
    {
      "constant": true,
      "inputs": [
        {
          "name": "self",
          "type": "DoublyLinkedList.Data storage"
        },
        {
          "name": "_current_index",
          "type": "uint256"
        }
      ],
      "name": "previous",
      "outputs": [
        {
          "name": "_previous_index",
          "type": "uint256"
        }
      ],
      "payable": false,
      "stateMutability": "view",
      "type": "function"
    },
    {
      "constant": true,
      "inputs": [
        {
          "name": "self",
          "type": "DoublyLinkedList.Address storage"
        },
        {
          "name": "_current_index",
          "type": "uint256"
        }
      ],
      "name": "previous",
      "outputs": [
        {
          "name": "_previous_index",
          "type": "uint256"
        }
      ],
      "payable": false,
      "stateMutability": "view",
      "type": "function"
    },
    {
      "constant": true,
      "inputs": [
        {
          "name": "self",
          "type": "DoublyLinkedList.IndexedAddress storage"
        },
        {
          "name": "_collection_index",
          "type": "bytes32"
        },
        {
          "name": "_current_item",
          "type": "address"
        }
      ],
      "name": "previous_item",
      "outputs": [
        {
          "name": "_previous_item",
          "type": "address"
        }
      ],
      "payable": false,
      "stateMutability": "view",
      "type": "function"
    },
    {
      "constant": true,
      "inputs": [
        {
          "name": "self",
          "type": "DoublyLinkedList.IndexedUint storage"
        },
        {
          "name": "_collection_index",
          "type": "bytes32"
        },
        {
          "name": "_current_item",
          "type": "uint256"
        }
      ],
      "name": "previous_item",
      "outputs": [
        {
          "name": "_previous_item",
          "type": "uint256"
        }
      ],
      "payable": false,
      "stateMutability": "view",
      "type": "function"
    },
    {
      "constant": true,
      "inputs": [
        {
          "name": "self",
          "type": "DoublyLinkedList.Uint storage"
        },
        {
          "name": "_current_item",
          "type": "uint256"
        }
      ],
      "name": "previous_item",
      "outputs": [
        {
          "name": "_previous_item",
          "type": "uint256"
        }
      ],
      "payable": false,
      "stateMutability": "view",
      "type": "function"
    },
    {
      "constant": true,
      "inputs": [
        {
          "name": "self",
          "type": "DoublyLinkedList.Data storage"
        },
        {
          "name": "_current_item",
          "type": "bytes32"
        }
      ],
      "name": "previous_item",
      "outputs": [
        {
          "name": "_previous_item",
          "type": "bytes32"
        }
      ],
      "payable": false,
      "stateMutability": "view",
      "type": "function"
    },
    {
      "constant": true,
      "inputs": [
        {
          "name": "self",
          "type": "DoublyLinkedList.IndexedBytes storage"
        },
        {
          "name": "_collection_index",
          "type": "bytes32"
        },
        {
          "name": "_current_item",
          "type": "bytes32"
        }
      ],
      "name": "previous_item",
      "outputs": [
        {
          "name": "_previous_item",
          "type": "bytes32"
        }
      ],
      "payable": false,
      "stateMutability": "view",
      "type": "function"
    },
    {
      "constant": true,
      "inputs": [
        {
          "name": "self",
          "type": "DoublyLinkedList.Bytes storage"
        },
        {
          "name": "_current_item",
          "type": "bytes32"
        }
      ],
      "name": "previous_item",
      "outputs": [
        {
          "name": "_previous_item",
          "type": "bytes32"
        }
      ],
      "payable": false,
      "stateMutability": "view",
      "type": "function"
    },
    {
      "constant": true,
      "inputs": [
        {
          "name": "self",
          "type": "DoublyLinkedList.Address storage"
        },
        {
          "name": "_current_item",
          "type": "address"
        }
      ],
      "name": "previous_item",
      "outputs": [
        {
          "name": "_previous_item",
          "type": "address"
        }
      ],
      "payable": false,
      "stateMutability": "view",
      "type": "function"
    },
    {
      "constant": true,
      "inputs": [
        {
          "name": "self",
          "type": "DoublyLinkedList.IndexedBytes storage"
        },
        {
          "name": "_collection_index",
          "type": "bytes32"
        },
        {
          "name": "_current_index",
          "type": "uint256"
        }
      ],
      "name": "next",
      "outputs": [
        {
          "name": "_next_index",
          "type": "uint256"
        }
      ],
      "payable": false,
      "stateMutability": "view",
      "type": "function"
    },
    {
      "constant": true,
      "inputs": [
        {
          "name": "self",
          "type": "DoublyLinkedList.Uint storage"
        },
        {
          "name": "_current_index",
          "type": "uint256"
        }
      ],
      "name": "next",
      "outputs": [
        {
          "name": "_next_index",
          "type": "uint256"
        }
      ],
      "payable": false,
      "stateMutability": "view",
      "type": "function"
    },
    {
      "constant": true,
      "inputs": [
        {
          "name": "self",
          "type": "DoublyLinkedList.Data storage"
        },
        {
          "name": "_current_index",
          "type": "uint256"
        }
      ],
      "name": "next",
      "outputs": [
        {
          "name": "_next_index",
          "type": "uint256"
        }
      ],
      "payable": false,
      "stateMutability": "view",
      "type": "function"
    },
    {
      "constant": true,
      "inputs": [
        {
          "name": "self",
          "type": "DoublyLinkedList.IndexedUint storage"
        },
        {
          "name": "_collection_index",
          "type": "bytes32"
        },
        {
          "name": "_current_index",
          "type": "uint256"
        }
      ],
      "name": "next",
      "outputs": [
        {
          "name": "_next_index",
          "type": "uint256"
        }
      ],
      "payable": false,
      "stateMutability": "view",
      "type": "function"
    },
    {
      "constant": true,
      "inputs": [
        {
          "name": "self",
          "type": "DoublyLinkedList.Address storage"
        },
        {
          "name": "_current_index",
          "type": "uint256"
        }
      ],
      "name": "next",
      "outputs": [
        {
          "name": "_next_index",
          "type": "uint256"
        }
      ],
      "payable": false,
      "stateMutability": "view",
      "type": "function"
    },
    {
      "constant": true,
      "inputs": [
        {
          "name": "self",
          "type": "DoublyLinkedList.Bytes storage"
        },
        {
          "name": "_current_index",
          "type": "uint256"
        }
      ],
      "name": "next",
      "outputs": [
        {
          "name": "_next_index",
          "type": "uint256"
        }
      ],
      "payable": false,
      "stateMutability": "view",
      "type": "function"
    },
    {
      "constant": true,
      "inputs": [
        {
          "name": "self",
          "type": "DoublyLinkedList.IndexedAddress storage"
        },
        {
          "name": "_collection_index",
          "type": "bytes32"
        },
        {
          "name": "_current_index",
          "type": "uint256"
        }
      ],
      "name": "next",
      "outputs": [
        {
          "name": "_next_index",
          "type": "uint256"
        }
      ],
      "payable": false,
      "stateMutability": "view",
      "type": "function"
    },
    {
      "constant": true,
      "inputs": [
        {
          "name": "self",
          "type": "DoublyLinkedList.Uint storage"
        },
        {
          "name": "_current_item",
          "type": "uint256"
        }
      ],
      "name": "next_item",
      "outputs": [
        {
          "name": "_next_item",
          "type": "uint256"
        }
      ],
      "payable": false,
      "stateMutability": "view",
      "type": "function"
    },
    {
      "constant": true,
      "inputs": [
        {
          "name": "self",
          "type": "DoublyLinkedList.IndexedBytes storage"
        },
        {
          "name": "_collection_index",
          "type": "bytes32"
        },
        {
          "name": "_current_item",
          "type": "bytes32"
        }
      ],
      "name": "next_item",
      "outputs": [
        {
          "name": "_next_item",
          "type": "bytes32"
        }
      ],
      "payable": false,
      "stateMutability": "view",
      "type": "function"
    },
    {
      "constant": true,
      "inputs": [
        {
          "name": "self",
          "type": "DoublyLinkedList.IndexedUint storage"
        },
        {
          "name": "_collection_index",
          "type": "bytes32"
        },
        {
          "name": "_current_item",
          "type": "uint256"
        }
      ],
      "name": "next_item",
      "outputs": [
        {
          "name": "_next_item",
          "type": "uint256"
        }
      ],
      "payable": false,
      "stateMutability": "view",
      "type": "function"
    },
    {
      "constant": true,
      "inputs": [
        {
          "name": "self",
          "type": "DoublyLinkedList.Address storage"
        },
        {
          "name": "_current_item",
          "type": "address"
        }
      ],
      "name": "next_item",
      "outputs": [
        {
          "name": "_next_item",
          "type": "address"
        }
      ],
      "payable": false,
      "stateMutability": "view",
      "type": "function"
    },
    {
      "constant": true,
      "inputs": [
        {
          "name": "self",
          "type": "DoublyLinkedList.IndexedAddress storage"
        },
        {
          "name": "_collection_index",
          "type": "bytes32"
        },
        {
          "name": "_current_item",
          "type": "address"
        }
      ],
      "name": "next_item",
      "outputs": [
        {
          "name": "_next_item",
          "type": "address"
        }
      ],
      "payable": false,
      "stateMutability": "view",
      "type": "function"
    },
    {
      "constant": true,
      "inputs": [
        {
          "name": "self",
          "type": "DoublyLinkedList.Data storage"
        },
        {
          "name": "_current_item",
          "type": "bytes32"
        }
      ],
      "name": "next_item",
      "outputs": [
        {
          "name": "_next_item",
          "type": "bytes32"
        }
      ],
      "payable": false,
      "stateMutability": "view",
      "type": "function"
    },
    {
      "constant": true,
      "inputs": [
        {
          "name": "self",
          "type": "DoublyLinkedList.Bytes storage"
        },
        {
          "name": "_current_item",
          "type": "bytes32"
        }
      ],
      "name": "next_item",
      "outputs": [
        {
          "name": "_next_item",
          "type": "bytes32"
        }
      ],
      "payable": false,
      "stateMutability": "view",
      "type": "function"
    }
  ],
  "bytecode": "0x61363d610030600b82828239805160001a6073146000811461002057610022565bfe5b5030600052607381538281f300730000000000000000000000000000000000000000301460806040526004361061048e576000357c0100000000000000000000000000000000000000000000000000000000900463ffffffff1680630ad2f1e4146104935780630cf65c5d146104d55780630f7795521461051757806311ef1f681461054b5780631240ff5a1461058d57806312e3853d146105c1578063141f30d1146105f557806315e8f3351461063f578063165a1b3e1461067d57806320482030146106cc57806322fddb161461075a578063255314821461078e5780632788c74d146107ca5780632a144178146108085780632dfabf0d14610852578063303f71461461088e57806334646f45146108cc57806337b306331461091c5780633ae697421461095e5780633b6650fe1461099257806340c6bb18146109d45780634444b47114610a1257806344b132fb14610a6257806345a103cc14610aae57806349c8cd5714610afe5780634caf5c7214610b3c5780634cdd415414610b8857806350d7409014610bd457806352c6bbf414610c2c57806355a0a1bf14610c7f57806356717c7914610cc1578063582f30b414610cfd5780635abec84714610d505780635e0d4aa914610d8457806362bc354714610db857806365a6b14d14610dec578063675a4ef014610e3257806367ea4be214610ec05780636d1d1e5614610f0c5780636e2d580514610f4e578063706853de14610f905780637436b4e814610fda57806377ed072f1461102a57806379355bf4146110685780637a362458146110b45780637ee0a583146111005780638780ec541461115457806387fca8a6146111a05780638c8e985c146112205780638dc8bc2b1461126257806390716d41146112c757806393e65fb7146113315780639500c08e1461137757806395108fc8146113b9578063966277fb146113f75780639682eb12146114585780639f9b1c98146114cb578063a48a7fbb1461150d578063a7b9777c14611559578063a87c1121146115d9578063a9786fe514611636578063b0c29efb14611678578063b0d6b1cc146116e6578063b197bf0b1461174c578063b598c31a14611780578063b894bf93146117f3578063bd25ecbf14611827578063bd3d106f1461185b578063be4517ef14611899578063bed5fa9a146118fa578063bf8a2ac61461193c578063bfbfe9d9146119a1578063c3338488146119ed578063c4e2ba3314611a4d578063c501bf5614611aa1578063c554912614611b0f578063cc71a88d14611b4d578063cd4292a714611b8f578063cf06689d14611bd1578063d2e98bca14611c1b578063d3209ca014611c61578063d372d5f614611ca3578063d61488b714611cf2578063d70fcee414611d4a578063d9970ab314611d88578063dbcdc19d14611dbc578063dc96b2fa14611e06578063de2c312e14611e42578063dfffdce314611e8e578063e29ae7ac14611eeb578063e837332314611f1f578063e8e7fed214611f5d578063ec40b89714611f91578063f1f9d1c414611fcf578063f46574aa14612027578063fa8a047414612087578063facf138e146120cd578063fbec360f1461210f578063fcc7e24714612159575b600080fd5b6104bf60048036038101908080359060200190929190803560001916906020019092919050505061219b565b6040518082815260200191505060405180910390f35b6105016004803603810190808035906020019092919080356000191690602001909291905050506121ca565b6040518082815260200191505060405180910390f35b610535600480360381019080803590602001909291905050506121e1565b6040518082815260200191505060405180910390f35b6105776004803603810190808035906020019092919080356000191690602001909291905050506121f6565b6040518082815260200191505060405180910390f35b6105ab60048036038101908080359060200190929190505050612229565b6040518082815260200191505060405180910390f35b6105df60048036038101908080359060200190929190505050612242565b6040518082815260200191505060405180910390f35b610621600480360381019080803590602001909291908035600019169060200190929190505050612257565b60405180826000191660001916815260200191505060405180910390f35b610667600480360381019080803590602001909291908035906020019092919050505061229f565b6040518082815260200191505060405180910390f35b81801561068957600080fd5b506106b26004803603810190808035906020019092919080359060200190929190505050612308565b604051808215151515815260200191505060405180910390f35b610718600480360381019080803590602001909291908035600019169060200190929190803573ffffffffffffffffffffffffffffffffffffffff169060200190929190505050612322565b604051808273ffffffffffffffffffffffffffffffffffffffff1673ffffffffffffffffffffffffffffffffffffffff16815260200191505060405180910390f35b61077860048036038101908080359060200190929190505050612370565b6040518082815260200191505060405180910390f35b6107ac60048036038101908080359060200190929190505050612385565b60405180826000191660001916815260200191505060405180910390f35b6107f2600480360381019080803590602001909291908035906020019092919050505061239a565b6040518082815260200191505060405180910390f35b6108346004803603810190808035906020019092919080356000191690602001909291905050506123b1565b60405180826000191660001916815260200191505060405180910390f35b610870600480360381019080803590602001909291905050506123c8565b60405180826000191660001916815260200191505060405180910390f35b6108b660048036038101908080359060200190929190803590602001909291905050506123ff565b6040518082815260200191505060405180910390f35b61090260048036038101908080359060200190929190803560001916906020019092919080359060200190929190505050612468565b604051808215151515815260200191505060405180910390f35b61094860048036038101908080359060200190929190803560001916906020019092919050505061249c565b6040518082815260200191505060405180910390f35b61097c600480360381019080803590602001909291905050506124cb565b6040518082815260200191505060405180910390f35b6109be6004803603810190808035906020019092919080356000191690602001909291905050506124e0565b6040518082815260200191505060405180910390f35b6109fc6004803603810190808035906020019092919080359060200190929190505050612547565b6040518082815260200191505060405180910390f35b610a4860048036038101908080359060200190929190803560001916906020019092919080359060200190929190505050612565565b604051808215151515815260200191505060405180910390f35b610a9860048036038101908080359060200190929190803560001916906020019092919080359060200190929190505050612596565b6040518082815260200191505060405180910390f35b610ae4600480360381019080803590602001909291908035600019169060200190929190803590602001909291905050506125c7565b604051808215151515815260200191505060405180910390f35b610b2660048036038101908080359060200190929190803590602001909291905050506125f8565b6040518082815260200191505060405180910390f35b610b726004803603810190808035906020019092919080356000191690602001909291908035906020019092919050505061260f565b6040518082815260200191505060405180910390f35b610bbe60048036038101908080359060200190929190803560001916906020019092919080359060200190929190505050612647565b6040518082815260200191505060405180910390f35b610c1260048036038101908080359060200190929190803573ffffffffffffffffffffffffffffffffffffffff16906020019092919050505061267c565b604051808215151515815260200191505060405180910390f35b818015610c3857600080fd5b50610c656004803603810190808035906020019092919080356000191690602001909291905050506126ac565b604051808215151515815260200191505060405180910390f35b610cab6004803603810190808035906020019092919080356000191690602001909291905050506126c3565b6040518082815260200191505060405180910390f35b610cdf600480360381019080803590602001909291905050506126f2565b60405180826000191660001916815260200191505060405180910390f35b818015610d0957600080fd5b50610d36600480360381019080803590602001909291908035600019169060200190929190505050612707565b604051808215151515815260200191505060405180910390f35b610d6e6004803603810190808035906020019092919050505061271e565b6040518082815260200191505060405180910390f35b610da260048036038101908080359060200190929190505050612733565b6040518082815260200191505060405180910390f35b610dd66004803603810190808035906020019092919050505061274c565b6040518082815260200191505060405180910390f35b610e18600480360381019080803590602001909291908035600019169060200190929190505050612761565b604051808215151515815260200191505060405180910390f35b610e7e600480360381019080803590602001909291908035600019169060200190929190803573ffffffffffffffffffffffffffffffffffffffff169060200190929190505050612778565b604051808273ffffffffffffffffffffffffffffffffffffffff1673ffffffffffffffffffffffffffffffffffffffff16815260200191505060405180910390f35b610ef6600480360381019080803590602001909291908035600019169060200190929190803590602001909291905050506127c6565b6040518082815260200191505060405180910390f35b610f386004803603810190808035906020019092919080356000191690602001909291905050506127fa565b6040518082815260200191505060405180910390f35b610f7a600480360381019080803590602001909291908035600019169060200190929190505050612829565b6040518082815260200191505060405180910390f35b610fbc600480360381019080803590602001909291908035600019169060200190929190505050612858565b60405180826000191660001916815260200191505060405180910390f35b61101060048036038101908080359060200190929190803560001916906020019092919080359060200190929190505050612887565b604051808215151515815260200191505060405180910390f35b61105260048036038101908080359060200190929190803590602001909291905050506128b8565b6040518082815260200191505060405180910390f35b61109e600480360381019080803590602001909291908035600019169060200190929190803590602001909291905050506128d2565b6040518082815260200191505060405180910390f35b6110ea60048036038101908080359060200190929190803560001916906020019092919080359060200190929190505050612903565b6040518082815260200191505060405180910390f35b61113e60048036038101908080359060200190929190803573ffffffffffffffffffffffffffffffffffffffff169060200190929190505050612934565b6040518082815260200191505060405180910390f35b61118a60048036038101908080359060200190929190803560001916906020019092919080359060200190929190505050612964565b6040518082815260200191505060405180910390f35b6111de60048036038101908080359060200190929190803573ffffffffffffffffffffffffffffffffffffffff169060200190929190505050612995565b604051808273ffffffffffffffffffffffffffffffffffffffff1673ffffffffffffffffffffffffffffffffffffffff16815260200191505060405180910390f35b61124c6004803603810190808035906020019092919080356000191690602001909291905050506129c9565b6040518082815260200191505060405180910390f35b81801561126e57600080fd5b506112ad60048036038101908080359060200190929190803573ffffffffffffffffffffffffffffffffffffffff1690602001909291905050506129f8565b604051808215151515815260200191505060405180910390f35b6112ef6004803603810190808035906020019092919080359060200190929190505050612a28565b604051808273ffffffffffffffffffffffffffffffffffffffff1673ffffffffffffffffffffffffffffffffffffffff16815260200191505060405180910390f35b61135d600480360381019080803590602001909291908035600019169060200190929190505050612a43565b604051808215151515815260200191505060405180910390f35b61139f6004803603810190808035906020019092919080359060200190929190505050612a92565b604051808215151515815260200191505060405180910390f35b6113e16004803603810190808035906020019092919080359060200190929190505050612aac565b6040518082815260200191505060405180910390f35b81801561140357600080fd5b5061143e6004803603810190808035906020019092919080356000191690602001909291908035600019169060200190929190505050612ac3565b604051808215151515815260200191505060405180910390f35b81801561146457600080fd5b506114b1600480360381019080803590602001909291908035600019169060200190929190803573ffffffffffffffffffffffffffffffffffffffff169060200190929190505050612af4565b604051808215151515815260200191505060405180910390f35b6114f7600480360381019080803590602001909291908035600019169060200190929190505050612b3e565b6040518082815260200191505060405180910390f35b61154360048036038101908080359060200190929190803560001916906020019092919080359060200190929190505050612b71565b6040518082815260200191505060405180910390f35b61159760048036038101908080359060200190929190803573ffffffffffffffffffffffffffffffffffffffff169060200190929190505050612ba2565b604051808273ffffffffffffffffffffffffffffffffffffffff1673ffffffffffffffffffffffffffffffffffffffff16815260200191505060405180910390f35b8180156115e557600080fd5b5061161c60048036038101908080359060200190929190803560001916906020019092919080359060200190929190505050612bd6565b604051808215151515815260200191505060405180910390f35b61165e6004803603810190808035906020019092919080359060200190929190505050612c0a565b604051808215151515815260200191505060405180910390f35b6116a4600480360381019080803590602001909291908035600019169060200190929190505050612c37565b604051808273ffffffffffffffffffffffffffffffffffffffff1673ffffffffffffffffffffffffffffffffffffffff16815260200191505060405180910390f35b611732600480360381019080803590602001909291908035600019169060200190929190803573ffffffffffffffffffffffffffffffffffffffff169060200190929190505050612c6a565b604051808215151515815260200191505060405180910390f35b61176a60048036038101908080359060200190929190505050612cb4565b6040518082815260200191505060405180910390f35b81801561178c57600080fd5b506117d9600480360381019080803590602001909291908035600019169060200190929190803573ffffffffffffffffffffffffffffffffffffffff169060200190929190505050612cc5565b604051808215151515815260200191505060405180910390f35b61181160048036038101908080359060200190929190505050612d0f565b6040518082815260200191505060405180910390f35b61184560048036038101908080359060200190929190505050612d20565b6040518082815260200191505060405180910390f35b6118836004803603810190808035906020019092919080359060200190929190505050612d35565b6040518082815260200191505060405180910390f35b8180156118a557600080fd5b506118e06004803603810190808035906020019092919080356000191690602001909291908035600019169060200190929190505050612d4c565b604051808215151515815260200191505060405180910390f35b6119226004803603810190808035906020019092919080359060200190929190505050612d7d565b604051808215151515815260200191505060405180910390f35b81801561194857600080fd5b5061198760048036038101908080359060200190929190803573ffffffffffffffffffffffffffffffffffffffff169060200190929190505050612d94565b604051808215151515815260200191505060405180910390f35b6119d760048036038101908080359060200190929190803560001916906020019092919080359060200190929190505050612dc4565b6040518082815260200191505060405180910390f35b611a0b60048036038101908080359060200190929190505050612dfc565b604051808273ffffffffffffffffffffffffffffffffffffffff1673ffffffffffffffffffffffffffffffffffffffff16815260200191505060405180910390f35b611a876004803603810190808035906020019092919080356000191690602001909291908035600019169060200190929190505050612e15565b604051808215151515815260200191505060405180910390f35b611acd600480360381019080803590602001909291908035600019169060200190929190505050612e46565b604051808273ffffffffffffffffffffffffffffffffffffffff1673ffffffffffffffffffffffffffffffffffffffff16815260200191505060405180910390f35b611b376004803603810190808035906020019092919080359060200190929190505050612e79565b6040518082815260200191505060405180910390f35b611b756004803603810190808035906020019092919080359060200190929190505050612e90565b604051808215151515815260200191505060405180910390f35b611bbb600480360381019080803590602001909291908035600019169060200190929190505050612ea7565b6040518082815260200191505060405180910390f35b611bfd600480360381019080803590602001909291908035600019169060200190929190505050612ed6565b60405180826000191660001916815260200191505060405180910390f35b611c436004803603810190808035906020019092919080359060200190929190505050612eed565b60405180826000191660001916815260200191505060405180910390f35b611c8d600480360381019080803590602001909291908035600019169060200190929190505050612f59565b6040518082815260200191505060405180910390f35b818015611caf57600080fd5b50611cd86004803603810190808035906020019092919080359060200190929190505050612f88565b604051808215151515815260200191505060405180910390f35b611d2c6004803603810190808035906020019092919080356000191690602001909291908035600019169060200190929190505050612fa2565b60405180826000191660001916815260200191505060405180910390f35b611d726004803603810190808035906020019092919080359060200190929190505050612fd3565b6040518082815260200191505060405180910390f35b611da660048036038101908080359060200190929190505050612fea565b6040518082815260200191505060405180910390f35b611de8600480360381019080803590602001909291908035600019169060200190929190505050612fff565b60405180826000191660001916815260200191505060405180910390f35b611e246004803603810190808035906020019092919050505061302e565b60405180826000191660001916815260200191505060405180910390f35b611e7860048036038101908080359060200190929190803560001916906020019092919080359060200190929190505050613065565b6040518082815260200191505060405180910390f35b818015611e9a57600080fd5b50611ed160048036038101908080359060200190929190803560001916906020019092919080359060200190929190505050613096565b604051808215151515815260200191505060405180910390f35b611f09600480360381019080803590602001909291905050506130ca565b6040518082815260200191505060405180910390f35b611f4760048036038101908080359060200190929190803590602001909291905050506130d8565b6040518082815260200191505060405180910390f35b611f7b600480360381019080803590602001909291905050506130f3565b6040518082815260200191505060405180910390f35b611fb96004803603810190808035906020019092919080359060200190929190505050613108565b6040518082815260200191505060405180910390f35b6120096004803603810190808035906020019092919080356000191690602001909291908035600019169060200190929190505050613126565b60405180826000191660001916815260200191505060405180910390f35b61204560048036038101908080359060200190929190505050613157565b604051808273ffffffffffffffffffffffffffffffffffffffff1673ffffffffffffffffffffffffffffffffffffffff16815260200191505060405180910390f35b6120af6004803603810190808035906020019092919080359060200190929190505050613170565b60405180826000191660001916815260200191505060405180910390f35b6120f56004803603810190808035906020019092919080359060200190929190505050613187565b604051808215151515815260200191505060405180910390f35b61213b60048036038101908080359060200190929190803560001916906020019092919050505061319e565b60405180826000191660001916815260200191505060405180910390f35b6121856004803603810190808035906020019092919080356000191690602001909291905050506131e6565b6040518082815260200191505060405180910390f35b60006121c28360000160008460001916600019168152602001908152602001600020612d0f565b905092915050565b60006121d983600001836124e0565b905092915050565b60006121ef826000016130ca565b9050919050565b600061221d836000016000846000191660001916815260200190815260200160002061302e565b60019004905092915050565b60006122378260000161302e565b600190049050919050565b6000612250826000016130ca565b9050919050565b600080600061226685856124e0565b915060008214151561228f5761227c85836123ff565b90506122888582612eed565b9250612297565b600060010292505b505092915050565b60006001151583600401600084815260200190815260200160002060009054906101000a900460ff16151514156122fd5782600501600183038154811015156122e457fe5b9060005260206000209060030201600201549050612302565b600090505b92915050565b600061231a8360000183600102613215565b905092915050565b600061236384600001600085600019166000191681526020019081526020016000208373ffffffffffffffffffffffffffffffffffffffff16600102612257565b6001900490509392505050565b600061237e82600001612cb4565b9050919050565b6000612393826000016123c8565b9050919050565b60006123a983600001836123ff565b905092915050565b60006123c08360000183612257565b905092915050565b6000806123d483612cb4565b90506000811415156123f1576123ea8382612eed565b91506123f9565b600060010291505b50919050565b60006001151583600401600084815260200190815260200160002060009054906101000a900460ff161515141561245d57826005016001830381548110151561244457fe5b9060005260206000209060030201600101549050612462565b600090505b92915050565b6000612493846000016000856000191660001916815260200190815260200160002083600102612a43565b90509392505050565b60006124c38360000160008460001916600019168152602001908152602001600020612cb4565b905092915050565b60006124d9826000016130ca565b9050919050565b600080836003016000846000191660001916815260200190815260200160002054148015612512575060008360020154145b156125205760009050612541565b82600301600083600019166000191681526020019081526020016000205490505b92915050565b60006125598360000183600102612257565b60019004905092915050565b600061258d846000016000856000191660001916815260200190815260200160002083612c0a565b90509392505050565b60006125be84600001600085600019166000191681526020019081526020016000208361229f565b90509392505050565b60006125ef846000016000856000191660001916815260200190815260200160002083612c0a565b90509392505050565b600061260783600001836123ff565b905092915050565b600061263a84600001600085600019166000191681526020019081526020016000208360010261319e565b6001900490509392505050565b600061266f846000016000856000191660001916815260200190815260200160002083612eed565b6001900490509392505050565b60006126a4836000018373ffffffffffffffffffffffffffffffffffffffff16600102612a43565b905092915050565b60006126bb8360000183613215565b905092915050565b60006126ea83600001600084600019166000191681526020019081526020016000206130ca565b905092915050565b60006127008260000161302e565b9050919050565b6000612716836000018361325b565b905092915050565b600061272c82600001612d0f565b9050919050565b6000612741826000016123c8565b600190049050919050565b600061275a82600001612d0f565b9050919050565b60006127708360000183612a43565b905092915050565b60006127b984600001600085600019166000191681526020019081526020016000208373ffffffffffffffffffffffffffffffffffffffff1660010261319e565b6001900490509392505050565b60006127f18460000160008560001916600019168152602001908152602001600020836001026124e0565b90509392505050565b60006128218360000160008460001916600019168152602001908152602001600020612cb4565b905092915050565b600061285083600001600084600019166000191681526020019081526020016000206130ca565b905092915050565b600061287f836000016000846000191660001916815260200190815260200160002061302e565b905092915050565b60006128af846000016000856000191660001916815260200190815260200160002083612c0a565b90509392505050565b60006128ca83600001836001026124e0565b905092915050565b60006128fa8460000160008560001916600019168152602001908152602001600020836123ff565b90509392505050565b600061292b8460000160008560001916600019168152602001908152602001600020836123ff565b90509392505050565b600061295c836000018373ffffffffffffffffffffffffffffffffffffffff166001026124e0565b905092915050565b600061298c8460000160008560001916600019168152602001908152602001600020836123ff565b90509392505050565b60006129bd836000018373ffffffffffffffffffffffffffffffffffffffff16600102612257565b60019004905092915050565b60006129f08360000160008460001916600019168152602001908152602001600020612cb4565b905092915050565b6000612a20836000018373ffffffffffffffffffffffffffffffffffffffff16600102613215565b905092915050565b6000612a378360000183612eed565b60019004905092915050565b600080836003016000846000191660001916815260200190815260200160002054905083600401600082815260200190815260200160002060009054906101000a900460ff1691505092915050565b6000612aa48360000183600102612a43565b905092915050565b6000612abb836000018361229f565b905092915050565b6000612aeb84600001600085600019166000191681526020019081526020016000208361325b565b90509392505050565b6000612b3584600001600085600019166000191681526020019081526020016000208373ffffffffffffffffffffffffffffffffffffffff1660010261325b565b90509392505050565b6000612b6583600001600084600019166000191681526020019081526020016000206123c8565b60019004905092915050565b6000612b9984600001600085600019166000191681526020019081526020016000208361229f565b90509392505050565b6000612bca836000018373ffffffffffffffffffffffffffffffffffffffff1660010261319e565b60019004905092915050565b6000612c01846000016000856000191660001916815260200190815260200160002083600102613215565b90509392505050565b600082600401600083815260200190815260200160002060009054906101000a900460ff16905092915050565b6000612c5e836000016000846000191660001916815260200190815260200160002061302e565b60019004905092915050565b6000612cab84600001600085600019166000191681526020019081526020016000208373ffffffffffffffffffffffffffffffffffffffff16600102612a43565b90509392505050565b600081600101549050809050919050565b6000612d0684600001600085600019166000191681526020019081526020016000208373ffffffffffffffffffffffffffffffffffffffff16600102613215565b90509392505050565b600081600001549050809050919050565b6000612d2e82600001612cb4565b9050919050565b6000612d4483600001836123ff565b905092915050565b6000612d74846000016000856000191660001916815260200190815260200160002083613215565b90509392505050565b6000612d8c8360000183612c0a565b905092915050565b6000612dbc836000018373ffffffffffffffffffffffffffffffffffffffff1660010261325b565b905092915050565b6000612def846000016000856000191660001916815260200190815260200160002083600102612257565b6001900490509392505050565b6000612e0a8260000161302e565b600190049050919050565b6000612e3d846000016000856000191660001916815260200190815260200160002083612a43565b90509392505050565b6000612e6d83600001600084600019166000191681526020019081526020016000206123c8565b60019004905092915050565b6000612e88836000018361229f565b905092915050565b6000612e9f8360000183612c0a565b905092915050565b6000612ece8360000160008460001916600019168152602001908152602001600020612d0f565b905092915050565b6000612ee5836000018361319e565b905092915050565b60006001151583600401600084815260200190815260200160002060009054906101000a900460ff1615151415612f4b578260050160018303815481101515612f3257fe5b9060005260206000209060030201600001549050612f53565b600060010290505b92915050565b6000612f8083600001600084600019166000191681526020019081526020016000206130ca565b905092915050565b6000612f9a836000018360010261325b565b905092915050565b6000612fca846000016000856000191660001916815260200190815260200160002083612257565b90509392505050565b6000612fe2836000018361229f565b905092915050565b6000612ff882600001612cb4565b9050919050565b600061302683600001600084600019166000191681526020019081526020016000206123c8565b905092915050565b60008061303a83612d0f565b9050600081141515613057576130508382612eed565b915061305f565b600060010291505b50919050565b600061308d84600001600085600019166000191681526020019081526020016000208361229f565b90509392505050565b60006130c184600001600085600019166000191681526020019081526020016000208360010261325b565b90509392505050565b600081600201549050919050565b60006130e78360000183612eed565b60019004905092915050565b600061310182600001612d0f565b9050919050565b600061311a836000018360010261319e565b60019004905092915050565b600061314e84600001600085600019166000191681526020019081526020016000208361319e565b90509392505050565b6000613165826000016123c8565b600190049050919050565b600061317f8360000183612eed565b905092915050565b60006131968360000183612c0a565b905092915050565b60008060006131ad85856124e0565b91506000821415156131d6576131c3858361229f565b90506131cf8582612eed565b92506131de565b600060010292505b505092915050565b600061320d8360000160008460001916600019168152602001908152602001600020612d0f565b905092915050565b60008061322284846124e0565b905060008114151561324c5761323884826133ff565b151561324357600080fd5b60019150613251565b600091505b8191505092915050565b600080600061326a85856124e0565b14158061327e575060008019168360001916145b1561328c57600091506133f8565b83600501606060405190810160405280856000191681526020018660010154815260200160008152509080600181540180825580915050906001820390600052602060002090600302016000909192909190915060008201518160000190600019169055602082015181600101556040820151816002015550509050600084600101541415613357576000846000015414158061332e57506000846002015414155b1561333857600080fd5b80846001018190558460000181905550600184600201819055506133a3565b8084600501600186600101540381548110151561337057fe5b90600052602060002090600302016002018190555080846001018190555083600201600081548092919060010191905055505b600184600401600083815260200190815260200160002060006101000a81548160ff02191690831515021790555080846003016000856000191660001916815260200190815260200160002081905550600191505b5092915050565b60006134096135ec565b6001151584600401600085815260200190815260200160002060009054906101000a900460ff16151514156135e057836005016001840381548110151561344c57fe5b9060005260206000209060030201606060405190810160405290816000820154600019166000191681526020016001820154815260200160028201548152505090506000816020015114156134ad57806040015184600001819055506134e0565b80604001518460050160018360200151038154811015156134ca57fe5b9060005260206000209060030201600201819055505b6000816040015114156134ff5780602001518460010181905550613532565b806020015184600501600183604001510381548110151561351c57fe5b9060005260206000209060030201600101819055505b836005016001840381548110151561354657fe5b9060005260206000209060030201600080820160009055600182016000905560028201600090555050600084600401600085815260200190815260200160002060006101000a81548160ff02191690831515021790555083600301600082600001516000191660001916815260200190815260200160002060009055836002016000815480929190600190039190505550600191506135e5565b600091505b5092915050565b60606040519081016040528060008019168152602001600081526020016000815250905600a165627a7a723058200f0b289fd96ccd44d9d7d2b302d5a948f1ad92aa9616a5ed91f65d9ef09c44500029",
  "source": "pragma solidity ^0.4.19;\n\nlibrary DoublyLinkedList {\n\n  struct Item {\n    bytes32 item;\n    uint256 previous_index;\n    uint256 next_index;\n  }\n\n  struct Data {\n    uint256 first_index;\n    uint256 last_index;\n    uint256 count;\n    mapping(bytes32 => uint256) item_index;\n    mapping(uint256 => bool) valid_indexes;\n    Item[] collection;\n  }\n\n  struct IndexedUint {\n    mapping(bytes32 => Data) data;\n  }\n\n  struct IndexedAddress {\n    mapping(bytes32 => Data) data;\n  }\n\n  struct IndexedBytes {\n    mapping(bytes32 => Data) data;\n  }\n\n  struct Address {\n    Data data;\n  }\n\n  struct Bytes {\n    Data data;\n  }\n\n  struct Uint {\n    Data data;\n  }\n\n  uint256 constant NONE = uint256(0);\n  bytes32 constant EMPTY_BYTES = bytes32(0x0);\n  address constant NULL_ADDRESS = address(0x0);\n\n  function find(Data storage self, bytes32 _item)\n           public\n           constant\n           returns (uint256 _item_index)\n  {\n    if ((self.item_index[_item] == NONE) && (self.count == NONE)) {\n      _item_index = NONE;\n    } else {\n      _item_index = self.item_index[_item];\n    }\n  }\n\n  function get(Data storage self, uint256 _item_index)\n           public\n           constant\n           returns (bytes32 _item)\n  {\n    if (self.valid_indexes[_item_index] == true) {\n      _item = self.collection[_item_index - 1].item;\n    } else {\n      _item = EMPTY_BYTES;\n    }\n  }\n\n  function append(Data storage self, bytes32 _data)\n           internal\n           returns (bool _success)\n  {\n    if (find(self, _data) != NONE || _data == bytes32(\"\")) { // rejects addition of empty values\n      _success = false;\n    } else {\n      uint256 _index = uint256(self.collection.push(Item({item: _data, previous_index: self.last_index, next_index: NONE})));\n      if (self.last_index == NONE) {\n        if ((self.first_index != NONE) || (self.count != NONE)) {\n          revert();\n        } else {\n          self.first_index = self.last_index = _index;\n          self.count = 1;\n        }\n      } else {\n        self.collection[self.last_index - 1].next_index = _index;\n        self.last_index = _index;\n        self.count++;\n      }\n      self.valid_indexes[_index] = true;\n      self.item_index[_data] = _index;\n      _success = true;\n    }\n  }\n\n  function remove(Data storage self, uint256 _index)\n           internal\n           returns (bool _success)\n  {\n    if (self.valid_indexes[_index] == true) {\n      Item memory item = self.collection[_index - 1];\n      if (item.previous_index == NONE) {\n        self.first_index = item.next_index;\n      } else {\n        self.collection[item.previous_index - 1].next_index = item.next_index;\n      }\n\n      if (item.next_index == NONE) {\n        self.last_index = item.previous_index;\n      } else {\n        self.collection[item.next_index - 1].previous_index = item.previous_index;\n      }\n      delete self.collection[_index - 1];\n      self.valid_indexes[_index] = false;\n      delete self.item_index[item.item];\n      self.count--;\n      _success = true;\n    } else {\n      _success = false;\n    }\n  }\n\n  function remove_item(Data storage self, bytes32 _item)\n           internal\n           returns (bool _success)\n  {\n    uint256 _item_index = find(self, _item);\n    if (_item_index != NONE) {\n      require(remove(self, _item_index));\n      _success = true;\n    } else {\n      _success = false;\n    }\n    return _success;\n  }\n\n  function total(Data storage self)\n           public\n           constant\n           returns (uint256 _total_count)\n  {\n    _total_count = self.count;\n  }\n\n  function start(Data storage self)\n           public\n           constant\n           returns (uint256 _item_index)\n  {\n    _item_index = self.first_index;\n    return _item_index;\n  }\n\n  function start_item(Data storage self)\n           public\n           constant\n           returns (bytes32 _item)\n  {\n    uint256 _item_index = start(self);\n    if (_item_index != NONE) {\n      _item = get(self, _item_index);\n    } else {\n      _item = EMPTY_BYTES;\n    }\n  }\n\n  function end(Data storage self)\n           public\n           constant\n           returns (uint256 _item_index)\n  {\n    _item_index = self.last_index;\n    return _item_index;\n  }\n\n  function end_item(Data storage self)\n           public\n           constant\n           returns (bytes32 _item)\n  {\n    uint256 _item_index = end(self);\n    if (_item_index != NONE) {\n      _item = get(self, _item_index);\n    } else {\n      _item = EMPTY_BYTES;\n    }\n  }\n\n  function valid(Data storage self, uint256 _item_index)\n           public\n           constant\n           returns (bool _yes)\n  {\n    _yes = self.valid_indexes[_item_index];\n    //_yes = ((_item_index - 1) < self.collection.length);\n  }\n\n  function valid_item(Data storage self, bytes32 _item)\n           public\n           constant\n           returns (bool _yes)\n  {\n    uint256 _item_index = self.item_index[_item];\n    _yes = self.valid_indexes[_item_index];\n  }\n\n  function previous(Data storage self, uint256 _current_index)\n           public\n           constant\n           returns (uint256 _previous_index)\n  {\n    if (self.valid_indexes[_current_index] == true) {\n      _previous_index = self.collection[_current_index - 1].previous_index;\n    } else {\n      _previous_index = NONE;\n    }\n  }\n\n  function previous_item(Data storage self, bytes32 _current_item)\n           public\n           constant\n           returns (bytes32 _previous_item)\n  {\n    uint256 _current_index = find(self, _current_item);\n    if (_current_index != NONE) {\n      uint256 _previous_index = previous(self, _current_index);\n      _previous_item = get(self, _previous_index);\n    } else {\n      _previous_item = EMPTY_BYTES;\n    }\n  }\n\n  function next(Data storage self, uint256 _current_index)\n           public\n           constant\n           returns (uint256 _next_index)\n  {\n    if (self.valid_indexes[_current_index] == true) {\n      _next_index = self.collection[_current_index - 1].next_index;\n    } else {\n      _next_index = NONE;\n    }\n  }\n\n  function next_item(Data storage self, bytes32 _current_item)\n           public\n           constant\n           returns (bytes32 _next_item)\n  {\n    uint256 _current_index = find(self, _current_item);\n    if (_current_index != NONE) {\n      uint256 _next_index = next(self, _current_index);\n      _next_item = get(self, _next_index);\n    } else {\n      _next_item = EMPTY_BYTES;\n    }\n  }\n\n  function find(Uint storage self, uint256 _item)\n           public\n           constant\n           returns (uint256 _item_index)\n  {\n    _item_index = find(self.data, bytes32(_item));\n  }\n\n  function get(Uint storage self, uint256 _item_index)\n           public\n           constant\n           returns (uint256 _item)\n  {\n    _item = uint256(get(self.data, _item_index));\n  }\n\n\n  function append(Uint storage self, uint256 _data)\n           public\n           returns (bool _success)\n  {\n    _success = append(self.data, bytes32(_data));\n  }\n\n  function remove(Uint storage self, uint256 _index)\n           internal\n           returns (bool _success)\n  {\n    _success = remove(self.data, _index);\n  }\n\n  function remove_item(Uint storage self, uint256 _item)\n           public\n           returns (bool _success)\n  {\n    _success = remove_item(self.data, bytes32(_item));\n  }\n\n  function total(Uint storage self)\n           public\n           constant\n           returns (uint256 _total_count)\n  {\n    _total_count = total(self.data);\n  }\n\n  function start(Uint storage self)\n           public\n           constant\n           returns (uint256 _index)\n  {\n    _index = start(self.data);\n  }\n\n  function start_item(Uint storage self)\n           public\n           constant\n           returns (uint256 _start_item)\n  {\n    _start_item = uint256(start_item(self.data));\n  }\n\n\n  function end(Uint storage self)\n           public\n           constant\n           returns (uint256 _index)\n  {\n    _index = end(self.data);\n  }\n\n  function end_item(Uint storage self)\n           public\n           constant\n           returns (uint256 _end_item)\n  {\n    _end_item = uint256(end_item(self.data));\n  }\n\n  function valid(Uint storage self, uint256 _item_index)\n           public\n           constant\n           returns (bool _yes)\n  {\n    _yes = valid(self.data, _item_index);\n  }\n\n  function valid_item(Uint storage self, uint256 _item)\n           public\n           constant\n           returns (bool _yes)\n  {\n    _yes = valid_item(self.data, bytes32(_item));\n  }\n\n  function previous(Uint storage self, uint256 _current_index)\n           public\n           constant\n           returns (uint256 _previous_index)\n  {\n    _previous_index = previous(self.data, _current_index);\n  }\n\n  function previous_item(Uint storage self, uint256 _current_item)\n           public\n           constant\n           returns (uint256 _previous_item)\n  {\n    _previous_item = uint256(previous_item(self.data, bytes32(_current_item)));\n  }\n\n  function next(Uint storage self, uint256 _current_index)\n           public\n           constant\n           returns (uint256 _next_index)\n  {\n    _next_index = next(self.data, _current_index);\n  }\n\n  function next_item(Uint storage self, uint256 _current_item)\n           public\n           constant\n           returns (uint256 _next_item)\n  {\n    _next_item = uint256(next_item(self.data, bytes32(_current_item)));\n  }\n\n  function find(Address storage self, address _item)\n           public\n           constant\n           returns (uint256 _item_index)\n  {\n    _item_index = find(self.data, bytes32(_item));\n  }\n\n  function get(Address storage self, uint256 _item_index)\n           public\n           constant\n           returns (address _item)\n  {\n    _item = address(get(self.data, _item_index));\n  }\n\n\n  function find(IndexedUint storage self, bytes32 _collection_index, uint256 _item)\n           public\n           constant\n           returns (uint256 _item_index)\n  {\n    _item_index = find(self.data[_collection_index], bytes32(_item));\n  }\n\n  function get(IndexedUint storage self, bytes32 _collection_index, uint256 _item_index)\n           public\n           constant\n           returns (uint256 _item)\n  {\n    _item = uint256(get(self.data[_collection_index], _item_index));\n  }\n\n\n  function append(IndexedUint storage self, bytes32 _collection_index, uint256 _data)\n           public\n           returns (bool _success)\n  {\n    _success = append(self.data[_collection_index], bytes32(_data));\n  }\n\n  function remove(IndexedUint storage self, bytes32 _collection_index, uint256 _index)\n           internal\n           returns (bool _success)\n  {\n    _success = remove(self.data[_collection_index], _index);\n  }\n\n  function remove_item(IndexedUint storage self, bytes32 _collection_index, uint256 _item)\n           public\n           returns (bool _success)\n  {\n    _success = remove_item(self.data[_collection_index], bytes32(_item));\n  }\n\n  function total(IndexedUint storage self, bytes32 _collection_index)\n           public\n           constant\n           returns (uint256 _total_count)\n  {\n    _total_count = total(self.data[_collection_index]);\n  }\n\n  function start(IndexedUint storage self, bytes32 _collection_index)\n           public\n           constant\n           returns (uint256 _index)\n  {\n    _index = start(self.data[_collection_index]);\n  }\n\n  function start_item(IndexedUint storage self, bytes32 _collection_index)\n           public\n           constant\n           returns (uint256 _start_item)\n  {\n    _start_item = uint256(start_item(self.data[_collection_index]));\n  }\n\n\n  function end(IndexedUint storage self, bytes32 _collection_index)\n           public\n           constant\n           returns (uint256 _index)\n  {\n    _index = end(self.data[_collection_index]);\n  }\n\n  function end_item(IndexedUint storage self, bytes32 _collection_index)\n           public\n           constant\n           returns (uint256 _end_item)\n  {\n    _end_item = uint256(end_item(self.data[_collection_index]));\n  }\n\n  function valid(IndexedUint storage self, bytes32 _collection_index, uint256 _item_index)\n           public\n           constant\n           returns (bool _yes)\n  {\n    _yes = valid(self.data[_collection_index], _item_index);\n  }\n\n  function valid_item(IndexedUint storage self, bytes32 _collection_index, uint256 _item)\n           public\n           constant\n           returns (bool _yes)\n  {\n    _yes = valid_item(self.data[_collection_index], bytes32(_item));\n  }\n\n  function previous(IndexedUint storage self, bytes32 _collection_index, uint256 _current_index)\n           public\n           constant\n           returns (uint256 _previous_index)\n  {\n    _previous_index = previous(self.data[_collection_index], _current_index);\n  }\n\n  function previous_item(IndexedUint storage self, bytes32 _collection_index, uint256 _current_item)\n           public\n           constant\n           returns (uint256 _previous_item)\n  {\n    _previous_item = uint256(previous_item(self.data[_collection_index], bytes32(_current_item)));\n  }\n\n  function next(IndexedUint storage self, bytes32 _collection_index, uint256 _current_index)\n           public\n           constant\n           returns (uint256 _next_index)\n  {\n    _next_index = next(self.data[_collection_index], _current_index);\n  }\n\n  function next_item(IndexedUint storage self, bytes32 _collection_index, uint256 _current_item)\n           public\n           constant\n           returns (uint256 _next_item)\n  {\n    _next_item = uint256(next_item(self.data[_collection_index], bytes32(_current_item)));\n  }\n\n  function append(Address storage self, address _data)\n           public\n           returns (bool _success)\n  {\n    _success = append(self.data, bytes32(_data));\n  }\n\n  function remove(Address storage self, uint256 _index)\n           internal\n           returns (bool _success)\n  {\n    _success = remove(self.data, _index);\n  }\n\n\n  function remove_item(Address storage self, address _item)\n           public\n           returns (bool _success)\n  {\n    _success = remove_item(self.data, bytes32(_item));\n  }\n\n  function total(Address storage self)\n           public\n           constant\n           returns (uint256 _total_count)\n  {\n    _total_count = total(self.data);\n  }\n\n  function start(Address storage self)\n           public\n           constant\n           returns (uint256 _index)\n  {\n    _index = start(self.data);\n  }\n\n  function start_item(Address storage self)\n           public\n           constant\n           returns (address _start_item)\n  {\n    _start_item = address(start_item(self.data));\n  }\n\n\n  function end(Address storage self)\n           public\n           constant\n           returns (uint256 _index)\n  {\n    _index = end(self.data);\n  }\n\n  function end_item(Address storage self)\n           public\n           constant\n           returns (address _end_item)\n  {\n    _end_item = address(end_item(self.data));\n  }\n\n  function valid(Address storage self, uint256 _item_index)\n           public\n           constant\n           returns (bool _yes)\n  {\n    _yes = valid(self.data, _item_index);\n  }\n\n  function valid_item(Address storage self, address _item)\n           public\n           constant\n           returns (bool _yes)\n  {\n    _yes = valid_item(self.data, bytes32(_item));\n  }\n\n  function previous(Address storage self, uint256 _current_index)\n           public\n           constant\n           returns (uint256 _previous_index)\n  {\n    _previous_index = previous(self.data, _current_index);\n  }\n\n  function previous_item(Address storage self, address _current_item)\n           public\n           constant\n           returns (address _previous_item)\n  {\n    _previous_item = address(previous_item(self.data, bytes32(_current_item)));\n  }\n\n  function next(Address storage self, uint256 _current_index)\n           public\n           constant\n           returns (uint256 _next_index)\n  {\n    _next_index = next(self.data, _current_index);\n  }\n\n  function next_item(Address storage self, address _current_item)\n           public\n           constant\n           returns (address _next_item)\n  {\n    _next_item = address(next_item(self.data, bytes32(_current_item)));\n  }\n\n  function append(IndexedAddress storage self, bytes32 _collection_index, address _data)\n           public\n           returns (bool _success)\n  {\n    _success = append(self.data[_collection_index], bytes32(_data));\n  }\n\n  function remove(IndexedAddress storage self, bytes32 _collection_index, uint256 _index)\n           internal\n           returns (bool _success)\n  {\n    _success = remove(self.data[_collection_index], _index);\n  }\n\n\n  function remove_item(IndexedAddress storage self, bytes32 _collection_index, address _item)\n           public\n           returns (bool _success)\n  {\n    _success = remove_item(self.data[_collection_index], bytes32(_item));\n  }\n\n  function total(IndexedAddress storage self, bytes32 _collection_index)\n           public\n           constant\n           returns (uint256 _total_count)\n  {\n    _total_count = total(self.data[_collection_index]);\n  }\n\n  function start(IndexedAddress storage self, bytes32 _collection_index)\n           public\n           constant\n           returns (uint256 _index)\n  {\n    _index = start(self.data[_collection_index]);\n  }\n\n  function start_item(IndexedAddress storage self, bytes32 _collection_index)\n           public\n           constant\n           returns (address _start_item)\n  {\n    _start_item = address(start_item(self.data[_collection_index]));\n  }\n\n\n  function end(IndexedAddress storage self, bytes32 _collection_index)\n           public\n           constant\n           returns (uint256 _index)\n  {\n    _index = end(self.data[_collection_index]);\n  }\n\n  function end_item(IndexedAddress storage self, bytes32 _collection_index)\n           public\n           constant\n           returns (address _end_item)\n  {\n    _end_item = address(end_item(self.data[_collection_index]));\n  }\n\n  function valid(IndexedAddress storage self, bytes32 _collection_index, uint256 _item_index)\n           public\n           constant\n           returns (bool _yes)\n  {\n    _yes = valid(self.data[_collection_index], _item_index);\n  }\n\n  function valid_item(IndexedAddress storage self, bytes32 _collection_index, address _item)\n           public\n           constant\n           returns (bool _yes)\n  {\n    _yes = valid_item(self.data[_collection_index], bytes32(_item));\n  }\n\n  function previous(IndexedAddress storage self, bytes32 _collection_index, uint256 _current_index)\n           public\n           constant\n           returns (uint256 _previous_index)\n  {\n    _previous_index = previous(self.data[_collection_index], _current_index);\n  }\n\n  function previous_item(IndexedAddress storage self, bytes32 _collection_index, address _current_item)\n           public\n           constant\n           returns (address _previous_item)\n  {\n    _previous_item = address(previous_item(self.data[_collection_index], bytes32(_current_item)));\n  }\n\n  function next(IndexedAddress storage self, bytes32 _collection_index, uint256 _current_index)\n           public\n           constant\n           returns (uint256 _next_index)\n  {\n    _next_index = next(self.data[_collection_index], _current_index);\n  }\n\n  function next_item(IndexedAddress storage self, bytes32 _collection_index, address _current_item)\n           public\n           constant\n           returns (address _next_item)\n  {\n    _next_item = address(next_item(self.data[_collection_index], bytes32(_current_item)));\n  }\n\n\n  function find(Bytes storage self, bytes32 _item)\n           public\n           constant\n           returns (uint256 _item_index)\n  {\n    _item_index = find(self.data, _item);\n  }\n\n  function get(Bytes storage self, uint256 _item_index)\n           public\n           constant\n           returns (bytes32 _item)\n  {\n    _item = get(self.data, _item_index);\n  }\n\n\n  function append(Bytes storage self, bytes32 _data)\n           public\n           returns (bool _success)\n  {\n    _success = append(self.data, _data);\n  }\n\n  function remove(Bytes storage self, uint256 _index)\n           internal\n           returns (bool _success)\n  {\n    _success = remove(self.data, _index);\n  }\n\n\n  function remove_item(Bytes storage self, bytes32 _item)\n           public\n           returns (bool _success)\n  {\n    _success = remove_item(self.data, _item);\n  }\n\n  function total(Bytes storage self)\n           public\n           constant\n           returns (uint256 _total_count)\n  {\n    _total_count = total(self.data);\n  }\n\n  function start(Bytes storage self)\n           public\n           constant\n           returns (uint256 _index)\n  {\n    _index = start(self.data);\n  }\n\n  function start_item(Bytes storage self)\n           public\n           constant\n           returns (bytes32 _start_item)\n  {\n    _start_item = start_item(self.data);\n  }\n\n\n  function end(Bytes storage self)\n           public\n           constant\n           returns (uint256 _index)\n  {\n    _index = end(self.data);\n  }\n\n  function end_item(Bytes storage self)\n           public\n           constant\n           returns (bytes32 _end_item)\n  {\n    _end_item = end_item(self.data);\n  }\n\n  function valid(Bytes storage self, uint256 _item_index)\n           public\n           constant\n           returns (bool _yes)\n  {\n    _yes = valid(self.data, _item_index);\n  }\n\n  function valid_item(Bytes storage self, bytes32 _item)\n           public\n           constant\n           returns (bool _yes)\n  {\n    _yes = valid_item(self.data, _item);\n  }\n\n  function previous(Bytes storage self, uint256 _current_index)\n           public\n           constant\n           returns (uint256 _previous_index)\n  {\n    _previous_index = previous(self.data, _current_index);\n  }\n\n  function previous_item(Bytes storage self, bytes32 _current_item)\n           public\n           constant\n           returns (bytes32 _previous_item)\n  {\n    _previous_item = previous_item(self.data, _current_item);\n  }\n\n  function next(Bytes storage self, uint256 _current_index)\n           public\n           constant\n           returns (uint256 _next_index)\n  {\n    _next_index = next(self.data, _current_index);\n  }\n\n  function next_item(Bytes storage self, bytes32 _current_item)\n           public\n           constant\n           returns (bytes32 _next_item)\n  {\n    _next_item = next_item(self.data, _current_item);\n  }\n\n  function append(IndexedBytes storage self, bytes32 _collection_index, bytes32 _data)\n           public\n           returns (bool _success)\n  {\n    _success = append(self.data[_collection_index], bytes32(_data));\n  }\n\n  function remove(IndexedBytes storage self, bytes32 _collection_index, uint256 _index)\n           internal\n           returns (bool _success)\n  {\n    _success = remove(self.data[_collection_index], _index);\n  }\n\n\n  function remove_item(IndexedBytes storage self, bytes32 _collection_index, bytes32 _item)\n           public\n           returns (bool _success)\n  {\n    _success = remove_item(self.data[_collection_index], bytes32(_item));\n  }\n\n  function total(IndexedBytes storage self, bytes32 _collection_index)\n           public\n           constant\n           returns (uint256 _total_count)\n  {\n    _total_count = total(self.data[_collection_index]);\n  }\n\n  function start(IndexedBytes storage self, bytes32 _collection_index)\n           public\n           constant\n           returns (uint256 _index)\n  {\n    _index = start(self.data[_collection_index]);\n  }\n\n  function start_item(IndexedBytes storage self, bytes32 _collection_index)\n           public\n           constant\n           returns (bytes32 _start_item)\n  {\n    _start_item = bytes32(start_item(self.data[_collection_index]));\n  }\n\n\n  function end(IndexedBytes storage self, bytes32 _collection_index)\n           public\n           constant\n           returns (uint256 _index)\n  {\n    _index = end(self.data[_collection_index]);\n  }\n\n  function end_item(IndexedBytes storage self, bytes32 _collection_index)\n           public\n           constant\n           returns (bytes32 _end_item)\n  {\n    _end_item = bytes32(end_item(self.data[_collection_index]));\n  }\n\n  function valid(IndexedBytes storage self, bytes32 _collection_index, uint256 _item_index)\n           public\n           constant\n           returns (bool _yes)\n  {\n    _yes = valid(self.data[_collection_index], _item_index);\n  }\n\n  function valid_item(IndexedBytes storage self, bytes32 _collection_index, bytes32 _item)\n           public\n           constant\n           returns (bool _yes)\n  {\n    _yes = valid_item(self.data[_collection_index], bytes32(_item));\n  }\n\n  function previous(IndexedBytes storage self, bytes32 _collection_index, uint256 _current_index)\n           public\n           constant\n           returns (uint256 _previous_index)\n  {\n    _previous_index = previous(self.data[_collection_index], _current_index);\n  }\n\n  function previous_item(IndexedBytes storage self, bytes32 _collection_index, bytes32 _current_item)\n           public\n           constant\n           returns (bytes32 _previous_item)\n  {\n    _previous_item = bytes32(previous_item(self.data[_collection_index], bytes32(_current_item)));\n  }\n\n  function next(IndexedBytes storage self, bytes32 _collection_index, uint256 _current_index)\n           public\n           constant\n           returns (uint256 _next_index)\n  {\n    _next_index = next(self.data[_collection_index], _current_index);\n  }\n\n  function next_item(IndexedBytes storage self, bytes32 _collection_index, bytes32 _current_item)\n           public\n           constant\n           returns (bytes32 _next_item)\n  {\n    _next_item = bytes32(next_item(self.data[_collection_index], bytes32(_current_item)));\n  }\n\n\n}\n",
  "sourcePath": "@digix/solidity-collections/contracts/lib/DoublyLinkedList.sol",
  "compiler": {
    "name": "solc",
    "version": "0.4.25+commit.59dbf8f1.Emscripten.clang"
  },
  "schemaVersion": "2.0.1",
  "updatedAt": "2019-03-05T03:50:20.968Z"
}