{
  "contractName": "DummyDGX",
  "abi": [
    {
      "constant": true,
      "inputs": [],
      "name": "name",
      "outputs": [
        {
          "name": "",
          "type": "string"
        }
      ],
      "payable": false,
      "stateMutability": "view",
      "type": "function"
    },
    {
      "constant": true,
      "inputs": [],
      "name": "decimals",
      "outputs": [
        {
          "name": "",
          "type": "uint8"
        }
      ],
      "payable": false,
      "stateMutability": "view",
      "type": "function"
    },
    {
      "constant": true,
      "inputs": [],
      "name": "symbol",
      "outputs": [
        {
          "name": "",
          "type": "string"
        }
      ],
      "payable": false,
      "stateMutability": "view",
      "type": "function"
    },
    {
      "inputs": [
        {
          "name": "_dummyDGXStorage",
          "type": "address"
        },
        {
          "name": "_feesAdmin",
          "type": "address"
        }
      ],
      "payable": false,
      "stateMutability": "nonpayable",
      "type": "constructor"
    },
    {
      "constant": true,
      "inputs": [],
      "name": "totalSupply",
      "outputs": [
        {
          "name": "_totalSupply",
          "type": "uint256"
        }
      ],
      "payable": false,
      "stateMutability": "view",
      "type": "function"
    },
    {
      "constant": true,
      "inputs": [
        {
          "name": "_owner",
          "type": "address"
        }
      ],
      "name": "balanceOf",
      "outputs": [
        {
          "name": "_balance",
          "type": "uint256"
        }
      ],
      "payable": false,
      "stateMutability": "view",
      "type": "function"
    },
    {
      "constant": false,
      "inputs": [
        {
          "name": "_to",
          "type": "address"
        },
        {
          "name": "_value",
          "type": "uint256"
        }
      ],
      "name": "transfer",
      "outputs": [
        {
          "name": "_success",
          "type": "bool"
        }
      ],
      "payable": false,
      "stateMutability": "nonpayable",
      "type": "function"
    },
    {
      "constant": false,
      "inputs": [
        {
          "name": "_from",
          "type": "address"
        },
        {
          "name": "_to",
          "type": "address"
        },
        {
          "name": "_value",
          "type": "uint256"
        }
      ],
      "name": "transferFrom",
      "outputs": [
        {
          "name": "_success",
          "type": "bool"
        }
      ],
      "payable": false,
      "stateMutability": "nonpayable",
      "type": "function"
    },
    {
      "constant": false,
      "inputs": [
        {
          "name": "_receiver",
          "type": "address"
        },
        {
          "name": "_amount",
          "type": "uint256"
        },
        {
          "name": "_data",
          "type": "bytes32"
        }
      ],
      "name": "transferAndCall",
      "outputs": [
        {
          "name": "_success",
          "type": "bool"
        }
      ],
      "payable": false,
      "stateMutability": "nonpayable",
      "type": "function"
    },
    {
      "constant": false,
      "inputs": [
        {
          "name": "_spender",
          "type": "address"
        },
        {
          "name": "_value",
          "type": "uint256"
        }
      ],
      "name": "approve",
      "outputs": [
        {
          "name": "_success",
          "type": "bool"
        }
      ],
      "payable": false,
      "stateMutability": "nonpayable",
      "type": "function"
    },
    {
      "constant": true,
      "inputs": [
        {
          "name": "_owner",
          "type": "address"
        },
        {
          "name": "_spender",
          "type": "address"
        }
      ],
      "name": "allowance",
      "outputs": [
        {
          "name": "_allowance",
          "type": "uint256"
        }
      ],
      "payable": false,
      "stateMutability": "view",
      "type": "function"
    },
    {
      "constant": false,
      "inputs": [
        {
          "name": "_user",
          "type": "address"
        },
        {
          "name": "_no_demurrage_fee",
          "type": "bool"
        },
        {
          "name": "_no_transfer_fee",
          "type": "bool"
        }
      ],
      "name": "updateUserFeesConfigs",
      "outputs": [
        {
          "name": "_success",
          "type": "bool"
        }
      ],
      "payable": false,
      "stateMutability": "nonpayable",
      "type": "function"
    },
    {
      "constant": true,
      "inputs": [],
      "name": "showDemurrageConfigs",
      "outputs": [
        {
          "name": "_base",
          "type": "uint256"
        },
        {
          "name": "_rate",
          "type": "uint256"
        },
        {
          "name": "_collector",
          "type": "address"
        },
        {
          "name": "_no_demurrage_fee",
          "type": "bool"
        }
      ],
      "payable": false,
      "stateMutability": "view",
      "type": "function"
    },
    {
      "constant": false,
      "inputs": [
        {
          "name": "_for",
          "type": "address"
        },
        {
          "name": "_amount",
          "type": "uint256"
        }
      ],
      "name": "mintDgxFor",
      "outputs": [
        {
          "name": "_success",
          "type": "bool"
        }
      ],
      "payable": false,
      "stateMutability": "nonpayable",
      "type": "function"
    },
    {
      "constant": false,
      "inputs": [
        {
          "name": "_of",
          "type": "address"
        },
        {
          "name": "_byMinutes",
          "type": "uint256"
        }
      ],
      "name": "modifyLastPaymentDate",
      "outputs": [
        {
          "name": "_success",
          "type": "bool"
        }
      ],
      "payable": false,
      "stateMutability": "nonpayable",
      "type": "function"
    }
  ],
  "bytecode": "0x608060405234801561001057600080fd5b506040516040806114b38339810180604052810190808051906020019092919080519060200190929190505050816000806101000a81548173ffffffffffffffffffffffffffffffffffffffff021916908373ffffffffffffffffffffffffffffffffffffffff16021790555080600160006101000a81548173ffffffffffffffffffffffffffffffffffffffff021916908373ffffffffffffffffffffffffffffffffffffffff16021790555050506113e4806100cf6000396000f3006080604052600436106100d0576000357c0100000000000000000000000000000000000000000000000000000000900463ffffffff16806306fdde03146100d5578063095ea7b31461016557806318160ddd146101ca57806323b872dd146101f5578063293f9a9c1461027a578063313ce567146102ea57806370a082311461031b5780638583e8231461037257806395d89b41146103e5578063a9059cbb14610475578063b59a7796146104da578063b9570c011461053f578063bb2e807a146105b2578063dd62ed3e14610617575b600080fd5b3480156100e157600080fd5b506100ea61068e565b6040518080602001828103825283818151815260200191508051906020019080838360005b8381101561012a57808201518184015260208101905061010f565b50505050905090810190601f1680156101575780820380516001836020036101000a031916815260200191505b509250505060405180910390f35b34801561017157600080fd5b506101b0600480360381019080803573ffffffffffffffffffffffffffffffffffffffff169060200190929190803590602001909291905050506106c7565b604051808215151515815260200191505060405180910390f35b3480156101d657600080fd5b506101df610804565b6040518082815260200191505060405180910390f35b34801561020157600080fd5b50610260600480360381019080803573ffffffffffffffffffffffffffffffffffffffff169060200190929190803573ffffffffffffffffffffffffffffffffffffffff169060200190929190803590602001909291905050506108cb565b604051808215151515815260200191505060405180910390f35b34801561028657600080fd5b5061028f610a4a565b604051808581526020018481526020018373ffffffffffffffffffffffffffffffffffffffff1673ffffffffffffffffffffffffffffffffffffffff1681526020018215151515815260200194505050505060405180910390f35b3480156102f657600080fd5b506102ff610b44565b604051808260ff1660ff16815260200191505060405180910390f35b34801561032757600080fd5b5061035c600480360381019080803573ffffffffffffffffffffffffffffffffffffffff169060200190929190505050610b49565b6040518082815260200191505060405180910390f35b34801561037e57600080fd5b506103cb600480360381019080803573ffffffffffffffffffffffffffffffffffffffff169060200190929190803515159060200190929190803515159060200190929190505050610c49565b604051808215151515815260200191505060405180910390f35b3480156103f157600080fd5b506103fa610dbf565b6040518080602001828103825283818151815260200191508051906020019080838360005b8381101561043a57808201518184015260208101905061041f565b50505050905090810190601f1680156104675780820380516001836020036101000a031916815260200191505b509250505060405180910390f35b34801561048157600080fd5b506104c0600480360381019080803573ffffffffffffffffffffffffffffffffffffffff16906020019092919080359060200190929190505050610df8565b604051808215151515815260200191505060405180910390f35b3480156104e657600080fd5b50610525600480360381019080803573ffffffffffffffffffffffffffffffffffffffff16906020019092919080359060200190929190505050610f61565b604051808215151515815260200191505060405180910390f35b34801561054b57600080fd5b50610598600480360381019080803573ffffffffffffffffffffffffffffffffffffffff16906020019092919080359060200190929190803560001916906020019092919050505061106a565b604051808215151515815260200191505060405180910390f35b3480156105be57600080fd5b506105fd600480360381019080803573ffffffffffffffffffffffffffffffffffffffff1690602001909291908035906020019092919050505061117a565b604051808215151515815260200191505060405180910390f35b34801561062357600080fd5b50610678600480360381019080803573ffffffffffffffffffffffffffffffffffffffff169060200190929190803573ffffffffffffffffffffffffffffffffffffffff169060200190929190505050611283565b6040518082815260200191505060405180910390f35b6040805190810160405280601681526020017f44756d6d7920446967697820476f6c6420546f6b656e0000000000000000000081525081565b60008060009054906101000a900473ffffffffffffffffffffffffffffffffffffffff1673ffffffffffffffffffffffffffffffffffffffff1663779b742c3385856040518463ffffffff167c0100000000000000000000000000000000000000000000000000000000028152600401808473ffffffffffffffffffffffffffffffffffffffff1673ffffffffffffffffffffffffffffffffffffffff1681526020018373ffffffffffffffffffffffffffffffffffffffff1673ffffffffffffffffffffffffffffffffffffffff1681526020018281526020019350505050602060405180830381600087803b1580156107c157600080fd5b505af11580156107d5573d6000803e3d6000fd5b505050506040513d60208110156107eb57600080fd5b8101908080519060200190929190505050905092915050565b60008060009054906101000a900473ffffffffffffffffffffffffffffffffffffffff1673ffffffffffffffffffffffffffffffffffffffff166357e7946f6040518163ffffffff167c0100000000000000000000000000000000000000000000000000000000028152600401602060405180830381600087803b15801561088b57600080fd5b505af115801561089f573d6000803e3d6000fd5b505050506040513d60208110156108b557600080fd5b8101908080519060200190929190505050905090565b60008060009054906101000a900473ffffffffffffffffffffffffffffffffffffffff1673ffffffffffffffffffffffffffffffffffffffff166392846ab68585338660016040518663ffffffff167c0100000000000000000000000000000000000000000000000000000000028152600401808673ffffffffffffffffffffffffffffffffffffffff1673ffffffffffffffffffffffffffffffffffffffff1681526020018573ffffffffffffffffffffffffffffffffffffffff1673ffffffffffffffffffffffffffffffffffffffff1681526020018473ffffffffffffffffffffffffffffffffffffffff1673ffffffffffffffffffffffffffffffffffffffff1681526020018381526020018215151515815260200195505050505050602060405180830381600087803b158015610a0657600080fd5b505af1158015610a1a573d6000803e3d6000fd5b505050506040513d6020811015610a3057600080fd5b810190808051906020019092919050505090509392505050565b6000806000806000809054906101000a900473ffffffffffffffffffffffffffffffffffffffff1673ffffffffffffffffffffffffffffffffffffffff1663493f8d306040518163ffffffff167c0100000000000000000000000000000000000000000000000000000000028152600401608060405180830381600087803b158015610ad557600080fd5b505af1158015610ae9573d6000803e3d6000fd5b505050506040513d6080811015610aff57600080fd5b81019080805190602001909291908051906020019092919080519060200190929190805190602001909291905050508094508195508296508397505050505090919293565b600981565b60008060009054906101000a900473ffffffffffffffffffffffffffffffffffffffff1673ffffffffffffffffffffffffffffffffffffffff166376cab952836040518263ffffffff167c0100000000000000000000000000000000000000000000000000000000028152600401808273ffffffffffffffffffffffffffffffffffffffff1673ffffffffffffffffffffffffffffffffffffffff168152602001915050602060405180830381600087803b158015610c0757600080fd5b505af1158015610c1b573d6000803e3d6000fd5b505050506040513d6020811015610c3157600080fd5b81019080805190602001909291905050509050919050565b6000600160009054906101000a900473ffffffffffffffffffffffffffffffffffffffff1673ffffffffffffffffffffffffffffffffffffffff163373ffffffffffffffffffffffffffffffffffffffff16141515610ca757600080fd5b6000809054906101000a900473ffffffffffffffffffffffffffffffffffffffff1673ffffffffffffffffffffffffffffffffffffffff16630ca9f65c8585856040518463ffffffff167c0100000000000000000000000000000000000000000000000000000000028152600401808473ffffffffffffffffffffffffffffffffffffffff1673ffffffffffffffffffffffffffffffffffffffff16815260200183151515158152602001821515151581526020019350505050602060405180830381600087803b158015610d7b57600080fd5b505af1158015610d8f573d6000803e3d6000fd5b505050506040513d6020811015610da557600080fd5b810190808051906020019092919050505090509392505050565b6040805190810160405280600881526020017f44756d6d7944475800000000000000000000000000000000000000000000000081525081565b60008060009054906101000a900473ffffffffffffffffffffffffffffffffffffffff1673ffffffffffffffffffffffffffffffffffffffff166392846ab6338560008660006040518663ffffffff167c0100000000000000000000000000000000000000000000000000000000028152600401808673ffffffffffffffffffffffffffffffffffffffff1673ffffffffffffffffffffffffffffffffffffffff1681526020018573ffffffffffffffffffffffffffffffffffffffff1673ffffffffffffffffffffffffffffffffffffffff1681526020018473ffffffffffffffffffffffffffffffffffffffff1681526020018381526020018215151515815260200195505050505050602060405180830381600087803b158015610f1e57600080fd5b505af1158015610f32573d6000803e3d6000fd5b505050506040513d6020811015610f4857600080fd5b8101908080519060200190929190505050905092915050565b60008060009054906101000a900473ffffffffffffffffffffffffffffffffffffffff1673ffffffffffffffffffffffffffffffffffffffff16635722b67f84846040518363ffffffff167c0100000000000000000000000000000000000000000000000000000000028152600401808373ffffffffffffffffffffffffffffffffffffffff1673ffffffffffffffffffffffffffffffffffffffff16815260200182815260200192505050602060405180830381600087803b15801561102757600080fd5b505af115801561103b573d6000803e3d6000fd5b505050506040513d602081101561105157600080fd5b8101908080519060200190929190505050905092915050565b60006110768484610df8565b508373ffffffffffffffffffffffffffffffffffffffff16638397cc943385856040518463ffffffff167c0100000000000000000000000000000000000000000000000000000000028152600401808473ffffffffffffffffffffffffffffffffffffffff1673ffffffffffffffffffffffffffffffffffffffff16815260200183815260200182600019166000191681526020019350505050602060405180830381600087803b15801561112a57600080fd5b505af115801561113e573d6000803e3d6000fd5b505050506040513d602081101561115457600080fd5b8101908080519060200190929190505050905080151561117357600080fd5b9392505050565b60008060009054906101000a900473ffffffffffffffffffffffffffffffffffffffff1673ffffffffffffffffffffffffffffffffffffffff1663e1ed956b84846040518363ffffffff167c0100000000000000000000000000000000000000000000000000000000028152600401808373ffffffffffffffffffffffffffffffffffffffff1673ffffffffffffffffffffffffffffffffffffffff16815260200182815260200192505050602060405180830381600087803b15801561124057600080fd5b505af1158015611254573d6000803e3d6000fd5b505050506040513d602081101561126a57600080fd5b8101908080519060200190929190505050905092915050565b60008060009054906101000a900473ffffffffffffffffffffffffffffffffffffffff1673ffffffffffffffffffffffffffffffffffffffff1663d28b43f484846040518363ffffffff167c0100000000000000000000000000000000000000000000000000000000028152600401808373ffffffffffffffffffffffffffffffffffffffff1673ffffffffffffffffffffffffffffffffffffffff1681526020018273ffffffffffffffffffffffffffffffffffffffff1673ffffffffffffffffffffffffffffffffffffffff16815260200192505050602060405180830381600087803b15801561137557600080fd5b505af1158015611389573d6000803e3d6000fd5b505050506040513d602081101561139f57600080fd5b81019080805190602001909291905050509050929150505600a165627a7a723058204d14cb96daf1910b5fab6528f1d7a540c9b2afdaa8f8ffd27e4490079d2a1ab10029",
  "source": "pragma solidity ^0.4.23;\n\nimport \"./DummyDGXStorage.sol\";\n\ncontract DummyDGX {\n\n  address DGX_STORAGE_ADDRESS;\n  address FEES_ADMIN;\n\n  string public constant name = \"Dummy Digix Gold Token\";\n  string public constant symbol = \"DummyDGX\";\n  uint8 public constant decimals = 9;\n\n  constructor(address _dummyDGXStorage, address _feesAdmin)\n    public\n  {\n    DGX_STORAGE_ADDRESS = _dummyDGXStorage;\n    FEES_ADMIN = _feesAdmin;\n  }\n\n  modifier if_fees_admin() {\n    require(msg.sender == FEES_ADMIN);\n    _;\n  }\n\n  function totalSupply()\n    public\n    constant\n    returns (uint256 _totalSupply)\n  {\n    _totalSupply = DummyDGXStorage(DGX_STORAGE_ADDRESS).read_total_supply();\n  }\n\n  function balanceOf(address _owner)\n    public\n    constant\n    returns (uint256 _balance)\n  {\n    _balance = DummyDGXStorage(DGX_STORAGE_ADDRESS).show_demurraged_balance(_owner);\n  }\n\n  function transfer(address _to, uint256 _value)\n    public\n    returns (bool _success)\n  {\n    _success = DummyDGXStorage(DGX_STORAGE_ADDRESS).put_transfer(msg.sender, _to, 0x0, _value, false);\n  }\n\n  function transferFrom(\n    address _from,\n    address _to,\n    uint256 _value\n  )\n    public\n    returns (bool _success)\n  {\n    _success = DummyDGXStorage(DGX_STORAGE_ADDRESS).put_transfer(_from, _to, msg.sender, _value, true);\n  }\n\n  function transferAndCall(\n    address _receiver,\n    uint256 _amount,\n    bytes32 _data\n  )\n    public\n    returns (bool _success)\n  {\n    transfer(_receiver, _amount);\n    _success = TokenReceiver(_receiver).tokenFallback(msg.sender, _amount, _data);\n    require(_success);\n  }\n\n  function approve(address _spender, uint256 _value)\n    public\n    returns (bool _success)\n  {\n    _success = DummyDGXStorage(DGX_STORAGE_ADDRESS).put_approve(msg.sender, _spender, _value);\n  }\n\n  function allowance(address _owner, address _spender)\n    public\n    constant\n    returns (uint256 _allowance)\n  {\n    _allowance = DummyDGXStorage(DGX_STORAGE_ADDRESS).read_allowance(_owner, _spender);\n  }\n\n  function updateUserFeesConfigs(\n    address _user,\n    bool _no_demurrage_fee,\n    bool _no_transfer_fee\n  )\n    public\n    if_fees_admin()\n    returns (bool _success)\n  {\n    _success = DummyDGXStorage(DGX_STORAGE_ADDRESS).update_user_fees_configs(\n      _user,\n      _no_demurrage_fee,\n      _no_transfer_fee\n    );\n  }\n\n  function showDemurrageConfigs()\n    public\n    constant\n    returns (\n      uint256 _base,\n      uint256 _rate,\n      address _collector,\n      bool _no_demurrage_fee\n    )\n  {\n    (_base, _rate, _collector, _no_demurrage_fee) = DummyDGXStorage(DGX_STORAGE_ADDRESS).read_demurrage_config_underlying();\n  }\n\n  ////////////////////////////// MOCK FUNCTIONS ///////////////////////////////\n\n  // This function is not present in the DGX2.0 token contracts.\n  // For test purpose, only used to bypass the POP process\n  function mintDgxFor(address _for, uint256 _amount)\n    public\n    returns (bool _success)\n  {\n    _success = DummyDGXStorage(DGX_STORAGE_ADDRESS).mint_dgx_for(_for, _amount);\n  }\n\n  // This function is not present in the DGX2.0 token contracts.\n  // For test purpose, only used to simulate demurrage deduction\n  function modifyLastPaymentDate(address _of, uint256 _byMinutes)\n    public\n    returns (bool _success)\n  {\n    _success = DummyDGXStorage(DGX_STORAGE_ADDRESS).modify_last_payment_date(_of, _byMinutes);\n  }\n}\n",
  "sourcePath": "@digix/lite-dgx-contract/contracts/DummyDGX.sol",
  "compiler": {
    "name": "solc",
    "version": "0.4.25+commit.59dbf8f1.Emscripten.clang"
  },
  "schemaVersion": "2.0.2",
  "updatedAt": "2019-03-25T02:22:48.861Z"
}