{
  "contractName": "MathUtils",
  "abi": [
    {
      "constant": true,
      "inputs": [
        {
          "name": "_a",
          "type": "uint256"
        },
        {
          "name": "_b",
          "type": "uint256"
        }
      ],
      "name": "add",
      "outputs": [
        {
          "name": "_result",
          "type": "uint256"
        }
      ],
      "payable": false,
      "stateMutability": "pure",
      "type": "function"
    },
    {
      "constant": true,
      "inputs": [
        {
          "name": "_a",
          "type": "uint256"
        },
        {
          "name": "_b",
          "type": "uint256"
        }
      ],
      "name": "subtract",
      "outputs": [
        {
          "name": "_result",
          "type": "uint256"
        }
      ],
      "payable": false,
      "stateMutability": "pure",
      "type": "function"
    },
    {
      "constant": true,
      "inputs": [
        {
          "name": "_asset_weight",
          "type": "uint256"
        },
        {
          "name": "_unit_size",
          "type": "uint256"
        },
        {
          "name": "_fee_per_unit",
          "type": "uint256"
        }
      ],
      "name": "calculate_recast_fee",
      "outputs": [
        {
          "name": "_recast_fee",
          "type": "uint256"
        }
      ],
      "payable": false,
      "stateMutability": "pure",
      "type": "function"
    }
  ],
  "bytecode": "0x6101d4610030600b82828239805160001a6073146000811461002057610022565bfe5b5030600052607381538281f300730000000000000000000000000000000000000000301460806040526004361061006e576000357c0100000000000000000000000000000000000000000000000000000000900463ffffffff1680633ef5e44514610073578063771602f7146100b1578063a30d6c9f146100ef575b600080fd5b61009b6004803603810190808035906020019092919080359060200190929190505050610137565b6040518082815260200191505060405180910390f35b6100d96004803603810190808035906020019092919080359060200190929190505050610153565b6040518082815260200191505060405180910390f35b61012160048036038101908080359060200190929190803590602001909291908035906020019092919050505061016e565b6040518082815260200191505060405180910390f35b600081831015151561014857600080fd5b818303905092915050565b60008183019050828111151561016857600080fd5b92915050565b600080828502905082858281151561018257fe5b0414151561018f57600080fd5b838181151561019a57fe5b0491508191505093925050505600a165627a7a723058207e0f874a08d745165effb437ca3d161c4b82e75110269712d4c83a461db1d6060029",
  "source": "pragma solidity ^0.4.19;\n\n/// @title Digix Math Library\n/// @author DigixGlobal\n\nlibrary MathUtils {\n\n  /*modifier if_safe_to_add(uint256 _x, uint256 _y) {\n    require(is_safe_to_add(_x, _y) == true);\n    _;\n  }\n\n  modifier if_safe_to_subtract(uint256 _x, uint256 _y) {\n    require(is_safe_to_subtract(_x, _y) == true);\n    _;\n  }*/\n\n  /*uint256 constant ONE_DAY = 1 days;*/\n\n  /// DEPRECATED\n  /// @notice Call with two integers to determine if they are safe to add\n  /// @dev Catches integer overflow\n  /// param _a Integer to add\n  /// param _b Integer to add\n  /// @return _issafe True if the integers are safe to add\n  /*function is_safe_to_add(uint256 _a, uint256 _b)\n           public\n           constant\n           returns (bool _is_safe)\n  {\n    _is_safe = (_a + _b >= _a);\n    return _is_safe;\n  }*/\n\n  /// @notice Returns sum of two safely-added integers\n  /// @dev Uses `safeToAdd` internally; throws if unsafe\n  /// @param _a Integer to add\n  /// @param _b Integer to add\n  /// @return _result Sum of inputs\n  function add(uint256 _a, uint256 _b)\n           public\n           pure\n           returns (uint256 _result)\n  {\n    _result = _a + _b;\n    require(_result > _a);\n  }\n\n  /// DEPRECATED\n  /// @notice Call with two integers to determine if they are safe to subtract\n  /// @dev Catches integer overflow\n  /// param _a Integer to subtract from\n  /// param _b Integer to subtract\n  /// @return _issafe True if the integers are safe to subtract\n  /*function is_safe_to_subtract(uint256 _a, uint256 _b)\n           public\n           constant\n           returns (bool _is_safe)\n  {\n    _is_safe = (_b <= _a);\n    return _is_safe;\n  }*/\n\n  /// @notice Returns result of two safely-subtracted integers\n  /// @dev Uses `safeToSubtract` internally; throws if unsafe\n  /// @param _a Integer to subtract from\n  /// @param _b Integer to subtract\n  /// @return _result Result of subtraction\n  function subtract(uint256 _a, uint256 _b)\n           public\n           pure\n           returns (uint _result)\n  {\n    require(_a >= _b);\n    _result = _a - _b;\n  }\n\n  /// DEPRECATED\n  ///# @notice Calculates the rate of ???\n  ///# @dev `((_unit * _a) + _b / 2) / _b`\n  ///# paramm _a ??\n  ///# paramm _b ??\n  ///# paramm _places Number of decimal places\n  ///# @return _result Result of subtraction\n  /*function rate_of(uint256 _a, uint256 _b, uint256 _places)\n           public\n           constant\n           returns (uint256 _result)\n  {\n    var _unit = 10 ** _places;\n    _result = add((_unit * _a), (_b / 2)) / _b;\n    return _result;\n  }*/\n\n  /// DEPRECATED\n  ///# @notice Calculates the rate from ???\n  ///# @dev `(_amount * _baserate) / (10 ** _places)`\n  ///# paramm _amount ??\n  ///# paramm _baserate ??\n  ///# paramm _places ??\n  ///# @return _fee Calculated Fee\n  /*function from_rate(uint256 _amount, uint256 _baserate, uint256 _places)\n           returns (uint256 _fee)\n  {\n    _fee = ((_amount * _baserate) / (10 ** _places));\n    return _fee;\n  }*/\n\n  /// DEPRECATED\n  ///# @notice Calculate demurrage time values\n  ///# paramm _current_time Current block time\n  ///# paramm _last_payment_date Last demurrage payment date\n  ///# @return {\n  ///   \"_next_payment_date\": \"Next payment date as unix time\",\n  ///   \"_demurrage_days\": \"Demurrage days calculated\"\n  /// }\n  /*function calculate_demurrage_time(uint256 _current_time, uint256 _last_payment_date)\n           returns (uint256 _next_payment_date, uint256 _demurrage_days)\n  {\n    var _time_difference = subtract(_current_time, _last_payment_date);\n    _demurrage_days = _time_difference / (1 days);\n    var _remainder = _time_difference % (1 days);\n    var _demurrage_seconds = _demurrage_days * (1 days);\n    _next_payment_date = subtract(add(_last_payment_date, _demurrage_seconds), _remainder);\n    return (_next_payment_date, _demurrage_days);\n  }*/\n\n  /// DEPRECATED\n  ///# @notice Calculate demurrage fee\n  ///# paramm _demurrage_days Days since last demurrage payment\n  ///# paramm _unit_size Minimum amount for demurrage fees\n  ///# paramm _fee_per_unit Amount of daily demurrage to deduct for every `_demurrage_minimum`\n  ///# paramm _raw_balance Account balance\n  ///# @return _demurrage_fee The demurrage fee due\n  /*function calculate_demurrage_fee(uint256 _demurrage_days, uint256 _unit_size, uint256 _fee_per_unit, uint256 _raw_balance)\n           returns (uint256 _demurrage_fee)\n  {\n    if (_demurrage_days == 0) {\n      _demurrage_fee = 0;\n    } else {\n      var _billable_amount = (_raw_balance / _unit_size);\n      _demurrage_fee = (_billable_amount * _demurrage_days * _fee_per_unit);\n    }\n    return _demurrage_fee;\n  }*/\n\n  /// DEPRECATED\n  ///# @notice Get demurrage info\n  ///# paramm _current_time Current block time\n  ///# paramm _last_payment_date Last demurrage payment date\n  ///# paramm _raw_balance Account balance\n  ///# paramm _unit_size Minimum amount needed to charge demurrage fees\n  ///# paramm _fee_per_unit The amount of daily demurrage deduct for every `_minimum_for_demurrage`\n  /// @return {\n  ///    \"_demurrage_fee\": \"Fee charged against current balance\",\n  ///    \"_demurrage_days\": \"Demurrage days calculated\",\n  ///    \"_billable_amount\": \"Amount eligible for demurrage calculation\",\n  ///    \"_next_payment_date\": \"Timestamp to use for next payment date\"\n  /// }\n  /*function get_demurrage_info(uint256 _current_time, uint256 _last_payment_date, uint256 _raw_balance, uint256 _unit_size, uint256 _fee_per_unit)\n           returns (uint256 _demurrage_fee, uint256 _demurrage_days, uint256 _balance_after, uint256 _next_payment_date)\n  {\n    _demurrage_days = (subtract(_current_time, _last_payment_date)) / ONE_DAY;\n    uint256 _billable_amount = (_raw_balance / _unit_size);\n    if (_demurrage_days == 0) {\n      _demurrage_fee = 0;\n      _next_payment_date = _last_payment_date;\n      _balance_after = _raw_balance;\n    } else {\n      _demurrage_fee = (_billable_amount * _demurrage_days * _fee_per_unit);\n      var _remainder = subtract(_current_time, _last_payment_date) % ONE_DAY;\n      _next_payment_date = subtract(add(_last_payment_date, (_demurrage_days * ONE_DAY)), _remainder);\n      _balance_after = subtract(_raw_balance, _demurrage_fee);\n    }\n    return (_demurrage_fee, _demurrage_days, _balance_after, _next_payment_date);\n  }*/\n\n  /// DEPRECATED\n  ///# @notice Calculate Transaction Fee\n  ///# paramm _sending_amount The amount being sent\n  ///# paramm _unit_size The minimum amount that can be sent\n  ///# paramm _fee_per_unit The fee per unit\n  ///# @return _tx_fee The transaction fee due\n  /*function get_tx_fee(uint256 _sending_amount, uint256 _unit_size, uint256 _fee_per_unit)\n           returns (uint256 _tx_fee)\n  {\n    _tx_fee = (_sending_amount / _unit_size) * _fee_per_unit;\n    return _tx_fee;\n  }*/\n\n  function calculate_recast_fee(uint256 _asset_weight, uint256 _unit_size, uint256 _fee_per_unit)\n           public\n           pure\n           returns (uint256 _recast_fee)\n  {\n    uint256 _weight_times_fee_per_unit = _asset_weight * _fee_per_unit;\n    require(_weight_times_fee_per_unit / _asset_weight == _fee_per_unit);\n    _recast_fee = _weight_times_fee_per_unit / _unit_size;\n    return _recast_fee;\n  }\n\n}\n",
  "sourcePath": "@digix/solidity-core-libraries/contracts/MathUtils.sol",
  "compiler": {
    "name": "solc",
    "version": "0.4.25+commit.59dbf8f1.Emscripten.clang"
  },
  "schemaVersion": "2.0.2",
  "updatedAt": "2019-03-29T03:16:45.865Z"
}