{
  "contractName": "MockDgxDemurrageCalculator",
  "abi": [
    {
      "constant": true,
      "inputs": [],
      "name": "TOKEN_ADDRESS",
      "outputs": [
        {
          "name": "",
          "type": "address"
        }
      ],
      "payable": false,
      "stateMutability": "view",
      "type": "function"
    },
    {
      "inputs": [
        {
          "name": "_token_address",
          "type": "address"
        }
      ],
      "payable": false,
      "stateMutability": "nonpayable",
      "type": "constructor"
    },
    {
      "constant": true,
      "inputs": [
        {
          "name": "_initial_balance",
          "type": "uint256"
        },
        {
          "name": "_days_elapsed",
          "type": "uint256"
        }
      ],
      "name": "calculateDemurrage",
      "outputs": [
        {
          "name": "_demurrage_fees",
          "type": "uint256"
        },
        {
          "name": "_no_demurrage_fees",
          "type": "bool"
        }
      ],
      "payable": false,
      "stateMutability": "view",
      "type": "function"
    }
  ],
  "bytecode": "0x608060405234801561001057600080fd5b506040516020806102ee83398101806040528101908080519060200190929190505050806000806101000a81548173ffffffffffffffffffffffffffffffffffffffff021916908373ffffffffffffffffffffffffffffffffffffffff1602179055505061026b806100836000396000f30060806040526004361061004c576000357c0100000000000000000000000000000000000000000000000000000000900463ffffffff1680630bdf530014610051578063120c52ef146100a8575b600080fd5b34801561005d57600080fd5b506100666100fe565b604051808273ffffffffffffffffffffffffffffffffffffffff1673ffffffffffffffffffffffffffffffffffffffff16815260200191505060405180910390f35b3480156100b457600080fd5b506100dd6004803603810190808035906020019092919080359060200190929190505050610123565b60405180838152602001821515151581526020019250505060405180910390f35b6000809054906101000a900473ffffffffffffffffffffffffffffffffffffffff1681565b600080600080610131610216565b73ffffffffffffffffffffffffffffffffffffffff1663293f9a9c6040518163ffffffff167c0100000000000000000000000000000000000000000000000000000000028152600401608060405180830381600087803b15801561019457600080fd5b505af11580156101a8573d6000803e3d6000fd5b505050506040513d60808110156101be57600080fd5b8101908080519060200190929190805190602001909291908051906020019092919080519060200190929190505050905080955081935082945050505081818688020281151561020a57fe5b04935050509250929050565b60008060009054906101000a900473ffffffffffffffffffffffffffffffffffffffff169050905600a165627a7a72305820b5f517e1b5e55f515e1632b4a2f626a12a0ecb20726d29370d37cf0944dfa1600029",
  "source": "pragma solidity ^0.4.25;\n\nimport \"@digix/lite-dgx-contract/contracts/DummyDGX.sol\";\n\n/// @title Digix Gold Token Demurrage Calculator\n/// @author Digix Holdings Pte Ltd\n/// @notice This contract is meant to be used by exchanges/other parties who want to calculate the DGX demurrage fees, provided an initial balance and the days elapsed\ncontract MockDgxDemurrageCalculator {\n    address public TOKEN_ADDRESS;\n\n    function token() internal view returns (DummyDGX _token) {\n        _token = DummyDGX(TOKEN_ADDRESS);\n    }\n\n    constructor(address _token_address) public {\n        TOKEN_ADDRESS = _token_address;\n    }\n\n    function calculateDemurrage(uint256 _initial_balance, uint256 _days_elapsed)\n        public\n        view\n        returns (uint256 _demurrage_fees, bool _no_demurrage_fees)\n    {\n        uint256 _base;\n        uint256 _rate;\n        (_base, _rate,,_no_demurrage_fees) = token().showDemurrageConfigs();\n        _demurrage_fees = (_initial_balance * _days_elapsed * _rate) / _base;\n    }\n}\n",
  "sourcePath": "/home/vu/digix/dao-contracts/contracts/mock/MockDgxDemurrageCalculator.sol",
  "compiler": {
    "name": "solc",
    "version": "0.4.25+commit.59dbf8f1.Emscripten.clang"
  },
  "schemaVersion": "2.0.2",
  "updatedAt": "2019-03-12T07:53:08.861Z"
}