{
  "contractName": "MockDgxDemurrageReporter",
  "abi": [
    {
      "constant": true,
      "inputs": [],
      "name": "TOKEN_ADDRESS",
      "outputs": [
        {
          "name": "",
          "type": "address"
        }
      ],
      "payable": false,
      "stateMutability": "view",
      "type": "function"
    },
    {
      "constant": true,
      "inputs": [
        {
          "name": "_initial_balance",
          "type": "uint256"
        },
        {
          "name": "_days_elapsed",
          "type": "uint256"
        }
      ],
      "name": "calculateDemurrage",
      "outputs": [
        {
          "name": "_demurrage_fees",
          "type": "uint256"
        },
        {
          "name": "_no_demurrage_fees",
          "type": "bool"
        }
      ],
      "payable": false,
      "stateMutability": "view",
      "type": "function"
    },
    {
      "constant": false,
      "inputs": [],
      "name": "claimOwnership",
      "outputs": [],
      "payable": false,
      "stateMutability": "nonpayable",
      "type": "function"
    },
    {
      "constant": true,
      "inputs": [],
      "name": "last_demurrageable_balance",
      "outputs": [
        {
          "name": "",
          "type": "uint256"
        }
      ],
      "payable": false,
      "stateMutability": "view",
      "type": "function"
    },
    {
      "constant": false,
      "inputs": [],
      "name": "renounceOwnership",
      "outputs": [],
      "payable": false,
      "stateMutability": "nonpayable",
      "type": "function"
    },
    {
      "constant": true,
      "inputs": [],
      "name": "culmulative_demurrage_collected",
      "outputs": [
        {
          "name": "",
          "type": "uint256"
        }
      ],
      "payable": false,
      "stateMutability": "view",
      "type": "function"
    },
    {
      "constant": true,
      "inputs": [],
      "name": "owner",
      "outputs": [
        {
          "name": "",
          "type": "address"
        }
      ],
      "payable": false,
      "stateMutability": "view",
      "type": "function"
    },
    {
      "constant": true,
      "inputs": [],
      "name": "start_of_report_period",
      "outputs": [
        {
          "name": "",
          "type": "uint256"
        }
      ],
      "payable": false,
      "stateMutability": "view",
      "type": "function"
    },
    {
      "constant": true,
      "inputs": [],
      "name": "last_payment_timestamp",
      "outputs": [
        {
          "name": "",
          "type": "uint256"
        }
      ],
      "payable": false,
      "stateMutability": "view",
      "type": "function"
    },
    {
      "constant": true,
      "inputs": [
        {
          "name": "",
          "type": "uint256"
        }
      ],
      "name": "exempted_accounts",
      "outputs": [
        {
          "name": "",
          "type": "address"
        }
      ],
      "payable": false,
      "stateMutability": "view",
      "type": "function"
    },
    {
      "constant": true,
      "inputs": [],
      "name": "pendingOwner",
      "outputs": [
        {
          "name": "",
          "type": "address"
        }
      ],
      "payable": false,
      "stateMutability": "view",
      "type": "function"
    },
    {
      "constant": false,
      "inputs": [
        {
          "name": "newOwner",
          "type": "address"
        }
      ],
      "name": "transferOwnership",
      "outputs": [],
      "payable": false,
      "stateMutability": "nonpayable",
      "type": "function"
    },
    {
      "inputs": [
        {
          "name": "_token_address",
          "type": "address"
        }
      ],
      "payable": false,
      "stateMutability": "nonpayable",
      "type": "constructor"
    },
    {
      "anonymous": false,
      "inputs": [
        {
          "indexed": true,
          "name": "previousOwner",
          "type": "address"
        }
      ],
      "name": "OwnershipRenounced",
      "type": "event"
    },
    {
      "anonymous": false,
      "inputs": [
        {
          "indexed": true,
          "name": "previousOwner",
          "type": "address"
        },
        {
          "indexed": true,
          "name": "newOwner",
          "type": "address"
        }
      ],
      "name": "OwnershipTransferred",
      "type": "event"
    },
    {
      "constant": false,
      "inputs": [
        {
          "name": "_account",
          "type": "address"
        }
      ],
      "name": "addExemptedAccount",
      "outputs": [],
      "payable": false,
      "stateMutability": "nonpayable",
      "type": "function"
    },
    {
      "constant": false,
      "inputs": [],
      "name": "updateDemurrageReporter",
      "outputs": [],
      "payable": false,
      "stateMutability": "nonpayable",
      "type": "function"
    },
    {
      "constant": false,
      "inputs": [
        {
          "name": "_new_last_payment_timestamp",
          "type": "uint256"
        }
      ],
      "name": "changeLastPaymentTimestamp",
      "outputs": [],
      "payable": false,
      "stateMutability": "nonpayable",
      "type": "function"
    }
  ],
  "bytecode": "0x60806040523480156200001157600080fd5b50604051602080620014d88339810180604052810190808051906020019092919050505080806000806101000a81548173ffffffffffffffffffffffffffffffffffffffff021916908373ffffffffffffffffffffffffffffffffffffffff1602179055505033600160006101000a81548173ffffffffffffffffffffffffffffffffffffffff021916908373ffffffffffffffffffffffffffffffffffffffff1602179055504260078190555042600581905550620000df620000e6640100000000026401000000009004565b50620005f3565b620000f06200059c565b60008060055483600001516000018181525050620001296201518084620002676401000000000262000b8d179091906401000000009004565b92506200014462000315640100000000026401000000009004565b73ffffffffffffffffffffffffffffffffffffffff1663293f9a9c6040518163ffffffff167c0100000000000000000000000000000000000000000000000000000000028152600401608060405180830381600087803b158015620001a857600080fd5b505af1158015620001bd573d6000803e3d6000fd5b505050506040513d6080811015620001d457600080fd5b810190808051906020019092919080519060200190929190805190602001909291908051906020019092919050505090505080925081935050508181600454856020015102028115156200022457fe5b046006600082825401925050819055508260000151602001516005819055506200025c6200033e640100000000026401000000009004565b600481905550505050565b620002716200059c565b60008084925084600001516000015142101515156200028f57600080fd5b846000015160000151420391508382811515620002a857fe5b04836020018181525050838360200151029050600083602001511415620002e557846000015160000151836000015160200181815250506200030d565b620003048360000151826200055f640100000000026401000000009004565b83600001819052505b505092915050565b60008060009054906101000a900473ffffffffffffffffffffffffffffffffffffffff16905090565b6000806000806200035d62000315640100000000026401000000009004565b73ffffffffffffffffffffffffffffffffffffffff166318160ddd6040518163ffffffff167c0100000000000000000000000000000000000000000000000000000000028152600401602060405180830381600087803b158015620003c157600080fd5b505af1158015620003d6573d6000803e3d6000fd5b505050506040513d6020811015620003ed57600080fd5b8101908080519060200190929190505050925060009150600090505b60038054905081101562000554576200043062000315640100000000026401000000009004565b73ffffffffffffffffffffffffffffffffffffffff166370a082316003838154811015156200045b57fe5b9060005260206000200160009054906101000a900473ffffffffffffffffffffffffffffffffffffffff166040518263ffffffff167c0100000000000000000000000000000000000000000000000000000000028152600401808273ffffffffffffffffffffffffffffffffffffffff1673ffffffffffffffffffffffffffffffffffffffff168152602001915050602060405180830381600087803b1580156200050557600080fd5b505af11580156200051a573d6000803e3d6000fd5b505050506040513d60208110156200053157600080fd5b810190808051906020019092919050505082019150808060010191505062000409565b818303935050505090565b62000569620005bf565b826000015182846000015101101515156200058357600080fd5b8290508183600001510181602001818152505092915050565b606060405190810160405280620005b2620005d9565b8152602001600081525090565b604080519081016040528060008152602001600081525090565b604080519081016040528060008152602001600081525090565b610ed580620006036000396000f3006080604052600436106100db576000357c0100000000000000000000000000000000000000000000000000000000900463ffffffff1680630bdf5300146100e0578063120c52ef1461013757806329781ec81461018d57806345278394146101d05780634e71e0c8146101e757806359ceb36f146101fe578063715018a61461022957806371a17521146102405780637fe275d41461026d5780638da5cb5b146102985780639634ef56146102ef578063c90796731461031a578063dcf53e0b14610345578063e30c3978146103b2578063f2fde38b14610409575b600080fd5b3480156100ec57600080fd5b506100f561044c565b604051808273ffffffffffffffffffffffffffffffffffffffff1673ffffffffffffffffffffffffffffffffffffffff16815260200191505060405180910390f35b34801561014357600080fd5b5061016c6004803603810190808035906020019092919080359060200190929190505050610471565b60405180838152602001821515151581526020019250505060405180910390f35b34801561019957600080fd5b506101ce600480360381019080803573ffffffffffffffffffffffffffffffffffffffff169060200190929190505050610564565b005b3480156101dc57600080fd5b506101e5610629565b005b3480156101f357600080fd5b506101fc610772565b005b34801561020a57600080fd5b50610213610913565b6040518082815260200191505060405180910390f35b34801561023557600080fd5b5061023e610919565b005b34801561024c57600080fd5b5061026b60048036038101908080359060200190929190505050610a1e565b005b34801561027957600080fd5b50610282610a28565b6040518082815260200191505060405180910390f35b3480156102a457600080fd5b506102ad610a2e565b604051808273ffffffffffffffffffffffffffffffffffffffff1673ffffffffffffffffffffffffffffffffffffffff16815260200191505060405180910390f35b3480156102fb57600080fd5b50610304610a54565b6040518082815260200191505060405180910390f35b34801561032657600080fd5b5061032f610a5a565b6040518082815260200191505060405180910390f35b34801561035157600080fd5b5061037060048036038101908080359060200190929190505050610a60565b604051808273ffffffffffffffffffffffffffffffffffffffff1673ffffffffffffffffffffffffffffffffffffffff16815260200191505060405180910390f35b3480156103be57600080fd5b506103c7610a9e565b604051808273ffffffffffffffffffffffffffffffffffffffff1673ffffffffffffffffffffffffffffffffffffffff16815260200191505060405180910390f35b34801561041557600080fd5b5061044a600480360381019080803573ffffffffffffffffffffffffffffffffffffffff169060200190929190505050610ac4565b005b6000809054906101000a900473ffffffffffffffffffffffffffffffffffffffff1681565b60008060008061047f610b64565b73ffffffffffffffffffffffffffffffffffffffff1663293f9a9c6040518163ffffffff167c0100000000000000000000000000000000000000000000000000000000028152600401608060405180830381600087803b1580156104e257600080fd5b505af11580156104f6573d6000803e3d6000fd5b505050506040513d608081101561050c57600080fd5b8101908080519060200190929190805190602001909291908051906020019092919080519060200190929190505050905080955081935082945050505081818688020281151561055857fe5b04935050509250929050565b600160009054906101000a900473ffffffffffffffffffffffffffffffffffffffff1673ffffffffffffffffffffffffffffffffffffffff163373ffffffffffffffffffffffffffffffffffffffff161415156105c057600080fd5b60038190806001815401808255809150509060018203906000526020600020016000909192909190916101000a81548173ffffffffffffffffffffffffffffffffffffffff021916908373ffffffffffffffffffffffffffffffffffffffff1602179055505050565b610631610e54565b6000806005548360000151600001818152505061065a6201518084610b8d90919063ffffffff16565b9250610664610b64565b73ffffffffffffffffffffffffffffffffffffffff1663293f9a9c6040518163ffffffff167c0100000000000000000000000000000000000000000000000000000000028152600401608060405180830381600087803b1580156106c757600080fd5b505af11580156106db573d6000803e3d6000fd5b505050506040513d60808110156106f157600080fd5b8101908080519060200190929190805190602001909291908051906020019092919080519060200190929190505050905050809250819350505081816004548560200151020281151561074057fe5b04600660008282540192505081905550826000015160200151600581905550610767610c24565b600481905550505050565b600260009054906101000a900473ffffffffffffffffffffffffffffffffffffffff1673ffffffffffffffffffffffffffffffffffffffff163373ffffffffffffffffffffffffffffffffffffffff161415156107ce57600080fd5b600260009054906101000a900473ffffffffffffffffffffffffffffffffffffffff1673ffffffffffffffffffffffffffffffffffffffff16600160009054906101000a900473ffffffffffffffffffffffffffffffffffffffff1673ffffffffffffffffffffffffffffffffffffffff167f8be0079c531659141344cd1fd0a4f28419497f9722a3daafe3b4186f6b6457e060405160405180910390a3600260009054906101000a900473ffffffffffffffffffffffffffffffffffffffff16600160006101000a81548173ffffffffffffffffffffffffffffffffffffffff021916908373ffffffffffffffffffffffffffffffffffffffff1602179055506000600260006101000a81548173ffffffffffffffffffffffffffffffffffffffff021916908373ffffffffffffffffffffffffffffffffffffffff160217905550565b60045481565b600160009054906101000a900473ffffffffffffffffffffffffffffffffffffffff1673ffffffffffffffffffffffffffffffffffffffff163373ffffffffffffffffffffffffffffffffffffffff1614151561097557600080fd5b600160009054906101000a900473ffffffffffffffffffffffffffffffffffffffff1673ffffffffffffffffffffffffffffffffffffffff167ff8df31144d9c2f0f6b59d69b8b98abd5459d07f2742c4df920b25aae33c6482060405160405180910390a26000600160006101000a81548173ffffffffffffffffffffffffffffffffffffffff021916908373ffffffffffffffffffffffffffffffffffffffff160217905550565b8060058190555050565b60065481565b600160009054906101000a900473ffffffffffffffffffffffffffffffffffffffff1681565b60075481565b60055481565b600381815481101515610a6f57fe5b906000526020600020016000915054906101000a900473ffffffffffffffffffffffffffffffffffffffff1681565b600260009054906101000a900473ffffffffffffffffffffffffffffffffffffffff1681565b600160009054906101000a900473ffffffffffffffffffffffffffffffffffffffff1673ffffffffffffffffffffffffffffffffffffffff163373ffffffffffffffffffffffffffffffffffffffff16141515610b2057600080fd5b80600260006101000a81548173ffffffffffffffffffffffffffffffffffffffff021916908373ffffffffffffffffffffffffffffffffffffffff16021790555050565b60008060009054906101000a900473ffffffffffffffffffffffffffffffffffffffff16905090565b610b95610e54565b6000808492508460000151600001514210151515610bb257600080fd5b846000015160000151420391508382811515610bca57fe5b04836020018181525050838360200151029050600083602001511415610c055784600001516000015183600001516020018181525050610c1c565b610c13836000015182610e1a565b83600001819052505b505092915050565b600080600080610c32610b64565b73ffffffffffffffffffffffffffffffffffffffff166318160ddd6040518163ffffffff167c0100000000000000000000000000000000000000000000000000000000028152600401602060405180830381600087803b158015610c9557600080fd5b505af1158015610ca9573d6000803e3d6000fd5b505050506040513d6020811015610cbf57600080fd5b8101908080519060200190929190505050925060009150600090505b600380549050811015610e0f57610cf0610b64565b73ffffffffffffffffffffffffffffffffffffffff166370a08231600383815481101515610d1a57fe5b9060005260206000200160009054906101000a900473ffffffffffffffffffffffffffffffffffffffff166040518263ffffffff167c0100000000000000000000000000000000000000000000000000000000028152600401808273ffffffffffffffffffffffffffffffffffffffff1673ffffffffffffffffffffffffffffffffffffffff168152602001915050602060405180830381600087803b158015610dc357600080fd5b505af1158015610dd7573d6000803e3d6000fd5b505050506040513d6020811015610ded57600080fd5b8101908080519060200190929190505050820191508080600101915050610cdb565b818303935050505090565b610e22610e75565b82600001518284600001510110151515610e3b57600080fd5b8290508183600001510181602001818152505092915050565b606060405190810160405280610e68610e8f565b8152602001600081525090565b604080519081016040528060008152602001600081525090565b6040805190810160405280600081526020016000815250905600a165627a7a723058208d1f90241fbfcf274ce742f7ee7ef4eb5d7cc16fffbd953625843d207836ff4c0029",
  "source": "pragma solidity ^0.4.25;\n\nimport \"@digix/solidity-core-libraries/contracts/Types.sol\";\nimport \"openzeppelin-solidity/contracts/ownership/Claimable.sol\";\nimport \"./MockDgxDemurrageCalculator.sol\";\n\n/// @title Digix Gold Token Demurrage Reporter\n/// @author Digix Holdings Pte Ltd\n/// @notice This contract is used to keep a close estimate of how much demurrage fees would have been collected on Digix Gold Token if the demurrage fees is on.\n/// @notice Anyone can call the function updateDemurrageReporter() to keep this contract updated to the lastest day. The more often this function is called the more accurate the estimate will be (but it can only be updated at most every 24hrs)\ncontract MockDgxDemurrageReporter is MockDgxDemurrageCalculator, Claimable {\n    address[] public exempted_accounts;\n    uint256 public last_demurrageable_balance; // the total balance of DGX in non-exempted accounts, at last_payment_timestamp\n    uint256 public last_payment_timestamp;  // the last time this contract is updated\n    uint256 public culmulative_demurrage_collected; // this is the estimate of the demurrage fees that would have been collected from start_of_report_period to last_payment_timestamp\n    uint256 public start_of_report_period; // the timestamp when this contract started keeping track of demurrage fees\n\n    using Types for Types.MutableTimestamp;\n\n    constructor(address _token_address) public MockDgxDemurrageCalculator(_token_address)\n    {\n        start_of_report_period = now;\n        last_payment_timestamp = now;\n        updateDemurrageReporter();\n    }\n\n    function addExemptedAccount(address _account) public onlyOwner {\n        exempted_accounts.push(_account);\n    }\n\n    function updateDemurrageReporter() public {\n        Types.MutableTimestamp memory payment_timestamp;\n        payment_timestamp.time.pre = last_payment_timestamp;\n        payment_timestamp = payment_timestamp.advance_by(1 days);\n\n        uint256 _base;\n        uint256 _rate;\n        (_base, _rate,,) = token().showDemurrageConfigs();\n\n        culmulative_demurrage_collected += (payment_timestamp.in_units * last_demurrageable_balance * _rate) / _base;\n        last_payment_timestamp = payment_timestamp.time.post;\n        last_demurrageable_balance = getDemurrageableBalance();\n    }\n\n    function getDemurrageableBalance() internal view returns (uint256 _last_demurrageable_balance) {\n        uint256 _total_supply = token().totalSupply();\n        uint256 _no_demurrage_balance = 0;\n        for (uint256 i=0;i<exempted_accounts.length;i++) {\n            _no_demurrage_balance += token().balanceOf(exempted_accounts[i]);\n        }\n        _last_demurrageable_balance = _total_supply - _no_demurrage_balance;\n    }\n\n    function changeLastPaymentTimestamp(uint256 _new_last_payment_timestamp) public {\n        last_payment_timestamp = _new_last_payment_timestamp;\n    }\n}\n",
  "sourcePath": "/home/rohit/Develop/instance-copy/dao-contracts/contracts/mock/MockDgxDemurrageReporter.sol",
  "compiler": {
    "name": "solc",
    "version": "0.4.25+commit.59dbf8f1.Emscripten.clang"
  },
  "schemaVersion": "2.0.2",
  "updatedAt": "2019-03-25T02:40:10.492Z"
}