{
  "contractName": "MockDaoStorage",
  "abi": [
    {
      "constant": true,
      "inputs": [
        {
          "name": "_proposalId",
          "type": "bytes32"
        },
        {
          "name": "_version",
          "type": "bytes32"
        }
      ],
      "name": "readProposalVersion",
      "outputs": [
        {
          "name": "_doc",
          "type": "bytes32"
        },
        {
          "name": "_created",
          "type": "uint256"
        },
        {
          "name": "_milestoneFundings",
          "type": "uint256[]"
        },
        {
          "name": "_finalReward",
          "type": "uint256"
        }
      ],
      "payable": false,
      "stateMutability": "view",
      "type": "function"
    },
    {
      "constant": true,
      "inputs": [],
      "name": "resolver",
      "outputs": [
        {
          "name": "",
          "type": "address"
        }
      ],
      "payable": false,
      "stateMutability": "view",
      "type": "function"
    },
    {
      "constant": false,
      "inputs": [
        {
          "name": "_proposalId",
          "type": "bytes32"
        }
      ],
      "name": "closeProposal",
      "outputs": [],
      "payable": false,
      "stateMutability": "nonpayable",
      "type": "function"
    },
    {
      "constant": true,
      "inputs": [
        {
          "name": "_proposalId",
          "type": "bytes32"
        },
        {
          "name": "_index",
          "type": "uint256"
        }
      ],
      "name": "readProposalVotingResult",
      "outputs": [
        {
          "name": "_result",
          "type": "bool"
        }
      ],
      "payable": false,
      "stateMutability": "view",
      "type": "function"
    },
    {
      "constant": true,
      "inputs": [
        {
          "name": "_proposalId",
          "type": "bytes32"
        }
      ],
      "name": "getLastProposalVersion",
      "outputs": [
        {
          "name": "_version",
          "type": "bytes32"
        }
      ],
      "payable": false,
      "stateMutability": "view",
      "type": "function"
    },
    {
      "constant": true,
      "inputs": [
        {
          "name": "_proposalId",
          "type": "bytes32"
        }
      ],
      "name": "readProposalDraftVotingResult",
      "outputs": [
        {
          "name": "_result",
          "type": "bool"
        }
      ],
      "payable": false,
      "stateMutability": "view",
      "type": "function"
    },
    {
      "constant": true,
      "inputs": [
        {
          "name": "_stateId",
          "type": "bytes32"
        },
        {
          "name": "_proposalId",
          "type": "bytes32"
        }
      ],
      "name": "getPreviousProposalInState",
      "outputs": [
        {
          "name": "_id",
          "type": "bytes32"
        }
      ],
      "payable": false,
      "stateMutability": "view",
      "type": "function"
    },
    {
      "constant": true,
      "inputs": [
        {
          "name": "_proposalId",
          "type": "bytes32"
        },
        {
          "name": "_index",
          "type": "uint256"
        },
        {
          "name": "_voter",
          "type": "address"
        }
      ],
      "name": "readVote",
      "outputs": [
        {
          "name": "_vote",
          "type": "bool"
        },
        {
          "name": "_weight",
          "type": "uint256"
        }
      ],
      "payable": false,
      "stateMutability": "view",
      "type": "function"
    },
    {
      "constant": true,
      "inputs": [
        {
          "name": "_stateId",
          "type": "bytes32"
        }
      ],
      "name": "getLastProposalInState",
      "outputs": [
        {
          "name": "_id",
          "type": "bytes32"
        }
      ],
      "payable": false,
      "stateMutability": "view",
      "type": "function"
    },
    {
      "constant": false,
      "inputs": [
        {
          "name": "_proposalId",
          "type": "bytes32"
        },
        {
          "name": "_index",
          "type": "uint256"
        },
        {
          "name": "_result",
          "type": "bool"
        }
      ],
      "name": "setProposalPass",
      "outputs": [],
      "payable": false,
      "stateMutability": "nonpayable",
      "type": "function"
    },
    {
      "constant": true,
      "inputs": [
        {
          "name": "_proposalId",
          "type": "bytes32"
        }
      ],
      "name": "getNextProposal",
      "outputs": [
        {
          "name": "_id",
          "type": "bytes32"
        }
      ],
      "payable": false,
      "stateMutability": "view",
      "type": "function"
    },
    {
      "constant": false,
      "inputs": [
        {
          "name": "_proposalId",
          "type": "bytes32"
        },
        {
          "name": "_claimed",
          "type": "bool"
        }
      ],
      "name": "setDraftVotingClaim",
      "outputs": [],
      "payable": false,
      "stateMutability": "nonpayable",
      "type": "function"
    },
    {
      "constant": false,
      "inputs": [
        {
          "name": "_proposalId",
          "type": "bytes32"
        },
        {
          "name": "_milestoneId",
          "type": "uint256"
        }
      ],
      "name": "setMilestoneFunded",
      "outputs": [],
      "payable": false,
      "stateMutability": "nonpayable",
      "type": "function"
    },
    {
      "constant": false,
      "inputs": [
        {
          "name": "_proposalId",
          "type": "bytes32"
        },
        {
          "name": "_voter",
          "type": "address"
        },
        {
          "name": "_vote",
          "type": "bool"
        },
        {
          "name": "_weight",
          "type": "uint256"
        }
      ],
      "name": "addDraftVote",
      "outputs": [],
      "payable": false,
      "stateMutability": "nonpayable",
      "type": "function"
    },
    {
      "constant": false,
      "inputs": [
        {
          "name": "_proposalId",
          "type": "bytes32"
        },
        {
          "name": "_index",
          "type": "uint256"
        },
        {
          "name": "_time",
          "type": "uint256"
        }
      ],
      "name": "setProposalVotingTime",
      "outputs": [],
      "payable": false,
      "stateMutability": "nonpayable",
      "type": "function"
    },
    {
      "constant": true,
      "inputs": [],
      "name": "key",
      "outputs": [
        {
          "name": "",
          "type": "bytes32"
        }
      ],
      "payable": false,
      "stateMutability": "view",
      "type": "function"
    },
    {
      "constant": true,
      "inputs": [
        {
          "name": "_proposalId",
          "type": "bytes32"
        }
      ],
      "name": "isDraftClaimed",
      "outputs": [
        {
          "name": "_claimed",
          "type": "bool"
        }
      ],
      "payable": false,
      "stateMutability": "view",
      "type": "function"
    },
    {
      "constant": true,
      "inputs": [
        {
          "name": "_proposalId",
          "type": "bytes32"
        },
        {
          "name": "_index",
          "type": "uint256"
        }
      ],
      "name": "readProposalMilestone",
      "outputs": [
        {
          "name": "_funding",
          "type": "uint256"
        }
      ],
      "payable": false,
      "stateMutability": "view",
      "type": "function"
    },
    {
      "constant": true,
      "inputs": [
        {
          "name": "_proposalId",
          "type": "bytes32"
        }
      ],
      "name": "readProposalCollateralStatus",
      "outputs": [
        {
          "name": "_status",
          "type": "uint256"
        }
      ],
      "payable": false,
      "stateMutability": "view",
      "type": "function"
    },
    {
      "constant": false,
      "inputs": [
        {
          "name": "_proposalId",
          "type": "bytes32"
        },
        {
          "name": "_index",
          "type": "uint256"
        },
        {
          "name": "_claimed",
          "type": "bool"
        }
      ],
      "name": "setVotingClaim",
      "outputs": [],
      "payable": false,
      "stateMutability": "nonpayable",
      "type": "function"
    },
    {
      "constant": true,
      "inputs": [
        {
          "name": "_key",
          "type": "bytes32"
        }
      ],
      "name": "get_contract",
      "outputs": [
        {
          "name": "_contract",
          "type": "address"
        }
      ],
      "payable": false,
      "stateMutability": "view",
      "type": "function"
    },
    {
      "constant": true,
      "inputs": [
        {
          "name": "_proposalId",
          "type": "bytes32"
        },
        {
          "name": "_milestoneId",
          "type": "uint256"
        }
      ],
      "name": "readIfMilestoneFunded",
      "outputs": [
        {
          "name": "_funded",
          "type": "bool"
        }
      ],
      "payable": false,
      "stateMutability": "view",
      "type": "function"
    },
    {
      "constant": false,
      "inputs": [
        {
          "name": "_proposalId",
          "type": "bytes32"
        }
      ],
      "name": "finalizeProposal",
      "outputs": [],
      "payable": false,
      "stateMutability": "nonpayable",
      "type": "function"
    },
    {
      "constant": true,
      "inputs": [
        {
          "name": "_proposalId",
          "type": "bytes32"
        },
        {
          "name": "_version",
          "type": "bytes32"
        }
      ],
      "name": "getNextProposalVersion",
      "outputs": [
        {
          "name": "_nextVersion",
          "type": "bytes32"
        }
      ],
      "payable": false,
      "stateMutability": "view",
      "type": "function"
    },
    {
      "constant": true,
      "inputs": [
        {
          "name": "_proposalId",
          "type": "bytes32"
        }
      ],
      "name": "readProposalDraftVotingTime",
      "outputs": [
        {
          "name": "_start",
          "type": "uint256"
        }
      ],
      "payable": false,
      "stateMutability": "view",
      "type": "function"
    },
    {
      "constant": true,
      "inputs": [
        {
          "name": "_proposalId",
          "type": "bytes32"
        }
      ],
      "name": "readTotalPrlActions",
      "outputs": [
        {
          "name": "_length",
          "type": "uint256"
        }
      ],
      "payable": false,
      "stateMutability": "view",
      "type": "function"
    },
    {
      "constant": true,
      "inputs": [
        {
          "name": "_proposalId",
          "type": "bytes32"
        },
        {
          "name": "_version",
          "type": "bytes32"
        }
      ],
      "name": "getPreviousProposalVersion",
      "outputs": [
        {
          "name": "_previousVersion",
          "type": "bytes32"
        }
      ],
      "payable": false,
      "stateMutability": "view",
      "type": "function"
    },
    {
      "constant": false,
      "inputs": [
        {
          "name": "_proposalId",
          "type": "bytes32"
        },
        {
          "name": "_hash",
          "type": "bytes32"
        },
        {
          "name": "_voter",
          "type": "address"
        },
        {
          "name": "_index",
          "type": "uint256"
        }
      ],
      "name": "commitVote",
      "outputs": [],
      "payable": false,
      "stateMutability": "nonpayable",
      "type": "function"
    },
    {
      "constant": true,
      "inputs": [
        {
          "name": "_proposalId",
          "type": "bytes32"
        },
        {
          "name": "_index",
          "type": "uint256"
        },
        {
          "name": "_voter",
          "type": "address"
        }
      ],
      "name": "readComittedVote",
      "outputs": [
        {
          "name": "_commitHash",
          "type": "bytes32"
        }
      ],
      "payable": false,
      "stateMutability": "view",
      "type": "function"
    },
    {
      "constant": true,
      "inputs": [
        {
          "name": "_proposalId",
          "type": "bytes32"
        }
      ],
      "name": "readProposalProposer",
      "outputs": [
        {
          "name": "_proposer",
          "type": "address"
        }
      ],
      "payable": false,
      "stateMutability": "view",
      "type": "function"
    },
    {
      "constant": true,
      "inputs": [
        {
          "name": "_proposalId",
          "type": "bytes32"
        }
      ],
      "name": "getPreviousProposal",
      "outputs": [
        {
          "name": "_id",
          "type": "bytes32"
        }
      ],
      "payable": false,
      "stateMutability": "view",
      "type": "function"
    },
    {
      "constant": true,
      "inputs": [
        {
          "name": "_proposalId",
          "type": "bytes32"
        }
      ],
      "name": "readProposalFunding",
      "outputs": [
        {
          "name": "_fundings",
          "type": "uint256[]"
        },
        {
          "name": "_finalReward",
          "type": "uint256"
        }
      ],
      "payable": false,
      "stateMutability": "view",
      "type": "function"
    },
    {
      "constant": true,
      "inputs": [
        {
          "name": "_proposalId",
          "type": "bytes32"
        },
        {
          "name": "_index",
          "type": "uint256"
        }
      ],
      "name": "readPrlAction",
      "outputs": [
        {
          "name": "_actionId",
          "type": "uint256"
        },
        {
          "name": "_time",
          "type": "uint256"
        },
        {
          "name": "_doc",
          "type": "bytes32"
        }
      ],
      "payable": false,
      "stateMutability": "view",
      "type": "function"
    },
    {
      "constant": false,
      "inputs": [
        {
          "name": "_proposalId",
          "type": "bytes32"
        },
        {
          "name": "_result",
          "type": "bool"
        }
      ],
      "name": "setProposalDraftPass",
      "outputs": [],
      "payable": false,
      "stateMutability": "nonpayable",
      "type": "function"
    },
    {
      "constant": true,
      "inputs": [
        {
          "name": "_proposalId",
          "type": "bytes32"
        },
        {
          "name": "_index",
          "type": "uint256"
        }
      ],
      "name": "isClaimed",
      "outputs": [
        {
          "name": "_claimed",
          "type": "bool"
        }
      ],
      "payable": false,
      "stateMutability": "view",
      "type": "function"
    },
    {
      "constant": false,
      "inputs": [
        {
          "name": "_proposalId",
          "type": "bytes32"
        },
        {
          "name": "_amount",
          "type": "uint256"
        }
      ],
      "name": "setProposalCollateralAmount",
      "outputs": [],
      "payable": false,
      "stateMutability": "nonpayable",
      "type": "function"
    },
    {
      "constant": false,
      "inputs": [
        {
          "name": "_proposalId",
          "type": "bytes32"
        }
      ],
      "name": "archiveProposal",
      "outputs": [],
      "payable": false,
      "stateMutability": "nonpayable",
      "type": "function"
    },
    {
      "constant": false,
      "inputs": [
        {
          "name": "_doc",
          "type": "bytes32"
        },
        {
          "name": "_proposer",
          "type": "address"
        },
        {
          "name": "_milestoneFundings",
          "type": "uint256[]"
        },
        {
          "name": "_finalReward",
          "type": "uint256"
        },
        {
          "name": "_isFounder",
          "type": "bool"
        }
      ],
      "name": "addProposal",
      "outputs": [],
      "payable": false,
      "stateMutability": "nonpayable",
      "type": "function"
    },
    {
      "constant": true,
      "inputs": [
        {
          "name": "_proposalId",
          "type": "bytes32"
        },
        {
          "name": "_index",
          "type": "uint256"
        },
        {
          "name": "_allUsers",
          "type": "address[]"
        }
      ],
      "name": "readVotingCount",
      "outputs": [
        {
          "name": "_for",
          "type": "uint256"
        },
        {
          "name": "_against",
          "type": "uint256"
        }
      ],
      "payable": false,
      "stateMutability": "view",
      "type": "function"
    },
    {
      "constant": false,
      "inputs": [
        {
          "name": "_proposalId",
          "type": "bytes32"
        },
        {
          "name": "_voter",
          "type": "address"
        },
        {
          "name": "_vote",
          "type": "bool"
        },
        {
          "name": "_weight",
          "type": "uint256"
        },
        {
          "name": "_index",
          "type": "uint256"
        }
      ],
      "name": "revealVote",
      "outputs": [],
      "payable": false,
      "stateMutability": "nonpayable",
      "type": "function"
    },
    {
      "constant": true,
      "inputs": [
        {
          "name": "_stateId",
          "type": "bytes32"
        },
        {
          "name": "_proposalId",
          "type": "bytes32"
        }
      ],
      "name": "getNextProposalInState",
      "outputs": [
        {
          "name": "_id",
          "type": "bytes32"
        }
      ],
      "payable": false,
      "stateMutability": "view",
      "type": "function"
    },
    {
      "constant": false,
      "inputs": [
        {
          "name": "_proposalId",
          "type": "bytes32"
        },
        {
          "name": "_endorser",
          "type": "address"
        }
      ],
      "name": "updateProposalEndorse",
      "outputs": [],
      "payable": false,
      "stateMutability": "nonpayable",
      "type": "function"
    },
    {
      "constant": true,
      "inputs": [
        {
          "name": "_proposalId",
          "type": "bytes32"
        },
        {
          "name": "_index",
          "type": "uint256"
        }
      ],
      "name": "readProposalVotingTime",
      "outputs": [
        {
          "name": "_start",
          "type": "uint256"
        }
      ],
      "payable": false,
      "stateMutability": "view",
      "type": "function"
    },
    {
      "constant": true,
      "inputs": [
        {
          "name": "_proposalId",
          "type": "bytes32"
        },
        {
          "name": "_allUsers",
          "type": "address[]"
        }
      ],
      "name": "readDraftVotingCount",
      "outputs": [
        {
          "name": "_for",
          "type": "uint256"
        },
        {
          "name": "_against",
          "type": "uint256"
        }
      ],
      "payable": false,
      "stateMutability": "view",
      "type": "function"
    },
    {
      "constant": false,
      "inputs": [
        {
          "name": "_proposalId",
          "type": "bytes32"
        },
        {
          "name": "_action",
          "type": "uint256"
        },
        {
          "name": "_doc",
          "type": "bytes32"
        },
        {
          "name": "_time",
          "type": "uint256"
        }
      ],
      "name": "updateProposalPRL",
      "outputs": [],
      "payable": false,
      "stateMutability": "nonpayable",
      "type": "function"
    },
    {
      "constant": false,
      "inputs": [
        {
          "name": "_proposalId",
          "type": "bytes32"
        },
        {
          "name": "_newMilestoneFundings",
          "type": "uint256[]"
        },
        {
          "name": "_finalReward",
          "type": "uint256"
        }
      ],
      "name": "changeFundings",
      "outputs": [],
      "payable": false,
      "stateMutability": "nonpayable",
      "type": "function"
    },
    {
      "constant": false,
      "inputs": [
        {
          "name": "_proposalId",
          "type": "bytes32"
        },
        {
          "name": "_status",
          "type": "uint256"
        }
      ],
      "name": "setProposalCollateralStatus",
      "outputs": [],
      "payable": false,
      "stateMutability": "nonpayable",
      "type": "function"
    },
    {
      "constant": true,
      "inputs": [],
      "name": "getFirstProposal",
      "outputs": [
        {
          "name": "_id",
          "type": "bytes32"
        }
      ],
      "payable": false,
      "stateMutability": "view",
      "type": "function"
    },
    {
      "constant": true,
      "inputs": [
        {
          "name": "_proposalId",
          "type": "bytes32"
        }
      ],
      "name": "readProposal",
      "outputs": [
        {
          "name": "_doc",
          "type": "bytes32"
        },
        {
          "name": "_proposer",
          "type": "address"
        },
        {
          "name": "_endorser",
          "type": "address"
        },
        {
          "name": "_state",
          "type": "bytes32"
        },
        {
          "name": "_timeCreated",
          "type": "uint256"
        },
        {
          "name": "_nVersions",
          "type": "uint256"
        },
        {
          "name": "_latestVersionDoc",
          "type": "bytes32"
        },
        {
          "name": "_finalVersion",
          "type": "bytes32"
        },
        {
          "name": "_pausedOrStopped",
          "type": "bool"
        },
        {
          "name": "_isDigixProposal",
          "type": "bool"
        }
      ],
      "payable": false,
      "stateMutability": "view",
      "type": "function"
    },
    {
      "constant": true,
      "inputs": [],
      "name": "CONTRACT_ADDRESS",
      "outputs": [
        {
          "name": "",
          "type": "address"
        }
      ],
      "payable": false,
      "stateMutability": "view",
      "type": "function"
    },
    {
      "constant": true,
      "inputs": [
        {
          "name": "_proposalId",
          "type": "bytes32"
        }
      ],
      "name": "readProposalDocs",
      "outputs": [
        {
          "name": "_moreDocs",
          "type": "bytes32[]"
        }
      ],
      "payable": false,
      "stateMutability": "view",
      "type": "function"
    },
    {
      "constant": true,
      "inputs": [
        {
          "name": "_proposalId",
          "type": "bytes32"
        },
        {
          "name": "_voter",
          "type": "address"
        }
      ],
      "name": "readDraftVote",
      "outputs": [
        {
          "name": "_vote",
          "type": "bool"
        },
        {
          "name": "_weight",
          "type": "uint256"
        }
      ],
      "payable": false,
      "stateMutability": "view",
      "type": "function"
    },
    {
      "constant": false,
      "inputs": [
        {
          "name": "_proposalId",
          "type": "bytes32"
        },
        {
          "name": "_time",
          "type": "uint256"
        }
      ],
      "name": "setProposalDraftVotingTime",
      "outputs": [],
      "payable": false,
      "stateMutability": "nonpayable",
      "type": "function"
    },
    {
      "constant": true,
      "inputs": [
        {
          "name": "_proposalId",
          "type": "bytes32"
        }
      ],
      "name": "getFirstProposalVersion",
      "outputs": [
        {
          "name": "_version",
          "type": "bytes32"
        }
      ],
      "payable": false,
      "stateMutability": "view",
      "type": "function"
    },
    {
      "constant": true,
      "inputs": [
        {
          "name": "_stateId",
          "type": "bytes32"
        }
      ],
      "name": "getFirstProposalInState",
      "outputs": [
        {
          "name": "_id",
          "type": "bytes32"
        }
      ],
      "payable": false,
      "stateMutability": "view",
      "type": "function"
    },
    {
      "constant": true,
      "inputs": [
        {
          "name": "_proposalId",
          "type": "bytes32"
        },
        {
          "name": "_index",
          "type": "uint256"
        },
        {
          "name": "_allUsers",
          "type": "address[]"
        },
        {
          "name": "_vote",
          "type": "bool"
        }
      ],
      "name": "readVotingRoundVotes",
      "outputs": [
        {
          "name": "_voters",
          "type": "address[]"
        },
        {
          "name": "_length",
          "type": "uint256"
        }
      ],
      "payable": false,
      "stateMutability": "view",
      "type": "function"
    },
    {
      "constant": true,
      "inputs": [
        {
          "name": "_proposalId",
          "type": "bytes32"
        }
      ],
      "name": "readProposalCollateralAmount",
      "outputs": [
        {
          "name": "_amount",
          "type": "uint256"
        }
      ],
      "payable": false,
      "stateMutability": "view",
      "type": "function"
    },
    {
      "constant": false,
      "inputs": [
        {
          "name": "_proposalId",
          "type": "bytes32"
        },
        {
          "name": "_newDoc",
          "type": "bytes32"
        }
      ],
      "name": "addProposalDoc",
      "outputs": [],
      "payable": false,
      "stateMutability": "nonpayable",
      "type": "function"
    },
    {
      "constant": true,
      "inputs": [],
      "name": "getLastProposal",
      "outputs": [
        {
          "name": "_id",
          "type": "bytes32"
        }
      ],
      "payable": false,
      "stateMutability": "view",
      "type": "function"
    },
    {
      "constant": false,
      "inputs": [
        {
          "name": "_proposalId",
          "type": "bytes32"
        },
        {
          "name": "_newDoc",
          "type": "bytes32"
        },
        {
          "name": "_newMilestoneFundings",
          "type": "uint256[]"
        },
        {
          "name": "_finalReward",
          "type": "uint256"
        }
      ],
      "name": "editProposal",
      "outputs": [],
      "payable": false,
      "stateMutability": "nonpayable",
      "type": "function"
    },
    {
      "inputs": [
        {
          "name": "_resolver",
          "type": "address"
        }
      ],
      "payable": false,
      "stateMutability": "nonpayable",
      "type": "constructor"
    },
    {
      "constant": false,
      "inputs": [
        {
          "name": "_proposalId",
          "type": "bytes32"
        },
        {
          "name": "_roundIndex",
          "type": "uint256"
        },
        {
          "name": "_isDraftPhase",
          "type": "bool"
        },
        {
          "name": "_proposer",
          "type": "address"
        },
        {
          "name": "_endorser",
          "type": "address"
        },
        {
          "name": "_milestonesFundings",
          "type": "uint256[]"
        },
        {
          "name": "_finalReward",
          "type": "uint256"
        }
      ],
      "name": "mock_put_proposal_as",
      "outputs": [],
      "payable": false,
      "stateMutability": "nonpayable",
      "type": "function"
    },
    {
      "constant": false,
      "inputs": [
        {
          "name": "_proposalId",
          "type": "bytes32"
        },
        {
          "name": "_milestoneId",
          "type": "uint256"
        },
        {
          "name": "_proposer",
          "type": "address"
        },
        {
          "name": "_endorser",
          "type": "address"
        },
        {
          "name": "_milestonesFundings",
          "type": "uint256[]"
        },
        {
          "name": "_finalReward",
          "type": "uint256"
        },
        {
          "name": "_previousVotingStart",
          "type": "uint256"
        }
      ],
      "name": "mock_put_proposal_in_milestone",
      "outputs": [],
      "payable": false,
      "stateMutability": "nonpayable",
      "type": "function"
    },
    {
      "constant": false,
      "inputs": [
        {
          "name": "_proposalId",
          "type": "bytes32"
        },
        {
          "name": "_roundIndex",
          "type": "uint256"
        },
        {
          "name": "_isDraftPhase",
          "type": "bool"
        },
        {
          "name": "_voters",
          "type": "address[]"
        },
        {
          "name": "_votes",
          "type": "bool[]"
        },
        {
          "name": "_weights",
          "type": "uint256[]"
        },
        {
          "name": "_length",
          "type": "uint256"
        },
        {
          "name": "_startOfVotingRound",
          "type": "uint256"
        }
      ],
      "name": "mock_put_past_votes",
      "outputs": [],
      "payable": false,
      "stateMutability": "nonpayable",
      "type": "function"
    }
  ],
  "bytecode": "0x608060405260006001026003906000191690556000600460006101000a81548173ffffffffffffffffffffffffffffffffffffffff021916908373ffffffffffffffffffffffffffffffffffffffff1602179055507f70726f706f73616c5f73746174655f70726570726f706f73616c0000000000006005906000191690557f70726f706f73616c5f73746174655f64726166740000000000000000000000006006906000191690557f70726f706f73616c5f73746174655f6d6f6465726174656400000000000000006007906000191690557f70726f706f73616c5f73746174655f6f6e676f696e67000000000000000000006008906000191690557f70726f706f73616c5f73746174655f636c6f73656400000000000000000000006009906000191690557f70726f706f73616c5f73746174655f6172636869766564000000000000000000600a906000191690556001600b556002600c556003600d556001600e556002600f5560036010557f696e7465725f6467645f696400000000000000000000000000000000000000006011906000191690557f696e7465725f6d6f645f6467645f6964000000000000000000000000000000006012906000191690557f696e7465725f626f6e75735f63616c63756c6174696f6e5f69640000000000006013906000191690557f64616f00000000000000000000000000000000000000000000000000000000006014906000191690557f64616f3a7370656369616c3a70726f706f73616c0000000000000000000000006015906000191690557f64616f3a7374616b652d6c6f636b696e670000000000000000000000000000006016906000191690557f64616f3a766f74696e67000000000000000000000000000000000000000000006017906000191690557f64616f3a766f74696e673a636c61696d730000000000000000000000000000006018906000191690557f64616f3a73766f74696e673a636c61696d7300000000000000000000000000006019906000191690557f64616f3a6964656e746974790000000000000000000000000000000000000000601a906000191690557f64616f3a726577617264732d6d616e6167657200000000000000000000000000601b906000191690557f64616f3a726577617264732d6578747261730000000000000000000000000000601c906000191690557f64616f3a726f6c65730000000000000000000000000000000000000000000000601d906000191690557f64616f3a66756e64696e672d6d616e6167657200000000000000000000000000601e906000191690557f64616f3a77686974656c697374696e6700000000000000000000000000000000601f906000191690557f64616f3a696e666f726d6174696f6e00000000000000000000000000000000006020906000191690557f736572766963653a726f6c6500000000000000000000000000000000000000006021906000191690557f736572766963653a64616f3a696e666f000000000000000000000000000000006022906000191690557f736572766963653a64616f3a6c697374696e67000000000000000000000000006023906000191690557f736572766963653a64616f3a63616c63756c61746f72000000000000000000006024906000191690557f73746f726167653a64616f0000000000000000000000000000000000000000006025906000191690557f73746f726167653a64616f3a636f756e746572000000000000000000000000006026906000191690557f73746f726167653a64616f3a75706772616465000000000000000000000000006027906000191690557f73746f726167653a64616f3a6964656e746974790000000000000000000000006028906000191690557f73746f726167653a64616f3a706f696e747300000000000000000000000000006029906000191690557f73746f726167653a64616f3a7370656369616c00000000000000000000000000602a906000191690557f73746f726167653a64616f3a636f6e6669670000000000000000000000000000602b906000191690557f73746f726167653a64616f3a7374616b65000000000000000000000000000000602c906000191690557f73746f726167653a64616f3a7265776172647300000000000000000000000000602d906000191690557f73746f726167653a64616f3a77686974656c697374696e670000000000000000602e906000191690557f73746f726167653a696e7465726d6564696174653a726573756c747300000000602f906000191690557f743a6467640000000000000000000000000000000000000000000000000000006030906000191690557f743a6467780000000000000000000000000000000000000000000000000000006031906000191690557f743a6261646765000000000000000000000000000000000000000000000000006032906000191690556001603360006101000a81548160ff021916908360ff1602179055506002603360016101000a81548160ff021916908360ff1602179055506003603360026101000a81548160ff021916908360ff1602179055506004603360036101000a81548160ff021916908360ff1602179055506276a7006034557f6d696e5f6467645f7061727469636970616e74000000000000000000000000006035906000191690557f6d696e5f6467645f6d6f64657261746f720000000000000000000000000000006036906000191690557f6d696e5f72657075746174696f6e5f6d6f64657261746f7200000000000000006037906000191690557f6c6f636b696e675f70686173655f6475726174696f6e000000000000000000006038906000191690557f717561727465725f6475726174696f6e000000000000000000000000000000006039906000191690557f766f74696e675f636f6d6d69745f706861736500000000000000000000000000603a906000191690557f766f74696e675f70686173655f746f74616c0000000000000000000000000000603b906000191690557f696e746572696d5f766f74696e675f636f6d6d69745f70686173650000000000603c906000191690557f696e746572696d5f766f74696e675f70686173655f746f74616c000000000000603d906000191690557f64726166745f71756f72756d5f66697865645f6e756d657261746f7200000000603e906000191690557f64726166745f71756f72756d5f66697865645f64656e6f6d696e61746f720000603f906000191690557f64726166745f71756f72756d5f73666163746f725f6e756d657261746f7200006040906000191690557f64726166745f71756f72756d5f73666163746f725f64656e6f6d696e61746f726041906000191690557f766f74655f71756f72756d5f66697865645f6e756d657261746f7200000000006042906000191690557f766f74655f71756f72756d5f66697865645f64656e6f6d696e61746f720000006043906000191690557f766f74655f71756f72756d5f73666163746f725f6e756d657261746f720000006044906000191690557f766f74655f71756f72756d5f73666163746f725f64656e6f6d696e61746f72006045906000191690557f66696e616c5f7265776172645f73666163746f725f6e756d657261746f7200006046906000191690557f66696e616c5f7265776172645f73666163746f725f64656e6f6d696e61746f726047906000191690557f64726166745f71756f74615f6e756d657261746f7200000000000000000000006048906000191690557f64726166745f71756f74615f64656e6f6d696e61746f720000000000000000006049906000191690557f766f74696e675f71756f74615f6e756d657261746f7200000000000000000000604a906000191690557f766f74696e675f71756f74615f64656e6f6d696e61746f720000000000000000604b906000191690557f6d696e696d616c5f717000000000000000000000000000000000000000000000604c906000191690557f717561727465725f706f696e745f7363616c696e675f666163746f7200000000604d906000191690557f7265705f706f696e745f7363616c696e675f666163746f720000000000000000604e906000191690557f6d696e696d616c5f6d6f645f7170000000000000000000000000000000000000604f906000191690557f6d6f645f71705f7363616c696e675f666163746f7200000000000000000000006050906000191690557f6d6f645f7265705f706f696e745f7363616c696e675f666163746f72000000006051906000191690557f717561727465725f706f696e745f64726166745f766f746500000000000000006052906000191690557f717561727465725f706f696e745f766f746500000000000000000000000000006053906000191690557f717561727465725f706f696e745f696e746572696d5f766f74650000000000006054906000191690557f715f705f6d696c6573746f6e655f636f6d706c6574696f6e00000000000000006055906000191690557f626f6e75735f72657075746174696f6e5f6e756d657261746f720000000000006056906000191690557f626f6e75735f72657075746174696f6e5f64656e6f6d696e61746f72000000006057906000191690557f7370656369616c5f70726f706f73616c5f636f6d6d69745f70686173650000006058906000191690557f7370656369616c5f70726f706f73616c5f70686173655f746f74616c000000006059906000191690557f636f6e6669675f7370656369616c5f71756f74615f6e756d657261746f720000605a906000191690557f636f6e6669675f7370656369616c5f71756f74615f64656e6f6d696e61746f72605b906000191690557f7370656369616c5f71756f72756d5f6e756d657261746f720000000000000000605c906000191690557f7370656369616c5f71756f72756d5f64656e6f6d696e61746f72000000000000605d906000191690557f636f6e6669675f6d61785f72657075746174696f6e5f646564756374696f6e00605e906000191690557f636f6e6669675f70756e6973686d656e745f6e6f745f6c6f636b696e67000000605f906000191690557f636f6e6669675f7265705f7065725f65787472615f71705f6e756d00000000006060906000191690557f636f6e6669675f7265705f7065725f65787472615f71705f64656e00000000006061906000191690557f636f6e6669675f6d61785f6d5f72705f646564756374696f6e000000000000006062906000191690557f636f6e6669675f7265705f7065725f65787472615f6d5f71705f6e756d0000006063906000191690557f636f6e6669675f7265705f7065725f65787472615f6d5f71705f64656e0000006064906000191690557f636f6e6669675f6d6f645f706f7274696f6e5f6e756d000000000000000000006065906000191690557f636f6e6669675f6d6f645f706f7274696f6e5f64656e000000000000000000006066906000191690557f636f6e6669675f64726166745f766f74696e675f7068617365000000000000006067906000191690557f636f6e6669675f72705f626f6f73745f7065725f6261646765000000000000006068906000191690557f636f6e6669675f636c61696d696e675f646561646c696e6500000000000000006069906000191690557f636f6e6669675f70726570726f706f73616c5f636f6c6c61746572616c000000606a906000191690557f636f6e6669675f6d61785f66756e64696e675f6e6f6e44696769780000000000606b906000191690557f636f6e6669675f6d61785f6d696c6573746f6e65735f6e6f6e44696769780000606c906000191690557f636f6e6669675f6e6f6e44696769785f70726f706f73616c5f63617000000000606d906000191690557f636f6e6669675f646561645f6475726174696f6e000000000000000000000000606e906000191690557f636f6e6669675f63765f72657075746174696f6e000000000000000000000000606f906000191690553480156200113457600080fd5b50604051602080620072ca833981018060405281019080805190602001909291905050508062001176602554826200118a640100000000026401000000009004565b15156200118257600080fd5b50506200141b565b6000808273ffffffffffffffffffffffffffffffffffffffff16636d19a8826040518163ffffffff167c0100000000000000000000000000000000000000000000000000000000028152600401602060405180830381600087803b158015620011f257600080fd5b505af115801562001207573d6000803e3d6000fd5b505050506040513d60208110156200121e57600080fd5b810190808051906020019092919050505090506000151581151514156200140f5730600260006101000a81548173ffffffffffffffffffffffffffffffffffffffff021916908373ffffffffffffffffffffffffffffffffffffffff160217905550826000806101000a81548173ffffffffffffffffffffffffffffffffffffffff021916908373ffffffffffffffffffffffffffffffffffffffff16021790555083600181600019169055506000809054906101000a900473ffffffffffffffffffffffffffffffffffffffff1673ffffffffffffffffffffffffffffffffffffffff1663c0f6ef4a600154600260009054906101000a900473ffffffffffffffffffffffffffffffffffffffff166040518363ffffffff167c01000000000000000000000000000000000000000000000000000000000281526004018083600019166000191681526020018273ffffffffffffffffffffffffffffffffffffffff1673ffffffffffffffffffffffffffffffffffffffff16815260200192505050602060405180830381600087803b158015620013bc57600080fd5b505af1158015620013d1573d6000803e3d6000fd5b505050506040513d6020811015620013e857600080fd5b810190808051906020019092919050505015156200140557600080fd5b6001915062001414565b600091505b5092915050565b615e9f806200142b6000396000f3006080604052600436106102eb576000357c0100000000000000000000000000000000000000000000000000000000900463ffffffff16806303020ea9146102f057806304f3bcec146103a1578063078f872c146103f85780630bcaa451146104295780630c012e591461047c5780630ec8f125146104c95780631478fff1146105125780631d2103d11461056d5780631d47c3d3146105e75780631ea5d62f14610634578063237286e91461067b57806327618ad9146106c857806327a9bb0e146107055780632fd010da14610740578063344e436e146107a75780633943380c146107ec578063395ddde91461081f5780633a85b822146108685780633be88369146108b75780633e020d2f146108fc5780633f83acff1461094357806341a71589146109b457806347d0da1414610a0757806347d621a314610a3857806349a428d014610a935780634c5b318a14610ad857806356674c9f14610b1d57806358cec13914610b78578063598f0eaf14610be15780635b712eb614610c58578063689e699914610cc957806370a6f59114610ded5780637246d5a714610e3a5780637aafacae14610ec757806382e445c614610f2c57806385f5276f14610f695780638a2d659714610fbc57806395ecdf9e14610ff7578063a1d444a414611028578063a1e55acf146110a7578063a6129f8c14611115578063a692e0ef14611186578063ac443d9f146111e1578063afe2da7a14611232578063baf4266014611304578063bb3b5f6d14611353578063c004b7de146113b7578063c3093bb11461140a578063c362c7901461145d578063cfd5917214611498578063d8d50179146114cb578063db4ecbc1146115cf578063de233e4214611626578063e14b2c26146116ac578063e2cf05d41461171c578063e3f3f7a2146117f0578063e41566751461182b578063e7853aac14611878578063e81362fe146118c5578063eb82718a14611980578063eef7b8f5146119c5578063f0ab3dd914611a04578063ffec1b2114611a37575b600080fd5b3480156102fc57600080fd5b5061032d60048036038101908080356000191690602001909291908035600019169060200190929190505050611a98565b60405180856000191660001916815260200184815260200180602001838152602001828103825284818151815260200191508051906020019060200280838360005b8381101561038a57808201518184015260208101905061036f565b505050509050019550505050505060405180910390f35b3480156103ad57600080fd5b506103b6611c05565b604051808273ffffffffffffffffffffffffffffffffffffffff1673ffffffffffffffffffffffffffffffffffffffff16815260200191505060405180910390f35b34801561040457600080fd5b506104276004803603810190808035600019169060200190929190505050611c2a565b005b34801561043557600080fd5b50610462600480360381019080803560001916906020019092919080359060200190929190505050611c4c565b604051808215151515815260200191505060405180910390f35b34801561048857600080fd5b506104ab6004803603810190808035600019169060200190929190505050611ca9565b60405180826000191660001916815260200191505060405180910390f35b3480156104d557600080fd5b506104f86004803603810190808035600019169060200190929190505050611cdd565b604051808215151515815260200191505060405180910390f35b34801561051e57600080fd5b5061054f60048036038101908080356000191690602001909291908035600019169060200190929190505050611d28565b60405180826000191660001916815260200191505060405180910390f35b34801561057957600080fd5b506105c6600480360381019080803560001916906020019092919080359060200190929190803573ffffffffffffffffffffffffffffffffffffffff169060200190929190505050611d69565b60405180831515151581526020018281526020019250505060405180910390f35b3480156105f357600080fd5b506106166004803603810190808035600019169060200190929190505050611e9e565b60405180826000191660001916815260200191505060405180910390f35b34801561064057600080fd5b50610679600480360381019080803560001916906020019092919080359060200190929190803515159060200190929190505050611edd565b005b34801561068757600080fd5b506106aa6004803603810190808035600019169060200190929190505050612135565b60405180826000191660001916815260200191505060405180910390f35b3480156106d457600080fd5b506107036004803603810190808035600019169060200190929190803515159060200190929190505050612149565b005b34801561071157600080fd5b5061073e60048036038101908080356000191690602001909291908035906020019092919050505061219c565b005b34801561074c57600080fd5b506107a56004803603810190808035600019169060200190929190803573ffffffffffffffffffffffffffffffffffffffff16906020019092919080351515906020019092919080359060200190929190505050612201565b005b3480156107b357600080fd5b506107ea6004803603810190808035600019169060200190929190803590602001909291908035906020019092919050505061240b565b005b3480156107f857600080fd5b50610801612494565b60405180826000191660001916815260200191505060405180910390f35b34801561082b57600080fd5b5061084e600480360381019080803560001916906020019092919050505061249a565b604051808215151515815260200191505060405180910390f35b34801561087457600080fd5b506108a16004803603810190808035600019169060200190929190803590602001909291905050506124d2565b6040518082815260200191505060405180910390f35b3480156108c357600080fd5b506108e660048036038101908080356000191690602001909291905050506125b9565b6040518082815260200191505060405180910390f35b34801561090857600080fd5b506109416004803603810190808035600019169060200190929190803590602001909291908035151590602001909291905050506125f4565b005b34801561094f57600080fd5b506109726004803603810190808035600019169060200190929190505050612659565b604051808273ffffffffffffffffffffffffffffffffffffffff1673ffffffffffffffffffffffffffffffffffffffff16815260200191505060405180910390f35b3480156109c057600080fd5b506109ed600480360381019080803560001916906020019092919080359060200190929190505050612735565b604051808215151515815260200191505060405180910390f35b348015610a1357600080fd5b50610a366004803603810190808035600019169060200190929190505050612792565b005b348015610a4457600080fd5b50610a75600480360381019080803560001916906020019092919080356000191690602001909291905050506127da565b60405180826000191660001916815260200191505060405180910390f35b348015610a9f57600080fd5b50610ac26004803603810190808035600019169060200190929190505050612810565b6040518082815260200191505060405180910390f35b348015610ae457600080fd5b50610b07600480360381019080803560001916906020019092919050505061284e565b6040518082815260200191505060405180910390f35b348015610b2957600080fd5b50610b5a60048036038101908080356000191690602001909291908035600019169060200190929190505050612879565b60405180826000191660001916815260200191505060405180910390f35b348015610b8457600080fd5b50610bdf60048036038101908080356000191690602001909291908035600019169060200190929190803573ffffffffffffffffffffffffffffffffffffffff169060200190929190803590602001909291905050506128af565b005b348015610bed57600080fd5b50610c3a600480360381019080803560001916906020019092919080359060200190929190803573ffffffffffffffffffffffffffffffffffffffff169060200190929190505050612943565b60405180826000191660001916815260200191505060405180910390f35b348015610c6457600080fd5b50610c8760048036038101908080356000191690602001909291905050506129d1565b604051808273ffffffffffffffffffffffffffffffffffffffff1673ffffffffffffffffffffffffffffffffffffffff16815260200191505060405180910390f35b348015610cd557600080fd5b50610deb6004803603810190808035600019169060200190929190803590602001909291908035151590602001909291908035906020019082018035906020019080806020026020016040519081016040528093929190818152602001838360200280828437820191505050505050919291929080359060200190820180359060200190808060200260200160405190810160405280939291908181526020018383602002808284378201915050505050509192919290803590602001908201803590602001908080602002602001604051908101604052809392919081815260200183836020028082843782019150505050505091929192908035906020019092919080359060200190929190505050612a19565b005b348015610df957600080fd5b50610e1c6004803603810190808035600019169060200190929190505050612be8565b60405180826000191660001916815260200191505060405180910390f35b348015610e4657600080fd5b50610e696004803603810190808035600019169060200190929190505050612bfc565b6040518080602001838152602001828103825284818151815260200191508051906020019060200280838360005b83811015610eb2578082015181840152602081019050610e97565b50505050905001935050505060405180910390f35b348015610ed357600080fd5b50610f00600480360381019080803560001916906020019092919080359060200190929190505050612d1c565b604051808481526020018381526020018260001916600019168152602001935050505060405180910390f35b348015610f3857600080fd5b50610f676004803603810190808035600019169060200190929190803515159060200190929190505050612e31565b005b348015610f7557600080fd5b50610fa260048036038101908080356000191690602001909291908035906020019092919050505061306c565b604051808215151515815260200191505060405180910390f35b348015610fc857600080fd5b50610ff56004803603810190808035600019169060200190929190803590602001909291905050506130b6565b005b34801561100357600080fd5b5061102660048036038101908080356000191690602001909291905050506130f3565b005b34801561103457600080fd5b506110a56004803603810190808035600019169060200190929190803573ffffffffffffffffffffffffffffffffffffffff16906020019092919080359060200190820180359060200191909192939192939080359060200190929190803515159060200190929190505050613301565b005b3480156110b357600080fd5b506110f86004803603810190808035600019169060200190929190803590602001909291908035906020019082018035906020019190919293919293905050506136dc565b604051808381526020018281526020019250505060405180910390f35b34801561112157600080fd5b506111846004803603810190808035600019169060200190929190803573ffffffffffffffffffffffffffffffffffffffff1690602001909291908035151590602001909291908035906020019092919080359060200190929190505050613803565b005b34801561119257600080fd5b506111c36004803603810190808035600019169060200190929190803560001916906020019092919050505061391b565b60405180826000191660001916815260200191505060405180910390f35b3480156111ed57600080fd5b506112306004803603810190808035600019169060200190929190803573ffffffffffffffffffffffffffffffffffffffff16906020019092919050505061395c565b005b34801561123e57600080fd5b50611302600480360381019080803560001916906020019092919080359060200190929190803573ffffffffffffffffffffffffffffffffffffffff169060200190929190803573ffffffffffffffffffffffffffffffffffffffff169060200190929190803590602001908201803590602001908080602002602001604051908101604052809392919081815260200183836020028082843782019150505050505091929192908035906020019092919080359060200190929190505050613b92565b005b34801561131057600080fd5b5061133d6004803603810190808035600019169060200190929190803590602001909291905050506140c2565b6040518082815260200191505060405180910390f35b34801561135f57600080fd5b5061139a6004803603810190808035600019169060200190929190803590602001908201803590602001919091929391929390505050614112565b604051808381526020018281526020019250505060405180910390f35b3480156113c357600080fd5b50611408600480360381019080803560001916906020019092919080359060200190929190803560001916906020019092919080359060200190929190505050614227565b005b34801561141657600080fd5b5061145b6004803603810190808035600019169060200190929190803590602001908201803590602001919091929391929390803590602001909291905050506143ea565b005b34801561146957600080fd5b506114966004803603810190808035600019169060200190929190803590602001909291905050506144cc565b005b3480156114a457600080fd5b506114ad614540565b60405180826000191660001916815260200191505060405180910390f35b3480156114d757600080fd5b506114fa6004803603810190808035600019169060200190929190505050614551565b604051808b600019166000191681526020018a73ffffffffffffffffffffffffffffffffffffffff1673ffffffffffffffffffffffffffffffffffffffff1681526020018973ffffffffffffffffffffffffffffffffffffffff1673ffffffffffffffffffffffffffffffffffffffff16815260200188600019166000191681526020018781526020018681526020018560001916600019168152602001846000191660001916815260200183151515158152602001821515151581526020019a505050505050505050505060405180910390f35b3480156115db57600080fd5b506115e461464e565b604051808273ffffffffffffffffffffffffffffffffffffffff1673ffffffffffffffffffffffffffffffffffffffff16815260200191505060405180910390f35b34801561163257600080fd5b506116556004803603810190808035600019169060200190929190505050614674565b6040518080602001828103825283818151815260200191508051906020019060200280838360005b8381101561169857808201518184015260208101905061167d565b505050509050019250505060405180910390f35b3480156116b857600080fd5b506116fb6004803603810190808035600019169060200190929190803573ffffffffffffffffffffffffffffffffffffffff169060200190929190505050614747565b60405180831515151581526020018281526020019250505060405180910390f35b34801561172857600080fd5b506117ee600480360381019080803560001916906020019092919080359060200190929190803515159060200190929190803573ffffffffffffffffffffffffffffffffffffffff169060200190929190803573ffffffffffffffffffffffffffffffffffffffff169060200190929190803590602001908201803590602001908080602002602001604051908101604052809392919081815260200183836020028082843782019150505050505091929192908035906020019092919050505061486a565b005b3480156117fc57600080fd5b5061182960048036038101908080356000191690602001909291908035906020019092919050505061501e565b005b34801561183757600080fd5b5061185a600480360381019080803560001916906020019092919050505061505e565b60405180826000191660001916815260200191505060405180910390f35b34801561188457600080fd5b506118a76004803603810190808035600019169060200190929190505050615092565b60405180826000191660001916815260200191505060405180910390f35b3480156118d157600080fd5b506119226004803603810190808035600019169060200190929190803590602001909291908035906020019082018035906020019190919293919293908035151590602001909291905050506150d1565b6040518080602001838152602001828103825284818151815260200191508051906020019060200280838360005b8381101561196b578082015181840152602081019050611950565b50505050905001935050505060405180910390f35b34801561198c57600080fd5b506119af6004803603810190808035600019169060200190929190505050615260565b6040518082815260200191505060405180910390f35b3480156119d157600080fd5b50611a0260048036038101908080356000191690602001909291908035600019169060200190929190505050615288565b005b348015611a1057600080fd5b50611a19615349565b60405180826000191660001916815260200191505060405180910390f35b348015611a4357600080fd5b50611a96600480360381019080803560001916906020019092919080356000191690602001909291908035906020019082018035906020019190919293919293908035906020019092919050505061535a565b005b600080606060006076600087600019166000191681526020019081526020016000206009016000866000191660001916815260200190815260200160002073__DaoStructs____________________________6310d31f6490916040518263ffffffff167c01000000000000000000000000000000000000000000000000000000000281526004018082815260200191505060006040518083038186803b158015611b4257600080fd5b505af4158015611b56573d6000803e3d6000fd5b505050506040513d6000823e3d601f19601f820116820180604052506080811015611b8057600080fd5b8101908080519060200190929190805190602001909291908051640100000000811115611bac57600080fd5b82810190506020810184811115611bc257600080fd5b8151856020820283011164010000000082111715611bdf57600080fd5b505092919060200180519060200190929190505050935093509350935092959194509250565b6000809054906101000a900473ffffffffffffffffffffffffffffffffffffffff1681565b611c35601454615453565b1515611c4057600080fd5b611c498161555d565b50565b6000611c56615755565b1515611c6157600080fd5b607660008460001916600019168152602001908152602001600020601001600083815260200190815260200160002060050160009054906101000a900460ff16905092915050565b6000806076600084600019166000191681526020019081526020016000209050611cd58160030161586f565b915050919050565b6000611ce7615755565b1515611cf257600080fd5b607660008360001916600019168152602001908152602001600020600a0160050160009054906101000a900460ff169050919050565b6000611d32615755565b1515611d3d57600080fd5b611d6160776000856000191660001916815260200190815260200160002083615920565b905092915050565b600080611d74615755565b1515611d7f57600080fd5b607660008660001916600019168152602001908152602001600020601001600085815260200190815260200160002073__DaoStructs____________________________634bf150b99091856040518363ffffffff167c0100000000000000000000000000000000000000000000000000000000028152600401808381526020018273ffffffffffffffffffffffffffffffffffffffff1673ffffffffffffffffffffffffffffffffffffffff16815260200192505050604080518083038186803b158015611e4d57600080fd5b505af4158015611e61573d6000803e3d6000fd5b505050506040513d6040811015611e7757600080fd5b81019080805190602001909291908051906020019092919050505091509150935093915050565b6000611ea8615755565b1515611eb357600080fd5b611ed660776000846000191660001916815260200190815260200160002061586f565b9050919050565b611ee8601854615453565b1515611ef357600080fd5b801515611f0857611f038361555d565b6120e6565b60008214156120e557607760006007546000191660001916815260200190815260200160002073__DoublyLinkedList______________________6352c6bbf49091856040518363ffffffff167c01000000000000000000000000000000000000000000000000000000000281526004018083815260200182600019166000191681526020019250505060206040518083038186803b158015611faa57600080fd5b505af4158015611fbe573d6000803e3d6000fd5b505050506040513d6020811015611fd457600080fd5b810190808051906020019092919050505050607760006008546000191660001916815260200190815260200160002073__DoublyLinkedList______________________63582f30b49091856040518363ffffffff167c01000000000000000000000000000000000000000000000000000000000281526004018083815260200182600019166000191681526020019250505060206040518083038186803b15801561207f57600080fd5b505af4158015612093573d6000803e3d6000fd5b505050506040513d60208110156120a957600080fd5b81019080805190602001909291905050505060085460766000856000191660001916815260200190815260200160002060010181600019169055505b5b80607660008560001916600019168152602001908152602001600020601001600084815260200190815260200160002060050160006101000a81548160ff021916908315150217905550505050565b60006121426070836159e2565b9050919050565b612154601854615453565b151561215f57600080fd5b80607660008460001916600019168152602001908152602001600020600a0160050160016101000a81548160ff0219169083151502179055505050565b6121a7601e54615453565b15156121b257600080fd5b6001607660008460001916600019168152602001908152602001600020601001600083815260200190815260200160002060050160026101000a81548160ff0219169083151502179055505050565b600061220e601754615453565b151561221957600080fd5b60766000866000191660001916815260200190815260200160002090508215612322578181600a0160030160008673ffffffffffffffffffffffffffffffffffffffff1673ffffffffffffffffffffffffffffffffffffffff16815260200190815260200160002081905550600081600a0160040160008673ffffffffffffffffffffffffffffffffffffffff1673ffffffffffffffffffffffffffffffffffffffff16815260200190815260200160002054111561231d57600081600a0160040160008673ffffffffffffffffffffffffffffffffffffffff1673ffffffffffffffffffffffffffffffffffffffff168152602001908152602001600020819055505b612404565b8181600a0160040160008673ffffffffffffffffffffffffffffffffffffffff1673ffffffffffffffffffffffffffffffffffffffff16815260200190815260200160002081905550600081600a0160030160008673ffffffffffffffffffffffffffffffffffffffff1673ffffffffffffffffffffffffffffffffffffffff16815260200190815260200160002054111561240357600081600a0160030160008673ffffffffffffffffffffffffffffffffffffffff1673ffffffffffffffffffffffffffffffffffffffff168152602001908152602001600020819055505b5b5050505050565b61244d60606040519081016040528060145460001916600019168152602001601854600019166000191681526020016003546000191660001916815250615aa4565b151561245857600080fd5b80607660008560001916600019168152602001908152602001600020601001600084815260200190815260200160002060000181905550505050565b60015481565b6000607660008360001916600019168152602001908152602001600020600a0160050160019054906101000a900460ff169050919050565b60006124dc615755565b15156124e757600080fd5b60766000846000191660001916815260200190815260200160002073__DaoStructs____________________________631728cc369091846040518363ffffffff167c0100000000000000000000000000000000000000000000000000000000028152600401808381526020018281526020019250505060206040518083038186803b15801561257657600080fd5b505af415801561258a573d6000803e3d6000fd5b505050506040513d60208110156125a057600080fd5b8101908080519060200190929190505050905092915050565b60006125c3615755565b15156125ce57600080fd5b607660008360001916600019168152602001908152602001600020601101549050919050565b6125ff601854615453565b151561260a57600080fd5b80607660008560001916600019168152602001908152602001600020601001600084815260200190815260200160002060050160016101000a81548160ff021916908315150217905550505050565b60008060009054906101000a900473ffffffffffffffffffffffffffffffffffffffff1673ffffffffffffffffffffffffffffffffffffffff16633f83acff836040518263ffffffff167c0100000000000000000000000000000000000000000000000000000000028152600401808260001916600019168152602001915050602060405180830381600087803b1580156126f357600080fd5b505af1158015612707573d6000803e3d6000fd5b505050506040513d602081101561271d57600080fd5b81019080805190602001909291905050509050919050565b600061273f615755565b151561274a57600080fd5b607660008460001916600019168152602001908152602001600020601001600083815260200190815260200160002060050160029054906101000a900460ff16905092915050565b61279d601454615453565b15156127a857600080fd5b6127b181611ca9565b607660008360001916600019168152602001908152602001600020601301816000191690555050565b600080607660008560001916600019168152602001908152602001600020905061280781600301846159e2565b91505092915050565b600061281a615755565b151561282557600080fd5b607660008360001916600019168152602001908152602001600020600a01600001549050919050565b6000607660008360001916600019168152602001908152602001600020601401805490509050919050565b60008060766000856000191660001916815260200190815260200160002090506128a68160030184615920565b91505092915050565b6128ba601754615453565b15156128c557600080fd5b82607660008660001916600019168152602001908152602001600020601001600083815260200190815260200160002060020160008473ffffffffffffffffffffffffffffffffffffffff1673ffffffffffffffffffffffffffffffffffffffff168152602001908152602001600020816000191690555050505050565b600061294d615755565b151561295857600080fd5b607660008560001916600019168152602001908152602001600020601001600084815260200190815260200160002060020160008373ffffffffffffffffffffffffffffffffffffffff1673ffffffffffffffffffffffffffffffffffffffff1681526020019081526020016000205490509392505050565b600060766000836000191660001916815260200190815260200160002060150160009054906101000a900473ffffffffffffffffffffffffffffffffffffffff169050919050565b600080607660008b6000191660001916815260200190815260200160002060100160008a815260200190815260200160002091508715612a7857607660008b60001916600019168152602001908152602001600020600a019150612ab0565b82607660008c6000191660001916815260200190815260200160002060100160008b8152602001908152602001600020600001819055505b600090505b83811015612bdc57600115158682815181101515612acf57fe5b9060200190602002015115151415612b5a578481815181101515612aef57fe5b906020019060200201518260030160008984815181101515612b0d57fe5b9060200190602002015173ffffffffffffffffffffffffffffffffffffffff1673ffffffffffffffffffffffffffffffffffffffff16815260200190815260200160002081905550612bcf565b8481815181101515612b6857fe5b906020019060200201518260040160008984815181101515612b8657fe5b9060200190602002015173ffffffffffffffffffffffffffffffffffffffff1673ffffffffffffffffffffffffffffffffffffffff168152602001908152602001600020819055505b8080600101915050612ab5565b50505050505050505050565b6000612bf5607083615920565b9050919050565b6060600080612c09615755565b1515612c1457600080fd5b60766000856000191660001916815260200190815260200160002060130154905060035460001916816000191614151515612c4e57600080fd5b60766000856000191660001916815260200190815260200160002060090160008260001916600019168152602001908152602001600020600401805480602002602001604051908101604052809291908181526020018280548015612cd257602002820191906000526020600020905b815481526020019060010190808311612cbe575b505050505092506076600085600019166000191681526020019081526020016000206009016000826000191660001916815260200190815260200160002060030154915050915091565b60008060006060607660008760001916600019168152602001908152602001600020601401805480602002602001604051908101604052809291908181526020016000905b82821015612dba5783829060005260206000209060030201606060405190810160405290816000820154815260200160018201546000191660001916815260200160028201548152505081526020019060010190612d61565b505050509050805185101515612dcf57600080fd5b8085815181101515612ddd57fe5b906020019060200201516040015193508085815181101515612dfb57fe5b906020019060200201516000015192508085815181101515612e1957fe5b90602001906020020151602001519150509250925092565b612e3c601854615453565b1515612e4757600080fd5b80607660008460001916600019168152602001908152602001600020600a0160050160006101000a81548160ff021916908315150217905550801561305e57607760006006546000191660001916815260200190815260200160002073__DoublyLinkedList______________________6352c6bbf49091846040518363ffffffff167c01000000000000000000000000000000000000000000000000000000000281526004018083815260200182600019166000191681526020019250505060206040518083038186803b158015612f1f57600080fd5b505af4158015612f33573d6000803e3d6000fd5b505050506040513d6020811015612f4957600080fd5b810190808051906020019092919050505050607760006007546000191660001916815260200190815260200160002073__DoublyLinkedList______________________63582f30b49091846040518363ffffffff167c01000000000000000000000000000000000000000000000000000000000281526004018083815260200182600019166000191681526020019250505060206040518083038186803b158015612ff457600080fd5b505af4158015613008573d6000803e3d6000fd5b505050506040513d602081101561301e57600080fd5b8101908080519060200190929190505050506007546076600084600019166000191681526020019081526020016000206001018160001916905550613068565b6130678261555d565b5b5050565b6000607660008460001916600019168152602001908152602001600020601001600083815260200190815260200160002060050160019054906101000a900460ff16905092915050565b6130c1601454615453565b15156130cc57600080fd5b80607660008460001916600019168152602001908152602001600020601201819055505050565b6000613100601854615453565b151561310b57600080fd5b60766000836000191660001916815260200190815260200160002060010154905060776000826000191660001916815260200190815260200160002073__DoublyLinkedList______________________6352c6bbf49091846040518363ffffffff167c01000000000000000000000000000000000000000000000000000000000281526004018083815260200182600019166000191681526020019250505060206040518083038186803b1580156131c357600080fd5b505af41580156131d7573d6000803e3d6000fd5b505050506040513d60208110156131ed57600080fd5b81019080805190602001909291905050505060776000600a546000191660001916815260200190815260200160002073__DoublyLinkedList______________________63582f30b49091846040518363ffffffff167c01000000000000000000000000000000000000000000000000000000000281526004018083815260200182600019166000191681526020019250505060206040518083038186803b15801561329857600080fd5b505af41580156132ac573d6000803e3d6000fd5b505050506040513d60208110156132c257600080fd5b810190808051906020019092919050505050600a5460766000846000191660001916815260200190815260200160002060010181600019169055505050565b61330c601454615453565b151561331757600080fd5b600354600019166076600088600019166000191681526020019081526020016000206000015460001916148015613358575060035460001916866000191614155b151561336357600080fd5b607073__DoublyLinkedList______________________63582f30b49091886040518363ffffffff167c01000000000000000000000000000000000000000000000000000000000281526004018083815260200182600019166000191681526020019250505060206040518083038186803b1580156133e157600080fd5b505af41580156133f5573d6000803e3d6000fd5b505050506040513d602081101561340b57600080fd5b810190808051906020019092919050505050607760006005546000191660001916815260200190815260200160002073__DoublyLinkedList______________________63582f30b49091886040518363ffffffff167c01000000000000000000000000000000000000000000000000000000000281526004018083815260200182600019166000191681526020019250505060206040518083038186803b1580156134b657600080fd5b505af41580156134ca573d6000803e3d6000fd5b505050506040513d60208110156134e057600080fd5b8101908080519060200190929190505050508560766000886000191660001916815260200190815260200160002060000181600019169055508460766000886000191660001916815260200190815260200160002060150160006101000a81548173ffffffffffffffffffffffffffffffffffffffff021916908373ffffffffffffffffffffffffffffffffffffffff160217905550600554607660008860001916600019168152602001908152602001600020600101816000191690555042607660008860001916600019168152602001908152602001600020600201819055508060766000886000191660001916815260200190815260200160002060160160156101000a81548160ff02191690831515021790555060766000876000191660001916815260200190815260200160002073__DaoStructs____________________________63ea496bc99091888787876040518663ffffffff167c01000000000000000000000000000000000000000000000000000000000281526004018086815260200185600019166000191681526020018060200183815260200182810382528585828181526020019250602002808284378201915050965050505050505060006040518083038186803b1580156136bc57600080fd5b505af41580156136d0573d6000803e3d6000fd5b50505050505050505050565b6000806136e7615755565b15156136f257600080fd5b607660008760001916600019168152602001908152602001600020601001600086815260200190815260200160002073__DaoStructs____________________________63b31ee28c909186866040518463ffffffff167c0100000000000000000000000000000000000000000000000000000000028152600401808481526020018060200182810382528484828181526020019250602002808284378201915050945050505050604080518083038186803b1580156137b157600080fd5b505af41580156137c5573d6000803e3d6000fd5b505050506040513d60408110156137db57600080fd5b8101908080519060200190929190805190602001909291905050509150915094509492505050565b61380e601754615453565b151561381957600080fd5b607660008660001916600019168152602001908152602001600020601001600082815260200190815260200160002073__DaoStructs____________________________631a14c51b90918686866040518563ffffffff167c0100000000000000000000000000000000000000000000000000000000028152600401808581526020018473ffffffffffffffffffffffffffffffffffffffff1673ffffffffffffffffffffffffffffffffffffffff1681526020018315151515815260200182815260200194505050505060006040518083038186803b1580156138fc57600080fd5b505af4158015613910573d6000803e3d6000fd5b505050505050505050565b6000613925615755565b151561393057600080fd5b613954607760008560001916600019168152602001908152602001600020836159e2565b905092915050565b6000613969601454615453565b151561397457600080fd5b6076600084600019166000191681526020019081526020016000209050818160160160006101000a81548173ffffffffffffffffffffffffffffffffffffffff021916908373ffffffffffffffffffffffffffffffffffffffff160217905550600654816001018160001916905550607760006005546000191660001916815260200190815260200160002073__DoublyLinkedList______________________6352c6bbf49091856040518363ffffffff167c01000000000000000000000000000000000000000000000000000000000281526004018083815260200182600019166000191681526020019250505060206040518083038186803b158015613a7c57600080fd5b505af4158015613a90573d6000803e3d6000fd5b505050506040513d6020811015613aa657600080fd5b810190808051906020019092919050505050607760006006546000191660001916815260200190815260200160002073__DoublyLinkedList______________________63582f30b49091856040518363ffffffff167c01000000000000000000000000000000000000000000000000000000000281526004018083815260200182600019166000191681526020019250505060206040518083038186803b158015613b5157600080fd5b505af4158015613b65573d6000803e3d6000fd5b505050506040513d6020811015613b7b57600080fd5b810190808051906020019092919050505050505050565b607073__DoublyLinkedList______________________63582f30b49091896040518363ffffffff167c01000000000000000000000000000000000000000000000000000000000281526004018083815260200182600019166000191681526020019250505060206040518083038186803b158015613c1057600080fd5b505af4158015613c24573d6000803e3d6000fd5b505050506040513d6020811015613c3a57600080fd5b8101908080519060200190929190505050508660766000896000191660001916815260200190815260200160002060000181600019169055508460766000896000191660001916815260200190815260200160002060150160006101000a81548173ffffffffffffffffffffffffffffffffffffffff021916908373ffffffffffffffffffffffffffffffffffffffff16021790555061012c42036076600089600019166000191681526020019081526020016000206002018190555060766000886000191660001916815260200190815260200160002060030173__DoublyLinkedList______________________63582f30b49091896040518363ffffffff167c01000000000000000000000000000000000000000000000000000000000281526004018083815260200182600019166000191681526020019250505060206040518083038186803b158015613d9157600080fd5b505af4158015613da5573d6000803e3d6000fd5b505050506040513d6020811015613dbb57600080fd5b810190808051906020019092919050505050866076600089600019166000191681526020019081526020016000206009016000896000191660001916815260200190815260200160002060000181600019169055504260766000896000191660001916815260200190815260200160002060090160008960001916600019168152602001908152602001600020600101819055508251607660008960001916600019168152602001908152602001600020600901600089600019166000191681526020019081526020016000206002018190555082607660008960001916600019168152602001908152602001600020600901600089600019166000191681526020019081526020016000206004019080519060200190613edd929190615d8f565b508160766000896000191660001916815260200190815260200160002060090160008960001916600019168152602001908152602001600020600301819055508360766000896000191660001916815260200190815260200160002060160160006101000a81548173ffffffffffffffffffffffffffffffffffffffff021916908373ffffffffffffffffffffffffffffffffffffffff160217905550866076600089600019166000191681526020019081526020016000206013018160001916905550806076600089600019166000191681526020019081526020016000206010016000888152602001908152602001600020600001819055506001607660008960001916600019168152602001908152602001600020601001600088815260200190815260200160002060050160016101000a81548160ff0219169083151502179055506001607660008960001916600019168152602001908152602001600020601001600088815260200190815260200160002060050160006101000a81548160ff0219169083151502179055506001607660008960001916600019168152602001908152602001600020601001600088815260200190815260200160002060050160026101000a81548160ff02191690831515021790555050505050505050565b60006140cc615755565b15156140d757600080fd5b607660008460001916600019168152602001908152602001600020601001600083815260200190815260200160002060000154905092915050565b60008061411d615755565b151561412857600080fd5b607660008660001916600019168152602001908152602001600020600a0173__DaoStructs____________________________63b31ee28c909186866040518463ffffffff167c0100000000000000000000000000000000000000000000000000000000028152600401808481526020018060200182810382528484828181526020019250602002808284378201915050945050505050604080518083038186803b1580156141d657600080fd5b505af41580156141ea573d6000803e3d6000fd5b505050506040513d604081101561420057600080fd5b81019080805190602001909291908051906020019092919050505091509150935093915050565b61422f615ddc565b61423a601454615453565b151561424557600080fd5b6009546000191660766000876000191660001916815260200190815260200160002060010154600019161415151561427c57600080fd5b818160000181815250508281602001906000191690816000191681525050838160400181815250506076600086600019166000191681526020019081526020016000206014018190806001815401808255809150509060018203906000526020600020906003020160009091929091909150600082015181600001556020820151816001019060001916905560408201518160020155505050600c5484141561435b57600160766000876000191660001916815260200190815260200160002060160160146101000a81548160ff0219169083151502179055506143e3565b600d548414156143a157600060766000876000191660001916815260200190815260200160002060160160146101000a81548160ff0219169083151502179055506143e2565b600160766000876000191660001916815260200190815260200160002060160160146101000a81548160ff0219169083151502179055506143e18561555d565b5b5b5050505050565b60006143f7601454615453565b151561440257600080fd5b6076600086600019166000191681526020019081526020016000206013015490506003546000191681600019161415151561443c57600080fd5b8383607660008860001916600019168152602001908152602001600020600901600084600019166000191681526020019081526020016000206004019190614485929190615e01565b508160766000876000191660001916815260200190815260200160002060090160008360001916600019168152602001908152602001600020600301819055505050505050565b61450e60606040519081016040528060185460001916600019168152602001601e54600019166000191681526020016014546000191660001916815250615aa4565b151561451957600080fd5b80607660008460001916600019168152602001908152602001600020601101819055505050565b600061454c6070615c1b565b905090565b600080600080600080600080600080600061456a615755565b151561457557600080fd5b607660008d60001916600019168152602001908152602001600020905080600001549a508060150160009054906101000a900473ffffffffffffffffffffffffffffffffffffffff1699508060160160009054906101000a900473ffffffffffffffffffffffffffffffffffffffff169850806001015497508060020154965061460181600301615ccc565b955061460f8160030161586f565b9450806013015493508060160160149054906101000a900460ff1692508060160160159054906101000a900460ff169150509193959799509193959799565b600260009054906101000a900473ffffffffffffffffffffffffffffffffffffffff1681565b60606000607660008460001916600019168152602001908152602001600020601301549050600354600019168160001916141515156146b257600080fd5b6076600084600019166000191681526020019081526020016000206009016000826000191660001916815260200190815260200160002060050180548060200260200160405190810160405280929190818152602001828054801561473a57602002820191906000526020600020905b81546000191681526020019060010190808311614722575b5050505050915050919050565b600080614752615755565b151561475d57600080fd5b607660008560001916600019168152602001908152602001600020600a0173__DaoStructs____________________________634bf150b99091856040518363ffffffff167c0100000000000000000000000000000000000000000000000000000000028152600401808381526020018273ffffffffffffffffffffffffffffffffffffffff1673ffffffffffffffffffffffffffffffffffffffff16815260200192505050604080518083038186803b15801561481a57600080fd5b505af415801561482e573d6000803e3d6000fd5b505050506040513d604081101561484457600080fd5b810190808051906020019092919080519060200190929190505050915091509250929050565b607073__DoublyLinkedList______________________63582f30b49091896040518363ffffffff167c01000000000000000000000000000000000000000000000000000000000281526004018083815260200182600019166000191681526020019250505060206040518083038186803b1580156148e857600080fd5b505af41580156148fc573d6000803e3d6000fd5b505050506040513d602081101561491257600080fd5b8101908080519060200190929190505050508660766000896000191660001916815260200190815260200160002060000181600019169055508360766000896000191660001916815260200190815260200160002060150160006101000a81548173ffffffffffffffffffffffffffffffffffffffff021916908373ffffffffffffffffffffffffffffffffffffffff160217905550603c42036076600089600019166000191681526020019081526020016000206002018190555060766000886000191660001916815260200190815260200160002060030173__DoublyLinkedList______________________63582f30b49091896040518363ffffffff167c01000000000000000000000000000000000000000000000000000000000281526004018083815260200182600019166000191681526020019250505060206040518083038186803b158015614a6857600080fd5b505af4158015614a7c573d6000803e3d6000fd5b505050506040513d6020811015614a9257600080fd5b810190808051906020019092919050505050866076600089600019166000191681526020019081526020016000206009016000896000191660001916815260200190815260200160002060000181600019169055504260766000896000191660001916815260200190815260200160002060090160008960001916600019168152602001908152602001600020600101819055508151607660008960001916600019168152602001908152602001600020600901600089600019166000191681526020019081526020016000206002018190555081607660008960001916600019168152602001908152602001600020600901600089600019166000191681526020019081526020016000206004019080519060200190614bb4929190615d8f565b508060766000896000191660001916815260200190815260200160002060090160008960001916600019168152602001908152602001600020600301819055508260766000896000191660001916815260200190815260200160002060160160006101000a81548173ffffffffffffffffffffffffffffffffffffffff021916908373ffffffffffffffffffffffffffffffffffffffff160217905550866076600089600019166000191681526020019081526020016000206013018160001916905550671bc16d674ec80000607660008960001916600019168152602001908152602001600020601201819055508415614dd257607760006006546000191660001916815260200190815260200160002073__DoublyLinkedList______________________63582f30b49091896040518363ffffffff167c01000000000000000000000000000000000000000000000000000000000281526004018083815260200182600019166000191681526020019250505060206040518083038186803b158015614d4257600080fd5b505af4158015614d56573d6000803e3d6000fd5b505050506040513d6020811015614d6c57600080fd5b810190808051906020019092919050505050600654607660008960001916600019168152602001908152602001600020600101816000191690555042607660008960001916600019168152602001908152602001600020600a0160000181905550615015565b6000861415614ede57607760006007546000191660001916815260200190815260200160002073__DoublyLinkedList______________________63582f30b49091896040518363ffffffff167c01000000000000000000000000000000000000000000000000000000000281526004018083815260200182600019166000191681526020019250505060206040518083038186803b158015614e7457600080fd5b505af4158015614e88573d6000803e3d6000fd5b505050506040513d6020811015614e9e57600080fd5b8101908080519060200190929190505050506007546076600089600019166000191681526020019081526020016000206001018160001916905550614fdd565b607760006008546000191660001916815260200190815260200160002073__DoublyLinkedList______________________63582f30b49091896040518363ffffffff167c01000000000000000000000000000000000000000000000000000000000281526004018083815260200182600019166000191681526020019250505060206040518083038186803b158015614f7757600080fd5b505af4158015614f8b573d6000803e3d6000fd5b505050506040513d6020811015614fa157600080fd5b81019080805190602001909291905050505060085460766000896000191660001916815260200190815260200160002060010181600019169055505b426076600089600019166000191681526020019081526020016000206010016000888152602001908152602001600020600001819055505b50505050505050565b615029601454615453565b151561503457600080fd5b80607660008460001916600019168152602001908152602001600020600a01600001819055505050565b600080607660008460001916600019168152602001908152602001600020905061508a81600301615c1b565b915050919050565b600061509c615755565b15156150a757600080fd5b6150ca607760008460001916600019168152602001908152602001600020615c1b565b9050919050565b606060006150dd615755565b15156150e857600080fd5b607660008860001916600019168152602001908152602001600020601001600087815260200190815260200160002073__DaoStructs____________________________63f53380cf90918787876040518563ffffffff167c0100000000000000000000000000000000000000000000000000000000028152600401808581526020018060200183151515158152602001828103825285858281815260200192506020028082843782019150509550505050505060006040518083038186803b1580156151b457600080fd5b505af41580156151c8573d6000803e3d6000fd5b505050506040513d6000823e3d601f19601f8201168201806040525060408110156151f257600080fd5b81019080805164010000000081111561520a57600080fd5b8281019050602081018481111561522057600080fd5b815185602082028301116401000000008211171561523d57600080fd5b505092919060200180519060200190929190505050915091509550959350505050565b6000607660008360001916600019168152602001908152602001600020601201549050919050565b6000615295601454615453565b15156152a057600080fd5b607660008460001916600019168152602001908152602001600020601301549050600354600019168160001916141515156152da57600080fd5b60766000846000191660001916815260200190815260200160002060090160008260001916600019168152602001908152602001600020600501829080600181540180825580915050906001820390600052602060002001600090919290919091509060001916905550505050565b6000615355607061586f565b905090565b615365601454615453565b151561537057600080fd5b60766000866000191660001916815260200190815260200160002073__DaoStructs____________________________63ea496bc99091868686866040518663ffffffff167c01000000000000000000000000000000000000000000000000000000000281526004018086815260200185600019166000191681526020018060200183815260200182810382528585828181526020019250602002808284378201915050965050505050505060006040518083038186803b15801561543457600080fd5b505af4158015615448573d6000803e3d6000fd5b505050505050505050565b60008060009054906101000a900473ffffffffffffffffffffffffffffffffffffffff1673ffffffffffffffffffffffffffffffffffffffff16633f83acff836040518263ffffffff167c0100000000000000000000000000000000000000000000000000000000028152600401808260001916600019168152602001915050602060405180830381600087803b1580156154ed57600080fd5b505af1158015615501573d6000803e3d6000fd5b505050506040513d602081101561551757600080fd5b810190808051906020019092919050505073ffffffffffffffffffffffffffffffffffffffff163373ffffffffffffffffffffffffffffffffffffffff16149050919050565b600060766000836000191660001916815260200190815260200160002060010154905060776000826000191660001916815260200190815260200160002073__DoublyLinkedList______________________6352c6bbf49091846040518363ffffffff167c01000000000000000000000000000000000000000000000000000000000281526004018083815260200182600019166000191681526020019250505060206040518083038186803b15801561561757600080fd5b505af415801561562b573d6000803e3d6000fd5b505050506040513d602081101561564157600080fd5b810190808051906020019092919050505050607760006009546000191660001916815260200190815260200160002073__DoublyLinkedList______________________63582f30b49091846040518363ffffffff167c01000000000000000000000000000000000000000000000000000000000281526004018083815260200182600019166000191681526020019250505060206040518083038186803b1580156156ec57600080fd5b505af4158015615700573d6000803e3d6000fd5b505050506040513d602081101561571657600080fd5b81019080805190602001909291905050505060095460766000846000191660001916815260200190815260200160002060010181600019169055505050565b60003273ffffffffffffffffffffffffffffffffffffffff163373ffffffffffffffffffffffffffffffffffffffff16148061586a5750615794615d7d565b73ffffffffffffffffffffffffffffffffffffffff16639b19251a336040518263ffffffff167c0100000000000000000000000000000000000000000000000000000000028152600401808273ffffffffffffffffffffffffffffffffffffffff1673ffffffffffffffffffffffffffffffffffffffff168152602001915050602060405180830381600087803b15801561582e57600080fd5b505af1158015615842573d6000803e3d6000fd5b505050506040513d602081101561585857600080fd5b81019080805190602001909291905050505b905090565b60008173__DoublyLinkedList______________________632553148290916040518263ffffffff167c01000000000000000000000000000000000000000000000000000000000281526004018082815260200191505060206040518083038186803b1580156158de57600080fd5b505af41580156158f2573d6000803e3d6000fd5b505050506040513d602081101561590857600080fd5b81019080805190602001909291905050509050919050565b60008273__DoublyLinkedList______________________632a1441789091846040518363ffffffff167c01000000000000000000000000000000000000000000000000000000000281526004018083815260200182600019166000191681526020019250505060206040518083038186803b15801561599f57600080fd5b505af41580156159b3573d6000803e3d6000fd5b505050506040513d60208110156159c957600080fd5b8101908080519060200190929190505050905092915050565b60008273__DoublyLinkedList______________________63cf06689d9091846040518363ffffffff167c01000000000000000000000000000000000000000000000000000000000281526004018083815260200182600019166000191681526020019250505060206040518083038186803b158015615a6157600080fd5b505af4158015615a75573d6000803e3d6000fd5b505050506040513d6020811015615a8b57600080fd5b8101908080519060200190929190505050905092915050565b600080600060039150600090505b81811015615c14576000600102600019168482600381101515615ad157fe5b6020020151600019161415615ae557615c07565b6000809054906101000a900473ffffffffffffffffffffffffffffffffffffffff1673ffffffffffffffffffffffffffffffffffffffff16633f83acff8583600381101515615b3057fe5b60200201516040518263ffffffff167c0100000000000000000000000000000000000000000000000000000000028152600401808260001916600019168152602001915050602060405180830381600087803b158015615b8f57600080fd5b505af1158015615ba3573d6000803e3d6000fd5b505050506040513d6020811015615bb957600080fd5b810190808051906020019092919050505073ffffffffffffffffffffffffffffffffffffffff163373ffffffffffffffffffffffffffffffffffffffff161415615c065760019250615c14565b5b8080600101915050615ab2565b5050919050565b60008173__DoublyLinkedList______________________6356717c7990916040518263ffffffff167c01000000000000000000000000000000000000000000000000000000000281526004018082815260200191505060206040518083038186803b158015615c8a57600080fd5b505af4158015615c9e573d6000803e3d6000fd5b505050506040513d6020811015615cb457600080fd5b81019080805190602001909291905050509050919050565b60008173__DoublyLinkedList______________________630f77955290916040518263ffffffff167c01000000000000000000000000000000000000000000000000000000000281526004018082815260200191505060206040518083038186803b158015615d3b57600080fd5b505af4158015615d4f573d6000803e3d6000fd5b505050506040513d6020811015615d6557600080fd5b81019080805190602001909291905050509050919050565b6000615d8a602e54612659565b905090565b828054828255906000526020600020908101928215615dcb579160200282015b82811115615dca578251825591602001919060010190615daf565b5b509050615dd89190615e4e565b5090565b6060604051908101604052806000815260200160008019168152602001600081525090565b828054828255906000526020600020908101928215615e3d579160200282015b82811115615e3c578235825591602001919060010190615e21565b5b509050615e4a9190615e4e565b5090565b615e7091905b80821115615e6c576000816000905550600101615e54565b5090565b905600a165627a7a723058203e8f116330f2488581bb00866b394e6e8ffd08f5259a3315bcf2baed6cad55d20029",
  "source": "pragma solidity ^0.4.25;\n\nimport \"../../storage/DaoStorage.sol\";\n\ncontract MockDaoStorage is DaoStorage {\n    using DoublyLinkedList for DoublyLinkedList.Bytes;\n\n    constructor(address _resolver) public DaoStorage(_resolver) {}\n\n    /**\n    @notice Function to mock add new proposal in pre-defined state\n    @dev Note that this function will only be called during the tests\n    @param _proposalId ID of the proposal, i.e. IPFS doc hash\n    @param _roundIndex Index of the voting round, if not draft phase\n    @param _proposer Address of the proposer\n    @param _endorser Address of the endorser\n    @param _milestonesFundings Uint Array of the milestone fundings\n    @param _isDraftPhase Boolean, true if adding proposal in draft phase\n    @param _finalReward Final rewards on completion of proposal\n    */\n    function mock_put_proposal_as(\n        bytes32 _proposalId,\n        uint256 _roundIndex,\n        bool _isDraftPhase,\n        address _proposer,\n        address _endorser,\n        uint256[] _milestonesFundings,\n        uint256 _finalReward\n    )\n        public\n    {\n        allProposals.append(_proposalId);\n        proposalsById[_proposalId].proposalId = _proposalId;\n        proposalsById[_proposalId].proposer = _proposer;\n        proposalsById[_proposalId].timeCreated = now - (1 minutes);\n        proposalsById[_proposalId].proposalVersionDocs.append(_proposalId);\n        proposalsById[_proposalId].proposalVersions[_proposalId].docIpfsHash = _proposalId;\n        proposalsById[_proposalId].proposalVersions[_proposalId].created = now;\n        proposalsById[_proposalId].proposalVersions[_proposalId].milestoneCount = _milestonesFundings.length;\n        proposalsById[_proposalId].proposalVersions[_proposalId].milestoneFundings = _milestonesFundings;\n        proposalsById[_proposalId].proposalVersions[_proposalId].finalReward = _finalReward;\n        proposalsById[_proposalId].endorser = _endorser;\n        proposalsById[_proposalId].finalVersion = _proposalId;\n        proposalsById[_proposalId].collateralAmount = 2 ether;\n        if (_isDraftPhase) {\n            proposalsByState[PROPOSAL_STATE_DRAFT].append(_proposalId);\n            proposalsById[_proposalId].currentState = PROPOSAL_STATE_DRAFT;\n            proposalsById[_proposalId].draftVoting.startTime = now;\n        } else {\n            if (_roundIndex == 0) {\n                proposalsByState[PROPOSAL_STATE_MODERATED].append(_proposalId);\n                proposalsById[_proposalId].currentState = PROPOSAL_STATE_MODERATED;\n            } else {\n                proposalsByState[PROPOSAL_STATE_ONGOING].append(_proposalId);\n                proposalsById[_proposalId].currentState = PROPOSAL_STATE_ONGOING;\n            }\n            proposalsById[_proposalId].votingRounds[_roundIndex].startTime = now;\n        }\n    }\n\n    function mock_put_proposal_in_milestone(\n        bytes32 _proposalId,\n        uint256 _milestoneId,\n        address _proposer,\n        address _endorser,\n        uint256[] _milestonesFundings,\n        uint256 _finalReward,\n        uint256 _previousVotingStart\n    )\n        public\n    {\n        allProposals.append(_proposalId);\n        proposalsById[_proposalId].proposalId = _proposalId;\n        proposalsById[_proposalId].proposer = _proposer;\n        proposalsById[_proposalId].timeCreated = now - (5 minutes);\n        proposalsById[_proposalId].proposalVersionDocs.append(_proposalId);\n        proposalsById[_proposalId].proposalVersions[_proposalId].docIpfsHash = _proposalId;\n        proposalsById[_proposalId].proposalVersions[_proposalId].created = now;\n        proposalsById[_proposalId].proposalVersions[_proposalId].milestoneCount = _milestonesFundings.length;\n        proposalsById[_proposalId].proposalVersions[_proposalId].milestoneFundings = _milestonesFundings;\n        proposalsById[_proposalId].proposalVersions[_proposalId].finalReward = _finalReward;\n        proposalsById[_proposalId].endorser = _endorser;\n        proposalsById[_proposalId].finalVersion = _proposalId;\n        proposalsById[_proposalId].votingRounds[_milestoneId].startTime = _previousVotingStart;\n        proposalsById[_proposalId].votingRounds[_milestoneId].claimed = true;\n        proposalsById[_proposalId].votingRounds[_milestoneId].passed = true;\n        proposalsById[_proposalId].votingRounds[_milestoneId].funded = true;\n    }\n\n    /**\n    @notice Mock function to add fake votes in the past for a proposal\n    @dev This will never be available in the deployment, only for test purposes\n    @param _proposalId ID of the proposal\n    @param _roundIndex Index of the voting round\n    @param _isDraftPhase Boolean, whether updating the votes for draft phase or not\n    @param _voters Array of addresses of the voters\n    @param _votes Boolean array of the votes (for or against)\n    @param _weights Uint array of the voting weights\n    @param _length Length of the above arrays (number of voters)\n    @param _startOfVotingRound start of this voting round\n    */\n    function mock_put_past_votes(\n        bytes32 _proposalId,\n        uint256 _roundIndex,\n        bool _isDraftPhase,\n        address[] _voters,\n        bool[] _votes,\n        uint256[] _weights,\n        uint256 _length,\n        uint256 _startOfVotingRound\n    )\n        public\n    {\n        DaoStructs.Voting storage _voting = proposalsById[_proposalId].votingRounds[_roundIndex];\n        if (_isDraftPhase) {\n            _voting = proposalsById[_proposalId].draftVoting;\n        } else {\n            proposalsById[_proposalId].votingRounds[_roundIndex].startTime = _startOfVotingRound;\n        }\n\n        for (uint256 i = 0; i < _length; i++) {\n            if (_votes[i] == true) {\n                _voting.yesVotes[_voters[i]] = _weights[i];\n            } else {\n                _voting.noVotes[_voters[i]] = _weights[i];\n            }\n        }\n    }\n}\n",
  "sourcePath": "/home/rohit/Develop/dao-contracts/contracts/mock/storage/MockDaoStorage.sol",
  "compiler": {
    "name": "solc",
    "version": "0.4.25+commit.59dbf8f1.Emscripten.clang"
  },
  "schemaVersion": "2.0.1",
  "updatedAt": "2019-01-18T06:49:39.267Z"
}