{
  "contractName": "MockDaoSpecialStorage",
  "abi": [
    {
      "constant": true,
      "inputs": [],
      "name": "resolver",
      "outputs": [
        {
          "name": "",
          "type": "address"
        }
      ],
      "payable": false,
      "stateMutability": "view",
      "type": "function"
    },
    {
      "constant": false,
      "inputs": [
        {
          "name": "_proposalId",
          "type": "bytes32"
        },
        {
          "name": "_result",
          "type": "bool"
        }
      ],
      "name": "setPass",
      "outputs": [],
      "payable": false,
      "stateMutability": "nonpayable",
      "type": "function"
    },
    {
      "constant": false,
      "inputs": [
        {
          "name": "_proposalId",
          "type": "bytes32"
        },
        {
          "name": "_hash",
          "type": "bytes32"
        },
        {
          "name": "_voter",
          "type": "address"
        }
      ],
      "name": "commitVote",
      "outputs": [],
      "payable": false,
      "stateMutability": "nonpayable",
      "type": "function"
    },
    {
      "constant": true,
      "inputs": [],
      "name": "key",
      "outputs": [
        {
          "name": "",
          "type": "bytes32"
        }
      ],
      "payable": false,
      "stateMutability": "view",
      "type": "function"
    },
    {
      "constant": true,
      "inputs": [
        {
          "name": "_key",
          "type": "bytes32"
        }
      ],
      "name": "get_contract",
      "outputs": [
        {
          "name": "_contract",
          "type": "address"
        }
      ],
      "payable": false,
      "stateMutability": "view",
      "type": "function"
    },
    {
      "constant": false,
      "inputs": [
        {
          "name": "_proposalId",
          "type": "bytes32"
        },
        {
          "name": "_voter",
          "type": "address"
        },
        {
          "name": "_vote",
          "type": "bool"
        },
        {
          "name": "_weight",
          "type": "uint256"
        }
      ],
      "name": "revealVote",
      "outputs": [],
      "payable": false,
      "stateMutability": "nonpayable",
      "type": "function"
    },
    {
      "constant": true,
      "inputs": [
        {
          "name": "_proposalId",
          "type": "bytes32"
        }
      ],
      "name": "readConfigs",
      "outputs": [
        {
          "name": "_uintConfigs",
          "type": "uint256[]"
        },
        {
          "name": "_addressConfigs",
          "type": "address[]"
        },
        {
          "name": "_bytesConfigs",
          "type": "bytes32[]"
        }
      ],
      "payable": false,
      "stateMutability": "view",
      "type": "function"
    },
    {
      "constant": true,
      "inputs": [
        {
          "name": "_proposalId",
          "type": "bytes32"
        }
      ],
      "name": "readProposalProposer",
      "outputs": [
        {
          "name": "_proposer",
          "type": "address"
        }
      ],
      "payable": false,
      "stateMutability": "view",
      "type": "function"
    },
    {
      "constant": false,
      "inputs": [
        {
          "name": "_proposalId",
          "type": "bytes32"
        },
        {
          "name": "_time",
          "type": "uint256"
        }
      ],
      "name": "setVotingTime",
      "outputs": [],
      "payable": false,
      "stateMutability": "nonpayable",
      "type": "function"
    },
    {
      "constant": true,
      "inputs": [
        {
          "name": "_proposalId",
          "type": "bytes32"
        },
        {
          "name": "_allUsers",
          "type": "address[]"
        }
      ],
      "name": "readVotingCount",
      "outputs": [
        {
          "name": "_for",
          "type": "uint256"
        },
        {
          "name": "_against",
          "type": "uint256"
        }
      ],
      "payable": false,
      "stateMutability": "view",
      "type": "function"
    },
    {
      "constant": true,
      "inputs": [
        {
          "name": "_proposalId",
          "type": "bytes32"
        }
      ],
      "name": "readVotingResult",
      "outputs": [
        {
          "name": "_result",
          "type": "bool"
        }
      ],
      "payable": false,
      "stateMutability": "view",
      "type": "function"
    },
    {
      "constant": true,
      "inputs": [
        {
          "name": "_proposalId",
          "type": "bytes32"
        }
      ],
      "name": "readVotingTime",
      "outputs": [
        {
          "name": "_start",
          "type": "uint256"
        }
      ],
      "payable": false,
      "stateMutability": "view",
      "type": "function"
    },
    {
      "constant": false,
      "inputs": [
        {
          "name": "_proposalId",
          "type": "bytes32"
        },
        {
          "name": "_proposer",
          "type": "address"
        },
        {
          "name": "_uintConfigs",
          "type": "uint256[]"
        },
        {
          "name": "_addressConfigs",
          "type": "address[]"
        },
        {
          "name": "_bytesConfigs",
          "type": "bytes32[]"
        }
      ],
      "name": "addSpecialProposal",
      "outputs": [],
      "payable": false,
      "stateMutability": "nonpayable",
      "type": "function"
    },
    {
      "constant": true,
      "inputs": [
        {
          "name": "_proposalId",
          "type": "bytes32"
        }
      ],
      "name": "isClaimed",
      "outputs": [
        {
          "name": "_claimed",
          "type": "bool"
        }
      ],
      "payable": false,
      "stateMutability": "view",
      "type": "function"
    },
    {
      "constant": false,
      "inputs": [
        {
          "name": "_proposalId",
          "type": "bytes32"
        },
        {
          "name": "_claimed",
          "type": "bool"
        }
      ],
      "name": "setVotingClaim",
      "outputs": [],
      "payable": false,
      "stateMutability": "nonpayable",
      "type": "function"
    },
    {
      "constant": true,
      "inputs": [
        {
          "name": "_proposalId",
          "type": "bytes32"
        }
      ],
      "name": "readProposal",
      "outputs": [
        {
          "name": "_id",
          "type": "bytes32"
        },
        {
          "name": "_proposer",
          "type": "address"
        },
        {
          "name": "_timeCreated",
          "type": "uint256"
        },
        {
          "name": "_timeVotingStarted",
          "type": "uint256"
        }
      ],
      "payable": false,
      "stateMutability": "view",
      "type": "function"
    },
    {
      "constant": true,
      "inputs": [],
      "name": "CONTRACT_ADDRESS",
      "outputs": [
        {
          "name": "",
          "type": "address"
        }
      ],
      "payable": false,
      "stateMutability": "view",
      "type": "function"
    },
    {
      "constant": true,
      "inputs": [
        {
          "name": "_proposalId",
          "type": "bytes32"
        },
        {
          "name": "_voter",
          "type": "address"
        }
      ],
      "name": "readVote",
      "outputs": [
        {
          "name": "_vote",
          "type": "bool"
        },
        {
          "name": "_weight",
          "type": "uint256"
        }
      ],
      "payable": false,
      "stateMutability": "view",
      "type": "function"
    },
    {
      "constant": true,
      "inputs": [
        {
          "name": "_proposalId",
          "type": "bytes32"
        },
        {
          "name": "_voter",
          "type": "address"
        }
      ],
      "name": "readComittedVote",
      "outputs": [
        {
          "name": "_commitHash",
          "type": "bytes32"
        }
      ],
      "payable": false,
      "stateMutability": "view",
      "type": "function"
    },
    {
      "inputs": [
        {
          "name": "_resolver",
          "type": "address"
        }
      ],
      "payable": false,
      "stateMutability": "nonpayable",
      "type": "constructor"
    },
    {
      "constant": false,
      "inputs": [
        {
          "name": "_specialProposalId",
          "type": "bytes32"
        },
        {
          "name": "_founder",
          "type": "address"
        },
        {
          "name": "_uintConfigs",
          "type": "uint256[]"
        },
        {
          "name": "_addressConfigs",
          "type": "address[]"
        },
        {
          "name": "_bytesConfigs",
          "type": "bytes32[]"
        },
        {
          "name": "_startOfVoting",
          "type": "uint256"
        }
      ],
      "name": "mock_put_proposal_as",
      "outputs": [],
      "payable": false,
      "stateMutability": "nonpayable",
      "type": "function"
    },
    {
      "constant": false,
      "inputs": [
        {
          "name": "_specialProposalId",
          "type": "bytes32"
        },
        {
          "name": "_voters",
          "type": "address[]"
        },
        {
          "name": "_commits",
          "type": "bytes32[]"
        },
        {
          "name": "_length",
          "type": "uint256"
        }
      ],
      "name": "mock_put_commit_votes",
      "outputs": [],
      "payable": false,
      "stateMutability": "nonpayable",
      "type": "function"
    },
    {
      "constant": false,
      "inputs": [
        {
          "name": "_specialProposalId",
          "type": "bytes32"
        },
        {
          "name": "_voters",
          "type": "address[]"
        },
        {
          "name": "_votes",
          "type": "bool[]"
        },
        {
          "name": "_stakes",
          "type": "uint256[]"
        },
        {
          "name": "_length",
          "type": "uint256"
        }
      ],
      "name": "mock_put_past_votes",
      "outputs": [],
      "payable": false,
      "stateMutability": "nonpayable",
      "type": "function"
    }
  ],
  "bytecode": "0x608060405260006001026003906000191690556000600460006101000a81548173ffffffffffffffffffffffffffffffffffffffff021916908373ffffffffffffffffffffffffffffffffffffffff1602179055507f70726f706f73616c5f73746174655f70726570726f706f73616c0000000000006005906000191690557f70726f706f73616c5f73746174655f64726166740000000000000000000000006006906000191690557f70726f706f73616c5f73746174655f6d6f6465726174656400000000000000006007906000191690557f70726f706f73616c5f73746174655f6f6e676f696e67000000000000000000006008906000191690557f70726f706f73616c5f73746174655f636c6f73656400000000000000000000006009906000191690557f70726f706f73616c5f73746174655f6172636869766564000000000000000000600a906000191690556001600b556002600c556003600d556001600e556002600f5560036010557f696e7465725f6467645f696400000000000000000000000000000000000000006011906000191690557f696e7465725f6d6f645f6467645f6964000000000000000000000000000000006012906000191690557f696e7465725f626f6e75735f63616c63756c6174696f6e5f69640000000000006013906000191690557f64616f00000000000000000000000000000000000000000000000000000000006014906000191690557f64616f3a7370656369616c3a70726f706f73616c0000000000000000000000006015906000191690557f64616f3a7374616b652d6c6f636b696e670000000000000000000000000000006016906000191690557f64616f3a766f74696e67000000000000000000000000000000000000000000006017906000191690557f64616f3a766f74696e673a636c61696d730000000000000000000000000000006018906000191690557f64616f3a73766f74696e673a636c61696d7300000000000000000000000000006019906000191690557f64616f3a6964656e746974790000000000000000000000000000000000000000601a906000191690557f64616f3a726577617264732d6d616e6167657200000000000000000000000000601b906000191690557f64616f3a726577617264732d6578747261730000000000000000000000000000601c906000191690557f64616f3a726f6c65730000000000000000000000000000000000000000000000601d906000191690557f64616f3a66756e64696e672d6d616e6167657200000000000000000000000000601e906000191690557f64616f3a77686974656c697374696e6700000000000000000000000000000000601f906000191690557f64616f3a696e666f726d6174696f6e00000000000000000000000000000000006020906000191690557f736572766963653a726f6c6500000000000000000000000000000000000000006021906000191690557f736572766963653a64616f3a696e666f000000000000000000000000000000006022906000191690557f736572766963653a64616f3a6c697374696e67000000000000000000000000006023906000191690557f736572766963653a64616f3a63616c63756c61746f72000000000000000000006024906000191690557f73746f726167653a64616f0000000000000000000000000000000000000000006025906000191690557f73746f726167653a64616f3a636f756e746572000000000000000000000000006026906000191690557f73746f726167653a64616f3a75706772616465000000000000000000000000006027906000191690557f73746f726167653a64616f3a6964656e746974790000000000000000000000006028906000191690557f73746f726167653a64616f3a706f696e747300000000000000000000000000006029906000191690557f73746f726167653a64616f3a7370656369616c00000000000000000000000000602a906000191690557f73746f726167653a64616f3a636f6e6669670000000000000000000000000000602b906000191690557f73746f726167653a64616f3a7374616b65000000000000000000000000000000602c906000191690557f73746f726167653a64616f3a7265776172647300000000000000000000000000602d906000191690557f73746f726167653a64616f3a77686974656c697374696e670000000000000000602e906000191690557f73746f726167653a696e7465726d6564696174653a726573756c747300000000602f906000191690557f743a6467640000000000000000000000000000000000000000000000000000006030906000191690557f743a6467780000000000000000000000000000000000000000000000000000006031906000191690557f743a6261646765000000000000000000000000000000000000000000000000006032906000191690556001603360006101000a81548160ff021916908360ff1602179055506002603360016101000a81548160ff021916908360ff1602179055506003603360026101000a81548160ff021916908360ff1602179055506004603360036101000a81548160ff021916908360ff1602179055506276a7006034557f6d696e5f6467645f7061727469636970616e74000000000000000000000000006035906000191690557f6d696e5f6467645f6d6f64657261746f720000000000000000000000000000006036906000191690557f6d696e5f72657075746174696f6e5f6d6f64657261746f7200000000000000006037906000191690557f6c6f636b696e675f70686173655f6475726174696f6e000000000000000000006038906000191690557f717561727465725f6475726174696f6e000000000000000000000000000000006039906000191690557f766f74696e675f636f6d6d69745f706861736500000000000000000000000000603a906000191690557f766f74696e675f70686173655f746f74616c0000000000000000000000000000603b906000191690557f696e746572696d5f766f74696e675f636f6d6d69745f70686173650000000000603c906000191690557f696e746572696d5f766f74696e675f70686173655f746f74616c000000000000603d906000191690557f64726166745f71756f72756d5f66697865645f6e756d657261746f7200000000603e906000191690557f64726166745f71756f72756d5f66697865645f64656e6f6d696e61746f720000603f906000191690557f64726166745f71756f72756d5f73666163746f725f6e756d657261746f7200006040906000191690557f64726166745f71756f72756d5f73666163746f725f64656e6f6d696e61746f726041906000191690557f766f74655f71756f72756d5f66697865645f6e756d657261746f7200000000006042906000191690557f766f74655f71756f72756d5f66697865645f64656e6f6d696e61746f720000006043906000191690557f766f74655f71756f72756d5f73666163746f725f6e756d657261746f720000006044906000191690557f766f74655f71756f72756d5f73666163746f725f64656e6f6d696e61746f72006045906000191690557f66696e616c5f7265776172645f73666163746f725f6e756d657261746f7200006046906000191690557f66696e616c5f7265776172645f73666163746f725f64656e6f6d696e61746f726047906000191690557f64726166745f71756f74615f6e756d657261746f7200000000000000000000006048906000191690557f64726166745f71756f74615f64656e6f6d696e61746f720000000000000000006049906000191690557f766f74696e675f71756f74615f6e756d657261746f7200000000000000000000604a906000191690557f766f74696e675f71756f74615f64656e6f6d696e61746f720000000000000000604b906000191690557f6d696e696d616c5f717000000000000000000000000000000000000000000000604c906000191690557f717561727465725f706f696e745f7363616c696e675f666163746f7200000000604d906000191690557f7265705f706f696e745f7363616c696e675f666163746f720000000000000000604e906000191690557f6d696e696d616c5f6d6f645f7170000000000000000000000000000000000000604f906000191690557f6d6f645f71705f7363616c696e675f666163746f7200000000000000000000006050906000191690557f6d6f645f7265705f706f696e745f7363616c696e675f666163746f72000000006051906000191690557f717561727465725f706f696e745f64726166745f766f746500000000000000006052906000191690557f717561727465725f706f696e745f766f746500000000000000000000000000006053906000191690557f717561727465725f706f696e745f696e746572696d5f766f74650000000000006054906000191690557f715f705f6d696c6573746f6e655f636f6d706c6574696f6e00000000000000006055906000191690557f626f6e75735f72657075746174696f6e5f6e756d657261746f720000000000006056906000191690557f626f6e75735f72657075746174696f6e5f64656e6f6d696e61746f72000000006057906000191690557f7370656369616c5f70726f706f73616c5f636f6d6d69745f70686173650000006058906000191690557f7370656369616c5f70726f706f73616c5f70686173655f746f74616c000000006059906000191690557f636f6e6669675f7370656369616c5f71756f74615f6e756d657261746f720000605a906000191690557f636f6e6669675f7370656369616c5f71756f74615f64656e6f6d696e61746f72605b906000191690557f7370656369616c5f71756f72756d5f6e756d657261746f720000000000000000605c906000191690557f7370656369616c5f71756f72756d5f64656e6f6d696e61746f72000000000000605d906000191690557f636f6e6669675f6d61785f72657075746174696f6e5f646564756374696f6e00605e906000191690557f636f6e6669675f70756e6973686d656e745f6e6f745f6c6f636b696e67000000605f906000191690557f636f6e6669675f7265705f7065725f65787472615f71705f6e756d00000000006060906000191690557f636f6e6669675f7265705f7065725f65787472615f71705f64656e00000000006061906000191690557f636f6e6669675f6d61785f6d5f72705f646564756374696f6e000000000000006062906000191690557f636f6e6669675f7265705f7065725f65787472615f6d5f71705f6e756d0000006063906000191690557f636f6e6669675f7265705f7065725f65787472615f6d5f71705f64656e0000006064906000191690557f636f6e6669675f6d6f645f706f7274696f6e5f6e756d000000000000000000006065906000191690557f636f6e6669675f6d6f645f706f7274696f6e5f64656e000000000000000000006066906000191690557f636f6e6669675f64726166745f766f74696e675f7068617365000000000000006067906000191690557f636f6e6669675f72705f626f6f73745f7065725f6261646765000000000000006068906000191690557f636f6e6669675f636c61696d696e675f646561646c696e6500000000000000006069906000191690557f636f6e6669675f70726570726f706f73616c5f636f6c6c61746572616c000000606a906000191690557f636f6e6669675f6d61785f66756e64696e675f6e6f6e44696769780000000000606b906000191690557f636f6e6669675f6d61785f6d696c6573746f6e65735f6e6f6e44696769780000606c906000191690557f636f6e6669675f6e6f6e44696769785f70726f706f73616c5f63617000000000606d906000191690557f636f6e6669675f646561645f6475726174696f6e000000000000000000000000606e906000191690557f636f6e6669675f63765f72657075746174696f6e000000000000000000000000606f906000191690553480156200113457600080fd5b50604051602080620034e6833981018060405281019080805190602001909291905050508062001176602a54826200118a640100000000026401000000009004565b15156200118257600080fd5b50506200141b565b6000808273ffffffffffffffffffffffffffffffffffffffff16636d19a8826040518163ffffffff167c0100000000000000000000000000000000000000000000000000000000028152600401602060405180830381600087803b158015620011f257600080fd5b505af115801562001207573d6000803e3d6000fd5b505050506040513d60208110156200121e57600080fd5b810190808051906020019092919050505090506000151581151514156200140f5730600260006101000a81548173ffffffffffffffffffffffffffffffffffffffff021916908373ffffffffffffffffffffffffffffffffffffffff160217905550826000806101000a81548173ffffffffffffffffffffffffffffffffffffffff021916908373ffffffffffffffffffffffffffffffffffffffff16021790555083600181600019169055506000809054906101000a900473ffffffffffffffffffffffffffffffffffffffff1673ffffffffffffffffffffffffffffffffffffffff1663c0f6ef4a600154600260009054906101000a900473ffffffffffffffffffffffffffffffffffffffff166040518363ffffffff167c01000000000000000000000000000000000000000000000000000000000281526004018083600019166000191681526020018273ffffffffffffffffffffffffffffffffffffffff1673ffffffffffffffffffffffffffffffffffffffff16815260200192505050602060405180830381600087803b158015620013bc57600080fd5b505af1158015620013d1573d6000803e3d6000fd5b505050506040513d6020811015620013e857600080fd5b810190808051906020019092919050505015156200140557600080fd5b6001915062001414565b600091505b5092915050565b6120bb806200142b6000396000f300608060405260043610610128576000357c0100000000000000000000000000000000000000000000000000000000900463ffffffff16806304f3bcec1461012d5780630d92dfb2146101845780631fae91f7146101c15780632e278bf9146102c55780633943380c146103245780633dd865b0146103575780633f83acff1461047b578063462d701f146104ec57806356ecd657146105535780635b712eb6146106695780636999b93f146106da57806373758c221461071557806379e4ce9d146107795780638839a29d146107c25780638b8a759314610807578063a00d964c14610921578063b89c3952146109e2578063d6ae87bf14610a2b578063d8d5017914610a68578063db4ecbc114610af6578063e5c2654e14610b4d578063f31a1ba214610bbd575b600080fd5b34801561013957600080fd5b50610142610c2a565b604051808273ffffffffffffffffffffffffffffffffffffffff1673ffffffffffffffffffffffffffffffffffffffff16815260200191505060405180910390f35b34801561019057600080fd5b506101bf6004803603810190808035600019169060200190929190803515159060200190929190505050610c4f565b005b3480156101cd57600080fd5b506102c3600480360381019080803560001916906020019092919080359060200190820180359060200190808060200260200160405190810160405280939291908181526020018383602002808284378201915050505050509192919290803590602001908201803590602001908080602002602001604051908101604052809392919081815260200183836020028082843782019150505050505091929192908035906020019082018035906020019080806020026020016040519081016040528093929190818152602001838360200280828437820191505050505050919291929080359060200190929190505050610ca2565b005b3480156102d157600080fd5b5061032260048036038101908080356000191690602001909291908035600019169060200190929190803573ffffffffffffffffffffffffffffffffffffffff169060200190929190505050610df4565b005b34801561033057600080fd5b50610339610e76565b60405180826000191660001916815260200191505060405180910390f35b34801561036357600080fd5b506104796004803603810190808035600019169060200190929190803573ffffffffffffffffffffffffffffffffffffffff16906020019092919080359060200190820180359060200190808060200260200160405190810160405280939291908181526020018383602002808284378201915050505050509192919290803590602001908201803590602001908080602002602001604051908101604052809392919081815260200183836020028082843782019150505050505091929192908035906020019082018035906020019080806020026020016040519081016040528093929190818152602001838360200280828437820191505050505050919291929080359060200190929190505050610e7c565b005b34801561048757600080fd5b506104aa60048036038101908080356000191690602001909291905050506110b7565b604051808273ffffffffffffffffffffffffffffffffffffffff1673ffffffffffffffffffffffffffffffffffffffff16815260200191505060405180910390f35b3480156104f857600080fd5b506105516004803603810190808035600019169060200190929190803573ffffffffffffffffffffffffffffffffffffffff16906020019092919080351515906020019092919080359060200190929190505050611193565b005b34801561055f57600080fd5b506105826004803603810190808035600019169060200190929190505050611299565b60405180806020018060200180602001848103845287818151815260200191508051906020019060200280838360005b838110156105cd5780820151818401526020810190506105b2565b50505050905001848103835286818151815260200191508051906020019060200280838360005b8381101561060f5780820151818401526020810190506105f4565b50505050905001848103825285818151815260200191508051906020019060200280838360005b83811015610651578082015181840152602081019050610636565b50505050905001965050505050505060405180910390f35b34801561067557600080fd5b50610698600480360381019080803560001916906020019092919050505061142c565b604051808273ffffffffffffffffffffffffffffffffffffffff1673ffffffffffffffffffffffffffffffffffffffff16815260200191505060405180910390f35b3480156106e657600080fd5b50610713600480360381019080803560001916906020019092919080359060200190929190505050611474565b005b34801561072157600080fd5b5061075c60048036038101908080356000191690602001909291908035906020019082018035906020019190919293919293905050506114b4565b604051808381526020018281526020019250505060405180910390f35b34801561078557600080fd5b506107a860048036038101908080356000191690602001909291905050506115c9565b604051808215151515815260200191505060405180910390f35b3480156107ce57600080fd5b506107f16004803603810190808035600019169060200190929190505050611614565b6040518082815260200191505060405180910390f35b34801561081357600080fd5b5061091f6004803603810190808035600019169060200190929190803573ffffffffffffffffffffffffffffffffffffffff169060200190929190803590602001908201803590602001908080602002602001604051908101604052809392919081815260200183836020028082843782019150505050505091929192908035906020019082018035906020019080806020026020016040519081016040528093929190818152602001838360200280828437820191505050505050919291929080359060200190820180359060200190808060200260200160405190810160405280939291908181526020018383602002808284378201915050505050509192919290505050611652565b005b34801561092d57600080fd5b506109e060048036038101908080356000191690602001909291908035906020019082018035906020019080806020026020016040519081016040528093929190818152602001838360200280828437820191505050505050919291929080359060200190820180359060200190808060200260200160405190810160405280939291908181526020018383602002808284378201915050505050509192919290803590602001909291905050506118b5565b005b3480156109ee57600080fd5b50610a11600480360381019080803560001916906020019092919050505061196c565b604051808215151515815260200191505060405180910390f35b348015610a3757600080fd5b50610a6660048036038101908080356000191690602001909291908035151590602001909291905050506119b7565b005b348015610a7457600080fd5b50610a976004803603810190808035600019169060200190929190505050611a10565b6040518085600019166000191681526020018473ffffffffffffffffffffffffffffffffffffffff1673ffffffffffffffffffffffffffffffffffffffff16815260200183815260200182815260200194505050505060405180910390f35b348015610b0257600080fd5b50610b0b611ac4565b604051808273ffffffffffffffffffffffffffffffffffffffff1673ffffffffffffffffffffffffffffffffffffffff16815260200191505060405180910390f35b348015610b5957600080fd5b50610b9c6004803603810190808035600019169060200190929190803573ffffffffffffffffffffffffffffffffffffffff169060200190929190505050611aea565b60405180831515151581526020018281526020019250505060405180910390f35b348015610bc957600080fd5b50610c0c6004803603810190808035600019169060200190929190803573ffffffffffffffffffffffffffffffffffffffff169060200190929190505050611c0d565b60405180826000191660001916815260200191505060405180910390f35b6000809054906101000a900473ffffffffffffffffffffffffffffffffffffffff1681565b610c5a601954611c89565b1515610c6557600080fd5b8060766000846000191660001916815260200190815260200160002060020160050160006101000a81548160ff0219169083151502179055505050565b60008090505b81811015610dec5760766000876000191660001916815260200190815260200160002060020173__DaoStructs____________________________631a14c51b90918784815181101515610cf857fe5b906020019060200201518785815181101515610d1057fe5b906020019060200201518786815181101515610d2857fe5b906020019060200201516040518563ffffffff167c0100000000000000000000000000000000000000000000000000000000028152600401808581526020018473ffffffffffffffffffffffffffffffffffffffff1673ffffffffffffffffffffffffffffffffffffffff1681526020018315151515815260200182815260200194505050505060006040518083038186803b158015610dc757600080fd5b505af4158015610ddb573d6000803e3d6000fd5b505050508080600101915050610ca8565b505050505050565b610dff601754611c89565b1515610e0a57600080fd5b8160766000856000191660001916815260200190815260200160002060020160020160008373ffffffffffffffffffffffffffffffffffffffff1673ffffffffffffffffffffffffffffffffffffffff1681526020019081526020016000208160001916905550505050565b60015481565b607073__DoublyLinkedList______________________63582f30b49091886040518363ffffffff167c01000000000000000000000000000000000000000000000000000000000281526004018083815260200182600019166000191681526020019250505060206040518083038186803b158015610efa57600080fd5b505af4158015610f0e573d6000803e3d6000fd5b505050506040513d6020811015610f2457600080fd5b81019080805190602001909291905050505085607660008860001916600019168152602001908152602001600020600001816000191690555084607660008860001916600019168152602001908152602001600020600b0160006101000a81548173ffffffffffffffffffffffffffffffffffffffff021916908373ffffffffffffffffffffffffffffffffffffffff160217905550610fce600182611d9390919063ffffffff16565b60766000886000191660001916815260200190815260200160002060010181905550836076600088600019166000191681526020019081526020016000206008019080519060200190611022929190611ed8565b50826076600088600019166000191681526020019081526020016000206009019080519060200190611055929190611f25565b5081607660008860001916600019168152602001908152602001600020600a019080519060200190611088929190611faf565b508060766000886000191660001916815260200190815260200160002060020160000181905550505050505050565b60008060009054906101000a900473ffffffffffffffffffffffffffffffffffffffff1673ffffffffffffffffffffffffffffffffffffffff16633f83acff836040518263ffffffff167c0100000000000000000000000000000000000000000000000000000000028152600401808260001916600019168152602001915050602060405180830381600087803b15801561115157600080fd5b505af1158015611165573d6000803e3d6000fd5b505050506040513d602081101561117b57600080fd5b81019080805190602001909291905050509050919050565b61119e601754611c89565b15156111a957600080fd5b60766000856000191660001916815260200190815260200160002060020173__DaoStructs____________________________631a14c51b90918585856040518563ffffffff167c0100000000000000000000000000000000000000000000000000000000028152600401808581526020018473ffffffffffffffffffffffffffffffffffffffff1673ffffffffffffffffffffffffffffffffffffffff1681526020018315151515815260200182815260200194505050505060006040518083038186803b15801561127b57600080fd5b505af415801561128f573d6000803e3d6000fd5b5050505050505050565b606080606060766000856000191660001916815260200190815260200160002060080180548060200260200160405190810160405280929190818152602001828054801561130657602002820191906000526020600020905b8154815260200190600101908083116112f2575b505050505092506076600085600019166000191681526020019081526020016000206009018054806020026020016040519081016040528092919081815260200182805480156113ab57602002820191906000526020600020905b8160009054906101000a900473ffffffffffffffffffffffffffffffffffffffff1673ffffffffffffffffffffffffffffffffffffffff1681526020019060010190808311611361575b50505050509150607660008560001916600019168152602001908152602001600020600a0180548060200260200160405190810160405280929190818152602001828054801561141e57602002820191906000526020600020905b81546000191681526020019060010190808311611406575b505050505090509193909250565b6000607660008360001916600019168152602001908152602001600020600b0160009054906101000a900473ffffffffffffffffffffffffffffffffffffffff169050919050565b61147f601554611c89565b151561148a57600080fd5b80607660008460001916600019168152602001908152602001600020600201600001819055505050565b6000806114bf611dac565b15156114ca57600080fd5b60766000866000191660001916815260200190815260200160002060020173__DaoStructs____________________________63b31ee28c909186866040518463ffffffff167c0100000000000000000000000000000000000000000000000000000000028152600401808481526020018060200182810382528484828181526020019250602002808284378201915050945050505050604080518083038186803b15801561157857600080fd5b505af415801561158c573d6000803e3d6000fd5b505050506040513d60408110156115a257600080fd5b81019080805190602001909291908051906020019092919050505091509150935093915050565b60006115d3611dac565b15156115de57600080fd5b60766000836000191660001916815260200190815260200160002060020160050160009054906101000a900460ff169050919050565b600061161e611dac565b151561162957600080fd5b607660008360001916600019168152602001908152602001600020600201600001549050919050565b61165d601554611c89565b151561166857600080fd5b6003546000191660766000876000191660001916815260200190815260200160002060000154600019161480156116a9575060035460001916856000191614155b15156116b457600080fd5b607073__DoublyLinkedList______________________63582f30b49091876040518363ffffffff167c01000000000000000000000000000000000000000000000000000000000281526004018083815260200182600019166000191681526020019250505060206040518083038186803b15801561173257600080fd5b505af4158015611746573d6000803e3d6000fd5b505050506040513d602081101561175c57600080fd5b81019080805190602001909291905050505084607660008760001916600019168152602001908152602001600020600001816000191690555083607660008760001916600019168152602001908152602001600020600b0160006101000a81548173ffffffffffffffffffffffffffffffffffffffff021916908373ffffffffffffffffffffffffffffffffffffffff1602179055504260766000876000191660001916815260200190815260200160002060010181905550826076600087600019166000191681526020019081526020016000206008019080519060200190611847929190611ed8565b5081607660008760001916600019168152602001908152602001600020600901908051906020019061187a929190611f25565b5080607660008760001916600019168152602001908152602001600020600a0190805190602001906118ad929190611faf565b505050505050565b60008090505b818110156119655782818151811015156118d157fe5b906020019060200201516076600087600019166000191681526020019081526020016000206002016002016000868481518110151561190c57fe5b9060200190602002015173ffffffffffffffffffffffffffffffffffffffff1673ffffffffffffffffffffffffffffffffffffffff168152602001908152602001600020816000191690555080806001019150506118bb565b5050505050565b6000611976611dac565b151561198157600080fd5b60766000836000191660001916815260200190815260200160002060020160050160019054906101000a900460ff169050919050565b60006119c4601954611c89565b15156119cf57600080fd5b6076600084600019166000191681526020019081526020016000209050818160020160050160016101000a81548160ff021916908315150217905550505050565b600080600080607660008660001916600019168152602001908152602001600020600001549350607660008660001916600019168152602001908152602001600020600b0160009054906101000a900473ffffffffffffffffffffffffffffffffffffffff1692506076600086600019166000191681526020019081526020016000206001015491506076600086600019166000191681526020019081526020016000206002016000015490509193509193565b600260009054906101000a900473ffffffffffffffffffffffffffffffffffffffff1681565b600080611af5611dac565b1515611b0057600080fd5b60766000856000191660001916815260200190815260200160002060020173__DaoStructs____________________________634bf150b99091856040518363ffffffff167c0100000000000000000000000000000000000000000000000000000000028152600401808381526020018273ffffffffffffffffffffffffffffffffffffffff1673ffffffffffffffffffffffffffffffffffffffff16815260200192505050604080518083038186803b158015611bbd57600080fd5b505af4158015611bd1573d6000803e3d6000fd5b505050506040513d6040811015611be757600080fd5b810190808051906020019092919080519060200190929190505050915091509250929050565b6000611c17611dac565b1515611c2257600080fd5b60766000846000191660001916815260200190815260200160002060020160020160008373ffffffffffffffffffffffffffffffffffffffff1673ffffffffffffffffffffffffffffffffffffffff16815260200190815260200160002054905092915050565b60008060009054906101000a900473ffffffffffffffffffffffffffffffffffffffff1673ffffffffffffffffffffffffffffffffffffffff16633f83acff836040518263ffffffff167c0100000000000000000000000000000000000000000000000000000000028152600401808260001916600019168152602001915050602060405180830381600087803b158015611d2357600080fd5b505af1158015611d37573d6000803e3d6000fd5b505050506040513d6020811015611d4d57600080fd5b810190808051906020019092919050505073ffffffffffffffffffffffffffffffffffffffff163373ffffffffffffffffffffffffffffffffffffffff16149050919050565b6000828211151515611da157fe5b818303905092915050565b60003273ffffffffffffffffffffffffffffffffffffffff163373ffffffffffffffffffffffffffffffffffffffff161480611ec15750611deb611ec6565b73ffffffffffffffffffffffffffffffffffffffff16639b19251a336040518263ffffffff167c0100000000000000000000000000000000000000000000000000000000028152600401808273ffffffffffffffffffffffffffffffffffffffff1673ffffffffffffffffffffffffffffffffffffffff168152602001915050602060405180830381600087803b158015611e8557600080fd5b505af1158015611e99573d6000803e3d6000fd5b505050506040513d6020811015611eaf57600080fd5b81019080805190602001909291905050505b905090565b6000611ed3602e546110b7565b905090565b828054828255906000526020600020908101928215611f14579160200282015b82811115611f13578251825591602001919060010190611ef8565b5b509050611f219190612002565b5090565b828054828255906000526020600020908101928215611f9e579160200282015b82811115611f9d5782518260006101000a81548173ffffffffffffffffffffffffffffffffffffffff021916908373ffffffffffffffffffffffffffffffffffffffff16021790555091602001919060010190611f45565b5b509050611fab9190612027565b5090565b828054828255906000526020600020908101928215611ff1579160200282015b82811115611ff0578251829060001916905591602001919060010190611fcf565b5b509050611ffe919061206a565b5090565b61202491905b80821115612020576000816000905550600101612008565b5090565b90565b61206791905b8082111561206357600081816101000a81549073ffffffffffffffffffffffffffffffffffffffff02191690555060010161202d565b5090565b90565b61208c91905b80821115612088576000816000905550600101612070565b5090565b905600a165627a7a7230582034b9ed8122024cdd5dab3a06ecc5ea6648a55dae5f561b84aaeaf01cbb25faed0029",
  "source": "pragma solidity ^0.4.25;\n\nimport \"./../storage/DaoSpecialStorage.sol\";\n\ncontract MockDaoSpecialStorage is DaoSpecialStorage {\n\n    constructor(address _resolver) public DaoSpecialStorage(_resolver) {}\n\n    function mock_put_proposal_as(\n        bytes32 _specialProposalId,\n        address _founder,\n        uint256[] _uintConfigs,\n        address[] _addressConfigs,\n        bytes32[] _bytesConfigs,\n        uint256 _startOfVoting\n    )\n        public\n    {\n        proposals.append(_specialProposalId);\n        proposalsById[_specialProposalId].proposalId = _specialProposalId;\n        proposalsById[_specialProposalId].proposer = _founder;\n        proposalsById[_specialProposalId].timeCreated = _startOfVoting.sub(1);\n        proposalsById[_specialProposalId].uintConfigs = _uintConfigs;\n        proposalsById[_specialProposalId].addressConfigs = _addressConfigs;\n        proposalsById[_specialProposalId].bytesConfigs = _bytesConfigs;\n        proposalsById[_specialProposalId].voting.startTime = _startOfVoting;\n    }\n\n    function mock_put_commit_votes(\n        bytes32 _specialProposalId,\n        address[] _voters,\n        bytes32[] _commits,\n        uint256 _length\n    )\n        public\n    {\n        for (uint256 _i = 0; _i < _length; _i++) {\n            proposalsById[_specialProposalId].voting.commits[_voters[_i]] = _commits[_i];\n        }\n    }\n\n    function mock_put_past_votes(\n        bytes32 _specialProposalId,\n        address[] _voters,\n        bool[] _votes,\n        uint256[] _stakes,\n        uint256 _length\n    )\n        public\n    {\n        for (uint256 _i = 0; _i < _length; _i++) {\n            proposalsById[_specialProposalId].voting.revealVote(_voters[_i], _votes[_i], _stakes[_i]);\n        }\n    }\n}\n",
  "sourcePath": "/home/vu/digix/dao-contracts/contracts/mock/MockDaoSpecialStorage.sol",
  "compiler": {
    "name": "solc",
    "version": "0.4.25+commit.59dbf8f1.Emscripten.clang"
  },
  "schemaVersion": "2.0.2",
  "updatedAt": "2019-03-12T07:53:08.861Z"
}