{
  "contractName": "MockCommitRevealContract",
  "abi": [
    {
      "constant": false,
      "inputs": [
        {
          "name": "_commit",
          "type": "bytes32"
        }
      ],
      "name": "setCommit",
      "outputs": [],
      "payable": false,
      "stateMutability": "nonpayable",
      "type": "function"
    },
    {
      "constant": true,
      "inputs": [
        {
          "name": "_vote",
          "type": "bool"
        },
        {
          "name": "_salt",
          "type": "uint256"
        }
      ],
      "name": "verify",
      "outputs": [
        {
          "name": "",
          "type": "bool"
        }
      ],
      "payable": false,
      "stateMutability": "view",
      "type": "function"
    }
  ],
  "bytecode": "0x608060405234801561001057600080fd5b5061029b806100206000396000f30060806040526004361061004c576000357c0100000000000000000000000000000000000000000000000000000000900463ffffffff168063207e1d5e14610051578063c7945fbd146100a2575b600080fd5b34801561005d57600080fd5b50610088600480360381019080803515159060200190929190803590602001909291905050506100d3565b604051808215151515815260200191505060405180910390f35b3480156100ae57600080fd5b506100d16004803603810190808035600019169060200190929190505050610225565b005b60008060003373ffffffffffffffffffffffffffffffffffffffff1673ffffffffffffffffffffffffffffffffffffffff1681526020019081526020016000205460001916338484604051602001808473ffffffffffffffffffffffffffffffffffffffff1673ffffffffffffffffffffffffffffffffffffffff166c0100000000000000000000000002815260140183151515157f010000000000000000000000000000000000000000000000000000000000000002815260010182815260200193505050506040516020818303038152906040526040518082805190602001908083835b6020831015156101de57805182526020820191506020810190506020830392506101b9565b6001836020036101000a03801982511681845116808217855250505050505090500191505060405180910390206000191614151561021b57600080fd5b6001905092915050565b806000803373ffffffffffffffffffffffffffffffffffffffff1673ffffffffffffffffffffffffffffffffffffffff1681526020019081526020016000208160001916905550505600a165627a7a723058201a12213755654a297ccb3d64bd001b77384de6b3e28b1d8dc2a1f78f2e6882fb0029",
  "source": "pragma solidity ^0.4.25;\n\ncontract MockCommitRevealContract {\n  mapping (address => bytes32) commits;\n\n  function setCommit(bytes32 _commit)\n    public\n  {\n    commits[msg.sender] = _commit;\n  }\n\n  function verify(bool _vote, uint256 _salt)\n    public\n    view\n    returns (bool)\n  {\n    require(keccak256(abi.encodePacked(msg.sender, _vote, _salt)) == commits[msg.sender]);\n    return true;\n  }\n}\n",
  "sourcePath": "/Users/aeufemio/projects/dgx/contracts/dao-contracts/contracts/mock/MockCommitRevealContract.sol",
  "compiler": {
    "name": "solc",
    "version": "0.4.25+commit.59dbf8f1.Emscripten.clang"
  },
  "schemaVersion": "2.0.2",
  "updatedAt": "2020-03-13T02:38:46.077Z"
}