{
  "contractName": "MockDaoPointsStorage",
  "abi": [
    {
      "constant": true,
      "inputs": [],
      "name": "resolver",
      "outputs": [
        {
          "name": "",
          "type": "address"
        }
      ],
      "payable": false,
      "stateMutability": "view",
      "type": "function"
    },
    {
      "constant": true,
      "inputs": [],
      "name": "getTotalReputation",
      "outputs": [
        {
          "name": "_totalPoint",
          "type": "uint256"
        }
      ],
      "payable": false,
      "stateMutability": "view",
      "type": "function"
    },
    {
      "constant": false,
      "inputs": [
        {
          "name": "_participant",
          "type": "address"
        },
        {
          "name": "_point",
          "type": "uint256"
        },
        {
          "name": "_quarterNumber",
          "type": "uint256"
        }
      ],
      "name": "addQuarterPoint",
      "outputs": [
        {
          "name": "_newPoint",
          "type": "uint256"
        },
        {
          "name": "_newTotalPoint",
          "type": "uint256"
        }
      ],
      "payable": false,
      "stateMutability": "nonpayable",
      "type": "function"
    },
    {
      "constant": true,
      "inputs": [
        {
          "name": "_quarterNumber",
          "type": "uint256"
        }
      ],
      "name": "getTotalQuarterModeratorPoint",
      "outputs": [
        {
          "name": "_totalPoint",
          "type": "uint256"
        }
      ],
      "payable": false,
      "stateMutability": "view",
      "type": "function"
    },
    {
      "constant": true,
      "inputs": [],
      "name": "key",
      "outputs": [
        {
          "name": "",
          "type": "bytes32"
        }
      ],
      "payable": false,
      "stateMutability": "view",
      "type": "function"
    },
    {
      "constant": true,
      "inputs": [
        {
          "name": "_key",
          "type": "bytes32"
        }
      ],
      "name": "get_contract",
      "outputs": [
        {
          "name": "_contract",
          "type": "address"
        }
      ],
      "payable": false,
      "stateMutability": "view",
      "type": "function"
    },
    {
      "constant": false,
      "inputs": [
        {
          "name": "_participant",
          "type": "address"
        },
        {
          "name": "_point",
          "type": "uint256"
        }
      ],
      "name": "reduceReputation",
      "outputs": [
        {
          "name": "_newPoint",
          "type": "uint256"
        },
        {
          "name": "_totalPoint",
          "type": "uint256"
        }
      ],
      "payable": false,
      "stateMutability": "nonpayable",
      "type": "function"
    },
    {
      "constant": true,
      "inputs": [
        {
          "name": "_quarterNumber",
          "type": "uint256"
        }
      ],
      "name": "getTotalQuarterPoint",
      "outputs": [
        {
          "name": "_totalPoint",
          "type": "uint256"
        }
      ],
      "payable": false,
      "stateMutability": "view",
      "type": "function"
    },
    {
      "constant": true,
      "inputs": [
        {
          "name": "_participant",
          "type": "address"
        },
        {
          "name": "_quarterNumber",
          "type": "uint256"
        }
      ],
      "name": "getQuarterPoint",
      "outputs": [
        {
          "name": "_point",
          "type": "uint256"
        }
      ],
      "payable": false,
      "stateMutability": "view",
      "type": "function"
    },
    {
      "constant": true,
      "inputs": [
        {
          "name": "_participant",
          "type": "address"
        }
      ],
      "name": "getReputation",
      "outputs": [
        {
          "name": "_point",
          "type": "uint256"
        }
      ],
      "payable": false,
      "stateMutability": "view",
      "type": "function"
    },
    {
      "constant": true,
      "inputs": [
        {
          "name": "_participant",
          "type": "address"
        },
        {
          "name": "_quarterNumber",
          "type": "uint256"
        }
      ],
      "name": "getQuarterModeratorPoint",
      "outputs": [
        {
          "name": "_point",
          "type": "uint256"
        }
      ],
      "payable": false,
      "stateMutability": "view",
      "type": "function"
    },
    {
      "constant": true,
      "inputs": [],
      "name": "CONTRACT_ADDRESS",
      "outputs": [
        {
          "name": "",
          "type": "address"
        }
      ],
      "payable": false,
      "stateMutability": "view",
      "type": "function"
    },
    {
      "constant": false,
      "inputs": [
        {
          "name": "_participant",
          "type": "address"
        },
        {
          "name": "_point",
          "type": "uint256"
        }
      ],
      "name": "increaseReputation",
      "outputs": [
        {
          "name": "_newPoint",
          "type": "uint256"
        },
        {
          "name": "_totalPoint",
          "type": "uint256"
        }
      ],
      "payable": false,
      "stateMutability": "nonpayable",
      "type": "function"
    },
    {
      "constant": false,
      "inputs": [
        {
          "name": "_participant",
          "type": "address"
        },
        {
          "name": "_point",
          "type": "uint256"
        },
        {
          "name": "_quarterNumber",
          "type": "uint256"
        }
      ],
      "name": "addModeratorQuarterPoint",
      "outputs": [
        {
          "name": "_newPoint",
          "type": "uint256"
        },
        {
          "name": "_newTotalPoint",
          "type": "uint256"
        }
      ],
      "payable": false,
      "stateMutability": "nonpayable",
      "type": "function"
    },
    {
      "inputs": [
        {
          "name": "_resolver",
          "type": "address"
        }
      ],
      "payable": false,
      "stateMutability": "nonpayable",
      "type": "constructor"
    },
    {
      "constant": false,
      "inputs": [
        {
          "name": "_participant",
          "type": "address"
        },
        {
          "name": "_point",
          "type": "uint256"
        },
        {
          "name": "_qId",
          "type": "uint256"
        }
      ],
      "name": "setQP",
      "outputs": [],
      "payable": false,
      "stateMutability": "nonpayable",
      "type": "function"
    },
    {
      "constant": false,
      "inputs": [
        {
          "name": "_participant",
          "type": "address"
        },
        {
          "name": "_point",
          "type": "uint256"
        },
        {
          "name": "_qId",
          "type": "uint256"
        }
      ],
      "name": "setModeratorQP",
      "outputs": [],
      "payable": false,
      "stateMutability": "nonpayable",
      "type": "function"
    },
    {
      "constant": false,
      "inputs": [
        {
          "name": "_participant",
          "type": "address"
        },
        {
          "name": "_point",
          "type": "uint256"
        }
      ],
      "name": "setRP",
      "outputs": [],
      "payable": false,
      "stateMutability": "nonpayable",
      "type": "function"
    },
    {
      "constant": false,
      "inputs": [
        {
          "name": "_participants",
          "type": "address[]"
        },
        {
          "name": "_points",
          "type": "uint256[]"
        },
        {
          "name": "_qId",
          "type": "uint256"
        }
      ],
      "name": "mock_set_qp",
      "outputs": [],
      "payable": false,
      "stateMutability": "nonpayable",
      "type": "function"
    },
    {
      "constant": false,
      "inputs": [
        {
          "name": "_participants",
          "type": "address[]"
        },
        {
          "name": "_points",
          "type": "uint256[]"
        },
        {
          "name": "_qId",
          "type": "uint256"
        }
      ],
      "name": "mock_set_moderator_qp",
      "outputs": [],
      "payable": false,
      "stateMutability": "nonpayable",
      "type": "function"
    },
    {
      "constant": false,
      "inputs": [
        {
          "name": "_participants",
          "type": "address[]"
        },
        {
          "name": "_points",
          "type": "uint256[]"
        }
      ],
      "name": "mock_set_rp",
      "outputs": [],
      "payable": false,
      "stateMutability": "nonpayable",
      "type": "function"
    }
  ],
  "bytecode": "0x608060405260006001026003906000191690556000600460006101000a81548173ffffffffffffffffffffffffffffffffffffffff021916908373ffffffffffffffffffffffffffffffffffffffff1602179055507f70726f706f73616c5f73746174655f70726570726f706f73616c0000000000006005906000191690557f70726f706f73616c5f73746174655f64726166740000000000000000000000006006906000191690557f70726f706f73616c5f73746174655f6d6f6465726174656400000000000000006007906000191690557f70726f706f73616c5f73746174655f6f6e676f696e67000000000000000000006008906000191690557f70726f706f73616c5f73746174655f636c6f73656400000000000000000000006009906000191690557f70726f706f73616c5f73746174655f6172636869766564000000000000000000600a906000191690556001600b556002600c556003600d556001600e556002600f5560036010557f696e7465725f6467645f696400000000000000000000000000000000000000006011906000191690557f696e7465725f6d6f645f6467645f6964000000000000000000000000000000006012906000191690557f696e7465725f626f6e75735f63616c63756c6174696f6e5f69640000000000006013906000191690557f64616f00000000000000000000000000000000000000000000000000000000006014906000191690557f64616f3a7370656369616c3a70726f706f73616c0000000000000000000000006015906000191690557f64616f3a7374616b652d6c6f636b696e670000000000000000000000000000006016906000191690557f64616f3a766f74696e67000000000000000000000000000000000000000000006017906000191690557f64616f3a766f74696e673a636c61696d730000000000000000000000000000006018906000191690557f64616f3a73766f74696e673a636c61696d7300000000000000000000000000006019906000191690557f64616f3a6964656e746974790000000000000000000000000000000000000000601a906000191690557f64616f3a726577617264732d6d616e6167657200000000000000000000000000601b906000191690557f64616f3a726577617264732d6578747261730000000000000000000000000000601c906000191690557f64616f3a726f6c65730000000000000000000000000000000000000000000000601d906000191690557f64616f3a66756e64696e672d6d616e6167657200000000000000000000000000601e906000191690557f64616f3a77686974656c697374696e6700000000000000000000000000000000601f906000191690557f64616f3a696e666f726d6174696f6e00000000000000000000000000000000006020906000191690557f736572766963653a726f6c6500000000000000000000000000000000000000006021906000191690557f736572766963653a64616f3a696e666f000000000000000000000000000000006022906000191690557f736572766963653a64616f3a6c697374696e67000000000000000000000000006023906000191690557f736572766963653a64616f3a63616c63756c61746f72000000000000000000006024906000191690557f73746f726167653a64616f0000000000000000000000000000000000000000006025906000191690557f73746f726167653a64616f3a636f756e746572000000000000000000000000006026906000191690557f73746f726167653a64616f3a75706772616465000000000000000000000000006027906000191690557f73746f726167653a64616f3a6964656e746974790000000000000000000000006028906000191690557f73746f726167653a64616f3a706f696e747300000000000000000000000000006029906000191690557f73746f726167653a64616f3a7370656369616c00000000000000000000000000602a906000191690557f73746f726167653a64616f3a636f6e6669670000000000000000000000000000602b906000191690557f73746f726167653a64616f3a7374616b65000000000000000000000000000000602c906000191690557f73746f726167653a64616f3a7265776172647300000000000000000000000000602d906000191690557f73746f726167653a64616f3a77686974656c697374696e670000000000000000602e906000191690557f73746f726167653a696e7465726d6564696174653a726573756c747300000000602f906000191690557f743a6467640000000000000000000000000000000000000000000000000000006030906000191690557f743a6467780000000000000000000000000000000000000000000000000000006031906000191690557f743a6261646765000000000000000000000000000000000000000000000000006032906000191690556001603360006101000a81548160ff021916908360ff1602179055506002603360016101000a81548160ff021916908360ff1602179055506003603360026101000a81548160ff021916908360ff1602179055506004603360036101000a81548160ff021916908360ff1602179055506276a7006034557f6d696e5f6467645f7061727469636970616e74000000000000000000000000006035906000191690557f6d696e5f6467645f6d6f64657261746f720000000000000000000000000000006036906000191690557f6d696e5f72657075746174696f6e5f6d6f64657261746f7200000000000000006037906000191690557f6c6f636b696e675f70686173655f6475726174696f6e000000000000000000006038906000191690557f717561727465725f6475726174696f6e000000000000000000000000000000006039906000191690557f766f74696e675f636f6d6d69745f706861736500000000000000000000000000603a906000191690557f766f74696e675f70686173655f746f74616c0000000000000000000000000000603b906000191690557f696e746572696d5f766f74696e675f636f6d6d69745f70686173650000000000603c906000191690557f696e746572696d5f766f74696e675f70686173655f746f74616c000000000000603d906000191690557f64726166745f71756f72756d5f66697865645f6e756d657261746f7200000000603e906000191690557f64726166745f71756f72756d5f66697865645f64656e6f6d696e61746f720000603f906000191690557f64726166745f71756f72756d5f73666163746f725f6e756d657261746f7200006040906000191690557f64726166745f71756f72756d5f73666163746f725f64656e6f6d696e61746f726041906000191690557f766f74655f71756f72756d5f66697865645f6e756d657261746f7200000000006042906000191690557f766f74655f71756f72756d5f66697865645f64656e6f6d696e61746f720000006043906000191690557f766f74655f71756f72756d5f73666163746f725f6e756d657261746f720000006044906000191690557f766f74655f71756f72756d5f73666163746f725f64656e6f6d696e61746f72006045906000191690557f66696e616c5f7265776172645f73666163746f725f6e756d657261746f7200006046906000191690557f66696e616c5f7265776172645f73666163746f725f64656e6f6d696e61746f726047906000191690557f64726166745f71756f74615f6e756d657261746f7200000000000000000000006048906000191690557f64726166745f71756f74615f64656e6f6d696e61746f720000000000000000006049906000191690557f766f74696e675f71756f74615f6e756d657261746f7200000000000000000000604a906000191690557f766f74696e675f71756f74615f64656e6f6d696e61746f720000000000000000604b906000191690557f6d696e696d616c5f717000000000000000000000000000000000000000000000604c906000191690557f717561727465725f706f696e745f7363616c696e675f666163746f7200000000604d906000191690557f7265705f706f696e745f7363616c696e675f666163746f720000000000000000604e906000191690557f6d696e696d616c5f6d6f645f7170000000000000000000000000000000000000604f906000191690557f6d6f645f71705f7363616c696e675f666163746f7200000000000000000000006050906000191690557f6d6f645f7265705f706f696e745f7363616c696e675f666163746f72000000006051906000191690557f717561727465725f706f696e745f64726166745f766f746500000000000000006052906000191690557f717561727465725f706f696e745f766f746500000000000000000000000000006053906000191690557f717561727465725f706f696e745f696e746572696d5f766f74650000000000006054906000191690557f715f705f6d696c6573746f6e655f636f6d706c6574696f6e00000000000000006055906000191690557f626f6e75735f72657075746174696f6e5f6e756d657261746f720000000000006056906000191690557f626f6e75735f72657075746174696f6e5f64656e6f6d696e61746f72000000006057906000191690557f7370656369616c5f70726f706f73616c5f636f6d6d69745f70686173650000006058906000191690557f7370656369616c5f70726f706f73616c5f70686173655f746f74616c000000006059906000191690557f636f6e6669675f7370656369616c5f71756f74615f6e756d657261746f720000605a906000191690557f636f6e6669675f7370656369616c5f71756f74615f64656e6f6d696e61746f72605b906000191690557f7370656369616c5f71756f72756d5f6e756d657261746f720000000000000000605c906000191690557f7370656369616c5f71756f72756d5f64656e6f6d696e61746f72000000000000605d906000191690557f636f6e6669675f6d61785f72657075746174696f6e5f646564756374696f6e00605e906000191690557f636f6e6669675f70756e6973686d656e745f6e6f745f6c6f636b696e67000000605f906000191690557f636f6e6669675f7265705f7065725f65787472615f71705f6e756d00000000006060906000191690557f636f6e6669675f7265705f7065725f65787472615f71705f64656e00000000006061906000191690557f636f6e6669675f6d61785f6d5f72705f646564756374696f6e000000000000006062906000191690557f636f6e6669675f7265705f7065725f65787472615f6d5f71705f6e756d0000006063906000191690557f636f6e6669675f7265705f7065725f65787472615f6d5f71705f64656e0000006064906000191690557f636f6e6669675f6d6f645f706f7274696f6e5f6e756d000000000000000000006065906000191690557f636f6e6669675f6d6f645f706f7274696f6e5f64656e000000000000000000006066906000191690557f636f6e6669675f64726166745f766f74696e675f7068617365000000000000006067906000191690557f636f6e6669675f72705f626f6f73745f7065725f6261646765000000000000006068906000191690557f636f6e6669675f636c61696d696e675f646561646c696e6500000000000000006069906000191690557f636f6e6669675f70726570726f706f73616c5f636f6c6c61746572616c000000606a906000191690557f636f6e6669675f6d61785f66756e64696e675f6e6f6e44696769780000000000606b906000191690557f636f6e6669675f6d61785f6d696c6573746f6e65735f6e6f6e44696769780000606c906000191690557f636f6e6669675f6e6f6e44696769785f70726f706f73616c5f63617000000000606d906000191690557f636f6e6669675f646561645f6475726174696f6e000000000000000000000000606e906000191690557f636f6e6669675f63765f72657075746174696f6e000000000000000000000000606f906000191690553480156200113457600080fd5b5060405160208062002ef4833981018060405281019080805190602001909291905050508062001176602954826200118a640100000000026401000000009004565b15156200118257600080fd5b50506200141b565b6000808273ffffffffffffffffffffffffffffffffffffffff16636d19a8826040518163ffffffff167c0100000000000000000000000000000000000000000000000000000000028152600401602060405180830381600087803b158015620011f257600080fd5b505af115801562001207573d6000803e3d6000fd5b505050506040513d60208110156200121e57600080fd5b810190808051906020019092919050505090506000151581151514156200140f5730600260006101000a81548173ffffffffffffffffffffffffffffffffffffffff021916908373ffffffffffffffffffffffffffffffffffffffff160217905550826000806101000a81548173ffffffffffffffffffffffffffffffffffffffff021916908373ffffffffffffffffffffffffffffffffffffffff16021790555083600181600019169055506000809054906101000a900473ffffffffffffffffffffffffffffffffffffffff1673ffffffffffffffffffffffffffffffffffffffff1663c0f6ef4a600154600260009054906101000a900473ffffffffffffffffffffffffffffffffffffffff166040518363ffffffff167c01000000000000000000000000000000000000000000000000000000000281526004018083600019166000191681526020018273ffffffffffffffffffffffffffffffffffffffff1673ffffffffffffffffffffffffffffffffffffffff16815260200192505050602060405180830381600087803b158015620013bc57600080fd5b505af1158015620013d1573d6000803e3d6000fd5b505050506040513d6020811015620013e857600080fd5b810190808051906020019092919050505015156200140557600080fd5b6001915062001414565b600091505b5092915050565b611ac9806200142b6000396000f300608060405260043610610112576000357c0100000000000000000000000000000000000000000000000000000000900463ffffffff16806304f3bcec1461011757806317a129501461016e5780631ad53da6146101995780631eee015414610242578063280753f9146102b457806329101470146103675780633943380c146103a85780633f83acff146103db57806366f481c81461044c5780637478fbe3146104a35780637b22ebce1461050b5780637bae633b1461054c5780637cb77966146105a357806393383c51146105f05780639c89a0e214610651578063a5a9f5bb146106a8578063d80518c714610709578063db4ecbc1146107bc578063ded86d6814610813578063f2f80af41461087b575b600080fd5b34801561012357600080fd5b5061012c6108ed565b604051808273ffffffffffffffffffffffffffffffffffffffff1673ffffffffffffffffffffffffffffffffffffffff16815260200191505060405180910390f35b34801561017a57600080fd5b50610183610912565b6040518082815260200191505060405180910390f35b3480156101a557600080fd5b50610240600480360381019080803590602001908201803590602001908080602002602001604051908101604052809392919081815260200183836020028082843782019150505050505091929192908035906020019082018035906020019080806020026020016040519081016040528093929190818152602001838360200280828437820191505050505050919291929050505061091f565b005b34801561024e57600080fd5b50610297600480360381019080803573ffffffffffffffffffffffffffffffffffffffff1690602001909291908035906020019092919080359060200190929190505050610a3e565b604051808381526020018281526020019250505060405180910390f35b3480156102c057600080fd5b50610365600480360381019080803590602001908201803590602001908080602002602001604051908101604052809392919081815260200183836020028082843782019150505050505091929192908035906020019082018035906020019080806020026020016040519081016040528093929190818152602001838360200280828437820191505050505050919291929080359060200190929190505050610c05565b005b34801561037357600080fd5b5061039260048036038101908080359060200190929190505050610d69565b6040518082815260200191505060405180910390f35b3480156103b457600080fd5b506103bd610d89565b60405180826000191660001916815260200191505060405180910390f35b3480156103e757600080fd5b5061040a6004803603810190808035600019169060200190929190505050610d8f565b604051808273ffffffffffffffffffffffffffffffffffffffff1673ffffffffffffffffffffffffffffffffffffffff16815260200191505060405180910390f35b34801561045857600080fd5b506104a1600480360381019080803573ffffffffffffffffffffffffffffffffffffffff1690602001909291908035906020019092919080359060200190929190505050610e6b565b005b3480156104af57600080fd5b506104ee600480360381019080803573ffffffffffffffffffffffffffffffffffffffff16906020019092919080359060200190929190505050610f50565b604051808381526020018281526020019250505060405180910390f35b34801561051757600080fd5b5061053660048036038101908080359060200190929190505050611193565b6040518082815260200191505060405180910390f35b34801561055857600080fd5b506105a1600480360381019080803573ffffffffffffffffffffffffffffffffffffffff16906020019092919080359060200190929190803590602001909291905050506111b3565b005b3480156105af57600080fd5b506105ee600480360381019080803573ffffffffffffffffffffffffffffffffffffffff16906020019092919080359060200190929190505050611298565b005b3480156105fc57600080fd5b5061063b600480360381019080803573ffffffffffffffffffffffffffffffffffffffff16906020019092919080359060200190929190505050611338565b6040518082815260200191505060405180910390f35b34801561065d57600080fd5b50610692600480360381019080803573ffffffffffffffffffffffffffffffffffffffff169060200190929190505050611396565b6040518082815260200191505060405180910390f35b3480156106b457600080fd5b506106f3600480360381019080803573ffffffffffffffffffffffffffffffffffffffff169060200190929190803590602001909291905050506113e2565b6040518082815260200191505060405180910390f35b34801561071557600080fd5b506107ba600480360381019080803590602001908201803590602001908080602002602001604051908101604052809392919081815260200183836020028082843782019150505050505091929192908035906020019082018035906020019080806020026020016040519081016040528093929190818152602001838360200280828437820191505050505050919291929080359060200190929190505050611440565b005b3480156107c857600080fd5b506107d16115a4565b604051808273ffffffffffffffffffffffffffffffffffffffff1673ffffffffffffffffffffffffffffffffffffffff16815260200191505060405180910390f35b34801561081f57600080fd5b5061085e600480360381019080803573ffffffffffffffffffffffffffffffffffffffff169060200190929190803590602001909291905050506115ca565b604051808381526020018281526020019250505060405180910390f35b34801561088757600080fd5b506108d0600480360381019080803573ffffffffffffffffffffffffffffffffffffffff169060200190929190803590602001909291908035906020019092919050505061172a565b604051808381526020018281526020019250505060405180910390f35b6000809054906101000a900473ffffffffffffffffffffffffffffffffffffffff1681565b6000607060000154905090565b60008083519150600090505b81811015610a3857828181518110151561094157fe5b9060200190602002015160706001016000868481518110151561096057fe5b9060200190602002015173ffffffffffffffffffffffffffffffffffffffff1673ffffffffffffffffffffffffffffffffffffffff16815260200190815260200160002054607060000154030160706000018190555082818151811015156109c457fe5b906020019060200201516070600101600086848151811015156109e357fe5b9060200190602002015173ffffffffffffffffffffffffffffffffffffffff1673ffffffffffffffffffffffffffffffffffffffff16815260200190815260200160002081905550808060010191505061092b565b50505050565b600080610a83606060405190810160405280601754600019166000191681526020016018546000191660001916815260200160035460001916600019168152506118f1565b1515610a8e57600080fd5b610ab7846072600086815260200190815260200160002060000154611a6890919063ffffffff16565b6072600085815260200190815260200160002060000181905550610b37846072600086815260200190815260200160002060010160008873ffffffffffffffffffffffffffffffffffffffff1673ffffffffffffffffffffffffffffffffffffffff16815260200190815260200160002054611a6890919063ffffffff16565b6072600085815260200190815260200160002060010160008773ffffffffffffffffffffffffffffffffffffffff1673ffffffffffffffffffffffffffffffffffffffff168152602001908152602001600020819055506072600084815260200190815260200160002060010160008673ffffffffffffffffffffffffffffffffffffffff1673ffffffffffffffffffffffffffffffffffffffff16815260200190815260200160002054915060726000848152602001908152602001600020600001549050935093915050565b60008084519150600090505b81811015610d62578381815181101515610c2757fe5b906020019060200201516072600085815260200190815260200160002060010160008784815181101515610c5757fe5b9060200190602002015173ffffffffffffffffffffffffffffffffffffffff1673ffffffffffffffffffffffffffffffffffffffff168152602001908152602001600020546072600086815260200190815260200160002060000154030160726000858152602001908152602001600020600001819055508381815181101515610cdd57fe5b906020019060200201516072600085815260200190815260200160002060010160008784815181101515610d0d57fe5b9060200190602002015173ffffffffffffffffffffffffffffffffffffffff1673ffffffffffffffffffffffffffffffffffffffff168152602001908152602001600020819055508080600101915050610c11565b5050505050565b600060736000838152602001908152602001600020600001549050919050565b60015481565b60008060009054906101000a900473ffffffffffffffffffffffffffffffffffffffff1673ffffffffffffffffffffffffffffffffffffffff16633f83acff836040518263ffffffff167c0100000000000000000000000000000000000000000000000000000000028152600401808260001916600019168152602001915050602060405180830381600087803b158015610e2957600080fd5b505af1158015610e3d573d6000803e3d6000fd5b505050506040513d6020811015610e5357600080fd5b81019080805190602001909291905050509050919050565b816072600083815260200190815260200160002060010160008573ffffffffffffffffffffffffffffffffffffffff1673ffffffffffffffffffffffffffffffffffffffff16815260200190815260200160002054607260008481526020019081526020016000206000015403016072600083815260200190815260200160002060000181905550816072600083815260200190815260200160002060010160008573ffffffffffffffffffffffffffffffffffffffff1673ffffffffffffffffffffffffffffffffffffffff16815260200190815260200160002081905550505050565b6000806000610f9760606040519081016040528060185460001916600019168152602001601b546000191660001916815260200160035460001916600019168152506118f1565b1515610fa257600080fd5b83905083607060010160008773ffffffffffffffffffffffffffffffffffffffff1673ffffffffffffffffffffffffffffffffffffffff16815260200190815260200160002054111561108f5761104484607060010160008873ffffffffffffffffffffffffffffffffffffffff1673ffffffffffffffffffffffffffffffffffffffff16815260200190815260200160002054611a8490919063ffffffff16565b607060010160008773ffffffffffffffffffffffffffffffffffffffff1673ffffffffffffffffffffffffffffffffffffffff1681526020019081526020016000208190555061111d565b607060010160008673ffffffffffffffffffffffffffffffffffffffff1673ffffffffffffffffffffffffffffffffffffffff1681526020019081526020016000205490506000607060010160008773ffffffffffffffffffffffffffffffffffffffff1673ffffffffffffffffffffffffffffffffffffffff168152602001908152602001600020819055505b61113581607060000154611a8490919063ffffffff16565b607060000181905550607060010160008673ffffffffffffffffffffffffffffffffffffffff1673ffffffffffffffffffffffffffffffffffffffff1681526020019081526020016000205492506070600001549150509250929050565b600060726000838152602001908152602001600020600001549050919050565b816073600083815260200190815260200160002060010160008573ffffffffffffffffffffffffffffffffffffffff1673ffffffffffffffffffffffffffffffffffffffff16815260200190815260200160002054607360008481526020019081526020016000206000015403016073600083815260200190815260200160002060000181905550816073600083815260200190815260200160002060010160008573ffffffffffffffffffffffffffffffffffffffff1673ffffffffffffffffffffffffffffffffffffffff16815260200190815260200160002081905550505050565b80607060010160008473ffffffffffffffffffffffffffffffffffffffff1673ffffffffffffffffffffffffffffffffffffffff16815260200190815260200160002054607060000154030160706000018190555080607060010160008473ffffffffffffffffffffffffffffffffffffffff1673ffffffffffffffffffffffffffffffffffffffff168152602001908152602001600020819055505050565b60006072600083815260200190815260200160002060010160008473ffffffffffffffffffffffffffffffffffffffff1673ffffffffffffffffffffffffffffffffffffffff16815260200190815260200160002054905092915050565b6000607060010160008373ffffffffffffffffffffffffffffffffffffffff1673ffffffffffffffffffffffffffffffffffffffff168152602001908152602001600020549050919050565b60006073600083815260200190815260200160002060010160008473ffffffffffffffffffffffffffffffffffffffff1673ffffffffffffffffffffffffffffffffffffffff16815260200190815260200160002054905092915050565b60008084519150600090505b8181101561159d57838181518110151561146257fe5b90602001906020020151607360008581526020019081526020016000206001016000878481518110151561149257fe5b9060200190602002015173ffffffffffffffffffffffffffffffffffffffff1673ffffffffffffffffffffffffffffffffffffffff16815260200190815260200160002054607360008681526020019081526020016000206000015403016073600085815260200190815260200160002060000181905550838181518110151561151857fe5b90602001906020020151607360008581526020019081526020016000206001016000878481518110151561154857fe5b9060200190602002015173ffffffffffffffffffffffffffffffffffffffff1673ffffffffffffffffffffffffffffffffffffffff16815260200190815260200160002081905550808060010191505061144c565b5050505050565b600260009054906101000a900473ffffffffffffffffffffffffffffffffffffffff1681565b60008061160f60606040519081016040528060185460001916600019168152602001601b546000191660001916815260200160165460001916600019168152506118f1565b151561161a57600080fd5b61163283607060000154611a6890919063ffffffff16565b60706000018190555061169083607060010160008773ffffffffffffffffffffffffffffffffffffffff1673ffffffffffffffffffffffffffffffffffffffff16815260200190815260200160002054611a6890919063ffffffff16565b607060010160008673ffffffffffffffffffffffffffffffffffffffff1673ffffffffffffffffffffffffffffffffffffffff16815260200190815260200160002081905550607060010160008573ffffffffffffffffffffffffffffffffffffffff1673ffffffffffffffffffffffffffffffffffffffff16815260200190815260200160002054915060706000015490509250929050565b60008061176f606060405190810160405280601754600019166000191681526020016018546000191660001916815260200160035460001916600019168152506118f1565b151561177a57600080fd5b6117a3846073600086815260200190815260200160002060000154611a6890919063ffffffff16565b6073600085815260200190815260200160002060000181905550611823846073600086815260200190815260200160002060010160008873ffffffffffffffffffffffffffffffffffffffff1673ffffffffffffffffffffffffffffffffffffffff16815260200190815260200160002054611a6890919063ffffffff16565b6073600085815260200190815260200160002060010160008773ffffffffffffffffffffffffffffffffffffffff1673ffffffffffffffffffffffffffffffffffffffff168152602001908152602001600020819055506073600084815260200190815260200160002060010160008673ffffffffffffffffffffffffffffffffffffffff1673ffffffffffffffffffffffffffffffffffffffff16815260200190815260200160002054915060736000848152602001908152602001600020600001549050935093915050565b600080600060039150600090505b81811015611a6157600060010260001916848260038110151561191e57fe5b602002015160001916141561193257611a54565b6000809054906101000a900473ffffffffffffffffffffffffffffffffffffffff1673ffffffffffffffffffffffffffffffffffffffff16633f83acff858360038110151561197d57fe5b60200201516040518263ffffffff167c0100000000000000000000000000000000000000000000000000000000028152600401808260001916600019168152602001915050602060405180830381600087803b1580156119dc57600080fd5b505af11580156119f0573d6000803e3d6000fd5b505050506040513d6020811015611a0657600080fd5b810190808051906020019092919050505073ffffffffffffffffffffffffffffffffffffffff163373ffffffffffffffffffffffffffffffffffffffff161415611a535760019250611a61565b5b80806001019150506118ff565b5050919050565b60008183019050828110151515611a7b57fe5b80905092915050565b6000828211151515611a9257fe5b8183039050929150505600a165627a7a723058204d52d0f8b6de1438196ac6a4b508cfb441a492fca0d2025ce4513399a6eef3ec0029",
  "source": "pragma solidity ^0.4.25;\n\nimport \"../../storage/DaoPointsStorage.sol\";\n\ncontract MockDaoPointsStorage is DaoPointsStorage {\n    constructor(address _resolver) public DaoPointsStorage(_resolver) {\n    }\n\n    function setQP(address _participant, uint256 _point, uint256 _qId) public {\n        quarterPoint[_qId].totalSupply = quarterPoint[_qId].totalSupply - quarterPoint[_qId].balance[_participant] + _point;\n        quarterPoint[_qId].balance[_participant] = _point;\n    }\n\n    function setModeratorQP(address _participant, uint256 _point, uint256 _qId) public {\n        quarterModeratorPoint[_qId].totalSupply = quarterModeratorPoint[_qId].totalSupply - quarterModeratorPoint[_qId].balance[_participant] + _point;\n        quarterModeratorPoint[_qId].balance[_participant] = _point;\n    }\n\n    function setRP(address _participant, uint256 _point) public {\n        reputationPoint.totalSupply = reputationPoint.totalSupply - reputationPoint.balance[_participant] + _point;\n        reputationPoint.balance[_participant] = _point;\n    }\n\n    function mock_set_qp(address[] _participants, uint256[] _points, uint256 _qId) public {\n        uint256 _n = _participants.length;\n        for (uint256 i = 0; i < _n; i++) {\n            quarterPoint[_qId].totalSupply = quarterPoint[_qId].totalSupply - quarterPoint[_qId].balance[_participants[i]] + _points[i];\n            quarterPoint[_qId].balance[_participants[i]] = _points[i];\n        }\n    }\n\n    function mock_set_moderator_qp(address[] _participants, uint256[] _points, uint256 _qId) public {\n        uint256 _n = _participants.length;\n        for (uint256 i = 0; i < _n; i++) {\n            quarterModeratorPoint[_qId].totalSupply = quarterModeratorPoint[_qId].totalSupply - quarterModeratorPoint[_qId].balance[_participants[i]] + _points[i];\n            quarterModeratorPoint[_qId].balance[_participants[i]] = _points[i];\n        }\n    }\n\n    function mock_set_rp(address[] _participants, uint256[] _points) public {\n        uint256 _n = _participants.length;\n        for (uint256 i = 0; i < _n; i++) {\n            reputationPoint.totalSupply = reputationPoint.totalSupply - reputationPoint.balance[_participants[i]] + _points[i];\n            reputationPoint.balance[_participants[i]] = _points[i];\n        }\n    }\n}\n",
  "sourcePath": "/home/rohit/Develop/dao-contracts/contracts/mock/storage/MockDaoPointsStorage.sol",
  "compiler": {
    "name": "solc",
    "version": "0.4.25+commit.59dbf8f1.Emscripten.clang"
  },
  "schemaVersion": "2.0.1",
  "updatedAt": "2019-03-05T03:39:14.111Z"
}