{
  "contractName": "MockDgxStorage",
  "abi": [
    {
      "constant": true,
      "inputs": [
        {
          "name": "_account",
          "type": "address"
        }
      ],
      "name": "read_user_for_demurrage",
      "outputs": [
        {
          "name": "_raw_balance",
          "type": "uint256"
        },
        {
          "name": "_payment_date",
          "type": "uint256"
        },
        {
          "name": "_no_demurrage_fee",
          "type": "bool"
        }
      ],
      "payable": false,
      "stateMutability": "view",
      "type": "function"
    },
    {
      "constant": false,
      "inputs": [
        {
          "name": "_user",
          "type": "address"
        },
        {
          "name": "_no_demurrage_fee",
          "type": "bool"
        },
        {
          "name": "_no_transfer_fee",
          "type": "bool"
        }
      ],
      "name": "update_user_fees_configs",
      "outputs": [
        {
          "name": "_success",
          "type": "bool"
        }
      ],
      "payable": false,
      "stateMutability": "nonpayable",
      "type": "function"
    },
    {
      "constant": false,
      "inputs": [
        {
          "name": "_user",
          "type": "address"
        }
      ],
      "name": "deduct_demurrage",
      "outputs": [
        {
          "name": "_success",
          "type": "bool"
        }
      ],
      "payable": false,
      "stateMutability": "nonpayable",
      "type": "function"
    },
    {
      "constant": true,
      "inputs": [],
      "name": "read_demurrage_config_underlying",
      "outputs": [
        {
          "name": "_base",
          "type": "uint256"
        },
        {
          "name": "_rate",
          "type": "uint256"
        },
        {
          "name": "_collector",
          "type": "address"
        },
        {
          "name": "_no_demurrage_fee",
          "type": "bool"
        }
      ],
      "payable": false,
      "stateMutability": "view",
      "type": "function"
    },
    {
      "constant": false,
      "inputs": [
        {
          "name": "_of",
          "type": "address"
        },
        {
          "name": "_byMinutes",
          "type": "uint256"
        }
      ],
      "name": "modify_last_payment_date",
      "outputs": [
        {
          "name": "_success",
          "type": "bool"
        }
      ],
      "payable": false,
      "stateMutability": "nonpayable",
      "type": "function"
    },
    {
      "constant": true,
      "inputs": [],
      "name": "read_total_supply",
      "outputs": [
        {
          "name": "_totalSupply",
          "type": "uint256"
        }
      ],
      "payable": false,
      "stateMutability": "view",
      "type": "function"
    },
    {
      "constant": true,
      "inputs": [
        {
          "name": "_user",
          "type": "address"
        }
      ],
      "name": "show_demurraged_balance",
      "outputs": [
        {
          "name": "_actual_balance",
          "type": "uint256"
        }
      ],
      "payable": false,
      "stateMutability": "view",
      "type": "function"
    },
    {
      "constant": false,
      "inputs": [
        {
          "name": "_account",
          "type": "address"
        },
        {
          "name": "_spender",
          "type": "address"
        },
        {
          "name": "_amount",
          "type": "uint256"
        }
      ],
      "name": "put_approve",
      "outputs": [
        {
          "name": "_success",
          "type": "bool"
        }
      ],
      "payable": false,
      "stateMutability": "nonpayable",
      "type": "function"
    },
    {
      "constant": false,
      "inputs": [
        {
          "name": "_sender",
          "type": "address"
        },
        {
          "name": "_recipient",
          "type": "address"
        },
        {
          "name": "_spender",
          "type": "address"
        },
        {
          "name": "_amount",
          "type": "uint256"
        },
        {
          "name": "_transfer_from",
          "type": "bool"
        }
      ],
      "name": "put_transfer",
      "outputs": [
        {
          "name": "_success",
          "type": "bool"
        }
      ],
      "payable": false,
      "stateMutability": "nonpayable",
      "type": "function"
    },
    {
      "constant": true,
      "inputs": [
        {
          "name": "_account",
          "type": "address"
        }
      ],
      "name": "read_user_fees_configs",
      "outputs": [
        {
          "name": "_no_demurrage_fee",
          "type": "bool"
        },
        {
          "name": "_no_transfer_fee",
          "type": "bool"
        }
      ],
      "payable": false,
      "stateMutability": "view",
      "type": "function"
    },
    {
      "constant": true,
      "inputs": [],
      "name": "read_demurrage_config",
      "outputs": [
        {
          "name": "_collector_balance",
          "type": "uint256"
        },
        {
          "name": "_base",
          "type": "uint256"
        },
        {
          "name": "_rate",
          "type": "uint256"
        },
        {
          "name": "_collector",
          "type": "address"
        }
      ],
      "payable": false,
      "stateMutability": "view",
      "type": "function"
    },
    {
      "constant": true,
      "inputs": [
        {
          "name": "_owner",
          "type": "address"
        },
        {
          "name": "_spender",
          "type": "address"
        }
      ],
      "name": "read_allowance",
      "outputs": [
        {
          "name": "_allowance",
          "type": "uint256"
        }
      ],
      "payable": false,
      "stateMutability": "view",
      "type": "function"
    },
    {
      "constant": true,
      "inputs": [
        {
          "name": "_account",
          "type": "address"
        }
      ],
      "name": "read_user_for_transfer",
      "outputs": [
        {
          "name": "_raw_balance",
          "type": "uint256"
        },
        {
          "name": "_no_transfer_fee",
          "type": "bool"
        }
      ],
      "payable": false,
      "stateMutability": "view",
      "type": "function"
    },
    {
      "constant": false,
      "inputs": [
        {
          "name": "_for",
          "type": "address"
        },
        {
          "name": "_amount",
          "type": "uint256"
        }
      ],
      "name": "mint_dgx_for",
      "outputs": [
        {
          "name": "_success",
          "type": "bool"
        }
      ],
      "payable": false,
      "stateMutability": "nonpayable",
      "type": "function"
    },
    {
      "constant": true,
      "inputs": [],
      "name": "read_transfer_config",
      "outputs": [
        {
          "name": "_collector_balance",
          "type": "uint256"
        },
        {
          "name": "_base",
          "type": "uint256"
        },
        {
          "name": "_rate",
          "type": "uint256"
        },
        {
          "name": "_collector",
          "type": "address"
        },
        {
          "name": "_no_transfer_fee",
          "type": "bool"
        },
        {
          "name": "_minimum_transfer_amount",
          "type": "uint256"
        }
      ],
      "payable": false,
      "stateMutability": "view",
      "type": "function"
    },
    {
      "constant": false,
      "inputs": [
        {
          "name": "_DummyDGXInteractive",
          "type": "address"
        }
      ],
      "name": "setInteractive",
      "outputs": [],
      "payable": false,
      "stateMutability": "nonpayable",
      "type": "function"
    },
    {
      "inputs": [],
      "payable": false,
      "stateMutability": "nonpayable",
      "type": "constructor"
    }
  ],
  "bytecode": "0x608060405234801561001057600080fd5b506000806000806000f091506000806000f090506298968060006002016003016000016000018190555060a5600060020160030160000160010181905550612710600060020160030160020160000181905550600d600060020160030160020160010181905550620f424060006002016002018190555060008060020160010160006101000a81548160ff02191690831515021790555060008060020160010160016101000a81548160ff0219169083151502179055507f312e302e30000000000000000000000000000000000000000000000000000000600060020160000181600019169055506000806009018190555033600b60006101000a81548173ffffffffffffffffffffffffffffffffffffffff021916908373ffffffffffffffffffffffffffffffffffffffff16021790555050506121db806101546000396000f3006080604052600436106100e6576000357c0100000000000000000000000000000000000000000000000000000000900463ffffffff16806309a0c130146100eb5780630ca9f65c1461015457806338ec8116146101c7578063493f8d30146102225780635722b67f1461029257806357e7946f146102f757806376cab95214610322578063779b742c1461037957806392846ab6146103fe578063a6e653f6146104af578063a77af36e14610515578063d28b43f414610581578063e0fe1d46146105f8578063e1ed956b1461065a578063e2958974146106bf578063f7c9c89a1461073d575b600080fd5b3480156100f757600080fd5b5061012c600480360381019080803573ffffffffffffffffffffffffffffffffffffffff169060200190929190505050610780565b6040518084815260200183815260200182151515158152602001935050505060405180910390f35b34801561016057600080fd5b506101ad600480360381019080803573ffffffffffffffffffffffffffffffffffffffff169060200190929190803515159060200190929190803515159060200190929190505050610896565b604051808215151515815260200191505060405180910390f35b3480156101d357600080fd5b50610208600480360381019080803573ffffffffffffffffffffffffffffffffffffffff1690602001909291905050506109bf565b604051808215151515815260200191505060405180910390f35b34801561022e57600080fd5b50610237610a25565b604051808581526020018481526020018373ffffffffffffffffffffffffffffffffffffffff1673ffffffffffffffffffffffffffffffffffffffff1681526020018215151515815260200194505050505060405180910390f35b34801561029e57600080fd5b506102dd600480360381019080803573ffffffffffffffffffffffffffffffffffffffff16906020019092919080359060200190929190505050610a95565b604051808215151515815260200191505060405180910390f35b34801561030357600080fd5b5061030c610b4f565b6040518082815260200191505060405180910390f35b34801561032e57600080fd5b50610363600480360381019080803573ffffffffffffffffffffffffffffffffffffffff169060200190929190505050610b5b565b6040518082815260200191505060405180910390f35b34801561038557600080fd5b506103e4600480360381019080803573ffffffffffffffffffffffffffffffffffffffff169060200190929190803573ffffffffffffffffffffffffffffffffffffffff16906020019092919080359060200190929190505050610bec565b604051808215151515815260200191505060405180910390f35b34801561040a57600080fd5b50610495600480360381019080803573ffffffffffffffffffffffffffffffffffffffff169060200190929190803573ffffffffffffffffffffffffffffffffffffffff169060200190929190803573ffffffffffffffffffffffffffffffffffffffff16906020019092919080359060200190929190803515159060200190929190505050610ca6565b604051808215151515815260200191505060405180910390f35b3480156104bb57600080fd5b506104f0600480360381019080803573ffffffffffffffffffffffffffffffffffffffff169060200190929190505050610fd4565b6040518083151515158152602001821515151581526020019250505060405180910390f35b34801561052157600080fd5b5061052a61108c565b604051808581526020018481526020018381526020018273ffffffffffffffffffffffffffffffffffffffff1673ffffffffffffffffffffffffffffffffffffffff16815260200194505050505060405180910390f35b34801561058d57600080fd5b506105e2600480360381019080803573ffffffffffffffffffffffffffffffffffffffff169060200190929190803573ffffffffffffffffffffffffffffffffffffffff169060200190929190505050611184565b6040518082815260200191505060405180910390f35b34801561060457600080fd5b50610639600480360381019080803573ffffffffffffffffffffffffffffffffffffffff169060200190929190505050611213565b60405180838152602001821515151581526020019250505060405180910390f35b34801561066657600080fd5b506106a5600480360381019080803573ffffffffffffffffffffffffffffffffffffffff169060200190929190803590602001909291905050506112be565b604051808215151515815260200191505060405180910390f35b3480156106cb57600080fd5b506106d461138f565b604051808781526020018681526020018581526020018473ffffffffffffffffffffffffffffffffffffffff1673ffffffffffffffffffffffffffffffffffffffff16815260200183151515158152602001828152602001965050505050505060405180910390f35b34801561074957600080fd5b5061077e600480360381019080803573ffffffffffffffffffffffffffffffffffffffff169060200190929190505050611481565b005b600080600080600a0160008573ffffffffffffffffffffffffffffffffffffffff1673ffffffffffffffffffffffffffffffffffffffff1681526020019081526020016000206001016001015492506000600a0160008573ffffffffffffffffffffffffffffffffffffffff1673ffffffffffffffffffffffffffffffffffffffff1681526020019081526020016000206001016000015491506000600a0160008573ffffffffffffffffffffffffffffffffffffffff1673ffffffffffffffffffffffffffffffffffffffff16815260200190815260200160002060000160000160009054906101000a900460ff168061088d5750600060020160010160009054906101000a900460ff165b90509193909250565b6000600c60009054906101000a900473ffffffffffffffffffffffffffffffffffffffff1673ffffffffffffffffffffffffffffffffffffffff163373ffffffffffffffffffffffffffffffffffffffff161415156108f457600080fd5b826000600a0160008673ffffffffffffffffffffffffffffffffffffffff1673ffffffffffffffffffffffffffffffffffffffff16815260200190815260200160002060000160000160006101000a81548160ff021916908315150217905550816000600a0160008673ffffffffffffffffffffffffffffffffffffffff1673ffffffffffffffffffffffffffffffffffffffff16815260200190815260200160002060000160000160016101000a81548160ff021916908315150217905550600190509392505050565b60006109c9611f46565b6109d283611521565b90506109dd81611616565b9050610a1b81602001516000015182602001516040015160200151836020015160600151600001516020015184600001516000015160200151611821565b6001915050919050565b600080600080600060020160030160000160000154935060006002016003016000016001015492506000800160000160009054906101000a900473ffffffffffffffffffffffffffffffffffffffff169150600060020160010160009054906101000a900460ff16905090919293565b6000600c60009054906101000a900473ffffffffffffffffffffffffffffffffffffffff1673ffffffffffffffffffffffffffffffffffffffff163373ffffffffffffffffffffffffffffffffffffffff16141515610af357600080fd5b603c820242036000600a0160008573ffffffffffffffffffffffffffffffffffffffff1673ffffffffffffffffffffffffffffffffffffffff168152602001908152602001600020600101600001819055506001905092915050565b60008060090154905090565b6000610b65611f46565b600c60009054906101000a900473ffffffffffffffffffffffffffffffffffffffff1673ffffffffffffffffffffffffffffffffffffffff163373ffffffffffffffffffffffffffffffffffffffff16141515610bc157600080fd5b610bca83611521565b9050610bd581611616565b905080602001516040015160200151915050919050565b6000610bf6611f75565b600c60009054906101000a900473ffffffffffffffffffffffffffffffffffffffff1673ffffffffffffffffffffffffffffffffffffffff163373ffffffffffffffffffffffffffffffffffffffff16141515610c5257600080fd5b610c5c8585611184565b81600001818152505060008160000151118015610c795750600083115b15610c8357600080fd5b82816020018181525050610c9c85858360200151611935565b9150509392505050565b6000610cb0611f8f565b600c60009054906101000a900473ffffffffffffffffffffffffffffffffffffffff1673ffffffffffffffffffffffffffffffffffffffff163373ffffffffffffffffffffffffffffffffffffffff16141515610d0c57600080fd5b8573ffffffffffffffffffffffffffffffffffffffff168773ffffffffffffffffffffffffffffffffffffffff1614151515610d4757600080fd5b60011515610d54886109bf565b1515141515610d6257600080fd5b60011515610d6f876109bf565b1515141515610d7d57600080fd5b610d8561138f565b8660600151600001516000018760600151604001886060015160600189606001516020018a606001516080018b6060015160a0018681525086151515158152508673ffffffffffffffffffffffffffffffffffffffff1673ffffffffffffffffffffffffffffffffffffffff16815250868152508681525086815250505050505050806060015160a001518410151515610e1e57600080fd5b610e2787611213565b82600001516020015160000183600001516040018215151515815250828152505050610e5286611213565b82602001516020015160000183602001516040018215151515815250828152505050838160a0018181525050828160e00190151590811515815250506001151581606001516080015115151480610eb55750600115158160000151604001511515145b15610eca57610ec3816119cc565b9050610ed6565b610ed381611a86565b90505b600115158160e0015115151415610f8a5760011515610ef4866109bf565b1515141515610f0257600080fd5b610f0c8786611184565b8160400151602001516000018181525050610f3884826040015160200151611b7b90919063ffffffff16565b816040015160200181905250610f8387826000015160200151602001518884602001516020015160200151856060015160000151602001518a87604001516020015160200151611baf565b9150610fbe565b610fbb8782600001516020015160200151888460200151602001516020015185606001516000015160200151611d58565b91505b811515610fca57600080fd5b5095945050505050565b6000806000600a0160008473ffffffffffffffffffffffffffffffffffffffff1673ffffffffffffffffffffffffffffffffffffffff16815260200190815260200160002060000160000160009054906101000a900460ff1691506000600a0160008473ffffffffffffffffffffffffffffffffffffffff1673ffffffffffffffffffffffffffffffffffffffff16815260200190815260200160002060000160000160019054906101000a900460ff169050915091565b600080600080600080600a0160008060000160000160009054906101000a900473ffffffffffffffffffffffffffffffffffffffff1673ffffffffffffffffffffffffffffffffffffffff1673ffffffffffffffffffffffffffffffffffffffff168152602001908152602001600020600101600101549450600060020160010160009054906101000a900460ff1690506000800160000160009054906101000a900473ffffffffffffffffffffffffffffffffffffffff169150801561115a57600093506000925061117d565b600060020160030160000160000154935060006002016003016000016001015492505b5090919293565b600080600a0160008473ffffffffffffffffffffffffffffffffffffffff1673ffffffffffffffffffffffffffffffffffffffff16815260200190815260200160002060010160020160008373ffffffffffffffffffffffffffffffffffffffff1673ffffffffffffffffffffffffffffffffffffffff16815260200190815260200160002054905092915050565b6000806000600a0160008473ffffffffffffffffffffffffffffffffffffffff1673ffffffffffffffffffffffffffffffffffffffff1681526020019081526020016000206001016001015491506000600a0160008473ffffffffffffffffffffffffffffffffffffffff1673ffffffffffffffffffffffffffffffffffffffff16815260200190815260200160002060000160000160019054906101000a900460ff169050915091565b6000600c60009054906101000a900473ffffffffffffffffffffffffffffffffffffffff1673ffffffffffffffffffffffffffffffffffffffff163373ffffffffffffffffffffffffffffffffffffffff1614151561131c57600080fd5b816000600a0160008573ffffffffffffffffffffffffffffffffffffffff1673ffffffffffffffffffffffffffffffffffffffff16815260200190815260200160002060010160010160008282540192505081905550816000600901600082825401925050819055506001905092915050565b6000806000806000806000600a0160008060000160010160009054906101000a900473ffffffffffffffffffffffffffffffffffffffff1673ffffffffffffffffffffffffffffffffffffffff1673ffffffffffffffffffffffffffffffffffffffff168152602001908152602001600020600101600101549550600060020160030160020160000154945060006002016003016002016001015493506000800160010160009054906101000a900473ffffffffffffffffffffffffffffffffffffffff169250600060020160010160019054906101000a900460ff1691506000600201600201549050909192939495565b600b60009054906101000a900473ffffffffffffffffffffffffffffffffffffffff1673ffffffffffffffffffffffffffffffffffffffff163373ffffffffffffffffffffffffffffffffffffffff161415156114dd57600080fd5b80600c60006101000a81548173ffffffffffffffffffffffffffffffffffffffff021916908373ffffffffffffffffffffffffffffffffffffffff16021790555050565b611529611f46565b61153161108c565b8460000151600001516000018560000151602001866000015160400187600001516060018473ffffffffffffffffffffffffffffffffffffffff1673ffffffffffffffffffffffffffffffffffffffff16815250848152508481525084815250505050508181602001516000019073ffffffffffffffffffffffffffffffffffffffff16908173ffffffffffffffffffffffffffffffffffffffff16815250506115da82610780565b83602001516040015160000184602001516060015160000151600001856020015160200183151515158152508381525083815250505050919050565b61161e611f46565b60008260200151606001516000015160000151141561164e57428260200151606001516000015160000181815250505b60011515826020015160200151151514806116a4575081600001516060015173ffffffffffffffffffffffffffffffffffffffff1682602001516000015173ffffffffffffffffffffffffffffffffffffffff16145b156117005781602001516040015160000151826020015160400151602001818152505081600001516000015160000151826000015160000151602001818152505042826020015160600151600001516020018181525050611819565b61171e62015180836020015160600151611e7590919063ffffffff16565b826020015160600181905250600082602001516060015160200151141561178057816020015160400151600001518260200151604001516020018181525050816000015160000151600001518260000151600001516020018181525050611818565b816000015160200151826000015160400151836020015160400151600001518460200151606001516020015102028115156117b757fe5b048260400181815250506117e08260400151836020015160400151611b7b90919063ffffffff16565b82602001516040018190525061180b8260400151836000015160000151611f0c90919063ffffffff16565b8260000151600001819052505b5b819050919050565b806000600a0160008060000160000160009054906101000a900473ffffffffffffffffffffffffffffffffffffffff1673ffffffffffffffffffffffffffffffffffffffff1673ffffffffffffffffffffffffffffffffffffffff16815260200190815260200160002060010160010181905550826000600a0160008673ffffffffffffffffffffffffffffffffffffffff1673ffffffffffffffffffffffffffffffffffffffff16815260200190815260200160002060010160010181905550816000600a0160008673ffffffffffffffffffffffffffffffffffffffff1673ffffffffffffffffffffffffffffffffffffffff1681526020019081526020016000206001016000018190555050505050565b6000816000600a0160008673ffffffffffffffffffffffffffffffffffffffff1673ffffffffffffffffffffffffffffffffffffffff16815260200190815260200160002060010160020160008573ffffffffffffffffffffffffffffffffffffffff1673ffffffffffffffffffffffffffffffffffffffff16815260200190815260200160002081905550600190509392505050565b6119d4611f8f565b60008260c00181815250506119fa8260a001518360800151611f0c90919063ffffffff16565b8260800181905250611a25826080015160200151836000015160200151611b7b90919063ffffffff16565b826000015160200181905250816060015160000151600001518260600151600001516020018181525050611a72826080015160200151836020015160200151611f0c90919063ffffffff16565b826020015160200181905250819050919050565b611a8e611f8f565b8160600151604001518260600151606001518360a0015102811515611aaf57fe5b048260c00181815250508160a0015182608001516000018181525050611ae68260c001518360800151611b7b90919063ffffffff16565b8260800181905250611b0d8260c00151836060015160000151611f0c90919063ffffffff16565b826060015160000181905250611b388260a00151836000015160200151611b7b90919063ffffffff16565b826000015160200181905250611b67826080015160200151836020015160200151611f0c90919063ffffffff16565b826020015160200181905250819050919050565b611b83611f75565b82600001518211151515611b9657600080fd5b8290508183600001510381602001818152505092915050565b6000866000600a0160008a73ffffffffffffffffffffffffffffffffffffffff1673ffffffffffffffffffffffffffffffffffffffff16815260200190815260200160002060010160010181905550846000600a0160008873ffffffffffffffffffffffffffffffffffffffff1673ffffffffffffffffffffffffffffffffffffffff16815260200190815260200160002060010160010181905550836000600a0160008060000160010160009054906101000a900473ffffffffffffffffffffffffffffffffffffffff1673ffffffffffffffffffffffffffffffffffffffff1673ffffffffffffffffffffffffffffffffffffffff16815260200190815260200160002060010160010181905550816000600a0160008a73ffffffffffffffffffffffffffffffffffffffff1673ffffffffffffffffffffffffffffffffffffffff16815260200190815260200160002060010160020160008573ffffffffffffffffffffffffffffffffffffffff1673ffffffffffffffffffffffffffffffffffffffff1681526020019081526020016000208190555060019050979650505050505050565b6000846000600a0160008873ffffffffffffffffffffffffffffffffffffffff1673ffffffffffffffffffffffffffffffffffffffff16815260200190815260200160002060010160010181905550826000600a0160008673ffffffffffffffffffffffffffffffffffffffff1673ffffffffffffffffffffffffffffffffffffffff16815260200190815260200160002060010160010181905550816000600a0160008060000160010160009054906101000a900473ffffffffffffffffffffffffffffffffffffffff1673ffffffffffffffffffffffffffffffffffffffff1673ffffffffffffffffffffffffffffffffffffffff168152602001908152602001600020600101600101819055506001905095945050505050565b611e7d611ff5565b6000808492508460000151600001514210151515611e9a57600080fd5b846000015160000151420391508382811515611eb257fe5b04836020018181525050838360200151029050600083602001511415611eed5784600001516000015183600001516020018181525050611f04565b611efb836000015182611f0c565b83600001819052505b505092915050565b611f14611f75565b82600001518284600001510110151515611f2d57600080fd5b8290508183600001510181602001818152505092915050565b6101a060405190810160405280611f5b612016565b8152602001611f6861205b565b8152602001600081525090565b604080519081016040528060008152602001600081525090565b6102e060405190810160405280611fa46120a8565b8152602001611fb16120a8565b8152602001611fbe6120e8565b8152602001611fcb61211f565b8152602001611fd8612174565b815260200160008152602001600081526020016000151581525090565b606060405190810160405280612009612174565b8152602001600081525090565b60a06040519081016040528061202a612174565b81526020016000815260200160008152602001600073ffffffffffffffffffffffffffffffffffffffff1681525090565b60e060405190810160405280600073ffffffffffffffffffffffffffffffffffffffff168152602001600015158152602001612095612174565b81526020016120a261218e565b81525090565b608060405190810160405280600073ffffffffffffffffffffffffffffffffffffffff1681526020016120d9612174565b81526020016000151581525090565b606060405190810160405280600073ffffffffffffffffffffffffffffffffffffffff168152602001612119612174565b81525090565b60e060405190810160405280612133612174565b8152602001600073ffffffffffffffffffffffffffffffffffffffff1681526020016000815260200160008152602001600015158152602001600081525090565b604080519081016040528060008152602001600081525090565b6060604051908101604052806121a2612174565b81526020016000815250905600a165627a7a7230582054bb5d32c6b9006f31f4c79d903ada5f7ce4d82773be3932829beaee82e4e2340029",
  "source": "pragma solidity ^0.4.25;\n\nimport \"@digix/lite-dgx-contract/contracts/DummyDGXStorage.sol\";\n\ncontract MockDgxStorage is DummyDGXStorage {\n    constructor() public DummyDGXStorage() {\n    }\n}\n",
  "sourcePath": "/home/rohit/Develop/dao-contracts/contracts/mock/storage/MockDgxStorage.sol",
  "compiler": {
    "name": "solc",
    "version": "0.4.25+commit.59dbf8f1.Emscripten.clang"
  },
  "schemaVersion": "2.0.2",
  "updatedAt": "2019-03-19T02:43:24.501Z"
}